:1000000000000120BD3C0000E53C0000E73C000092
:10001000E93C0000EB3C0000ED3C0000000000006B
:10002000000000000000000000000000EF3C0000A5
:10003000F13C000000000000F33C0000F53C000033
:10004000F73C0000F73C000049300000F73C00009E
:10005000F73C0000F73C000015270000F73C0000CB
:10006000F73C0000F73C0000F73C0000F73C0000C4
:10007000F73C0000F73C0000F73C0000F73C0000B4
:10008000F73C00003D110000F73C0000F73C000089
:10009000DD110000F73C0000F73C0000F73C0000D9
:1000A000F73C0000F73C0000F73C0000F73C000084
:1000B000F73C0000F73C00000000000000000000DA
:1000C000F73C0000F73C0000F73C0000F73C000064
:1000D000F73C0000F73C0000F73C00000000000087
:1000E0000000000000000000000000000000000010
:1000F0000000000000000000000000000000000000
:1001000000000000000000000000000000000000EF
:1001100000000000000000000000000000000000DF
:1001200000000000000000000000000000000000CF
:1001300000000000000000000000000000000000BF
:1001400000000000000000000000000000000000AF
:10015000000000000000000000000000000000009F
:10016000000000000000000000000000000000008F
:10017000000000000000000000000000000000007F
:10018000000000000000000000000000000000006F
:10019000000000000000000000000000000000005F
:1001A000000000000000000000000000000000004F
:1001B000000000000000000000000000000000003F
:1001C000000000000000000000000000000000002F
:1001D000000000000000000000000000000000001F
:1001E000000000000000000000000000000000000F
:1001F00000000000000000000000000000000000FF
:1002000010B5054C237833B9044B13B10448AFF350
:1002100000800123237010BD240200200000000094
:10022000B4470000084B10B51BB108490848AFF3AC
:1002300000800848036803B910BD074B002BFBD0B2
:10024000BDE81040184700BF000000002802002051
:10025000B4470000F001002000000000154B002B07
:1002600008BF134B9D46A3F5803A00218B460F46ED
:100270001348144A121A03F074FF0F4B002B00D0DE
:1002800098470E4B002B00D0984700200021040017
:100290000D000D48002802D00C48AFF3008003F099
:1002A00007FF2000290003F06DFC03F0EDFE00BF06
:1002B0000000080000000120000000000000000015
:1002C00024020020D00900200000000000000000EF
:1002D000F0B595B0002415460F4608461E4601F0BD
:1002E000DFFF384623460822089505A91A9D09967E
:1002F0000D950A948DF82C400C9402F035F89DF879
:100300001430079806998DF8104003F00302012A73
:100310000290ADF80C102CD0022A04D0384601F01F
:10032000CFFF15B0F0BDBDF81650C3F3C202C3F342
:100330008003C5F389158DF80E208DF80F3008263F
:10034000082D2C4628BF0824334622460EA93846DD
:1003500002F00AF82D1B214608AB02AA0EA826447B
:1003600000F08EFC002DEBD1384601F0A9FF15B04E
:10037000F0BDBDF814500598C5F38315C3F3C20E44
:10038000AA000EA9C3F38004C0F3952608233846BB
:100390008DF80EE08DF80F4001F0E6FF08AB0093FA
:1003A0002A4630460EA902AB00F0D2FBB6E700BFEA
:1003B000014B01221A70704740020020704700BFB5
:1003C00030B5114D114889B002F00CFD0FCD6C46CF
:1003D0000FC495E80F00062584E80F004FF0FF33A7
:1003E0004FF0EB7400226946084800950193029390
:1003F0000393069402F008FC08B100F05BFE044B86
:1004000000221A7009B030BDD04400000000002066
:100410004102002000B583B0044B0093044A4023FE
:10042000FFF756FF03B05DF804FB00BF3504000082
:100430004402002010B5094C09480023D2B22370B1
:1004400002F056FD30B9074B1B7813B12378002B0F
:10045000FCD010BD00F02EFEF5E700BF40020020EA
:10046000000000204102002030B5104D0FCD89B0B2
:100470006C460FC495E80F00062584E80F004FF086
:10048000FF334FF0EB740A4A0A480095694601931E
:1004900002930393069402F0B7FB08B100F00AFE42
:1004A000054B01221A7009B030BD00BFD0440000D6
:1004B000B1030000000000204102002010B5054CEF
:1004C000FFF7D2FF2046042100F002FB01236372F4
:1004D00010BD00BF0800002008B5104B10480022D6
:1004E000FF21C3F8182499601A605A60C3F81424D5
:1004F00083F81C2401F08CFE70B90A4B0A4A9A1A40
:10050000D20807D0094903460B5201339A4200F141
:100510000C00F9D1002008BD08BD00BF84020020F6
:1005200000450000D8470000B8470000F401002053
:1005300021B9124A02EBC0000068704730B410497C
:100540000E4D491BC9080ED00E4B5A88824218BF67
:10055000002205D10FE0DC89844203F10C0305D0B1
:1005600001329142F7D1002030BC704705EBC20048
:10057000006830BC70472846FAE700BFB847000063
:10058000D8470000F4010020094B013903EBC000FB
:1005900003290BD8DFE801F00208060402207047A7
:1005A00040797047007970470420704700207047F9
:1005B000B84700002DE9F04F844C626823689A42E6
:1005C00085B042D00023C4F81834BFF34F8F606861
:1005D000A56800EA0503023304EB8302111D1279BA
:1005E00012F0030F024610D10B884988C3F3891318
:1005F00003EB911301331A4405EA0203023304EBBF
:100600008306311D3679B607EED004EB8303511C07
:100610005B680193294004EB810103F00303C9687F
:100620000291022B02F10208684F12D0012B76D002
:10063000032B06D02368181A18BF012005B0BDE8A7
:10064000F08FD7F81834002BF4D1002005B0BDE8A6
:10065000F08FBDF806305E48C3F38919B9F1500F29
:10066000CA46A8BF4FF0500A6AF38F130AF1080177
:10067000ADF8063001F0CEFD0646002800F08F8070
:1006800025EA080B0BF1010B01F00AFE4FEA8B0B78
:100690000023082201A9304601F038FEDA4540F275
:1006A0008880BBF1000F7CD005EA080107EB8101CF
:1006B000CBEB0A050C3108235A463046EDB201F067
:1006C00025FE2A460BF1080307F10C01304601F024
:1006D0001DFE09F1030708EB9707D4F818343B4DCA
:1006E000002B57D1D5F810544DB16B7A31462846BE
:1006F00013B12B681B6898476D68002DF5D1304603
:1007000001F0DEFD002001F0E9F9D4F818342F4A99
:1007100003B95760002001F0E9F960688AE7BDF885
:1007200004302B48C3F38312062A28BF0622911CEB
:1007300062F389138900ADF8043001F06BFD0646C1
:1007400068B301F0ADFD0023082201A9304601F095
:10075000DDFDBDF8043013F4707F35D04FF0000A92
:100760004FF0080908EA050104EB81014B460C3102
:100770000422304601F0CAFDBDF804300AF1010A36
:10078000C3F3831308F10107534509F10409B8467F
:10079000E8D8A2E7304601F093FD68684AE7786838
:1007A00048E7524607F10C010823304601F0AEFD40
:1007B0008FE705EA080107EB81010C315246082357
:1007C000304601F0A3FD84E7474686E78402002017
:1007D000004500002DE9F04F5A4C89B0A368029003
:1007E00000200391019301F079F9A5686168D4F8BC
:1007F00000806B180133C8EB0303032B5FD805F1AE
:100800000109C8EB090904F5836C04F214470126B9
:10081000A2464FF0000E5CE8003F43EA06024CE8B7
:10082000002090F0000FF6D157E8003F43EA06029F
:1008300047E8002090F0000FF6D101EA05030233EB
:1008400004EB8302101D127912F0030F0A4613D134
:1008500003884088C3F3891303EB901301331A44D0
:1008600005EA0203023304EB830B0BF104009BF84F
:1008700004B01BF0030FEBD004EB830302325B6880
:10088000059303F00303012B56D0022B06D1BDF8CC
:100890001630C3F38913033302EB930257E8003F8A
:1008A00003EA0E0047E8000B9BF0000FF6D113B1EE
:1008B000CAF80420114609EB0103032BABD908EA5F
:1008C0000503023304EB830300201A7942F003028C
:1008D0001A7123680233236001F008F9019B029D1D
:1008E00008F101021A4003EA080304EB8202023312
:1008F00004EB8303290CD1601A79C5F3001161F36D
:10090000820265F3C5021A719A886FF389129A8080
:100910005A68039961F39F221146012060F3010197
:100920005A60197194F81C341BB1FFF743FE00287C
:10093000FBD109B0BDE8F08FBDF81430C3F38313C9
:100940001A44ABE7840200202DE9F04F5E4C89B0D9
:100950000746002002910392A66801F0BFF8A5683F
:100960006168D4F800806B180133C8EB0303042BD3
:1009700062D805F1010AC8EB0A0A04F2144C4FF0E0
:10098000010E0196514E56E8003F43EA0E0246E83A
:10099000002090F0000FF6D15CE8003F43EA0E0221
:1009A0004CE8002090F0000FF6D105EA0103023375
:1009B00004EB8302101D127912F0030F0A4615D1C1
:1009C000019E03884088C3F3891303EB901301331E
:1009D0001A4405EA0203023304EB830B0BF1040013
:1009E0009BF804B01BF0030FEBD0019604EB8303DC
:1009F00002325B68059303F00303012B5ED0022BE8
:100A000006D1BDF81630C3F38913033302EB93020A
:100A10004FF000095CE8003F03EA09004CE8000BD6
:100A20009BF0000FF6D113B1274B11465A600AEB29
:100A30000103042BA6D9019E08EA0503023304EB47
:100A4000830300201A7942F003021A7123680333EA
:100A5000236001F04BF808F1020108F10102314076
:100A6000324006EA080304EB810104EB8202023300
:100A700004EB8303039DCD60380CD0601A79C7F373
:100A8000001161F3820267F3C5021A719A8801208E
:100A900060F389129A805A68029961F39F22114685
:100AA00060F301015A60197194F81C341BB1FFF70F
:100AB00081FD0028FBD109B0BDE8F08FBDF81430EE
:100AC000C3F383131A44A3E7840200209C0600208A
:100AD00030B4144DD5F81044002154B1237A8B4220
:100AE00014D0234602E01A7A8A420FD05B68002BAA
:100AF000F9D10172D5F810340A4A7BB15B684360C2
:100B0000D2F810345860084630BC704701310A29C9
:100B1000E3D14FF0FF31084630BC7047C2F81004F3
:100B20004360F0E78402002038B5084BD3F8104446
:100B3000012583F81C543CB12368657220465B682C
:100B400098476468002CF7D138BD00BF84020020AC
:100B50002DE9F04784B01D460C9C002394F80C80CE
:100B60002373EB7981460E4617460BB3062F0FD839
:100B7000DFE807F0363B414804515E00F168B06899
:100B800096E80C00019100904946204601F01CF8BF
:100B9000EB792BB92B7AEBB93349204601F014F8E5
:100BA000204601F005F884F80C8004B0BDE8F08719
:100BB0002B7A002B4BD1AA792C4BA88853F822A072
:100BC0000021FFF7B5FC524603462949204600F0B4
:100BD000FBFFCBE7274A2849204600F0F5FFDBE77B
:100BE0004946204600F0F0FFD2E7326849462046E9
:100BF00000F0EAFFCCE7494696E80C00204600F0FA
:100C0000E3FFC5E7B16896E80C002046009149462D
:100C100000F0DAFFBCE7B068F768316996E80C00CD
:100C200002918DE881004946204600F0CDFFAFE7F4
:100C30007069316996E80C000390B068F76802911A
:100C40008DE881004946204600F0BEFFA0E7A97963
:100C5000A888FFF799FC094B074953F82020204644
:100C600000F0B2FFA7E700BF644500001445000094
:100C7000504500005C4500004C4500002845000040
:100C8000082952D82DE9F0471D46002395F80CA0FD
:100C90002B73D379914680460E46002B46D0002414
:100CA00006E018F80420013400F08EFF082C0AD06A
:100CB000A64231492846F4D830492846013400F08C
:100CC00083FF082CF4D12E49284600F07DFF002434
:100CD00011E018F8047003F01DFA384429494378EC
:100CE00013F0970F14BF3A462E222846013400F025
:100CF0006BFF082C08D0A64223492846E9D80134C6
:100D000000F062FF082CF6D199F8073013B999F872
:100D10000830F3B91D49284600F056FF284600F078
:100D200047FF85F80CA0BDE8F0877047137AB3B988
:100D300099F80620164BB9F8040053F82240002118
:100D4000FFF7F6FB224603461249284600F03CFF17
:100D5000A5E7114A1149284600F036FFDAE79179F4
:100D60009088FFF711FC0E4B0C4953F820202846C1
:100D700000F02AFFDCE700BF684500007045000076
:100D800074450000784500005845000064450000A7
:100D900014450000504500005C4500004C45000033
:100DA00028450000064A4FF0A043105CD3F80435F4
:100DB00023FA00F000F0010080F00100704700BF4E
:100DC000DC450000044B195C4FF0A04201238B402E
:100DD000C2F80C35704700BFDC450000044B195CBD
:100DE0004FF0A04201238B40C2F80835704700BF86
:100DF000DC4500004FF0A04310B44FF480204FF4C6
:100E000000344FF400214FF48012C3F80845C3F8B2
:100E10000805C3F80815C3F808255DF8044B7047AA
:100E20004FF0A04310B44FF480204FF400344FF43F
:100E300000214FF48012C3F80C45C3F80C05C3F829
:100E40000C15C3F80C255DF8044B7047084B4FF0A8
:100E5000A0411B5CD1F80405012202FA03F323EA46
:100E600000020340C1F80825C1F80C35704700BFE7
:100E7000DC45000030B44FF0A04303224FF40035AE
:100E80004FF480244FF400204FF48011C3F844271E
:100E9000C3F84827C3F84C27C3F85027C3F80855B0
:100EA000C3F80845C3F80805C3F8081530BC7047F7
:100EB0000D2809D00E2809D00F2809D010280CBF02
:100EC00003204FF0FF30704700207047012070472B
:100ED000022070472DE9F84F244B1A788AB3DFF8C7
:100EE00090B0DFF89090DFF890A00024012703E095
:100EF0000134E4B2944224D226B2D9F80050DBF88F
:100F0000003015F8360007FA00FE1EEA030F05EB65
:100F1000C608EDD0164A23EA0E03136001F0F0FB79
:100F200015F83650DAF8003007FA05F6334000FAC3
:100F300005F6B34207D00D4B01341A78E4B294425F
:100F4000DAD3BDE8F88FD8F80430002BF3D098F846
:100F50000110A1F10101B1FA81F14909091AB1FAAF
:100F600081F1490928469847E5E700BF7C07002042
:100F7000A407002078070020A007002070B50646CF
:100F8000114800F075FD40B9104D01242B68B440A4
:100F90001C4203D023EA04042C6070BD304601F0EB
:100FA000AFFB0B4A136860B123432E6809491360F5
:100FB00034432C60044809680022BDE8704000F00A
:100FC00007BD23EA0403F0E780070020A407002000
:100FD000A007002074070020042A01D807207047CA
:100FE0002DE9F04182B088460546174601F054FAD3
:100FF000002834D01C4C1D481D491E4A1E4B25603C
:10100000002608F1FF340F6080F8008016601E6033
:10101000E4B20327B8F1000F03D11AE0DBB2C4B188
:101020001C4623B205EBC30215F833009378134A2C
:101030008DF8053001A98DF804708DF806608DF8E3
:10104000076001F033FA631E0028E7D002B0BDE864
:10105000F0810B4A0B48002100F0A8FCF6E701F0F4
:10106000D9F90028C6D0F1E7780700207C070020D6
:1010700074070020A0070020A40700207D0F0000B7
:10108000D50E0000E045000070B5084D2B785BB12F
:10109000074E00243368012113F8340001F0CEFA22
:1010A0002B780134A342F5D8002070BD7C070020C6
:1010B0007807002000B585B000230390194601AAE7
:1010C00044F20100ADF80430029300F003F805B0DB
:1010D0005DF804FB10B5FFF727FDFFF76BFA00285A
:1010E000FBD1104C10492088000440F00100FFF7AC
:1010F00071FB0E4B1B68DB0700D5FFDE20880C4917
:10110000000440F00200FFF765FBBFF34F8F094971
:10111000094BCA6802F4E0621343CB60BFF34F8F00
:1011200000BFFDE7F4010020E4450000F0ED00E021
:10113000F045000000ED00E00400FA05F8B5204A93
:10114000204B0025C2F84051C2F84451C2F8485122
:10115000C2F84C51C2F80051C2F804511B6813B3D5
:101160001949D2F804250C68141B1A6824F07F442E
:10117000A2422F4609D8197CDE69A41A154499B9F0
:101180001EB133461A68A242F5D9104B10491A789D
:101190000B789A420DD00F490F4A41F823504FF473
:1011A0008013C2F80031F8BD1F745A6998699047DE
:1011B000E6E7531CDBB2022B08BF00230B70EAE703
:1011C00000100140AC070020A8070020B007002055
:1011D000B1070020C008002000E100E02DE9F04F39
:1011E000884A89491378097899428BB037D00133FE
:1011F000DBB2022B08BF002384491370844A0E68B7
:10120000029152F82300834905910B680299321824
:10121000002522F07F420A602C462946AE46ABB13B
:101220001A68824200F2E681DD68C3F800E0801AA5
:101230001444DA6935B1371927F07F47D9619D60C9
:101240005F60194613460125002BE9D1002D40F0BF
:10125000DC820023069301230893069A08E06D4B75
:1012600005931B68694A02920021069308911A4669
:10127000694BDFF8AC811B780393029B1F68059BC9
:101280001B68BA461C460F4600230993C3460793C2
:10129000994618464FF0010E0193A4463FB37D686E
:1012A000BE683946FF695D4BCAEB050424F07F44F4
:1012B0009C423CD8A3190B604860886081F810E01C
:1012C000C861002A68D015689D4249D2164603E0DD
:1012D00025689D4234D22646F4695B1B002CF7D169
:1012E000CC610B601446F1612246002FD7D198F8EB
:1012F000003098F80110994200F09480591C03EBDB
:1013000043039BF8024008EBC303C9B28C421C792B
:101310008BF8001008BF8BF80070022C99684ED033
:10132000032C3FD0012C24D014462246DDE7C5EB28
:101330000A0525F07F45B54209D2731B0B60BBE758
:10134000ED1A2560CC610B601446F161CCE70860B2
:101350004860886081F810E0C861EAB11568002330
:10136000EB1A0C4613608C46CA614FF00109224605
:10137000BBE70C7C0494002CD6D1DD684D601E695F
:101380008E605C69CC609B698B61039B002B8AD06B
:10139000049B4B601D4686E70C468C464FF00109C6
:1013A0002246A2E70AB9BFE71A46D3691074002B98
:1013B000FAD11C469C464FF00109224695E752B1EE
:1013C000914200F00B81134602E0B14207D0334650
:1013D000DE69002EF9D114460874224685E7994249
:1013E00000F0FE801446F5693668DD6115B12B68A2
:1013F00033442B60019B0874A24218BF0123019360
:10140000EBE700BFB0070020B1070020A8070020CD
:10141000C0080020AC070020B2070020FEFF7F00BC
:10142000B40700205746DDF804A0B9F1000F40F0E2
:101430004981079B002B40F0E581099B002B40F080
:10144000DC81BAF1000F03D1069B9A4200F03F8184
:10145000002A00F041816C49029BD1F804051B6809
:101460006A4C17682578C21A22F07F420332002D99
:1014700051D1674DDFF89CC1DFF89CE14FF4803615
:10148000C1F84463C1F804634FF40036C5F88061C5
:101490002E6001250D60DCF800602F2100BF00BF29
:1014A00000BF00BF00BF00BF00BF00BF76452FD008
:1014B00000BF00BF00BF00BF00BF00BF00BF00BF34
:1014C00000BF00BF00BF00BF00BF00BF00BF00BF24
:1014D00000BF00BF00BF00BF00BF00BF00BF00BF14
:1014E00000BF00BF00BF00BF00BF00BF00BF00BF04
:1014F00000BF00BF00BF00BF00BF00BF00BF00BFF4
:1015000000BF00BF00BF00BF00BF00BF00BF00BFE3
:101510000139C3D1257097422CBFDA199A183A497C
:1015200022F07F43C1F84035D1F80425121A1B1A66
:1015300022F07F4223F07F4303329A4248D9D1F808
:101540000435344AC1F84035126833492F2300BFAF
:1015500000BF00BF00BF00BF00BF00BF00BF8A4286
:101560002FD000BF00BF00BF00BF00BF00BF00BF43
:1015700000BF00BF00BF00BF00BF00BF00BF00BF73
:1015800000BF00BF00BF00BF00BF00BF00BF00BF63
:1015900000BF00BF00BF00BF00BF00BF00BF00BF53
:1015A00000BF00BF00BF00BF00BF00BF00BF00BF43
:1015B00000BF00BF00BF00BF00BF00BF00BF00BF33
:1015C00000BF013BC3D1124B4FF40032C3F80021DE
:1015D000124A002313700BB0BDE8F08F1646134675
:1015E000D2F81C90B9F1000F1AD0CC464C464FF0FF
:1015F0000109F8E6002D62D1121A1A600693012340
:101600000893069A34E600BF00100140C808002085
:1016100000E100E0140000200024F400B2070020E4
:101620007B4C7C4DC4F808E07B4C4FF02F0C2468B9
:1016300000BF00BF00BF00BF00BF00BF00BF00BFB2
:10164000AC422FD000BF00BF00BF00BF00BF00BF33
:1016500000BF00BF00BF00BF00BF00BF00BF00BF92
:1016600000BF00BF00BF00BF00BF00BF00BF00BF82
:1016700000BF00BF00BF00BF00BF00BF00BF00BF72
:1016800000BF00BF00BF00BF00BF00BF00BF00BF62
:1016900000BF00BF00BF00BF00BF00BF00BF00BF52
:1016A00000BF00BFBCF1010CC2D101242546099442
:1016B000CC464C46CA4603950795A94693E6059C39
:1016C000236099E7059B1946C1F800C0B1E6089B65
:1016D000002B3FF47DAFBBE64D49504B4E4E4D4C79
:1016E0004FF480304FF400370125C3F88070C1F803
:1016F00048032F23C1F808034D6030681E4600BF21
:1017000000BF00BF00BF00BF00BF00BF00BFA042BE
:101710002FD000BF00BF00BF00BF00BF00BF00BF91
:1017200000BF00BF00BF00BF00BF00BF00BF00BFC1
:1017300000BF00BF00BF00BF00BF00BF00BF00BFB1
:1017400000BF00BF00BF00BF00BF00BF00BF00BFA1
:1017500000BF00BF00BF00BF00BF00BF00BF00BF91
:1017600000BF00BF00BF00BF00BF00BF00BF00BF81
:1017700000BF013EC3D18D6002990A6000BF00BF67
:1017800000BF00BF00BF00BF00BF00BFA0422FD0FE
:1017900000BF00BF00BF00BF00BF00BF00BF00BF51
:1017A00000BF00BF00BF00BF00BF00BF00BF00BF41
:1017B00000BF00BF00BF00BF00BF00BF00BF00BF31
:1017C00000BF00BF00BF00BF00BF00BF00BF00BF21
:1017D00000BF00BF00BF00BF00BF00BF00BF00BF11
:1017E00000BF00BF00BF00BF00BF00BF00BF00BF01
:1017F000013BC3D10A4B1A70EAE60A4B9DF80C1064
:1018000019701EE6029B1F6017E6059A136020E51B
:10181000001001400024F4001400002000E100E06A
:10182000C8080020B2070020F0B4564B564A574E65
:10183000574C4FF480304FF400310125C2F880102E
:10184000C3F848032F21C3F808035D6030680E46D3
:1018500000BF00BF00BF00BF00BF00BF00BF00BF90
:10186000A0422FD000BF00BF00BF00BF00BF00BF1D
:1018700000BF00BF00BF00BF00BF00BF00BF00BF70
:1018800000BF00BF00BF00BF00BF00BF00BF00BF60
:1018900000BF00BF00BF00BF00BF00BF00BF00BF50
:1018A00000BF00BF00BF00BF00BF00BF00BF00BF40
:1018B00000BF00BF00BF00BF00BF00BF00BF00BF30
:1018C00000BF00BF013EC3D19D6000BF00BF00BF8D
:1018D00000BF00BF00BF00BF00BFA0422FD000BFAD
:1018E00000BF00BF00BF00BF00BF00BF00BF00BF00
:1018F00000BF00BF00BF00BF00BF00BF00BF00BFF0
:1019000000BF00BF00BF00BF00BF00BF00BF00BFDF
:1019100000BF00BF00BF00BF00BF00BF00BF00BFCF
:1019200000BF00BF00BF00BF00BF00BF00BF00BFBF
:1019300000BF00BF00BF00BF00BF00BF00BF013934
:10194000C3D1144E144D154C1549164F002030705C
:10195000286020704FF48015E0240B260870487032
:101960008E7038701049C2F8805182F814431560A7
:10197000C3F8080582F81143D3F804350B60F0BCB6
:10198000704700BF0010014000E100E0140000209B
:101990000024F400C8080020AC070020B007002095
:1019A000B4070020B1070020A8070020074B9B7850
:1019B0000BB9082070473AB130B10368187C002891
:1019C000F7D159745A61704707207047B407002057
:1019D0002DE9F041234CA37813B90820BDE8F0812C
:1019E0000028FAD0042902D80720BDE8F081436915
:1019F000002BF2D0437C0546012B4FF000000CBFBA
:101A00008846804617460E4600F068F86378A0784E
:101A100021785A1CD2B2904208BF002291421AD0BB
:101A200003EB430304EBC30301200F499D601871CE
:101A3000D1F80415D9601E61C3F814809F6100209D
:101A4000627000F053F8094B4FF48012C3F8002184
:101A50000020BDE8F081002000F048F80420BDE837
:101A6000F08100BFB40700200010014000E100E059
:101A700070B5184DAB780BB9082070BD0028FBD0AD
:101A80004369002BF8D0002404740646204600F079
:101A900025F86A78A8782978531CDBB2984208BFE9
:101AA0002346994211D002EB420205EBC202022109
:101AB0002046966011716B7000F018F8064B4FF4D9
:101AC0008012C3F80021204670BD204600F00EF8B9
:101AD000042070BDB407002000E100E072B6024AA5
:101AE0001368013313607047CC080020034A136861
:101AF000013B136003B962B6704700BFCC080020F9
:101B0000B8B130B4416882680468521AD2B2531E28
:101B10002160DBB242B101680A685C1E551C0D6091
:101B20001370E3B2FF2BF6D103680020187130BCAC
:101B300070470E20704700BF70B504460020FFF7C5
:101B4000CDFF236861681A688A4215D9511E196051
:101B50002168A3680D680879268A12F8012CE468C8
:101B60005B1BDBB2984206FB024400D20B710020E3
:101B7000FFF7BCFF204670BD00240020FFF7B6FF32
:101B8000204670BD38B5054600200C46FFF7A6FF7D
:101B90002A681368591C1160E9682A8A641AB4FB20
:101BA000F2F41C700020BDE83840FFF79FBF00BF73
:101BB000826802B9704710B504464369016800693C
:101BC00098470023A36010BD0EB400B582B00399FE
:101BD00029B102AA04AB42F8043D00F095F802B026
:101BE0005DF804EB03B070472DE9F84F1746B94292
:101BF000884606461D46DDF828B00B9A7DD30B4675
:101C00004FF00109B3FBF7F39F4209F10109F9D93C
:101C1000A94538BFA94612F0010A02D1BBF1000F55
:101C200049D1B268012402E0013D07FB04F4012D13
:101C3000FAD8B8FBF4F18F42F7D9324D05E0B4FB86
:101C4000F7F4A4B1B8FBF4F1B268685C531CB3605C
:101C500033689854B26873689A4201FB1488EED3D3
:101C60003046FFF7A5FFB4FBF7F4002CEAD1BAF138
:101C7000000F16D0BBF1000F33D0CB4588BF202416
:101C80003ED9B3683268591CB160D454B2687368E5
:101C90009A420BF1FF3B06D2BBF1000F09D0D945A8
:101CA000EFD3BDE8F88F3046FFF782FFBBF1000F9E
:101CB000F5D1BDE8F88F93071AD42024D945B0D2C6
:101CC000B2683368511CB1609C54B26873689A4220
:101CD0000BF1FF3B07D2BBF1000FA3D0D945F0D3E6
:101CE000A0E7BDE8F88F3046FFF762FFB268F2E781
:101CF000002D0CBF30242024E0E74FF0010987E7D6
:101D0000BDE8F88F08460000002900F061822DE947
:101D1000F04F064685B091460C460B78DFF8ECA4F0
:101D20000DE0B2683168501CB0608B54B2687368C3
:101D30009A4280F0D3802378002B00F0BA800134DF
:101D4000002B00F0B680252BEBD14FF00008214688
:101D500014F8013B2D2B00F0BB80302B00F0BB8032
:101D60002B2B00F0AD802A2B00F0BC80A3F13005B6
:101D7000EAB2092A98BF013102D9A6E1A2F13005E1
:101D80000C4611F8013BA3F1300005EB8502092850
:101D900003EB4202F2D91A462E2A00F0AF80002748
:101DA00001E014F8012F02F0FB03682BF9D0253A6B
:101DB000532A79D8DFE812F07601780078007800AD
:101DC0007800780078007800780078007800780053
:101DD0007800780078007800780078007800780043
:101DE0007800780078007800780078007800780033
:101DF0007800780078007800780078007800780023
:101E00007800780078007800780078007800780012
:101E10007800780078007800780078007800660113
:101E200078007800780078007800780078007800F2
:101E3000780078005101F900780078007800780087
:101E4000F900780078007800780078007800540075
:101E500078007800C9007800B90078007800660141
:101E6000D9F80020131DC9F80030B368316815682F
:101E7000581C3022B060CA54B3687268934280F034
:101E8000AE813268581C7821B060D154B268736852
:101E90009A4280F0A08100220823019229460093F3
:101EA00010223046FFF7A0FE01342378002B7FF488
:101EB00046AF337B002B40F0028105B0BDE8F08FC8
:101EC000214614F8013B2D2B48F004087FF445AF60
:101ED00048F001083BE748F0020838E73046FFF7D2
:101EE00067FE28E7D9F800301A1DC9F800204A78A3
:101EF0001D682E2A01F101047FF451AF6278A2F12E
:101F00003003092B04F101044FF000073FF64BAFFB
:101F100007EB870702EB470714F8012FA2F1300304
:101F2000092BA7F13007F3D93DE7D9F800301A1D86
:101F3000C9F800201968CDF804803B4600950A22B4
:101F40003046FFF751FE0134AFE7D9F800301A1DD3
:101F5000C9F8002018F0010F1F6840F0BD80002F65
:101F600000F05281384602F004F98046454540F2BF
:101F7000FB80002D00F0F8804FF0200B05E0454578
:101F800040F2F280002D00F0EF80B2683368511CFF
:101F9000B16003F802B0B26873689A4205F1FF3588
:101FA000EDD33046FFF704FEE9E7D9F800301A1DFB
:101FB000C9F80020D3F800B08BEAEB73A3EBEB7306
:101FC000092B4FF0010108DD8AFB0302DB17C3EB8D
:101FD000A203092B01F10101F6DCB94238BF3946F1
:101FE00035B1BBF1000F02DB18F0040F00D0013D4A
:101FF00018F0020F6DD118F0010F17D1002D00F06D
:10200000E8808D4288BF202310D9B268501CB06090
:1020100030688354B2687068824205F1FF3580F001
:102020008A80002D00F0D5808D42EED8BBF1000FE4
:10203000C0F2DA8018F0040F40F0858008F0030346
:10204000022B00F0A4808DE820013B4659460A226D
:102050003046FFF7C9FD013427E7D9F80020131DEA
:10206000C9F80030B36831681278581CB060CA549F
:10207000B26873689A42FFF417AF3046FFF798FDD5
:10208000013412E7D9F800301A1DC9F80020196888
:10209000CDF804803B46009510223046FFF7A4FDA2
:1020A000013402E7B3683268591CB1604FF0250172
:1020B000D154B26873689A42DFD20134F5E63046F3
:1020C00005B0BDE8F04FFFF773BD1A460C4600257A
:1020D00062E6002FAAD08EE7B846C7EB080B18F8C7
:1020E000012B8AB1B1683368481CB0605A54B26899
:1020F00073689A42F1D33046FFF75AFDC7EB080BDD
:1021000018F8012B002AEDD15D457FF6CDAE2027D2
:1021100002E05D457FF6C8AEB2683368511CB1601D
:102120009F54B26873689A4205F1FF35F1D3304687
:10213000FFF73EFDEDE7304603930291FFF738FDD0
:10214000039B02996DE7B268531CB36033682B2080
:102150009854B26873689A42FFF470AF30460291A7
:10216000FFF726FD029969E7013F17F8013F002BB1
:102170003FF49AAEB2683168501CB0608B54B268BC
:1021800073689A42F1D33046FFF712FDEDE7002F56
:102190007FF459AF002D35D08D4288BF30237FF6B4
:1021A00052AFB268501CB06030688354B268706837
:1021B000824205F1FF3503D225B38D42F1D842E7C3
:1021C000304603930291FFF7F3FC039B0299F3E778
:1021D000704700252AE73046FFF7EAFC5BE6304609
:1021E000FFF7E6FCB3684CE6B268531CB360336893
:1021F0002D209854B26873689A42CBF1000BFFF41B
:102200001DAFABE700251EE7B846AFE6676666661A
:10221000FFF776BC2DE9F041B0F81080A8F1040872
:102220004144CF1C0646B7FBF8F7FFF785FC80B3A7
:10223000FFB200250123013F0446A0F80680066096
:102240000571437128D0804609E06379AF4203F1FC
:1022500001036371C8F80000066080461CD0304658
:10226000FFF76AFC01350028EFD16679721E23461C
:1022700003D0013082421B68FBD81F684EB1002595
:1022800023682146013538461C46FFF77BFCAE42E9
:10229000F6D10020BDE8F0812046BDE8F08100BF06
:1022A00010B40430012350E8002F02EB030140E892
:1022B000001494F0000FF6D15DF8044B704700BF96
:1022C0000146021DF8B5012052E8004FA4EB0003BF
:1022D00042E8003595F0000FF6D113F0FF0300D06F
:1022E000F8BD4E79701E0A4603D001339842126839
:1022F000FBD81768002EF3D000240D68013438464F
:10230000FFF740FCA6422946F7D1F8BD2DE9F84376
:102310000446181DE688B0FBF6F30F46904606FB10
:10232000130013B1013B2468FCD1351A454528BF81
:102330004546B8F1000F15D04FF000092044C5EB19
:1023400008082A4607EB0901043001F0FFFE464564
:10235000A944246835464FF0000028BF4546B8F12F
:10236000000FEBD1BDE8F8832DE9F843C6880433AC
:1023700004460F46B3FBF6F0904606FB103110B151
:1023800001382468FCD1751A454528BF4546B8F187
:10239000000F15D04FF000092144C5EB08080431A7
:1023A0002A4607EB090001F0D1FE4645A9442468FE
:1023B00035464FF0000128BF4546B8F1000FEBD17C
:1023C000BDE8F883002810B418DB00F1604303F582
:1023D00061434901C9B283F80013C3B240098000C8
:1023E00000F1604000F5614003F01F0201239340BB
:1023F000C0F8803103605DF8044B7047C3B2044AF3
:1024000003F00F0449012244C9B21176E6E700BF88
:10241000FCEC00E030B51D4C94F8545083B015B17D
:10242000082003B030BD4FF0FF33FF220721062004
:1024300023636363A363E36323646364A364E36468
:1024400023606360A360E36023616361A361E36170
:10245000236284F850306362A36284F85230E362EE
:1024600084F8533084F85120FFF7ACFF084B094A39
:102470001D601B68019301984FF00043012128461D
:1024800084F85410C2F8043303B030BDD0080020E3
:102490007C61004000600040034B93F85400003022
:1024A00018BF0120704700BFD0080020F0B5624C73
:1024B000251895F93030002B01DB0820F0BD91F88C
:1024C00003E09446BEF1000F56D02368013300F0BC
:1024D000A380002508266B1C574F54F82320013297
:1024E00051D0AB1C9E4245D957F8232001324AD027
:1024F000EB1C9E423ED957F82320013243D02B1DBE
:102500009E4237D957F8232001323CD06B1D9E42A2
:1025100030D957F82370013735D0AB1D9E4229D9E9
:1025200054F82320444F01322DD0EB1D9E4221D977
:1025300057F82320013226D005F108039E4219D90D
:1025400057F8232001321ED005F109039E4211D90C
:1025500057F82320013216D005F10A039E4209D90B
:1025600057F8237001370ED00B35AE4202D9E36A1B
:10257000013307D00420F0BD236A013353D008256E
:102580000C26A8E70B2326185DB244F823C086F872
:102590003050BEF1000F02D1234483F848008B78FD
:1025A000A3B94A784FF0A04600F5E073920046F8D0
:1025B0002320CB78A3B9083D2C44097894F8502007
:1025C00042EA811284F850201846F0BD830003F1DE
:1025D000A043D3F8002722F00202C3F80027E8E75F
:1025E000AB0003F1804303F5C0430A78D3F810151C
:1025F00021F4473121F44071C3F810151204000290
:1026000002F44031D3F8104500F4F8520A43224353
:10261000C3F810250020F0BD002385F83030C4F841
:1026200000C01D46BBE7082685F830603346C4F875
:1026300020C03546B0E700BFD0080020F0B42E4DD2
:102640002E1882B096F93030072B1CDD2B4493F8FE
:1026500048309B09032B41D0012B14BF4FF440336A
:102660004FF40033800000F1A040D0F8002722F49E
:102670004032C0F80027D0F800271343C0F80037D5
:1026800002B0F0BC7047DAB2072AF9D8980000F11E
:10269000804000F5C04003F140029200D0F81045A0
:1026A00092B202F18042002744F0010402F5C042D8
:1026B000C0F810450197019817600029E0D096F9FD
:1026C000302055F82220002ADAD001220B4902FAE4
:1026D00003F3C1F8043302B0F0BC70474FF0A043DD
:1026E000D3F81035C34013F0010F0CBF4FF4003383
:1026F0004FF44033B6E700BFD00800200060004030
:102700004FF0A043D3F8103523FA00F000F0010099
:10271000704700BF2DE9F04387B00026C94B0196F2
:102720001A68012A00F00482C74B1A68012A00F0D7
:10273000F181C64B1A68012A00F0DE81C44B1A6889
:10274000012A00F0CB81C34B1A68012A00F0B8813E
:10275000C14B1A68012A00F0A581C04B1A68012AF2
:1027600000F09281BE4B1A68012A00F07F81BD4BB8
:102770001A68012A00F0598116F0FF0F1AD0BA4FDB
:1027800001250024A30003F180432E4203F5C0433A
:102790004FEA45050BD0D3F8100557F82420D3F89D
:1027A0001015C0F30420C1F3014102B19047013478
:1027B000082CE7D1002E02DB07B0BDE8F083AA4C5D
:1027C00000224FF0FF3327460292039301260DF1BA
:1027D000080894F950104D1C2DD0C9B221F0C0004A
:1027E00006AB4FEAD00E03EB0E0201F0070312F81E
:1027F0000CCC06FA03F31CEA030F1CD03D18890920
:1028000095F9305057F82590B9F1000F00F0E880A5
:10281000032900F0E8804FEA800E0EF1A04E12F876
:10282000145CDEF800271D40C2F3014240F0B58081
:10283000032A00F0A281002594F95110481C2FD0E2
:10284000C9B221F0C00006AB4FEAD00E03EB0E0276
:1028500001F0070312F80CCC06FA03F31CEA030F8D
:102860001ED007EB000C89099CF930C057F82C905A
:10287000B9F1000F00F0C680032900F0C6804FEACE
:10288000800E0EF1A04E12F814CCDEF800271CEAE0
:10289000030FC2F3014240F08D80032A00F09281C1
:1028A00094F952104A1C2ED0C9B221F0C00006ABD8
:1028B0004FEAD00E03EB0E0201F0070312F80CCC26
:1028C00006FA03F31CEA030F1DD007EB000C89097D
:1028D0009CF930C057F82C90B9F1000F00F08980B6
:1028E000032900F088804FEA800E0EF1A04E12F806
:1028F00014CCDEF800271CEA030FC2F3014265D1B5
:10290000032A00F04C8194F953104B1C2CD0C9B20F
:1029100021F0C00006AB4FEAD00E03EB0E0201F02F
:10292000070312F80CCC06FA03F31CEA030F1BD0C2
:1029300007EB000C89099CF930C057F82C90B9F1CD
:10294000000F69D0032969D04FEA800E0EF1A04E26
:1029500012F814CCDEF800271CEA030FC2F3014280
:1029600011D1032A00F0F080002D3FF425AF4FF085
:10297000A043019AD3F8103593423FF41DAF029A59
:102980000193039225E7022AEED1032900F02D815D
:10299000B9F1000FE8D0C847E6E7022A7FF44BAF51
:1029A000032900F02B810025B9F1000F3FF444AF5B
:1029B000C84741E7022A7FF473AF032900F018816A
:1029C000B9F1000F3FF46CAFC84769E7022A9AD10A
:1029D000032900F01081B9F1000F94D0C84792E7A5
:1029E00003297FF428AF18F80E501D4308F80E5045
:1029F00011E7032987D118F80EC04CEA030C08F838
:102A00000EC070E703297FF44BAF18F80EC04CEAF4
:102A1000030C08F80EC032E70329A5D118F80EC040
:102A20004CEA030C08F80EC08EE700221A601B68FF
:102A300005934FF0A043059AD3F81035019346F063
:102A4000004699E6006100400461004008610040D2
:102A50000C610040106100401461004018610040AA
:102A60001C6100407C610040D0080020654AD2F81B
:102A7000042317067FF57BAE00221A601B680493BF
:102A8000049B46F0800672E65E4AD2F804235206A2
:102A90007FF568AE00221A601B680493049B46F021
:102AA00040065FE6574AD2F8042391067FF555AEFB
:102AB00000221A601B680493049B46F020064CE633
:102AC000504AD2F80423D0067FF542AE00221A60A5
:102AD0001B680493049B46F0100639E6494AD2F875
:102AE000042314077FF52FAE00221A601B6804939D
:102AF000049B46F0080626E6424AD2F8042355070E
:102B00007FF51CAE00221A601B680493049B46F0FC
:102B1000040613E63B4AD2F8042397077FF509AE73
:102B200000221A601B680493049B46F0020600E62C
:102B30003449D1F8041311F001011CD01E601B6848
:102B40000493049B1646EFE503297FF421AF4FF46D
:102B50000033DEF8002722F44032CEF80027DEF8FA
:102B6000002701351343EDB2CEF80037B9F1000F5D
:102B70007FF411AFFBE60E46D6E503297FF414AFD0
:102B80004FF40033DEF8002722F44032CEF800275D
:102B9000DEF800271343CEF80037012504E70329A8
:102BA0007FF419AF4FF40033DEF8002722F44032EF
:102BB000CEF80027DEF8002701351343EDB2CEF83A
:102BC000003708E703297FF4FBAE4FF40033DEF84B
:102BD000002722F44032CEF80027DEF80027013526
:102BE0001343EDB2CEF80037EAE64FF44033B0E7D6
:102BF0004FF44033EBE74FF44033D5E74FF4403325
:102C0000C0E700BF00600040F0B50479724E640177
:102C1000331987B0DD7E15B1082007B0F0BD4D7FB8
:102C20001D770D686B1C0BD04FF0A0470123AB4004
:102C3000C7F808350B6803F5E073032547F8235000
:102C40004B685F1C06D003F5E0734FF0A0450027EA
:102C500045F82370037906EB43131B7F002B4DD0FF
:102C600003688D69C3F824554F7D0B7D05683B4390
:102C7000C5F86C3503680F684D68C3F80C75C3F868
:102C800014550B7D012B00F09B80331905465A60CB
:102C90000B6951483351EAB12B79097F2A6800EB5F
:102CA0004310037F002B65D1C2F81C31D2F81C7190
:102CB0002A680097009FC2F84431D2F844212B685B
:102CC00046480192019AC3F80403286840F307308C
:102CD000FFF778FB2B792A6806EB43131B7F002B49
:102CE00044D00823C2F80035344400200123E376A1
:102CF000E0752076A075A07607B0F0BD05688F69F5
:102D0000C5F8247591F815E00D7D07684EEA0505B4
:102D1000C7F86C550568D1F800E04F68C5F8147520
:102D2000C5F80CE50D7D012DAFD18D686F1C05D068
:102D300005F5E0754FF0A04747F82530CB685D1CDE
:102D40000DD001254FF0A04705FA03F3C7F8083569
:102D5000CB6803F5E073032547F82350CB6805687B
:102D60008F68C5F80835C5F810758EE70423C2F8DA
:102D70000035B9E70023C2F81031D2F810712A6883
:102D80000297029FC2F82031D2F820712A68039777
:102D9000039FC2F82431D2F824712A680497049F53
:102DA000C2F84431D2F844212B6805920C48059AA8
:102DB000C3F80403286840F30730FFF703FB89E7F3
:102DC0008B685D1CBAD003F5E0734FF0A045002777
:102DD00045F82370B2E700BF2809002080000200F8
:102DE00010030200F0B503793D4A04685B01D11875
:102DF000097F00296DD00021C4F80015D118384C86
:102E00004968B1B1017904EB4114217F002963D1F4
:102E10000168344CC1F808430168334E090B4CB2C9
:102E20006409203401F01F01012505FA01F146F87B
:102E300024100179076802EB4111D7F80C65097F6E
:102E4000D7F814554FF0FF3EA9B3D7F80815D7F8B7
:102E50001045C7F80CE5C7F814E50068C0F808E5A8
:102E6000C0F810E5771C06D006F5E0764FF0A040DC
:102E7000022740F826706E1C06D005F5E0754FF06D
:102E8000A040022640F82560651C06D004F5E074D9
:102E90004FF0A040022540F82450481C06D001F510
:102EA000E0714FF0A040022440F82140134400227A
:102EB000DA765A60F0BDD7F80815D7F81045C7F88C
:102EC00014E5C7F80CE50068C0F808E5C0F810E59F
:102ED000C8E7C4F8001591E70168044C9AE700BF01
:102EE000280900208402020000E100E01003020033
:102EF000F0B50379534C5B01E51887B02D7F3DB1E8
:102F000001F06045B5F1005F02D0102007B0F0BDC0
:102F100023444C4F9E7D16B1112007B0F0BD9A7529
:102F200099609E8205796D017A19137F13BB016840
:102F3000C1F81C31D1F81C61016804960126049F78
:102F40008E600168D2F808E0C1F81C31D1F81C315C
:102F50000593059B968A938A5768B6B201331EF88B
:102F600006609BB29382C1F81C65002F2FD0002011
:102F700007B0F0BD03689168C3F82061D3F82071F1
:102F800003680197019FC3F85861D3F8586103683B
:102F90000296967D029FC3F84415C3F848650368FE
:102FA000012199605368002BE1D1036801E00029F9
:102FB00045D1D3F82021D3F85811002AF7D00029A1
:102FC00014BF0F2000202C440023A3759EE7967D9C
:102FD000938A9BB29E4202F1140122D9016804E057
:102FE000938A9BB2B3F5807F03D0D1F81C31002BBC
:102FF000F6D0938A9BB2B3F5807FE9D0C1F81C71FB
:10300000D1F81C310393039BB2F814C0938A1FFAC2
:103010008CFC01331EF80CC09BB29382C1F81CC516
:10302000D6E70B889BB2B3F5807F08D00268D2F850
:103030001C31002BFBD00123D3600020C3E70F20FD
:10304000C1E700BF2809002070B59B4C237F8EB0DC
:10305000002B75D1994AD2F80413890548D4974BAF
:10306000D3F80423520704D5D3F80821002A40F0EE
:10307000CA80924BD3F81C21C2B1A28AA07D8E498E
:1030800092B282424FF00002C3F81C2180F0A98066
:10309000D3F81C210692069A888A8A8A8D6880B2A3
:1030A0000132285C92B28A82C3F81C05834BD3F8A4
:1030B0004421DAB10022C3F84421D3F84411A27E9E
:1030C00004910499002A40F08980E27D7A4B6AB12C
:1030D0000022587ED968DA7501228DF830000B91F4
:1030E0008DF828200AA893E8060090470EB070BD1E
:1030F000D2F824110029B2D0C2F82431D2F8241118
:10310000A37E07914FF401710798C2F808130BB919
:1031100001235360694A02238DF82830D2F88034A5
:10312000C2F88034E07DE2680D9300238DF8300012
:10313000E375237621680B9263680AA8984798E79D
:103140005E4BD3F82421002A40F09380D3F810116D
:1031500061B1C3F81021D3F8101103910399D3F88A
:103160003C15E07DC9B2884200F0AA80534BD3F8E9
:103170004421B2B10022C3F84421D3F84411E07DC8
:10318000019101994C4960B1D3F83C35C8688DF87C
:1031900030300123CA750B908DF828300AA80AC96F
:1031A0009847464BD3F82021002A9FD00022C3F82D
:1031B0002021D3F82011A07D009100993E490028DC
:1031C00094D0D3F84C058B688DF830008A750B933A
:1031D0008DF828200AC90AA8984787E701221A60B3
:1031E00073E7D3F81C310593059B00283FF45EAFCD
:1031F0008B688DF830008A750B938DF828200AC9EA
:103200000AA8984752E7E17D2B4A002970D0002197
:10321000C3F80811D3F8081108910899D068517EB5
:10322000D3F818354354537ED17D0133DBB2537646
:10323000627E214B8A427FF41CAF1A7E002A6DD138
:103240009B7E13B91D4B01225A601C4AE0686368DB
:103250004FF40171C2F80813627E8DF8302000250A
:1032600001220B902168E5758DF828200AA898475F
:10327000FFE60022C3F82421D3F824110291022191
:103280008DF828100299D3F88014C3F880140D919A
:10329000D3F83C15E368E27522768DF830100B9375
:1032A000216863680AA89847044BD3F84421002A90
:1032B0003FF477AF5EE700BF280900200020004000
:1032C000217EF1B1D3F80062E17526F02001E568B6
:1032D000C3F8001226698DF8300001238DF82830DC
:1032E000227621680B95E66063680AA898473DE757
:1032F000C3F80811D3F808210992099AD3F81835B0
:1033000096E7E268E17501238DF830008DF82830EA
:103310000B9294E80A000AA8984727E7DE685D7ECA
:103320001869DA7501210022D8601A765A768DF86C
:1033300028100B968DF8305093E806000AA89047A5
:1033400097E600BFF0B4214B2149224F224E234D76
:1033500023480422C3F80C2507240022C3F808459B
:10336000C3F810250124C3F824150221C3F82875D9
:10337000C3F81C65C3F82055C3F82C25C3F83045A5
:10338000C3F81425C3F81805C3F83415D3F8342549
:1033900002F003028A4210D0D3F8342502F003026F
:1033A000012A01D0F0BC7047FF2140F20712C3F898
:1033B0003C15C3F83825F0BC70474FF6FF71094A39
:1033C000C3F83C15C3F83825F0BC70470010004026
:1033D000038343C3230063E3E6A2C480F7B3D5911C
:1033E00001010401211001000220FDF72FBD00BFE3
:1033F0002DE9F0470D460646FDF75AFD03281ED875
:10340000012D04461FD00ED3022D1AD11C4B00EB08
:1034100040041C44657895B11A4B1B687BB1284663
:10342000BDE8F04718471848FEF722FB1449174A31
:1034300004EB44030B44155D9B789D42EBD0BDE843
:10344000F087BDE8F087DFF8388047003B1808EBCD
:10345000030218F8035053782BB9274447440B4B09
:10346000BA781A55D7E7DFF8289007484A464FF44C
:103470000041FEF7ADFA0028EFD189F80060ECE7D3
:10348000C0090020780900207C0900207009002074
:103490006809002010B50078FDF70AFD03280BD855
:1034A000064B00EB40001844407828B1044B1B68E1
:1034B00013B1BDE81040184710BD00BFC00900207F
:1034C00078090020B34B1B68DB0700D4704770B548
:1034D000B14EB24D33782C78FBB9172C1CD8DFE8ED
:1034E00014F0F100140114016300760083009600CB
:1034F0005D0039002C0039002C00A300A800A800B2
:10350000A800A800A800CE00DE00010146001800B7
:103510001800FDF785FC2C7070BDA14B1B780020B6
:103520003070002B00F00581FDF758FC0120FDF7FD
:1035300055FC0320FDF752FCCFE7012318463370FA
:10354000FDF784FC00224FF480419648BDE87040AE
:10355000FEF73EBA012318463370FDF777FC0022D0
:1035600040F6CD418F48BDE87040FEF731BA8C4B34
:103570001B78002B00F0FE800020FDF72FFC0120BF
:10358000FDF72CFC0320FDF729FC0020FDF71AFCB9
:103590000120FDF717FC15232B7070BD0020FDF7EF
:1035A00011FC07232B7070BD0020FDF7FBFB0028EA
:1035B00000F0D3800020FDF711FC46F26661032382
:1035C0002B7000227748BDE87040FEF701BA00205A
:1035D000FDF7E8FB002800F0C5800020FDF7FEFBAA
:1035E0004FF400310423EBE70020FDF7DBFB00285C
:1035F00000F0BD800020FDF7F1FB05232B700022B9
:1036000041F69A116748BDE87040FEF7E1B9002025
:10361000FDF71CFC06232B70002240F6CD416148CB
:10362000BDE87040FEF7D4B9FDF7FAFB0C232B7010
:1036300070BD5D48FEF71CFAD4F1110405467BD03D
:10364000002879D1012C13D0C82303FB04F44FF4D4
:10365000FA704FF400430021C3FB04014FF47A7267
:10366000002300F09DFD2A4601464F48FEF7B0F9C1
:103670000220FDF7A7FB4A4B01221A7070BD484B90
:103680001B78002B79D00020FDF7A8FB0120FDF767
:10369000A5FB0320FDF7A2FB12232B7070BD404B4E
:1036A0001B78002B6FD00020FDF798FB0120FDF761
:1036B00095FB0320FDF792FB0020FDF783FB13230E
:1036C0002B7070BD364B1B78002B59D00020FDF7B6
:1036D00085FB0120FDF782FB0320FDF77FFB002324
:1036E0002B7070BD2E4B1B78002B4FD00020FDF7A8
:1036F00075FB0120FDF772FB0320FDF76FFB012036
:10370000FDF760FB14232B7070BD0020FDF74AFB12
:10371000C8B10020FDF762FB022C4EF2666118BFB3
:103720004FF400312C7000221E48BDE87040FEF7B7
:103730004FB9FDF75FFBD0E60220FDF74FFB184BBA
:1037400000221A7070BDFDF73DFB43F2333341F6A2
:103750009A11022C18BF1946E4E7FDF733FB41F636
:103760009A112CE7FDF72EFB43F233313AE7FDF7D0
:1037700029FB42E7FDF73EFB07E7FDF73BFB8BE745
:10378000FDF738FBABE7FDF735FB95E7FDF732FBBF
:10379000B5E700BF6C090020740900209C090020D7
:1037A0006909002048090020A009002038B5C44B51
:1037B0001B6813F0010401D1204638BDC14C2378A9
:1037C0000546E3B9172D00F27881DFE815F00B010B
:1037D0003101310169007D009100A5005B003500D9
:1037E000280035002800B300BA00BA00BA00BA00B9
:1037F000BA00E300F6001C01420063006300B24B14
:103800001B7800202070002B00F02781FDF7E6FADE
:103810000120FDF7E3FA0320FDF7E0FAD2E70123E8
:1038200018462370FDF712FB00224FF48041A74891
:10383000BDE83840FEF7CCB8012318462370FDF7E9
:1038400005FB002240F6CD41A048BDE83840FEF718
:10385000BFB89D4B1B78002B00F020810020FDF7A6
:10386000BDFA0120FDF7BAFA0320FDF7B7FA0020F0
:10387000FDF7A8FA0120FDF7A5FA954B15221A705D
:10388000002499E70020FDF79DFA914B07221A705A
:10389000002491E7FDF7C4FA8D4B00241D708BE7DF
:1038A0000020FDF77FFA002800F0E1800020FDF7FE
:1038B00095FA46F26661864B844803241C70002208
:1038C000BDE83840FEF784B80020FDF76BFA002809
:1038D00000F0DC800020FDF781FA4FF400317C4BD2
:1038E0007A4804241C700022BDE83840FEF770B806
:1038F0000020FDF757FA002800F0CD800020FDF7EA
:103900006DFA734B714805241C70002241F69A1120
:10391000BDE83840FEF75CB80020FDF797FA6C4B25
:103920006A4806241C70002240F6CD41BDE83840AC
:10393000FEF74EB8FDF774FA654B0C221A7000249E
:103940003AE76448FEF794F80446D5F1110000F018
:103950008780002C40F08480012814D0C82505FB06
:1039600000F54FF400434FF4FA700021C3FB05014A
:103970004FF47A72002300F013FC224601465548AA
:10398000FEF726F804460220FDF71CFA4E4B0122F2
:103990001A7011E74C4B1B78002B00F0828000203E
:1039A000FDF71CFA0120FDF719FA0320FDF716FABE
:1039B000474B12221A700024FEE6434B1B78002B63
:1039C00075D00020FDF70AFA0120FDF707FA032061
:1039D000FDF704FA0020FDF7F5F93D4B13221A70AC
:1039E0000024E9E6384B1B78002B5DD00020FDF762
:1039F000F5F90120FDF7F2F90320FDF7EFF9344B5B
:103A000000241C70D8E6304B1B78002B52D00020CD
:103A1000FDF7E4F90120FDF7E1F90320FDF7DEF9F8
:103A20000120FDF7CFF92A4B14221A700024C3E6B7
:103A30000020FDF7B7F9F8B10020FDF7CFF9022D0E
:103A40004EF2666118BF4FF40031214B1F481D70C4
:103A50000022BDE83840FDF7BBBFFDF7CBF9B1E66A
:103A60000220FDF7BBF9184B00221A70A4E6FDF7FF
:103A7000A9F941F69A111EE7FDF7A4F943F2333391
:103A800041F69A11022D18BF1946DEE7FDF79AF9A3
:103A900043F2333123E7FDF795F932E7FDF7AAF951
:103AA000E5E6FDF7A7F983E7FDF7A4F9A7E7FDF73A
:103AB000A1F98FE7FDF79EF9B2E700247CE600BF8D
:103AC0006C090020740900206909002048090020C1
:103AD0009C090020A0090020F0B5204A204B10606E
:103AE000044610F0020083B0196013D01D4B1E482D
:103AF0000E210F2710261125197040F2666204214D
:103B0000DF709E715D72FDF767FAA0B1E3071DD407
:103B100003B0F0BDE20719D4144A15480021FDF79F
:103B200045FF0028F4D1134A1348012103B0BDE832
:103B3000F040FDF73BBFFDF7A7FA0028E6D10146AC
:103B40000E4A0F48FDF732FFE10703D50190FDF75C
:103B500091F901980028DFD003B0F0BD6C09002076
:103B600078090020C00900202C460000C534000060
:103B70004C460000E9330000504600009534000038
:103B8000284600002DE9F84F4FF080430021012224
:103B9000C3F8001119461A60D1F800214FF0804394
:103BA000002AF9D001220021C3F818251846C3F8CD
:103BB00004119A60D0F80431002BFBD0FDF734FEDD
:103BC00008B1FDF777FA0020FCF786FC08B1FDF795
:103BD00071FAFCF773FC00210120FFF77DFF08B1AB
:103BE000FDF768FAFFF7AEFB2E4BDFF8C890C3F87D
:103BF00004951220FFF7DAFDDFF8BC802A4904465D
:103C0000B8F80000000440F00300FCF7E3FD14B135
:103C10002046FDF74FFAFCF7CDFC0028FBD1214CE4
:103C2000054627460126C4F800516660D4F80031E5
:103C3000002BFBD0C7F80C51BE60D4F80C31002B20
:103C4000FBD0D7F80034012B08BFD9F800A0C4F886
:103C5000105118BF4FF0000A2661D4F81031002B24
:103C6000FBD00A20FFF7A2FD8346B8F800000F49F9
:103C7000000440F00300FCF7ADFDBBF1000F0DD1D7
:103C8000B8F800000A490004524640F00300FCF76F
:103C90005BFEFCF78FFC0028FBD1C4E75846FDF71C
:103CA00009FAEDE700100040544600006C460000A1
:103CB00080460000CC090020F40100200649074A94
:103CC000074B9B1A03DD043BC858D050FBDC00F0C7
:103CD00013F8FCF7C3FA0000E047000000000020E2
:103CE00024020020FEE7FEE7FEE7FEE7FEE7FEE730
:103CF000FEE7FEE7FEE7FEE7F0B4B24B1A78062ACD
:103D00001BD0B14AD2F8883043F47003C2F888302F
:103D1000BFF34F8FBFF36F8F4FF01023D3F8002204
:103D2000002AC0F27981D3F80432002BC0F27481EA
:103D3000A64BA74A1A60F0BC704704331B681807EB
:103D4000DFD1A44B1B6803F0F002302A00F0298178
:103D500003F0E003402B00F024819E4B1B6803F02E
:103D6000F003302B00F00F819A4B1B6803F0F00238
:103D7000302A00F0F88003F0E003402B00F0F380DD
:103D8000944B1B6803F0F003302B00F0DC80914B68
:103D90001B6803F0F002302A00F0C18003F0E0035A
:103DA000402B00F0BC808B4B1B6803F0F003302BE2
:103DB00000F0A780874B1B6803F0F003302B00F066
:103DC0008980844B1B6803F0F003502B30D0814B6B
:103DD0001B6803F0F002302A19D003F0E003402BF7
:103DE00015D07C4B1B6803F0F002302A03D003F09F
:103DF000E003402B85D14FF08043D3F80024D20755
:103E00007FF57FAF6FF00102C3F8002479E7724BB2
:103E1000724A1B6803F04F0313606A4B1B78062B32
:103E20007FF46FAF6E4B1B6818077FF46AAFD8E75B
:103E30004FF080526B4BD2F80414C3F82015D2F81F
:103E40000814C3F82415D2F80C14C3F82815D2F8B6
:103E50001014C3F82C15D2F81414C3F83015D2F886
:103E60001814C3F83415D2F81C14C3F84015D2F84E
:103E70002014C3F84415D2F82414C3F84815D2F816
:103E80002814C3F84C15D2F82C14C3F85015D2F8E6
:103E90003014C3F85415D2F83414C3F86015D2F8AE
:103EA0003814C3F86415D2F83C14C3F86815D2F876
:103EB00040144448C3F86C15D2F844140278C3F88F
:103EC0007015062A7FF41DAF454B1B681C077FF455
:103ED00018AF7CE7444E454C4549464B0527012524
:103EE00000203F223760256008601A60354B1B7840
:103EF000062B7FF406AF3A4B1B681D077FF401AF1A
:103F00005FE7304B3C4A1B780321062B11607FF49E
:103F1000F8AE334B1B681E077FF4F3AE4AE74FF051
:103F200080430022C3F80C21C3F81021C3F83825C0
:103F3000244B1B78062B7FF470AF294B1B681F079F
:103F40007FF4DFAE2FE72D491E4ACB68127823F0AD
:103F50008073062ACB607FF4D4AE214B1B681B070D
:103F60007FF4CFAE13E7264B164A1B68127825491B
:103F7000C3F34233062A0B60B8D1194B1B681A07EA
:103F80007FF4BFAEFCE60F4B1F4A1B781F49116040
:103F9000062B7FF4B6AE124B1B6819077FF4B1AE47
:103FA000E2E61B4B074A1B6812781A49C3F3042345
:103FB000062A0B60BCD10A4B1B6819073FF4CDAE33
:103FC0009FE600BFE00F00F000ED00E014000020CD
:103FD0000090D003E80F00F058020010E40E0040FB
:103FE000E40F00F000C0004010560040885600402A
:103FF0001856004014560040A0050040F0ED00E0C7
:10400000440200103C05004074C007400DF0ADBAFA
:104010002403001040350140184B0122C3F8042549
:10402000D3F80024002AFBD04FF0102315221349A7
:10403000C3F80022D1F80034002BFBD04FF010233E
:1040400015220E49C3F80422D1F800240B4B002A94
:10405000FAD00022C3F80425D3F80024002AFBD0AC
:10406000BFF34F8F0649074BCA6802F4E06213435F
:10407000CB60BFF34F8F00BFFDE700BF00E0014002
:1040800000ED00E00400FA0508B5074B044613B143
:104090000021AFF30080054B1868836A03B198478D
:1040A000204600F07BF800BF00000000A44600009E
:1040B00070B50E4B0E4CE41AA41000251E46A54206
:1040C00004D056F8253098470135F8E700F0F4F9A8
:1040D000084C094BE41AA41000251E46A54204D042
:1040E00056F8253098470135F8E770BDE801002003
:1040F000E8010020EC010020E8010020034B1B68D0
:10410000186A034B002808BF184670477800002043
:104110007C00002008B5034B1868FFF7EFFFD0F8CC
:10412000EC0008BD7800002082B001B901A93AB1C5
:1041300043B113780B601278101C18BF012003E004
:10414000104601E06FF0010002B0704710B5431E49
:104150000A44914204D011F8014B03F8014FF8E7EB
:1041600010BD02440346934202D003F8011BFAE754
:104170007047034613F8012B002AFBD1181A0138A7
:10418000704749B1FF2A85BF8A2303600A704FF048
:10419000FF3098BF0120704708467047FEE700BF18
:1041A00053B94AB9002908BF00281CBF4FF0FF319E
:1041B0004FF0FF3000F07EB9ADF1080C6DE904CE90
:1041C00000F006F8DDF804E0DDE9022304B07047F2
:1041D0002DE9F0478C460E460446089D002B50D131
:1041E0008A4217466CD9B2FA82FEBEF1000F0BD09C
:1041F000CEF1200420FA04F401FA0EF644EA060C8B
:1042000002FA0EF700FA0EF44FEA1749220CBCFB33
:10421000F9F01FFA87F809FB10C642EA064600FBD0
:1042200008F3B34209D9F61900F1FF3280F0228178
:10423000B34240F21F8102383E44F61AA2B2B6FBE6
:10424000F9F309FB136642EA064403FB08F8A045AC
:1042500009D9E41903F1FF3280F00A81A04540F248
:104260000781023B3C44C8EB040443EA00400021C0
:10427000002D62D024FA0EF400232C606B60BDE8A0
:10428000F0878B4207D9002D55D0002185E84100E9
:104290000846BDE8F087B3FA83F1002940F090802A
:1042A000B34202D3824200F2F880841A66EB03061E
:1042B0000120B446002D40D085E81010BDE8F087FD
:1042C00012B90127B7FBF2F7B7FA87FEBEF1000F6C
:1042D00035D1F31B4FEA17481FFA87FC0121B3FBC6
:1042E000F8F0220C08FB103642EA06460CFB00F3FD
:1042F000B34207D9F61900F1FF3202D2B34200F2FD
:10430000CE801046F61AA2B2B6FBF8F308FB13668D
:1043100042EA06440CFB03FCA44507D9E41903F167
:10432000FF3202D2A44500F2B5801346CCEB040460
:1043300043EA00409CE729462846BDE8F087CEF1D5
:10434000200106FA0EF307FA0EF720FA01F94FEAF8
:104350001748CE4049EA0309B6FBF8FA4FEA194478
:1043600008FB1A661FFA87FC44EA06430AFB0CF2B4
:104370009A4200FA0EF40AD9DB190AF1FF3180F0F3
:1043800087809A4240F28480AAF1020A3B449B1A39
:104390001FFA89F9B3FBF8F108FB113349EA03432B
:1043A00001FB0CF69E4207D9DB1901F1FF326BD2FB
:1043B0009E4269D902393B449B1B41EA0A418EE780
:1043C000C1F1200E22FA0EF48B40234320FA0EF79F
:1043D00006FA01F44FEA134C26FA0EF63C43B6FBFC
:1043E000FCF9270C0CFB19661FFA83F847EA06460E
:1043F00009FB08F7B74202FA01F200FA01FA08D9FC
:10440000F61809F1FF3041D2B7423FD9A9F10209AC
:104410001E44F61BA0B2B6FBFCF40CFB146640EA8B
:10442000064704FB08F8B84507D9FF1804F1FF3028
:1044300028D2B84526D9023C1F4444EA0940C8EBBB
:104440000707A0FB02894F4544464E4614D329D0A6
:1044500065B3BAEB040367EB060707FA0EFECB4021
:10446000CF404EEA030385E888000021BDE8F087CD
:104470001346F8E61046E0E6B8EB020469EB0306E3
:104480000138E5E70446D8E7114695E78146C0E7DD
:104490008A467CE7023B3C4448E708460AE7023884
:1044A0003E442FE7C245E7D33E46D1E72946BDE863
:1044B000F08700BF704700BFF8B500BFF8BC08BC6C
:1044C0009E467047F8B500BFF8BC08BC9E467047D2
:1044D000FFFFFFFFFFFFFFFFFFFFFFFFFFFFFFFFEC
:1044E00000000000000000000000D60107010000ED
:1044F00015040000C1030000BD03000061707000DE
:10450000A4060020AC060020B4060020B40600205B
:104510001800000000000000BC450000C445000079
:10452000CC450000D44500005C4500007C450000FF
:10453000844500008C450000944500009C45000027
:10454000A4450000AC450000B44500002573000000
:104550003C25733E2025733A200000001B5B306D24
:10456000000000000D0A0000202530327800000015
:10457000202020007C000000256300001B5B313BF5
:1045800033306D001B5B313B33316D001B5B313BC6
:1045900033326D001B5B313B33336D001B5B313BB2
:1045A00033346D001B5B313B33356D001B5B313B9E
:1045B00033366D001B5B313B33376D006572726FB4
:1045C000720000007761726E696E6700696E666FD7
:1045D000000000006465627567000000111213148A
:1045E00080070020466174616C206572726F7200F2
:1045F00053797374656D20726573657400000000F3
:1046000062616C6C6F6300003031323334353637A1
:1046100038394142434445466770696F746500000C
:1046200075617274000000007C0900200D00030019
:10463000F13300000E000300F13300000F0003000F
:10464000F133000010000300F1330000480900209E
:10465000A00900205761697420666F722066697234
:104660007374207061636B65740000005061636B4C
:10467000657420776173207265636569766564008F
:1046800054686520636F6E74656E7473206F662066
:10469000746865207061636B6167652069732025AC
:1046A00075000000180000204300504F5349580087
:1046B0002E0000202020202020202020282828280C
:1046C00028202020202020202020202020202020E2
:1046D0002020208810101010101010101010101032
:1046E0001010100404040404040404040410101042
:1046F00010101010414141414141010101010101EE
:10470000010101010101010101010101010110107B
:1047100010101010424242424242020202020202C1
:10472000020202020202020202020202020210104D
:104730001010200000000000000000000000000039
:104740000000000000000000000000000000000069
:104750000000000000000000000000000000000059
:104760000000000000000000000000000000000049
:104770000000000000000000000000000000000039
:104780000000000000000000000000000000000029
:104790000000000000000000000000000000000019
:1047A0000000000000000000000000000000000009
:0847B000000000000000000001
:1047B800FC44000000000300004600000000000068
:1047C800184600000000000020460000000000001D
:0847D80084BAFF7F010000001C
:1047E0000020004000000000F04400000000000035
:1047F000000000000090D003000000000000000056
:1048000000000000000000000000000000000000A8
:104810000000000000000000000000000000000098
:104820000000000000000000000000000000000088
:104830000000000000000000000000000000000078
:104840000000000000000000000000000000000068
:1048500000000000000000001800002043000000DD
:104860000000000000000000000000000000000048
:1048700000000000000000000000000043000000F5
:104880000000000000000000000000000000000028
:1048900000000000000000000000000043000000D5
:1048A0000000000000000000000000000000000008
:1048B00000000000000000000000000043000000B5
:1048C00000000000000000000000000000000000E8
:1048D0000000000000000000000000004300000095
:1048E00000000000000000000000000000000000C8
:1048F0000000000000000000000000004300000075
:1049000000000000000000000000000000000000A7
:104910000000000000000000000000004300000054
:104920000000000000000000000000000000000087
:1049300000000000000000000000000083410000B3
:104940002941000000000000B2460000B04600000F
:10495000B1460000B1460000B1460000B14600007B
:10496000B1460000B1460000B1460000B14600006B
:10497000B1460000FFFFFFFFFFFFFFFFFFFFFFFF4C
:10498000FFFF0000010041534349490000000000BF
:104990000000000000000000000000000000000017
:1049A000000000000000415343494900000000009E
:1049B00000000000000000000000000000000000F7
:1049C00000000000000000002502000001020000BD
:0449D00000000000E3
:1049D40000000000000000000000000000000000D3
:1049E40000000000000000000000000000000000C3
:1049F40000000000000000000000000000000000B3
:0400000300003CBD00
:00000001FF
