:04000000AAEF39F03A
:08000800046ED8CF05F0E0CF33
:1000100006F00001E9CF0CF0EACF07F0E1CF08F0DD
:10002000E2CF09F0D9CF0AF0DACF0BF0F3CF12F01C
:10003000F4CF13F0FACF14F0F5CF15F0F6CF16F099
:10004000F7CF17F000C00EF001C00FF002C010F0A3
:1000500003C011F0F2AA30EF00F0F2B4DCEF28F0A8
:10006000F0A636EF00F0F0B0D4EF0DF00EC000F0C7
:100070000FC001F010C002F011C003F00CC0E9FF86
:1000800007C0EAFF078E08C0E1FF09C0E2FF0AC00F
:10009000D9FF0BC0DAFF12C0F3FF13C0F4FF14C086
:1000A000FAFF15C0F5FF16C0F6FF17C0F7FF0450A2
:1000B00006C0E0FF05C0D8FF1000F76ACA0FF66E51
:1000C000000EF7220900F550120061646D696E00A0
:1000D000F76AE00FF66E000EF7220900F5501200E5
:1000E000637C777BF26B6FC53001672BFED7AB76F5
:1000F000CA82C97DFA5947F0ADD4A2AF9CA472C0A0
:10010000B7FD9326363FF7CC34A5E5F171D831150C
:1001100004C723C31896059A071280E2EB27B2752D
:1001200009832C1A1B6E5AA0523BD6B329E32F84A5
:1001300053D100ED20FCB15B6ACBBE394A4C58CF9D
:10014000D0EFAAFB434D338545F9027F503C9FA871
:1001500051A3408F929D38F5BCB6DA2110FFF3D23F
:10016000CD0C13EC5F974417C4A77E3D645D1973F3
:1001700060814FDC222A908846EEB814DE5E0BDBED
:10018000E0323A0A4906245CC2D3AC629195E47924
:10019000E7C8376D8DD54EA96C56F4EA657AAE087E
:1001A000BA78252E1CA6B4C6E8DD741F4BBD8B8A19
:1001B000703EB5664803F60E613557B986C11D9E7F
:1001C000E1F8981169D98E949B1E87E9CE5528DFF6
:1001D0008CA1890DBFE6426841992D0FB054BB1622
:1001E000F76AF00FF66E010EF7220900F5501200C3
:1001F00052096AD53036A538BF40A39E81F3D7FB9C
:100200007CE339829B2FFF87348E4344C4DEE9CBE5
:10021000547B9432A6C2233DEE4C950B42FAC34E5A
:10022000082EA16628D924B2765BA2496D8BD12510
:1002300072F8F66486689816D4A45CCC5D65B692B4
:100240006C704850FDEDB9DA5E154657A78D9D8458
:1002500090D8AB008CBCD30AF7E45805B8B3450678
:10026000D02C1E8FCA3F0F02C1AFBD0301138A6B92
:100270003A9111414F67DCEA97F2CFCEF0B4E673C2
:1002800096AC7422E7AD3585E2F937E81C75DF6E70
:1002900047F11A711D29C5896FB7620EAA18BE1BD6
:1002A000FC563E4BC6D279209ADBC0FE78CD5AF47C
:1002B0001FDDA8338807C731B11210592780EC5FC2
:1002C00060517FA919B54A0D2DE57A9F93C99CEF1E
:1002D000A0E03B4DAE2AF5B0C8EBBB3C835399611F
:1002E000172B047EBA77D626E169146355210C7D5D
:1002F000F76A000FF66E030EF7220900F5501200A0
:1003000001020408102040801B36F76A1A0FF66EAF
:10031000030EF7220900F550120031323341423406
:100320003536434437383945462A30234748F76A3B
:100330003E0FF66E030EF7220900F550120031321F
:1003400033414243343536444546373839474849C6
:100350002A30234A4B4DF76A660FF66E030EF722DA
:100360000900F55012006400F76A780FF66E030E6C
:10037000F7220900F55012006600F76A8A0FF66E40
:10038000030EF7220900F550120066206D656D001E
:10039000F76AA00FF66E030EF7220900F55012005F
:1003A000525350570000F76AB60FF66E030EF7224D
:1003B0000900F5501200216B62642100F76ACC0F2E
:1003C000F66E030EF7220900F55012007273666193
:1003D00063740000F76AE40FF66E030EF72209005B
:1003E000F55012006500F76AF60FF66E030EF7225D
:1003F0000900F55012006E00F76A080FF66E040E41
:10040000F7220900F55012006300F76A1A0FF66E22
:10041000040EF7220900F550120073630000F76A1A
:100420002E0FF66E040EF7220900F55012004D5300
:100430000000F76A420FF66E040EF7220900F5502D
:1004400012007472616E2074696D6500F76A5C0F4A
:10045000F66E040EF7220900F55012006B6F666B02
:100460006200F76A720FF66E040EF7220900F5506B
:1004700012006800F76A840FF66E040EF722090076
:10048000F550120070617373776F72640000F76A41
:100490009E0FF66E040EF7220900F55012006372EB
:1004A0007970746F0000F76AB60FF66E040EF722CB
:1004B0000900F5501200646562756700636F6C3067
:1004C000203D20256C750D0A0000636F6C31203DC6
:1004D00020256C750D0A0000636F6C32203D2025CD
:1004E0006C750D0A0000636F6C33203D20256C7520
:1004F0000D0A0000636F6C34203D20256C750D0AD9
:100500000000636F6C30203D20256C750D0A0000E3
:10051000636F6C31203D20256C750D0A0000636F00
:100520006C32203D20256C750D0A0000636F6C3322
:10053000203D20256C750D0A0000636F6C34203D52
:1005400020256C750D0A0000636F6C35203D202559
:100550006C750D0A00006B657920646174615B2520
:10056000645D2025630D0A00446F6E65207361761B
:10057000655F6B65795F6E657700446F6E652045DA
:100580006E637279707465642050494E00000D0AE4
:100590004249545F547261636B3120446174613A23
:1005A0000D0A00000D0A4249545F547261636B32B8
:1005B00020446174613A0D0A00000D0A53617669A6
:1005C0006E67204361726420446174610D0A00000B
:1005D000446F6E65000057616974696E6720666FCD
:1005E000722050494E206E756D62657200000D0AD2
:1005F000636F756E746269745F54313A256C750D62
:100600000A000D0A636F756E746269745F54323A42
:10061000256C750D0A000D0A72656164696E6720AC
:100620006572726F722054310D0A00000D0A7265F6
:100630006164696E67206572726F722054320D0AB0
:100640000000020E0801275F0CE3080EEA6E270E79
:10065000E96EEF5006E003D000D000D00000EF2E8E
:10066000FBD70001DCEF0DF00801626B636B5AB140
:10067000638F5B39006E00360036C00E00160050E6
:1006800063135C39006E0036E00E001600506313F1
:100690005D39006EF00E0016005063135E35006E7B
:1006A00000360036F80E0016005063135F35006EFA
:1006B0000036FC0E001600506313D89060356313AB
:1006C00061516311626F62C801F0000112000801FC
:1006D0004A6B45536AE148514625E96E4951472125
:1006E000EA6EEFCF4BF8010E46254C6F000E472106
:1006F0004D6F48514C25E96E49514D21EA6EEF503E
:100700004B1B020E46254E6F000E47214F6F48517E
:100710004E25E96E49514F21EA6EEF504B1B030EF7
:100720004625506F000E4721516F48515025E96E04
:1007300049515121EA6EEF504B1B040E4625526F72
:10074000000E4721536F48515225E96E49515321FC
:10075000EA6EEF504B1B050E4625546F000E4721E5
:10076000556F48515425E96E49515521EA6EEF50B5
:100770004B1902E0000E01D0010E4A6F060E46250D
:100780004B6F000E47214C6F48514B25E96E495184
:100790004C21EA6EEF504A5D04E1010E016E6DD00E
:1007A00003D0000E016E69D068D048514625E96E2D
:1007B00049514721EA6EEFCF4BF8010E465D4C6F71
:1007C000000E47594D6F48514C25E96E49514D2156
:1007D000EA6EEF504B1B020E465D4E6F000E4759FE
:1007E0004F6F48514E25E96E49514F21EA6EEF5047
:1007F0004B1B030E465D506F000E4759516F485119
:100800005025E96E49515121EA6EEF504B1B040E01
:10081000465D526F000E4759536F48515225E96E9D
:1008200049515321EA6EEF504B1B050E465D546F44
:10083000000E4759556F48515425E96E49515521CD
:10084000EA6EEF504B1902E0000E01D0010E4A6F24
:10085000060E465D4B6F000E47594C6F48514B25B5
:10086000E96E49514C21EA6EEF504A5D04E1010EF8
:10087000016E03D002D0000E016E000112000801CB
:100880004A6B45534EE148514625E96E495147218F
:10089000EA6EEFCF4BF8010E46254C6F000E472154
:1008A0004D6F48514C25E96E49514D21EA6EEF508C
:1008B0004B1B020E46254E6F000E47214F6F4851CD
:1008C0004E25E96E49514F21EA6EEF504B1B030E46
:1008D0004625506F000E4721516F48515025E96E53
:1008E00049515121EA6EEF504B1902E0000E01D040
:1008F000010E4A6F040E46254B6F000E47214C6FC8
:1009000048514B25E96E49514C21EA6EEF504A5D42
:1009100004E1010E016E51D003D0000E016E4DD0E6
:100920004CD048514625E96E49514721EA6EEFCF38
:100930004BF8010E465D4C6F000E47594D6F485104
:100940004C25E96E49514D21EA6EEF504B1B020ECA
:10095000465D4E6F000E47594F6F48514E25E96E68
:1009600049514F21EA6EEF504B1B030E465D506F0D
:10097000000E4759516F48515025E96E4951512198
:10098000EA6EEF504B1902E0000E01D0010E4A6FE3
:10099000040E465D4B6F000E47594C6F48514B2576
:1009A000E96E49514C21EA6EEF504A5D04E1010EB7
:1009B000016E03D002D0000E016E0001120008018A
:1009C000416B426B436B446B3E6B3D6B3A31036E44
:1009D0003931026E033202323F0E031602C001F0BB
:1009E0003E51035CD8A0DFD204E101503D5DD8B098
:1009F000DAD23853D8A49AD1060E3D25456F000EA1
:100A00003E21466F3B514525E96E3C514621EA6E39
:100A1000EFCF47F8050E3D25486F000E3E21496F88
:100A20003B514825E96E3C514921EA6EEFCF4AF827
:100A3000040E3D254B6F000E3E214C6F3B514B2564
:100A4000E96E3C514C21EA6EEFCF4DF8030E3D2587
:100A50004E6F000E3E214F6F3B514E25E96E3C51CB
:100A60004F21EA6EEFCF50F8020E3D25516F000E78
:100A70003E21526F3B515125E96E3C515221EA6EA5
:100A8000EFCF53F8010E3D25546F000E3E21556FF8
:100A90003B515425E96E3C515521EA6EEFCF56F893
:100AA0003B513D25E96E3C513E21EA6EEFCF57F8B0
:100AB0005A6B47C85BF84AC85CF84DC85DF850C827
:100AC0005EF853C85FF856C860F857C861F800016F
:100AD000CBDD01C041F80D0E08013D25456F000E2C
:100AE0003E21466F3B514525E96E3C514621EA6E59
:100AF000EFCF47F80C0E3D25486F000E3E21496FA1
:100B00003B514825E96E3C514921EA6EEFCF4AF846
:100B10000B0E3D254B6F000E3E214C6F3B514B257C
:100B2000E96E3C514C21EA6EEFCF4DF80A0E3D259F
:100B30004E6F000E3E214F6F3B514E25E96E3C51EA
:100B40004F21EA6EEFCF50F8090E3D25516F000E90
:100B50003E21526F3B515125E96E3C515221EA6EC4
:100B6000EFCF53F8080E3D25546F000E3E21556F10
:100B70003B515425E96E3C515521EA6EEFCF56F8B2
:100B8000070E3D25576F000E3E21586F3B515725EC
:100B9000E96E3C515821EA6EEFCF59F85A6B47C8BD
:100BA0005BF84AC85CF84DC85DF850C85EF853C899
:100BB0005FF856C860F859C861F8000155DD01C0FA
:100BC00042F8080141514508D8A4AFD042517C08F1
:100BD000D8B4ABD042513E08D8B4A7D042511F0878
:100BE000D8B4A3D03EC840F83DC83FF8010E446FCA
:100BF00041C843F843511F08D8B48CD04051030872
:100C0000D8A088D004E13F51E708D8A083D0456B35
:100C100040C847F83FC846F83CC849F83BC848F8C0
:100C2000000155DD015008014417060E3F25456FB0
:100C3000000E4021466F3B514525E96E3C5146214F
:100C4000EA6EEFCF47F8050E3F25486F000E4021B2
:100C5000496F3B514825E96E3C514921EA6EEFCF7F
:100C60004AF8040E3F254B6F000E40214C6F3B515C
:100C70004B25E96E3C514C21EA6EEFCF4DF8030E47
:100C80003F254E6F000E40214F6F3B514E25E96EC0
:100C90003C514F21EA6EEFCF50F8020E3F25516FC5
:100CA000000E4021526F3B515125E96E3C515221BB
:100CB000EA6EEFCF53F8010E3F25546F000E40212E
:100CC000556F3B515425E96E3C515521EA6EEFCFEB
:100CD00056F83B513F25E96E3C514021EA6EEFCF7B
:100CE00057F85A6B47C85BF84AC85CF84DC85DF8BE
:100CF00050C85EF853C85FF856C860F857C861F826
:100D00000001B2DC01C043F8070E08013F27000EC6
:100D1000402370D7442D09D00601C46B08013DC89B
:100D200001F03EC802F0DEEF0AF039D1040E3D2595
:100D3000456F000E3E21466F3B514525E96E3C5103
:100D40004621EA6EEFCF47F8030E3D25486F000EAF
:100D50003E21496F3B514825E96E3C514921EA6EDD
:100D6000EFCF4AF8020E3D254B6F000E3E214C6F2F
:100D70003B514B25E96E3C514C21EA6EEFCF4DF8CB
:100D8000010E3D254E6F000E3E214F6F3B514E250B
:100D9000E96E3C514F21EA6EEFCF50F83B513D25B3
:100DA000E96E3C513E21EA6EEFCF51F85A6B5B6B16
:100DB0005C6B47C85DF84AC85EF84DC85FF850C81C
:100DC00060F851C861F800014FDC01C041F8090E1C
:100DD00008013D25456F000E3E21466F3B514525DC
:100DE000E96E3C514621EA6EEFCF47F8080E3D25EB
:100DF000486F000E3E21496F3B514825E96E3C513A
:100E00004921EA6EEFCF4AF8070E3D254B6F000EE1
:100E10003E214C6F3B514B25E96E3C514C21EA6E13
:100E2000EFCF4DF8060E3D254E6F000E3E214F6F61
:100E30003B514E25E96E3C514F21EA6EEFCF50F801
:100E4000050E3D25516F000E3E21526F3B5151253D
:100E5000E96E3C515221EA6EEFCF53F85A6B5B6B4F
:100E60005C6B47C85DF84AC85EF84DC85FF850C86B
:100E700060F853C861F8000134EC03F001C042F897
:100E8000080141510B08D8A48AD042511F08D8B498
:100E900086D042510F08D8B482D03EC840F83DC831
:100EA0003FF8010E446F41C843F843511F086DE0FD
:100EB000405101086AE303E13F51F30866E3456BE3
:100EC00040C847F83FC846F83CC849F83BC848F80E
:100ED0000001D5DC015008014417040E3F25456F81
:100EE000000E4021466F3B514525E96E3C5146219D
:100EF000EA6EEFCF47F8030E3F25486F000E402102
:100F0000496F3B514825E96E3C514921EA6EEFCFCC
:100F10004AF8020E3F254B6F000E40214C6F3B51AB
:100F20004B25E96E3C514C21EA6EEFCF4DF8010E96
:100F30003F254E6F000E40214F6F3B514E25E96E0D
:100F40003C514F21EA6EEFCF50F83B513F25E96EFF
:100F50003C514021EA6EEFCF51F85A6B5B6B5C6BF2
:100F600047C85DF84AC85EF84DC85FF850C860F8D9
:100F700051C861F8000134EC03F001C043F8050EDC
:100F800008013F27000E402390D7442D08D00601CA
:100F9000C46B08013DC801F03EC802F00FD33D2BE1
:100FA000D8B43E2B13D53AC83EF839C83DF83A318B
:100FB000036E3931026E033202323F0E031602C055
:100FC00001F003503E5DD8A0F6D204E13D51015C32
:100FD000D8B0F1D23853D8A4A9D1060E3D5D456FE3
:100FE000000E3E59466F3B514525E96E3C51462166
:100FF000EA6EEFCF47F8050E3D5D486F000E3E5993
:10100000496F3B514825E96E3C514921EA6EEFCFCB
:101010004AF8040E3D5D4B6F000E3E594C6F3B513C
:101020004B25E96E3C514C21EA6EEFCF4DF8030E93
:101030003D5D4E6F000E3E594F6F3B514E25E96EA0
:101040003C514F21EA6EEFCF50F8020E3D5D516FDB
:10105000000E3E59526F3B515125E96E3C515221D1
:10106000EA6EEFCF53F8010E3D5D546F000E3E590E
:10107000556F3B515425E96E3C515521EA6EEFCF37
:1010800056F83B513D25E96E3C513E21EA6EEFCFCB
:1010900057F85A6B47C85BF84AC85CF84DC85DF80A
:1010A00050C85EF853C85FF856C860F857C861F872
:1010B000000134EC03F001C041F80D0E08013D5D64
:1010C000456F000E3E59466F3B514525E96E3C5138
:1010D0004621EA6EEFCF47F80C0E3D5D486F000EDB
:1010E0003E59496F3B514825E96E3C514921EA6E12
:1010F000EFCF4AF80B0E3D5D4B6F000E3E594C6F23
:101100003B514B25E96E3C514C21EA6EEFCF4DF837
:101110000A0E3D5D4E6F000E3E594F6F3B514E25FE
:10112000E96E3C514F21EA6EEFCF50F8090E3D5D5C
:10113000516F000E3E59526F3B515125E96E3C51A3
:101140005221EA6EEFCF53F8080E3D5D546F000E4A
:101150003E59556F3B515425E96E3C515521EA6E7D
:10116000EFCF56F8070E3D5D576F000E3E59586F92
:101170003B515725E96E3C515821EA6EEFCF59F8A3
:101180005A6B47C85BF84AC85CF84DC85DF850C850
:101190005EF853C85FF856C860F859C861F8000196
:1011A00034EC03F001C042F8080141514508D8A4CD
:1011B000BCD042517C08D8B4B8D042513E08D8B413
:1011C000B4D042511F08D8B4B0D042510F08D8B49F
:1011D000ACD042517808D8B4A8D03EC840F83DC839
:1011E0003FF8010E446F41C843F843511F08D8B47B
:1011F0008CD0405304E13F510108D8B086D0010E95
:10120000456F40C847F83FC846F83CC849F83BC856
:1012100048F8000167EC03F0015008014417060E7E
:101220003F5D456F000E4059466F3B514525E96EC5
:101230003C514621EA6EEFCF47F8050E3F5D486FFF
:10124000000E4059496F3B514825E96E3C514921F8
:10125000EA6EEFCF4AF8040E3F5D4B6F000E405927
:101260004C6F3B514B25E96E3C514C21EA6EEFCF60
:101270004DF8030E3F5D4E6F000E40594F6F3B51CE
:101280004E25E96E3C514F21EA6EEFCF50F8020E29
:101290003F5D516F000E4059526F3B515125E96E31
:1012A0003C515221EA6EEFCF53F8010E3F5D546F6F
:1012B000000E4059556F3B515425E96E3C51552164
:1012C000EA6EEFCF56F83B513F25E96E3C51402185
:1012D000EA6EEFCF57F85A6B47C85BF84AC85CF81C
:1012E0004DC85DF850C85EF853C85FF856C860F83E
:1012F00057C861F8000134EC03F001C043F8070E51
:1013000008013F5F000E405B70D7442D0AD0010EEC
:101310000601C46F08013DC801F03EC802F04ED17D
:1013200004D0000E016E026E49D140D1040E3D5D25
:10133000456F000E3E59466F3B514525E96E3C51C5
:101340004621EA6EEFCF47F8030E3D5D486F000E71
:101350003E59496F3B514825E96E3C514921EA6E9F
:10136000EFCF4AF8020E3D5D4B6F000E3E594C6FB9
:101370003B514B25E96E3C514C21EA6EEFCF4DF8C5
:10138000010E3D5D4E6F000E3E594F6F3B514E2595
:10139000E96E3C514F21EA6EEFCF50F83B513D25AD
:1013A000E96E3C513E21EA6EEFCF51F85A6B5B6B10
:1013B0005C6B47C85DF84AC85EF84DC85FF850C816
:1013C00060F851C861F8000134EC03F001C041F845
:1013D000090E08013D5D456F000E3E59466F3B51B9
:1013E0004525E96E3C514621EA6EEFCF47F8080EDD
:1013F0003D5D486F000E3E59496F3B514825E96EEF
:101400003C514921EA6EEFCF4AF8070E3D5D4B6F24
:10141000000E3E594C6F3B514B25E96E3C514C211F
:10142000EA6EEFCF4DF8060E3D5D4E6F000E3E5951
:101430004F6F3B514E25E96E3C514F21EA6EEFCF85
:1014400050F8050E3D5D516F000E3E59526F3B51F5
:101450005125E96E3C515221EA6EEFCF53F85A6B99
:101460005B6B5C6B47C85DF84AC85EF84DC85FF8B7
:1014700050C860F853C861F8000134EC03F001C0B3
:1014800042F8080141510B08D8A490D042511F08DE
:10149000D8B48CD042510F08D8B488D03EC840F898
:1014A0003DC83FF8010E446F41C843F843511F083F
:1014B0006DE0405303E13F51010868E2010E456FC2
:1014C00040C847F83FC846F83CC849F83BC848F808
:1014D00000013FEC04F0015008014417040E3F5D89
:1014E000456F000E4059466F3B514525E96E3C5112
:1014F0004621EA6EEFCF47F8030E3F5D486F000EBE
:101500004059496F3B514825E96E3C514921EA6EEB
:10151000EFCF4AF8020E3F5D4B6F000E40594C6F03
:101520003B514B25E96E3C514C21EA6EEFCF4DF813
:10153000010E3F5D4E6F000E40594F6F3B514E25DF
:10154000E96E3C514F21EA6EEFCF50F83B513F25F9
:10155000E96E3C514021EA6EEFCF51F85A6B5B6B5C
:101560005C6B47C85DF84AC85EF84DC85FF850C864
:1015700060F851C861F8000134EC03F001C043F891
:10158000050E08013F5F000E405B90D7442D0AD046
:10159000010E0601C46F08013DC801F03EC802F00B
:1015A0000DD004D0000E016E026E08D03D51D8B4AB
:1015B0003E073D07FCD4000E016E026E00011200D2
:1015C00094908B90080E016E00D00000018E10D018
:1015D000019E080152330001D8B08B80D8A08B90B7
:1015E000018C06D0019C012EF4D700D000008B8026
:1015F000100EE96EE92EFED700D0000001BEE8D73C
:1016000001BCF0D712000900F6CF47F8F7CF48F831
:10161000F5CF52F8D5DF47C8F6FF48C8F7FF0801F5
:10162000462F01D002D00001EED700011200EACF10
:1016300037F8E9CF36F808013039F009326F322730
:10164000E20F336F320F356F30510F0B33273327D3
:101650003527E90F346F342734272F390F0B342700
:10166000352734373537351F35372F510F0B352791
:101670003237070E316F0A0E34073527FDE3330783
:101680003427FDE332073327FDE331073227FDE33B
:10169000080EEA6E310EE96E070E3615369DE92604
:1016A000350EE95CD8B4368DEF50006E08E136BDDA
:1016B00006D036B915D036B702D0200E03D0368703
:1016C0003699300E0026EACF30F8E9CF2FF800C067
:1016D00052F8000175DF30C8EAFF2FC8E9FF0801A2
:1016E000EE5036ADDDD7000112000900F5520CE0D6
:1016F000F6CF3DF8F7CF3EF8F5CF52F861DF3DC8A1
:10170000F6FF3EC8F7FFF1D7120008013951016A10
:10171000385D03E238C800F00CD0006A080E3A6F5A
:10172000383700363951005CD8B0006E01363A2F98
:10173000F7D700011200200E080133A9300E346FD4
:1017400032C800F032AF08D0001E002A00C032F8C4
:101750002D0E346F338F3381015032C838F8640E48
:10176000396F0001D2DF00C032F8300E01240801C9
:10177000356F32C838F80A0E396F0001C6DF300EF7
:1017800000240801376F300E0124366F34C800F092
:10179000300E355D04E0338333BF338512D034C857
:1017A00035F8200E346F300E365D04E0338133BFE0
:1017B000338307D0D8A4338104E135C836F8200E2E
:1017C000356F33B505D033B307D033B109D00CD062
:1017D00034C852F80001F4DE35C852F80001F0DEDA
:1017E00036C852F80001ECDE37C852F80001E8DED6
:1017F00012008E0EF66E050EF76E77DF0801306B65
:101800002F6B3051030817E303E12F51510813E305
:10181000420E2F25E96E020E3021EA6EEFCF31F82D
:1018200031C832F8180E336F000185DF08012F2B05
:10183000D8B4302BE6D7A40EF66E050EF76E000175
:1018400054DF0801306B2F6B3051010817E303E1BF
:101850002F512B0813E3940E2F25E96E050E30212E
:10186000EA6EEFCF31F831C832F8180E336F00014D
:1018700062DF08012F2BD8B4302BE6D7000186EFAA
:101880000DF0080EEA6E2F0EE96EEF500DE00A0E15
:10189000016E006A002EFED7012EFBD75F0E006E90
:1018A000002EFED7EF2EF3D71200010E0801266F8F
:1018B000276F286F296F2A6B2B6F2C6F0601CE6B59
:1018C000CD6BC36BC26BC16BC06BCE51FD080EE319
:1018D00003E1CD51E7080AE3938281A207D0948AFD
:1018E00082AA04D0CD2BD8B4CE2BEFD7CE6BCD6B44
:1018F000CAC603F0C951C92BD8B4CA2B08012F6F2F
:10190000420E2F25E96E020E0320EA6EEF6A0601F1
:10191000CAC603F0C951C92BD8B4CA2B08012F6F0E
:10192000420E2F25E96E020E0320EA6E010EEF6EC5
:101930000601CCC603F0CB51CB2BD8B4CC2B08017D
:101940002F6F940E2F25E96E050E0320EA6EEF6AC5
:101950000601CCC603F0CB51CB2BD8B4CC2B08015D
:101960002F6F940E2F25E96E050E0320EA6E010EEF
:10197000EF6E0601CA510308D8A06FD004E1C95127
:101980005108D8A06AD0CC510108D8A066D003E194
:10199000CB512B0862E3CE51FF085FE303E1CD5149
:1019A000DB085BE3D75304E0CA6BC96BCC6BCB6B32
:1019B000CD2BD8B4CE2BC36BC26BC16BC06B9384E1
:1019C0000801266B81B4262B26531EE1272D1CD03F
:1019D000276B420E0601C925E96E020ECA21EA6E86
:1019E0009382000E81A2010EEF6E940ECB25E96E5C
:1019F000050ECC21EA6E2AC8EFFFC92BD8B4CA2B3A
:101A0000CE6BCD6B06D00801262D02D0010E276FBC
:101A1000060193860801286B81B6282B28530FE115
:101A2000292D0DD0296B948A2A6B82AA2A2B0601B4
:101A3000CB2BD8B4CC2BCE6BCD6B06D00801282D88
:101A400002D0010E296F0601938081A005D0D76BCB
:101A5000CE69DC0ECD6F01D08DD7CE6BCD6B08017A
:101A6000386BCAC63AF8C9C639F8020E3C6F420E46
:101A70003B6F0001DFEC04F001C02BF8010E080100
:101A8000386FCCC63AF8CBC639F8050E3C6F940EC9
:101A90003B6F0001DFEC04F001C02CF80601D22DF1
:101AA0004AD0EE0EF66E050EF76E0E0E0801466F6A
:101AB0000001A9DD100EE96ECAC630F8C9C62FF8BC
:101AC000B6DD0D0E0801526F00017ADD0A0E080125
:101AD000526F000175DD020EF66E060EF76E0E0EE9
:101AE0000801466F00018FDD100EE96ECCC630F89C
:101AF000CBC62FF89CDD0D0E0801526F000160DD92
:101B00000A0E0801526F00015BDD73D608012B53EA
:101B100007E1160EF66E060EF76E0001E6DD08010F
:101B20002C5307E12C0EF66E060EF76E0001DDDD7C
:101B3000080107D006010F0E08012F6F0001A1DE7A
:101B400008012B5302E02C5310E10601CC6BCB6B48
:101B5000CA6BC96BD66BD72BC36BC26BC16BC06B27
:101B6000000E016E1ED01BD00801010E0601D16FC0
:101B7000D66FCCC6C8F6CBC6C7F6CAC6C6F6C9C6A7
:101B8000C5F6CA6BC96BCC6BCB6BC36BC26BC16B3D
:101B9000C06B0001FC6BFB6B016E060102D0000EF6
:101BA000016E0001E5EF0DF0020E0801266FFA0E3E
:101BB000276F000121EF03F00801262FF8D7060157
:101BC000D42D01D00BD0000170D601C0D3F6060190
:101BD000C36BC26BC16BC06BCE6BCD6BF090000161
:101BE00036EF00F00D0A547261636B31204461746A
:101BF000613A0D0A00000D0A547261636B32204491
:101C00006174613A0D0A00000D0A50494E204E756C
:101C10006D6265723A0D0A00464F524D4154544967
:101C20004E472E2E2E0020657869740A0D00464F0F
:101C3000524D415454494E472E2E2E00206578694E
:101C4000740A0D007265736574696E672070617344
:101C500073776F72642E2E2E000020657869740AE7
:101C60000D004B657920626F617264207465737436
:101C7000696E670A0D00726573657420666163742E
:101C80006F72790A0D0020657869740A0D004E653F
:101C90007720636F6E736F6C65206E616D653E00BB
:101CA000204F4B0A0D005B4D5D005B535D00596595
:101CB00061723E004D6F6E74683E00004461746551
:101CC0003E004461793E0000486F75723E004D69E8
:101CD0006E757465733E00005365636F6E64733E8A
:101CE000000050726573732027312720746F2073B2
:101CF000656C65637420536C61766572206D6F64EA
:101D0000650050726573732027302720746F20732D
:101D1000656C656374204D6173746572206D6F64CA
:101D20006500496E707574204E756D6265720000B5
:101D300050726573732027312720746F2073656C90
:101D400065637420746865206E6577206B657962C1
:101D50006F61726400005072657373202730272012
:101D6000746F2073656C65637420746865206F6C94
:101D700064206B6579626F6172640000682D3E209B
:101D800048656C700A0D000073632D3E2053657426
:101D900020436C6F636B0A0D0000632D3E20736857
:101DA0006F7720436C6F636B0A0D00007061737373
:101DB000776F72642D3E206368616E67696E67207D
:101DC00050415353574F52440A0D00006E202D3E90
:101DD000206368616E676520636F6E736F6C65204A
:101DE0004E616D650A0D0000662D3E20466F726DD6
:101DF00061740A0D0000652D3E20457869740A0D56
:101E000000007472616E2074696D652D3E207469E6
:101E10006D65206F662065616368207472616E7302
:101E2000616374696F6E0A0D000064656275672DE9
:101E30003E206F6E2F6F6666206465627567206D49
:101E40006F64650A0D006B6F666B62202564202D40
:101E50003E2073656C656374206B696E64206F66E9
:101E6000206B6579626F6172640A0D00727366613E
:101E700063742D3E20726573657420666163746FB0
:101E800072790A0D00006F6C642070617373776F54
:101E900072643A000A0D6E65773A00000A0D6167B8
:101EA00061696E3A00000A0D4F4B0A0D00000A0DE1
:101EB0004552520A0D0020580A0D00004E65772049
:101EC00063727970746F206B65793E000A0D4E6500
:101ED000772063727970746F206B65793A20000007
:101EE0000A0D63727970746F20697320646973617D
:101EF000626C650A0D0050726573732027312720CC
:101F0000746F20656E61626C652064656275672020
:101F10006D6F646500005072657373202730272051
:101F2000746F2064697361626C65206465627567B3
:101F3000206D6F6465000101572B57510108D8B01F
:101F4000D1D05A51FB0F41E2050F000177EF10F09D
:101F5000929A899A92968986929489849292898299
:101F600092908980010131D092968996929A898ABD
:101F7000929489849292898292908980010125D0DD
:101F80009294899492968986929A898A9292898269
:101F900092908980010119D09292899292968986B5
:101FA00092948984929A898A9290898001010DD0B5
:101FB000929089909296898692948984929289824D
:101FC000929A898A010101D0010158A13ED09388DB
:101FD000000E81B8010E08012B6F938A000E81BAA2
:101FE000010E2B17938C000E81BC010E2B17938EC4
:101FF000000E81BE010E2B1526E059C129F8010102
:10200000405318E10001FC6BFB6B010143510F08C9
:1020100010E34351432B036A460FE96E010E032080
:10202000EA6E29C8EFFF29C852F80001E0EC0AF077
:10203000010106D029C852F80001E0EC0AF00101C4
:102040005891596B08014CD001019388000E81B85A
:10205000010E08012B6F938A000E81BA010E2B1717
:10206000938C000E81BC010E2B17938E000E81BE47
:10207000010E2B152FE1938881B802D02A6B11D065
:10208000938A81BA03D0010E2A6F0BD0938C81BC46
:1020900003D0020E2A6F05D0938E81BE02D0030EAC
:1020A0002A6F2A51050DF3502C6B2B6F036A010127
:1020B0005A5108012B25016E2C51032201500001B9
:1020C00085EC01F0E8CF59F101015881FF0E926EC5
:1020D00007D0080101015A2B5A510508D8B45A6B90
:1020E0000101576B080129C801F000011200E82422
:1020F000F76AF736090FF66E210EF7220A00F5503F
:10210000FA6E0800F550F96E501F681F801F981F67
:10211000B01FE00E0F01486FC29CC29E4951E00BF8
:102120001709496F08014651FA0F65E2060F0001D1
:10213000FDEF10F0100E016EC250C30B0110C26E05
:10214000C282C2B2FED7C4CF47F8080147C801F027
:1021500052D051D00C0E016EC250C30B0110C26E92
:10216000C282C2B2FED7C4CF47F8080147C801F007
:1021700042D041D0080E016EC250C30B0110C26E96
:10218000C282C2B2FED7C4CF47F8080147C801F0E7
:1021900032D031D0040E016EC250C30B0110C26E9A
:1021A000C282C2B2FED7C4CF47F8080147C801F0C7
:1021B00022D021D0000E016EC250C30B0110C26E9E
:1021C000C282C2B2FED7C4CF47F8080147C801F0A7
:1021D00012D011D02C0E016EC250C30B0110C26E72
:1021E000C282C2B2FED7C4CF47F8080147C801F087
:1021F00002D001D0080100011200E824F76AF73686
:10220000150FF66E220EF7220A00F550FA6E08003E
:10221000F550F96E3421542174219421B421D42134
:10222000D8B204D0080EEA6E5A0EE96E006A016A4E
:10223000026A036A08015A6B5B6B5C6B5D6B5951F8
:102240005811571156112CE0200E5E6FD89052375E
:102250005337543755375A375B375C375D375951E9
:102260005D5D08E158515C5D05E157515B5D02E140
:1022700056515A5D0FE356515A5F5751D8A0573DFA
:102280005B5F5851D8A0583D5C5F5951D8A0593D6B
:102290005D5FD88000360136023603365E2FD6D712
:1022A0005AC8EFFF5BC8ECFF5CC8ECFF5DC8ECFFF1
:1022B00000011200E95008014A6F3B0E516F9A0E5F
:1022C000506FCA0E4F6F4E6B0A0E4C6FD882080EBD
:1022D000EA6E460EE96E49C855F848C854F847C832
:1022E00053F846C852F851C859F850C858F84FC862
:1022F00057F84EC856F8000193DF0150005213E121
:1023000008014C51010AD8A402D000010CD04A5156
:102310000CE00F0B4C5D01E010E24ABF0ED04ABD4D
:1023200004D0200E03D008014A6B300E002600C0F6
:1023300052F80001E0EC0AF00801D89251C855F8B3
:1023400050C854F84FC853F84EC852F8596B586BE0
:10235000576B0A0E566F000163DF03C051F802C0CD
:1023600050F801C04FF800C04EF808014C2FAED70E
:10237000000112000801316B306B2F6B2E6B356B37
:10238000346B336B326B396B386B376B366B3D6B41
:102390003C6B3B6B3A6B416B406B3F6B3E6B2D6B09
:1023A0002C6B2D5101083EE303E12C51F3083AE375
:1023B000466B0001AEDE015008012E27000E2F23D0
:1023C00030233123010E466F0001A3DE01500801C6
:1023D0003227000E332334233523020E466F0001CB
:1023E00098DE015008013627000E372338233923A1
:1023F000030E466F00018DDE015008013A27000EE2
:102400003B233C233D23040E466F000182DE015036
:1024100008013E27000E3F23402341232C2BD8B434
:102420002D2BBFD7D89231C855F830C854F82FC8D3
:1024300053F82EC852F8596B586B010E576FF40EB3
:10244000566F0001EDDE03C031F802C030F801C064
:102450002FF800C02EF8D89235C855F834C854F873
:1024600033C853F832C852F80801596B586B010E43
:10247000576FF40E566F0001D3DE03C035F802C06B
:1024800034F801C033F800C032F8D89239C855F892
:1024900038C854F837C853F836C852F80801596B91
:1024A000586B010E576FF40E566F0001B9DE03C072
:1024B00039F802C038F801C037F800C036F8D892B1
:1024C0003DC855F83CC854F83BC853F83AC852F8D0
:1024D0000801596B586B010E576FF40E566F0001CF
:1024E0009FDE03C03DF802C03CF801C03BF800C0CD
:1024F0003AF8D89241C855F840C854F83FC853F844
:102500003EC852F80801596B586B010E576FF40E14
:10251000566F000185DE03C041F802C040F801C0DB
:102520003FF800C03EF801014053D8B4BDD00D0EB5
:102530000801526F0001E0EC0AF00A0E0801526F28
:102540000001E0EC0AF0BC0EF66E040EF76E070E0A
:102550000801466F000103EC0BF0410EE96E31C833
:1025600049F830C848F82FC847F82EC846F8A2DE08
:102570000D0E0801526F0001E0EC0AF00A0E08018E
:10258000526F0001E0EC0AF0CA0EF66E040EF76E10
:10259000070E0801466F000103EC0BF0410EE96ED7
:1025A00035C849F834C848F833C847F832C846F83F
:1025B00081DE0D0E0801526F0001E0EC0AF00A0EF8
:1025C0000801526F0001E0EC0AF0D80EF66E040E1E
:1025D000F76E070E0801466F000103EC0BF0410E89
:1025E000E96E39C849F838C848F837C847F836C8D6
:1025F00046F860DE0D0E0801526F0001E0EC0AF0B3
:102600000A0E0801526F0001E0EC0AF0E60EF66EC9
:10261000040EF76E070E0801466F000103EC0BF085
:10262000410EE96E3DC849F83CC848F83BC847F838
:102630003AC846F83FDE0D0E0801526F0001E0EC8B
:102640000AF00A0E0801526F0001E0EC0AF0F40EE5
:10265000F66E040EF76E070E0801466F000103ECDC
:102660000BF0410EE96E41C849F840C848F83FC830
:1026700047F83EC846F81EDE0D0E0801526F0001F5
:10268000E0EC0AF00A0E0801526F0001E0EC0AF0DB
:102690000D0E0801526F0001E0EC0AF00A0E08016D
:1026A000526F0001E0EC0AF00801315307E13053AA
:1026B00005E12F5303E12E51050830E231532EE19D
:1026C00030532CE12F532AE12E513B0827E3355399
:1026D00007E1345305E1335303E1325164081EE24C
:1026E000395307E1385305E1375303E136516408A4
:1026F00015E23D5307E13C5305E13B5303E13A51F9
:1027000064080CE2415307E1405305E13F5303E104
:102710003E51640803E2000E016E3FD1355307E1DC
:10272000345305E1335303E13251050830E23553A8
:102730002EE134532CE133532AE132513B0827E395
:10274000315307E1305305E12F5303E12E51640863
:102750001EE2395307E1385305E1375303E136519F
:10276000640815E23D5307E13C5305E13B5303E1A7
:102770003A5164080CE2415307E1405305E13F53ED
:1027800003E13E51640803E2010E016E06D13953A4
:1027900007E1385305E1375303E13651050830E2CC
:1027A00039532EE138532CE137532AE136513B0897
:1027B00027E3355307E1345305E1335303E1325145
:1027C00064081EE2315307E1305305E12F5303E162
:1027D0002E51640815E23D5307E13C5305E13B539C
:1027E00003E13A5164080CE2415307E1405305E12B
:1027F0003F5303E13E51640803E2020E016ECDD067
:102800003D5307E13C5305E13B5303E13A510508D1
:1028100030E23D532EE13C532CE13B532AE13A5147
:102820003B0827E3355307E1345305E1335303E114
:10283000325164081EE2395307E1385305E137533A
:1028400003E13651640815E2315307E1305305E1E5
:102850002F5303E12E5164080CE2415307E140532A
:1028600005E13F5303E13E51640803E2030E016EAC
:1028700094D0415307E1405305E13F5303E13E51FA
:10288000050830E241532EE140532CE13F532AE149
:102890003E513B0827E3355307E1345305E13353F9
:1028A00003E1325164081EE2395307E1385305E170
:1028B000375303E13651640815E23D5307E13C53B9
:1028C00005E13B5303E13A5164080CE2315307E15F
:1028D000305305E12F5303E12E51640803E2040E47
:1028E000016E5BD0415308E1405306E13F5304E1E0
:1028F0003E51C808D8B04FD03153D8A44CD0305333
:10290000D8A449D02F53D8A446D02E51B30843E3BE
:10291000315307E1305305E12F5303E12E51640891
:102920003AE2355338E1345336E1335334E132512E
:10293000B30831E3355307E1345305E1335303E181
:102940003251640828E2395326E1385324E13753E1
:1029500022E13651B3081FE3395307E1385305E14B
:10296000375303E13651640816E23D5314E13C53FA
:1029700012E13B5310E13A51B3080DE33D5307E137
:102980003C5305E13B5303E13A51640804E2040E71
:10299000016E03D002D0FF0E016E0001F3EF18F0BC
:1029A0000801316B306B2F6B2E6B356B346B336BD7
:1029B000326B396B386B376B366B3D6B3C6B3B6BFB
:1029C0003A6B416B406B3F6B3E6B456B446B436BAB
:1029D000426B2D6B2C6B2D5101084FE303E12C5101
:1029E000F3084BE3466B000189EC10F0015008013D
:1029F0002E27000E2F2330233123010E466F0001B6
:102A000089EC10F0015008013227000E33233423E3
:102A10003523020E466F000189EC10F001500801C9
:102A20003627000E372338233923030E466F000163
:102A300089EC10F0015008013A27000E3B233C239B
:102A40003D23040E466F000189EC10F0015008018F
:102A50003E27000E3F2340234123050E466F000111
:102A600089EC10F0015008014227000E4323442353
:102A700045232C2BD8B42D2BAED7D89231C855F87E
:102A800030C854F82FC853F82EC852F8596B586BF9
:102A9000010E576FF40E566F000110EC11F003C0D9
:102AA00031F802C030F801C02FF800C02EF8D892DB
:102AB00035C855F834C854F833C853F832C852F8FA
:102AC0000801596B586B010E576FF40E566F0001D9
:102AD00010EC11F003C035F802C034F801C033F82F
:102AE00000C032F8D89239C855F838C854F837C8F9
:102AF00053F836C852F80801596B586B010E576FDE
:102B0000F40E566F000110EC11F003C039F802C04A
:102B100038F801C037F800C036F8D8923DC855F8EB
:102B20003CC854F83BC853F83AC852F80801596BEE
:102B3000586B010E576FF40E566F000110EC11F038
:102B400003C03DF802C03CF801C03BF800C03AF8B1
:102B5000D89241C855F840C854F83FC853F83EC809
:102B600052F80801596B586B010E576FF40E566FEF
:102B7000000110EC11F003C041F802C040F801C0A0
:102B80003FF800C03EF8D89245C855F844C854F8FC
:102B900043C853F842C852F80801596B586B010EEC
:102BA000576FF40E566F000110EC11F003C045F89A
:102BB00002C044F801C043F800C042F8010140538C
:102BC000D8B4E4D00D0E0801526F0001E0EC0AF019
:102BD0000A0E0801526F0001E0EC0AF0020EF66ED8
:102BE000050EF76E070E0801466F000103EC0BF0AF
:102BF000410EE96E31C849F830C848F82FC847F887
:102C00002EC846F85AEC11F00D0E0801526F000163
:102C1000E0EC0AF00A0E0801526F0001E0EC0AF045
:102C2000100EF66E050EF76E070E0801466F0001D6
:102C300003EC0BF0410EE96E35C849F834C848F88A
:102C400033C847F832C846F85AEC11F00D0E0801A7
:102C5000526F0001E0EC0AF00A0E0801526F000109
:102C6000E0EC0AF01E0EF66E050EF76E070E080178
:102C7000466F000103EC0BF0410EE96E39C849F8CC
:102C800038C848F837C847F836C846F85AEC11F043
:102C90000D0E0801526F0001E0EC0AF00A0E080167
:102CA000526F0001E0EC0AF02C0EF66E050EF76E86
:102CB000070E0801466F000103EC0BF0410EE96EB0
:102CC0003DC849F83CC848F83BC847F83AC846F8F8
:102CD0005AEC11F00D0E0801526F0001E0EC0AF001
:102CE0000A0E0801526F0001E0EC0AF03A0EF66E8F
:102CF000050EF76E070E0801466F000103EC0BF09E
:102D0000410EE96E41C849F840C848F83FC847F845
:102D10003EC846F85AEC11F00D0E0801526F000142
:102D2000E0EC0AF00A0E0801526F0001E0EC0AF034
:102D3000480EF66E050EF76E070E0801466F00018D
:102D400003EC0BF0410EE96E45C849F844C848F859
:102D500043C847F842C846F85AEC11F00D0E080176
:102D6000526F0001E0EC0AF00A0E0801526F0001F8
:102D7000E0EC0AF00D0E0801526F0001E0EC0AF0E1
:102D80000A0E0801526F0001E0EC0AF0080131530D
:102D900007E1305305E12F5303E12E51050839E2D5
:102DA000315337E1305335E12F5333E12E513B0896
:102DB00030E3355307E1345305E1335303E1325136
:102DC000640827E2395307E1385305E1375303E13B
:102DD000365164081EE23D5307E13C5305E13B5385
:102DE00003E13A51640815E2415307E1405305E11C
:102DF0003F5303E13E5164080CE2455307E144535D
:102E000005E1435303E14251640803E2000E016E01
:102E1000BCD1355307E1345305E1335303E132515B
:102E2000050839E2355337E1345335E1335333E1A3
:102E300032513B0830E3315307E1305305E12F5362
:102E400003E12E51640827E2395307E1385305E1C5
:102E5000375303E1365164081EE23D5307E13C530A
:102E600005E13B5303E13A51640815E2415307E1A0
:102E7000405305E13F5303E13E5164080CE24553E2
:102E800007E1445305E1435303E14251640803E27F
:102E9000010E016E7AD1395307E1385305E13753FA
:102EA00003E13651050839E2395337E1385335E14A
:102EB000375333E136513B0830E3355307E13453A0
:102EC00005E1335303E13251640827E2315307E14E
:102ED000305305E12F5303E12E5164081EE23D53A8
:102EE00007E13C5305E13B5303E13A51640815E225
:102EF000415307E1405305E13F5303E13E5164086C
:102F00000CE2455307E1445305E1435303E14251C9
:102F1000640803E2020E016E38D13D5307E13C53D1
:102F200005E13B5303E13A51050839E23D5337E1EE
:102F30003C5335E13B5333E13A513B0830E33553E1
:102F400007E1345305E1335303E13251640827E2CA
:102F5000395307E1385305E1375303E1365164082B
:102F60001EE2315307E1305305E12F5303E12E51A7
:102F7000640815E2415307E1405305E13F5303E183
:102F80003E5164080CE2455307E1445305E14353C5
:102F900003E14251640803E2030E016EF6D041538F
:102FA00007E1405305E13F5303E13E51050839E293
:102FB000415337E1405335E13F5333E13E513B0844
:102FC00030E3355307E1345305E1335303E1325124
:102FD000640827E2395307E1385305E1375303E129
:102FE000365164081EE23D5307E13C5305E13B5373
:102FF00003E13A51640815E2315307E1305305E12A
:103000002F5303E12E5164080CE2455307E144536A
:1030100005E1435303E14251640803E2040E016EEB
:10302000B4D0455307E1445305E1435303E1425112
:10303000050839E2455337E1445335E1435333E161
:1030400042513B0830E3355307E1345305E1335334
:1030500003E13251640827E2395307E1385305E1AF
:10306000375303E1365164081EE23D5307E13C53F8
:1030700005E13B5303E13A51640815E2415307E18E
:10308000405305E13F5303E13E5164080CE23153E4
:1030900007E1305305E12F5303E12E51640803E2A9
:1030A000050E016E72D0455308E1445306E14353C7
:1030B00004E14251C808D8B066D03153D8A463D0D7
:1030C0003053D8A460D02F53D8A45DD02E51B3086C
:1030D000D8A059D0315308E1305306E12F5304E111
:1030E0002E516408D8B04FD03553D8A44CD03453A7
:1030F000D8A449D03353D8A446D03251B30843E3BF
:10310000355307E1345305E1335303E13251640889
:103110003AE2395338E1385336E1375334E1365126
:10312000B30831E3395307E1385305E1375303E17D
:103130003651640828E23D5326E13C5324E13B53D9
:1031400022E13A51B3081FE33D5307E13C5305E147
:103150003B5303E13A51640816E2415314E14053F2
:1031600012E13F5310E13E51B3080DE3415307E133
:10317000405305E13F5303E13E51640804E2050E6C
:10318000016E03D002D0FF0E016E0001F9EF18F0BE
:10319000200E08012A6F938881A809D0938A81AAFA
:1031A00006D0938C81AC03D0938E81BEB3D093882C
:1031B00081B802D02B6B11D0938A81BA03D0010E53
:1031C0002B6F0BD0938C81BC03D0020E2B6F05D0DC
:1031D000938E81BE02D0030E2B6F0101455306E191
:1031E0000001BAEF11F001C029F805D00001D0EFBD
:1031F00014F001C029F80801293D01D073D0010164
:10320000455313E108012B51050DF3502D6B2C6F25
:10321000036A29512C25016E2D5103220150000112
:1032200085EC01F0E8CF2AF812D008012B51060DE9
:10323000F3502D6B2C6F036A29512C25016E2D51F3
:1032400003220150000197EC01F0E8CF2AF80101B8
:10325000405341E10001FC6BFB6B010143510F083E
:1032600039E34351432B036A460FE96E010E0320F5
:10327000EA6E2AC8EFFF560EF66E050EF76E090EBF
:103280000801466F000103EC0BF043C132F8180E41
:103290000801336F00019BEC0BF05D0E0801526FCB
:1032A0000001E0EC0AF0200E0801526F0001E0EC92
:1032B0000AF02AC852F8E0EC0AF00D0E0801526F2D
:1032C0000001E0EC0AF00A0E0801526F0001E0EC88
:1032D0000AF0010106D02AC852F80001E0EC0AF019
:1032E00001010801938881A8FDD7938A81AAFAD7A2
:1032F000938C81ACF7D7938E81AEF4D7938881A855
:10330000FDD7938A81AAFAD7938C81ACF7D7938E95
:1033100081AEF4D7FF0E926E2AC801F000011200B0
:10332000080E016E0A0E006E002EFED78B96949644
:103330000B0E006E002EFED708015C378B98D8B0BC
:103340009488D8A09498948682A6FED7012E01D0A6
:1033500002D00001E7D70A0E006E002EFED78B9632
:103360009496000094880B0E006E002EFED70B0E74
:10337000006E002EFED7948682A6FED7016A0B0E41
:10338000006E002EFED782B801808B9694968B98A3
:10339000949800011200080E08014A6F00C04BF813
:1033A00094880B0E006E002EFED7948682A6FED760
:1033B00082B8D88082A8D89001360A0E006E002EFE
:1033C000FED794968B964A2FEBD794880B0E006EFF
:1033D000002EFED78B984B51D8A494980000948669
:1033E00082A6FED70A0E006E002EFED78B9694960C
:1033F0000B0E006E002EFED78B98949800011200E1
:103400000801465303E14551000803E2A80E486F46
:1034100002D0A00E486F94880A0E006E002EFED7D0
:1034200094860B0E006E002EFED782A6FED78B98D8
:1034300094980A0E006E002EFED78B96949648C87C
:103440005CF800016DDF44C84AF845C84BF846C82F
:103450004CF808014D6B44C85CF8000161DF43C8BB
:103460005CF85EDF94880A0E006E002EFED794860C
:103470000B0E006E002EFED782A6FED78B98949876
:103480000A0E006E002EFED78B969496010E080150
:103490004825496F5C6F000143DF006A7CDF01C093
:1034A00047F894980000948682A6FED70A0E006E14
:1034B000002EFED700D0000094880A0E006E002E69
:1034C000FED7080147C801F00001120008013E6B59
:1034D0003D6B406B3F6B426B416B466B456B446B86
:1034E000240E436F00018CDF080101C03FF8406BE0
:1034F000466B456B446B250E436F000181DF08016D
:10350000426B01C041F841C842F8416B41513F1143
:103510003D6F425140113E6F3DC801F03EC802F080
:103520000001120008012E513003F3CF01F0F4CF57
:1035300000F03103F35000262F513003F3500020E8
:10354000026E0001120008013B6B38513B5D0AE23C
:10355000036A3B513925E96E3A510320EA6EEF6A5E
:103560003B2BF3D7000112000801376B010E366FB9
:103570002CC838F82EC83AF82DC839F830C83CF8AD
:103580002FC83BF80001DFEC04F002C037F801C09F
:1035900036F80801365305E1375303E1000E016E9A
:1035A000D5D137C835F836C834F80601C453D8A485
:1035B000DDD008012C53D8A47BD0336B33514E0897
:1035C00076E3036A33513125016E3251032201C083
:1035D00038F803C039F8050E34253A6F000E35214E
:1035E0003B6F2F513A25E96E30513B21EA6EEFCF08
:1035F0003CF8040E34253D6F000E35213E6F2F51EF
:103600003D25E96E30513E21EA6EEFCF3FF8030EC3
:103610003425406F000E3521416F2F514025E96E52
:1036200030514121EA6EEFCF42F8020E3425436F4C
:10363000000E3521446F2F514325E96E305144214E
:10364000EA6EEFCF45F8010E3425466F000E3521A6
:10365000476F2F514625E96E30514721EA6EEFCF73
:1036600048F82F513425E96E30513521EA6EEFCFFD
:1036700049F85A6B5B6B3CC85CF83FC85DF842C8C0
:103680005EF845C85FF848C860F849C861F80001AD
:1036900034EC03F039C8EAFF38C8E9FF01C0EFFF96
:1036A000070E08013427000E3523332B87D75CD053
:1036B000336B3351270858E3036A33513125016EC8
:1036C0003251032201C038F803C039F8030E342503
:1036D0003A6F000E35213B6F2F513A25E96E30517C
:1036E0003B21EA6EEFCF3CF8020E34253D6F000E11
:1036F00035213E6F2F513D25E96E30513E21EA6E56
:10370000EFCF3FF8010E3425406F000E3521416F99
:103710002F514025E96E30514121EA6EEFCF42F83A
:103720002F513425E96E30513521EA6EEFCF43F841
:103730005A6B5B6B5C6B5D6B3CC85EF83FC85FF8B7
:1037400042C860F843C861F8000134EC03F039C89E
:10375000EAFF38C8E9FF01C0EFFF050E0801342772
:10376000000E3523332BA5D7DCD0060108012C53DE
:10377000D8A47BD0336B33514E0876E3036A3351C0
:103780003125016E3251032201C038F803C039F8E7
:10379000050E345D3A6F000E35593B6F2F513A25B7
:1037A000E96E30513B21EA6EEFCF3CF8040E345DF8
:1037B0003D6F000E35593E6F2F513D25E96E30515A
:1037C0003E21EA6EEFCF3FF8030E345D406F000EEE
:1037D0003559416F2F514025E96E30514121EA6E34
:1037E000EFCF42F8020E345D436F000E3559446F3F
:1037F0002F514325E96E30514421EA6EEFCF45F851
:10380000010E345D466F000E3559476F2F51462526
:10381000E96E30514721EA6EEFCF48F82F51342539
:10382000E96E30513521EA6EEFCF49F85A6B5B6B88
:103830003CC85CF83FC85DF842C85EF845C85FF810
:1038400048C860F849C861F8000134EC03F039C891
:10385000EAFF38C8E9FF01C0EFFF070E0801345F37
:10386000000E355B332B87D75CD0336B3351270881
:1038700058E3036A33513125016E3251032201C0EE
:1038800038F803C039F8030E345D3A6F000E35592D
:103890003B6F2F513A25E96E30513B21EA6EEFCF55
:1038A0003CF8020E345D3D6F000E35593E6F2F51CE
:1038B0003D25E96E30513E21EA6EEFCF3FF8010E13
:1038C000345D406F000E3559416F2F514025E96E30
:1038D00030514121EA6EEFCF42F82F513425E96E85
:1038E00030513521EA6EEFCF43F85A6B5B6B5C6B5E
:1038F0005D6B3CC85EF83FC85FF842C860F843C8DB
:1039000061F8000134EC03F039C8EAFF38C8E9FF78
:1039100001C0EFFF050E0801345F000E355B332B4D
:10392000A5D72C530AE1520E386F30C83AF82FC889
:1039300039F8000108DE09D008012C0E386F30C8B4
:103940003AF82FC839F80001FEDD08010001120025
:103950000801535303E15251000803E2A80E566FC9
:1039600002D0A00E566F94880A0E006E002EFED76D
:1039700094860B0E006E002EFED78B9894980A0E3C
:10398000006E002EFED78B96949656C85CF8000108
:10399000C7DC51C858F852C859F853C85AF808013A
:1039A0005B6B51C85CF80001BBDC50C85CF8B8DC4C
:1039B00054C85CF8B5DC94980000948682A6FED7C3
:1039C0000A0E006E002EFED700D0000094880A0E6A
:1039D000006E002EFED794880A0E006E002EFED7D1
:1039E00094860B0E006E002EFED78B9894980A0ECC
:1039F000006E002EFED78B96949656C85CF890DC2D
:103A000001500801559101B0558155A11ED09488EF
:103A10000A0E006E002EFED794860B0E006E002E4E
:103A2000FED782A6FED78B9894980A0E006E002EC1
:103A3000FED78B96949656C85CF8000171DC015055
:103A40000801559101B05581E0D7000112000166CF
:103A500003D0026602D007D0022A00C0EEFF012E7A
:103A6000FCD7022EFAD712000801456B446B436B5A
:103A7000426B466B476B486B496B40C845F83FC883
:103A800044F83EC843F83DC842F842C846F843C827
:103A900047F844C848F845C849F8536B526B516B16
:103AA00041C850F846C854F8000152DF010E080121
:103AB00041254A6F536B526B516B506F47C854F896
:103AC000000146DF020E080141254A6F536B526B1D
:103AD000516B506F48C854F800013ADF030E0801DB
:103AE00041254A6F536B526B516B506F49C854F864
:103AF00000012EDF1200010E0601D46F0001E6DC8A
:103B000002C02DF801C02CF802C02FF801C02EF819
:103B10000801316B7C0E306F000104DD01C02CF810
:103B2000960E08010124016E000E022001C020F053
:103B3000216E226A236A0601D15310E1C66BC56B60
:103B4000C86BC76BCA6BC96BCC6BCB6BD55304E12D
:103B50000001FC69FB690601D46BC2D1BA0EF66E96
:103B6000050EF76E000175EC0BF0010E0101416FBF
:103B7000C6C62BF8C5C62AF808012C6B2BC82EF830
:103B80002AC82DF8020E306F420E2F6F010E326FD1
:103B9000CB0E316F0001E8DC0601C66BC56BC8C6F1
:103BA0002BF8C7C62AF8010E08012C6F2BC82EF877
:103BB0002AC82DF8050E306F940E2F6F020E326F4B
:103BC0001A0E316F0001D0DC0601C86BC76BD46BD5
:103BD000200E0101CB250801296F2352D8A47FD1E3
:103BE00022500108D8A07BD109E12150C308D8A0F8
:103BF00076D104E120500D08D8A071D129512508B3
:103C0000D8A46DD123C003F022C002F021C001F07E
:103C100020C000F0010E2026D8B0212AD8B4222AD4
:103C2000D8B4232A01C02DF800C02CF8536B526B76
:103C300001C051F800C050F8C7C154F8000188DE37
:103C400023C003F022C002F021C001F020C000F028
:103C5000010E2026D8B0212AD8B4222AD8B4232A8B
:103C600001C02DF800C02CF80801536B526B01C045
:103C700051F800C050F8C6C154F8000169DE23C0F5
:103C800003F022C002F021C001F020C000F0010EBC
:103C90002026D8B0212AD8B4222AD8B4232A01C099
:103CA0002DF800C02CF80801536B526B01C051F87D
:103CB00000C050F8C8C154F800014ADE23C003F028
:103CC00022C002F021C001F020C000F0010E202629
:103CD000D8B0212AD8B4222AD8B4232A01C02DF87A
:103CE00000C02CF80801536B526B01C051F800C0A2
:103CF00050F8C9C154F800012BDE23C003F022C0E4
:103D000002F021C001F020C000F0010E2026D8B042
:103D1000212AD8B4222AD8B4232A01C02DF800C001
:103D20002CF80801536B526B01C051F800C050F8D9
:103D3000CAC154F800010CDE0601D06BCF6BD05322
:103D400030E1CF514E082DE323C003F022C002F032
:103D500021C001F020C000F0010E2026D8B0212A99
:103D6000D8B4222AD8B4232A01C02DF800C02CF8D8
:103D7000CB0ECF25E96E010ED021EA6EEF503F0B3E
:103D8000200F08012E6F536B526B01C051F800C019
:103D900050F8546F0001DCDD0601CF2BD8B4D02BD6
:103DA000CED74F0E0801386F010E3A6FCB0E396F28
:103DB0000001A3EC1AF00601D06BCF6BD05330E1B9
:103DC000CF5127082DE323C003F022C002F021C009
:103DD00001F020C000F0010E2026D8B0212AD8B46E
:103DE000222AD8B4232A01C02DF800C02CF81A0EBC
:103DF000CF25E96E020ED021EA6EEF500F0B300F87
:103E000008012E6F536B526B01C051F800C050F87F
:103E1000546F00019DDD0601CF2BD8B4D02BCED737
:103E2000280E0801386F020E3A6F1A0E396F000122
:103E3000A3EC1AF00D0E0801526F0001E0EC0AF03D
:103E40000A0E0801526F0001E0EC0AF0D00EF66E87
:103E5000050EF76E75EC0BF00D0E0801526F0001A8
:103E6000E0EC0AF00A0E0801526F0001E0EC0AF0E3
:103E7000D60EF66E050EF76E75EC0BF0010EEA6EBF
:103E8000460EE96E006A026A100E016EE0DD0D0E4C
:103E90000801526F0001E0EC0AF00A0E0801526FAF
:103EA0000001E0EC0AF0FC6BFB6B23C040F822C081
:103EB0003FF821C03EF820C03DF8190E0801416FBF
:103EC0000001D2DD0601D16BD46B010ED56F01016B
:103ED000416F0001FC6BFB6B0101436B08010601A4
:103EE00000011AEF29F02752D8A4D6D02650010895
:103EF000D8A0D2D009E12550FF08D8A0CDD004E148
:103F00002450FE08D8A0C8D00101465303E1435312
:103F1000D8B499D0000166EC1AF002C02CF801C0A8
:103F20002BF808012B352D6F2C352E6F2D372E37A2
:103F30002D372E372D372E37F00E2D170E0E2D273D
:103F4000C30E2E23010E2F6FD894D8B02F2B306BB9
:103F5000010E2D25006E000E2E21016E000E2F2168
:103F6000026E000E3021276E02C026F001C025F03F
:103F700000C024F0296B29510F0820E32951242483
:103F8000006E000E2520016E000E2620026E000E2F
:103F90002720036E306F02C02FF801C02EF800C03A
:103FA0002DF8536F02C052F801C051F800C050F80C
:103FB000546B0001CDDC0801292BDDD7296B295179
:103FC0000F0834E3036A2951460FE96E010E0320FE
:103FD000EA6EEFCF2AF827C003F026C002F025C012
:103FE00001F024C000F0010E2426D8B0252AD8B450
:103FF000262AD8B4272A03C030F802C02FF801C0FF
:104000002EF800C02DF803C053F802C052F801C0CA
:1040100051F800C050F82AC854F8000199DC2AC8A9
:1040200052F8E0EC0AF00801292BC9D727C040F864
:1040300026C03FF825C03EF824C03DF81E0E416F53
:10404000000112DD0101436B010EEA6E460EE96EBE
:10405000006A026A100E016E0001F9DC0D0E080103
:10406000526F0001E0EC0AF00A0E0801526F0001E5
:10407000E0EC0AF0680EF66E050EF76E75EC0BF0CC
:104080000D0E0801526F0001E0EC0AF00A0E080163
:10409000526F0001E0EC0AF088EF29F0036A080192
:1040A0004A51E8BE03064C6F03C04DF84D31036E14
:1040B0004C31026E033202320332023203320232D8
:1040C000033202320332023203320232010E03168D
:1040D00002C04CF803C04DF81B0E4C174D6BD89026
:1040E0004A354E6F4B354F6F4E514C19006E4F5144
:1040F0004D19036E00C001F0026E000112000801AC
:104100004153D8B4E5D0466B46510908D8A0BBD07E
:104110003FC801F040C803F03FC848F840C849F81C
:104120000D0E3F25E96E000E4021EA6E036AEF5046
:10413000000168EC00F008014A6F3FC8E9FF40C881
:10414000EAFFEF504A1B036A4651000178EC01F088
:10415000016E08014A51011849C8EAFF48C8E9FF41
:10416000EF6E010E3F25016E000E4021036E01C06F
:1041700048F8496F0E0E3F25E96E000E4021EA6EA9
:10418000036AEF50000168EC00F008014A6F010E6D
:104190003F25E96E000E4021EA6EEF504A1949C8EA
:1041A000EAFF48C8E9FFEF6E020E3F25016E000EE0
:1041B0004021036E01C048F8496F0F0E3F25E96E9C
:1041C000000E4021EA6E036AEF50000168EC00F037
:1041D00008014A6F020E3F25E96E000E4021EA6E8B
:1041E000EF504A1949C8EAFF48C8E9FFEF6E030ECD
:1041F0003F25016E000E4021036E01C048F8496F53
:104200000C0E3F25E96E000E4021EA6E036AEF5066
:10421000000168EC00F008014A6F030E3F25E96ECB
:10422000000E4021EA6EEF504A1949C8EAFF48C81B
:10423000E9FFEF6E040E476F47510F0822E3036A50
:1042400047513F25016E4051032203C049F8036ADC
:1042500047513F25E96E40510320EA6EEFCF4AF8FF
:10426000040E475D036A3F25E96E40510320EA6E64
:10427000EF504A1949C8EAFF01C0E9FFEF6E472B2A
:10428000DBD7462B41D7476B47510F0821E3036A21
:1042900047513D25016E3E51032203C049F8036A90
:1042A00047513D25E96E3E510320EA6EEFCF4AF8B3
:1042B000036A47513F25E96E40510320EA6EEF50F3
:1042C0004A1949C8EAFF01C0E9FFEF6E472BDCD766
:1042D000466B46510908D8A090EF26F04153D8B458
:1042E000BCD00F0E476F4751030822E2036A4751C3
:1042F0003F25016E4051032203C049F8036A47512C
:104300003F25E96E40510320EA6EEFCF4AF8040ED4
:10431000475D036A3F25E96E40510320EA6EEF5086
:104320004A1949C8EAFF01C0E9FFEF6E4707DBD72A
:104330003FC801F040C803F03FC848F840C849F8FA
:104340000D0E3F25E96E000E4021EA6E036AEF5024
:10435000000168EC00F008014A6F3FC8E9FF40C85F
:10436000EAFFEF504A1B090ED8804655036A000148
:1043700078EC01F0016E08014A51011849C8EAFFC2
:1043800048C8E9FFEF6E010E3F25016E000E402187
:10439000036E01C048F8496F0E0E3F25E96E000E0E
:1043A0004021EA6E036AEF50000168EC00F008015A
:1043B0004A6F010E3F25E96E000E4021EA6EEF5074
:1043C0004A1949C8EAFF48C8E9FFEF6E020E3F25C7
:1043D000016E000E4021036E01C048F8496F0F0EB8
:1043E0003F25E96E000E4021EA6E036AEF5000019E
:1043F00068EC00F008014A6F020E3F25E96E000EDE
:104400004021EA6EEF504A1949C8EAFF48C8E9FF5F
:10441000EF6E030E3F25016E000E4021036E01C0BA
:1044200048F8496F0C0E3F25E96E000E4021EA6EF8
:10443000036AEF50000168EC00F008014A6F030EB8
:104440003F25E96E000E4021EA6EEF504A1949C837
:10445000EAFF48C8E9FFEF6E0CD1476B47510F08E0
:1044600028E3036A47513D25016E3E51032201C0F6
:1044700048F803C049F8036A47513D25E96E3E51AB
:104480000320EA6EEFCF4AF8036A47513F25E96EF1
:1044900040510320EA6EEF504A19036A000168ECAC
:1044A00000F049C8EAFF48C8E9FFEF6E0801472B52
:1044B000D5D7010E3D25E96E000E3E21EA6EEFCF05
:1044C00042F8010E3D25016E000E3E21036E050EE1
:1044D0003D25E96E000E3E21EA6EEFCF4AF803C09B
:1044E000EAFF01C0E9FF4AC8EFFF050E3D25016E56
:1044F000000E3E21036E090E3D25E96E000E3E21A1
:10450000EA6EEFCF4AF803C0EAFF01C0E9FF4AC8EC
:10451000EFFF090E3D25016E000E3E21036E0D0ECC
:104520003D25E96E000E3E21EA6EEFCF4AF803C04A
:10453000EAFF01C0E9FF4AC8EFFF0D0E3D25E96E15
:10454000000E3E21EA6E42C8EFFF020E3D25E96EE5
:10455000000E3E21EA6EEFCF42F8060E3D25E96ED1
:10456000000E3E21EA6EEFCF43F8020E3D25016EAC
:10457000000E3E21036E0A0E3D25E96E000E3E211F
:10458000EA6EEFCF4AF803C0EAFF01C0E9FF4AC86C
:10459000EFFF060E3D25016E000E3E21036E0E0E4E
:1045A0003D25E96E000E3E21EA6EEFCF4AF803C0CA
:1045B000EAFF01C0E9FF4AC8EFFF0A0E3D25E96E98
:1045C000000E3E21EA6E42C8EFFF0E0E3D25E96E59
:1045D000000E3E21EA6E43C8EFFF0F0E3D25E96E47
:1045E000000E3E21EA6EEFCF42F80F0E3D25016E20
:1045F000000E3E21036E0B0E3D25E96E000E3E219E
:10460000EA6EEFCF4AF803C0EAFF01C0E9FF4AC8EB
:10461000EFFF0B0E3D25016E000E3E21036E070ECF
:104620003D25E96E000E3E21EA6EEFCF4AF803C049
:10463000EAFF01C0E9FF4AC8EFFF070E3D25016E02
:10464000000E3E21036E030E3D25E96E000E3E2155
:10465000EA6EEFCF4AF803C0EAFF01C0E9FF4AC89B
:10466000EFFF030E3D25E96E000E3E21EA6E42C8C3
:10467000EFFF465302E0415307E146510808D8A036
:1046800083D14153D8A480D1476B47510308D8A0A8
:104690007BD14735456F4537FC0E4517415374E0D4
:1046A000036A45513D25E96E3E510320EA6EEFCF86
:1046B00048F8020E4525036A3D25E96E3E51032068
:1046C000EA6EEF50481B4B6B48C84AF80001E6DC25
:1046D00002C049F801C048F802C04BF801C04AF8CE
:1046E000DDDC01C042F8010E08014525036A3D25C5
:1046F000E96E3E510320EA6EEFCF48F8030E4525E0
:10470000036A3D25E96E3E510320EA6EEF50481BD7
:104710004B6B48C84AF80001C1DC02C049F801C02F
:1047200048F802C04BF801C04AF8B8DC01C043F8B1
:10473000036A080145513D25E96E3E510320EA6EAA
:10474000EF504219EF6E010E4525036A3D25E96ED3
:104750003E510320EA6EEF504319EF6E020E4525DD
:10476000036A3D25E96E3E510320EA6EEF5042197F
:10477000EF6E030E4525036A3D25E96E3E51032089
:10478000EA6EEF504319EF6E036A45513D25E96E1D
:104790003E510320EA6EEFCF48F8010E4525036A2B
:1047A0003D25E96E3E510320EA6EEF50481B020E94
:1047B0004525036A3D25E96E3E510320EA6EEF5020
:1047C000481B030E4525036A3D25E96E3E51032033
:1047D000EA6EEF504819426F036A45513D25E96E74
:1047E0003E510320EA6EEFCF43F8036A45513D2561
:1047F000E96E3E510320EA6EEFCF48F8010E4525E1
:10480000036A3D25E96E3E510320EA6EEF504819D8
:10481000446F4B6B44C84AF8000140DC01C044F8C7
:10482000036A080145513D25016E3E51032203C034
:1048300049F8036A45513D25E96E3E510320EA6E71
:10484000EF504419421949C8EAFF01C0E9FFEF6E71
:10485000010E4525036A3D25E96E3E510320EA6EAF
:10486000EFCF48F8020E4525036A3D25E96E3E511B
:104870000320EA6EEF504819446F4B6B44C84AF866
:1048800000010CDC01C044F8010E08014525036A53
:104890003D25016E3E51032203C049F8010E452516
:1048A000036A3D25E96E3E510320EA6EEF5044193C
:1048B000421949C8EAFF01C0E9FFEF6E020E452523
:1048C000036A3D25E96E3E510320EA6EEFCF48F8BA
:1048D000030E4525036A3D25E96E3E510320EA6E2D
:1048E000EF504819446F4B6B44C84AF800014EEC36
:1048F00020F001C044F8020E08014525036A3D2559
:10490000016E3E51032203C049F8020E4525036A99
:104910003D25E96E3E510320EA6EEF5044194219DD
:1049200049C8EAFF01C0E9FFEF6E030E4525036A9F
:104930003D25E96E3E510320EA6EEF504319446F66
:104940004B6B44C84AF800014EEC20F001C044F81B
:10495000030E08014525036A3D25016E3E510322E1
:1049600003C049F8030E4525036A3D25E96E3E5113
:104970000320EA6EEF504419421949C8EAFF01C00A
:10498000E9FFEF6E472B81D64153D8B40DD10D0E00
:104990003D25E96E000E3E21EA6EEFCF42F80D0E86
:1049A0003D25016E000E3E21036E090E3D25E96E88
:1049B000000E3E21EA6EEFCF4AF803C0EAFF01C0C5
:1049C000E9FF4AC8EFFF090E3D25016E000E3E21AA
:1049D000036E050E3D25E96E000E3E21EA6EEFCF17
:1049E0004AF803C0EAFF01C0E9FF4AC8EFFF050E1D
:1049F0003D25016E000E3E21036E010E3D25E96E40
:104A0000000E3E21EA6EEFCF4AF803C0EAFF01C074
:104A1000E9FF4AC8EFFF010E3D25E96E000E3E2179
:104A2000EA6E42C8EFFF0A0E3D25E96E000E3E21F8
:104A3000EA6EEFCF42F80E0E3D25E96E000E3E21E4
:104A4000EA6EEFCF43F80A0E3D25016E000E3E21BF
:104A5000036E020E3D25E96E000E3E21EA6EEFCF99
:104A60004AF803C0EAFF01C0E9FF4AC8EFFF0E0E93
:104A70003D25016E000E3E21036E060E3D25E96EBA
:104A8000000E3E21EA6EEFCF4AF803C0EAFF01C0F4
:104A9000E9FF4AC8EFFF020E3D25E96E000E3E21F8
:104AA000EA6E42C8EFFF060E3D25E96E000E3E217C
:104AB000EA6E43C8EFFF030E3D25E96E000E3E216E
:104AC000EA6EEFCF42F8030E3D25016E000E3E2147
:104AD000036E070E3D25E96E000E3E21EA6EEFCF14
:104AE0004AF803C0EAFF01C0E9FF4AC8EFFF070E1A
:104AF0003D25016E000E3E21036E0B0E3D25E96E35
:104B0000000E3E21EA6EEFCF4AF803C0EAFF01C073
:104B1000E9FF4AC8EFFF0B0E3D25016E000E3E2156
:104B2000036E0F0E3D25E96E000E3E21EA6EEFCFBB
:104B30004AF803C0EAFF01C0E9FF4AC8EFFF0F0EC1
:104B40003D25E96E000E3E21EA6E42C8EFFF476B3D
:104B500047510F0828E3036A47513D25016E3E5136
:104B6000032201C048F803C049F8036A47513D25B4
:104B7000E96E3E510320EA6E036AEF500001F0EC4B
:104B800000F008014A6F036A47513F25E96E405122
:104B90000320EA6EEF504A1949C8EAFF48C8E9FF06
:104BA000EF6E472BD5D7B9D03FC801F040C803F00E
:104BB0003FC848F840C849F80D0E3F25E96E000E81
:104BC0004021EA6E036AEF50000168EC00F0080132
:104BD0004A6F3FC8E9FF40C8EAFFEF504A1B036A2B
:104BE0004651000178EC01F0016E08014A510118AC
:104BF00049C8EAFF48C8E9FFEF6E010E3F25016E84
:104C0000000E4021036E01C048F8496F0E0E3F258B
:104C1000E96E000E4021EA6E036AEF50000168EC75
:104C200000F008014A6F010E3F25E96E000E402199
:104C3000EA6EEF504A1949C8EAFF48C8E9FFEF6E2B
:104C4000020E3F25016E000E4021036E01C048F8A0
:104C5000496F0F0E3F25E96E000E4021EA6E036A90
:104C6000EF50000168EC00F008014A6F020E3F258A
:104C7000E96E000E4021EA6EEF504A1949C8EAFF7A
:104C800048C8E9FFEF6E030E3F25016E000E40217C
:104C9000036E01C048F8496F0C0E3F25E96E000E07
:104CA0004021EA6E036AEF50000168EC00F0080151
:104CB0004A6F030E3F25E96E000E4021EA6EEF5069
:104CC0004A1949C8EAFF48C8E9FFEF6E040E476F6A
:104CD00047510F0822E3036A47513F25016E4051B7
:104CE000032203C049F8036A47513F25E96E40514A
:104CF0000320EA6EEFCF4AF8040E475D036A3F25B2
:104D0000E96E40510320EA6EEF504A1949C8EAFFA4
:104D100001C0E9FFEF6E472BDBD7462B69EF21F08F
:104D2000415325E1476B47510F0821E3036A47517F
:104D30003D25016E3E51032203C049F8036A4751E5
:104D40003D25E96E3E510320EA6EEFCF4AF8036A33
:104D500047513F25E96E40510320EA6EEF504A1952
:104D600049C8EAFF01C0E9FFEF6E472BDCD700011D
:104D70007BEF27F008013FBF12D00F0E006E3E39C7
:104D800000160A0E005C03E2300E002602D03F51EE
:104D9000002600C052F80001E0EC0AF008010F0EF6
:104DA0003E170A0E3E5D02E2300E02D03F9F3F5199
:104DB0003E273EC852F80001E0EC0AF0120008015C
:104DC0004A6B496B486B476B4A51445D3CE30BE1CE
:104DD0004951435D38E307E14851425D34E303E163
:104DE0004151475D30E247513D254B6F48513E21CF
:104DF0004C6F49513F214D6F4A5140214E6F4551F3
:104E00004725E96E46514821EA6EEFCF4FF84EC86C
:104E100053F84DC852F84CC851F84BC850F84FC819
:104E200054F80001A8EC1CF01A0E006E002EFED7FC
:104E30000000010E08014727D8B0482BD8B4492BF1
:104E4000D8B44A2BC1D7010E016E000112002752BF
:104E5000D8A412D126500108D8A00ED109E12550BE
:104E6000FF08D8A009D104E12450FE08D8A004D13D
:104E70000101465303E14353D8B4D4D00801296B50
:104E800029510B0829E3036A2951460FE96E010EE7
:104E90000320EA6E2B6BEFCF2AF82AC852F80001E4
:104EA000E0EC0AF0036A080129512D0F016E080E8B
:104EB000032203C03EF8036A2951460FE96E010E32
:104EC0000320EA6EEFCF3FF83EC8EAFF01C0E9FFDA
:104ED0003FC8EFFF292BD4D7396B3A6B3B6B3C6B48
:104EE000080E3E6F2D0E3D6F406BFD0E3F6F416B08
:104EF00000017FEF20F066EC1AF002C02BF801C031
:104F00002AF808012A353D6F2B353E6F3D373E3775
:104F10003D373E373D373E37F00E3D170E0E3D27ED
:104F2000C30E3E23010E3F6FD894D8B03F2B406B89
:104F3000010E3D25006E000E3E21016E000E3F2148
:104F4000026E000E4021276E02C026F001C025F03F
:104F500000C024F0296B29510F0821E32951242492
:104F6000006E000E2520016E000E2620026E000E3F
:104F70002720036E406F02C03FF801C03EF800C01A
:104F80003DF8536F02C052F801C051F800C050F80C
:104F9000546B0001A8EC1CF00801292BDCD7296B0D
:104FA00029510F0812E3036A29512D0FE96E080EEB
:104FB0000320EA6EEFCF3DF83DC83EF8570E3F6F35
:104FC0000001D8DE0801292BEBD727C040F826C006
:104FD0003FF825C03EF824C03DF8446B436B426B5C
:104FE000100E416F080E466F2D0E456F0001E7DE73
:104FF00001C02CF808012C5314E0100E2426000EDA
:1050000025222622272227C040F826C03FF825C0A7
:105010003EF824C03DF81E0E416F000134EC1DF037
:1050200008010101436B010EEA6E460EE96E006A4B
:10503000026A100E016E000127EC1DF00D0E080132
:10504000526F0001E0EC0AF00A0E0801526F0001F5
:10505000E0EC0AF07A0EF66E050EF76E75EC0BF0CA
:105060000D0E0801526F0001E0EC0AF00A0E080173
:10507000526F0001E0EC0AF08CEF29F008012C6B74
:105080002B6B2D6B2E6B2AC82CF829C82BF82BC83C
:105090002DF82C512E6F536B526B516B240E506FA9
:1050A0002DC854F80001A8EC1CF00801536B526B9A
:1050B000516B250E506F2EC854F80001A8EC1CF05F
:1050C0001200EACF31F8E9CF30F808012AAF08D052
:1050D000308F30A9302B291F2A1F292BD8B42A2B17
:1050E0002A39F0092C6F2C27E20F2D6F320F2F6F0A
:1050F0002A510F0B2D272D272F27E90F2E6F2E2733
:105100002E2729390F0B2E272F272E372F372F1F0A
:105110002F3729510F0B2F272C37070E2B6F0A0E15
:105120002E072F27FDE32D072E27FDE32C072D2724
:10513000FDE32B072C27FDE3080EEA6E2B0EE96E2C
:10514000070E3015309DE906301507E130B9E92A20
:1051500030B903D0200E006E1CD0E9262F0EE95C7A
:10516000D8B4308DEF50006E08E130BD06D030B9B4
:105170001ED030B702D0200E0BD030AF06D02D0E8F
:10518000006EED50309D309F04D030873099300E46
:105190000026EACF2AF8E9CF29F800C052F800012A
:1051A000E0EC0AF02AC8EAFF29C8E9FF0801EE503E
:1051B00030ADD4D7000112000101402D0DD0060101
:1051C000DE5304E100019BEC0FF005D00001C8ECB8
:1051D00018F001C028F80101412D0CD00601DE5362
:1051E00004E100019BEC0FF005D00001C8EC18F0C1
:1051F00001C028F80601C3530FE1C2530DE1C153AA
:105200000BE1C051040808E3010EC027D8B0C12B40
:10521000D8B4C22BD8B4C32BC05105082DE1C1535B
:105220002BE1C25329E1C35327E1D62D04D000015D
:105230007BEF1DF00601020EEA6E420EE96E006A77
:10524000030E026E520E016E000127EC1DF0050EDA
:10525000EA6E940EE96E006A010E026E2C0E016E6B
:1052600027EC1DF00601D76B010EC027D8B0C12B6B
:10527000D8B4C22BD8B4C32B0801466B456B446B22
:105280003C0E436F000100EC1AF001C056F1020E13
:1052900008012F6FBC0E2E6F316B56C130F8000124
:1052A00092EC1AF002C003F0FC51025C07E303E148
:1052B0000150FB5D03E2FB2BD8B4FC2B020E08016E
:1052C0002F6FBC0E2E6F316B56C130F8000192EC7F
:1052D0001AF002C003F00150FB5D5BE10350FC5D7E
:1052E00058E1FB2BD8B4FC2B66EC1AF002C027F86F
:1052F00001C026F80801275103081BE303E12651EA
:10530000A10817E301011E5305E1000173EF1FF02F
:1053100003D0010100019BD5010E08012627000ED4
:10532000272327C82AF826C829F80001A7DE09D0B4
:105330000801980EF66E530EF76E000175EC0BF037
:1053400028D0A80EF66E530EF76E75EC0BF0B80E63
:10535000F66E530EF76E140E0801466F000103EC53
:105360000BF0100EE96E27C82AF826C829F8A9DE26
:10537000CF0EF66E530EF76E030E0801466F000156
:1053800003EC0BF00601D56B0101416B929C899CEB
:105390000001F29436EF00F00D0A46756C6C206D3A
:1053A000656D6F72790D0A000D0A536176696E673B
:1053B0002050494E0D0A00000D0A6E657874207465
:1053C00072616E73616374696F6E2028256C642945
:1053D0000D0A0000626F6F74696E670A0D0020731A
:1053E0006176655F707472636172645F6B65793D4D
:1053F000256C750A0D006E6577206B65626F6172B2
:1054000064206D6F64650A0D00004F6C64206B654D
:10541000626F617264206D6F64650A0D0000536CE9
:1054200061766572206D6F646520697320646973AD
:1054300061626C650A0D0000536C61766572206DC7
:105440006F646520697320656E61626C650A0D008A
:105450000A63727970746F20697320656E61626C83
:10546000650A0D000A63727970746F206973206495
:10547000697361626C650A0D000070617373776F08
:1054800072643A00204F4B0A0D0020580A0D0000AC
:1054900094869488F19E73EF3AF00701FE6BFD6BE2
:1054A000FC6BFB6BFE51F85D4EE30BE1FD51F75DCC
:1054B0004AE307E1FC51F65D46E303E1F551FB5D8C
:1054C00042E2F951FB25016EFA51FC21036E01C045
:1054D000FFF7E8CF00F8FB51F1250801016F070144
:1054E000FC51F2210801026F0701FD51F32108016F
:1054F000036F0701FE51F4210801046F196AF2BE1F
:10550000198EF29E466F03C845F802C844F801C8D8
:1055100043F8000100EC1AF019BEF28E00C8EAFF51
:10552000FFC7E9FF01C0EFFF1A0E006E002EFED785
:105530000000010E0701FB27D8B0FC2BD8B4FD2BCF
:10554000D8B4FE2BAFD7000112000701F46BF36B48
:10555000F26BF16BF86BF76BF66B140EF56FFA6B81
:10556000550EF96F000199DF553C3ED0563C3CD0BA
:10557000643D3AD0EA6A2D0EE96E006A026A140EA2
:10558000016E27EC1DF0EA6A2D0EE96E000E5DEC4F
:1055900000F00A000900F550EE6E0009FBE1196AFF
:1055A000F2BE198EF29E0801406B3F6B3E6B3D6B65
:1055B000446B436B426B140E416F466B2D0E456F6F
:1055C0000001DFEC26F019BEF28E0701F46BF36BDD
:1055D000F26BF16BF86BF76BF66B140EF56FFA6B01
:1055E000550EF96F000159DF12000701BD6BBC6B4E
:1055F000BB6BBA6BC16BC06BBF6BBE6BC56BC46B57
:10560000C36BC26BC96BC86BC76BC66BCD6BCC6B06
:10561000CB6BCA6B196AF2BE198EF29E0801466BFB
:10562000456B446BB9C743F8000100EC1AF019BE92
:10563000F28E070101C0BEF7BF6BC06BC16B010EDC
:10564000B925CE6F196AF2BE198EF29E0801466B1B
:10565000456B446B436F000100EC1AF019BEF28EEB
:105660000701C56BC46BC36B01C0C2F7C4C7C5F7E4
:10567000C3C7C4F7C2C7C3F7C26B020EB925CE6F4A
:10568000196AF2BE198EF29E0801466B456B446B97
:10569000436F000100EC1AF019BEF28E0701C96BCE
:1056A000C86BC76B01C0C6F7C7C7C9F7C6C7C8F77D
:1056B000C66BC76B030EB925CE6F196AF2BE198E81
:1056C000F29E0801466B456B446B436F000100EC92
:1056D0001AF019BEF28E0701CD6BCC6BCB6B01C0FB
:1056E000CAF7CAC7CDF7CA6BCB6BCC6BCA51C61110
:1056F000CE6FCB51C711CF6FCC51C811D06FCD51E8
:10570000C911D16FC251CE13C351CF13C451D0139D
:10571000C551D113CE51BE11BA6FCF51BF11BB6F5E
:10572000D051C011BC6FD151C111BD6FBAC700F0CB
:10573000BBC701F0BCC702F0BDC703F000011200F7
:10574000EF5216E0EACFF2F7E9CFF1F7196AF2BEAD
:10575000198EF29EEFCF52F8E0EC0AF019BEF28EED
:10576000F2C7EAFFF1C7E9FFE92AD8B4EA2AE8D785
:105770001200948282B2FED7080E006E0701FA6B07
:10578000008E10D0009E0ED0FAC702F0D89082B2E0
:10579000D8800232008C06D0009C002EF7D702C0C1
:1057A00001F00CD0100E00BE040E016E012EFED7CB
:1057B00000D000BEE7D700BCEFD7E8D70001120049
:1057C0000701F86BF76BF96BF853D8A491D0F2513D
:1057D000F75DD8B08DD0F953D8A48AD00001C9DFC5
:1057E00001C0F5F70701F5517F0A000103E0720AD5
:1057F00028E046D00701F75302E1F85315E0196A93
:10580000F2BE198EF29E7F0E0801526F0001E0EC8D
:105810000AF019BEF28E0701F751D8B4F807F7075E
:105820000001A7DF0DD00701196AF2BE198EF29EA2
:10583000070E0801526F0001E0EC0AF019BEF28E6B
:1058400055D00101406BFF0E926EF7C7F6F70701C6
:10585000F251F65D0AE2036AF651F325E96EF4515E
:105860000320EA6EEF6AF62BF3D7F75305E1F853FE
:1058700003E1000E016E3ED0010EF96F000136D03B
:105880000701F5511F0833E2F5517E0830E3010EA0
:10589000F25DF8532CE1F75D2AE2F351F725E96E4A
:1058A000F451F821EA6EF5C7EFFFF72BD8B4F82BC7
:1058B000F12D0DD0196AF2BE198EF29EF5C752F87D
:1058C0000001E0EC0AF019BEF28E10D00701F15190
:1058D00002080DE1196AF2BE198EF29E2A0E080125
:1058E000526F0001E0EC0AF019BEF28E07016CD78E
:1058F000F7C701F000011200F2C7F6F7F1C7F5F79C
:10590000F4C7F8F7F3C7F7F7F6C703F00701F5C7D1
:10591000E9FFF6C7EAFFEF5223E0F8C703F0F7C745
:10592000E9FFF8C7EAFFEF521BE0F5C7E9FFF6C74A
:10593000EAFFEFCFF9F7F8C703F0F7C7E9FFF8C7B9
:10594000EAFFEF50F95D03E0010E016E1FD0F52B69
:10595000D8B4F62BF72BD8B4F82B0001D5D7070114
:10596000F6C703F0F5C7E9FFF6C7EAFFEFCFF9F78F
:10597000F8C703F0F7C7E9FFF8C7EAFFEF50F95D92
:1059800003E0010E016E02D0000E016E0001120054
:105990000701F551F325F651F421FC6FFA6BF96B11
:1059A000FA51F65D2DE303E1F551F95D29E2F75176
:1059B000F925016EF851FA21036E01C0FBF7FC6F67
:1059C000F951F325FD6FFA51F421FE6F196AF2BE09
:1059D000198EF29E0801466B456B446FFDC743F874
:1059E000000100EC1AF019BEF28EFCC7EAFFFBC7FB
:1059F000E9FF01C0EFFF0701F92BD8B4FA2BD0D78C
:105A00000001B9EF2FF0200E0701F2A9300EF36F5D
:105A1000F1C700F0F1AF08D0001E002A00C0F1F776
:105A20002D0EF36FF28FF2810150196AF2BE198EBA
:105A3000F29EF1C738F8640E0801396F000185EC59
:105A40000BF019BEF28E00C0F1F7300E01240701F1
:105A5000F46F196AF2BE198EF29EF1C738F80A0E79
:105A60000801396F000185EC0BF019BEF28E300E83
:105A700000240701F66F300E0124F56FF3C700F024
:105A8000300EF45D04E0F283F2BFF28512D0F2B57D
:105A900010D0F3C7F4F7F2B304D0300EF55D04E094
:105AA000F281F2BFF28305D0D8A4F281D8B4F4C752
:105AB000F5F7F2B505D0F2B30FD0F2B119D024D07A
:105AC000196AF2BE198EF29EF3C752F80001E0EC9B
:105AD0000AF019BEF28E0701196AF2BE198EF29E03
