:1000000000000120BD100000E5100000E710000016
:10001000E9100000EB100000ED10000000000000EF
:10002000000000000000000000000000EF100000D1
:10003000F110000000000000F3100000F5100000B7
:10004000F7100000F7100000250C0000F71000006A
:10005000F7100000F7100000F7100000F710000084
:10006000F7100000F7100000F7100000F710000074
:10007000F7100000F7100000F7100000F710000064
:10008000F7100000F7100000F7100000F710000054
:10009000F7100000F7100000F7100000F710000044
:1000A000F7100000F7100000F7100000F710000034
:1000B000F7100000F7100000000000000000000032
:1000C000F7100000F7100000F7100000F710000014
:1000D000F7100000F7100000F7100000000000000B
:1000E0000000000000000000000000000000000010
:1000F0000000000000000000000000000000000000
:1001000000000000000000000000000000000000EF
:1001100000000000000000000000000000000000DF
:1001200000000000000000000000000000000000CF
:1001300000000000000000000000000000000000BF
:1001400000000000000000000000000000000000AF
:10015000000000000000000000000000000000009F
:10016000000000000000000000000000000000008F
:10017000000000000000000000000000000000007F
:10018000000000000000000000000000000000006F
:10019000000000000000000000000000000000005F
:1001A000000000000000000000000000000000004F
:1001B000000000000000000000000000000000003F
:1001C000000000000000000000000000000000002F
:1001D000000000000000000000000000000000001F
:1001E000000000000000000000000000000000000F
:1001F00000000000000000000000000000000000FF
:1002000010B5054C237833B9044B13B10448AFF350
:1002100000800123237010BD7C000020000000003E
:1002200010250000084B10B51BB108490848AFF372
:1002300000800848036803B910BD074B002BFBD0B2
:10024000BDE81040184700BF0000000080000020FB
:10025000102500007800002000000000154B002B46
:1002600008BF134B9D46A3F5803A00218B460F46ED
:100270001348144A121A01F041F90F4B002B00D019
:1002800098470E4B002B00D0984700200021040017
:100290000D000D48002802D00C48AFF3008001F09B
:1002A00007F92000290000F0FDFE01F0EDF800BF85
:1002B0000000080000000120000000000000000015
:1002C0007C000020F8020020000000000000000078
:1002D00000B585B000230390194601AA44F201003D
:1002E000ADF80430029300F003F805B05DF804FBAC
:1002F000084B1B68DB0700D5FFDEBFF34F8F0649B5
:10030000064BCA6802F4E0621343CB60BFF34F8F21
:1003100000BFFDE7F0ED00E000ED00E00400FA05AD
:1003200059B10AB909207047531E1A40FAD18260A8
:1003300001608380C260104670470E20704700BF86
:1003400010B48468C26803468088121B904203D2AE
:1003500004205DF8044B7047DA681C6802400020F6
:10036000A154DA680132DA605DF8044B704700BFCF
:1003700003468068DA68904201D10520704710B4C6
:100380009A6898881C6802400020A25C0A709A68EB
:1003900001329A605DF8044B704700BF30B50478B5
:1003A000012C83B01FD010D3022C0CD1C368274975
:1003B0002748019301228DF8004000F0EFFA254B09
:1003C00068461B68984703B030BD23492348FFF7B0
:1003D000CFFFF0B102A8032300F8083D1D4B1B68B6
:1003E000984703B030BD43681D4D19782846FFF784
:1003F000A7FFA0B9AA68EB689A421ED1A968EB686A
:10040000AA885B1A9A4212D2164B01221A7003B0C4
:1004100030BD012210490E4800F008FAD3E70D4B19
:1004200001908DF800401B6868469847E6E7012276
:100430000649074800F0B2FAC5E702AB054A03F8DF
:10044000080D126818469047D8E700BFA0000020AA
:10045000000000209C00002098000020A400002044
:10046000B8000020B40000202DE9F0432F4C89B0E3
:100470002260002952D00C4680468A882C480968A0
:100480009946FFF74DFF10B109B0BDE8F083A2898E
:10049000A1682848FFF744FF0028F5D1264D98F8B9
:1004A00010E0D8F80C70D8F808600FCD6C460FC477
:1004B00095E80F0098F8115002971EF1000E18BF32
:1004C0004FF0010E002D84E80F00D8F80050D8F846
:1004D00004401A4A1A488DF81C9014BF0E230023BA
:1004E0008DF815306946D8F814308DF814E006936D
:1004F00003968DE8300000F0ABF80028C4D1D8F89E
:100500000030104A01331070BED09DF81D304BB141
:1005100001220D490A4800F041FAB5E7072009B069
:10052000BDE8F083064800F057FBF1E79C0000208F
:10053000B8000020A4000020302400009D0300002B
:1005400000000020B4000020A000002070B50B4C7B
:1005500001460B482678FFF70BFF05460EB92846E3
:1005600070BD0023012207490748237000F016FAE6
:100570000028F4D0FFF7ACFE284670BDB400002080
:10058000B8000020A00000200000002010B50146A7
:100590000C48FFF7D5FE044608B1204610BD0A48B6
:1005A00000F0F0F90028F8D108490648FFF7E0FE0E
:1005B0000028F2D1012205490348BDE8104000F0AF
:1005C00035B900BFA40000200000002098000020E2
:1005D00070B5161E07DD0C468D1914F8010BFFF7D8
:1005E000D5FFA542F9D1304670BD00BF10B50C460D
:1005F0002046FFF7ABFF0528FAD0012010BD00BF51
:10060000002810B418DB00F1604303F56143490191
:10061000C9B283F80013C3B24009800000F1604002
:1006200000F5614003F01F0201239340C0F88031C0
:1006300003605DF8044B7047C3B2044A03F00F0433
:1006400049012244C9B21176E6E700BFFCEC00E0A4
:10065000F0B50479724E6401331987B0DD7E15B1AF
:10066000082007B0F0BD4D7F1D770D686B1C0BD0C7
:100670004FF0A0470123AB40C7F808350B6803F5DE
:10068000E073032547F823504B685F1C06D003F541
:10069000E0734FF0A045002745F82370037906EB7F
:1006A00043131B7F002B4DD003688D69C3F824557D
:1006B0004F7D0B7D05683B43C5F86C3503680F68BB
:1006C0004D68C3F80C75C3F814550B7D012B00F071
:1006D0009B80331905465A600B6951483351EAB182
:1006E0002B79097F2A6800EB4310037F002B65D12B
:1006F000C2F81C31D2F81C712A680097009FC2F81A
:100700004431D2F844212B6846480192019AC3F83B
:100710000403286840F30730FFF772FF2B792A683B
:1007200006EB43131B7F002B44D00823C2F800358F
:10073000344400200123E376E0752076A075A0768E
:1007400007B0F0BD05688F69C5F8247591F815E00C
:100750000D7D07684EEA0505C7F86C550568D1F8A8
:1007600000E04F68C5F81475C5F80CE50D7D012D46
:10077000AFD18D686F1C05D005F5E0754FF0A0472F
:1007800047F82530CB685D1C0DD001254FF0A04700
:1007900005FA03F3C7F80835CB6803F5E0730325C2
:1007A00047F82350CB6805688F68C5F80835C5F849
:1007B00010758EE70423C2F80035B9E70023C2F8AC
:1007C0001031D2F810712A680297029FC2F82031C6
:1007D000D2F820712A680397039FC2F82431D2F817
:1007E00024712A680497049FC2F84431D2F8442146
:1007F0002B6805920C48059AC3F80403286840F357
:100800000730FFF7FDFE89E78B685D1CBAD003F562
:10081000E0734FF0A045002745F82370B2E700BF12
:10082000C80000208000020010030200F0B5037928
:10083000534C5B01E51887B02D7F3DB101F0604559
:10084000B5F1005F02D0102007B0F0BD23444C4F3B
:100850009E7D16B1112007B0F0BD9A7599609E82F9
:1008600005796D017A19137F13BB0168C1F81C313A
:10087000D1F81C61016804960126049F8E6001680E
:10088000D2F808E0C1F81C31D1F81C310593059B62
:10089000968A938A5768B6B201331EF806609BB2F7
:1008A0009382C1F81C65002F2FD0002007B0F0BD47
:1008B00003689168C3F82061D3F820710368019739
:1008C000019FC3F85861D3F8586103680296967D7A
:1008D000029FC3F84415C3F8486503680121996075
:1008E0005368002BE1D1036801E0002945D1D3F81A
:1008F0002021D3F85811002AF7D0002914BF0F2067
:1009000000202C440023A3759EE7967D938A9BB21A
:100910009E4202F1140122D9016804E0938A9BB23D
:10092000B3F5807F03D0D1F81C31002BF6D0938A29
:100930009BB2B3F5807FE9D0C1F81C71D1F81C31AE
:100940000393039BB2F814C0938A1FFA8CFC013303
:100950001EF80CC09BB29382C1F81CC5D6E70B8869
:100960009BB2B3F5807F08D00268D2F81C31002B0F
:10097000FBD00123D3600020C3E70F20C1E700BFF5
:10098000C80000200279044B03EB4213987D00302D
:1009900018BF0120704700BFC8000020F0B40379E1
:1009A0008C4E5B01F41888B0257F4DB101F0604595
:1009B000B5F1005F59D01022104608B0F0BC704766
:1009C0006568002D42D13344824FDC7D002C2BD151
:1009D000DA75D9605C761C7605796D0173191F7F15
:1009E000002F50D19B7E8BB984B90368C3F8244192
:1009F000D3F8242103680392039AC3F80841D3F87B
:100A0000082103680492012204991A6071194B6845
:100A1000002B6FD003684FF40172C3F80423002247
:100A2000104608B0F0BC70471C7ED4B1002D00F019
:100A3000AA80037907EB43173B7F002B53D0036851
:100A40004FF40472C3F804231122B5E704684FF48D
:100A500001773344C4F80873DC7D5E4F002CB7D0B7
:100A6000E2E719611A760124B6E76568002DAAD07D
:100A700004684FF404773344C4F80873DC7D554FA1
:100A8000002CA5D0D0E703680025C3F81051D3F897
:100A9000107103680197019FC3F84451D3F8445182
:100AA00003680295029DC3F83415C3F8382594B93C
:100AB000036801221A6002795201B3185B68002BA7
:100AC00063D003684FF40472C3F804230022104675
:100AD00008B0F0BC70470268D2F8003243F020033F
:100AE000C2F80032E7E703684FF40172C3F8042349
:100AF000112261E70268C2F84431D2F8443105930B
:100B0000059B0368D3F82471D3F80841D3F8442136
:100B100044B9002A30D1002FF4D035440023EB75BE
:100B2000032249E7002FF8D142BBCC7DC3F808214E
:100B3000D4B1D3F808410694069CCF684C7ED3F814
:100B400018353B554B7ECC7D0133DBB24B764B7E6B
:100B50009C42D6D835440021AB7EE975002B34D0B9
:100B600003680121196027E7D3F808410794079C1F
:100B7000D3F818354B7EEDE7002FCED13544002356
:100B8000EB750F2218E7112216E7036801E0A0B900
:100B9000BCB9D3F81011D3F84401D3F8244100298B
:100BA000F5D01644002C4FF0000314BF03221A4660
:100BB0009842F37518BF0F22FEE616440F22F17516
:100BC000FAE616440322F075F6E60368012159603F
:100BD000F2E600BFC8000020114A037902EB43137C
:100BE000197FD9B99B7ECBB910B4016883B0C1F825
:100BF0002431D1F8244101680094009CC1F80831E7
:100C0000D1F80831016801930123019C0B6001793F
:100C100002EB4112937603B05DF8044B704700BFBE
:100C2000C800002070B59B4C237F8EB0002B75D17F
:100C3000994AD2F80413890548D4974BD3F8042372
:100C4000520704D5D3F80821002A40F0CA80924BFD
:100C5000D3F81C21C2B1A28AA07D8E4992B28242F1
:100C60004FF00002C3F81C2180F0A980D3F81C21AA
:100C70000692069A888A8A8A8D6880B20132285C38
:100C800092B28A82C3F81C05834BD3F84421DAB1AF
:100C90000022C3F84421D3F84411A27E04910499A0
:100CA000002A40F08980E27D7A4B6AB10022587EAA
:100CB000D968DA7501228DF830000B918DF8282063
:100CC0000AA893E8060090470EB070BDD2F8241130
:100CD0000029B2D0C2F82431D2F82411A37E0791A2
:100CE0004FF401710798C2F808130BB90123536040
:100CF000694A02238DF82830D2F88034C2F8803453
:100D0000E07DE2680D9300238DF83000E3752376D3
:100D100021680B9263680AA8984798E75E4BD3F85E
:100D20002421002A40F09380D3F8101161B1C3F858
:100D30001021D3F8101103910399D3F83C15E07DED
:100D4000C9B2884200F0AA80534BD3F84421B2B113
:100D50000022C3F84421D3F84411E07D01910199A8
:100D60004C4960B1D3F83C35C8688DF83030012368
:100D7000CA750B908DF828300AA80AC99847464BC7
:100D8000D3F82021002A9FD00022C3F82021D3F8D5
:100D90002011A07D009100993E49002894D0D3F8FD
:100DA0004C058B688DF830008A750B938DF82820E0
:100DB0000AC90AA8984787E701221A6073E7D3F89F
:100DC0001C310593059B00283FF45EAF8B688DF8BE
:100DD00030008A750B938DF828200AC90AA8984715
:100DE00052E7E17D2B4A002970D00021C3F8081199
:100DF000D3F8081108910899D068517ED3F81835B6
:100E00004354537ED17D0133DBB25376627E214B56
:100E10008A427FF41CAF1A7E002A6DD19B7E13B9E3
:100E20001D4B01225A601C4AE06863684FF401714F
:100E3000C2F80813627E8DF83020002501220B9045
:100E40002168E5758DF828200AA89847FFE600225A
:100E5000C3F82421D3F82411029102218DF828101F
:100E60000299D3F88014C3F880140D91D3F83C157F
:100E7000E368E27522768DF830100B932168636881
:100E80000AA89847044BD3F84421002A3FF477AFCF
:100E90005EE700BFC800002000200040217EF1B1C5
:100EA000D3F80062E17526F02001E568C3F800126E
:100EB00026698DF8300001238DF8283022762168CC
:100EC0000B95E66063680AA898473DE7C3F80811E8
:100ED000D3F808210992099AD3F8183596E7E26801
:100EE000E17501238DF830008DF828300B9294E8DD
:100EF0000A000AA8984727E7DE685D7E1869DA7558
:100F000001210022D8601A765A768DF828100B96A7
:100F10008DF8305093E806000AA8904797E600BF86
:100F20000378022B02D0012B00D070474068FFF7F6
:100F3000CFB900BF70B44FF0804200250121444872
:100F4000C2F800514FF47A7311600068414C1E469C
:100F500000BF00BF00BF00BF00BF00BF00BF00BF99
:100F6000A0422FD000BF00BF00BF00BF00BF00BF26
:100F700000BF00BF00BF00BF00BF00BF00BF00BF79
:100F800000BF00BF00BF00BF00BF00BF00BF00BF69
:100F900000BF00BF00BF00BF00BF00BF00BF00BF59
:100FA00000BF00BF00BF00BF00BF00BF00BF00BF49
:100FB00000BF00BF00BF00BF00BF00BF00BF00BF39
:100FC00000BF00BF013EC3D1C2F81815C2F80451DA
:100FD000916000BF00BF00BF00BF00BF00BF00BFE7
:100FE00000BFA0422FD000BF00BF00BF00BF00BFA6
:100FF00000BF00BF00BF00BF00BF00BF00BF00BFF9
:1010000000BF00BF00BF00BF00BF00BF00BF00BFE8
:1010100000BF00BF00BF00BF00BF00BF00BF00BFD8
:1010200000BF00BF00BF00BF00BF00BF00BF00BFC8
:1010300000BF00BF00BF00BF00BF00BF00BF00BFB8
:1010400000BF00BF00BF013BC3D170BC704700BFF1
:10105000080000200024F40030B50E4D0E4B8BB07C
:1010600004AC00930FCD0FC495E803000B4A84E84D
:1010700003004FF480750A4C01950723694604A8C4
:1010800003950294FFF7F0F908B1FFF721F90BB0CF
:1010900030BD00BF50240000E8000020210F0000F8
:1010A000E801002008B5FFF745FFFFF7D5FF02482C
:1010B00000F02CFAFEE700BF682400000649074A4A
:1010C000074B9B1A03DD043BC858D050FBDC00F0F3
:1010D00013F8FFF7C3F800001C25000000000020F3
:1010E0007C000020FEE7FEE7FEE7FEE7FEE7FEE706
:1010F000FEE7FEE7FEE7FEE7F0B4B24B1A78062AF9
:101100001BD0B14AD2F8883043F47003C2F888305B
:10111000BFF34F8FBFF36F8F4FF01023D3F8002230
:10112000002AC0F27981D3F80432002BC0F2748116
:10113000A64BA74A1A60F0BC704704331B68180717
:10114000DFD1A44B1B6803F0F002302A00F02981A4
:1011500003F0E003402B00F024819E4B1B6803F05A
:10116000F003302B00F00F819A4B1B6803F0F00264
:10117000302A00F0F88003F0E003402B00F0F38009
:10118000944B1B6803F0F003302B00F0DC80914B94
:101190001B6803F0F002302A00F0C18003F0E00386
:1011A000402B00F0BC808B4B1B6803F0F003302B0E
:1011B00000F0A780874B1B6803F0F003302B00F092
:1011C0008980844B1B6803F0F003502B30D0814B97
:1011D0001B6803F0F002302A19D003F0E003402B23
:1011E00015D07C4B1B6803F0F002302A03D003F0CB
:1011F000E003402B85D14FF08043D3F80024D20781
:101200007FF57FAF6FF00102C3F8002479E7724BDE
:10121000724A1B6803F04F0313606A4B1B78062B5E
:101220007FF46FAF6E4B1B6818077FF46AAFD8E787
:101230004FF080526B4BD2F80414C3F82015D2F84B
:101240000814C3F82415D2F80C14C3F82815D2F8E2
:101250001014C3F82C15D2F81414C3F83015D2F8B2
:101260001814C3F83415D2F81C14C3F84015D2F87A
:101270002014C3F84415D2F82414C3F84815D2F842
:101280002814C3F84C15D2F82C14C3F85015D2F812
:101290003014C3F85415D2F83414C3F86015D2F8DA
:1012A0003814C3F86415D2F83C14C3F86815D2F8A2
:1012B00040144448C3F86C15D2F844140278C3F8BB
:1012C0007015062A7FF41DAF454B1B681C077FF481
:1012D00018AF7CE7444E454C4549464B0527012550
:1012E00000203F223760256008601A60354B1B786C
:1012F000062B7FF406AF3A4B1B681D077FF401AF46
:101300005FE7304B3C4A1B780321062B11607FF4CA
:10131000F8AE334B1B681E077FF4F3AE4AE74FF07D
:1013200080430022C3F80C21C3F81021C3F83825EC
:10133000244B1B78062B7FF470AF294B1B681F07CB
:101340007FF4DFAE2FE72D491E4ACB68127823F0D9
:101350008073062ACB607FF4D4AE214B1B681B0739
:101360007FF4CFAE13E7264B164A1B681278254947
:10137000C3F34233062A0B60B8D1194B1B681A0716
:101380007FF4BFAEFCE60F4B1F4A1B781F4911606C
:10139000062B7FF4B6AE124B1B6819077FF4B1AE73
:1013A000E2E61B4B074A1B6812781A49C3F3042371
:1013B000062A0B60BCD10A4B1B6819073FF4CDAE5F
:1013C0009FE600BFE00F00F000ED00E00800002005
:1013D0000090D003E80F00F058020010E40E004027
:1013E000E40F00F000C00040105600408856004056
:1013F0001856004014560040A0050040F0ED00E0F3
:10140000440200103C05004074C007400DF0ADBA26
:101410002403001040350140184B0122C3F8042575
:10142000D3F80024002AFBD04FF0102315221349D3
:10143000C3F80022D1F80034002BFBD04FF010236A
:1014400015220E49C3F80422D1F800240B4B002AC0
:10145000FAD00022C3F80425D3F80024002AFBD0D8
:10146000BFF34F8F0649074BCA6802F4E06213438B
:10147000CB60BFF34F8F00BFFDE700BF00E001402E
:1014800000ED00E00400FA0508B5074B044613B16F
:101490000021AFF30080054B1868836A03B19847B9
:1014A000204600F0B7FF00BF0000000078240000D5
:1014B00070B50E4B0E4CE41AA41000251E46A54232
:1014C00004D056F8253098470135F8E700F0A4FF1E
:1014D000084C094BE41AA41000251E46A54204D06E
:1014E00056F8253098470135F8E770BD70000020A8
:1014F00070000020740000207000002002440346A9
:10150000934202D003F8011BFAE770470FB40A4B6D
:1015100013B51C6824B1A36913B9204600F04EF836
:1015200005AB049AA1680193204600F059F902B076
:10153000BDE8104004B070476C000020014900F085
:10154000A9B800BFD1200000002310B504460360F5
:101550004360836081814366C2810361436183612B
:10156000194608225C30FFF7C9FF054B6362054B43
:10157000A362054BE362054B2462236310BD00BFE9
:10158000711D0000931D0000CB1D0000EF1D000029
:1015900070B568234D1E5D430E4605F1740100F0E1
:1015A00097F8044640B1002180E842000C30A0606A
:1015B00005F16802FFF7A2FF204670BD836910B5F0
:1015C000044633BB8364C3640365124B124A1B6831
:1015D0008262984204BF0123836100F01FF86060BB
:1015E000204600F01BF8A060204600F017F800220B
:1015F000E06004216068FFF7A7FF01220921A068CD
:10160000FFF7A2FF02221221E068FFF79DFF0123EE
:10161000A36110BD782400003D150000F8B51C4BF7
:101620001E68B369074613B93046FFF7C7FF48364F
:10163000B4687368013B04D4B4F90C507DB16834CC
:10164000F8E733680BB13668F2E704213846FFF754
:101650009FFF30600028F6D10C233B60F8BD4FF6A9
:10166000FF73E3810123A38165662560A560656042
:1016700025616561A5610822294604F15C00FFF738
:101680003DFF6563A563A564E5642046F8BD00BF22
:10169000782400002DE9F8438046894600F148048B
:1016A000002694B1A5686768013F0CD4AB89012B73
:1016B00007D9B5F90E30013303D029464046C84753
:1016C00006436835F0E72468EBE73046BDE8F88369
:1016D00070B5CD1C25F0030508350C2D38BF0C2541
:1016E000002D064601DBA94202D90C23336046E0F7
:1016F00000F0DEFD234B1C681A462146A1B10B68A1
:101700005B1B0ED40B2B03D90B60CC18CD501EE005
:101710008C420DBF63684B686360136018BF0C4652
:1017200015E00C464968E9E7174C23681BB93046B9
:1017300000F00EFB20602946304600F009FB431CF8
:1017400018D0C41C24F00304A0420DD125603046FB
:1017500000F0AFFD04F10B00231D20F00700C31AB9
:101760000ED05A42E25070BD211A304600F0F0FA15
:101770000130EBD10C233360304600F09AFD00209D
:1017800070BD00BFEC020020E80200209368013B1E
:10179000002B10B4936009DA9469A34202DBCBB248
:1017A0000A2B03D15DF8044B00F026BB1368581CCC
:1017B00010601970C8B25DF8044B7047F8B5064662
:1017C0000F461446D518AC4208D03A4614F8011B0F
:1017D0003046FFF7DBFF431CF5D100E00020F8BDE9
:1017E0002DE9F04F9DB00C4617460393064618B1FD
:1017F00083690BB9FFF7E2FE7F4B9C4201D174680D
:1018000008E07E4B9C4201D1B46803E07C4B9C42D3
:1018100008BFF468A38918070CD5236953B10023C6
:10182000099320238DF8293030238DF82A30DFF8F2
:10183000D4B144E02146304600F044FB0028EED00D
:101840004FF0FF30D5E0039A111D12680391002A72
:1018500080F28C80524243F002000792049098F884
:1018600000302E2B00F08480032298F80010654889
:1018700000F0CEFC48B14023CBEB000003FA00F0AF
:10188000049B1843049008F1010898F800105E4882
:101890008DF82810062208F1010700F0B9FC002895
:1018A00000F09580594B002B40F08880039B073354
:1018B00023F0070308330393099B53440993B84665
:1018C000454615F8013B1BB9B8EB07090FD003E0FB
:1018D000252BF9D0A846F3E74B463A462146304639
:1018E000FFF76CFF01307FD0099B4B44099398F8B8
:1018F0000030002B78D000234FF0FF320493079381
:10190000059206938DF853301A9301270522297802
:101910003F4800F07DFC05F10108049B38B13C4ACA
:10192000801A07FA00F0184304904546EEE7D906FE
:1019300044BF20228DF853201A0744BF2B228DF874
:1019400053202A782A2A3FF47EAF079A00210A20E2
:10195000A846013598F80030303B092B03D800FB2E
:1019600002320121F4E700293FF479AF079276E7CC
:1019700098F801302A2B0BD1039B1A1D1B68039288
:10198000002BB8BF4FF0FF3308F1020805936BE757
:101990000023059308F1010019460A25804601300D
:1019A00098F80020303A092A03D805FB01210123C9
:1019B000F4E7002B3FF458AF059155E703AB0093D4
:1019C0002246144B04A93046AFF3008007E003AB76
:1019D000009322460F4B04A9304600F093F8B0F173
:1019E000FF3F82467FF468AFA3895B063FF528AFCF
:1019F00009981DB0BDE8F08F7C2400009C240000F5
:101A0000BC240000E2240000E624000000000000E6
:101A1000DC240000BD1700002DE9F04791461F4669
:101A20000A698B68DDF820809342B8BF1346C9F875
:101A3000003091F8432006460C4612B10133C9F834
:101A400000302368990642BFD9F800300233C9F844
:101A50000030256815F0060510D104F1190A07E0D9
:101A60000123524639463046C04701301AD001356D
:101A7000E368D9F800209B1A9D42F1DB94F84330CB
:101A80002268003318BF012392060FD5E1185A1CB3
:101A9000302081F84300224494F8451082F8431026
:101AA000023303E04FF0FF30BDE8F08704F143025A
:101AB00039463046C0470130F4D02268D9F800508A
:101AC000E36802F00602042A08BF5D1B2269A368CE
:101AD0000CBF25EAE57500259342C4BF9B1AED189B
:101AE0004FF000091A344D4509D0012322463946EA
:101AF0003046C0470130D5D009F10109F3E7002095
:101B0000BDE8F0872DE9F04317460A7E85B06E2ABE
:101B1000984606460C460C9B01F1430E00F0AE8041
:101B200011D8632A22D009D8002A00F0BB80582A95
:101B300040F0CA8081F84520834955E0642A1ED0D0
:101B4000692A1CD0C0E0732A00F0B08009D86F2A3F
:101B50002ED0702A40F0B8800A6842F020020A6055
:101B60003EE0752A24D0782A3AD0ADE01A6801F117
:101B70004205111D1960136884F84230A8E02168FD
:101B80001A6811F0800F02D0111D196008E011F0E1
:101B9000400F02F10401196002D0B2F9003000E0F8
:101BA0001368002B3CDA2D225B4284F8432037E097
:101BB00021681A6811F0800F02D0111D196007E02A
:101BC00011F0400F02F10401196001D0138800E008
:101BD0001368227E5C496F2A14BF0A2208221BE088
:101BE00078225A4984F845202268186812F0800F3C
:101BF00000F104051D6003D1550601D5038800E0FE
:101C00000368D00744BF42F0200222601BB922685B
:101C100022F0200222601022002084F8430001E01C
:101C200049490A226568A560002D08DB206820F07C
:101C3000040020602BB9002D7DD175460CE0002BEF
:101C400079D07546B3FBF2F002FB1033CB5C05F89C
:101C5000013D03460028F5D1082A0BD12368DA0795
:101C600008D5236962689A42DEBF302305F8013C3B
:101C700005F1FF35C5EB0E0323612EE008681A68F5
:101C8000496910F0800F03D0101D1860136808E038
:101C900010F0400F02F104001860136801D01980A1
:101CA00000E0196000232361754616E01A68111DD3
:101CB0001960156862680021284600F0A9FA08B189
:101CC000401B6060636804E004F1420584F8422030
:101CD00001232361002384F84330CDF800803B4684
:101CE00003AA21463046FFF797FE013002D14FF09C
:101CF000FF3026E023692A4639463046C047013086
:101D0000F5D023689B0710D5002504F1190907E0D9
:101D100001234A4639463046C0470130E7D00135F5
:101D2000E368039A9B1A9D42F2DBE068039B9842AA
:101D3000B8BF184605E00B7884F8423004F142053C
:101D40008AE705B0BDE8F083ED240000FE24000022
:101D500038B5064C002305460846236000F04CFBCE
:101D6000431C02D1236803B12B6038BDF40200206C
:101D700010B50C46B1F90E1000F0EAFA0028ABBF1E
:101D8000636DA3891B1823F48053ACBF6365A381E3
:101D900010BD2DE9F0411F468B89DB0505460C4639
:101DA000164605D502230022B1F90E1000F0BAF94B
:101DB000A389B4F90E1023F48053A38132463B4625
:101DC0002846BDE8F04100F06BB810B50C46B1F9FB
:101DD0000E1000F0A7F9431CA38915BF606523F41A
:101DE000805343F48053A38118BFA38110BDB1F980
:101DF0000E1000F0D5B80000F8B50F4614460546A1
:101E000018B183690BB9FFF7D9FB224B9C4201D172
:101E10006C6808E0204B9C4201D1AC6803E01F4B8A
:101E20009C4208BFEC68A369A360A3891A0709D57F
:101E300023693BB123682069181A63699842FEB28E
:101E40000FDB08E02146284600F03CF80028F1D0DE
:101E50004FF0FF361BE02146284600F039F90028F4
:101E6000F6D1A368013BA36023685A1C22601F704F
:101E700063690130984204D0A389DB0707D50A2E95
:101E800005D12146284600F023F90028E0D130464C
:101E9000F8BD00BF7C2400009C240000BC2400008E
:101EA00038B5074C054608461146002222601A46FE
:101EB000FEF78EFB431C02D1236803B12B6038BDB3
:101EC000F4020020324B70B51D6806460C4625B161
:101ED000AB6913B92846FFF771FB2E4B9C4201D129
:101EE0006C6808E02C4B9C4201D1AC6803E02B4BA2
:101EF0009C4208BFEC68B4F90C309AB215071DD4A7
:101F0000D00602D4092232603AE0510712D5616B43
:101F100041B104F14403994202D0304600F0CAF9BD
:101F200000236363A38923F02403A3810023636058
:101F300023692360A38943F00803A38123694BB974
:101F4000A38903F42073B3F5007F03D02146304604
:101F500000F01EF9A28912F0010305D00023A3604E
:101F600063695B42A36103E0920758BF6369A360A2
:101F700023695BB9B4F90C3003F0800080B230B152
:101F800043F04003A3814FF0FF3070BD002070BDCF
:101F90006C0000207C2400009C240000BC24000075
:101FA00038B5064C002305460846236000F004FAC5
:101FB000431C02D1236803B12B6038BDF40200201A
:101FC0008A892DE9F041054610070C4659D44B6823
:101FD000002B02DC0B6C002B17DDE66AAEB102F4BD
:101FE0008052002392B22F682B600AB1606D15E019
:101FF000216A01232846B047411C0FD12B686BB1E1
:102000001D2B01D0162B03D12F600020BDE8F081DD
:10201000A38943F04003A381BDE8F081A3895A0757
:1020200005D56368C01A636B0BB1236CC01A00231B
:102030000246E66A216A2846B047431CA38906D1B6
:1020400029681D293AD8214ACA40D60736D5002228
:102050006260D9042269226004D5421C01D12B6838
:1020600003B96065616B2F600029CED004F1440391
:10207000994202D0284600F01DF900206063BDE8B7
:10208000F0810F69002FC0D093070E6808BF4B691D
:102090000F6018BF0023C7EB06088B6002E00744FF
:1020A000C0EB0808B8F1000FAFDD43463A46216A9D
:1020B000A66A2846B0470028F1DCA38943F0400314
:1020C000A3814FF0FF30BDE8F08100BF0100402048
:1020D00038B50B6905460C46DBB118B183690BB9FD
:1020E000FFF76CFA0C4B9C4201D16C6808E00B4B7B
:1020F0009C4201D1AC6803E0094B9C4208BFEC68EC
:10210000B4F90C302BB121462846BDE83840FFF722
:1021100057BF002038BD00BF7C2400009C24000075
:10212000BC24000038B5074C05460846114600227D
:1021300022601A4600F058F9431C02D1236803B10B
:102140002B6038BDF402002070B50E46B1F90E10B8
:10215000002990B014461D4606DA00232B60B3898F
:102160001A060ED540230EE001AA00F003F900285C
:10217000F3DB029A02F47042A2F500535A425A412C
:102180002A604FF480630020236010B070BD00000F
:102190008B8973B59E0705460C4610D401AB6A4681
:1021A000FFF7D2FF009906462846FFF791FA68B973
:1021B000B4F90C309A0522D443F00203A38104F150
:1021C0004703236023610123636118E00D4BAB6279
:1021D000A389206043F08003A381009B6361019B7E
:1021E00020614BB1B4F90E10284600F0D5F818B1B3
:1021F000A38943F00103A381A0893043A08102B0E9
:1022000070BD00BF3D150000000000000000000090
:1022100001F0FF01102A2BDB10F0070F08D010F897
:10222000013B013A8B422DD010F0070F42B3F6D19B
:10223000F0B441EA012141EA014122F007047FF0B4
:1022400000070023F0E80256083C85EA010586EA0B
:10225000010685FA47F5A3FA87F586FA47F6A5FA47
:1022600087F68EB9EED1F0BC01F0FF0102F0070253
:1022700032B110F8013B013A83EA010313B1F8D1FE
:102280000020704701387047002D06BF35460338DF
:10229000073815F0010F07D1013015F4807F02BF18
:1022A000013015F4C03F0130F0BC0138704700BF69
:1022B0007047704738B50546002946D051F8043CB0
:1022C0000C1F002BB8BFE418FFF7F2FF1F4A13687A
:1022D000114613B96360146032E0A3420ED922683C
:1022E000A018834204BF18685B68636004BF1218BB
:1022F00022600C6024E0A24203D813465A68002AE8
:10230000F9D118681918A1420BD121680144581855
:102310008242196014D1106852685A6001441960F1
:102320000EE002D90C232B600AE02168601882427B
:1023300004BF10685268626004BF091821605C60C5
:102340002846BDE83840FFF7B4BF38BDEC02002096
:1023500038B5074C054608461146002222601A4649
:10236000FEF744F9431C02D1236803B12B6038BD4A
:10237000F402002038B5074C0023054608461146F4
:10238000236000F021F8431C02D1236803B12B60C5
:1023900038BD00BFF402002038B5064C00230546C6
:1023A0000846236000F018F8431C02D1236803B1EB
:1023B0002B6038BDF4020020024B58221A604FF007
:1023C000FF307047F4020020024B58221A604FF091
:1023D000FF307047F4020020024B58221A600020A0
:1023E000704700BFF4020020024B58221A604FF0E1
:1023F000FF307047F4020020044A05491368002B9F
:1024000008BF0B461844106018467047F0020020C1
:10241000F8020020FEE700BFF8B500BFF8BC08BC1A
:102420009E467047F8B500BFF8BC08BC9E46704792
:10243000FFFFFFFFFFFFFFFFFFFFFFFFFFFFFFFFAC
:1024400000000000000000000000D60107010000AD
:102450000800000006000000050000000700000062
:10246000000000000000D6010D0A205246205374DF
:102470006172743A200D0A000C0000200000000078
:10248000000000000000000000000000000000004C
:10249000000000000000000000000000000000003C
:1024A000000000000000000000000000000000002C
:1024B000000000000000000000000000000000001C
:1024C000000000000000000000000000000000000C
:1024D000000000000000000000000000232D302B51
:1024E0002000686C4C006566674546470030313215
:1024F000333435363738394142434445460030316C
:1025000032333435363738396162636465660000CA
:0425100000000000C7
:0825140048DDFF7F010000001B
:10251C0000200040000000000090D00300000000EC
:10252C007C2400009C240000BC240000000000005F
:10253C00000000000000000000000000000000008F
:10254C00000000000000000000000000000000007F
:10255C00000000000000000000000000000000006F
:10256C00000000000000000000000000000000005F
:10257C000000000000000000000000000C00002023
:0C258C0025020000010200000000000019
:04000003000010BD2C
:00000001FF
