:040000007EEF00F09F
:08000800046ED8CF05F0E0CF33
:1000100006F00001E9CF0CF0EACF07F0E1CF08F0DD
:10002000E2CF09F0D9CF0AF0DACF0BF0F3CF12F01C
:10003000F4CF13F0FACF14F0F5CF15F0F6CF16F099
:10004000F7CF17F000C00EF001C00FF002C010F0A3
:1000500003C011F0F2AA30EF00F0F2B462EF00F04A
:100060009DA036EF00F09EB05DEF00F00EC000F0F6
:100070000FC001F010C002F011C003F00CC0E9FF86
:1000800007C0EAFF078E08C0E1FF09C0E2FF0AC00F
:10009000D9FF0BC0DAFF12C0F3FF13C0F4FF14C086
:1000A000FAFF15C0F5FF16C0F6FF17C0F7FF0450A2
:1000B00006C0E0FF05C0D8FF1000939A8A7A9E9090
:1000C00036EF00F0939A8A7AD76AFD0ED66EF294D4
:1000D00036EF00F0EA6A200EE96EEF500DE00A0EEE
:1000E000016E006A002EFED7012EFBD75F0E006E58
:1000F000002EFED7EF2EF3D7A9EF00F0F86AD09EBE
:10010000078E7E86400EB06E030E7F6EA60EAD6E1D
:10011000900EAC6EFF0E0F01486FC29CC29E4951FB
:10012000E00B1F09496FD26AD16A196A1A6A0B0E6D
:100130000E01EA6F700ED36E400E9B6ED350F29C90
:10014000F29EF2BEFDD7040E1F6EFA0E206E000165
:10015000C1D71F2E01D002D00E01F7D7E80ED56E01
:10016000F28AC00EF212D76AFD0ED66EFFD70300D8
:08FFF800A0F4DAF7FFF9FFF1B4
:00000001FF
;PIC18F26J11
;CRC=B2E0  CREATED="24-Sep-21 17:59"
