:1000000066EF02F00D0A656570726F6D20726561B2
:10001000643A202578000D0A656570726F6D207254
:100020006561643A256C7520257800000D0A5265DB
:100030006164206F722057726974653A20000A0D5E
:100040004C6F636174696F6E3A2000000D0A56614F
:100050006C75653A2025580D0A000D0A4E6577200B
:1000600076616C75653A200094948B84929A899A93
:10007000959C8C9C94808AEF02F03850080804E02C
:10008000396E3736392EFDD7928A9490959C8C9C88
:1000900038C039F037AE8B9037BE8B8037368C8CBA
:1000A000020E3A6E3A2EFED7013680AA019080BA2F
:1000B00001808C9C00D0392EEDD7120094948B9443
:1000C000030E376E080E386ED8DF26C033F027C017
:1000D00034F0356A366A26C037F0080E386ECDDF48
:1000E00025C033F026C034F027C035F0366A25C06D
:1000F00037F0080E386EC1DF27C036F026C035F065
:1001000025C034F024C033F024C037F0080E386E18
:10011000B4DF316A306A2F6A2E6A31502D5C22E3D7
:100120000BE130502C5C1EE307E12F502B5C1AE3EF
:1001300003E12A502E5C16E228502E24E96E295045
:100140002F20EA6E376A080E386E97DF015001C023
:10015000EFFF010E2E26D8B02F2AD8B4302AD8B4FB
:10016000312ADBD794948B8497EF02F0EA6A270E4A
:10017000E96EEF500DE0020E016E006A002EFED710
:10018000012EFBD7970E006E002EFED7EF2EF3D771
:10019000120094948B940A0E276EE8DF9F0E376E40
:1001A000080E386E6ADF24C0E9FF25C0EAFF376A0F
:1001B000080E386E62DF015001C0EFFF010E2424EB
:1001C000E96E000E2520EA6E376A080E386E55DF9C
:1001D000015001C0EFFF020E2424E96E000E25201D
:1001E000EA6E376A080E386E48DF015001C0EFFF33
:1001F000030E2424E96E000E2520EA6E376A080EED
:10020000386E3BDF015001C0EFFF266A030E242445
:10021000E96E000E2520EA6EEF50265C15E2036AB7
:100220002650040F016E000E032201502424E96EB3
:1002300025500320EA6E376A080E386E1EDF015023
:1002400001C0EFFF262AE2D70A0E276E8FDF9494B3
:100250008B8412000900F6CF2AF0F7CF2BF0F5506F
:100260009EA8FED7AD6E2AC0F6FF2BC0F7FF292E41
:10027000F1D712002ABE10D00F0E006E29380016DA
:100280000A0E005C03E2300E002602D02A5000263F
:1002900000509EA8FED7AD6E0F0E29160A0E295CDF
:1002A00002E2300E02D02A9E2A50292629509EA80A
:1002B000FED7AD6E1200D8B203D0EA6A3D0EE96EE9
:1002C000006A016A026A036A3D6A3E6A3F6A406ADE
:1002D0003C503B103A1039102CE0200E416ED89063
:1002E00035363636373638363D363E363F3640368A
:1002F0003C50405C08E13B503F5C05E13A503E5CBD
:1003000002E139503D5C0FE339503D5E3A50D8A0D0
:100310003A3C3E5E3B50D8A03B3C3F5E3C50D8A0B0
:100320003C3C405ED8800036013602360336412E12
:10033000D6D73DC0EFFF3EC0ECFF3FC0ECFF40C052
:10034000ECFF1200E9502D6E3B0E346E9A0E336EA8
:10035000CA0E326E316A0A0E2F6ED882EA6A290EF0
:10036000E96E2CC038F02BC037F02AC036F029C017
:1003700035F034C03CF033C03BF032C03AF031C00D
:1003800039F099DF015000520FE12F50010A0CE0C3
:100390002D500BE00F0B2F5C01E00DE22DBE0BD0BA
:1003A0002DBC03D0200E02D02D6A300E0026005046
:1003B0009EA8FED7AD6ED89234C038F033C037F067
:1003C00032C036F031C035F03C6A3B6A3A6A0A0EF8
:1003D000396E71DF03C034F002C033F001C032F077
:1003E00000C031F02F2EB9D7F1EF02F00900F5521D
:1003F0000DE0F6CF24F0F7CF25F0F5509EA8FED7FC
:10040000AD6E24C0F6FF25C0F7FFF0D712009EA8FE
:10041000FED7AD6E12009EAAFED7AECF26F02650B4
:10042000F6DF2650390805E3300E265C016E0ED04B
:100430000DD02650600806E226507A0803E32650C5
:10044000DF0B01D02650BF0F0A0F016E1200E3DF51
:1004500001C025F0E0DF01C024F02450DD0804E1F4
:1004600025C001F006D005D02550100DF3502424EE
:10047000016E120094948B94050E376E080E386E40
:10048000FCDD376A080E386EF8DD015001C028F037
:1004900094948B8428C001F044EF03F094948B84EF
:1004A0000A0E376E080E386EE8DD24C037F0080EED
:1004B000386EE3DD25C037F0080E386EDEDD94942B
:1004C0008B940B0E276E52DE72EF03F0F86AD09E0B
:1004D000EA6AE96A700ED36ED350B8960C0EAF6E0E
:1004E000A20EAC6E900EAB6E928A9490959C8C9CF2
:1004F000C150C00B0F09C16E070EB46E0A6A096ABB
:10050000086A076A0E6A0D6A0C6A0B6A720ED36E6D
:10051000D350AAD5276A266A25682468296A0F0E4F
:10052000286E2D6A2C6A2B6A140E2A6EC7D50A6AA9
:10053000096A086A076A256A0F0E246E2ADE050E0C
:10054000376E080E386E99DD376A080E386E95DD05
:10055000015001C005F0020E246EFA0E276E06DE71
:10056000242EFBD7040EF66E000EF76E0F0E296ECA
:1005700071DE05C029F0570E2A6E7CDEE0D70AC076
:1005800003F009C002F008C001F007C000F0010E3E
:100590000726D8B0082AD8B4092AD8B40A2A03C032
:1005A00027F002C026F001C025F000C024F00F0E95
:1005B0000024E96E000E0120EA6EEFCF28F0160E3F
:1005C000F66E000EF76E0E0E296E44DE410EE96ED9
:1005D0000EC02CF00DC02BF00CC02AF00BC029F07F
:1005E000B1D6200E9EA8FED7AD6E28C029F0570EBA
:1005F0002A6E40DE0750140816E1085214E1095231
:1006000012E10A5210E10A6A096A086A076A256A51
:100610000F0E246EBEDD010E0B26D8B00C2AD8B406
:100620000D2AD8B40E2A640E276EA0DDA8D72C0E92
:10063000F66E000EF76EDADE9EAAFED7AECF06F09B
:100640000650600806E206507A0803E30650DF0B06
:1006500001D00650066E0650DADE0650520803E05E
:1006600006505708E4E13E0EF66E000EF76EBEDE51
:10067000EEDE01C023F0065052081CE1276A266A0C
:10068000256A23C024F0F6D601C024F04C0EF66E85
:10069000000EF76E090E296EDDDD24C029F0370E3D
:1006A0002A6EE8DD0D0E9EA8FED7AD6E0A0E9EA83E
:1006B000FED7AD6E0650570815E15A0EF66E000EC5
:1006C000F76E94DEC4DE01C005F00A0E9EA8FED7C8
:1006D000AD6E0D0E9EA8FED7AD6E23C024F005C0F2
:0806E00025F0DCD6A4D70300CD
:020000040030CA
:0E0000003FC81E1E0087A1000FC00FE00F407A
:00000001FF
;PIC18F4550
;CRC=14DF  CREATED="02-Aug-18 15:44"
