:020000040800F2
:10000000005000207D1E0008C51E0008C51E000807
:10001000C51E0008C51E0008C51E0008000000001F
:10002000000000000000000000000000C51E0008E5
:10003000C51E000800000000C51E00085905000884
:10004000C51E0008C51E0008C51E0008C51E000804
:10005000C51E0008C51E0008C51E0008C51E0008F4
:10006000C51E0008C51E0008C51E0008C51E0008E4
:10007000C51E0008C51E0008C51E0008C51E0008D4
:10008000C51E0008C51E0008C51E0008C51E0008C4
:10009000C51E0008C51E0008C51E0008C51E0008B4
:1000A000C51E0008C51E0008C51E0008C51E0008A4
:1000B000C51E0008C51E0008C51E0008C51E000894
:1000C000C51E0008C51E0008C51E0008C51E000884
:1000D000C51E0008C51E0008C51E0008C51E000874
:1000E000C51E0008C51E0008C51E0008000000004F
:1000F0000000000000000000000000000000000000
:0C01000000000000000000005FF808F1A3
:10010C0010B5054C237833B9044B13B10448AFF345
:10011C0000800123237010BD380400200000000073
:10012C003C270008084B10B51BB108490848AFF331
:10013C0000800848036803B910BD074B002BFBD0A7
:10014C00BDE81040184700BF000000003C04002030
:10015C003C270008380400200000000070B50F4E4A
:10016C000F4D761BB61018BF002405D0013455F87E
:10017C00043B9847A642F9D10A4E0B4D02F0D8FA2F
:10018C00761BB61018BF002406D0013455F8043B7A
:10019C009847A642F9D170BD70BD00BF4828000831
:1001AC0048280008582800084828000870B484071C
:1001BC0046D0541E002A41D0CDB2034602E0621E46
:1001CC00E4B3144603F8015B9A07F8D1032C2ED93B
:1001DC00CDB245EA05250F2C45EA054519D9264629
:1001EC0003F11002103E0F2E42F8105C42F80C5C2A
:1001FC0042F8085C42F8045C02F11002F2D8A4F157
:10020C00100222F00F0204F00F041032032C1344DE
:10021C000DD91E462246043A032A46F8045BFAD846
:10022C00221F22F003020432134404F003042CB105
:10023C00C9B21C4403F8011BA342FBD170BC70472C
:10024C0014460346C2E700BF024B13B1024800F04C
:10025C0005B8704700000000750200080023014635
:10026C001A46184600F014B838B5074D074C2C1B2D
:10027C00A41005D0013C55F8043D9847002CF9D149
:10028C00BDE8384002F05ABA5C280008582800082B
:10029C002DE9F047254C064625688846D5F8484197
:1002AC0092469946C4B360681F2817DC411C76B18E
:1002BC0004EB8003C3F888A0D4F888510122824053
:1002CC001543022EC4F88851C3F808911ED0831C24
:1002DC006160002044F82380BDE8F087144B03B321
:1002EC004FF4C870AFF300800446D0B1D5F8483154
:1002FC00002784E888003846C5F848410121C4F835
:10030C008871C4F88C71002EE1D0D1E7D4F88C310F
:10031C001A43C4F88C21DAE705F5A674C5F84841F0
:10032C00C1E74FF0FF30BDE8F08700BF00280008A0
:10033C000000000080B483B000AF78607B680022BE
:10034C001A707B6818460C37BD4680BC704700BFDE
:10035C0080B584B000AF03463960FB713B681B78F5
:10036C001A063B6801331B781B041A433B680233A3
:10037C001B781B0213433A68033212781343FB6059
:10038C00FA680449044800F069FD00BF1037BD4607
:10039C0080BD00BF54270008B404002080B584B091
:1003AC0000AF03463960FB713B681B781A063B684B
:1003BC0001331B781B041A433B6802331B781B0266
:1003CC0013433A68033212781343FB60FA6804490A
:1003DC00044800F043FD00BF1037BD4680BD00BF90
:1003EC0068270008B404002080B584B000AF034631
:1003FC003960FB713B681B781A063B6801331B782C
:10040C001B041A433B6802331B781B0213433A68E4
:10041C00033212781343FB60FA680449044800F075
:10042C001DFD00BF1037BD4680BD00BF7C270008F6
:10043C00B404002080B582B000AF03463960FB7174
:10044C000349044800F0CCFC00BF0837BD4680BD12
:10045C0090270008B404002080B582B000AF03469A
:10046C003960FB710349044800F0BAFC00BF08373F
:10047C00BD4680BDAC270008B404002080B582B016
:10048C0000AF78607B68B3F80631013B042B3AD897
:10049C0001A252F823F000BFDD040008CB040008D1
:1004AC00B904000801050008EF0400087B6893F804
:1004BC0000317A6811461846FFF74AFF24E07B6842
:1004CC0093F800317A6811461846FFF767FF1BE076
:1004DC007B6893F800317A6811461846FFF784FF61
:1004EC0012E07B6893F800317A6811461846FFF7E2
:1004FC00A1FF09E07B6893F800317A681146184631
:10050C00FFF7AAFF00E000BF00BF0837BD4680BD63
:10051C0080B582B000AF786039607B68012B07D161
:10052C003B684FF6FF72934202D10348FFF702FF7C
:10053C0000BF0837BD4680BD5404002080B500AF15
:10054C004FF6FF710120FFF7E3FF80BD80B500AFD0
:10055C0000F096FD00BF80BD80B487B000AFF8609E
:10056C00B9607A60354B9B687B617B6903F0806373
:10057C00002B09D17B6903F00063002B04D17B694C
:10058C0003F08053002B53D07B691B0E03F0030345
:10059C003B612A49BB685A053B6918331B010B4464
:1005AC001A60264A3B6918331B0113440433FA685A
:1005BC001A6022497B6807331B781A067B6806335E
:1005CC001B781B041A437B6805331B781B021343EF
:1005DC007A68043212781A433B691B010B4403F509
:1005EC00C6731A6015497B6803331B781A067B683F
:1005FC0002331B781B041A437B6801331B781B02E4
:10060C0013437A6812781A433B691B010B4403F5B8
:10061C00C4731A600949094A3B6918331B01134416
:10062C001B6843F001023B6918331B010B441A6031
:10063C0000BF18461C37BD4680BC704700640040A4
:10064C0080B485B000AF154A144B9B6943F001038D
:10065C009361124B9B6903F00103BB60BB680F4AAB
:10066C000E4BDB6943F08053D3610C4BDB6903F019
:10067C0080537B607B680A4B5B68FB60FB6823F0F4
:10068C00E063FB60FB6843F08073FB60044AFB682B
:10069C00536000BF1437BD4680BC70470010024049
:1006AC000000014080B400AF00BFBD4680BC704765
:1006BC0080B58AB000AF00237B610023BB610123AE
:1006CC00FB6100233B6000237B600023BB600023A5
:1006DC00FB6000233B6101233B620E237B623B46A4
:1006EC0019460D4800F0E8FC0B4800F0AFFD0B4B31
:1006FC004FF448721A60094B01225A60074B0022D2
:10070C00DA60064B00229A60044B08221A6100BF83
:10071C002837BD4680BD00BF68040020900400202F
:10072C0080B594B000AF07F12803282200211846A9
:10073C00FFF73CFD07F1140300221A605A609A601F
:10074C00DA601A613B1D00221A605A609A60DA6006
:10075C000223BB620123BB631023FB6302237B6474
:10076C000023BB644FF42013FB6407F128031846E5
:10077C0000F0AAFE0346002B14BF01230023DBB2BA
:10078C00002B01D0FFF78EFF0F237B610223BB618F
:10079C000023FB614FF480633B6200237B6207F113
:1007AC0014030121184601F00DF90346002B14BF68
:1007BC0001230023DBB2002B01D0FFF773FF0223D0
:1007CC007B604FF48043FB603B1D184601F066FADA
:1007DC000346002B14BF01230023DBB2002B01D0F6
:1007EC00FFF760FF00BF5037BD4680BD80B400AF3F
:1007FC00074A074B9B6943F010039361054A054B6D
:10080C005B6843F44013536000BFBD4680BC704727
:10081C000010024000100140B0B588B000AF214B71
:10082C003C1D1D460FCD0FC42B6823800023FB827B
:10083C000023FB610023BB6100F0DCFBFFF700FF32
:10084C00FFF76EFFFFF7D2FF174800F0ABFA17481F
:10085C0000F038F8164BDB69164A1360FFF728FFD7
:10086C00FB690133FB61FB69134A934203D8FB69B3
:10087C000133FB610EE03B1D1A4601210820FFF7F6
:10088C006BFE0C4B1B681A460C49074800F0E6FA45
:10089C000023FB610A4800F09DF8034800F06EF954
:1008AC00DEE700BFD8270008B4040020A80400200D
:1008BC0000640040640400209F860100C8270008E3
:1008CC00AC04002080B485B000AF78600023FB60DE
:1008DC003B4A3B4BDB6943F00073D361384A384BDE
:1008EC009B6943F004039361364A364B5B6823F0F3
:1008FC00C0035360334A334B5B6823F00C035360E3
:10090C00304A304B5B6823F0030353602D4A2D4B68
:10091C005B6843F0B40353602B4A2B4B5B6843F486
:10092C0080435360294A294B1B6823F00203136050
:10093C00264A264B1B6843F0010313600023FB601F
:10094C00224B5B6803F00103002B06D1FB6842F2DB
:10095C000F72934201D8012300E00023002B03D037
:10096C00FB680133FB60EBE7184A184B1B6823F05C
:10097C0080031360154A154B1B6823F0400313606A
:10098C00124A124B1B6823F0200313600F4A0F4BC3
:10099C001B6843F0100313600C4A0C4B1B6823F0CC
:1009AC0008031360094A094B1B6823F00403136006
:1009BC00064B074ADA6100BF1437BD4680BC70474E
:1009CC0000100240000C0140000001400064004097
:1009DC005000064080B582B000AF78600D4B1B68AC
:1009EC00591C0C4A1160802292019A429B415B4235
:1009FC00DBB2002B09D080239B01074A19001000A1
:100A0C0000F04AFD034B00221A60C046BD4602B0FE
:100A1C0080BDC046B00400200010014080B483B0FB
:100A2C0000AF78607B6818460C37BD4680BC7047B9
:100A3C0080B485B000AFF860B9601346FB80FB68EA
:100A4C00BA685A60FB68FA881A80FB68FA889A823E
:100A5C00FB685A68FB881A44FB689A60FB685A6802
:100A6C00FB68DA60FB685A68FB681A6100BF1437D0
:100A7C00BD4680BC704700BF80B483B000AF7860C7
:100A8C000B46FB707B689B8A002B18D07B68DB685D
:100A9C00FA781A707B68DB685A1C7B68DA607B68B2
:100AAC00DA687B689B689A4203D17B685A687B68DA
:100ABC00DA607B689B8A013B9AB27B689A8200BFA2
:100ACC000C37BD4680BC704780B485B000AF7860F1
:100ADC007B689A8A7B681B889A421AD27B681B694E
:100AEC001B78FB737B681B695A1C7B681A617B68DB
:100AFC001A697B689B689A4203D17B685A687B6849
:100B0C001A617B689B8A01339AB27B689A82FB7B61
:100B1C0000E0002318461437BD4680BC704700BF68
:100B2C0080B483B000AF78607B689B8A18460C3722
:100B3C00BD4680BC704700BF80B483B000AF786006
:100B4C007B689A8A7B681B889A4234BF01230023F6
:100B5C00DBB218460C37BD4680BC704780B582B0FE
:100B6C0000AF78607B6803F5C6731846FFF756FF35
:100B7C007B6818460837BD4680BD00BF80B584B081
:100B8C0000AF78607B6803F5C6731846FFF7D4FF97
:100B9C000346002B10D0786800F0FAF90346002BBE
:100BAC000AD07B6803F5C6731846FFF78DFF034622
:100BBC001946786800F00EFA786800F0D5F903460B
:100BCC00002B00F08F80786800F0F6F90346FB727A
:100BDC007B6893F80131072B7BD801A252F823F0E4
:100BEC000D0C00081D0C0008470C00085B0C0008DD
:100BFC00DF0C0008DF0C0008910C0008C90C000881
:100C0C00FB7AFE2B6BD17B68012283F8012166E015
:100C1C00FB7AFA2B04D97B68002283F8012161E06E
:100C2C007B68FA7A83F800217B68002283F8022122
:100C3C007B68022283F8012154E0FB7A9AB27B682C
:100C4C00A3F806217B68032283F801214AE07B6824
:100C5C00B3F806311B029AB2FB7A9BB213449AB2D8
:100C6C007B68A3F806217B6893F80031002B04D035
:100C7C007B68062283F8012134E07B68072283F825
:100C8C0001212FE07B6893F8023119467B68FA7AD0
:100C9C005A547B6893F802310133DAB27B6883F8DB
:100CAC0002217B6893F802217B6893F800319A4209
:100CBC0017D17B68072283F8012112E0FB7AFD2B08
:100CCC0002D17868FFF7DAFB7B68002283F80121F8
:100CDC0008E07B68002283F8012100BF02E000BF1E
:100CEC0000E000BF7B6893F88931002B0FD07B6844
:100CFC0003F5C6731846FFF713FF03461A467B68C5
:100D0C0093F8883105339A4201DD012300E000237A
:100D1C00002B42D07B6803F5C673FE211846FFF703
:100D2C00ABFE7B6803F5C6727B6893F88831194675
:100D3C001046FFF7A1FE7B6803F5C6730021184629
:100D4C00FFF79AFE7B6803F5C67301211846FFF77F
:100D5C0093FE0023FB607B6893F888311A46FB688E
:100D6C009A420FDD7B6803F5C6707A68FB68134402
:100D7C0003F584731B781946FFF77EFEFB6801337D
:100D8C00FB60E8E77B6803F5C673FD211846FFF7A7
:100D9C0073FE7B68002283F8892100BF1037BD46A3
:100DAC0080BD00BF80B582B000AF7860786800F07D
:100DBC009BF87B6803F5C6707B6803F5D2734FF420
:100DCC0000721946FFF734FE7B68002283F801217C
:100DDC007B68002283F8892100BF0837BD4680BD9F
:100DEC0080B483B000AF786039607B6893F8893148
:100DFC00002B2ED17B68002283F888217B6893F826
:100E0C0088311A463B6813441B78002B14D07B683E
:100E1C0093F8883119467B6893F888315A1CD0B204
:100E2C007A6882F888011A463B6813441A787B6802
:100E3C000B4483F80821E1E77B6893F88831013390
:100E4C00DAB27B6883F888217B68012283F88921D8
:100E5C0000E000BF0C37BD4680BC70470EB480B5B7
:100E6C0085B000AF78607B6893F88931002B16D180
:100E7C0007F12003FB607B6803F58473FA68F9695A
:100E8C00184601F033F80346DBB20133DAB27B6863
:100E9C0083F888217B68012283F8892100E000BF58
:100EAC001437BD46BDE8804003B0704780B582B0B2
:100EBC0000AF786039607B68012B07D13B684FF637
:100ECC00FF72934202D10348FFF748FE00BF083778
:100EDC00BD4680BDB404002080B500AF4FF6FF7155
:100EEC000120FFF7E3FF80BD80B483B000AF7860D2
:100EFC00194A194B9B6943F008039361164A164B28
:100F0C009B6943F480439361144A144B1B6843F070
:100F1C0030631360124A124B5B6843F00403536056
:100F2C00104A104BDB6843F00C03D3600D4B40F2BE
:100F3C00A1129A600B4B00221A610A4B00225A61D3
:100F4C00084A084BDB6843F40053D36000BF0C37EE
:100F5C00BD4680BC704700BF00100240000C014031
:100F6C00000001400038014080B483B000AF7860CD
:100F7C00064B1B6803F02003002B14BF0123002336
:100F8C00DBB218460C37BD4680BC704700380140B8
:100F9C0080B483B000AF7860064B1B6803F080030D
:100FAC00002B14BF01230023DBB218460C37BD46BF
:100FBC0080BC70470038014080B483B000AF7860CB
:100FCC00034B5B68DBB218460C37BD4680BC7047E0
:100FDC000038014080B483B000AF78600B46FB70E2
:100FEC00034AFB78536000BF0C37BD4680BC70478A
:100FFC000038014080B500AF084A084B1B6843F02D
:10100C0010031360032000F013FA002000F008F81E
:10101C00FFF716FB0023184680BD00BF00200240DE
:10102C0080B582B000AF7860124B1A68124B1B78F7
:10103C0019464FF47A73B3FBF1F3B2FBF3F3184692
:10104C0000F01EFA0346002B01D001230EE07B6852
:10105C000F2B0AD8002279684FF0FF3000F0F4F91A
:10106C00064A7B681360002300E00123184608370A
:10107C00BD4680BD34040020300400202C04002028
:10108C0080B400AF054B1B781A46054B1B68134404
:10109C00034A136000BFBD4680BC7047300400207B
:1010AC006408002080B400AF024B1B681846BD4694
:1010BC0080BC70476408002080B487B000AF7860B3
:1010CC0039607B681B687B617B6893F82030FB740C
:1010DC00FB7C012B03D0FB7C022B40F0AA807B69AC
:1010EC00D3F8003243F001027B69C3F800223B685D
:1010FC005B6903F01F03012202FA03F3FB607B69B7
:10110C00D3F81C22FB68DB431A407B69C3F81C2212
:10111C003B68DB69002B23D17B69D3F80C22FB687D
:10112C00DB431A407B69C3F80C223B685A693B6865
:10113C00DB6819043B685B689BB219437B694832D6
:10114C0043F832103B685B693A68926811043A685C
:10115C00126892B20A4379694833DB000B445A6037
:10116C003B68DB69012B22D17B69D3F80C22FB682D
:10117C001A437B69C3F80C223B685A693B681B68AD
:10118C0019043B685B689BB219437B69483243F88E
:10119C0032103B685B693A68926811043A68D2680D
:1011AC0092B20A4379694833DB000B445A603B68BE
:1011BC009B69002B09D17B69D3F80422FB68DB43C4
:1011CC001A407B69C3F8042207E07B69D3F8042238
:1011DC00FB681A437B69C3F804223B681B69002B2C
:1011EC0009D17B69D3F81422FB68DB431A407B6975
:1011FC00C3F8142207E07B69D3F81422FB681A4366
:10120C007B69C3F814223B681B6A012B07D17B69ED
:10121C00D3F81C22FB681A437B69C3F81C227B6938
:10122C00D3F8003223F001027B69C3F800220023BB
:10123C0006E07B685B6A43F480227B685A62012378
:10124C0018461C37BD4680BC704700BF80B584B0C3
:10125C0000AF78607B6893F82030DBB2012B2ED185
:10126C007B68022283F820207B681B687A681268EE
:10127C00126822F001021A60FFF714FFF86012E006
:10128C00FFF710FF0246FB68D31A0A2B0BD97B68B9
:10129C005B6A43F400327B685A627B68052283F8F0
:1012AC002020012312E07B681B685B6803F00103BC
:1012BC00002BE5D17B6800225A62002306E07B6894
:1012CC005B6A43F400227B685A620123184610378C
:1012DC00BD4680BD80B485B000AF78607B6803F0FC
:1012EC000703FB600C4BDB68BB60BA684FF6FF036F
:1012FC001340BB60FB681A02BB68134343F0BF6327
:10130C0043F40033BB60044ABB68D36000BF14379E
:10131C00BD4680BC704700BF00ED00E080B400AF5C
:10132C00044BDB6803F4E0631B0A1846BD4680BC23
:10133C00704700BF00ED00E080B483B000AF0346FF
:10134C003960FB7197F90730002B0ADB0D4997F9CF
:10135C0007303A68D2B21201D2B20B4483F80023A0
:10136C000AE00949FB7903F00F03043B3A68D2B257
:10137C001201D2B20B441A7600BF0C37BD4680BCAA
:10138C00704700BF00E100E000ED00E080B489B0E0
:10139C0000AFF860B9607A60FB6803F00703FB618B
:1013AC00FB69C3F10703042B28BF0423BB61FB6952
:1013BC000433062B02D9FB69033B00E000237B615D
:1013CC000122BB6902FA03F35A1EBB681A407B69FF
:1013DC009A4001217B6901FA03F3591E7B680B408B
:1013EC00134318462437BD4680BC704780B582B085
:1013FC0000AF78607B68013BB3F1807F01D30123A0
:10140C000FE00A4A7B68013B53600F214FF0FF301D
:10141C00FFF792FF054B00229A60044B07221A60DB
:10142C00002318460837BD4680BD00BF10E000E021
:10143C0080B582B000AF78607868FFF74BFF00BFD3
:10144C000837BD4680BD00BF80B586B000AF0346EF
:10145C00B9607A60FB7300237B61FFF75FFF7861F3
:10146C007A68B9687869FFF791FF024697F90F30EF
:10147C0011461846FFF760FF00BF1837BD4680BD08
:10148C0080B582B000AF78607868FFF7AFFF034695
:10149C0018460837BD4680BD80B483B000AF786075
:1014AC000B467B807B68DA687B881340002B03D06B
:1014BC007A887B685A6102E07A887B681A6100BF7F
:1014CC000C37BD4680BC704780B586B000AF7860E5
:1014DC007B68002B01D101236AE27B681B6803F057
:1014EC000103002B00F08680914B5B6803F00C032A
:1014FC00042B0BD08E4B5B6803F00C03082B11D123
:10150C008B4B5B6803F48033002B0BD0884B1B6830
:10151C0003F40033002B6CD07B685B68002B68D124
:10152C00012345E27B685B68B3F5803F06D1804AB6
:10153C007F4B1B6843F4803313602EE07B685B6841
:10154C00002B0CD17A4A7A4B1B6823F4803313603E
:10155C00774A774B1B6823F4802313601DE07B686C
:10156C005B68B3F5A02F0CD1714A714B1B6843F427
:10157C00802313606E4A6E4B1B6843F480331360F8
:10158C000BE06B4A6A4B1B6823F480331360684A88
:10159C00674B1B6823F4802313607B685B68002B0C
:1015AC0013D0FFF77FFD386108E0FFF77BFD0246A3
:1015BC003B69D31A642B01D90323F9E15C4B1B68FB
:1015CC0003F40033002BF0D014E0FFF76BFD38610F
:1015DC0008E0FFF767FD02463B69D31A642B01D97B
:1015EC000323E5E1524B1B6803F40033002BF0D1CD
:1015FC0000E000BF7B681B6803F00203002B63D084
:10160C004B4B5B6803F00C03002B0BD0484B5B6817
:10161C0003F00C03082B1CD1454B5B6803F480339F
:10162C00002B16D1424B1B6803F00203002B05D094
:10163C007B681B69012B01D00123B9E13C493C4B70
:10164C001B6823F0F8027B685B69DB0013430B60BB
:10165C003AE07B681B69002B20D0364B01221A60C4
:10166C00FFF720FD386108E0FFF71CFD02463B69DF
:10167C00D31A022B01D903239AE12D4B1B6803F0DB
:10168C000203002BF0D02A49294B1B6823F0F802E7
:10169C007B685B69DB0013430B6015E0254B002274
:1016AC001A60FFF7FFFC386108E0FFF7FBFC02460D
:1016BC003B69D31A022B01D9032379E11C4B1B681C
:1016CC0003F00203002BF0D17B681B6803F00803C6
:1016DC00002B39D07B689B69002B19D0164B01224B
:1016EC001A60FFF7DFFC386108E0FFF7DBFC02460D
:1016FC003B69D31A022B01D9032359E10C4B5B6ACA
:10170C0003F00203002BF0D0012000F0A9FA1BE03B
:10171C00094B00221A60FFF7C5FC38610EE0FFF799
:10172C00C1FC02463B69D31A022B07D903233FE1C4
:10173C000010024000004242800442429E4B5B6A11
:10174C0003F00203002BEAD17B681B6803F004034F
:10175C00002B00F0A6800023FB75974BDB6903F090
:10176C008053002B0DD1944A934BDB6943F080538B
:10177C00D361914BDB6903F08053BB60BB680123E1
:10178C00FB758E4B1B6803F48073002B18D18B4AAE
:10179C008A4B1B6843F480731360FFF783FC38613A
:1017AC0008E0FFF77FFC02463B69D31A642B01D992
:1017BC000323FDE0814B1B6803F48073002BF0D0F6
:1017CC007B68DB68012B06D17B4A7B4B1B6A43F0A1
:1017DC00010313622DE07B68DB68002B0CD1764A89
:1017EC00754B1B6A23F001031362734A724B1B6A1D
:1017FC0023F0040313621CE07B68DB68052B0CD11F
:10180C006D4A6D4B1B6A43F0040313626A4A6A4BC0
:10181C001B6A43F0010313620BE0674A664B1B6AB9
:10182C0023F001031362644A634B1B6A23F0040325
:10183C0013627B68DB68002B15D0FFF733FC386133
:10184C000AE0FFF72FFC02463B69D31A41F28832BB
:10185C00934201D90323ABE0574B1B6A03F00203FD
:10186C00002BEED014E0FFF71DFC38610AE0FFF707
:10187C0019FC02463B69D31A41F28832934201D9D2
:10188C00032395E04C4B1B6A03F00203002BEED1B3
:10189C00FB7D012B05D1484A474BDB6923F0805374
:1018AC00D3617B68DB69002B00F08180424B5B6865
:1018BC0003F00C03082B61D07B68DB69022B46D14B
:1018CC003F4B00221A60FFF7EDFB386108E0FFF791
:1018DC00E9FB02463B69D31A022B01D9032367E0CB
:1018EC00354B1B6803F00073002BF0D17B681B6A2F
:1018FC00B3F5803F08D130492F4B5B6823F400329D
:10190C007B689B6813434B602B482B4B5B6823F421
:10191C0074127B68196A7B685B6A0B4313434360E0
:10192C00274B01221A60FFF7BDFB386108E0FFF777
:10193C00B9FB02463B69D31A022B01D9032337E0CA
:10194C001D4B1B6803F00073002BF0D02FE01C4BD9
:10195C0000221A60FFF7A6FB386108E0FFF7A2FB34
:10196C0002463B69D31A022B01D9032320E0124B08
:10197C001B6803F00073002BF0D118E07B68DB6967
:10198C00012B01D1012313E00B4B5B68FB60FB685F
:10199C0003F480327B681B6A9A4206D1FB6803F41D
:1019AC0070127B685B6A9A4201D0012300E000232D
:1019BC0018461837BD4680BD00100240007000402C
:1019CC006000424280B584B000AF786039607B68BB
:1019DC00002B01D10123D0E06A4B1B6803F00702F6
:1019EC003B689A4210D26749664B1B6823F007028A
:1019FC003B6813430B60634B1B6803F007023B68A7
:101A0C009A4201D00123B8E07B681B6803F0020303
:101A1C00002B20D07B681B6803F00403002B05D03F
:101A2C00594A594B5B6843F4E06353607B681B680D
:101A3C0003F00803002B05D0534A534B5B6843F467
:101A4C00605353605049504B5B6823F0F0027B6845
:101A5C009B6813434B607B681B6803F00103002BEE
:101A6C0040D07B685B68012B07D1474B1B6803F4A4
:101A7C000033002B15D101237FE07B685B68022BC0
:101A8C0007D1414B1B6803F00073002B09D10123D4
:101A9C0073E03D4B1B6803F00203002B01D10123C3
:101AAC006BE03949384B5B6823F003027B685B6859
:101ABC0013434B60FFF7F6FAF8600AE0FFF7F2FA0F
:101ACC000246FB68D31A41F28832934201D90323B0
:101ADC0053E02D4B5B6803F00C027B685B689B004A
:101AEC009A42EBD1274B1B6803F007023B689A42E2
:101AFC0010D92449234B1B6823F007023B6813437E
:101B0C000B60204B1B6803F007023B689A4201D024
:101B1C00012332E07B681B6803F00403002B08D020
:101B2C001949194B5B6823F4E0627B68DB6813434B
:101B3C004B607B681B6803F00803002B09D012492B
:101B4C00114B5B6823F460527B681B69DB00134309
:101B5C004B6000F021F801460B4B5B6803F0F0037F
:101B6C001B090A4AD35C21FA03F3094A1360094B97
:101B7C001B681846FFF754FA002318461037BD4669
:101B8C0080BD00BF00200240001002400428000865
:101B9C00340400202C04002090B48AB000AF2B4BEE
:101BAC003C1D186859689A68DB680FC4284A3B4684
:101BBC0012881A800023FB610023BB6100237B6227
:101BCC0000237B6100233B62224B5B68FB61FB695A
:101BDC0003F00C03042B02D0082B03D02DE01E4B7A
:101BEC003B622DE0FB699B0C03F00F0307F128020D
:101BFC00134413F8243C7B61FB6903F48033002B02
:101C0C0013D0144B5B6803F400335B0C07F1280210
:101C1C00134413F8283CBB617B690F4A02FB03F2A7
:101C2C00BB69B2FBF3F37B6204E07B690B4A02FBFA
:101C3C0003F37B627B6A3B6202E0074B3B6200BFB3
:101C4C003B6A18462837BD4690BC7047EC27000805
:101C5C00FC2700080010024000127A0000093D0029
:101C6C0080B485B000AF78600A4B1B680A4AA2FBAF
:101C7C0003235B0A7A6802FB03F3FB6000BFFB687B
:101C8C005A1EFA60002BF9D100BF1437BD4680BC38
:101C9C00704700BF34040020D34D621080B586B06D
:101CAC0000AF786000233B610023FB607B681B68FE
:101CBC0003F00103002B7DD00023FB754F4BDB6938
:101CCC0003F08053002B0DD14C4A4C4BDB6943F095
:101CDC008053D361494BDB6903F08053BB60BB6815
:101CEC000123FB75464B1B6803F48073002B18D142
:101CFC00434A434B1B6843F480731360FFF7D2F9DC
:101D0C00386108E0FFF7CEF902463B69D31A642B21
:101D1C0001D903236DE03A4B1B6803F48073002B4D
:101D2C00F0D0364B1B6A03F44073FB60FB68002B4E
:101D3C002ED07B685B6803F44072FB689A4227D014
:101D4C002E4B1B6A23F44073FB602E4B01221A604E
:101D5C002C4B00221A60294AFB681362FB6803F0C3
:101D6C000103002B14D0FFF79DF938610AE0FFF74F
:101D7C0099F902463B69D31A41F28832934201D950
:101D8C00032336E01D4B1B6A03F00203002BEED03D
:101D9C001A491A4B1B6A23F440727B685B68134325
:101DAC000B62FB7D012B05D1144A144BDB6923F02C
:101DBC008053D3617B681B6803F00203002B08D0AF
:101DCC000E490E4B5B6823F440427B689B681343BF
:101DDC004B607B681B6803F01003002B08D007498D
:101DEC00064B5B6823F480027B68DB6813434B6013
:101DFC00002318461837BD4680BD00BF00100240B6
:101E0C00007000404004424280B400AF154A154BAC
:101E1C001B6843F0010313601249124B5A68124BB2
:101E2C0013404B600F4A0F4B1B6823F0847323F451
:101E3C00803313600B4A0B4B1B6823F48023136015
:101E4C00084A084B5B6823F4FE035360054B4FF4C0
:101E5C001F029A60054B4FF000629A6000BFBD46AE
:101E6C0080BC7047001002400000FFF800ED00E05D
:101E7C00002103E00B4B5B58435004310A480B4BD9
:101E8C0042189A42F6D30A4A02E0002342F8043B75
:101E9C00084B9A42F9D3FFF7B7FFFEF75FF9FEF74D
:101EAC00BBFC70475C2800080000002038040020B0
:101EBC00380400206C080020FEE710B59AB00091A1
:101ECC0004916FF00041029105914FF6FF714FF4B0
:101EDC000274ADF80E106946ADF80C4000F06AF8CB
:101EEC00009B00221A701AB010BD000013460A465F
:101EFC00014602480068FFF7E0BF00BF280400203D
:101F0C002DE9F0478E6882469E420C4691469846D3
:101F1C003ED88A8912F4906F3AD025680969022359
:101F2C006F1A656905EB450595FBF3F57B1C43447E
:101F3C009D4238BF1D4653050FD5294600F04AFB7C
:101F4C00064698B13A46216900F0D2FAA38923F4E7
:101F5C00906343F08003A38113E02A4600F098FBC2
:101F6C00064670B92169504600F0E8FA0C23CAF80D
:101F7C000030A3894FF0FF3043F04003A381BDE84C
:101F8C00F08726613E44266046466561ED1BA560E0
:101F9C00464528BF464649463246206800F0B3FA0B
:101FAC00A36800209B1BA36023681E442660BDE829
:101FBC00F08700002DE9F04F9DB003938B8980468C
:101FCC001C060D4616460DD50B695BB9402100F079
:101FDC0001FB2860286118B90C23C8F80030CDE04B
:101FEC0040236B610023099320238DF82930DFF8FF
:101FFC009CB130238DF82A3037463C4614F8013B0F
:10200C001BB9B7EB060910D003E0252BF9D02746F6
:10201C00F3E74B46324629464046FFF771FF013045
:10202C0000F0A780099B4B4409933B78002B00F0F0
:10203C00A08000234FF0FF32049307930592069380
:10204C008DF853301A930126052221784E4800F062
:10205C0041FA671C049B38B14B4A3C46801A06FA7D
:10206C0000F018430490EFE7D90644BF20228DF806
:10207C0053201A0744BF2B228DF8532022782A2A8A
:10208C0003D0079A00210A200BE0039A111D126855
:10209C000391002A10DA524243F002000792049096
:1020AC000BE027463B780134303B092B03D800FB6F
:1020BC0002320121F5E701B107923B782E2B1ED19C
:1020CC007B782A2B0AD1039B02371A1D1B680392BB
:1020DC00002BB8BF4FF0FF33059310E000231946D7
:1020EC000593781C0A2407463A780130303A092ABD
:1020FC0003D804FB01210123F5E703B10591032269
:10210C003978224800F0E6F940B14023CBEB0000CF
:10211C0003FA00F0049B0137184304903978062227
:10212C001B487E1C8DF8281000F0D4F988B1194B8F
:10213C0033B9039B073323F007030833039314E0ED
:10214C0003AB00932A46144B04A94046AFF300801E
:10215C0007E003AB00932A460F4B04A9404600F05E
:10216C0093F8B0F1FF3F824603D0099B5344099387
:10217C0042E7AB895B0601D4099801E04FF0FF30D0
:10218C001DB0BDE8F08F00BF142800081A28000805
:10219C001E280008000000000D1F00082DE9F04764
:1021AC0091461F460A698B6806469342B8BF134690
:1021BC00C9F8003091F843200C46DDF8208012B1AC
:1021CC000133C9F800302368990642BFD9F80030B2
:1021DC000233C9F80030256815F0060510D104F15A
:1021EC00190A07E00123524639463046C0470130F0
:1021FC001AD00135E368D9F800209B1A9D42F1DB17
:10220C0094F843302268003318BF012392060FD58F
:10221C00E118302081F843005A1C94F845102244F0
:10222C00023382F8431003E04FF0FF30BDE8F08733
:10223C0004F1430239463046C0470130F4D02268DD
:10224C00D9F80050E36802F00602042A08BF5D1BAF
:10225C002269A3680CBF25EAE57500259342C4BF2B
:10226C009B1AED184FF000091A344D4509D0012383
:10227C00224639463046C0470130D5D009F1010914
:10228C00F3E70020BDE8F0872DE9F04317460A7EFE
:10229C0085B06E2A984606460C460C9B01F1430EFF
:1022AC0000F0AE8011D8632A22D009D8002A00F0A1
:1022BC00BB80582A40F0CA8081F84520834955E0FC
:1022CC00642A1ED0692A1CD0C0E0732A00F0B080AA
:1022DC0009D86F2A2ED0702A40F0B8800A6842F0D4
:1022EC0020020A603EE0752A24D0782A3AD0ADE06C
:1022FC001A6801F14205111D1960136884F8423007
:10230C00A8E021681A6811F0800F02D0111D196025
:10231C0008E011F0400F02F10401196002D0B2F98B
:10232C00003000E01368002B3CDA2D225B4284F86D
:10233C00432037E021681A6811F0800F02D0111D7C
:10234C00196007E011F0400F02F10401196001D08F
:10235C00138800E01368227E5C496F2A14BF0A229E
:10236C0008221BE078225A4984F845202268186814
:10237C0012F0800F00F104051D6003D1550601D544
:10238C00038800E00368D00744BF42F020022260BB
:10239C001BB9226822F0200222601022002084F84F
:1023AC00430001E049490A226568002DA56008DB5D
:1023BC00206820F0040020602BB9002D7DD17546DB
:1023CC000CE0002B79D07546B3FBF2F002FB103316
:1023DC00CB5C05F8013D03460028F5D1082A0BD14A
:1023EC002368DA0708D5236962689A42DEBF302376
:1023FC0005F8013C05F1FF35C5EB0E0323612EE01A
:10240C0008681A6810F0800F496903D0101D186015
:10241C00136808E010F0400F02F104001860136814
:10242C0001D0198000E0196000232361754616E085
:10243C001A68111D1960156800216268284600F0A1
:10244C0049F808B1401B6060636804E004F1420580
:10245C0084F8422001232361002384F84330CDF813
:10246C0000803B4603AA21463046FFF797FE013019
:10247C0002D14FF0FF3026E023692A463946304618
:10248C00C0470130F5D023689B0710D5002504F117
:10249C00190907E001234A4639463046C047013046
:1024AC00E7D00135E368039A9B1A9D42F2DBE068A2
:1024BC00039B9842B8BF184605E00B7804F142051F
:1024CC0084F842308AE705B0BDE8F083252800087F
:1024DC003628000810B5C9B202449042034605D014
:1024EC001C7801308C42F8D1184610BD002010BD6C
:1024FC0010B5431E0A44914204D011F8014B03F865
:10250C00014FF8E710BD884210B501EB020301D86A
:10251C00421E0BE09842FBD28118D21AD34204D04F
:10252C0013F8014D01F8014DF8E710BD994204D0A4
:10253C0011F8014B02F8014FF8E710BD38B505460C
:10254C00002944D051F8043C0C1F002BB8BFE418F0
:10255C0000F0D4F81E4A1368114613B96360146076
:10256C0030E0A3420DD92268A018834201BF18683D
:10257C005B681218226063600C6023E0A24203D8EF
:10258C0013465A68002AF9D118681918A1420BD1C0
:10259C002168014458188242196013D1106852689E
:1025AC00014419605A600DE002D90C232B6009E03C
:1025BC0021686018824201BF1068526809182160B6
:1025CC0062605C602846BDE8384000F098B838BDC1
:1025DC005C08002070B5CD1C25F0030508350C2DCA
:1025EC0038BF0C25002D064601DBA94202D90C236D
:1025FC00336046E000F082F8234B1C681A462146F3
:10260C00A1B10B685B1B0ED40B2B03D90B60CC1840
:10261C00CD501EE08C420BBF63684B681360636047
:10262C0018BF0C4615E00C464968E9E7174C2368BF
:10263C001BB9304600F052F820602946304600F0B5
:10264C004DF8431C18D0C41C24F00304A0420DD137
:10265C002560304600F053F804F10B00231D20F0E8
:10266C000700C31A0ED05A42E25070BD211A3046F0
:10267C0000F034F80130EBD10C233360304600F01D
:10268C003EF8002070BD00BF5C08002058080020F8
:10269C00F8B5074615460E4621B91146BDE8F84077
:1026AC00FFF798BF1AB9FFF749FF2846F8BD00F0AD
:1026BC0027F885420ED929463846FFF78BFF04468A
:1026CC0050B131462A46FFF713FF31463846FFF723
:1026DC0035FF01E03046F8BD2046F8BD38B5064C54
:1026EC00002305460846236000F014F8431C02D171
:1026FC00236803B12B6038BD680800207047704711
:10270C0051F8040C0028BEBF091851F8043CC0183D
:10271C0004387047044A05491368002B08BF0B4660
:10272C00184410601846704760080020700800209C
:10273C00F8B500BFF8BC08BC9E467047F8B500BFA2
:08274C00F8BC08BC9E46704772
:102754004669656C64206669656C645F31203D2060
:10276400256400004669656C64206669656C645F75
:1027740032203D20256400004669656C642066694A
:10278400656C645F33203D202564000042757474D9
:102794006F6E2027427574746F6E20312720636C2E
:1027A40069636B6564000000427574746F6E202762
:1027B400427574746F6E20322720636C69636B6595
:1027C4006400000068656C6C6F3132332E2E256C0A
:1027D400780D0A0068656C6C6F2068656C6C6F20FE
:1027E40068656C6C6F0000000203040506070809A5
:1027F4000A0B0C0D0E0F1010010200000000002047
:10280400000000000000000001020304060708099C
:10281400232D302B2000686C4C00656667454647C5
:102824000030313233343536373839414243444548
:1028340046003031323334353637383961626364B7
:0428440065660000C5
:10284800550200083101000849050008E50E000896
:042858000D01000866
:10285C0000000000EC02002054030020BC03002008
:10286C00000000000000000000000000000000005C
:10287C00000000000000000000000000000000004C
:10288C00000000000000000000000000000000003C
:10289C00000000000000000000000000000000002C
:1028AC00000000000000000000000000000000001C
:1028BC00000000000000000000000000000000000C
:1028CC0000000000000000000000000000000000FC
:1028DC0000000000000000000000000000000000EC
:1028EC0000000000000000000000000000000000DC
:1028FC0000000000000000000100000000000000CB
:10290C000E33CDAB34126DE6ECDE05000B0000008F
:10291C0000000000000000000000000000000000AB
:10292C00000000000000000000000000000000009B
:10293C00000000000000000000000000000000008B
:10294C00000000000000000000000000000000007B
:102C7C000000000000000000000000201000000018
:082C8C00010000000024F40027
:0400000508001E7D54
:00000001FF
