:040000005AEF36F08D
:08000800046ED8CF05F0E0CF33
:1000100006F00001E9CF0CF0EACF07F0E1CF08F0DD
:10002000E2CF09F0D9CF0AF0DACF0BF0F3CF12F01C
:10003000F4CF13F0FACF14F0F5CF15F0F6CF16F099
:10004000F7CF17F000C00EF001C00FF002C010F0A3
:1000500003C011F0F2AA30EF00F0F2B4DAEF23F0AF
:10006000F0A636EF00F0F0B00FEF0FF00EC000F08A
:100070000FC001F010C002F011C003F00CC0E9FF86
:1000800007C0EAFF078E08C0E1FF09C0E2FF0AC00F
:10009000D9FF0BC0DAFF12C0F3FF13C0F4FF14C086
:1000A000FAFF15C0F5FF16C0F6FF17C0F7FF0450A2
:1000B00006C0E0FF05C0D8FF1000F76ACA0FF66E51
:1000C000000EF7220900F550120061646D696E00A0
:1000D000F76AE00FF66E000EF7220900F5501200E5
:1000E0003132334142343536434437383945462A74
:1000F00030234748F76A040FF66E010EF722090015
:10010000F5501200313233414243343536444546CE
:100110003738394748492A30234A4B4DF76A2C0F64
:10012000F66E010EF7220900F55012006400F76A1E
:100130003E0FF66E010EF7220900F5501200660020
:10014000F76A500FF66E010EF7220900F550120003
:1001500066206D656D00F76A660FF66E010EF72278
:100160000900F5501200525350570000F76A7C0FF7
:10017000F66E010EF7220900F5501200216B626441
:100180002100F76A920FF66E010EF7220900F55072
:1001900012007273666163740000F76AAA0FF66E4C
:1001A000010EF7220900F55012006500F76ABC0F36
:1001B000F66E010EF7220900F55012006E00F76A84
:1001C000CE0FF66E010EF7220900F5501200630003
:1001D000F76AE00FF66E010EF7220900F5501200E3
:1001E00073630000F76AF40FF66E010EF722090040
:1001F000F55012004D530000F76A080FF66E020E1C
:10020000F7220900F55012004B500000F76A1C0F4E
:10021000F66E020EF7220900F55012007472616E3C
:100220002074696D6500F76A360FF66E020EF722CC
:100230000900F55012006B6F666B6200F76A4C0F95
:10024000F66E020EF7220900F55012006800F76AF8
:100250005E0FF66E020EF7220900F5501200706173
:100260007373776F72640000F76A780FF66E020E90
:10027000F7220900F5501200646562756700636F2C
:100280006C30203D20256C750D0A0000636F6C31C9
:10029000203D20256C750D0A0000636F6C32203DF7
:1002A00020256C750D0A0000636F6C33203D2025FE
:1002B0006C750D0A0000636F6C34203D20256C7551
:1002C0000D0A0000636F6C30203D20256C750D0A0F
:1002D0000000636F6C31203D20256C750D0A000015
:1002E000636F6C32203D20256C750D0A0000636F32
:1002F0006C33203D20256C750D0A0000636F6C3453
:10030000203D20256C750D0A0000636F6C35203D83
:1003100020256C750D0A00006B657920646174619D
:100320005B25645D2025630D0A0020736176655F9F
:10033000707472636172645F6B65793D256C750AD8
:100340000D00446F6E652050494E00004B657900EA
:100350000D0A4249545F547261636B3120446174E9
:10036000613A0D0A00000D0A4249545F54726163FC
:100370006B3220446174613A0D0A00000D0A53612A
:1003800076696E67204361726420446174610D0A6E
:100390000000446F6E6500000A0D4B6579207265A0
:1003A0006C656173650A0D0057616974696E672039
:1003B000666F722050494E206E756D626572000046
:1003C0000D0A636F756E746269745F54313A256CFF
:1003D000750D0A000D0A636F756E746269745F545F
:1003E000323A256C750D0A000D0A72656164696EFA
:1003F00067206572726F722054310D0A00000D0A79
:1004000072656164696E67206572726F7220543222
:100410000D0A0000020E0701E45F0CE3070EEA6E0E
:10042000E40EE96EEF5006E003D000D000D00000EB
:10043000EF2EFBD7000117EF0FF094908B90080E72
:10044000016E00D00000018E10D0019E08011A3309
:100450000001D8B08B80D8A08B90018C06D0019C75
:10046000012EF4D700D000008B80010E006EE96AE7
:10047000E92EFED7002EFBD70E0EE96EE92EFED731
:10048000000001BEE2D701BCEAD712000900F55214
:100490000CE0F6CFEEF7F7CFEFF7F5CF1AF8CDDF98
:1004A000EEC7F6FFEFC7F7FFF1D712000801356B73
:1004B000366B2DB1368F2E39006E00360036C00EE9
:1004C0000016005036132F39006E0036E00E00166D
:1004D000005036133039006EF00E001600503613FF
:1004E0003135006E00360036F80E00160050361317
:1004F0003235006E0036FC0E001600503613D890D0
:100500003335361334513611356F35C801F00001DB
:10051000120008011D6B18536AE11B511925E96E81
:100520001C511A21EA6EEFCF1EF8010E19251F6F1C
:10053000000E1A21206F1B511F25E96E1C5120212E
:10054000EA6EEF501E1B020E1925216F000E1A21B4
:10055000226F1B512125E96E1C512221EA6EEF50BA
:100560001E1B030E1925236F000E1A21246F1B5129
:100570002325E96E1C512421EA6EEF501E1B040E48
:100580001925256F000E1A21266F1B512525E96EAE
:100590001C512621EA6EEF501E1B050E1925276FF0
:1005A000000E1A21286F1B512725E96E1C512821A6
:1005B000EA6EEF501E1902E0000E01D0010E1D6F11
:1005C000060E19251E6F000E1A211F6F1B511E25C6
:1005D000E96E1C511F21EA6EEF501D5D04E1010E12
:1005E000016E6DD003D0000E016E69D068D01B5132
:1005F0001925E96E1C511A21EA6EEFCF1EF8010E83
:10060000195D1F6F000E1A59206F1B511F25E96ECF
:100610001C512021EA6EEF501E1B020E195D216F46
:10062000000E1A59226F1B512125E96E1C512221FF
:10063000EA6EEF501E1B030E195D236F000E1A5950
:10064000246F1B512325E96E1C512421EA6EEF50C3
:100650001E1B040E195D256F000E1A59266F1B51C3
:100660002525E96E1C512621EA6EEF501E1B050E52
:10067000195D276F000E1A59286F1B512725E96E47
:100680001C512821EA6EEF501E1902E0000E01D025
:10069000010E1D6F060E195D1E6F000E1A591F6F99
:1006A0001B511E25E96E1C511F21EA6EEF501D5D86
:1006B00004E1010E016E03D002D0000E016E0001B4
:1006C000120008011D6B18534EE11B511925E96EEC
:1006D0001C511A21EA6EEFCF1EF8010E19251F6F6B
:1006E000000E1A21206F1B511F25E96E1C5120217D
:1006F000EA6EEF501E1B020E1925216F000E1A2103
:10070000226F1B512125E96E1C512221EA6EEF5008
:100710001E1B030E1925236F000E1A21246F1B5177
:100720002325E96E1C512421EA6EEF501E1902E0C8
:10073000000E01D0010E1D6F040E19251E6F000E54
:100740001A211F6F1B511E25E96E1C511F21EA6ED5
:10075000EF501D5D04E1010E016E51D003D0000E7B
:10076000016E4DD04CD01B511925E96E1C511A2138
:10077000EA6EEFCF1EF8010E195D1F6F000E1A59B9
:10078000206F1B511F25E96E1C512021EA6EEF508E
:100790001E1B020E195D216F000E1A59226F1B518C
:1007A0002125E96E1C512221EA6EEF501E1B030E1B
:1007B000195D236F000E1A59246F1B512325E96E12
:1007C0001C512421EA6EEF501E1902E0000E01D0E8
:1007D000010E1D6F040E195D1E6F000E1A591F6F5A
:1007E0001B511E25E96E1C511F21EA6EEF501D5D45
:1007F00004E1010E016E03D002D0000E016E000173
:1008000012000701FE6BFF6B0801006B016B070113
:10081000FB6BFA6BF731036EF631026E0332023274
:100820003F0E031602C001F0FB51035CD8A018EF85
:1008300008F005E10150FA5DD8B018EF08F0F55363
:10084000D8A43ED2060EFA250801026F000E070159
:10085000FB210801036F0701F85108010225E96E29
:100860000701F95108010321EA6EEFCF04F8050EE4
:100870000701FA250801056F000E0701FB21080199
:10088000066F0701F85108010525E96E0701F951C6
:1008900008010621EA6EEFCF07F8040E0701FA25DA
:1008A0000801086F000E0701FB210801096F07010D
:1008B000F85108010825E96E0701F95108010921DD
:1008C000EA6EEFCF0AF8030E0701FA2508010B6F55
:1008D000000E0701FB2108010C6F0701F851080108
:1008E0000B25E96E0701F95108010C21EA6EEFCFE3
:1008F0000DF8020E0701FA2508010E6F000E070120
:10090000FB2108010F6F0701F85108010E25E96E60
:100910000701F95108010F21EA6EEFCF10F8010E1F
:100920000701FA250801116F000E0701FB210801DC
:10093000126F0701F85108011125E96E0701F951FD
:1009400008011221EA6EEFCF13F80701F851FA25DA
:10095000E96EF951FB21EA6EEFCF14F808012D6B17
:1009600004C82EF807C82FF80AC830F80DC831F8A7
:1009700010C832F813C833F814C834F8000196DDF3
:1009800001C0FEF70D0E0701FA250801026F000EE7
:100990000701FB210801036F0701F8510801022537
:1009A000E96E0701F95108010321EA6EEFCF04F85F
:1009B0000C0E0701FA250801056F000E0701FB2147
:1009C0000801066F0701F85108010525E96E0701C6
:1009D000F95108010621EA6EEFCF07F80B0E070167
:1009E000FA250801086F000E0701FB210801096FB5
:1009F0000701F85108010825E96E0701F9510801BE
:100A00000921EA6EEFCF0AF80A0E0701FA2508015C
:100A10000B6F000E0701FB2108010C6F0701F85155
:100A200008010B25E96E0701F95108010C21EA6E56
:100A3000EFCF0DF8090E0701FA2508010E6F000E21
:100A40000701FB2108010F6F0701F85108010E256E
:100A5000E96E0701F95108010F21EA6EEFCF10F896
:100A6000080E0701FA250801116F000E0701FB218E
:100A70000801126F0701F85108011125E96E0701FD
:100A8000F95108011221EA6EEFCF13F8070E0701A2
:100A9000FA250801146F000E0701FB210801156FEC
:100AA0000701F85108011425E96E0701F951080101
:100AB0001521EA6EEFCF16F82D6B04C82EF807C883
:100AC0002FF80AC830F80DC831F810C832F813C82A
:100AD00033F816C834F80001E9DC01C0FFF707015C
:100AE000FE514508D8A4E9D0FF517C08D8B4E5D020
:100AF000FF513E08D8B4E1D0FF511F08D8B4DDD073
:100B0000FBC7FDF7FAC7FCF7010E0801016FFEC72E
:100B100000F800511F08D8B4C5D00701FD510308E3
:100B2000D8B002D00801BED006E1FC51E708D8B029
:100B300002D00801B7D00801186BFDC71AF8FCC72E
:100B400019F8F9C71CF8F8C71BF80001E2DC0150DE
:100B500008010117060E0701FC250801026F000EAF
:100B60000701FD210801036F0701F8510801022563
:100B7000E96E0701F95108010321EA6EEFCF04F88D
:100B8000050E0701FC250801056F000E0701FD2178
:100B90000801066F0701F85108010525E96E0701F4
:100BA000F95108010621EA6EEFCF07F8040E07019C
:100BB000FC250801086F000E0701FD210801096FDF
:100BC0000701F85108010825E96E0701F9510801EC
:100BD0000921EA6EEFCF0AF8030E0701FC25080190
:100BE0000B6F000E0701FD2108010C6F0701F85182
:100BF00008010B25E96E0701F95108010C21EA6E85
:100C0000EFCF0DF8020E0701FC2508010E6F000E54
:100C10000701FD2108010F6F0701F85108010E259A
:100C2000E96E0701F95108010F21EA6EEFCF10F8C4
:100C3000010E0701FC250801116F000E0701FD21BF
:100C40000801126F0701F85108011125E96E07012B
:100C5000F95108011221EA6EEFCF13F80701F8519C
:100C6000FC25E96EF951FD21EA6EEFCF14F8080179
:100C70002D6B04C82EF807C82FF80AC830F80DC825
:100C800031F810C832F813C833F814C834F800012A
:100C90000DDC01C000F8070E0701FC27000EFD2344
:100CA000080137D7012D0AD006018F6B0701FAC75B
:100CB00001F0FBC702F03CEF0CF00801B3D10701D3
:100CC000040EFA250801026F000E0701FB2108013E
:100CD000036F0701F85108010225E96E0701F95178
:100CE00008010321EA6EEFCF04F8030E0701FA258D
:100CF0000801056F000E0701FB210801066F0701BF
:100D0000F85108010525E96E0701F951080106218E
:100D1000EA6EEFCF07F8020E0701FA250801086F07
:100D2000000E0701FB210801096F0701F8510801B6
:100D30000825E96E0701F95108010921EA6EEFCF94
:100D40000AF8010E0701FA2508010B6F000E0701D2
:100D5000FB2108010C6F0701F85108010B25E96E12
:100D60000701F95108010C21EA6EEFCF0DF80701D8
:100D7000F851FA25E96EF951FB21EA6EEFCF0EF832
:100D800008012D6B2E6B2F6B04C830F807C831F8A3
:100D90000AC832F80DC833F80EC834F8000156EC12
:100DA00002F001C0FEF7090E0701FA250801026FE3
:100DB000000E0701FB210801036F0701F85108012C
:100DC0000225E96E0701F95108010321EA6EEFCF10
:100DD00004F8080E0701FA250801056F000E070147
:100DE000FB210801066F0701F85108010525E96E8E
:100DF0000701F95108010621EA6EEFCF07F8070E47
:100E00000701FA250801086F000E0701FB21080100
:100E1000096F0701F85108010825E96E0701F9512A
:100E200008010921EA6EEFCF0AF8060E0701FA253C
:100E300008010B6F000E0701FB2108010C6F070171
:100E4000F85108010B25E96E0701F95108010C2141
:100E5000EA6EEFCF0DF8050E0701FA2508010E6FB7
:100E6000000E0701FB2108010F6F0701F85108016F
:100E70000E25E96E0701F95108010F21EA6EEFCF47
:100E800010F82D6B2E6B2F6B04C830F807C831F8A3
:100E90000AC832F80DC833F810C834F8000156EC0F
:100EA00002F001C0FFF70701FE510B08D8A4B9D02A
:100EB000FF511F08D8B4B5D0FF510F08D8B4B1D036
:100EC000FBC7FDF7FAC7FCF7010E0801016FFEC76B
:100ED00000F800511F08D8B499D00701FD5101084E
:100EE000D8B002D0080192D006E1FC51F308D8B086
:100EF00002D008018BD00801186BFDC71AF8FCC797
:100F000019F8F9C71CF8F8C71BF8000161EC03F0E9
:100F1000015008010117040E0701FC250801026FAA
:100F2000000E0701FD210801036F0701F8510801B8
:100F30000225E96E0701F95108010321EA6EEFCF9E
:100F400004F8030E0701FC250801056F000E0701D8
:100F5000FD210801066F0701F85108010525E96E1A
:100F60000701F95108010621EA6EEFCF07F8020EDA
:100F70000701FC250801086F000E0701FD2108018B
:100F8000096F0701F85108010825E96E0701F951B9
:100F900008010921EA6EEFCF0AF8010E0701FC25CE
:100FA00008010B6F000E0701FD2108010C6F0701FE
:100FB000F85108010B25E96E0701F95108010C21D0
:100FC000EA6EEFCF0DF80701F851FC25E96EF951F3
:100FD000FD21EA6EEFCF0EF808012D6B2E6B2F6B03
:100FE00004C830F807C831F80AC832F80DC833F819
:100FF0000EC834F8000156EC02F001C000F8050EEE
:101000000701FC27000EFD23080163D7012D0AD03C
:1010100006018F6B0701FAC701F0FBC702F03CEF36
:101020000CF008010701FA2BD8B4FB2B0AEF04F0EF
:10103000F7C7FBF7F6C7FAF7F731036EF631026E22
:10104000033202323F0E031602C001F00350FB5D73
:10105000D8A039EF0CF005E1FA51015CD8B039EFB6
:101060000CF0F553D8A44BD2060EFA5D0801026FBE
:10107000000E0701FB590801036F0701F851080131
:101080000225E96E0701F95108010321EA6EEFCF4D
:1010900004F8050E0701FA5D0801056F000E07014F
:1010A000FB590801066F0701F85108010525E96E93
:1010B0000701F95108010621EA6EEFCF07F8040E87
:1010C0000701FA5D0801086F000E0701FB590801CE
:1010D000096F0701F85108010825E96E0701F95168
:1010E00008010921EA6EEFCF0AF8030E0701FA5D45
:1010F00008010B6F000E0701FB5908010C6F070177
:10110000F85108010B25E96E0701F95108010C217E
:10111000EA6EEFCF0DF8020E0701FA5D08010E6FBF
:10112000000E0701FB5908010F6F0701F851080174
:101130000E25E96E0701F95108010F21EA6EEFCF84
:1011400010F8010E0701FA5D0801116F000E07018A
:10115000FB590801126F0701F85108011125E96ECA
:101160000701F95108011221EA6EEFCF13F80701C8
:10117000F851FA25E96EF951FB21EA6EEFCF14F828
:1011800008012D6B04C82EF807C82FF80AC830F8DC
:101190000DC831F810C832F813C833F814C834F841
:1011A000000156EC02F001C0FEF70D0E0701FA5DDA
:1011B0000801026F000E0701FB590801036F0701C8
:1011C000F85108010225E96E0701F95108010321D0
:1011D000EA6EEFCF04F80C0E0701FA5D0801056F07
:1011E000000E0701FB590801066F0701F8510801BD
:1011F0000525E96E0701F95108010621EA6EEFCFD6
:1012000007F80B0E0701FA5D0801086F000E0701D1
:10121000FB590801096F0701F85108010825E96E1B
:101220000701F95108010921EA6EEFCF0AF80A0E09
:101230000701FA5D08010B6F000E0701FB59080159
:101240000C6F0701F85108010B25E96E0701F951F0
:1012500008010C21EA6EEFCF0DF8090E0701FA5DC7
:1012600008010E6F000E0701FB5908010F6F0701FF
:10127000F85108010E25E96E0701F95108010F2107
:10128000EA6EEFCF10F8080E0701FA5D0801116F42
:10129000000E0701FB590801126F0701F851080100
:1012A0001125E96E0701F95108011221EA6EEFCF0D
:1012B00013F8070E0701FA5D0801146F000E07010D
:1012C000FB590801156F0701F85108011425E96E53
:1012D0000701F95108011521EA6EEFCF16F82D6BC1
:1012E00004C82EF807C82FF80AC830F80DC831F81E
:1012F00010C832F813C833F816C834F8000156EC99
:1013000002F001C0FFF70701FE514508D8A4F6D04E
:10131000FF517C08D8B4F2D0FF513E08D8B4EED0CB
:10132000FF511F08D8B4EAD0FF510F08D8B4E6D057
:10133000FF517808D8B4E2D0FBC7FDF7FAC7FCF735
:10134000010E0801016FFEC700F800511F08D8B454
:10135000C3D00701FD5306E1FC510108D8A002D01B
:101360000801BAD0010E0801186FFDC71AF8FCC7B2
:1013700019F8F9C71CF8F8C71BF8000189EC02F04E
:10138000015008010117060E0701FC5D0801026FFC
:10139000000E0701FD590801036F0701F85108010C
:1013A0000225E96E0701F95108010321EA6EEFCF2A
:1013B00004F8050E0701FC5D0801056F000E07012A
:1013C000FD590801066F0701F85108010525E96E6E
:1013D0000701F95108010621EA6EEFCF07F8040E64
:1013E0000701FC5D0801086F000E0701FD590801A7
:1013F000096F0701F85108010825E96E0701F95145
:1014000008010921EA6EEFCF0AF8030E0701FC5D1F
:1014100008010B6F000E0701FD5908010C6F070151
:10142000F85108010B25E96E0701F95108010C215B
:10143000EA6EEFCF0DF8020E0701FC5D08010E6F9A
:10144000000E0701FD5908010F6F0701F85108014F
:101450000E25E96E0701F95108010F21EA6EEFCF61
:1014600010F8010E0701FC5D0801116F000E070165
:10147000FD590801126F0701F85108011125E96EA5
:101480000701F95108011221EA6EEFCF13F80701A5
:10149000F851FC25E96EF951FD21EA6EEFCF14F801
:1014A00008012D6B04C82EF807C82FF80AC830F8B9
:1014B0000DC831F810C832F813C833F814C834F81E
:1014C000000156EC02F001C000F8070E0701FC5FB6
:1014D000000EFD5B080139D7012D0BD0010E06016E
:1014E0008F6F0701FAC701F0FBC702F0C5D106D024
:1014F0000801000E016E026E0701BED1B4D1040EC8
:10150000FA5D0801026F000E0701FB590801036F25
:101510000701F85108010225E96E0701F951080198
:101520000321EA6EEFCF04F8030E0701FA5D08010C
:10153000056F000E0701FB590801066F0701F851FE
:1015400008010525E96E0701F95108010621EA6E37
:10155000EFCF07F8020E0701FA5D0801086F000ED1
:101560000701FB590801096F0701F8510801082517
:10157000E96E0701F95108010921EA6EEFCF0AF877
:10158000010E0701FA5D08010B6F000E0701FB5900
:1015900008010C6F0701F85108010B25E96E0701DE
:1015A000F95108010C21EA6EEFCF0DF80701F8514F
:1015B000FA25E96EF951FB21EA6EEFCF0EF808012A
:1015C0002D6B2E6B2F6B04C830F807C831F80AC892
:1015D00032F80DC833F80EC834F8000156EC02F0AA
:1015E00001C0FEF7090E0701FA5D0801026F000E47
:1015F0000701FB590801036F0701F8510801022593
:10160000E96E0701F95108010321EA6EEFCF04F8F2
:10161000080E0701FA5D0801056F000E0701FB596E
:101620000801066F0701F85108010525E96E070159
:10163000F95108010621EA6EEFCF07F8070E0701FE
:10164000FA5D0801086F000E0701FB590801096FD8
:101650000701F85108010825E96E0701F951080151
:101660000921EA6EEFCF0AF8060E0701FA5D0801BC
:101670000B6F000E0701FB5908010C6F0701F851B1
:1016800008010B25E96E0701F95108010C21EA6EEA
:10169000EFCF0DF8050E0701FA5D08010E6F000E81
:1016A0000701FB5908010F6F0701F85108010E25CA
:1016B000E96E0701F95108010F21EA6EEFCF10F82A
:1016C0002D6B2E6B2F6B04C830F807C831F80AC891
:1016D00032F80DC833F810C834F8000156EC02F0A7
:1016E00001C0FFF70701FE510B08D8A4BCD0FF5181
:1016F0001F08D8B4B8D0FF510F08D8B4B4D0FBC776
:10170000FDF7FAC7FCF7010E0801016FFEC700F8EC
:1017100000511F08D8B495D00701FD5306E1FC51D4
:101720000108D8A002D008018CD0010E0801186F62
:10173000FDC71AF8FCC719F8F9C71CF8F8C71BF859
:10174000000161EC03F0015008010117040E0701CC
:10175000FC5D0801026F000E0701FD590801036FCF
:101760000701F85108010225E96E0701F951080146
:101770000321EA6EEFCF04F8030E0701FC5D0801B8
:10178000056F000E0701FD590801066F0701F851AA
:1017900008010525E96E0701F95108010621EA6EE5
:1017A000EFCF07F8020E0701FC5D0801086F000E7D
:1017B0000701FD590801096F0701F85108010825C3
:1017C000E96E0701F95108010921EA6EEFCF0AF825
:1017D000010E0701FC5D08010B6F000E0701FD59AA
:1017E00008010C6F0701F85108010B25E96E07018C
:1017F000F95108010C21EA6EEFCF0DF80701F851FD
:10180000FC25E96EF951FD21EA6EEFCF0EF80801D3
:101810002D6B2E6B2F6B04C830F807C831F80AC83F
:1018200032F80DC833F80EC834F8000156EC02F057
:1018300001C000F8050E0701FC5F000EFD5B08010A
:1018400067D7012D0BD0010E06018F6F0701FAC774
:1018500001F0FBC702F010D006D00801000E016EA7
:10186000026E070109D0FA51D8B4FB07FA071CEF42
:1018700008F0000E016E026E000112000900F6CFA2
:101880000FF8F7CF10F8F5CF1AF81DEC02F00FC8DB
:10189000F6FF10C8F7FF08010E2F01D002D000019B
:1018A000EDD700011200EACFF4F7E9CFF3F7070113
:1018B000ED39F009EF6FEF27E20FF06F320FF26FA3
:1018C000ED510F0BF027F027F227E90FF16FF12709
:1018D000F127EC390F0BF127F227F137F237F21F1E
:1018E000F237EC510F0BF227EF37070EEE6F0A0EAF
:1018F000F107F227FDE3F007F127FDE3EF07F027FB
:10190000FDE3EE07EF27FDE3070EEA6EEE0EE96E4C
:10191000070EF315F39DE926F20EE95CD8B4F38DBA
:10192000EF50006E08E1F3BD06D0F3B916D0F3B75F
:1019300002D0200E03D0F387F399300E0026EACFB1
:10194000EDF7E9CFECF700C01AF800011DEC02F04A
:10195000EDC7EAFFECC7E9FF0701EE50F3ADDCD7B6
:101960000001120008010151016A005D03E200C894
:1019700000F00CD0006A080E026F003700360151EB
:10198000005CD8B0006E0136022FF7D700011200BC
:10199000200E0701F0A9300EF16FEFC700F0EFAF96
:1019A00008D0001E002A00C0EFF72D0EF16FF08F57
:1019B000F0810150EFC700F8640E0801016F0001CB
:1019C000D1DF00C0EFF7300E01240701F26FEFC73F
:1019D00000F80A0E0801016F0001C4DF300E002478
:1019E0000701F46F300E0124F36FF1C700F0300EE1
:1019F000F25D04E0F083F0BFF08512D0F1C7F2F79A
:101A0000200EF16F300EF35D04E0F081F0BFF08343
:101A100007D0D8A4F08104E1F2C7F3F7200EF26FEB
:101A2000F0B505D0F0B308D0F0B10BD00FD0F1C7AE
:101A30001AF800011DEC02F0F2C71AF800011DECC3
:101A400002F0F3C71AF800011DEC02F0F4C71AF80F
:101A500000011DEC02F01200500EF66E030EF76E40
:101A600046EC02F00701ED6BEC6BED51030817E358
:101A700003E1EC51510813E30D0EEC25E96E020E63
:101A8000ED21EA6EEFCFEEF7EEC7EFF7180EF06F2D
:101A900000017EDF0701EC2BD8B4ED2BE6D7660EF4
:101AA000F66E030EF76E000146EC02F00701ED6BD7
:101AB000EC6BED51010817E303E1EC512B0813E344
:101AC0005F0EEC25E96E050EED21EA6EEFCFEEF725
:101AD000EEC7EFF7180EF06F00015ADF0701EC2B8D
:101AE000D8B4ED2BE6D70001BFEF0EF0070EEA6E7B
:101AF000EC0EE96EEF500DE00A0E016E006A002E4A
:101B0000FED7012EFBD75F0E006E002EFED7EF2E04
:101B1000F3D71200010E0701E36FE46FE56FE66F84
:101B2000E76BE86FE96F0601996B986B8E6B8D6BB5
:101B30008C6B8B6B9951FD080EE303E19851E7081C
:101B40000AE3938281A207D0948A82AA04D0982BB8
:101B5000D8B4992BEFD7996B986B95C603F0945135
:101B6000942BD8B4952B0701EC6F0D0EEC25E96E84
:101B7000020E0320EA6EEF6A060195C603F0945147
:101B8000942BD8B4952B0701EC6F0D0EEC25E96E64
:101B9000020E0320EA6E010EEF6E060197C603F0F7
:101BA0009651962BD8B4972B0701EC6F5F0EEC255E
:101BB000E96E050E0320EA6EEF6A060197C603F090
:101BC0009651962BD8B4972B0701EC6F5F0EEC253E
:101BD000E96E050E0320EA6E010EEF6E06019551C7
:101BE0000308D8A06FD004E194515108D8A06AD05E
:101BF00097510108D8A066D003E196512B0862E303
:101C00009951FF085FE303E19851DB085BE3A253BE
:101C100004E0956B946B976B966B982BD8B4992BCB
:101C20008E6B8D6B8C6B8B6B93840701E36B81B434
:101C3000E32BE3531EE1E42D1CD0E46B0D0E0601F3
:101C40009425E96E020E9521EA6E9382000E81A220
:101C5000010EEF6E5F0E9625E96E050E9721EA6E76
:101C6000E7C7EFFF942BD8B4952B996B986B06D0F0
:101C70000701E32D02D0010EE46F060193860701F0
:101C8000E56B81B6E52BE5530FE1E62D0DD0E66B54
:101C9000948AE76B82AAE72B0601962BD8B4972B80
:101CA000996B986B06D00701E52D02D0010EE66F07
:101CB0000601938081A005D0A26B9969DC0E986F14
:101CC00001D08DD7996B986B0701F56B95C6F7F727
:101CD00094C6F6F7020EF96F0D0EF86F000101ECD5
:101CE00004F001C0E8F7010E0701F56F97C6F7F79A
:101CF00096C6F6F7050EF96F5F0EF86F000101EC5E
:101D000004F001C0E9F706019D2D50D0C00EF66E1B
:101D1000030EF76E0E0E08010E6F0001AFDD100E00
:101D2000E96E95C6EDF794C6ECF7BDDD0D0E080122
:101D30001A6F00011DEC02F00A0E08011A6F000173
:101D40001DEC02F0D40EF66E030EF76E0E0E0801B7
:101D50000E6F000193DD100EE96E97C6EDF796C683
:101D6000ECF7A1DD0D0E08011A6F00011DEC02F069
:101D70000A0E08011A6F00011DEC02F06DD6070172
:101D8000E85308E1E80EF66E030EF76E000146EC2C
:101D900002F00701E95308E1FE0EF66E030EF76E3E
:101DA000000146EC02F0070107D006010F0E070103
:101DB000EC6F00019BDE0701E85302E0E95310E1FC
:101DC0000601976B966B956B946BA16BA22B8E6B38
:101DD0008D6B8C6B8B6B000E016E1ED01BD00701C0
:101DE000010E06019C6FA16F97C693F696C692F6F8
:101DF00095C691F694C690F6956B946B976B966B1F
:101E00008E6B8D6B8C6B8B6B0001FC6BFB6B016EB7
:101E1000060102D0000E016E000143EF0FF0020E2A
:101E20000701E36FFA0EE46F00010AEF02F0070109
:101E3000E32FF8D706019F2D01D02ED001010F53BB
:101E400020E00C531EE1052D1CD0102D0CD0A00E4F
:101E5000F66E1E0EF76E000146EC02F0929E899E11
:101E60000101106B0ED0B20EF66E1E0EF76E000161
:101E700046EC02F0929E898E010E0101106F126BEA
:101E8000116B000147D601C09EF606018E6B8D6B6B
:101E90008C6B8B6B996B986BF090000136EF00F0B8
:101EA0000A0D4B65792072656C656173652E0A0DAC
:101EB00000000A0D4B65792070726573732E0A0D50
:101EC00000000D0A547261636B3120446174613A01
:101ED0000D0A00000D0A547261636B322044617474
:101EE000613A0D0A00000D0A547261636B3120449F
:101EF0006174613A0D0A00000D0A547261636B321D
:101F000020446174613A0D0A00000D0A50494E20C8
:101F10004E756D6265723A0D0A00464F524D41543E
:101F200054494E472E2E2E0020657869740A0D0004
:101F3000464F524D415454494E472E2E2E00206597
:101F40007869740A0D007265736574696E67207034
:101F5000617373776F72642E2E2E0000206578698E
:101F6000740A0D004B657920626F6172642074659C
:101F70007374696E670A0D0072657365742066611B
:101F800063746F72790A0D0020657869740A0D0018
:101F90004E657720636F6E736F6C65206E616D6543
:101FA0003E00204F4B0A0D005B4D5D005B535D0012
:101FB000596561723E004D6F6E74683E0000446169
:101FC00074653E004461793E0000486F75723E00C2
:101FD0004D696E757465733E00005365636F6E6482
:101FE000733E000050726573732027312720746F91
:101FF0002073656C65637420536C61766572206D27
:102000006F64650050726573732027302720746FEA
:102010002073656C656374204D6173746572206D07
:102020006F64650050726573732027312720746FC9
:10203000207475726E206F6E206B6570726573739D
:10204000000050726573732027302720746F20744E
:1020500075726E206F6666206B65707265737300B3
:10206000496E707574204E756D6265720000507215
:102070006573732027312720746F2073656C656347
:102080007420746865206E6577206B6579626F6176
:102090007264000050726573732027302720746FBC
:1020A0002073656C65637420746865206F6C6420B0
:1020B0006B6579626F6172640000682D3E2048652F
:1020C0006C700A0D000073632D3E2053657420432D
:1020D0006C6F636B0A0D0000632D3E2073686F7791
:1020E00020436C6F636B0A0D000070617373776F30
:1020F00072642D3E206368616E67696E672050418F
:102100005353574F52440A0D00006E202D3E20635A
:1021100068616E676520636F6E736F6C65204E61DA
:102120006D650A0D0000662D3E20466F726D61746C
:102130000A0D0000652D3E20457869740A0D0000E7
:102140004D532D3E204B6579626F617264206D6F37
:1021500064652073657474696E672028536C6176BA
:10216000652F4D6173746572290A0D004B502D3E29
:10217000204B65797072657373206D6F6465207391
:10218000657474696E6720284F6E290A0D004B50E4
:102190002D3E204B65797072657373206D6F646599
:1021A0002073657474696E6720284F6666290A0D6E
:1021B00000007472616E2074696D652D3E20746933
:1021C0006D65206F662065616368207472616E734F
:1021D000616374696F6E0A0D000064656275672D36
:1021E0003E206F6E2F6F6666206465627567206D96
:1021F0006F64650A0D006B6F666B62202564202D8D
:102200003E2073656C656374206B696E64206F6635
:10221000206B6579626F6172640A0D00727366618A
:1022200063742D3E20726573657420666163746FFC
:1022300072790A0D00006F6C642070617373776FA0
:1022400072643A000A0D6E65773A00000A0D616704
:1022500061696E3A00000A0D4F4B0A0D00000A0D2D
:102260004552520A0D0020580A0D00005072657345
:10227000732027312720746F20656E61626C6520A2
:102280006465627567206D6F6465000050726573E8
:10229000732027302720746F2064697361626C6536
:1022A000206465627567206D6F6465000101252BF0
:1022B00025510108D8B0D2D02851FB0F41E2050FBB
:1022C000000133EF12F0929A899A9296898692943D
:1022D00089849292898292908980010131D092966C
:1022E0008996929A898A929489849292898292900C
:1022F0008980010125D09294899492968986929A38
:10230000898A9292898292908980010119D0929251
:1023100089929296898692948984929A898A9290D7
:10232000898001010DD0929089909296898692942D
:10233000898492928982929A898A010101D001014D
:1023400026A13FD09388000E81B8010E0701E86FE7
:10235000938A000E81BA010EE817938C000E81BC9F
:10236000010EE817938E000E81BE010EE81527E0DE
:1023700027C1E6F701010B5319E1096B086B000156
:10238000FC6BFB6B01010E510F080AE30E510E2B83
:10239000036A140FE96E010E0320EA6EE6C7EFFF31
:1023A000E6C71AF800011DEC02F005D0E6C71AF8DE
:1023B00000011DEC02F001012691276B07014CD0B2
:1023C00001019388000E81B8010E0701E86F938A1E
:1023D000000E81BA010EE817938C000E81BC010E2D
:1023E000E817938E000E81BE010EE8152FE1938849
:1023F00081B802D0E76B11D0938A81BA03D0010E65
:10240000E76F0BD0938C81BC03D0020EE76F05D031
:10241000938E81BE02D0030EE76FE751050DF35096
:10242000E96BE86F036A010128510701E825016E95
:10243000E95103220150000168EC00F0E8CF27F1D8
:1024400001012681FF0E926E07D007010101282BA2
:1024500028510508D8B4286B0101256B0701E6C790
:1024600001F000011200E824F76AF736810FF66EDA
:10247000240EF7220A00F550FA6E0800F550F96EA6
:10248000C622DE22F6220E232623E00E0F01486F1D
:10249000C29CC29E4951E00B1709496F08010E51B9
:1024A000FA0F65E2060F0001B9EF12F0100E016E8F
:1024B000C250C30B0110C26EC282C2B2FED7C4CFDB
:1024C0000FF808010FC801F052D051D00C0E016E68
:1024D000C250C30B0110C26EC282C2B2FED7C4CFBB
:1024E0000FF808010FC801F042D041D0080E016E6C
:1024F000C250C30B0110C26EC282C2B2FED7C4CF9B
:102500000FF808010FC801F032D031D0040E016E6F
:10251000C250C30B0110C26EC282C2B2FED7C4CF7A
:102520000FF808010FC801F022D021D0000E016E73
:10253000C250C30B0110C26EC282C2B2FED7C4CF5A
:102540000FF808010FC801F012D011D02C0E016E47
:10255000C250C30B0110C26EC282C2B2FED7C4CF3A
:102560000FF808010FC801F002D001D008010001E6
:102570001200E824F76AF7368D0FF66E250EF72263
:102580000A00F550FA6E0800F550F96EAC24CC2420
:10259000EC240C252C254C25D8B204D0080EEA6E6C
:1025A000220EE96E006A016A026A036A0801226B60
:1025B000236B246B256B215120111F111E112CE060
:1025C000200E266FD8901A371B371C371D3722373D
:1025D0002337243725372151255D08E12051245D1B
:1025E00005E11F51235D02E11E51225D0FE31E51E3
:1025F000225F1F51D8A01F3D235F2051D8A0203D4E
:10260000245F2151D8A0213D255FD88000360136B6
:1026100002360336262FD6D722C8EFFF23C8ECFF99
:1026200024C8ECFF25C8ECFF00011200E9500801A6
:10263000126F3B0E196F9A0E186FCA0E176F166B3A
:102640000A0E146FD882080EEA6E0E0EE96E11C8DB
:102650001DF810C81CF80FC81BF80EC81AF819C8C6
:1026600021F818C820F817C81FF816C81EF800016E
:1026700093DF0150005213E108011451010AD8A45C
:1026800002D000010CD012510CE00F0B145D01E0E0
:1026900010E212BF0ED012BD04D0200E03D00801EC
:1026A000126B300E002600C01AF800011DEC02F07B
:1026B0000801D89219C81DF818C81CF817C81BF8CB
:1026C00016C81AF8216B206B1F6B0A0E1E6F0001D3
:1026D00063DF03C019F802C018F801C017F800C082
:1026E00016F80801142FAED7000112000701EE6B97
:1026F000ED6BEC6BEB6BF26BF16BF06BEF6BF66B06
:10270000F56BF46BF36BFA6BF96BF86BF76BFE6BB5
:10271000FD6BFC6BFB6BEA6BE96BEA51010843E371
:1027200003E1E951F3083FE308010E6B0001ADDE60
:1027300001500701EB27000EEC23ED23EE23010EE1
:1027400008010E6F0001A1DE01500701EF27000E06
:10275000F023F123F223020E08010E6F000195DE33
:1027600001500701F327000EF423F523F623030E8F
:1027700008010E6F000189DE01500701F727000EE6
:10278000F823F923FA23040E08010E6F00017DDE01
:1027900001500701FB27000EFC23FD23FE23E92B3C
:1027A000D8B4EA2BBAD7D892EEC71DF8EDC71CF8FB
:1027B000ECC71BF8EBC71AF80801216B206B010E60
:1027C0001F6FF40E1E6F0001E7DE03C0EEF702C0BC
:1027D000EDF701C0ECF700C0EBF7D892F2C71DF897
:1027E000F1C71CF8F0C71BF8EFC71AF80801216BF6
:1027F000206B010E1F6FF40E1E6F0001CDDE03C0B3
:10280000F2F702C0F1F701C0F0F700C0EFF7D8927D
:10281000F6C71DF8F5C71CF8F4C71BF8F3C71AF87C
:102820000801216B206B010E1F6FF40E1E6F00015B
:10283000B3DE03C0F6F702C0F5F701C0F4F700C03D
:10284000F3F7D892FAC71DF8F9C71CF8F8C71BF8B8
:10285000F7C71AF80801216B206B010E1F6FF40EE9
:102860001E6F000199DE03C0FAF702C0F9F701C03C
:10287000F8F700C0F7F7D892FEC71DF8FDC71CF89F
:10288000FCC71BF8FBC71AF80801216B206B010E6F
:102890001F6FF40E1E6F00017FDE03C0FEF702C043
:1028A000FDF701C0FCF700C0FBF701010B53D8B4E2
:1028B000BDD00D0E08011A6F00011DEC02F00A0ECA
:1028C00008011A6F00011DEC02F07E0EF66E020E7A
:1028D000F76E070E08010E6F00013EEC0CF0410E82
:1028E000E96EEEC711F8EDC710F8ECC70FF8EBC7AB
:1028F0000EF89CDE0D0E08011A6F00011DEC02F0AF
:102900000A0E08011A6F00011DEC02F08C0EF66E23
:10291000020EF76E070E08010E6F00013EEC0CF080
:10292000410EE96EF2C711F8F1C710F8F0C70FF8C1
:10293000EFC70EF87BDE0D0E08011A6F00011DECCB
:1029400002F00A0E08011A6F00011DEC02F09A0E47
:10295000F66E020EF76E070E08010E6F00013EECD8
:102960000CF0410EE96EF6C711F8F5C710F8F4C780
:102970000FF8F3C70EF85ADE0D0E08011A6F0001AA
:102980001DEC02F00A0E08011A6F00011DEC02F0A6
:10299000A80EF66E020EF76E070E08010E6F00010C
:1029A0003EEC0CF0410EE96EFAC711F8F9C710F8C9
:1029B000F8C70FF8F7C70EF839DE0D0E08011A6FC9
:1029C00000011DEC02F00A0E08011A6F00011DEC57
:1029D00002F0B60EF66E020EF76E070E08010E6FCD
:1029E00000013EEC0CF0410EE96EFEC711F8FDC788
:1029F00010F8FCC70FF8FBC70EF818DE0D0E080123
:102A00001A6F00011DEC02F00A0E08011A6F000196
:102A10001DEC02F00D0E08011A6F00011DEC02F012
:102A20000A0E08011A6F00011DEC02F00701EE53B7
:102A300007E1ED5305E1EC5303E1EB51050830E20A
:102A4000EE532EE1ED532CE1EC532AE1EB513B0820
:102A500027E3F25307E1F15305E1F05303E1EF51AE
:102A600064081EE2F65307E1F55305E1F45303E170
:102A7000F351640815E2FA5307E1F95305E1F853FD
:102A800003E1F75164080CE2FE5307E1FD5305E151
:102A9000FC5303E1FB51640803E2000E016E3FD1D9
:102AA000F25307E1F15305E1F05303E1EF5105085B
:102AB00030E2F2532EE1F1532CE1F0532AE1EF51D1
:102AC0003B0827E3EE5307E1ED5305E1EC5303E147
:102AD000EB5164081EE2F65307E1F55305E1F453A8
:102AE00003E1F351640815E2FA5307E1F95305E1F4
:102AF000F85303E1F75164080CE2FE5307E1FD537C
:102B000005E1FC5303E1FB51640803E2010E016E91
:102B100006D1F65307E1F55305E1F45303E1F35110
:102B2000050830E2F6532EE1F5532CE1F4532AE187
:102B3000F3513B0827E3F25307E1F15305E1F0536A
:102B400003E1EF5164081EE2EE5307E1ED5305E1A6
:102B5000EC5303E1EB51640815E2FA5307E1F95332
:102B600005E1F85303E1F75164080CE2FE5307E175
:102B7000FD5305E1FC5303E1FB51640803E2020E3F
:102B8000016ECDD0FA5307E1F95305E1F85303E1A3
:102B9000F751050830E2FA532EE1F9532CE1F853CE
:102BA0002AE1F7513B0827E3F25307E1F15305E12E
:102BB000F05303E1EF5164081EE2F65307E1F553C9
:102BC00005E1F45303E1F351640815E2EE5307E124
:102BD000ED5305E1EC5303E1EB5164080CE2FE53C5
:102BE00007E1FD5305E1FC5303E1FB51640803E2F7
:102BF000030E016E94D0FE5307E1FD5305E1FC5333
:102C000003E1FB51050830E2FE532EE1FD532CE1B8
:102C1000FC532AE1FB513B0827E3F25307E1F15350
:102C200005E1F05303E1EF5164081EE2F65307E1BA
:102C3000F55305E1F45303E1F351640815E2FA5347
:102C400007E1F95305E1F85303E1F75164080CE299
:102C5000EE5307E1ED5305E1EC5303E1EB5164085A
:102C600003E2040E016E5BD0FE5308E1FD5306E162
:102C7000FC5304E1FB51C808D8B04FD0EE53D8A4A0
:102C80004CD0ED53D8A449D0EC53D8A446D0EB5146
:102C9000B30843E3EE5307E1ED5305E1EC5303E1E1
:102CA000EB5164083AE2F25338E1F15336E1F05364
:102CB00034E1EF51B30831E3F25307E1F15305E199
:102CC000F05303E1EF51640828E2F65326E1F5538F
:102CD00024E1F45322E1F351B3081FE3F65307E173
:102CE000F55305E1F45303E1F351640816E2FA5396
:102CF00014E1F95312E1F85310E1F751B3080DE371
:102D0000FA5307E1F95305E1F85303E1F751640879
:102D100004E2040E016E03D002D0FF0E016E00012A
:102D2000ECEF1AF00701EE6BED6BEC6BEB6BF26BFB
:102D3000F16BF06BEF6BF66BF56BF46BF36BFA6B9F
:102D4000F96BF86BF76BFE6BFD6BFC6BFB6B0801B3
:102D5000026B016B006B0701FF6BEA6BE96BEA51D9
:102D6000010857E303E1E951F30853E308010E6B4F
:102D7000000145EC12F001500701EB27000EEC2397
:102D8000ED23EE23010E08010E6F000145EC12F059
:102D900001500701EF27000EF023F123F223020E6A
:102DA00008010E6F000145EC12F001500701F327F6
:102DB000000EF423F523F623030E08010E6F000125
:102DC00045EC12F001500701F727000EF823F92314
:102DD000FA23040E08010E6F000145EC12F00150B9
:102DE0000701FB27000EFC23FD23FE23050E08012F
:102DF0000E6F000145EC12F001500701FF27000E95
:102E000008010023012302230701E92BD8B4EA2B90
:102E1000A6D7D892EEC71DF8EDC71CF8ECC71BF873
:102E2000EBC71AF80801216B206B010E1F6FF40E1F
:102E30001E6F0001CCEC12F003C0EEF702C0EDF7FC
:102E400001C0ECF700C0EBF7D892F2C71DF8F1C74C
:102E50001CF8F0C71BF8EFC71AF80801216B206BAC
:102E6000010E1F6FF40E1E6F0001CCEC12F003C0B8
:102E7000F2F702C0F1F701C0F0F700C0EFF7D89207
:102E8000F6C71DF8F5C71CF8F4C71BF8F3C71AF806
:102E90000801216B206B010E1F6FF40E1E6F0001E5
:102EA000CCEC12F003C0F6F702C0F5F701C0F4F75E
:102EB00000C0F3F7D892FAC71DF8F9C71CF8F8C795
:102EC0001BF8F7C71AF80801216B206B010E1F6F62
:102ED000F40E1E6F0001CCEC12F003C0FAF702C032
:102EE000F9F701C0F8F700C0F7F7D892FEC71DF850
:102EF000FDC71CF8FCC71BF8FBC71AF80801216BBB
:102F0000206B010E1F6FF40E1E6F0001CCEC12F04F
:102F100003C0FEF702C0FDF701C0FCF700C0FBF7DD
:102F2000D89202C81DF801C81CF800C81BF8FFC7DA
:102F30001AF80801216B206B010E1F6FF40E1E6F33
:102F40000001CCEC12F003C002F802C001F801C08D
:102F500000F800C0FFF701010B53D8B4E4D00D0E08
:102F600008011A6F00011DEC02F00A0E08011A6F29
:102F700000011DEC02F0C40EF66E020EF76E070E95
:102F800008010E6F00013EEC0CF0410EE96EEEC739
:102F900011F8EDC710F8ECC70FF8EBC70EF816ECF8
:102FA00013F00D0E08011A6F00011DEC02F00A0E5D
:102FB00008011A6F00011DEC02F0D20EF66E020E2F
:102FC000F76E070E08010E6F00013EEC0CF0410E8B
:102FD000E96EF2C711F8F1C710F8F0C70FF8EFC7A4
:102FE0000EF816EC13F00D0E08011A6F00011DEC1F
:102FF00002F00A0E08011A6F00011DEC02F0E00E4B
:10300000F66E020EF76E070E08010E6F00013EEC21
:103010000CF0410EE96EF6C711F8F5C710F8F4C7C9
:103020000FF8F3C70EF816EC13F00D0E08011A6F27
:1030300000011DEC02F00A0E08011A6F00011DECE0
:1030400002F0EE0EF66E020EF76E070E08010E6F1E
:1030500000013EEC0CF0410EE96EFAC711F8F9C719
:1030600010F8F8C70FF8F7C70EF816EC13F00D0EAE
:1030700008011A6F00011DEC02F00A0E08011A6F18
:1030800000011DEC02F0FC0EF66E020EF76E070E4C
:1030900008010E6F00013EEC0CF0410EE96EFEC718
:1030A00011F8FDC710F8FCC70FF8FBC70EF816ECB7
:1030B00013F00D0E08011A6F00011DEC02F00A0E4C
:1030C00008011A6F00011DEC02F00A0EF66E030EE5
:1030D000F76E070E08010E6F00013EEC0CF0410E7A
:1030E000E96E02C811F801C810F800C80FF8FFC750
:1030F0000EF816EC13F00D0E08011A6F00011DEC0E
:1031000002F00A0E08011A6F00011DEC02F00D0E0C
:1031100008011A6F00011DEC02F00A0E08011A6F77
:1031200000011DEC02F00701EE5307E1ED5305E14C
:10313000EC5303E1EB5105083DE2EE533BE1ED5367
:1031400039E1EC5337E1EB513B0834E3F25307E14B
:10315000F15305E1F05303E1EF5164082BE2F6531C
:1031600007E1F55305E1F45303E1F351640822E26A
:10317000FA5307E1F95305E1F85303E1F751640805
:1031800019E2FE5307E1FD5305E1FC5303E1FB5156
:10319000640810E20801025309E1015307E10053FA
:1031A00005E10701FF51640805E20801000E016E08
:1031B000E1D10701F25307E1F15305E1F05303E1D7
:1031C000EF5105083DE2F2533BE1F15339E1F05391
:1031D00037E1EF513B0834E3EE5307E1ED5305E1EE
:1031E000EC5303E1EB5164082BE2F65307E1F5538E
:1031F00005E1F45303E1F351640822E2FA5307E1D5
:10320000F95305E1F85303E1F751640819E2FE535D
:1032100007E1FD5305E1FC5303E1FB51640810E2B3
:103220000801025309E1015307E1005305E10701D9
:10323000FF51640805E20801010E016E9BD10701F0
:10324000F65307E1F55305E1F45303E1F3510508A3
:103250003DE2F6533BE1F55339E1F45337E1F351E5
:103260003B0834E3F25307E1F15305E1F05303E186
:10327000EF5164082BE2EE5307E1ED5305E1EC5307
:1032800003E1EB51640822E2FA5307E1F95305E147
:10329000F85303E1F751640819E2FE5307E1FD53C7
:1032A00005E1FC5303E1FB51640810E208010253FD
:1032B00009E1015307E1005305E10701FF516408EB
:1032C00005E20801020E016E55D10701FA5307E12C
:1032D000F95305E1F85303E1F75105083DE2FA53CC
:1032E0003BE1F95339E1F85337E1F7513B0834E357
:1032F000F25307E1F15305E1F05303E1EF516408A4
:103300002BE2F65307E1F55305E1F45303E1F351E2
:10331000640822E2EE5307E1ED5305E1EC5303E1CB
:10332000EB51640819E2FE5307E1FD5305E1FC533C
:1033300003E1FB51640810E20801025309E1015363
:1033400007E1005305E10701FF51640805E20801A8
:10335000030E016E0FD10701FE5307E1FD5305E196
:10336000FC5303E1FB5105083CE2FE533AE1FD53F7
:1033700038E1FC5336E1FB513B0833E3F25307E1FC
:10338000F15305E1F05303E1EF5164082AE2F653EB
:1033900007E1F55305E1F45303E1F351640821E239
:1033A000FA5307E1F95305E1F85303E1F7516408D3
:1033B00018E2EE5307E1ED5305E1EC5303E1EB5165
:1033C00064080FE20801025309E1015307E10053C9
:1033D00005E10701FF51640804E20801040E016ED3
:1033E000C9D00801025309E1015307E1005305E187
:1033F0000701FF51050845E208010253D8B402D085
:1034000007013FD00153D8B402D007013AD000538E
:10341000D8B402D0070135D00701FF513B0831E392
:10342000F25307E1F15305E1F05303E1EF51640872
:1034300028E2F65307E1F55305E1F45303E1F351B4
:1034400064081FE2FA5307E1F95305E1F85303E179
:10345000F751640816E2FE5307E1FD5305E1FC5302
:1034600003E1FB5164080DE2EE5307E1ED5305E182
:10347000EC5303E1EB51640804E2050E016E080110
:1034800079D00801025309E1015307E1005305E136
:103490000701FF51C808D8B06AD00701EE53D8A47D
:1034A00066D0ED53D8A463D0EC53D8A460D0EB51D0
:1034B000B308D8A05CD0EE5308E1ED5306E1EC531D
:1034C00004E1EB516408D8B052D0F253D8A44FD0E5
:1034D000F153D8A44CD0F053D8A449D0EF51B3083D
:1034E000D8A045D0F25307E1F15305E1F05303E1D1
:1034F000EF5164083CE2F6533AE1F55338E1F453F6
:1035000036E1F351B30833E3F65307E1F55305E130
:10351000F45303E1F35164082AE2FA5328E1F95322
:1035200026E1F85324E1F751B30821E3FA5307E108
:10353000F95305E1F85303E1F751640818E2FE532B
:1035400016E1FD5314E1FC5312E1FB51B3080FE304
:10355000FE5307E1FD5305E1FC5303E1FB51640811
:1035600006E2050E016E080105D004D00701FF0E2A
:10357000016E08010001F2EF1AF0938881A809D0CA
:10358000938A81AA06D0938C81AC03D0938E81BE9E
:10359000BDD0938881B804D00701E86B17D0000133
:1035A000938A81BA05D0010E0701E86F0FD00001A0
:1035B000938C81BC05D0020E0701E86F07D0000193
:1035C000938E81BE03D0030E0701E86F01011353F0
:1035D00006E1000176EF13F001C0E6F705D0000127
:1035E00092EF16F001C0E6F70701E63D01D075D075
:1035F0000101135313E10701E851050DF350EA6B84
:10360000E96F036AE651E925016EEA510322015090
:10361000000168EC00F0E8CFE7F712D00701E851AD
:10362000060DF350EA6BE96F036AE651E925016E76
:10363000EA510322015000017AEC00F0E8CFE7F7ED
:1036400001010B5343E10001FC6BFB6B01010E51C7
:103650000F080AE30E510E2B036A140FE96E010ED8
:103660000320EA6EE7C7EFFF180EF66E030EF76E43
:10367000090E08010E6F00013EEC0CF00EC1EFF7D1
:10368000180E0701F06F0001C8EC0CF05D0E080188
:103690001A6F00011DEC02F0200E08011A6F0001E4
:1036A0001DEC02F0E7C71AF81DEC02F00D0E080140
:1036B0001A6F00011DEC02F00A0E08011A6F0001DA
:1036C0001DEC02F00101076B066B06D0E7C71AF884
:1036D00000011DEC02F001010701938881A8FDD7CC
:1036E000938A81AAFAD7938C81ACF7D7938E81AE57
:1036F000F4D7938881A8FDD7938A81AAFAD7938CAF
:1037000081ACF7D7938E81AEF4D70001FF0E926E95
:103710000701E7C701F000011200080E016E0A0E52
:10372000006E002EFED78B9694960B0E006E002E28
:10373000FED7080115378B98D8B09488D8A09498F4
:10374000948682A6FED7012E01D002D00001E7D7D1
:103750000A0E006E002EFED78B9694960000948879
:103760000B0E006E002EFED70B0E006E002EFED745
:10377000948682A6FED7016A0B0E006E002EFED73D
:1037800082B801808B9694968B98949800011200D1
:10379000080E0801116F00C012F894880B0E006E1D
:1037A000002EFED7948682A6FED782B8D88082A843
:1037B000D89001360A0E006E002EFED794968B9696
:1037C000112FEBD794880B0E006E002EFED78B982E
:1037D0001251D8A494980000948682A6FED70A0EAF
:1037E000006E002EFED78B9694960B0E006E002E68
:1037F000FED78B9894980001120008010D5303E145
:103800000C51000803E2A20E0F6F02D0A00E0F6F42
:1038100094880A0E006E002EFED794860B0E006E62
:10382000002EFED782A6FED78B9894980A0E006EC3
:10383000002EFED78B9694960FC815F800016DDF09
:103840000BC811F80CC812F80DC813F80801146B56
:103850000BC815F8000161DF0AC815F85EDF94880F
:103860000A0E006E002EFED794860B0E006E002E00
:10387000FED782A6FED78B9894980A0E006E002E73
:10388000FED78B969496010E08010F25106F156FC9
:10389000000143DF006A7CDF01C00EF8949800004D
:1038A000948682A6FED70A0E006E002EFED700D0A8
:1038B000000094880A0E006E002EFED708010EC884
:1038C00001F0000112000701EA6BE96BEC6BEB6B96
:1038D000EE6BED6B08010D6B0C6B0B6B280E0A6F1A
:1038E00000018BDF070101C0EBF7EC6B08010D6BEA
:1038F0000C6B0B6B290E0A6F00017FDF0701EE6B6B
:1039000001C0EDF7EDC7EEF7ED6BED51EB11E96F8F
:10391000EE51EC11EA6FE9C701F0EAC702F00001CD
:1039200012000701EB51ED03F3CF01F0F4CF00F0EB
:10393000EE03F3500026EC51ED03F3500020026E2D
:10394000000112000701F86BF551F85D0AE2036A05
:10395000F851F625E96EF7510320EA6EEF6AF82B6D
:10396000F3D7000112000701F46B010EF36FE9C7F2
:10397000F5F7EBC7F7F7EAC7F6F7EDC7F9F7ECC7C6
:10398000F8F7000101EC04F002C0F4F701C0F3F70E
:103990000701F35305E1F45303E1000E016EFBD17F
:1039A000F4C7F2F7F3C7F1F706018F53D8A4F0D0AC
:1039B0000701E953D8A48DD0F06BF0514E08D8A080
:1039C00087D0036AF051EE25016EEF51032201C04A
:1039D000F5F703C0F6F7050EF125F76F000EF2219B
:1039E000F86FEC51F725E96EED51F821EA6EEFCF53
:1039F000F9F7040EF125FA6F000EF221FB6FEC517E
:103A0000FA25E96EED51FB21EA6EEFCFFCF7030ECC
:103A1000F125FD6F000EF221FE6FEC51FD25E96EE0
:103A2000ED51FE21EA6EEFCFFFF7020EF1250801FE
:103A3000006F000E0701F2210801016F0701EC5130
:103A400008010025E96E0701ED5108010121EA6E28
:103A5000EFCF02F8010E0701F1250801036F000EF8
:103A60000701F2210801046F0701EC510801032549
:103A7000E96E0701ED5108010421EA6EEFCF05F868
:103A80000701EC51F125E96EED51F221EA6EEFCF1D
:103A900006F808012D6B2E6BF9C72FF8FCC730F81C
:103AA000FFC731F802C832F805C833F806C834F841
:103AB000000156EC02F0F6C7EAFFF5C7E9FF01C0C6
:103AC000EFFF070E0701F127000EF223F02B75D749
:103AD0005DD0F06BF051270859E3036AF051EE25F1
:103AE000016EEF51032201C0F5F703C0F6F7030E94
:103AF000F125F76F000EF221F86FEC51F725E96E12
:103B0000ED51F821EA6EEFCFF9F7020EF125FA6FC9
:103B1000000EF221FB6FEC51FA25E96EED51FB210D
:103B2000EA6EEFCFFCF7010EF125FD6F000EF221DA
:103B3000FE6FEC51FD25E96EED51FE21EA6EEFCFEF
:103B4000FFF7EC51F125E96EED51F221EA6EEFCF6E
:103B500000F808012D6B2E6B2F6B306BF9C731F815
:103B6000FCC732F8FFC733F800C834F8000156EC40
:103B700002F0F6C7EAFFF5C7E9FF01C0EFFF050E47
:103B80000701F127000EF223F02BA4D7EFD0060196
:103B90000701E953D8A48DD0F06BF0514E08D8A09E
:103BA00087D0036AF051EE25016EEF51032201C068
:103BB000F5F703C0F6F7050EF15DF76F000EF25949
:103BC000F86FEC51F725E96EED51F821EA6EEFCF71
:103BD000F9F7040EF15DFA6F000EF259FB6FEC512C
:103BE000FA25E96EED51FB21EA6EEFCFFCF7030EEB
:103BF000F15DFD6F000EF259FE6FEC51FD25E96E8F
:103C0000ED51FE21EA6EEFCFFFF7020EF15D0801E4
:103C1000006F000E0701F2590801016F0701EC5116
:103C200008010025E96E0701ED5108010121EA6E46
:103C3000EFCF02F8010E0701F15D0801036F000EDE
:103C40000701F2590801046F0701EC51080103252F
:103C5000E96E0701ED5108010421EA6EEFCF05F886
:103C60000701EC51F125E96EED51F221EA6EEFCF3B
:103C700006F808012D6B2E6BF9C72FF8FCC730F83A
:103C8000FFC731F802C832F805C833F806C834F85F
:103C9000000156EC02F0F6C7EAFFF5C7E9FF01C0E4
:103CA000EFFF070E0701F15F000EF25BF02B75D7F7
:103CB0005DD0F06BF051270859E3036AF051EE250F
:103CC000016EEF51032201C0F5F703C0F6F7030EB2
:103CD000F15DF76F000EF259F86FEC51F725E96EC0
:103CE000ED51F821EA6EEFCFF9F7020EF15DFA6FB0
:103CF000000EF259FB6FEC51FA25E96EED51FB21F4
:103D0000EA6EEFCFFCF7010EF15DFD6F000EF25988
:103D1000FE6FEC51FD25E96EED51FE21EA6EEFCF0D
:103D2000FFF7EC51F125E96EED51F221EA6EEFCF8C
:103D300000F808012D6B2E6B2F6B306BF9C731F833
:103D4000FCC732F8FFC733F800C834F8000156EC5E
:103D500002F0F6C7EAFFF5C7E9FF01C0EFFF050E65
:103D60000701F15F000EF25BF02BA4D7E9530AE1E3
:103D7000520EF56FEDC7F7F7ECC7F6F70001E2DD7D
:103D800009D007012C0EF56FEDC7F7F7ECC7F6F772
:103D90000001D8DD0701000112000801055303E10D
:103DA0000451000803E2A20E086F02D0A00E086FB3
:103DB00094880A0E006E002EFED794860B0E006EBD
:103DC000002EFED78B9894980A0E006E002EFED718
:103DD0008B96949608C815F800019FDC03C80AF872
:103DE00004C80BF805C80CF808010D6B03C815F8DA
:103DF000000193DC02C815F890DC06C815F88DDCCC
:103E000094980000948682A6FED70A0E006E002EBB
:103E1000FED700D0000094880A0E006E002EFED758
:103E200094880A0E006E002EFED794860B0E006E4C
:103E3000002EFED78B9894980A0E006E002EFED7A7
:103E40008B96949608C815F868DC01500801079114
:103E500001B0078107A11ED094880A0E006E002EC3
:103E6000FED794860B0E006E002EFED782A6FED7DC
:103E70008B9894980A0E006E002EFED78B9694961F
:103E800008C815F8000149DC01500801079101B08C
:103E90000781E0D7000112000701F16BF06BEF6BB7
:103EA000EE6BF26BF36BF46BF56BECC7F1F7EBC7F2
:103EB000F0F7EAC7EFF7E9C7EEF7EEC7F2F7EFC79B
:103EC000F3F7F0C7F4F7F1C7F5F70801056B046BDA
:103ED000036BEDC702F8F2C706F800015EDF010EC2
:103EE0000701ED25F66F0801056B046B036B026F8C
:103EF000F3C706F8000151DF020E0701ED25F66F4A
:103F00000801056B046B036B026FF4C706F8000130
:103F100044DF030E0701ED25F66F0801056B046B06
:103F2000036B026FF5C706F8000137DF1200010EC0
:103F300006019F6F0001C7DC02C0EAF701C0E9F784
:103F400002C0ECF701C0EBF70701EE6B7C0EED6FE2
:103F50000001E7DC01C0E9F7960E07010124016EBC
:103F6000000E022001C020F0216E226A236A0601A1
:103F70009C5310E1916B906B936B926B956B946B70
:103F8000976B966BA05304E10001FC69FB69060185
:103F90009F6BD1D17C0EF66E030EF76E000146ECDE
:103FA00002F00101096B086B010E0C6F91C6E8F776
:103FB00090C6E7F70701E96BE8C7EBF7E7C7EAF751
:103FC000020EED6F0D0EEC6F010EEF6F960EEE6FA1
:103FD0000001C9DC0601916B906B93C6E8F792C6AD
:103FE000E7F7010E0701E96FE8C7EBF7E7C7EAF764
:103FF000050EED6F5F0EEC6F010EEF6FE50EEE6FCD
:104000000001B1DC0601936B926B9F6B200E0101E6
:1040100096250701E66F2352D8A48CD122500108BF
:10402000D8A088D109E12150C308D8A083D104E1E8
:1040300020500D08D8A07ED1E6512508D8A47AD109
:1040400023C003F022C002F021C001F020C000F024
:10405000010E2026D8B0212AD8B4222AD8B4232A87
:1040600001C0EAF700C0E9F70801056B046B01C065
:1040700003F800C002F800C106F800018EDE23C07C
:1040800003F022C002F021C001F020C000F0010EB8
:104090002026D8B0212AD8B4222AD8B4232A01C095
:1040A000EAF700C0E9F70801056B046B01C003F8EB
:1040B00000C002F8FFC006F800016FDE23C003F065
:1040C00022C002F021C001F020C000F0010E202625
:1040D000D8B0212AD8B4222AD8B4232A01C0EAF7BA
:1040E00000C0E9F70801056B046B01C003F800C0CC
:1040F00002F801C106F8000150DE23C003F022C01F
:1041000002F021C001F020C000F0010E2026D8B03E
:10411000212AD8B4222AD8B4232A01C0EAF700C041
:10412000E9F70801056B046B01C003F800C002F851
:1041300002C106F8000131DE23C003F022C002F004
:1041400021C001F020C000F0010E2026D8B0212AA5
:10415000D8B4222AD8B4232A01C0EAF700C0E9F76C
:104160000801056B046B01C003F800C002F803C12D
:1041700006F8000112DE06019B6B9A6B9B5331E13E
:104180009A514E082EE323C003F022C002F021C052
:1041900001F020C000F0010E2026D8B0212AD8B4AA
:1041A000222AD8B4232A01C0EAF700C0E9F7960E04
:1041B0009A25E96E010E9B21EA6EEF503F0B200F0E
:1041C0000701EB6F0801056B046B01C003F800C029
:1041D00002F8066F0001E1DD06019A2BD8B49B2B93
:1041E000CDD74F0E0701F56F010EF76F960EF66FE4
:1041F0000001A2EC1CF006019B6B9A6B9B5331E112
:104200009A5127082EE323C003F022C002F021C0F8
:1042100001F020C000F0010E2026D8B0212AD8B429
:10422000222AD8B4232A01C0EAF700C0E9F7E50E34
:104230009A25E96E010E9B21EA6EEF500F0B300FAD
:104240000701EB6F0801056B046B01C003F800C0A8
:1042500002F8066F0001A1DD06019A2BD8B49B2B52
:10426000CDD7280E0701F56F010EF76FE50EF66F3B
:104270000001A2EC1CF00D0E08011A6F00011DECEC
:1042800002F00A0E08011A6F00011DEC02F0920EF6
:10429000F66E030EF76E46EC02F001010F530BE0D1
:1042A000980EF66E030EF76E000146EC02F0929E39
:1042B000899E0101106B126911690D0E08011A6FB8
:1042C00000011DEC02F00A0E08011A6F00011DEC3E
:1042D00002F0A80EF66E030EF76E46EC02F0010136
:1042E000076B066B0D0E08011A6F00011DEC02F042
:1042F0000A0E08011A6F00011DEC02F0FC6BFB6B4B
:1043000023C0ECF722C0EBF721C0EAF720C0E9F7A1
:10431000190E0701ED6F0001BFDD06019C6B9F6B5D
:10432000010EA06F01010C6F0001FC6BFB6B010122
:104330000E6B07010601000137EF24F0016603D080
:10434000026602D007D0022A00C0EEFF012EFCD781
:10435000022EFAD712000701ED6BEC6BEB6BEA6BE8
:10436000F16BF06BEF6BEE6BF56BF46BF36BF26B69
:10437000F96BF86BF76BF66BFD6BFC6BFB6BFA6B19
:1043800008010D6B0C6B0B6BE9C70AF80001FDEC23
:104390001BF0070101C0EEF7EF6BF06BF16B010E44
:1043A000E925FE6F08010D6B0C6B0B6B0A6F0001AA
:1043B000FDEC1BF00701F56BF46BF36B01C0F2F73A
:1043C000F4C7F5F7F3C7F4F7F2C7F3F7F26B020E91
:1043D000E925FE6F08010D6B0C6B0B6B0A6F00017A
:1043E000FDEC1BF00701F96BF86BF76B01C0F6F7FA
:1043F000F7C7F9F7F6C7F8F7F66BF76B030EE92581
:10440000FE6F08010D6B0C6B0B6B0A6F0001FDEC6E
:104410001BF00701FD6BFC6BFB6B01C0FAF7FAC7E1
:10442000FDF7FA6BFB6BFC6BFA51F611FE6FFB515B
:10443000F711FF6FFC51F8110801006F0701FD51E2
:10444000F9110801016F0701F251FE13F351FF1337
:10445000F451080100130701F55108010113070188
:10446000FE51EE11EA6FFF51EF11EB6F08010051A1
:104470000701F011EC6F080101510701F111ED6F17
:10448000EAC700F0EBC701F0ECC702F0EDC703F09C
:10449000000112002752D8A4ECD026500108D8A061
:1044A000E8D009E12550FF08D8A0E3D004E124506A
:1044B000FE08D8A0DED001011453D8B4B1D0000159
:1044C00063EC1CF002C0E8F701C0E7F70701E7352D
:1044D000E96FE835EA6FE937EA37E937EA37E9376C
:1044E000EA37F00EE9170E0EE927C30EEA23010E94
:1044F000EB6FD894D8B0EB2BEC6B010EE925006E76
:10450000000EEA21016E000EEB21026E000EEC217E
:10451000276E02C026F001C025F000C024F0E66B33
:10452000E6510F0835E3036AE651140FE96E010EF8
:104530000320EA6EE86BEFCFE7F727C003F026C051
:1045400002F025C001F024C000F0010E2426D8B0EE
:10455000252AD8B4262AD8B4272A03C0ECF702C0EB
:10456000EBF701C0EAF700C0E9F703C005F802C0A5
:1045700004F801C003F800C002F8E7C706F800011C
:104580000CDCE7C71AF81DEC02F00701E62BC8D7D0
:104590000801056B046B25C003F824C002F8066B04
:1045A0000001CDEC1EF027C0ECF726C0EBF725C0CC
:1045B000EAF724C0E9F71E0E0701ED6F00016CDC7D
:1045C0001E0E0701E96F0001C6DE03C0ECF702C052
:1045D000EBF701C0EAF700C0E9F72A0EF66E030E0A
:1045E000F76E120E08010E6F00013EEC0CF0410E4A
:1045F000E96EECC711F8EBC710F8EAC70FF8E9C786
:104600000EF816EC13F00A0E08011A6F00011DECEB
:1046100002F00D0E08011A6F00011DEC02F00101FD
:104620000E6B100E0701F56F010EF76F140EF66F8B
:104630000001A2EC1CF00D0E08011A6F00011DEC28
:1046400002F00A0E08011A6F00011DEC02F0420E82
:10465000F66E030EF76E46EC02F00D0E08011A6FAF
:1046600000011DEC02F00A0E08011A6F00011DEC9A
:1046700002F09FEF24F00701E96BE86BEA6BEB6B4C
:10468000E7C7E9F7E6C7E8F7E8C7EAF7E951EB6FEC
:104690000801056B046B036B280E026FEAC706F86E
:1046A0000001CDEC1EF00801056B046B036B290EB5
:1046B000026FEBC706F80001CDEC1EF01200EACF46
:1046C000EEF7E9CFEDF70701E7AF08D0ED8FEDA9E1
:1046D000ED2BE61FE71FE62BD8B4E72BE739F009EF
:1046E000E96FE927E20FEA6F320FEC6FE7510F0B2A
:1046F000EA27EA27EC27E90FEB6FEB27EB27E639F0
:104700000F0BEB27EC27EB37EC37EC1FEC37E651C0
:104710000F0BEC27E937070EE86F0A0EEB07EC27C3
:10472000FDE3EA07EB27FDE3E907EA27FDE3E807F6
:10473000E927FDE3070EEA6EE80EE96E070EED15B8
:10474000ED9DE906ED1507E1EDB9E92AEDB903D0D4
:10475000200E006E1CD0E926EC0EE95CD8B4ED8D7D
:10476000EF50006E08E1EDBD06D0EDB91ED0EDB7FB
:1047700002D0200E0BD0EDAF06D02D0E006EED5006
:10478000ED9DED9F04D0ED87ED99300E0026EACF28
:10479000E7F7E9CFE6F700C01AF800011DEC02F0D8
:1047A000E7C7EAFFE6C7E9FF0701EE50EDADD4D752
:1047B0000001120001010F531DE01251010807E32F
:1047C00003E11151F30803E3112BD8B4122B11515B
:1047D000F40810E1122D0ED0BE0EF66E490EF76EE3
:1047E000000146EC02F0929E899E0101106B112B94
:1047F000D8B4122B0B2D0DD00601A95304E10001F2
:1048000056EC11F005D00001BDEC1AF001C0E5F73F
:1048100001010C2D0CD00601A95304E1000156EC56
:1048200011F005D00001BDEC1AF001C0E5F706015A
:104830008E530FE18D530DE18C530BE18B51040826
:1048400008E3010E8B27D8B08C2BD8B48D2BD8B4AD
:104850008E2B8B5105082BE18C5329E18D5327E1D9
:104860008E5325E1A12D04D0000197EF1FF0060122
:10487000020EEA6E0D0EE96E006A030E026E520E13
:10488000016E00015BDD050EEA6E5F0EE96E006AE7
:10489000010E026E2C0E016E51DD0601A26B010E9F
:1048A0008B27D8B08C2BD8B48D2BD8B48E2B080185
:1048B0000D6B0C6B0B6B940E0A6F0001FDEC1BF083
:1048C00001C024F1020E0701EC6FBC0EEB6FEE6B22
:1048D00024C1EDF7000191EC1CF002C003F0FC5183
:1048E000025C07E303E10150FB5D03E2FB2BD8B45C
:1048F000FC2B020E0701EC6FBC0EEB6FEE6B24C1BC
:10490000EDF7000191EC1CF002C003F00150FB5DDB
:1049100053E10350FC5D50E1FB2BD8B4FC2B63EC5E
:104920001CF002C0E4F701C0E3F70701E4510308FB
:1049300013E303E1E351A1080FE30001ABD5010E3E
:104940000701E327000EE423E4C7E7F7E3C7E6F730
:10495000000191DE09D00701CE0EF66E490EF76E0A
:10496000000146EC02F028D0DE0EF66E490EF76E1E
:1049700046EC02F0EE0EF66E490EF76E140E0801CC
:104980000E6F00013EEC0CF0100EE96EE4C7E7F785
:10499000E3C7E6F794DE050EF66E4A0EF76E030ED9
:1049A00008010E6F00013EEC0CF00601A06B010146
:1049B0000C6B929C899C0001F29436EF00F00A0D7A
:1049C0004B65792072656C656173650A0D000D0A8F
:1049D00046756C6C206D656D6F72790D0A000D0A5D
:1049E000536176696E672050494E0D0A00000D0A2A
:1049F0006E657874207472616E73616374696F6E32
:104A00002028256C64290D0A000020736176655FFB
:104A1000707472636172643D256C750A0D006E6579
:104A200077206B65626F617264206D6F64650A0D3B
:104A300000004F6C64206B65626F617264206D6F63
:104A400064650A0D0000536C61766572206D6F64B9
:104A5000652069732064697361626C650A0D0000EA
:104A6000536C61766572206D6F6465206973206593
:104A70006E61626C650A0D0070617373776F7264AA
:104A80003A00204F4B0A0D0020580A0D0000948672
:104A90009488F19EF7EF36F00701BE6BBB51BE5D07
:104AA00029E2036ABE51BC25016EBD51032201C03B
:104AB000BFF703C0C0F7BE51BA25C16F196AF2BE75
:104AC000198EF29E08010D6B0C6B0B6B0A6F0001C7
:104AD000FDEC1BF019BEF28EC0C7EAFFBFC7E9FFAD
:104AE00001C0EFFF1A0E006E002EFED70000070176
:104AF000BE2BD4D7000112000701D36BD051D35D78
:104B000025E2D351CF25D46F036AD351D125E96E65
:104B1000D2510320EA6EEFCFD5F7196AF2BE198E93
:104B2000F29E0801056B046B036BD4C702F8D5C76E
:104B300006F80001CDEC1EF019BEF28E1A0E006EC2
:104B4000002EFED700000701D32BD8D7000112009A
:104B50000701BA6B140EBB6FBD6B550EBC6F000125
:104B60009BDF553C2BD0563C29D0643D27D0EA6AC8
:104B70002D0EE96E006A026A140E016E9EEC21F0A1
:104B8000EA6A2D0EE96E000E5DEC00F00A000900E5
:104B9000F550EE6E0009FBE10701CF6B140ED06FEC
:104BA000D26B2D0ED16F0001A7DF0701BA6B140E77
:104BB000BB6FBD6B550EBC6F00016EDF1200948899
:104BC0000A0E006E002EFED794860B0E006E002E8D
:104BD000FED78B9894980A0E006E002EFED78B9607
:104BE0009496196AF2BE198EF29ED00E0801156FC6
:104BF00000018DEC1BF019BEF28E196AF2BE198EFF
:104C0000F29EBEC715F88DEC1BF019BEF28E94888B
:104C10000A0E006E002EFED794860B0E006E002E3C
:104C2000FED782A6FED78B9894980A0E006E002EAF
:104C3000FED78B969496196AF2BE198EF29ED10E0B
:104C40000801156F00018DEC1BF019BEF28E006A91
:104C5000196AF2BE198EF29EC8EC1BF019BEF28ED4
:104C600001C0BFF794980000948682A6FED70A0E72
:104C7000006E002EFED700D0000094880A0E006E51
:104C8000002EFED70701BFC701F000011200070187
:104C9000BE6B000194DF01C084F70701849F9488F4
:104CA0000A0E006E002EFED794860B0E006E002EAC
:104CB000FED78B9894980A0E006E002EFED78B9626
:104CC0009496196AF2BE198EF29ED00E0801156FE5
:104CD00000018DEC1BF019BEF28E196AF2BE198E1E
:104CE000F29E0801156B00018DEC1BF019BEF28ECF
:104CF000196AF2BE198EF29E84C715F88DEC1BF06E
:104D000019BEF28E94880A0E006E002EFED794868D
:104D10000B0E006E002EFED782A6FED78B989498BD
:104D20000A0E006E002EFED78B969496196AF2BE7C
:104D3000198EF29ED00E0801156F00018DEC1BF04C
:104D400019BEF28E196AF2BE198EF29E070E080184
:104D5000156F00018DEC1BF019BEF28E196AF2BEC0
:104D6000198EF29E800E0801156F00018DEC1BF06C
:104D700019BEF28E94980000948682A6FED70A0E81
:104D8000006E002EFED700D0000094880A0E006E40
:104D9000002EFED728EF37F0948282B2FED7080E9D
:104DA000006E0701C36B008E0ED0009E0CD0D89011
:104DB00082B2D880C333008C06D0009C002EF7D777
:104DC000C3C701F015D0010EE96E000E00BE550EEE
:104DD000016E012EFED7E92EF8D70D0E00BE030E90
:104DE000016E012EFED700BEE0D700BCE6D7DFD7AC
:104DF000000112000701C16BC06BC26BC153D8A484
:104E000091D0BB51C05DD8B08DD0C253D8A48AD048
:104E10000001C2DF01C0BEF70701BE517F0A0001D9
:104E200003E0720A28E046D00701C05302E1C153F3
:104E300015E0196AF2BE198EF29E7F0E08011A6FF4
:104E400000011DEC02F019BEF28E0701C051D8B46A
:104E5000C107C0070001A0DF0DD00701196AF2BE2B
:104E6000198EF29E070E08011A6F00011DEC02F068
:104E700019BEF28E55D001010B6BFF0E926EC0C7AA
:104E8000BFF70701BB51BF5D0AE2036ABF51BC25F2
:104E9000E96EBD510320EA6EEF6ABF2BF3D7C05312
:104EA00005E1C15303E1000E016E3ED0010EC26F59
:104EB000000136D00701BE511F0833E2BE517E0803
:104EC00030E3010EBB5DC1532CE1C05D2AE2BC5151
:104ED000C025E96EBD51C121EA6EBEC7EFFFC02BF0
:104EE000D8B4C12BBA2D0DD0196AF2BE198EF29E1C
:104EF000BEC71AF800011DEC02F019BEF28E10D0E8
:104F00000701BA5102080DE1196AF2BE198EF29E2C
:104F10002A0E08011A6F00011DEC02F019BEF28E74
:104F200007016CD7C0C701F000011200BBC7BFF773
:104F3000BAC7BEF7BDC7C1F7BCC7C0F7BFC703F04C
:104F40000701BEC7E9FFBFC7EAFFEF5223E0C1C7B1
:104F500003F0C0C7E9FFC1C7EAFFEF521BE0BEC7BD
:104F6000E9FFBFC7EAFFEFCFC2F7C1C703F0C0C771
:104F7000E9FFC1C7EAFFEF50C25D03E0010E016E19
:104F80001FD0BE2BD8B4BF2BC02BD8B4C12B00016F
:104F9000D5D70701BFC703F0BEC7E9FFBFC7EAFF08
:104FA000EFCFC2F7C1C703F0C0C7E9FFC1C7EAFF2F
:104FB000EF50C25D03E0010E016E02D0000E016EE3
:104FC00000011200EF5216E0EACFBBF7E9CFBAF7C3
:104FD000196AF2BE198EF29EEFCF1AF81DEC02F09C
:104FE00019BEF28EBBC7EAFFBAC7E9FFE92AD8B4F7
:104FF000EA2AE8D77BEF2BF00701BE51BC25BF5151
:10500000BD21C56FC36BC26BC351BF5D2DE303E10F
:10501000BE51C25D29E2C051C225016EC151C321FA
:10502000036E01C0C4F7C56FC251BC25C66FC35122
:10503000BD21C76F196AF2BE198EF29E08010D6B71
:105040000C6B0B6FC6C70AF80001FDEC1BF019BE14
:10505000F28EC5C7EAFFC4C7E9FF01C0EFFF070131
:10506000C22BD8B4C32BD0D700012CEF2CF0200ECC
:105070000701BBA9300EBC6FBAC700F0BAAF08D0A9
:10508000001E002A00C0BAF72D0EBC6FBB8FBB817B
:105090000150196AF2BE198EF29EBAC700F8640E6A
:1050A0000801016F0001B2EC0CF019BEF28E00C0D5
:1050B000BAF7300E01240701BD6F196AF2BE198ECE
:1050C000F29EBAC700F80A0E0801016F0001B2ECA7
:1050D0000CF019BEF28E300E00240701BF6F300EA7
:1050E0000124BE6FBCC700F0300EBD5D04E0BB8381
:1050F000BBBFBB8512D0BBB510D0BCC7BDF7BBB31F
:1051000004D0300EBE5D04E0BB81BBBFBB8305D0C5
:10511000D8A4BB81D8B4BDC7BEF7BBB505D0BBB35F
:105120000FD0BBB119D024D0196AF2BE198EF29EED
:10513000BCC71AF800011DEC02F019BEF28E07017F
:10514000196AF2BE198EF29EBDC71AF800011DEC55
:1051500002F019BEF28E0701196AF2BE198EF29E94
:10516000BEC71AF800011DEC02F019BEF28E07014D
:10517000196AF2BE198EF29EBFC71AF800011DEC23
:1051800002F019BEF28E12000701BD6B010EBC6F5A
:10519000C30EBB6F0F0EBA6FBD51275C29E30BE145
:1051A000BC51265C25E307E1BB51255C21E303E10B
:1051B0002450BA5D1DE2196AF2BE198EF29EBDC777
:1051C00005F8BCC704F8BBC703F8BAC702F8080162
:1051D000066B0001CDEC1EF019BEF28E010E070128
:1051E000BA27D8B0BB2BD8B4BC2BD8B4BD2BD4D7DE
:1051F000BD6BBC6BBB6B960EBA6FBD51235C29E3D4
:105200000BE1BC51225C25E307E1BB51215C21E3AA
:1052100003E12050BA5D1DE2196AF2BE198EF29EBA
:10522000BDC705F8BCC704F8BBC703F8BAC702F886
:105230000801066B0001CDEC1EF019BEF28E010EC6
:105240000701BA27D8B0BB2BD8B4BC2BD8B4BD2B20
:10525000D4D7236A226A216A960E206E276A010E2D
:10526000266EC30E256E0F0E246E196AF2BE198EBD
:10527000F29E23C0ECF722C0EBF721C0EAF720C072
:10528000E9F7190EED6F00014CEC1FF019BEF28E1C
:10529000196AF2BE198EF29E27C0ECF726C0EBF712
:1052A00025C0EAF724C0E9F71E0E0701ED6F0001E3
:1052B0004CEC1FF019BEF28E196AF2BE198EF29EE6
:1052C0000701E76BE66B00013BEC23F019BEF28EA1
:1052D000196AF2BE198EF29E63EC1CF019BEF28EB2
:1052E00002C0FAF001C0F9F0E5EF2DF0236A226A5E
:1052F000216A960E206E276A010E266EC30E256E59
:105300000F0E246E196AF2BE198EF29E23C0ECF7BE
:1053100022C0EBF721C0EAF720C0E9F7190E070118
:10532000ED6F00014CEC1FF019BEF28E196AF2BE4F
:10533000198EF29E27C0ECF726C0EBF725C0EAF7DE
:1053400024C0E9F71E0E0701ED6F00014CEC1FF0C1
:1053500019BEF28E196AF2BE198EF29E0701E76B32
:10536000E66B00013BEC23F019BEF28E18EF2EF035
:105370000701CE6BCE5113080AE3036ACE51BA0F70
:10538000E96E070E0320EA6EEF68CE2BF3D7CF6BE2
:10539000140ED06F070ED26FBA0ED16F00017CECE5
:1053A00025F04BEF2EF0196AF2BE198EF29E08011D
:1053B000056B046B036B940E026F030E066F000106
:1053C000CDEC1EF019BEF28E196AF2BE198EF29E55
:1053D0000801056B046B036B910E026F010E066FE3
:1053E0000001CDEC1EF019BEF28E196AF2BE198EC4
:1053F000F29E08010D6B0C6B0B6B910E0A6F000196
:10540000FDEC1BF019BEF28E01C0A9F6A9EF2EF03B
:10541000BFC7C0F70701C039006E0F0E001600505D
:105420000A0DF3CFBFF7C039006EF00E0016005022
:10543000003A0F0E00160050BF27BFC701F0000151
:1054400012000150196AF2BE198EF29EBAC700F816
:10545000640E0801016F0001B2EC0CF019BEF28E6F
:1054600000C0BAF70150300E08E10701BBA316D007
:10547000BBB714D0BBB9200E04D00701BB97BB99B2
:10548000BB810126196AF2BE198EF29E01C01AF87C
:1054900000011DEC02F019BEF28E0701196AF2BE7E
:1054A000198EF29EBAC700F80A0E0801016F0001BA
:1054B000B2EC0CF019BEF28E00C0BAF70150300EFB
:1054C00008E10701BBB711D0BBA10FD0BBB9200EBB
:1054D00000010126196AF2BE198EF29E01C01AF867
:1054E0001DEC02F019BEF28E0701300EBA27196AC0
:1054F000F2BE198EF29EBAC71AF800011DEC02F036
:1055000019BEF28EEEEF2FF00701BC6BBBC703F0A4
:10551000BA51BA2BD8B4BB2BE96E03C0EAFFEFCF68
:10552000BEF7BE5311E0BE512F0807E2BE51390845
:1055300004E3300EBE5DBD6F01D006D0BC510A0D34
:10554000F350BD25BC6FE2D7036ABCC701F003C0AE
:1055500002F00001120094880A0E006E002EFED7A1
:1055600094860B0E006E002EFED78B9894980A0E30
:10557000006E002EFED78B9694961A0E006E002EAB
:10558000FED70000196AF2BE198EF29ED00E0801F5
:10559000156F00018DEC1BF019BEF28E1A0E006E15
:1055A000002EFED70000196AF2BE198EF29EC1C706
:1055B00015F88DEC1BF019BEF28E1A0E006E002E3F
:1055C000FED70000196AF2BE198EF29EC2C715F806
:1055D0008DEC1BF019BEF28E94980000948682A682
:1055E000FED70A0E006E002EFED700D00000948871
:1055F0000A0E006E002EFED71A0E006E002EFED789
:1056000000001200196AF2BE198EF29EC0C700F89F
:105610000A0E0801016F0001B2EC0CF019BEF28E07
:1056200001C0C1F70701C1510A0DF350C05DC26F3F
:10563000C139006EF00E00160050C211016E00015B
:1056400012000701C16BC26B000185DFBFC7C0F745
:10565000D9DF01C0C0F7010E0701C16F01C0C2F759
:10566000000179DFBEC7C0F7CDDF01C0C0F7020E71
:105670000701C16F01C0C2F700016DDFBDC7C0F7F0
:10568000C1DF01C0C0F7030E0701C16F01C0C2F73F
:10569000000161DFBAC7C0F7B5DF01C0C0F7040E73
:1056A0000701C16F01C0C2F7000155DFBBC7C0F7DA
:1056B000A9DF01C0C0F7050E0701C16F01C0C2F725
:1056C000000149DFBCC7C0F79DDF01C0C0F7060E6F
:1056D0000701C16F01C0C2F700013DDF070E0701DE
:1056E000C16FC26B000137DF98EF31F0060EEA6E32
:1056F000AE0EE96E67D4196AF2BE198EF29E3E0EA6
:1057000008011A6F00011DEC02F019BEF28E010EA5
:105710000701BA6F140EBB6F010EBD6F2C0EBC6F6C
:105720000001FAEC26F0196AF2BE198EF29E0A0EFA
:1057300008011A6F00011DEC02F019BEF28E196A01
:10574000F2BE198EF29E0D0E08011A6F00011DECBB
:1057500002F019BEF28EEA6A410EE96E000E8EEC7E
:1057600000F00A000900F550EE6E0009FBE10701A8
:10577000846B0601A46BA66B010EA56F0701BB6FBE
:105780002C0EBA6FBD6B410EBC6F000196EC27F07A
:105790000152D8A4F3D10701B96BB86B00017D6B3E
:1057A000196AF2BE198EF29E63EC1CF019BEF28EDD
:1057B00002C0A8F601C0A7F6196AF2BE198EF29EC1
:1057C000A6C6ECF7A5C6EBF70701EE6B7C0EED6FF6
:1057D000000191EC1CF019BEF28E02C0B9F701C0B5
:1057E000B8F70601AD6B010EAC6FC30EAB6F0F0EB9
:1057F000AA6FA651A85DD8A0C0D104E1A551A75DAC
:10580000D8A0BBD1196AF2BE198EF29EA6C6ECF7DB
:10581000A5C6EBF70701EE6B7C0EED6F000191EC76
:105820001CF019BEF28E960E07010124B86F000E0F
:105830000220B96F7C0EB85DBA6F000EB959BB6F0C
:10584000BD6FBAC7BCF7BF6B7C0EBE6FC16B7D0E60
:10585000C06F0001FCEF27F0100EE96E196AF2BE6E
:10586000198EF29EA6C6E7F7A5C6E6F75FEC23F011
:1058700019BEF28E196AF2BE198EF29E290E080127
:105880001A6F00011DEC02F019BEF28E7DC0BAF74E
:10589000010E0701BB6F000137EC28F0196AF2BE58
:1058A000198EF29E2F0E08011A6F00011DEC02F0F6
:1058B00019BEF28E7EC0BAF7010E0701BB6F000160
:1058C00037EC28F0196AF2BE198EF29E200E0801FC
:1058D0001A6F00011DEC02F019BEF28E7FC0BAF7FC
:1058E000010E0701BB6F000137EC28F0196AF2BE08
:1058F000198EF29E3A0E08011A6F00011DEC02F09B
:1059000019BEF28E80C0BAF7010E0701BB6F00010D
:1059100037EC28F0196AF2BE198EF29E3A0E080191
:105920001A6F00011DEC02F019BEF28E81C0BAF7A9
:10593000010E0701BB6F000137EC28F00601A46BD4
:105940000701846BE60EF66E1E0EF76E196AF2BE44
:10595000198EF29E000146EC02F019BEF28E07018C
:1059600084514E082EE30601A4513F08D8A402D06A
:10597000070127D0050E07018425036A7D0FE96E14
:10598000000E0320EA6EEFCFA4F60601A4511F0813
:105990000EE2A4517E080BE3196AF2BE198EF29E44
:1059A000A4C61AF800011DEC02F019BEF28E070120
:1059B000842B0601A45302E1070103D00001CFD7D5
:1059C0000701F80EF66E1E0EF76E196AF2BE198EFA
:1059D000F29E000146EC02F019BEF28E0701846BC4
:1059E0000601A46B0701845127082FE30601A45187
:1059F0003F08D8A402D0070128D0050E070184254E
:105A00004F0F036A7D0FE96E000E0320EA6EEFCFA1
:105A1000A4F60601A4511F080EE2A4517E080BE370
:105A2000196AF2BE198EF29EA4C61AF800011DEC86
:105A300002F019BEF28E0701842B0601A45303E184
:105A4000070103D00601CED70701846B0A0EF66E5C
:105A50001F0EF76E196AF2BE198EF29E000146EC17
:105A600002F019BEF28E0601AD51275CD8A081D09C
:105A70000EE1AC51265CD8A07CD009E1AB51255C8D
:105A8000D8A077D004E12450AA5DD8B072D0070125
:105A9000856B85510601AA250701BA6F000E060124
:105AA000AB210701BB6F000E0601AC210701BC6FE3
:105AB000000E0601AD210701BD6F196AF2BE198EF5
:105AC000F29EE8CF0DF8BCC70CF8BBC70BF8BAC7FD
:105AD0000AF80001FDEC1BF019BEF28E01C0A4F61D
