:04000000F9EF35F0EF
:08000800046ED8CF05F0E0CF33
:1000100006F00001E9CF0CF0EACF07F0E1CF08F0DD
:10002000E2CF09F0D9CF0AF0DACF0BF0F3CF12F01C
:10003000F4CF13F0FACF14F0F5CF15F0F6CF16F099
:10004000F7CF17F000C00EF001C00FF002C010F0A3
:1000500003C011F0F2AA30EF00F0F2B487EF23F002
:100060009DA036EF00F09EB0CFEF11F0F0A63CEF70
:1000700000F0F0B05BEF0EF09DAA42EF00F09EBAE8
:1000800066EF11F00EC000F00FC001F010C002F0DA
:1000900011C003F00CC0E9FF07C0EAFF078E08C0DB
:1000A000E1FF09C0E2FF0AC0D9FF0BC0DAFF12C0AE
:1000B000F3FF13C0F4FF14C0FAFF15C0F5FF16C01C
:1000C000F6FF17C0F7FF045006C0E0FF05C0D8FFD9
:1000D0001000F76AE20FF66E000EF7220900F550E5
:1000E000120061646D696E00F76AF80FF66E000E1B
:1000F000F7220900F55012003132334142343536CF
:10010000434437383945462A30234748F76A1C0F9D
:10011000F66E010EF7220900F5501200313233411C
:1001200042433435364445463738394748492A3002
:10013000234A4B4DF76A440FF66E010EF722090071
:10014000F5501200646F6E650000F76A5A0FF66E84
:10015000010EF7220900F550120072736661637494
:100160000000F76A720FF66E010EF7220900F550D3
:10017000120070617373776F72640000F76A8C0FFE
:10018000F66E010EF7220900F550120046756C6CF0
:10019000206D656D6F72792C20706C6561736520C0
:1001A000666F726D6174206D656D6F727900F76AAC
:1001B000BE0FF66E010EF7220900F55012007265AF
:1001C000646F6F00F76AD40FF66E010EF722090014
:1001D000F5501200676F6F6462796500F76AEC0F83
:1001E000F66E010EF7220900F550120077726F6E5D
:1001F000672070617373776F72640000F76A0C0F89
:10020000F66E020EF7220900F550120068656C6C5C
:100210006F00F76A220FF66E020EF7220900F55002
:1002200012006B657970726573730000F76A3C0F9A
:10023000F66E020EF7220900F55012006F6E0000F4
:10024000F76A500FF66E020EF7220900F550120001
:100250006F666600F76A640FF66E020EF7220900F9
:10026000F5501200706C6561736520636865636B9F
:1002700020796F75722073796E7461780000F76A67
:100280008E0FF66E020EF7220900F55012006D6116
:10029000737465720000F76AA60FF66E020EF722FD
:1002A0000900F55012006B6F666B62206E65770077
:1002B000F76AC00FF66E020EF7220900F550120021
:1002C0006B6F666B62206F6C6400F76ADA0FF66E14
:1002D000020EF7220900F55012007472616E746903
:1002E0006D650000F76AF40FF66E020EF722090042
:1002F000F55012006175746F73656E64696E670006
:10030000F76A100FF66E030EF7220900F55012007F
:1003100071756C6C6600F76A260FF66E030EF72295
:100320000900F5501200666F726D61740000F76A83
:100330003E0FF66E030EF7220900F5501200636FB0
:10034000756E747265630000F76A580FF66E030EDF
:10035000F7220900F550120064657669636520682C
:1003600061732000F76A740FF66E030EF72209001E
:10037000F5501200207472616E73616374696F6E60
:100380002000F76A920FF66E030EF7220900F5506F
:100390001200646F776E6C6F616420616C6C00009A
:1003A000F76AB00FF66E030EF7220900F55012003F
:1003B000646F776E6C6F61642000F76ACA0FF66E27
:1003C000030EF7220900F550120044657669636553
:1003D00020686173206F6E6C79200000F76AEC0F63
:1003E000F66E030EF7220900F550120020547261D8
:1003F000636B313E0000F76A060FF66E040EF722BB
:100400000900F550120020547261636B323E000007
:10041000F76A200FF66E040EF7220900F55012005D
:100420002050494E3A00636F6C30203D20256C759A
:100430000D0A0000636F6C31203D20256C750D0A9C
:100440000000636F6C32203D20256C750D0A0000A2
:10045000636F6C33203D20256C750D0A0000636FBF
:100460006C34203D20256C750D0A0000636F6C30E4
:10047000203D20256C750D0A0000636F6C31203D16
:1004800020256C750D0A0000636F6C32203D20251D
:100490006C750D0A0000636F6C33203D20256C7570
:1004A0000D0A0000636F6C34203D20256C750D0A29
:1004B0000000636F6C35203D20256C750D0A00002F
:1004C0006B657920646174615B25645D2025630D33
:1004D0000A00446F6E652050494E00004B6579005C
:1004E00041540D0A000041542B434D47463D310D08
:1004F0000A0041540D0A000041540D0A0000415405
:100500000D0A000041540D0A000041540D0A00007C
:1005100041542B43504F57440D0A000041542B4384
:100520004D47443D310D0A0041542B434D47443D56
:10053000320D0A0041542B434D47443D330D0A0010
:1005400041542B434D47443D340D0A0041542B4345
:100550004D47443D350D0A0041542B434D47443D22
:10056000360D0A0041542B434D47443D370D0A00D8
:1005700041542B434D47443D380D0A0041542B4311
:100580004D47533D000041542B434D47463D310DEF
:100590000A0041542B434D47523D310D0A000A0DCC
:1005A0004E657720534D5320256C750A0D000A0DBA
:1005B00052454320554E524541440A0D00000A0D54
:1005C00052494E4720256C750A0D00005265616442
:1005D0007920284D5420616C6C6F777320636F6DA8
:1005E0006D616E64732066726F6D2054412F5445A7
:1005F00029256C750A0D00004E6F206E6574776FAB
:10060000726B0A0D00007265736574696E67206D08
:100610006F64756C652053494D0A0D0052696E6711
:10062000696E670A0D0043616C6C20696E20707200
:100630006F67726573730A0D00000A0D554E4445CD
:10064000522D564F4C54414745205741524E4E492A
:100650004E470A0D00000A0D4F5645522D564F4C7D
:100660005441474520504F57455220444F574E0A5A
:100670000D000D0A4249545F547261636B3120448E
:100680006174613A0D0A00000D0A4249545F5472C8
:1006900061636B3220446174613A0D0A00000D0AF7
:1006A000536176696E6720436172642044617461AE
:1006B0000D0A0000446F6E6500000A0D4B6579203D
:1006C00072656C656173650A0D0057616974696EC6
:1006D0006720666F722050494E206E756D6265729C
:1006E00000000D0A636F756E746269745F54313A6D
:1006F000256C750D0A000D0A636F756E746269745E
:100700005F54323A256C750D0A000D0A72656164FA
:10071000696E67206572726F722054310D0A000095
:100720000D0A72656164696E67206572726F72206E
:1007300054320D0A0000020E0A01B45F0CE30A0EE7
:10074000EA6EB40EE96EEF5006E003D000D000D0A0
:100750000000EF2EFBD70001120094908B90080E42
:10076000016E00D00000018E10D0019E0A01DF331F
:100770000001D8B08B80D8A08B90018C06D0019C52
:10078000012EF4D700D000008B80100EE96EE92E08
:10079000FED700D0000001BEE8D701BCF0D71200A0
:1007A0000900F5520CE0F6CFBEFAF7CFBFFAF5CF4D
:1007B000DFFAD3DFBECAF6FFBFCAF7FFF1D71200D8
:1007C0000A01EF6BF06BE7B1F08FE839006E00368D
:1007D0000036C00E00160050F013E939006E0036E6
:1007E000E00E00160050F013EA39006EF00E00160D
:1007F0000050F013EB35006E00360036F80E001690
:100800000050F013EC35006E0036FC0E0016005060
:10081000F013D890ED35F013EE51F011EF6FEFCAF1
:1008200001F0000112000A01D76BD2536AE1D551E1
:10083000D325E96ED651D421EA6EEFCFD8FA010E56
:10084000D325D96F000ED421DA6FD551D925E96EA1
:10085000D651DA21EA6EEF50D81B020ED325DB6F9A
:10086000000ED421DC6FD551DB25E96ED651DC2199
:10087000EA6EEF50D81B030ED325DD6F000ED42196
:10088000DE6FD551DD25E96ED651DE21EA6EEF50DF
:10089000D81B040ED325DF6F000ED421E06FD55195
:1008A000DF25E96ED651E021EA6EEF50D81B050E28
:1008B000D325E16F000ED421E26FD551E125E96E19
:1008C000D651E221EA6EEF50D81902E0000E01D0B5
:1008D000010ED76F060ED325D86F000ED421D96F25
:1008E000D551D825E96ED651D921EA6EEF50D75DA2
:1008F00004E1010E016E6DD003D0000E016E69D0CF
:1009000068D0D551D325E96ED651D421EA6EEFCF08
:10091000D8FA010ED35DD96F000ED459DA6FD551D4
:10092000D925E96ED651DA21EA6EEF50D81B020EB6
:10093000D35DDB6F000ED459DC6FD551DB25E96E3A
:10094000D651DC21EA6EEF50D81B030ED35DDD6F6C
:10095000000ED459DE6FD551DD25E96ED651DE216A
:10096000EA6EEF50D81B040ED35DDF6F000ED45932
:10097000E06FD551DF25E96ED651E021EA6EEF50E8
:10098000D81B050ED35DE16F000ED459E26FD5512F
:10099000E125E96ED651E221EA6EEF50D81902E066
:1009A000000E01D0010ED76F060ED35DD86F000E7A
:1009B000D459D96FD551D825E96ED651D921EA6ECF
:1009C000EF50D75D04E1010E016E03D002D0000E9E
:1009D000016E000112000A01D76BD2534EE1D551CE
:1009E000D325E96ED651D421EA6EEFCFD8FA010EA5
:1009F000D325D96F000ED421DA6FD551D925E96EF0
:100A0000D651DA21EA6EEF50D81B020ED325DB6FE8
:100A1000000ED421DC6FD551DB25E96ED651DC21E7
:100A2000EA6EEF50D81B030ED325DD6F000ED421E4
:100A3000DE6FD551DD25E96ED651DE21EA6EEF502D
:100A4000D81902E0000E01D0010ED76F040ED32595
:100A5000D86F000ED421D96FD551D825E96ED65163
:100A6000D921EA6EEF50D75D04E1010E016E51D03D
:100A700003D0000E016E4DD04CD0D551D325E96E78
:100A8000D651D421EA6EEFCFD8FA010ED35DD96FDB
:100A9000000ED459DA6FD551D925E96ED651DA2135
:100AA000EA6EEF50D81B020ED35DDB6F000ED459F7
:100AB000DC6FD551DB25E96ED651DC21EA6EEF50B3
:100AC000D81B030ED35DDD6F000ED459DE6FD551F8
:100AD000DD25E96ED651DE21EA6EEF50D81902E02D
:100AE000000E01D0010ED76F040ED35DD86F000E3B
:100AF000D459D96FD551D825E96ED651D921EA6E8E
:100B0000EF50D75D04E1010E016E03D002D0000E5C
:100B1000016E000112000A01CE6BCF6BD06BD16B5E
:100B2000CB6BCA6BC731036EC631026E0332023221
:100B30003F0E031602C001F0CB51035CD8A0DFD2F8
:100B400004E10150CA5DD8B0DAD2C553D8A49AD115
:100B5000060ECA25D26F000ECB21D36FC851D22505
:100B6000E96EC951D321EA6EEFCFD4FA050ECA253A
:100B7000D56F000ECB21D66FC851D525E96EC9516E
:100B8000D621EA6EEFCFD7FA040ECA25D86F000E31
:100B9000CB21D96FC851D825E96EC951D921EA6E48
:100BA000EFCFDAFA030ECA25DB6F000ECB21DC6F24
:100BB000C851DB25E96EC951DC21EA6EEFCFDDFAC1
:100BC000020ECA25DE6F000ECB21DF6FC851DE2575
:100BD000E96EC951DF21EA6EEFCFE0FA010ECA25B6
:100BE000E16F000ECB21E26FC851E125E96EC951DA
:100BF000E221EA6EEFCFE3FAC851CA25E96EC95186
:100C0000CB21EA6EEFCFE4FAE76BD4CAE8FAD7CA91
:100C1000E9FADACAEAFADDCAEBFAE0CAECFAE3CAA0
:100C2000EDFAE4CAEEFA0001CBDD01C0CEFA0D0EFA
:100C30000A01CA25D26F000ECB21D36FC851D2252D
:100C4000E96EC951D321EA6EEFCFD4FA0C0ECA2552
:100C5000D56F000ECB21D66FC851D525E96EC9518D
:100C6000D621EA6EEFCFD7FA0B0ECA25D86F000E49
:100C7000CB21D96FC851D825E96EC951D921EA6E67
:100C8000EFCFDAFA0A0ECA25DB6F000ECB21DC6F3C
:100C9000C851DB25E96EC951DC21EA6EEFCFDDFAE0
:100CA000090ECA25DE6F000ECB21DF6FC851DE258D
:100CB000E96EC951DF21EA6EEFCFE0FA080ECA25CE
:100CC000E16F000ECB21E26FC851E125E96EC951F9
:100CD000E221EA6EEFCFE3FA070ECA25E46F000EB9
:100CE000CB21E56FC851E425E96EC951E521EA6ED3
:100CF000EFCFE6FAE76BD4CAE8FAD7CAE9FADACA5C
:100D0000EAFADDCAEBFAE0CAECFAE3CAEDFAE6CA9F
:100D1000EEFA000155DD01C0CFFA0A01CE514508B7
:100D2000D8A4AFD0CF517C08D8B4ABD0CF513E08B7
:100D3000D8B4A7D0CF511F08D8B4A3D0CBCACDFA0E
:100D4000CACACCFA010ED16FCECAD0FAD0511F0850
:100D5000D8B48CD0CD510308D8A088D004E1CC51B0
:100D6000E708D8A083D0D26BCDCAD4FACCCAD3FAC4
:100D7000C9CAD6FAC8CAD5FA000155DD01500A0120
:100D8000D117060ECC25D26F000ECD21D36FC851DE
:100D9000D225E96EC951D321EA6EEFCFD4FA050E00
:100DA000CC25D56F000ECD21D66FC851D525E96E63
:100DB000C951D621EA6EEFCFD7FA040ECC25D86FF1
:100DC000000ECD21D96FC851D825E96EC951D9215E
:100DD000EA6EEFCFDAFA030ECC25DB6F000ECD21E1
:100DE000DC6FC851DB25E96EC951DC21EA6EEFCF1B
:100DF000DDFA020ECC25DE6F000ECD21DF6FC8516B
:100E0000DE25E96EC951DF21EA6EEFCFE0FA010E6F
:100E1000CC25E16F000ECD21E26FC851E125E96ECE
:100E2000C951E221EA6EEFCFE3FAC851CC25E96E51
:100E3000C951CD21EA6EEFCFE4FAE76BD4CAE8FAE4
:100E4000D7CAE9FADACAEAFADDCAEBFAE0CAECFA7A
:100E5000E3CAEDFAE4CAEEFA0001B2DC01C0D0FA4E
:100E6000070E0A01CC27000ECD2370D7D12D09D053
:100E70000901996B0A01CACA01F0CBCA02F08AEFD4
:100E80000BF039D1040ECA25D26F000ECB21D36FDF
:100E9000C851D225E96EC951D321EA6EEFCFD4FAF9
:100EA000030ECA25D56F000ECB21D66FC851D525AC
:100EB000E96EC951D621EA6EEFCFD7FA020ECA25E4
:100EC000D86F000ECB21D96FC851D825E96EC95112
:100ED000D921EA6EEFCFDAFA010ECA25DB6F000ED8
:100EE000CB21DC6FC851DB25E96EC951DC21EA6EEC
:100EF000EFCFDDFAC851CA25E96EC951CB21EA6EA0
:100F0000EFCFDEFAE76BE86BE96BD4CAEAFAD7CA2F
:100F1000EBFADACAECFADDCAEDFADECAEEFA000143
:100F20004FDC01C0CEFA090E0A01CA25D26F000EAD
:100F3000CB21D36FC851D225E96EC951D321EA6EB6
:100F4000EFCFD4FA080ECA25D56F000ECB21D66F8D
:100F5000C851D525E96EC951D621EA6EEFCFD7FA2F
:100F6000070ECA25D86F000ECB21D96FC851D825DE
:100F7000E96EC951D921EA6EEFCFDAFA060ECA2519
:100F8000DB6F000ECB21DC6FC851DB25E96EC95148
:100F9000DC21EA6EEFCFDDFA050ECA25DE6F000E0A
:100FA000CB21DF6FC851DE25E96EC951DF21EA6E22
:100FB000EFCFE0FAE76BE86BE96BD4CAEAFAD7CA7D
:100FC000EBFADACAECFADDCAEDFAE0CAEEFA000191
:100FD000E0EC03F001C0CFFA0A01CE510B08D8A40F
:100FE0008AD0CF511F08D8B486D0CF510F08D8B4BB
:100FF00082D0CBCACDFACACACCFA010ED16FCECA02
:10100000D0FAD0511F086DE0CD5101086AE303E129
:10101000CC51F30866E3D26BCDCAD4FACCCAD3FA6A
:10102000C9CAD6FAC8CAD5FA0001D5DC01500A01EE
:10103000D117040ECC25D26F000ECD21D36FC8512D
:10104000D225E96EC951D321EA6EEFCFD4FA030E4F
:10105000CC25D56F000ECD21D66FC851D525E96EB0
:10106000C951D621EA6EEFCFD7FA020ECC25D86F40
:10107000000ECD21D96FC851D825E96EC951D921AB
:10108000EA6EEFCFDAFA010ECC25DB6F000ECD2130
:10109000DC6FC851DB25E96EC951DC21EA6EEFCF68
:1010A000DDFAC851CC25E96EC951CD21EA6EEFCFEA
:1010B000DEFAE76BE86BE96BD4CAEAFAD7CAEBFA57
:1010C000DACAECFADDCAEDFADECAEEFA0001E0ECAB
:1010D00003F001C0D0FA050E0A01CC27000ECD2383
:1010E00090D7D12D08D00901996B0A01CACA01F025
:1010F000CBCA02F00FD3CA2BD8B4CB2B13D5C7CA97
:10110000CBFAC6CACAFAC731036EC631026E0332C1
:1011100002323F0E031602C001F00350CB5DD8A08F
:10112000F6D204E1CA51015CD8B0F1D2C553D8A4BB
:10113000A9D1060ECA5DD26F000ECB59D36FC8512C
:10114000D225E96EC951D321EA6EEFCFD4FA050E4C
:10115000CA5DD56F000ECB59D66FC851D525E96E43
:10116000C951D621EA6EEFCFD7FA040ECA5DD86F07
:10117000000ECB59D96FC851D825E96EC951D92174
:10118000EA6EEFCFDAFA030ECA5DDB6F000ECB59C1
:10119000DC6FC851DB25E96EC951DC21EA6EEFCF67
:1011A000DDFA020ECA5DDE6F000ECB59DF6FC8514B
:1011B000DE25E96EC951DF21EA6EEFCFE0FA010EBC
:1011C000CA5DE16F000ECB59E26FC851E125E96EAF
:1011D000C951E221EA6EEFCFE3FAC851CA25E96EA0
:1011E000C951CB21EA6EEFCFE4FAE76BD4CAE8FA33
:1011F000D7CAE9FADACAEAFADDCAEBFAE0CAECFAC7
:10120000E3CAEDFAE4CAEEFA0001E0EC03F001C033
:10121000CEFA0D0E0A01CA5DD26F000ECB59D36F04
:10122000C851D225E96EC951D321EA6EEFCFD4FA65
:101230000C0ECA5DD56F000ECB59D66FC851D5259F
:10124000E96EC951D621EA6EEFCFD7FA0B0ECA5D0F
:10125000D86F000ECB59D96FC851D825E96EC95146
:10126000D921EA6EEFCFDAFA0A0ECA5DDB6F000E03
:10127000CB59DC6FC851DB25E96EC951DC21EA6E20
:10128000EFCFDDFA090ECA5DDE6F000ECB59DF6FBE
:10129000C851DE25E96EC951DF21EA6EEFCFE0FAD1
:1012A000080ECA5DE16F000ECB59E26FC851E1250F
:1012B000E96EC951E221EA6EEFCFE3FA070ECA5D8B
:1012C000E46F000ECB59E56FC851E425E96EC951B2
:1012D000E521EA6EEFCFE6FAE76BD4CAE8FAD7CA9F
:1012E000E9FADACAEAFADDCAEBFAE0CAECFAE3CACA
:1012F000EDFAE6CAEEFA0001E0EC03F001C0CFFA25
:101300000A01CE514508D8A4BCD0CF517C08D8B42E
:10131000B8D0CF513E08D8B4B4D0CF511F08D8B4FC
:10132000B0D0CF510F08D8B4ACD0CF517808D8B4D2
:10133000A8D0CBCACDFACACACCFA010ED16FCECA98
:10134000D0FAD0511F08D8B48CD0CD5304E1CC5181
:101350000108D8B086D0010ED26FCDCAD4FACCCA5B
:10136000D3FAC9CAD6FAC8CAD5FA000113EC04F0F8
:1013700001500A01D117060ECC5DD26F000ECD5977
:10138000D36FC851D225E96EC951D321EA6EEFCF90
:10139000D4FA050ECC5DD56F000ECD59D66FC8516D
:1013A000D525E96EC951D621EA6EEFCFD7FA040EE2
:1013B000CC5DD86F000ECD59D96FC851D825E96ED4
:1013C000C951D921EA6EEFCFDAFA030ECC5DDB6F9B
:1013D000000ECD59DC6FC851DB25E96EC951DC2107
:1013E000EA6EEFCFDDFA020ECC5DDE6F000ECD5956
:1013F000DF6FC851DE25E96EC951DF21EA6EEFCFFC
:10140000E0FA010ECC5DE16F000ECD59E26FC851DC
:10141000E125E96EC951E221EA6EEFCFE3FAC85146
:10142000CC25E96EC951CD21EA6EEFCFE4FAE76B26
:10143000D4CAE8FAD7CAE9FADACAEAFADDCAEBFA94
:10144000E0CAECFAE3CAEDFAE4CAEEFA0001E0EC15
:1014500003F001C0D0FA070E0A01CC5F000ECD5B8D
:1014600070D7D12D0AD0010E0901996F0A01CACA9D
:1014700001F0CBCA02F04ED104D0000E016E026E14
:1014800049D140D1040ECA5DD26F000ECB59D36F43
:10149000C851D225E96EC951D321EA6EEFCFD4FAF3
:1014A000030ECA5DD56F000ECB59D66FC851D52536
:1014B000E96EC951D621EA6EEFCFD7FA020ECA5DA6
:1014C000D86F000ECB59D96FC851D825E96EC951D4
:1014D000D921EA6EEFCFDAFA010ECA5DDB6F000E9A
:1014E000CB59DC6FC851DB25E96EC951DC21EA6EAE
:1014F000EFCFDDFAC851CA25E96EC951CB21EA6E9A
:10150000EFCFDEFAE76BE86BE96BD4CAEAFAD7CA29
:10151000EBFADACAECFADDCAEDFADECAEEFA00013D
:10152000E0EC03F001C0CEFA090E0A01CA5DD26FE9
:10153000000ECB59D36FC851D225E96EC951D321C2
:10154000EA6EEFCFD4FA080ECA5DD56F000ECB5904
:10155000D66FC851D525E96EC951D621EA6EEFCFB5
:10156000D7FA070ECA5DD86F000ECB59D96FC85194
:10157000D825E96EC951D921EA6EEFCFDAFA060E05
:10158000CA5DDB6F000ECB59DC6FC851DB25E96EFD
:10159000C951DC21EA6EEFCFDDFA050ECA5DDE6FC0
:1015A000000ECB59DF6FC851DE25E96EC951DF212E
:1015B000EA6EEFCFE0FAE76BE86BE96BD4CAEAFAC0
:1015C000D7CAEBFADACAECFADDCAEDFAE0CAEEFAEB
:1015D0000001E0EC03F001C0CFFA0A01CE510B0884
:1015E000D8A490D0CF511F08D8B48CD0CF510F08B9
:1015F000D8B488D0CBCACDFACACACCFA010ED16F02
:10160000CECAD0FAD0511F086DE0CD5303E1CC51C2
:10161000010868E2010ED26FCDCAD4FACCCAD3FA5F
:10162000C9CAD6FAC8CAD5FA0001EBEC04F00150D9
:101630000A01D117040ECC5DD26F000ECD59D36FC5
:10164000C851D225E96EC951D321EA6EEFCFD4FA41
:10165000030ECC5DD56F000ECD59D66FC851D52580
:10166000E96EC951D621EA6EEFCFD7FA020ECC5DF2
:10167000D86F000ECD59D96FC851D825E96EC95120
:10168000D921EA6EEFCFDAFA010ECC5DDB6F000EE6
:10169000CD59DC6FC851DB25E96EC951DC21EA6EFA
:1016A000EFCFDDFAC851CC25E96EC951CD21EA6EE4
:1016B000EFCFDEFAE76BE86BE96BD4CAEAFAD7CA78
:1016C000EBFADACAECFADDCAEDFADECAEEFA00018C
:1016D000E0EC03F001C0D0FA050E0A01CC5F000E69
:1016E000CD5B90D7D12D0AD0010E0901996F0A0167
:1016F000CACA01F0CBCA02F00DD004D0000E016EB0
:10170000026E08D0CA51D8B4CB07CA07FCD4000E69
:10171000016E026E000112000900F6CFD4FAF7CF75
:10172000D5FAF5CFDFFAADEC03F0D4CAF6FFD5CA8F
:10173000F7FF0A01D32F01D002D00001EDD700013D
:101740001200EACFC4FAE9CFC3FA0A01BD39F009A1
:10175000BF6FBF27E20FC06F320FC26FBD510F0BBB
:10176000C027C027C227E90FC16FC127C127BC39D5
:101770000F0BC127C227C137C237C21FC237BC51A6
:101780000F0BC227BF37070EBE6F0A0EC107C22755
:10179000FDE3C007C127FDE3BF07C027FDE3BE0788
:1017A000BF27FDE30A0EEA6EBE0EE96E070EC315F3
:1017B000C39DE926C20EE95CD8B4C38DEF50006E1C
:1017C00008E1C3BD06D0C3B916D0C3B702D0200EFE
:1017D00003D0C387C399300E0026EACFBDFAE9CF04
:1017E000BCFA00C0DFFA0001ADEC03F0BDCAEAFFAD
:1017F000BCCAE9FF0A01EE50C3ADDCD700011200FC
:101800000A01C651016AC55D03E2C5CA00F00CD0E9
:10181000006A080EC76FC5370036C651005CD8B0E5
:10182000006E0136C72FF7D700011200200E0A0103
:10183000C0A9300EC16FBFCA00F0BFAF08D0001EF4
:10184000002A00C0BFFA2D0EC16FC08FC0810150A9
:10185000BFCAC5FA640EC66F0001D2DF00C0BFFA6E
:10186000300E01240A01C26FBFCAC5FA0A0EC66F44
:101870000001C6DF300E00240A01C46F300E0124BF
:10188000C36FC1CA00F0300EC25D04E0C083C0BFA8
:10189000C08512D0C1CAC2FA200EC16F300EC35D1E
:1018A00004E0C081C0BFC08307D0D8A4C08104E1D8
:1018B000C2CAC3FA200EC26FC0B505D0C0B308D0EB
:1018C000C0B10BD00FD0C1CADFFA0001ADEC03F0FC
:1018D000C2CADFFA0001ADEC03F0C3CADFFA0001AF
:1018E000ADEC03F0C4CADFFA0001ADEC03F0120066
:1018F000720EF66E060EF76ED0EC03F00A01BD6BA9
:10190000BC6BBD51030817E303E1BC51510813E35D
:10191000170EBC25E96E050EBD21EA6EEFCFBEFAAB
:10192000BECABFFA180EC06F000180DF0A01BC2BCF
:10193000D8B4BD2BE6D7880EF66E060EF76E000102
:10194000D0EC03F00A01BD6BBC6BBD51010817E37D
:1019500003E1BC512B0813E3690EBC25E96E080EA8
:10196000BD21EA6EEFCFBEFABECABFFA180EC06F35
:1019700000015CDF0A01BC2BD8B4BD2BE6D7000107
:101980000BEF0EF00A0EEA6EBC0EE96EEF500DE0A2
:101990000A0E016E006A002EFED7012EFBD75F0EE5
:1019A000006E002EFED7EF2EF3D71200010E0A01B3
:1019B000B36FB46FB56FB66FB76BB86FB96F09011E
:1019C000A36BA26B986B976B966B956BA351FD08FD
:1019D0000EE303E1A251E7080AE3938281A207D054
:1019E000948A82AA04D0A22BD8B4A32BEFD7A36BDE
:1019F000A26B9FC903F09E519E2BD8B49F2B0A0166
:101A0000BC6F170EBC25E96E050E0320EA6EEF6A67
:101A100009019FC903F09E519E2BD8B49F2B0A0148
:101A2000BC6F170EBC25E96E050E0320EA6E010E91
:101A3000EF6E0901A1C903F0A051A02BD8B4A12BCE
:101A40000A01BC6F690EBC25E96E080E0320EA6E20
:101A5000EF6A0901A1C903F0A051A02BD8B4A12BB2
:101A60000A01BC6F690EBC25E96E080E0320EA6E00
:101A7000010EEF6E09019F510308D8A06FD004E159
:101A80009E515108D8A06AD0A1510108D8A066D0B3
:101A900003E1A0512B0862E3A351FF085FE303E1D8
:101AA000A251DB085BE3AC5304E09F6B9E6BA16B20
:101AB000A06BA22BD8B4A32B986B976B966B956BEE
:101AC00093840A01B36B81B4B32BB3531EE1B42DDD
:101AD0001CD0B46B170E09019E25E96E050E9F21DF
:101AE000EA6E9382000E81A2010EEF6E690EA025B0
:101AF000E96E080EA121EA6EB7CAEFFF9E2BD8B49B
:101B00009F2BA36BA26B06D00A01B32D02D0010E4E
:101B1000B46F090193860A01B56B81B6B52BB55335
:101B20000FE1B62D0DD0B66B948AB76B82AAB72B96
:101B30000901A02BD8B4A12BA36BA26B06D00A017C
:101B4000B52D02D0010EB66F0901938081A005D09A
:101B5000AC6BA369DC0EA26F01D08DD7A36BA26B17
:101B60000A01C56B9FC9C7FA9EC9C6FA050EC96F9F
:101B7000170EC86F00018BEC05F001C0B8FA010E1A
:101B80000A01C56FA1C9C7FAA0C9C6FA080EC96F74
:101B9000690EC86F00018BEC05F001C0B9FA0901AC
:101BA000A72D50D0E20EF66E060EF76E0E0E0A014D
:101BB000D36F0001B1DD100EE96E9FC9BDFA9EC959
:101BC000BCFABFDD0D0E0A01DF6F0001ADEC03F0C2
:101BD0000A0E0A01DF6F0001ADEC03F0F60EF66E9F
:101BE000060EF76E0E0E0A01D36F000195DD100E82
:101BF000E96EA1C9BDFAA0C9BCFAA3DD0D0E0A01A8
:101C0000DF6F0001ADEC03F00A0E0A01DF6F000187
:101C1000ADEC03F06DD60A01B85308E10A0EF66E7A
:101C2000070EF76E0001D0EC03F00A01B95308E18A
:101C3000200EF66E070EF76E0001D0EC03F00A01DD
:101C400007D009010F0E0A01BC6F00019BDE0A01DB
:101C5000B85302E0B95310E10901A16BA06B9F6B6F
:101C60009E6BAB6BAC2B986B976B966B956B000E6A
:101C7000016E1ED01BD00A01010E0901A66FAB6FC9
:101C8000A1C99DF9A0C99CF99FC99BF99EC99AF960
:101C90009F6B9E6BA16BA06B986B976B966B956B14
:101CA0000001FC6BFB6B016E090102D0000E016E9E
:101CB00000018FEF0EF0020E0A01B36FFA0EB46F3F
:101CC00000019BEC03F00A01B32FF8D70901A92DFD
:101CD00001D02ED001010F5320E00C531EE1052D41
:101CE0001CD0102D0CD0380EF66E1D0EF76E0001B4
:101CF000D0EC03F0929E899E0101106B0ED04A0E2B
:101D0000F66E1D0EF76E0001D0EC03F0929E898EE8
:101D1000010E0101106F126B116B000147D601C05B
:101D2000A8F90901986B976B966B956BA36BA26BE7
:101D3000F090000142EF00F00A0D4B6579207265CA
:101D40006C656173652E0A0D00000A0D4B657920E4
:101D500070726573732E0A0D00000D0A5472616370
:101D60006B3120446174613A0D0A00000D0A54720F
:101D700061636B3220446174613A0D0A0000747231
:101D8000616E2074696D65203D2025640A0D000098
:101D90004B502D3E204B65797072657373206D6FCB
:101DA00064652073657474696E6720284F6E290A14
:101DB0000D004B502D3E204B65797072657373207A
:101DC0006D6F64652073657474696E6720284F6653
:101DD00066290A0D0000497320536C617665206DF9
:101DE0006F64650A0D004973204D6173746572203C
:101DF0006D6F6465290A0D00497320347836206DB3
:101E000061747269780A0D00497320347835206D49
:101E100061747269780A0D000D0A547261636B3146
:101E200020446174613A0D0A00000D0A5472616326
:101E30006B3220446174613A0D0A00000D0A50496A
:101E40004E204E756D6265723A0D0A00464F524D36
:101E5000415454494E472E2E2E0020657869740A4D
:101E60000D00464F524D415454494E472E2E2E00E0
:101E700020657869740A0D007265736574696E6710
:101E80002070617373776F72642E2E2E00002065B0
:101E90007869740A0D004B657920626F6172642065
:101EA00074657374696E670A0D00726573657420DA
:101EB000666163746F72790A0D0020657869740A2F
:101EC0000D004E657720636F6E736F6C65206E61D9
:101ED0006D653E00204F4B0A0D005B4D5D005B536E
:101EE0005D005B6175746F2073656E64696E672059
:101EF000286F6666295D00005B6175746F207365ED
:101F00006E64696E6720286F6E295D005965617285
:101F10003E004D6F6E74683E0000446174653E0083
:101F20004461793E0000486F75723E004D696E75E0
:101F30007465733E00005365636F6E64733E00000A
:101F400050726573732027312720746F2073656C7E
:101F500065637420536C61766572206D6F646500F3
:101F600050726573732027302720746F2073656C5F
:101F7000656374204D6173746572206D6F646500D4
:101F800050726573732027312720746F2074757227
:101F90006E206F6E206B65707265737300005072F7
:101FA0006573732027302720746F207475726E203C
:101FB0006F6666206B65707265737300496E70752D
:101FC00074204E756D6265720000507265737320E7
:101FD00027312720746F2073656C656374207468E3
:101FE00065206E6577206B6579626F6172640000B1
:101FF00050726573732027302720746F2073656CCF
:1020000065637420746865206F6C64206B65796209
:102010006F61726400000A0D496E70757420796FEB
:102020007572206D6F62696C652070686F6E6520D7
:102030006E756D6265723A000A0D646F6E650A0D09
:10204000000050726573732027312720746F20744D
:1020500075726E206F6E204175746F206D6F6465B0
:10206000000050726573732027302720746F20742E
:1020700075726E206F6666204175746F206D6F6497
:102080006500682D3E2048656C700A0D0000736382
:102090002D3E2053657420436C6F636B0A0D000066
:1020A000632D3E2073686F7720436C6F636B0A0D5E
:1020B000000070617373776F72642D3E20636861F6
:1020C0006E67696E672050415353574F52440A0D53
:1020D00000006E202D3E206368616E676520636F8F
:1020E0006E736F6C65204E616D650A0D0000662D84
:1020F0003E20466F726D61740A0D0000652D3E2012
:10210000457869740A0D00004D532D3E204B6579CA
:10211000626F617264206D6F6465207365747469A9
:102120006E672028536C6176652F4D6173746572FC
:10213000290A0D004B502D3E204B65797072657356
:1021400073206D6F64652073657474696E672028F1
:102150004F6E290A0D004B502D3E204B6579707251
:10216000657373206D6F64652073657474696E6741
:1021700020284F6666290A0D00007472616E207473
:10218000696D652D3E2074696D65206F66206561FF
:102190006368207472616E73616374696F6E0A0D97
:1021A000000064656275672D3E206F6E2F6F666656
:1021B000206465627567206D6F64650A0D006B6F42
:1021C000666B62202564202D3E2073656C65637408
:1021D000206B696E64206F66206B6579626F617237
:1021E000640A0D007273666163742D3E207265731C
:1021F000657420666163746F72790A0D000063660E
:10220000206D626E2D3E206368616E67696E672087
:10221000746172676574206D6F62696C65207068A7
:102220006F6E65206E756D6265720A0D0000534910
:102230004D3930306175746F2D3E206F6E2F6F6693
:1022400066206175746F2073656E64696E67206DBA
:102250006F64650A0D006F6C642070617373776F33
:1022600072643A000A0D6E65773A00000A0D6167E4
:1022700061696E3A00000A0D4F4B0A0D00000A0D0D
:102280004552520A0D0020580A0D00005072657325
:10229000732027312720746F20656E61626C652082
:1022A0006465627567206D6F6465000050726573C8
:1022B000732027302720746F2064697361626C6516
:1022C000206465627567206D6F6465009EAAFED705
:1022D000AFCFB3FA0A010101076B066B04019C2D15
:1022E0000BD00400C0909C6B820EF66E230EF76E2E
:1022F0000001D0EC03F00401929C897C0101B553EC
:102300001AE0B251B22B036A4E0FE96E010E0320A0
:10231000EA6EB3CAEFFFB251620801E2B26BB45386
:102320000AE10B0E0401986FB80E976F0D0E956FB2
:10233000946B936B0101040195510D0817E10101A4
:10234000B62BD8B4B72BB75303E1B651C7080DE28B
:10235000B76BB66BC08094928B92880EF66E230E8C
:10236000F76E0001D0EC03F001010401955108085B
:1023700004E10101B76BB66B04019E9A000142EFC4
:1023800000F04F4B0A0D00000A0D44657669636545
:102390002077696C6C2072657365740A0D00929CDD
:1023A000897CCF68CD0ECE6E9E9042EF00F0010189
:1023B000472B47510108D8B0D2D04A51FB0F41E218
:1023C000050F0001B4EF12F0929A899A92968986CD
:1023D000929489849292898292908980010131D06D
:1023E00092968996929A898A929489849292898205
:1023F00092908980010125D0929489949296898641
:10240000929A898A9292898292908980010119D048
:10241000929289929296898692948984929A898AD4
:102420009290898001010DD0929089909296898630
:102430009294898492928982929A898A010101D028
:10244000010148A13FD09388000E81B8010E0A0116
:10245000B86F938A000E81BA010EB817938C000EE4
:1024600081BC010EB817938E000E81BE010EB81507
:1024700027E049C1B6FA01010B5319E1096B086B5A
:102480000001FC6BFB6B01010E5131080AE30E5198
:102490000E2B036A140FE96E010E0320EA6EB6CA12
:1024A000EFFFB6CADFFA0001ADEC03F005D0B6CA03
:1024B000DFFA0001ADEC03F001014891496B0A011C
:1024C0004CD001019388000E81B8010E0A01B86F4B
:1024D000938A000E81BA010EB817938C000E81BC4E
:1024E000010EB817938E000E81BE010EB8152FE1B4
:1024F000938881B802D0B76B11D0938A81BA03D088
:10250000010EB76F0BD0938C81BC03D0020EB76F56
:1025100005D0938E81BE02D0030EB76FB751050D63
:10252000F350B96BB86F036A01014A510A01B8252B
:10253000016EB95103220150000174EC00F0E8CFA4
:1025400049F101014881FF0E926E07D00A01010195
:102550004A2B4A510508D8B44A6B0101476B0A015E
:10256000B6CA01F000011200E824F76AF736830FBB
:10257000F66E250EF7220A00F550FA6E0800F550A7
:10258000F96EC823E023F82310242824E00E0F015D
:10259000486FC29CC29E4951E00B1709496F0A015E
:1025A000D351FA0F65E2060F00013AEF13F0100E57
:1025B000016EC250C30B0110C26EC282C2B2FED7FE
:1025C000C4CFD4FA0A01D4CA01F052D051D00C0EB3
:1025D000016EC250C30B0110C26EC282C2B2FED7DE
:1025E000C4CFD4FA0A01D4CA01F042D041D0080EB7
:1025F000016EC250C30B0110C26EC282C2B2FED7BE
:10260000C4CFD4FA0A01D4CA01F032D031D0040EBA
:10261000016EC250C30B0110C26EC282C2B2FED79D
:10262000C4CFD4FA0A01D4CA01F022D021D0000EBE
:10263000016EC250C30B0110C26EC282C2B2FED77D
:10264000C4CFD4FA0A01D4CA01F012D011D02C0E92
:10265000016EC250C30B0110C26EC282C2B2FED75D
:10266000C4CFD4FA0A01D4CA01F002D001D00A01C1
:1026700000011200E824F76AF7368F0FF66E260E77
:10268000F7220A00F550FA6E0800F550F96EAE25F3
:10269000CE25EE250E262E264E26D8B204D00A0EC2
:1026A000EA6EE70EE96E006A016A026A036A0A01CD
:1026B000E76BE86BE96BEA6BE651E511E411E311B6
:1026C0002CE0200EEB6FD890DF37E037E137E237B0
:1026D000E737E837E937EA37E651EA5D08E1E551DF
:1026E000E95D05E1E451E85D02E1E351E75D0FE3F7
:1026F000E351E75FE451D8A0E43DE85FE551D8A09D
:10270000E53DE95FE651D8A0E63DEA5FD8800036B6
:10271000013602360336EB2FD6D7E7CAEFFFE8CAF9
:10272000ECFFE9CAECFFEACAECFF00011200E95035
:102730000A01D76F3B0EDE6F9A0EDD6FCA0EDC6F9B
:10274000DB6B0A0ED96FD8820A0EEA6ED30EE96EE1
:10275000D6CAE2FAD5CAE1FAD4CAE0FAD3CADFFA95
:10276000DECAE6FADDCAE5FADCCAE4FADBCAE3FA55
:10277000000193DF0150005213E10A01D951010A0F
:10278000D8A402D000010CD0D7510CE00F0BD95DBA
:1027900001E010E2D7BF0ED0D7BD04D0200E03D089
:1027A0000A01D76B300E002600C0DFFA0001ADEC45
:1027B00003F00A01D892DECAE2FADDCAE1FADCCA05
:1027C000E0FADBCADFFAE66BE56BE46B0A0EE36F57
:1027D000000163DF03C0DEFA02C0DDFA01C0DCFAEB
:1027E00000C0DBFA0A01D92FAED7000112000A019E
:1027F000BE6BBD6BBC6BBB6BC26BC16BC06BBF6B8D
:10280000C66BC56BC46BC36BCA6BC96BC86BC76B3C
:10281000CE6BCD6BCC6BCB6BBA6BB96BBA5101087D
:102820003EE303E1B951F3083AE3D36B0001AEDEB6
:1028300001500A01BB27000EBC23BD23BE23010E9D
:10284000D36F0001A3DE01500A01BF27000EC02391
:10285000C123C223020ED36F000198DE01500A018A
:10286000C327000EC423C523C623030ED36F000164
:102870008DDE01500A01C727000EC823C923CA23D1
:10288000040ED36F000182DE01500A01CB27000E37
:10289000CC23CD23CE23B92BD8B4BA2BBFD7D89213
:1028A000BECAE2FABDCAE1FABCCAE0FABBCADFFAA4
:1028B000E66BE56B010EE46FF40EE36F0001EDDEF5
:1028C00003C0BEFA02C0BDFA01C0BCFA00C0BBFA28
:1028D000D892C2CAE2FAC1CAE1FAC0CAE0FABFCAD3
:1028E000DFFA0A01E66BE56B010EE46FF40EE36FAD
:1028F0000001D3DE03C0C2FA02C0C1FA01C0C0FAAF
:1029000000C0BFFAD892C6CAE2FAC5CAE1FAC4CA80
:10291000E0FAC3CADFFA0A01E66BE56B010EE46F69
:10292000F40EE36F0001B9DE03C0C6FA02C0C5FAB7
:1029300001C0C4FA00C0C3FAD892CACAE2FAC9CA2E
:10294000E1FAC8CAE0FAC7CADFFA0A01E66BE56B2A
:10295000010EE46FF40EE36F00019FDE03C0CAFABC
:1029600002C0C9FA01C0C8FA00C0C7FAD892CECADC
:10297000E2FACDCAE1FACCCAE0FACBCADFFA0A0120
:10298000E66BE56B010EE46FF40EE36F000185DE8C
:1029900003C0CEFA02C0CDFA01C0CCFA00C0CBFA17
:1029A00001010B53D8B4BDD00D0E0A01DF6F000139
:1029B000ADEC03F00A0E0A01DF6F0001ADEC03F08D
:1029C000260EF66E040EF76E070E0A01D36F000195
:1029D0008CEC0BF0410EE96EBECAD6FABDCAD5FA30
:1029E000BCCAD4FABBCAD3FAA2DE0D0E0A01DF6F4D
:1029F0000001ADEC03F00A0E0A01DF6F0001ADEC3F
:102A000003F0340EF66E040EF76E070E0A01D36F54
:102A100000018CEC0BF0410EE96EC2CAD6FAC1CAB5
:102A2000D5FAC0CAD4FABFCAD3FA81DE0D0E0A01A4
:102A3000DF6F0001ADEC03F00A0E0A01DF6F000149
:102A4000ADEC03F0420EF66E040EF76E070E0A01AF
:102A5000D36F00018CEC0BF0410EE96EC6CAD6FABA
:102A6000C5CAD5FAC4CAD4FAC3CAD3FA60DE0D0EF9
:102A70000A01DF6F0001ADEC03F00A0E0A01DF6FFF
:102A80000001ADEC03F0500EF66E040EF76E070E6B
:102A90000A01D36F00018CEC0BF0410EE96ECACA3B
:102AA000D6FAC9CAD5FAC8CAD4FAC7CAD3FA3FDE19
:102AB0000D0E0A01DF6F0001ADEC03F00A0E0A01F2
:102AC000DF6F0001ADEC03F05E0EF66E040EF76EE4
:102AD000070E0A01D36F00018CEC0BF0410EE96E7A
:102AE000CECAD6FACDCAD5FACCCAD4FACBCAD3FA52
:102AF0001EDE0D0E0A01DF6F0001ADEC03F00A0EC1
:102B00000A01DF6F0001ADEC03F00D0E0A01DF6F6B
:102B10000001ADEC03F00A0E0A01DF6F0001ADEC1D
:102B200003F00A01BE5307E1BD5305E1BC5303E1C5
:102B3000BB51050830E2BE532EE1BD532CE1BC531E
:102B40002AE1BB513B0827E3C25307E1C15305E12A
:102B5000C05303E1BF5164081EE2C65307E1C553E9
:102B600005E1C45303E1C351640815E2CA5307E108
:102B7000C95305E1C85303E1C75164080CE2CE53C1
:102B800007E1CD5305E1CC5303E1CB51640803E2E7
:102B9000000E016E3FD1C25307E1C15305E1C0539E
:102BA00003E1BF51050830E2C2532EE1C1532CE1CD
:102BB000C0532AE1BF513B0827E3BE5307E1BD5391
:102BC00005E1BC5303E1BB5164081EE2C65307E1B3
:102BD000C55305E1C45303E1C351640815E2CA5368
:102BE00007E1C95305E1C85303E1C75164080CE28A
:102BF000CE5307E1CD5305E1CC5303E1CB5164083B
:102C000003E2010E016E06D1C65307E1C55305E18B
:102C1000C45303E1C351050830E2C6532EE1C55346
:102C20002CE1C4532AE1C3513B0827E3C25307E117
:102C3000C15305E1C05303E1BF5164081EE2BE5316
:102C400007E1BD5305E1BC5303E1BB51640815E244
:102C5000CA5307E1C95305E1C85303E1C7516408EA
:102C60000CE2CE5307E1CD5305E1CC5303E1CB5148
:102C7000640803E2020E016ECDD0CA5307E1C953C6
:102C800005E1C85303E1C751050830E2CA532EE1FC
:102C9000C9532CE1C8532AE1C7513B0827E3C2536B
:102CA00007E1C15305E1C05303E1BF5164081EE2CF
:102CB000C65307E1C55305E1C45303E1C35164089A
:102CC00015E2BE5307E1BD5305E1BC5303E1BB511F
:102CD00064080CE2CE5307E1CD5305E1CC5303E188
:102CE000CB51640803E2030E016E94D0CE5307E18A
:102CF000CD5305E1CC5303E1CB51050830E2CE536F
:102D00002EE1CD532CE1CC532AE1CB513B0827E3F4
:102D1000C25307E1C15305E1C05303E1BF51640849
:102D20001EE2C65307E1C55305E1C45303E1C35195
:102D3000640815E2CA5307E1C95305E1C85303E12A
:102D4000C75164080CE2BE5307E1BD5305E1BC5313
:102D500003E1BB51640803E2040E016E5BD0CE5365
:102D600008E1CD5306E1CC5304E1CB51C808D8B0FB
:102D70004FD0BE53D8A44CD0BD53D8A449D0BC53D7
:102D8000D8A446D0BB51B30843E3BE5307E1BD53BB
:102D900005E1BC5303E1BB5164083AE2C25338E198
:102DA000C15336E1C05334E1BF51B30831E3C253DC
:102DB00007E1C15305E1C05303E1BF51640828E2B4
:102DC000C65326E1C55324E1C45322E1C351B308DD
:102DD0001FE3C65307E1C55305E1C45303E1C351E3
:102DE000640816E2CA5314E1C95312E1C85310E152
:102DF000C751B3080DE3CA5307E1C95305E1C853EE
:102E000003E1C751640804E2040E016E03D002D04E
:102E1000FF0E016E000130EF1BF00A01BE6BBD6BAF
:102E2000BC6BBB6BC26BC16BC06BBF6BC66BC56B46
:102E3000C46BC36BCA6BC96BC86BC76BCE6BCD6BF6
:102E4000CC6BCB6BD26BD16BD06BCF6BBA6BB96BDE
:102E5000BA5101084FE303E1B951F3084BE3D36BD7
:102E60000001C6EC12F001500A01BB27000EBC2382
:102E7000BD23BE23010ED36F0001C6EC12F001503A
:102E80000A01BF27000EC023C123C223020ED36F45
:102E90000001C6EC12F001500A01C327000EC42342
:102EA000C523C623030ED36F0001C6EC12F00150F8
:102EB0000A01C727000EC823C923CA23040ED36FF3
:102EC0000001C6EC12F001500A01CB27000ECC2302
:102ED000CD23CE23050ED36F0001C6EC12F00150B6
:102EE0000A01CF27000ED023D123D223B92BD8B487
:102EF000BA2BAED7D892BECAE2FABDCAE1FABCCAB2
:102F0000E0FABBCADFFAE66BE56B010EE46FF40E84
:102F1000E36F00014DEC13F003C0BEFA02C0BDFA2E
:102F200001C0BCFA00C0BBFAD892C2CAE2FAC1CA58
:102F3000E1FAC0CAE0FABFCADFFA0A01E66BE56B44
:102F4000010EE46FF40EE36F00014DEC13F003C0CB
:102F5000C2FA02C0C1FA01C0C0FA00C0BFFAD892DA
:102F6000C6CAE2FAC5CAE1FAC4CAE0FAC3CADFFABD
:102F70000A01E66BE56B010EE46FF40EE36F0001EE
:102F80004DEC13F003C0C6FA02C0C5FA01C0C4FA82
:102F900000C0C3FAD892CACAE2FAC9CAE1FAC8CADA
:102FA000E0FAC7CADFFA0A01E66BE56B010EE46FCF
:102FB000F40EE36F00014DEC13F003C0CAFA02C037
:102FC000C9FA01C0C8FA00C0C7FAD892CECAE2FA5C
:102FD000CDCAE1FACCCAE0FACBCADFFA0A01E66B45
:102FE000E56B010EE46FF40EE36F00014DEC13F09E
:102FF00003C0CEFA02C0CDFA01C0CCFA00C0CBFAB1
:10300000D892D2CAE2FAD1CAE1FAD0CAE0FACFCA5B
:10301000DFFA0A01E66BE56B010EE46FF40EE36F75
:1030200000014DEC13F003C0D2FA02C0D1FA01C086
:10303000D0FA00C0CFFA01010B53D8B4E4D00D0E82
:103040000A01DF6F0001ADEC03F00A0E0A01DF6F29
:103050000001ADEC03F06C0EF66E040EF76E070E79
:103060000A01D36F00018CEC0BF0410EE96EBECA71
:10307000D6FABDCAD5FABCCAD4FABBCAD3FA97EC01
:1030800013F00D0E0A01DF6F0001ADEC03F00A0E24
:103090000A01DF6F0001ADEC03F07A0EF66E040E4C
:1030A000F76E070E0A01D36F00018CEC0BF0410E96
:1030B000E96EC2CAD6FAC1CAD5FAC0CAD4FABFCA22
:1030C000D3FA97EC13F00D0E0A01DF6F0001ADEC9F
:1030D00003F00A0E0A01DF6F0001ADEC03F0880E69
:1030E000F66E040EF76E070E0A01D36F00018CEC2A
:1030F0000BF0410EE96EC6CAD6FAC5CAD5FAC4CAE3
:10310000D4FAC3CAD3FA97EC13F00D0E0A01DF6F9D
:103110000001ADEC03F00A0E0A01DF6F0001ADEC17
:1031200003F0960EF66E040EF76E070E0A01D36FCB
:1031300000018CEC0BF0410EE96ECACAD6FAC9CA7E
:10314000D5FAC8CAD4FAC7CAD3FA97EC13F00D0E51
:103150000A01DF6F0001ADEC03F00A0E0A01DF6F18
:103160000001ADEC03F0A40EF66E040EF76E070E30
:103170000A01D36F00018CEC0BF0410EE96ECECA50
:10318000D6FACDCAD5FACCCAD4FACBCAD3FA97ECC0
:1031900013F00D0E0A01DF6F0001ADEC03F00A0E13
:1031A0000A01DF6F0001ADEC03F0B20EF66E040E03
:1031B000F76E070E0A01D36F00018CEC0BF0410E85
:1031C000E96ED2CAD6FAD1CAD5FAD0CAD4FACFCAD1
:1031D000D3FA97EC13F00D0E0A01DF6F0001ADEC8E
:1031E00003F00A0E0A01DF6F0001ADEC03F00D0ED3
:1031F0000A01DF6F0001ADEC03F00A0E0A01DF6F78
:103200000001ADEC03F00A01BE5307E1BD5305E137
:10321000BC5303E1BB51050839E2BE5337E1BD534E
:1032200035E1BC5333E1BB513B0830E3C25307E106
:10323000C15305E1C05303E1BF51640827E2C653FF
:1032400007E1C55305E1C45303E1C35164081EE21D
:10325000CA5307E1C95305E1C85303E1C7516408E4
:1032600015E2CE5307E1CD5305E1CC5303E1CB5139
:1032700064080CE2D25307E1D15305E1D05303E1D6
:10328000CF51640803E2000E016EBCD1C25307E1C6
:10329000C15305E1C05303E1BF51050839E2C253F0
:1032A00037E1C15335E1C05333E1BF513B0830E34F
:1032B000BE5307E1BD5305E1BC5303E1BB516408B4
:1032C00027E2C65307E1C55305E1C45303E1C351E7
:1032D00064081EE2CA5307E1C95305E1C85303E17C
:1032E000C751640815E2CE5307E1CD5305E1CC5335
:1032F00003E1CB5164080CE2D25307E1D15305E15D
:10330000D05303E1CF51640803E2010E016E7AD17C
:10331000C65307E1C55305E1C45303E1C351050892
:1033200039E2C65337E1C55335E1C45333E1C351E4
:103330003B0830E3C25307E1C15305E1C05303E149
:10334000BF51640827E2BE5307E1BD5305E1BC53FA
:1033500003E1BB5164081EE2CA5307E1C95305E10A
:10336000C85303E1C751640815E2CE5307E1CD53BA
:1033700005E1CC5303E1CB5164080CE2D25307E1E1
:10338000D15305E1D05303E1CF51640803E2020EAB
:10339000016E38D1CA5307E1C95305E1C85303E1AF
:1033A000C751050839E2CA5337E1C95335E1C8535B
:1033B00033E1C7513B0830E3C25307E1C15305E194
:1033C000C05303E1BF51640827E2C65307E1C55368
:1033D00005E1C45303E1C35164081EE2BE5307E193
:1033E000BD5305E1BC5303E1BB51640815E2CE5364
:1033F00007E1CD5305E1CC5303E1CB5164080CE266
:10340000D25307E1D15305E1D05303E1CF51640812
:1034100003E2030E016EF6D0CE5307E1CD5305E172
:10342000CC5303E1CB51050839E2CE5337E1CD53FC
:1034300035E1CC5333E1CB513B0830E3C25307E1D4
:10344000C15305E1C05303E1BF51640827E2C653ED
:1034500007E1C55305E1C45303E1C35164081EE20B
:10346000CA5307E1C95305E1C85303E1C7516408D2
:1034700015E2BE5307E1BD5305E1BC5303E1BB5167
:1034800064080CE2D25307E1D15305E1D05303E1C4
:10349000CF51640803E2040E016EB4D0D25307E1A9
:1034A000D15305E1D05303E1CF51050839E2D2539E
:1034B00037E1D15335E1D05333E1CF513B0830E30D
:1034C000C25307E1C15305E1C05303E1BF51640892
:1034D00027E2C65307E1C55305E1C45303E1C351D5
:1034E00064081EE2CA5307E1C95305E1C85303E16A
:1034F000C751640815E2CE5307E1CD5305E1CC5323
:1035000003E1CB5164080CE2BE5307E1BD5305E172
:10351000BC5303E1BB51640803E2050E016E72D097
:10352000D25308E1D15306E1D05304E1CF51C8088A
:10353000D8B066D0BE53D8A463D0BD53D8A460D051
:10354000BC53D8A45DD0BB51B308D8A059D0BE534A
:1035500008E1BD5306E1BC5304E1BB516408D8B097
:103560004FD0C253D8A44CD0C153D8A449D0C053D3
:10357000D8A446D0BF51B30843E3C25307E1C153B7
:1035800005E1C05303E1BF5164083AE2C65338E194
:10359000C55336E1C45334E1C351B30831E3C653D4
:1035A00007E1C55305E1C45303E1C351640828E2B0
:1035B000CA5326E1C95324E1C85322E1C751B308D5
:1035C0001FE3CA5307E1C95305E1C85303E1C751DB
:1035D000640816E2CE5314E1CD5312E1CC5310E14E
:1035E000CB51B3080DE3CE5307E1CD5305E1CC53E6
:1035F00003E1CB51640804E2050E016E03D002D052
:10360000FF0E016E000136EF1BF0200E0A01B76FAE
:10361000938881A809D0938A81AA06D0938C81AC23
:1036200003D0938E81BEB5D0938881B802D0B86B99
:1036300011D0938A81BA03D0010EB86F0BD0938C4E
:1036400081BC03D0020EB86F05D0938E81BE02D02C
:10365000030EB86F0101135306E10001F7EF13F0F9
:1036600001C0B6FA05D000010DEF17F001C0B6FA9F
:103670000A01B63D01D075D00101135313E10A01CF
:10368000B851050DF350BA6BB96F036AB651B9253D
:10369000016EBA5103220150000174EC00F0E8CF32
:1036A000B7FA12D00A01B851060DF350BA6BB96FD0
:1036B000036AB651B925016EBA51032201500001C7
:1036C00086EC00F0E8CFB7FA01010B5343E10001AB
:1036D000FC6BFB6B01010E5113080AE30E510E2B1C
:1036E000036A140FE96E010E0320EA6EB7CAEFFFFA
:1036F000C00EF66E040EF76E090E0A01D36F0001BC
:103700008CEC0BF00EC1BFFA180E0A01C06F00015D
:1037100016EC0CF05D0E0A01DF6F0001ADEC03F05A
:10372000200E0A01DF6F0001ADEC03F0B7CADFFA2B
:10373000ADEC03F00D0E0A01DF6F0001ADEC03F0FC
:103740000A0E0A01DF6F0001ADEC03F00101076B07
:10375000066B06D0B7CADFFA0001ADEC03F0010139
:103760000A01938881A8FDD7938A81AAFAD7938CFE
:1037700081ACF7D7938E81AEF4D7938881A8FDD71B
:10378000938A81AAFAD7938C81ACF7D7938E81AEB6
:10379000F4D7FF0E926EB7CA01F000011200080EB6
:1037A000016E0A0E006E002EFED78B9694960B0EBD
:1037B000006E002EFED70A01CE378B98D8B09488C1
:1037C000D8A09498948682A6FED7012E01D002D06C
:1037D0000001E7D70A0E006E002EFED78B96949656
:1037E000000094880B0E006E002EFED70B0E006EAC
:1037F000002EFED7948682A6FED7016A0B0E006EBD
:10380000002EFED782B801808B9694968B98949860
:1038100000011200080E0A01C36F00C0C4FA9488A8
:103820000B0E006E002EFED7948682A6FED782B8BD
:10383000D88082A8D89001360A0E006E002EFED7DE
:1038400094968B96C32FEBD794880B0E006E002EA8
:10385000FED78B98C451D8A494980000948682A671
:10386000FED70A0E006E002EFED78B9694960B0E96
:10387000006E002EFED78B98949800011200948859
:103880000A0E006E002EFED794860B0E006E002EE0
:10389000FED78B9894980A0E006E002EFED78B965A
:1038A0009496D00E0A01CE6F000179DFBDCACEFA20
:1038B00076DF94880A0E006E002EFED794860B0EDB
:1038C000006E002EFED782A6FED78B9894980A0E23
:1038D000006E002EFED78B969496D10E0A01CE6F05
:1038E00000015DDF006A96DF01C0BEFA9498000017
:1038F000948682A6FED70A0E006E002EFED700D058
:10390000000094880A0E006E002EFED70A01BECA7F
:1039100001F000011200BECABFFA0A01BF39006EF1
:103920000F0E001600500A0DF3CFBEFABF39006E1D
:10393000F00E00160050003A0F0E00160050BE2781
:10394000BECA01F00001120094880A0E006E002E1B
:10395000FED794860B0E006E002EFED78B9894989F
:103960000A0E006E002EFED78B969496A00E0A01CA
:10397000CE6F000114DFC0CAC2FA0A01C36BC0CA0D
:10398000CEFA00010CDFBFCACEFA09DF94880A0E16
:10399000006E002EFED794860B0E006E002EFED712
:1039A00082A6FED78B9894980A0E006E002EFED742
:1039B0008B969496A10E0A01CE6F0001F0DE006A8C
:1039C00029DF01C0C1FA94980000948682A6FED730
:1039D0000A0E006E002EFED700D0000094880A0E5A
:1039E000006E002EFED70A01C1CA01F000011200CC
:1039F0000A01BA6BB96BBC6BBB6BBE6BBD6BC06BAA
:103A0000280EBF6F0001A0DF0A0101C0BBFABC6B2A
:103A1000C06B290EBF6F000197DF0A01BE6B01C0AA
:103A2000BDFABDCABEFABD6BBD51BB11B96FBE5167
:103A3000BC11BA6FB9CA01F0BACA02F00001120093
:103A40000A01BB51BD03F3CF01F0F4CF00F0BE0378
:103A5000F3500026BC51BD03F3500020026E00015C
:103A600012000A01C86BC551C85D0AE2036AC85159
:103A7000C625E96EC7510320EA6EEF6AC82BF3D75B
:103A8000000112000A01C46B010EC36FB9CAC5FA66
:103A9000BBCAC7FABACAC6FABDCAC9FABCCAC8FA0A
:103AA00000018BEC05F002C0C4FA01C0C3FA0A01A0
:103AB000C35305E1C45303E1000E016ED5D1C4CA5E
:103AC000C2FAC3CAC1FA09019953D8A4DDD00A01C8
:103AD000B953D8A47BD0C06BC0514E0876E3036ABB
:103AE000C051BE25016EBF51032201C0C5FA03C0FB
:103AF000C6FA050EC125C76F000EC221C86FBC51A2
:103B0000C725E96EBD51C821EA6EEFCFC9FA040E90
:103B1000C125CA6F000EC221CB6FBC51CA25E96E08
:103B2000BD51CB21EA6EEFCFCCFA030EC125CD6F8C
:103B3000000EC221CE6FBC51CD25E96EBD51CE2104
:103B4000EA6EEFCFCFFA020EC125D06F000EC22170
:103B5000D16FBC51D025E96EBD51D121EA6EEFCFB6
:103B6000D2FA010EC125D36F000EC221D46FBC5111
:103B7000D325E96EBD51D421EA6EEFCFD5FABC5101
:103B8000C125E96EBD51C221EA6EEFCFD6FAE76BCF
:103B9000E86BC9CAE9FACCCAEAFACFCAEBFAD2CAC8
:103BA000ECFAD5CAEDFAD6CAEEFA0001E0EC03F061
:103BB000C6CAEAFFC5CAE9FF01C0EFFF070E0A0146
:103BC000C127000EC223C02B87D75CD0C06BC05169
:103BD000270858E3036AC051BE25016EBF51032276
:103BE00001C0C5FA03C0C6FA030EC125C76F000E97
:103BF000C221C86FBC51C725E96EBD51C821EA6E0C
:103C0000EFCFC9FA020EC125CA6F000EC221CB6FD9
:103C1000BC51CA25E96EBD51CB21EA6EEFCFCCFA7B
:103C2000010EC125CD6F000EC221CE6FBC51CD2536
:103C3000E96EBD51CE21EA6EEFCFCFFABC51C1255E
:103C4000E96EBD51C221EA6EEFCFD0FAE76BE86BA7
:103C5000E96BEA6BC9CAEBFACCCAECFACFCAEDFA47
:103C6000D0CAEEFA0001E0EC03F0C6CAEAFFC5CA0A
:103C7000E9FF01C0EFFF050E0A01C127000EC223B4
:103C8000C02BA5D7DCD009010A01B953D8A47BD039
:103C9000C06BC0514E0876E3036AC051BE25016E69
:103CA000BF51032201C0C5FA03C0C6FA050EC15DAB
:103CB000C76F000EC259C86FBC51C725E96EBD5110
:103CC000C821EA6EEFCFC9FA040EC15DCA6F000EBB
:103CD000C259CB6FBC51CA25E96EBD51CB21EA6EEA
:103CE000EFCFCCFA030EC15DCD6F000EC259CE6F7F
:103CF000BC51CD25E96EBD51CE21EA6EEFCFCFFA92
:103D0000020EC15DD06F000EC259D16FBC51D025DB
:103D1000E96EBD51D121EA6EEFCFD2FA010EC15D3D
:103D2000D36F000EC259D46FBC51D325E96EBD517B
:103D3000D421EA6EEFCFD5FABC51C125E96EBD5151
:103D4000C221EA6EEFCFD6FAE76BE86BC9CAE9FA8F
:103D5000CCCAEAFACFCAEBFAD2CAECFAD5CAEDFA63
:103D6000D6CAEEFA0001E0EC03F0C6CAEAFFC5CA03
:103D7000E9FF01C0EFFF070E0A01C15F000EC25B41
:103D8000C02B87D75CD0C06BC051270858E3036AAB
:103D9000C051BE25016EBF51032201C0C5FA03C048
:103DA000C6FA030EC15DC76F000EC259C86FBC5181
:103DB000C725E96EBD51C821EA6EEFCFC9FA020EE0
:103DC000C15DCA6F000EC259CB6FBC51CA25E96EE6
:103DD000BD51CB21EA6EEFCFCCFA010EC15DCD6FA4
:103DE000000EC259CE6FBC51CD25E96EBD51CE211A
:103DF000EA6EEFCFCFFABC51C125E96EBD51C221A9
:103E0000EA6EEFCFD0FAE76BE86BE96BEA6BC9CAF1
:103E1000EBFACCCAECFACFCAEDFAD0CAEEFA00013E
:103E2000E0EC03F0C6CAEAFFC5CAE9FF01C0EFFF34
:103E3000050E0A01C15F000EC25BC02BA5D7B953A6
:103E40000AE1520EC56FBDCAC7FABCCAC6FA000164
:103E500008DE09D00A012C0EC56FBDCAC7FABCCA5C
:103E6000C6FA0001FEDD0A010001120094880A0E64
:103E7000006E002EFED794860B0E006E002EFED72D
:103E80008B9894980A0E006E002EFED78B9694960F
:103E9000A00E0A01CE6F000182DCC8CACCFA0A016A
:103EA000CD6BC8CACEFA00017ADCC7CACEFA77DC7D
:103EB000C9CACEFA74DC94980000948682A6FED714
:103EC0000A0E006E002EFED700D0000094880A0E65
:103ED000006E002EFED794880A0E006E002EFED7CC
:103EE00094860B0E006E002EFED78B9894980A0EC7
:103EF000006E002EFED78B969496A00E0A01CE6F10
:103F000000014DDC01500A01CA9101B0CA81CAA169
:103F10001ED094880A0E006E002EFED794860B0EDB
:103F2000006E002EFED782A6FED78B9894980A0EBC
:103F3000006E002EFED78B969496A00ECE6F0001D9
:103F40002EDC01500A01CA9101B0CA81E0D79498D1
:103F50000000948682A6FED70A0E006E002EFED7C1
:103F600000D0000094880A0E006E002EFED70001DB
:103F700012000A01C16BC06BBF6BBE6BC26BC36B1F
:103F8000C46BC56BBCCAC1FABBCAC0FABACABFFA15
:103F9000B9CABEFABECAC2FABFCAC3FAC0CAC4FA14
:103FA000C1CAC5FAC86BBDCAC7FAC2CAC9FA0001FC
:103FB0005DDF010E0A01BD25C66FC86BC76FC3CA9E
:103FC000C9FA000153DF020E0A01BD25C66FC86B96
:103FD000C76FC4CAC9FA000149DF030E0A01BD2533
:103FE000C66FC86BC76FC5CAC9FA00013FDF1200B0
:103FF000010E0901A96F040E0A01BD6F00013FDC2B
:1040000001C0B9FA01C0BEFA86DC01C000F1050E9C
:104010000A01BD6F000133DC01C0B9FA01C0BEFA6C
:104020007ADC01C0FFF0060E0A01BD6F000127DC3B
:1040300001C0B9FA01C0BEFA6EDC01C0FEF0030E89
:104040000A01BD6F00011BDC01C0B9FA01C0BEFA54
:1040500062DC01C0FDF0020E0A01BD6F00010FDC41
:1040600001C0B9FA01C0BEFA56DC01C001F1010E6F
:104070000A01BD6F000103DC01C0B9FA01C0BEFA3C
:104080004ADC01C002F10A01BD6B00013FEC1CF0EB
:1040900001C0B9FA01C0BEFA3EDC01C003F1A8DCE0
:1040A00002C0BAFA01C0B9FA02C0BCFA01C0BBFA38
:1040B0000A01BE6B7C0EBD6F0001C2DC01C0B9FA03
:1040C000960E0A010124016E000E022001C020F0AC
:1040D000216E226A236A0901A65310E19B6B9A6B39
:1040E0009D6B9C6B9F6B9E6BA16BA06BAA5304E1B5
:1040F0000001FC69FB690901A96BB6D19E0EF66E41
:10410000060EF76E0001D0EC03F00101096B086B9D
:10411000010E0C6F9BC9B8FA9AC9B7FA0A01B96BBC
:10412000B8CABBFAB7CABAFA050EBD6F170EBC6F94
:10413000040EBF6FA00EBE6F0001A4DC09019B6BD3
:104140009A6B9DC9B8FA9CC9B7FA010E0A01B96FFA
:10415000B8CABBFAB7CABAFA080EBD6F690EBC6F0F
:10416000040EBF6FEF0EBE6F00018CDC09019D6B6A
:104170009C6BA96B200E0401A0250A01B66F235287
:10418000D8A471D12252D8A46ED12150AA08D8A0A7
:104190006AD104E120504508D8A065D1B651250860
:1041A000D8A461D123C003F022C002F021C001F0E5
:1041B00020C000F0010E2026D8B0212AD8B4222A2F
:1041C000D8B4232A01C0BAFA00C0B9FA01C0C8FAAB
:1041D00000C0C7FA00C1C9FA000148DE23C003F0DD
:1041E00022C002F021C001F020C000F0010E202604
:1041F000D8B0212AD8B4222AD8B4232A01C0BAFAC6
:1042000000C0B9FA01C0C8FA00C0C7FAFFC0C9FAB5
:104210002DDE23C003F022C002F021C001F020C037
:1042200000F0010E2026D8B0212AD8B4222AD8B412
:10423000232A01C0BAFA00C0B9FA01C0C8FA00C006
:10424000C7FA01C1C9FA12DE23C003F022C002F08E
:1042500021C001F020C000F0010E2026D8B0212A94
:10426000D8B4222AD8B4232A01C0BAFA00C0B9FAB5
:1042700001C0C8FA00C0C7FA02C1C9FAF7DD23C0FD
:1042800003F022C002F021C001F020C000F0010EB6
:104290002026D8B0212AD8B4222AD8B4232A01C093
:1042A000BAFA00C0B9FA01C0C8FA00C0C7FA03C11F
:1042B000C9FADCDD0901A56BA46BA5532EE1A4515D
:1042C0004E082BE323C003F022C002F021C001F00E
:1042D00020C000F0010E2026D8B0212AD8B4222A0E
:1042E000D8B4232A01C0BAFA00C0B9FAA00EA42596
:1042F000E96E040EA521EA6EEF503F0B200F0A0174
:10430000BB6F01C0C8FA00C0C7FAC96F0001AEDDBB
:104310000901A42BD8B4A52BD0D74F0E0A01C56F25
:10432000040EC76FA00EC66F000131EC1DF009012D
:10433000A56BA46BA5532EE1A45127082BE323C042
:1043400003F022C002F021C001F020C000F0010EF5
:104350002026D8B0212AD8B4222AD8B4232A01C0D2
:10436000BAFA00C0B9FAEF0EA425E96E040EA52131
:10437000EA6EEF500F0B300F0A01BB6F01C0C8FA95
:1043800000C0C7FAC96F000171DD0901A42BD8B4C0
:10439000A52BD0D7280E0A01C56F040EC76FEF0EEC
:1043A000C66F000131EC1DF00D0E0A01DF6F000138
:1043B000ADEC03F00A0E0A01DF6F0001ADEC03F073
:1043C000B40EF66E060EF76ED0EC03F001010F533B
:1043D0000BE0BA0EF66E060EF76E0001D0EC03F09D
:1043E000929E899E0101106B126911690D0E0A01DE
:1043F000DF6F0001ADEC03F00A0E0A01DF6F000170
:10440000ADEC03F0CA0EF66E060EF76ED0EC03F0BC
:104410000101076B066B0D0E0A01DF6F0001ADECA9
:1044200003F00A0E0A01DF6F0001ADEC03F0FC6B34
:10443000FB6B23C0BCFA22C0BBFA21C0BAFA20C071
:10444000B9FA190E0A01BD6F000193DD0901A66BCF
:10445000A96B010EAA6F01010C6F0001FC6BFB6BD5
:1044600001010E6B0A0109010001E3EF23F001666F
:1044700003D0026602D007D0022A00C0EEFF012E50
:10448000FCD7022EFAD712002752D8A4A5D0265264
:10449000D8A4A2D02550FF08D8A09ED004E1245073
:1044A000FE08D8A099D00101145302E10E536BE02D
:1044B0000001F8EC1CF002C0B8FA01C0B7FAB8CAA3
:1044C000BCFAB7CABBFA0A01BE6B320EBD6F00015F
:1044D00020EC1DF002C0BAFA01C0B9FA460E0A017A
:1044E000B927AA0EBA23010EB925016E000EBA2112
:1044F00001C024F0256E266A276AB66BB6512C08D7
:104500002DE3036AB651140FE96E010E0320EA6E23
:10451000B86BEFCFB7FA27C003F026C002F025C072
:1045200001F024C000F0010E2426D8B0252AD8B40A
:10453000262AD8B4272A01C0BAFA00C0B9FA01C0A5
:10454000C8FA00C0C7FAB7CAC9FA00018FDCB7CAF7
:10455000DFFAADEC03F00A01B62BD0D725C0C8FABC
:1045600024C0C7FAC96B000181DC27C0BCFA26C091
:10457000BBFA25C0BAFA24C0B9FA1E0E0A01BD6FF3
:104580000001F7DC01010E6B320E0A01C56F010E4E
:10459000C76F140EC66F000131EC1DF00D0E0A013D
:1045A000DF6F0001ADEC03F00A0E0A01DF6F0001BE
:1045B000ADEC03F0D20EF66E040EF76ED0EC03F005
:1045C0000D0E0A01DF6F0001ADEC03F00A0E0A01C7
:1045D000DF6F0001ADEC03F049EF24F00A01B96B85
:1045E000B86BBA6BBB6BB7CAB9FAB6CAB8FAB8CA75
:1045F000BAFAB951BB6FC86B280EC76FBACAC9FAED
:10460000000134DC0A01C86B290EC76FBBCAC9FAA6
:1046100000012CDC1200EACFBEFAE9CFBDFA0A0194
:10462000B7AF08D0BD8FBDA9BD2BB61FB71FB62B26
:10463000D8B4B72BB739F009B96FB927E20FBA6F01
:10464000320FBC6FB7510F0BBA27BA27BC27E90F3F
:10465000BB6FBB27BB27B6390F0BBB27BC27BB37AC
:10466000BC37BC1FBC37B6510F0BBC27B937070E80
:10467000B86F0A0EBB07BC27FDE3BA07BB27FDE3F3
:10468000B907BA27FDE3B807B927FDE30A0EEA6EBA
:10469000B80EE96E070EBD15BD9DE906BD1507E113
:1046A000BDB9E92ABDB903D0200E006E1CD0E926A1
:1046B000BC0EE95CD8B4BD8DEF50006E08E1BDBD05
:1046C00006D0BDB91ED0BDB702D0200E0BD0BDAFF5
:1046D00006D02D0E006EED50BD9DBD9F04D0BD8750
:1046E000BD99300E0026EACFB7FAE9CFB6FA00C07E
:1046F000DFFA0001ADEC03F0B7CAEAFFB6CAE9FF82
:104700000A01EE50BDADD4D7000186EF24F00101BF
:104710000F531DE01251010807E303E11151F308A3
:1047200003E3112BD8B4122B1151F40810E1122D10
:104730000ED0420EF66E490EF76E0001D0EC03F07B
:10474000929E899E0101106B112BD8B4122B0B2D58
:104750000DD00901B35304E10001D7EC11F005D0ED
:10476000000105EC1BF001C0B5FA01010C2D0CD0C5
:104770000901B35304E10001D7EC11F005D00001A9
:1047800005EC1BF001C0B5FA090198530FE19753EE
:104790000DE196530BE19551040808E3010E9527AE
:1047A000D8B0962BD8B4972BD8B4982B9551050830
:1047B0002AE1965328E1975326E1985324E1AB2D43
:1047C00003D0000115D40901050EEA6E170EE96E3B
:1047D000006A030E026E520E016E000148DE080EE2
:1047E000EA6E690EE96E006A010E026E2C0E016E11
:1047F0003EDE0901AC6B010E9527D8B0962BD8B4DC
:10480000972BD8B4982B0A01C06B940EBF6F000190
:10481000A4EC1CF001C046F1020E0A01BC6FBC0EF4
:10482000BB6FBE6B46C1BDFA000120EC1DF002C09B
:1048300003F0FC51025C07E303E10150FB5D03E27E
:10484000FB2BD8B4FC2B020E0A01BC6FBC0EBB6F55
:10485000BE6B46C1BDFA000120EC1DF002C003F0A2
:104860000150FB5D6BE10350FC5D68E1FB2BD8B4AC
:10487000FC2BF8EC1CF002C0B4FA01C0B3FA0A0138
:10488000B451010813E303E1B3515D080FE30001E4
:10489000FBD5010E0A01B327000EB423B4CAB7FA40
:1048A000B3CAB6FA00019ADE1AD00A01520EF66EA9
:1048B000490EF76E0001D0EC03F00E0E0401956F67
:1048C000030EEA6E480EE96E000E0001BEEC00F029
:1048D0000A000900F550EE6E0009FBE12FD0620ED0
:1048E000F66E490EF76ED0EC03F0720EF66E490EBE
:1048F000F76E140E0A01D36F00018CEC0BF0100E52
:10490000E96EB4CAB7FAB3CAB6FA85D6890EF66E9E
:10491000490EF76E030E0A01D36F00018CEC0BF009
:104920000901AA6B01010C6B929C899C0401992DD1
:1049300002D00B0E956F010E9F6F0001F29442EFB3
:1049400000F00A0D4B65792072656C656173650A2C
:104950000D000D0A46756C6C206D656D6F72790DDA
:104960000A000D0A536176696E672050494E0D0AA0
:1049700000000D0A6E657874207472616E73616355
:1049800074696F6E2028256C64290D0A00000D0AD9
:10499000626F6F74696E672E2E2E0D0A00004154EF
:1049A0000D0A000041542B434D47463D310D0A008E
:1049B00041542B43534D503D31372C3136372C3039
:1049C0002C3234350D0A000041542B434D47443DF1
:1049D000310D0A0041542B434D47443D320D0A002E
:1049E00041542B434D47443D330D0A0041542B4362
:1049F0004D47443D340D0A0041542B434D47443D3F
:104A0000350D0A006E6577206B65626F61726420F8
:104A10006D6F64650A0D00004F6C64206B65626FFA
:104A2000617264206D6F64650A0D0000536C6176DD
:104A30006572206D6F6465206973206469736162BB
:104A40006C650A0D0000536C61766572206D6F64B1
:104A50006520697320656E61626C650A0D0074776C
:104A60006F206E756D62657273206D6F6465207660
:104A700065720A0D00006175746F73656E64696E0E
:104A8000672069732064697361626C650A0D0000B8
:104A90006175746F73656E64696E672069732065F4
:104AA0006E61626C650A0D0041542B434D47463DD3
:104AB000310D0A0072656164696E675F736D732EF4
:104AC0002E2E0A0D000041542B434D47523D310D0F
:104AD0000A004D53475F617661692E2E2E25640AC8
:104AE0000D00616E616C797A655F736D732E2E2E89
:104AF0000A0D0000746865207369676E616C206937
:104B000073206E6F7420676F6F642C206465766904
:104B100063652077696C6C207265626F6F740A0D33
:104B200000000A0D636865636B696E6720746865D1
:104B3000206669727374206E756D6265720A0D006D
:104B40000A0D4D6F62696C652070686F6E65206E2E
:104B5000756D62657220697320000A0D4D53473AE6
:104B600020000A0D54494D453A2000000A0D726597
:104B7000736574207468652070617373776F7264F5
:104B80000A0D0000646F6E650A0D00000A0D63686F
:104B900065636B696E672070686F6E65206E756DFA
:104BA00062657220697320646F6E650A0D000A0DDC
:104BB000636F6E66696775726564206D6F62696C9C
:104BC000652070686F6E65206E756D6265720A0D86
:104BD00000006368616E6765642070686F6E6520B1
:104BE0006E756D6265720A0D2800290A0D007772D4
:104BF0006F6E672070617373776F72640A0D0000C7
:104C00000A0D636865636B696E672074686520735D
:104C100065636F6E64206E756D6265720A0D0000CB
:104C20000A0D4D6F62696C652070686F6E65206E4D
:104C3000756D62657220697320000A0D4D53473A05
:104C400020000A0D54494D453A2000000A0D6368C2
:104C500065636B696E672070686F6E65206E756D39
:104C600062657220697320646F6E650A0D000A0D1B
:104C7000636F6E66696775726564206D6F62696CDB
:104C8000652070686F6E65206E756D6265720A0DC5
:104C900000006368616E6765642070686F6E6520F0
:104CA0006E756D6265720A0D2800290A0D00777213
:104CB0006F6E672070617373776F72640A0D000006
:104CC0000A0D20746869732070686F6E6520756EB8
:104CD00061626C6520746F2073656E6420636F6D14
:104CE0006D616E6473200A0D00006368616E676514
:104CF00064207468652070617373776F72640A0D45
:104D000000000A0D657869740A0D00000A0D6B65D4
:104D1000797072657373207475726E206F6E0A0DF0
:104D2000000020657869740A0D000A0D6B657970C2
:104D300072657373207475726E206F66660A0D005B
:104D400020657869740A0D000A0D706C65617365E1
:104D500020636865636B20796F75722073796E7458
:104D600061780A0D00000A0D6D6173746572206D23
:104D70006F6465207475726E206F6E0A0D00206579
:104D80007869740A0D000A0D6D6173746572206D87
:104D90006F6465207475726E206F66660A0D000080
:104DA00020657869740A0D000A0D706C6561736581
:104DB00020636865636B20796F75722073796E74F8
:104DC00061780A0D00007265736574206661637412
:104DD0006F72790A0D006368616E67656420746F95
:104DE000206E6577206B6579626F6172640A0D00D1
:104DF0006368616E67656420746F206F6C64206BFC
:104E00006579626F6172640A0D007472616E20745C
:104E1000696D65203D2025640A0D00000A0D706C47
:104E20006561736520636865636B20796F757220B7
:104E300073796E7461780A0D00000A0D6175746FE4
:104E400073656E64696E67207475726E206F6E0A8A
:104E50000D0020657869740A0D000A0D6175746F84
:104E600073656E64696E67207475726E206F666616
:104E70000A0D000020657869740A0D000A0D706C37
:104E80006561736520636865636B20796F75722057
:104E900073796E7461780A0D0000464F524D41548B
:104EA00054494E472E2E2E0020657869740A0D0055
:104EB000464F524D415454494E472E2E2E002065E8
:104EC0007869740A0D0064657669636520686173AA
:104ED00020256C75207472616E73616374696F6EE6
:104EE000200A0D00646F776E6C6F616420616C6CDA
:104EF0000A0D00000A0D706C6561736520636865BA
:104F0000636B20796F75722073796E7461780A0D06
:104F1000000064656C6574655F4D53472E2E2E0A44
:104F20000D0041542B434D47443D310D0A00256C83
:104F300075206368617261637465720A0D004D5378
:104F4000475F73656E64696E672025640A0D000013
:104F500041542B434D47463D310D0A0041542B43EC
:104F60004D47533D00000D0A53656E64696E67201E
:104F7000746F20746865206669727374206E756D35
:104F80006265720D0A000D0A74686520326E642035
:104F90006E756D626572206973206E6F7420696E24
:104FA0007374616C6C65640D0A000D0A53656E6460
:104FB000696E6720746F20746865207365636F6E17
:104FC00064206E756D6265720D0A000069646C651F
:104FD0000A0D000041542B434D47463D310D0A0058
:104FE00053494D206973207265706C79696E670A48
:104FF0000D00636865636B20636F6D756E69636137
:1050000074696F6E0A0D000041540D0A0000534987
:105010004D20616374697669747920737461747565
:10502000730A0D0041542B435041530D0A0063682D
:1050300065636B20696E626F780A0D0041542B43E3
:105040004D47523D310D0A0072657365745F6D6F97
:1050500064756C650A0D000094869488F19EC9EF12
:1050600036F00A01926B8F51925D26E2036A9251EB
:105070009025016E9151032201C093FA03C094FA66
:1050800092518E25956F196AF2BE198EF29EC06BF1
:10509000BF6F0001A4EC1CF019BEF28E94CAEAFFA7
:1050A00093CAE9FF01C0EFFF1A0E006E002EFED773
:1050B00000000A01922BD7D7000112000A01A76B4A
:1050C000A451A75D22E2A751A325A86F036AA751A7
:1050D000A525E96EA6510320EA6EEFCFA9FA196A59
:1050E000F2BE198EF29EC86BA8CAC7FAA9CAC9FA3D
:1050F000000136EC1FF019BEF28E1A0E006E002E63
:10510000FED700000A01A72BDBD7000112000A011D
:105110008E6B140E8F6F916B550E906F0001A1DF97
:10512000553C2BD0563C29D0643D27D0EA6A2D0E41
:10513000E96E006A026A140E016E37EC22F0EA6A28
:105140002D0EE96E000E69EC00F00A000900F55022
:10515000EE6E0009FBE10A01A36B140EA46FA66BAF
:105160002D0EA56F0001AADF0A018E6B140E8F6F42
:10517000916B550E906F000174DF1200196AF2BE38
:10518000198EF29E0A01BD6B00013FEC1CF019BEA6
:10519000F28E01C08EFA0A018E9F94880A0E006E6C
:1051A000002EFED794860B0E006E002EFED78B9835
:1051B00094980A0E006E002EFED78B969496196A6C
:1051C000F2BE198EF29ED00ECE6F0001CFEC1BF016
:1051D00019BEF28E196AF2BE198EF29E0A01CE6BCA
:1051E0000001CFEC1BF019BEF28E196AF2BE198EC7
:1051F000F29E8ECACEFACFEC1BF019BEF28E9488C6
:105200000A0E006E002EFED794860B0E006E002E46
:10521000FED782A6FED78B9894980A0E006E002EB9
:10522000FED78B969496196AF2BE198EF29ED00E16
:105230000A01CE6F0001CFEC1BF019BEF28E196A85
:10524000F2BE198EF29E070E0A01CE6F0001CFEC5E
:105250001BF019BEF28E196AF2BE198EF29E800EF4
:105260000A01CE6F0001CFEC1BF019BEF28E9498AC
:105270000000948682A6FED70A0E006E002EFED78E
:1052800000D0000094880A0E006E002EFED7F8EFC2
:1052900036F00A01926B916B906B8F6B966B956BEE
:1052A000946B936B9A6B996B986B976B9E6B9D6BE2
:1052B0009C6B9B6BA26BA16BA06B9F6B196AF2BE80
:1052C000198EF29EC06B8ECABFFA0001A4EC1CF0CE
:1052D00019BEF28E0A0101C093FA946B956B966B1E
:1052E000010E8E25A36F196AF2BE198EF29EC06B55
:1052F000BF6F0001A4EC1CF019BEF28E0A019A6B7C
:10530000996B986B01C097FA99CA9AFA98CA99FA58
:1053100097CA98FA976B020E8E25A36F196AF2BE90
:10532000198EF29EC06BBF6F0001A4EC1CF019BE79
:10533000F28E0A019E6B9D6B9C6B01C09BFA9CCA0E
:105340009EFA9BCA9DFA9B6B9C6B030E8E25A36FE6
:10535000196AF2BE198EF29EC06BBF6F0001A4ECF9
:105360001CF019BEF28E0A01A26BA16BA06B01C0EA
:105370009FFA9FCAA2FA9F6BA06BA16B9F519B11D2
:10538000A36FA0519C11A46FA1519D11A56FA251B3
:105390009E11A66F9751A3139851A4139951A51369
:1053A0009A51A613A35193118F6FA4519411906F2A
:1053B000A5519511916FA6519611926F8FCA00F069
:1053C00090CA01F091CA02F092CA03F000011200E3
:1053D0000900F5520DE0F6CF8EFAF7CF8FFAF550AF
:1053E0009EA8FED7AE6E8ECAF6FF8FCAF7FFF0D723
:1053F00012000A01926B936B946B956B966B976B93
:10540000986B196AF2BE198EF29E320EC56F8FCA62
:10541000C7FA8ECAC6FA000131EC1DF019BEF28E31
:10542000196AF2BE198EF29E140E0A01C56F91CA56
:10543000C7FA90CAC6FA000131EC1DF019BEF28E0F
:105440000A01926B9251630817E3036A92514E0F5F
:10545000E96E010E0320EA6EEFCF9AFA196AF2BEE6
:10546000198EF29E9ACADFFA0001ADEC03F019BE64
:10547000F28E0A01922BE6D7926B92516308D8A064
:1054800005D1036A92514E0FE96E010E0320EA6EB8
:10549000EF502B08D8A496D0010E9225036A4E0F28
:1054A000E96E010E0320EA6EEF504308D8A48AD0BB
:1054B000020E9225036A4E0FE96E010E0320EA6E7A
:1054C000EF504D08D8A47ED0030E9225036A4E0FEC
:1054D000E96E010E0320EA6EEF504708D8A472D09F
:1054E000040E9225036A4E0FE96E010E0320EA6E48
:1054F000EF50520867E1050E9225036A4E0FE96EE0
:10550000010E0320EA6EEF503A085CE1060E922588
:10551000036A4E0FE96E010E0320EA6EEF50200879
:1055200051E1070E9225036A4E0FE96E010E03202A
:10553000EA6EEF50300846E1080E9225036A4E0FDE
:10554000E96E010E0320EA6EEF502C083BE1090ED4
:105550009225036A4E0FE96E010E0320EA6EEF50AA
:105560002C0830E10A0E9225036A4E0FE96E010EF7
:105570000320EA6EEF50300825E1986BC80E926F59
:10558000196AF2BE198EF29E640EC56F8FCAC7FAF1
:105590008ECAC6FA000131EC1DF019BEF28E196AEE
:1055A000F2BE198EF29E100E0A01C56F91CAC7FA9B
:1055B00090CAC6FA000131EC1DF019BEF28E01014D
:1055C000046B0A01036A92514E0FE96E010E03202B
:1055D000EA6EEFCF99FA9351030813E199512F081E
:1055E00003E29951390803E299512B080AE19451D9
:1055F000925D036A9025E96E91510320EA6E99CA83
:10560000EFFF955102080CE19451925D036A8E25DB
:10561000E96E8F510320EA6E99CAEFFF010E986F71
:10562000965102080AE19751925D036A600FE96E94
:10563000040E0320EA6E99CAEFFF995122080AE18D
:1056400093510508D8B0932B9351030803E1010E41
:105650009225946F9351060817E199510D0803E0C4
:1056600099510A0807E1952B9551020803E1010EB3
:105670009225946F9951220807E1962B96510208C2
:1056800003E1010E9225976F922BF7D698CA01F08D
:10569000000149EF3AF00A01925302E1935342E0CC
:1056A0008ECAE9FF8FCAEAFFEFCF94FA91CA03F0DE
:1056B00090CAE9FF91CAEAFFEF50945D17E08FCAE4
:1056C00003F08ECAE9FF8FCAEAFFEFCF94FA91CABE
:1056D00003F090CAE9FF91CAEAFFEF50945D02E23D
:1056E000FF0E01D0010E016E1FD00BD08FCA03F048
:1056F0008ECAE9FF8FCAEAFFEF5203E1000E016E86
:1057000013D08FCA03F08E518E2BD8B48F2B91CA31
:1057100003F09051902BD8B4912B9251D8B49307A9
:105720009207BAD7000E016E000112000A01A26BA7
:10573000A25113080AE3036AA2518E0FE96E0A0E02
:105740000320EA6EEF68A22BF3D7A36B140EA46FAD
:105750000A0EA66F8E0EA56F0001B0DC45EF3BF080
:105760000A01A26BA25113080AE3036AA2518E0F29
:10577000E96E0A0E0320EA6EEF6AA22BF3D7410E00
:10578000A36F140EA46F0A0EA66F8E0EA56F0001F4
:1057900095DC49EF3BF08FCA93FA8ECA92FA91CA10
:1057A00095FA90CA94FA93CA03F00A0192CAE9FFE3
:1057B00093CAEAFFEF5223E095CA03F094CAE9FFC7
:1057C00095CAEAFFEF521BE092CAE9FF93CAEAFFCB
:1057D000EFCF96FA95CA03F094CAE9FF95CAEAFF9B
:1057E000EF50965D03E0010E016E1FD0922BD8B4EE
:1057F000932B942BD8B4952B0001D5D70A0193CACB
:1058000003F092CAE9FF93CAEAFFEFCF96FA95CA6E
:1058100003F094CAE9FF95CAEAFFEF50965D03E0F2
:10582000010E016E02D0000E016E00011200300E5A
:105830000A018F5D0A0DF3CF92FA300E905D92252A
:10584000916F91CA01F00001120094880A0E006E57
:10585000002EFED794860B0E006E002EFED78B987E
:1058600094980A0E006E002EFED78B9694961A0E10
:10587000006E002EFED70000196AF2BE198EF29E4D
:10588000D00E0A01CE6F0001CFEC1BF019BEF28ED4
:105890001A0E006E002EFED70000196AF2BE198E95
:1058A000F29E96CACEFACFEC1BF019BEF28E1A0EFB
:1058B000006E002EFED70000196AF2BE198EF29E0D
:1058C00097CACEFACFEC1BF019BEF28E9498000066
:1058D000948682A6FED70A0E006E002EFED700D058
:1058E000000094880A0E006E002EFED71A0E006E7D
:1058F000002EFED700001200196AF2BE198EF29E29
:1059000095CAC5FA0A0E0A01C66F000100EC0CF038
:1059100019BEF28E01C096FA0A0196510A0DF35093
:10592000955D976F9639006EF00E00160050971136
:10593000016E000112000A01966B976B000185DF72
:1059400094CA95FAD9DF01C095FA010E0A01966F43
:1059500001C097FA000179DF93CA95FACDDF01C043
:1059600095FA020E0A01966F01C097FA00016DDFE9
:1059700092CA95FAC1DF01C095FA030E0A01966F2B
:1059800001C097FA000161DF8FCA95FAB5DF01C047
:1059900095FA040E0A01966F01C097FA000155DFCF
:1059A00090CA95FAA9DF01C095FA050E0A01966F13
:1059B00001C097FA000149DF91CA95FA9DDF01C045
:1059C00095FA060E0A01966F01C097FA00013DDFB5
:1059D000070E0A01966F976B000137DF23EF2DF05A
:1059E00060C48FFA61C490FA22DF01C0FEF063C484
:1059F0008FFA64C490FA1BDF01C0FFF066C48FFA0F
:105A000067C490FA14DF01C000F169C48FFA6AC458
:105A100090FA0DDF01C001F16CC48FFA6DC490FAE9
:105A200006DF010E01240101026F00C18FFAFFC0E1
:105A300090FAFEC091FAFDC092FA01C193FA02C138
:105A400094FA000178D71200196AF2BE198EF29EFC
:105A50000A01C86B940EC76F030EC96F000136ECC4
:105A60001FF019BEF28E196AF2BE198EF29E0A015B
:105A7000C06B940EBF6F0001A4EC1CF019BEF28E37
:105A800001C046F17E0EF66E1D0EF76E196AF2BE6B
:105A9000198EF29E0C0E0A01D36F00018CEC0BF0F4
:105AA00019BEF28E196AF2BE198EF29E46C1BFFA75
:105AB000180E0A01C06F000116EC0CF019BEF28E30
:105AC000196AF2BE198EF29E0A0E0A01DF6F0001FA
:105AD000ADEC03F019BEF28E196AF2BE198EF29E79
