:020000040800F2
:1000000000180020E50600085507000855070008FD
:1000100000000000000000000000000000000000E0
:10002000000000000000000000000000550700086C
:1000300000000000000000005507000855070008F8
:100040005507000855070008550700085507000820
:100050005507000855070008550700085507000810
:100060005507000855070008550700085507000800
:1000700055070008550700085507000855070008F0
:1000800055070008000000000000000055070008A8
:100090000000000055070008550700085507000834
:1000A0000000000055070008550700085507000824
:1000B0005507000800000000550700085507000814
:1000C00010B5064C2378002B07D1054B002B02D02E
:1000D000044800E000BF0123237010BD2804002065
:1000E0000000000078080008084B10B5002B03D072
:1000F0000749084800E000BF07480368002B00D10B
:1001000010BD064B002BFBD09847F9E7000000001C
:100110002C040020780800082804002000000000BB
:1001200070B50D4E0D4D0024AD1BAD1005D0A300D4
:10013000F35801349847A542F9D100F09DFB084ED1
:10014000084D0024AD1BAD1005D0A300F3580134B9
:100150009847A542F9D170BD94080008940800089A
:1001600094080008A0080008034B10B5002B02D02B
:10017000024800F005F810BD0000000091010008E1
:1001800010B5010000230022002000F01BF810BD74
:1001900070B5094B094CE41AA41009D0084AA518F7
:1001A000AD00ED182B68013C9847043D002CF9D1B7
:1001B00000F068FB70BDC046A0080008A408000855
:1001C000FFFFFF3FF8B544465F4656464D469B4607
:1001D0002F4BF0B41C68A4235B000500E0580E0010
:1001E000904600284BD043681F2B0DDC5C1C002D73
:1001F00021D102339B0044601E5000203CBC90463D
:100200009946A246AB46F8BD224B002B3CD0C820F5
:10021000400000E000BF002836D0A4220023520096
:10022000A15843600160A050403283500432835093
:100230000124002DDDD09A00914681444246882158
:100240004F467A50C4225200904680444246873935
:10025000994012688A460A439446424661461160B4
:10026000842249465F4652008F50022DC1D10200C0
:1002700055468D32FF3211680D431560B9E72000F5
:100280004D30FF30E050AEE701204042B6E7C046B7
:10029000900800080000000080B500AF024B180075
:1002A00000F032F8FEE7C0464804002080B582B076
:1002B00000AF78607B681800BD4602B080BDC046C4
:1002C00080B582B000AF786039607B68012B07D1C0
:1002D0003B68054A934203D1044B1800FFF7E6FF41
:1002E000C046BD4602B080BDFFFF000044040020B0
:1002F00080B500AF034B19000120FFF7E1FFBD46B9
:1003000080BDC046FFFF000080B58AB000AF7860B6
:100310002A4B2A4A52698021C9020A435A61274B53
:100320005A698023DB0213403B613B69234B234A1C
:100330005269802109030A435A61204B5A6980237C
:100340001B031340FB60FB681D491E4B0022180075
:1003500000F0AAF91423FB181B4A1A601423FB1897
:1003600001225A601423FB1801229A601423FB18FF
:100370000022DA601423FB18124A1900100000F062
:1003800027F81423FB18C02292001A601423FB18CC
:1003900001225A601423FB1800229A601423FB18D0
:1003A0000022DA601423FB18084A1900100000F03C
:1003B0000FF8C046BD460AB080BDC04600100240DE
:1003C00003F00000000400480FFF00000008004890
:1003D00080B586B000AF7860396000237B61002370
:1003E000FB6000233B6149E13B681B6801217A699E
:1003F00091400A001340FB60FB68002B00D13AE1FA
:100400003B685B68022B03D03B685B68122B23D1EF
:100410007B69DA087B6808329200D3583B617B69BC
:10042000072213409B000F229A401300DA433B69D6
:1004300013403B613B681A697B6907210B409B00B5
:100440009A4013003A6913433B617B69DA087B6881
:10045000083292003969D1507B681B683B617B6927
:100460005B0003229A401300DA433B6913403B616F
:100470003B685B6803221A407B695B009A4013006B
:100480003A6913433B617B683A691A603B685B6871
:10049000012B0BD03B685B68022B07D03B685B6885
:1004A000112B03D03B685B68122B30D17B689B68B3
:1004B0003B617B695B0003229A401300DA433B698E
:1004C00013403B613B68DA687B695B009A4013002C
:1004D0003A6913433B617B683A699A607B685B6861
:1004E0003B6101227B699A401300DA433B69134068
:1004F0003B613B685B681B0901221A407B699A409B
:1005000013003A6913433B617B683A695A607B6820
:10051000DB683B617B695B0003229A401300DA438E
:100520003B6913403B613B689A687B695B009A407A
:1005300013003A6913433B617B683A69DA603B68B0
:100540005A6880235B05134000D194E0514B514A17
:10055000926901210A439A614E4B9B690122134023
:10056000BB60BB684C4A7B699B0802339B009B586D
:100570003B617B69032213409B000F229A401300CA
:10058000DA433B6913403B617A689023DB059A426A
:100590000DD07B68414A934207D07B68404A934222
:1005A00001D1022304E0052302E0012300E000233F
:1005B0007A6903210A40920093403A6913433B61F0
:1005C00035497B699B0802339B003A695A50354B89
:1005D0001B683B61FB68DA433B6913403B613B6846
:1005E0005A6880235B02134003D03A69FB681343C7
:1005F0003B612C4B3A691A602A4B5B683B61FB6894
:10060000DA433B6913403B613B685A6880239B0295
:10061000134003D03A69FB6813433B61214B3A69AD
:100620005A60204B9B683B61FB68DA433B6913408F
:100630003B613B685A6880235B03134003D03A69EF
:10064000FB6813433B61174B3A699A60154BDB68B3
:100650003B61FB68DA433B6913403B613B685A6886
:1006600080239B03134003D03A69FB6813433B612B
:100670000C4B3A69DA607B6901337B613B681A682D
:100680007B69DA40131E00D0AEE6C046BD4606B018
:1006900080BDC04600100240000001400004004838
:1006A000000800480004014080B582B000AF7860C7
:1006B00008001100BB1C021C1A807B1C0A1C1A704B
:1006C0007B1C1B78002B04D0BB1C1A887B689A61AA
:1006D00003E0BB1C1A887B689A62C046BD4602B024
:1006E00080BDC0461348854604200168090E1F22BC
:1006F000914205D11048012101601048002101609C
:100700000F481049104A002302E0D458C450043363
:10071000C4188C42F9D30D4A0D4C002301E013603C
:100720000432A242FBD300F017F8FFF7F9FCFFF701
:10073000B3FDFEE700180020181002400000014041
:100740000000002028040020A4080008280400203D
:100750004C040020FEE7000080B500AF1B4B1B4A95
:10076000126801210A431A60184B184A5268184946
:100770000A405A60154B154A126816490A401A6019
:10078000124B124A126814490A401A600F4B0F4A62
:10079000526812490A405A600C4B0C4AD26A0F2127
:1007A0008A43DA62094B094A126B0D490A401A63FF
:1007B000064B064A526B01218A435A63034B0022BF
:1007C0009A6000F00FF8C046BD4680BD00100240A0
:1007D0000CB8FFF8FFFFF6FEFFFFFBFFFFFFC0FFB7
:1007E000ACFEFFFF80B582B000AF00237B6000232A
:1007F0003B601E4B11221A601D4B1D4A52685A6005
:100800001B4B1B4A52685A60194B194A52681949C6
:100810000A405A60164B164A5268A02189030A43BF
:100820005A60134B124A1268802149040A431A6025
:10083000C0460F4B1A6880239B041340F9D00C4B21
:100840000B4A526803218A435A60094B084A52688E
:1008500002210A435A60C046054B5B680C221340D4
:10086000082BF9D1C046BD4602B080BD0020024031
:1008700000100240FFFFC0FFF8B5C046F8BC08BC3E
:100880009E467047F8B5C046F8BC08BC9E46704707
:040890000000002044
:0C08940069010008E9000008F1020008FA
:0408A000C10000088B
:1008A40000000000EC02002054030020BC030020E0
:1008B4000000000000000000000000000000000034
:1008C4000000000000000000000000000000000024
:1008D4000000000000000000000000000000000014
:1008E4000000000000000000000000000000000004
:1008F40000000000000000000000000000000000F4
:1009040000000000000000000000000000000000E3
:1009140000000000000000000000000000000000D3
:1009240000000000000000000000000000000000C3
:1009340000000000000000000000000000000000B3
:1009440000000000000000000100000000000000A2
:100954000E33CDAB34126DE6ECDE05000B00000067
:100964000000000000000000000000000000000083
:100974000000000000000000000000000000000073
:100984000000000000000000000000000000000063
:100994000000000000000000000000000000000053
:04000005080006E504
:00000001FF
