:1000000000000120AD280000D5280000D7280000FE
:10001000D9280000DB280000DD28000000000000D7
:10002000000000000000000000000000DF280000C9
:10003000E128000000000000E3280000E52800009F
:1000400021180000E72800006D230000E7280000C9
:10005000E7280000E7280000E728000071190000E9
:10006000651E0000E7280000E7280000E7280000E0
:10007000E7280000E7280000E7280000E728000044
:10008000E7280000E7280000E7280000E728000034
:10009000E7280000E7280000E7280000E728000024
:1000A000E7280000E7280000E7280000E728000014
:1000B000E7280000E7280000000000000000000022
:1000C000E7280000E7280000E7280000E7280000F4
:1000D000E7280000E7280000E728000000000000F3
:1000E0000000000000000000000000000000000010
:1000F0000000000000000000000000000000000000
:1001000000000000000000000000000000000000EF
:1001100000000000000000000000000000000000DF
:1001200000000000000000000000000000000000CF
:1001300000000000000000000000000000000000BF
:1001400000000000000000000000000000000000AF
:10015000000000000000000000000000000000009F
:10016000000000000000000000000000000000008F
:10017000000000000000000000000000000000007F
:10018000000000000000000000000000000000006F
:10019000000000000000000000000000000000005F
:1001A000000000000000000000000000000000004F
:1001B000000000000000000000000000000000003F
:1001C000000000000000000000000000000000002F
:1001D000000000000000000000000000000000001F
:1001E000000000000000000000000000000000000F
:1001F00000000000000000000000000000000000FF
:1002000010B5054C237833B9044B13B10448AFF350
:1002100000800123237010BD480200200000000070
:1002200080300000084B10B51BB108490848AFF3F7
:1002300000800848036803B910BD074B002BFBD0B2
:10024000BDE81040184700BF000000004C0200202D
:1002500080300000F001002000000000154B002B52
:1002600008BF134B9D46A3F5803A00218B460F46ED
:100270001348144A121A02F06CFD0F4B002B00D0E9
:1002800098470E4B002B00D0984700200021040017
:100290000D000D48002802D00C48AFF3008002F09A
:1002A000FFFC2000290002F0D3FA02F0E5FC00BFB9
:1002B0000000080000000120000000000000000015
:1002C0004802002034080020000000000000000068
:1002D000F0B595B0002415460F4608461E4601F0BD
:1002E00087F9384623460822089505A91A9D0996DC
:1002F0000D950A948DF82C400C9401F0DDF99DF8D1
:100300001430079806998DF8104003F00302012A73
:100310000290ADF80C102CD0022A04D0384601F01F
:1003200077F915B0F0BDBDF81650C3F3C202C3F3A0
:100330008003C5F389158DF80E208DF80F3008263F
:10034000082D2C4628BF0824334622460EA93846DD
:1003500001F0B2F92D1B214608AB02AA0EA82644D3
:1003600000F08EFC002DEBD1384601F051F915B0AC
:10037000F0BDBDF814500598C5F38315C3F3C20E44
:10038000AA000EA9C3F38004C0F3952608233846BB
:100390008DF80EE08DF80F4001F08EF908AB009358
:1003A0002A4630460EA902AB00F0D2FBB6E700BFEA
:1003B000014B01221A70704764020020704700BF91
:1003C00030B5114D114889B001F09EFE0FCD6C463D
:1003D0000FC495E80F00062584E80F004FF0FF33A7
:1003E0004FF0EB7400226946084800950193029390
:1003F0000393069401F09AFD08B100F0D3FC044B7E
:1004000000221A7009B030BDA82D000000000020A5
:100410006502002000B583B0044B0093044A4023DA
:10042000FFF756FF03B05DF804FB00BF3504000082
:100430006802002010B5094C09480023D2B223708D
:1004400001F0E8FE30B9074B1B7813B12378002B7D
:10045000FCD010BD00F0A6FCF5E700BF6402002050
:10046000000000206502002030B5104D0FCD89B08E
:100470006C460FC495E80F00062584E80F004FF086
:10048000FF334FF0EB740A4A0A480095694601931E
:1004900002930393069401F049FD08B100F082FC39
:1004A000054B01221A7009B030BD00BFA82D000015
:1004B000B1030000000000206502002010B5054CCB
:1004C000FFF7D2FF2046042100F002FB01236372F4
:1004D00010BD00BF0800002008B5104B10480022D6
:1004E000FF21C3F8182499601A605A60C3F81424D5
:1004F00083F81C2401F034F870B90A4B0A4A9A1A9E
:10050000D20807D0094903460B5201339A4200F141
:100510000C00F9D1002008BD08BD00BFA8020020D2
:10052000D82D0000BC30000084300000F401002011
:1005300021B9124A02EBC0000068704730B410497C
:100540000E4D491BC9080ED00E4B5A88824218BF67
:10055000002205D10FE0DC89844203F10C0305D0B1
:1005600001329142F7D1002030BC704705EBC20048
:10057000006830BC70472846FAE700BF84300000AE
:10058000BC300000F4010020094B013903EBC0002E
:1005900003290BD8DFE801F00208060402207047A7
:1005A00040797047007970470420704700207047F9
:1005B000843000002DE9F04F844C626823689A4231
:1005C00085B042D00023C4F81834BFF34F8F606861
:1005D000A56800EA0503023304EB8302111D1279BA
:1005E00012F0030F024610D10B884988C3F3891318
:1005F00003EB911301331A4405EA0203023304EBBF
:100600008306311D3679B607EED004EB8303511C07
:100610005B680193294004EB810103F00303C9687F
:100620000291022B02F10208684F12D0012B76D002
:10063000032B06D02368181A18BF012005B0BDE8A7
:10064000F08FD7F81834002BF4D1002005B0BDE8A6
:10065000F08FBDF806305E48C3F38919B9F1500F29
:10066000CA46A8BF4FF0500A6AF38F130AF1080177
:10067000ADF8063000F076FF0646002800F08F80C7
:1006800025EA080B0BF1010B00F0B2FF4FEA8B0BD0
:100690000023082201A9304600F0E0FFDA4540F2CD
:1006A0008880BBF1000F7CD005EA080107EB8101CF
:1006B000CBEB0A050C3108235A463046EDB200F068
:1006C000CDFF2A460BF1080307F10C01304600F07C
:1006D000C5FF09F1030708EB9707D4F818343B4D21
:1006E000002B57D1D5F810544DB16B7A31462846BE
:1006F00013B12B681B6898476D68002DF5D1304603
:1007000000F086FF002000F091FBD4F818342F4A47
:1007100003B95760002000F091FB60688AE7BDF8DC
:1007200004302B48C3F38312062A28BF0622911CEB
:1007300062F389138900ADF8043000F013FF064618
:1007400068B300F055FF0023082201A9304600F0ED
:1007500085FFBDF8043013F4707F35D04FF0000AE8
:100760004FF0080908EA050104EB81014B460C3102
:100770000422304600F072FFBDF804300AF1010A8D
:10078000C3F3831308F10107534509F10409B8467F
:10079000E8D8A2E7304600F03BFF68684AE778688F
:1007A00048E7524607F10C010823304600F056FF97
:1007B0008FE705EA080107EB81010C315246082357
:1007C000304600F04BFF84E7474686E7A80200204A
:1007D000D82D00002DE9F04F5A4C89B0A368029043
:1007E00000200391019300F021FBA5686168D4F813
:1007F00000806B180133C8EB0303032B5FD805F1AE
:100800000109C8EB090904F5836C04F214470126B9
:10081000A2464FF0000E5CE8003F43EA06024CE8B7
:10082000002090F0000FF6D157E8003F43EA06029F
:1008300047E8002090F0000FF6D101EA05030233EB
:1008400004EB8302101D127912F0030F0A4613D134
:1008500003884088C3F3891303EB901301331A44D0
:1008600005EA0203023304EB830B0BF104009BF84F
:1008700004B01BF0030FEBD004EB830302325B6880
:10088000059303F00303012B56D0022B06D1BDF8CC
:100890001630C3F38913033302EB930257E8003F8A
:1008A00003EA0E0047E8000B9BF0000FF6D113B1EE
:1008B000CAF80420114609EB0103032BABD908EA5F
:1008C0000503023304EB830300201A7942F003028C
:1008D0001A7123680233236000F0B0FA019B029D75
:1008E00008F101021A4003EA080304EB8202023312
:1008F00004EB8303290CD1601A79C5F3001161F36D
:10090000820265F3C5021A719A886FF389129A8080
:100910005A68039961F39F221146012060F3010197
:100920005A60197194F81C341BB1FFF743FE00287C
:10093000FBD109B0BDE8F08FBDF81430C3F38313C9
:100940001A44ABE7A80200202DE9F04F5E4C89B0B5
:100950000746002002910392A66800F067FAA56896
:100960006168D4F800806B180133C8EB0303042BD3
:1009700062D805F1010AC8EB0A0A04F2144C4FF0E0
:10098000010E0196514E56E8003F43EA0E0246E83A
:10099000002090F0000FF6D15CE8003F43EA0E0221
:1009A0004CE8002090F0000FF6D105EA0103023375
:1009B00004EB8302101D127912F0030F0A4615D1C1
:1009C000019E03884088C3F3891303EB901301331E
:1009D0001A4405EA0203023304EB830B0BF1040013
:1009E0009BF804B01BF0030FEBD0019604EB8303DC
:1009F00002325B68059303F00303012B5ED0022BE8
:100A000006D1BDF81630C3F38913033302EB93020A
:100A10004FF000095CE8003F03EA09004CE8000BD6
:100A20009BF0000FF6D113B1274B11465A600AEB29
:100A30000103042BA6D9019E08EA0503023304EB47
:100A4000830300201A7942F003021A7123680333EA
:100A5000236000F0F3F908F1020108F101023140CE
:100A6000324006EA080304EB810104EB8202023300
:100A700004EB8303039DCD60380CD0601A79C7F373
:100A8000001161F3820267F3C5021A719A8801208E
:100A900060F389129A805A68029961F39F22114685
:100AA00060F301015A60197194F81C341BB1FFF70F
:100AB00081FD0028FBD109B0BDE8F08FBDF81430EE
:100AC000C3F383131A44A3E7A8020020C006002042
:100AD00030B4144DD5F81044002154B1237A8B4220
:100AE00014D0234602E01A7A8A420FD05B68002BAA
:100AF000F9D10172D5F810340A4A7BB15B684360C2
:100B0000D2F810345860084630BC704701310A29C9
:100B1000E3D14FF0FF31084630BC7047C2F81004F3
:100B20004360F0E7A802002038B5084BD3F8104422
:100B3000012583F81C543CB12368657220465B682C
:100B400098476468002CF7D138BD00BFA802002088
:100B50002DE9F04784B01D460C9C002394F80C80CE
:100B60002373EB7981460E4617460BB3062F0FD839
:100B7000DFE807F0363B414804515E00F168B06899
:100B800096E80C00019100904946204600F0C4F917
:100B9000EB792BB92B7AEBB93349204600F0BCF93D
:100BA000204600F0ADF984F80C8004B0BDE8F08771
:100BB0002B7A002B4BD1AA792C4BA88853F822A072
:100BC0000021FFF7B5FC524603462949204600F0B4
:100BD000A3F9CBE7274A2849204600F09DF9DBE737
:100BE0004946204600F098F9D2E732684946204647
:100BF00000F092F9CCE7494696E80C00204600F058
:100C00008BF9C5E7B16896E80C002046009149468B
:100C100000F082F9BCE7B068F768316996E80C002B
:100C200002918DE881004946204600F075F9AFE752
:100C30007069316996E80C000390B068F76802911A
:100C40008DE881004946204600F066F9A0E7A979C1
:100C5000A888FFF799FC094B074953F82020204644
:100C600000F05AF9A7E700BF3C2E0000EC2D000071
:100C7000282E0000342E0000242E0000002E00003C
:100C8000082952D82DE9F0471D46002395F80CA0FD
:100C90002B73D379914680460E46002B46D0002414
:100CA00006E018F80420013400F036F9082C0AD0C8
:100CB000A64231492846F4D830492846013400F08C
:100CC0002BF9082CF4D12E49284600F025F90024F0
:100CD00011E018F8047002F015F8384429494378F7
:100CE00013F0970F14BF3A462E222846013400F025
:100CF00013F9082C08D0A64223492846E9D8013424
:100D000000F00AF9082CF6D199F8073013B999F8D0
:100D10000830F3B91D49284600F0FEF8284600F0D7
:100D2000EFF885F80CA0BDE8F0877047137AB3B9E7
:100D300099F80620164BB9F8040053F82240002118
:100D4000FFF7F6FB224603461249284600F0E4F876
:100D5000A5E7114A1149284600F0DEF8DAE7917953
:100D60009088FFF711FC0E4B0C4953F820202846C1
:100D700000F0D2F8DCE700BF402E0000482E000053
:100D80004C2E0000502E0000302E00003C2E0000A3
:100D9000EC2D0000282E0000342E0000242E000030
:100DA000002E000000B585B000230390194601AA6B
:100DB00044F20100ADF80430029300F003F805B0EE
:100DC0005DF804FB10B5FFF7AFFEFFF7F3FB00285B
:100DD000FBD1104C10492088000440F00100FFF7BF
:100DE000F9FC0E4B1B68DB0700D5FFDE20880C49A1
:100DF000000440F00200FFF7EDFCBFF34F8F0949FC
:100E0000094BCA6802F4E0621343CB60BFF34F8F13
:100E100000BFFDE7F4010020B42E0000F0ED00E07B
:100E2000C02E000000ED00E00400FA0572B6024A90
:100E3000136801331360704798070020034A136852
:100E4000013B136003B962B6704700BF98070020EA
:100E5000B8B130B4416882680468521AD2B2531EE5
:100E60002160DBB242B101680A685C1E551C0D604E
:100E70001370E3B2FF2BF6D103680020187130BC69
:100E800070470E20704700BF70B504460020FFF782
:100E9000CDFF236861681A688A4215D9511E19600E
:100EA0002168A3680D680879268A12F8012CE46885
:100EB0005B1BDBB2984206FB024400D20B710020A0
:100EC000FFF7BCFF204670BD00240020FFF7B6FFEF
:100ED000204670BD38B5054600200C46FFF7A6FF3A
:100EE0002A681368591C1160E9682A8A641AB4FBDD
:100EF000F2F41C700020BDE83840FFF79FBF00BF30
:100F0000826802B9704710B50446436901680069F8
:100F100098470023A36010BD0EB400B582B00399BA
:100F200029B102AA04AB42F8043D00F095F802B0E2
:100F30005DF804EB03B070472DE9F84F1746B9424E
:100F4000884606461D46DDF828B00B9A7DD30B4631
:100F50004FF00109B3FBF7F39F4209F10109F9D9F9
:100F6000A94538BFA94612F0010A02D1BBF1000F12
:100F700049D1B268012402E0013D07FB04F4012DD0
:100F8000FAD8B8FBF4F18F42F7D9324D05E0B4FB43
:100F9000F7F4A4B1B8FBF4F1B268685C531CB36019
:100FA00033689854B26873689A4201FB1488EED390
:100FB0003046FFF7A5FFB4FBF7F4002CEAD1BAF1F5
:100FC000000F16D0BBF1000F33D0CB4588BF2024D3
:100FD0003ED9B3683268591CB160D454B2687368A2
:100FE0009A420BF1FF3B06D2BBF1000F09D0D94565
:100FF000EFD3BDE8F88F3046FFF782FFBBF1000F5B
:10100000F5D1BDE8F88F93071AD42024D945B0D282
:10101000B2683368511CB1609C54B26873689A42DC
:101020000BF1FF3B07D2BBF1000FA3D0D945F0D3A2
:10103000A0E7BDE8F88F3046FFF762FFB268F2E73D
:10104000002D0CBF30242024E0E74FF0010987E792
:10105000BDE8F88FD82E0000002900F061822DE94C
:10106000F04F064685B091460C460B78DFF8ECA4AD
:101070000DE0B2683168501CB0608B54B268736880
:101080009A4280F0D3802378002B00F0BA8001349C
:10109000002B00F0B680252BEBD14FF00008214645
:1010A00014F8013B2D2B00F0BB80302B00F0BB80EF
:1010B0002B2B00F0AD802A2B00F0BC80A3F1300573
:1010C000EAB2092A98BF013102D9A6E1A2F130059E
:1010D0000C4611F8013BA3F1300005EB850209280D
:1010E00003EB4202F2D91A462E2A00F0AF80002705
:1010F00001E014F8012F02F0FB03682BF9D0253A28
:10110000532A79D8DFE812F0760178007800780069
:10111000780078007800780078007800780078000F
:1011200078007800780078007800780078007800FF
:1011300078007800780078007800780078007800EF
:1011400078007800780078007800780078007800DF
:1011500078007800780078007800780078007800CF
:1011600078007800780078007800780078006601D0
:1011700078007800780078007800780078007800AF
:10118000780078005101F900780078007800780044
:10119000F900780078007800780078007800540032
:1011A00078007800C9007800B900780078006601FE
:1011B000D9F80020131DC9F80030B36831681568EC
:1011C000581C3022B060CA54B3687268934280F0F1
:1011D000AE813268581C7821B060D154B26873680F
:1011E0009A4280F0A08100220823019229460093B0
:1011F00010223046FFF7A0FE01342378002B7FF445
:1012000046AF337B002B40F0028105B0BDE8F08F84
:10121000214614F8013B2D2B48F004087FF445AF1C
:1012200048F001083BE748F0020838E73046FFF78E
:1012300067FE28E7D9F800301A1DC9F800204A785F
:101240001D682E2A01F101047FF451AF6278A2F1EA
:101250003003092B04F101044FF000073FF64BAFB8
:1012600007EB870702EB470714F8012FA2F13003C1
:10127000092BA7F13007F3D93DE7D9F800301A1D43
:10128000C9F800201968CDF804803B4600950A2271
:101290003046FFF751FE0134AFE7D9F800301A1D90
:1012A000C9F8002018F0010F1F6840F0BD80002F22
:1012B00000F05281384601F054FD8046454540F229
:1012C000FB80002D00F0F8804FF0200B05E0454535
:1012D00040F2F280002D00F0EF80B2683368511CBC
:1012E000B16003F802B0B26873689A4205F1FF3545
:1012F000EDD33046FFF704FEE9E7D9F800301A1DB8
:10130000C9F80020D3F800B08BEAEB73A3EBEB73C2
:10131000092B4FF0010108DD8AFB0302DB17C3EB49
:10132000A203092B01F10101F6DCB94238BF3946AD
:1013300035B1BBF1000F02DB18F0040F00D0013D06
:1013400018F0020F6DD118F0010F17D1002D00F029
:10135000E8808D4288BF202310D9B268501CB0604D
:1013600030688354B2687068824205F1FF3580F0BE
:101370008A80002D00F0D5808D42EED8BBF1000FA1
:10138000C0F2DA8018F0040F40F0858008F0030303
:10139000022B00F0A4808DE820013B4659460A222A
:1013A0003046FFF7C9FD013427E7D9F80020131DA7
:1013B000C9F80030B36831681278581CB060CA545C
:1013C000B26873689A42FFF417AF3046FFF798FD92
:1013D000013412E7D9F800301A1DC9F80020196845
:1013E000CDF804803B46009510223046FFF7A4FD5F
:1013F000013402E7B3683268591CB1604FF025012F
:10140000D154B26873689A42DFD20134F5E63046AF
:1014100005B0BDE8F04FFFF773BD1A460C46002536
:1014200062E6002FAAD08EE7B846C7EB080B18F883
:10143000012B8AB1B1683368481CB0605A54B26855
:1014400073689A42F1D33046FFF75AFDC7EB080B99
:1014500018F8012B002AEDD15D457FF6CDAE20278F
:1014600002E05D457FF6C8AEB2683368511CB160DA
:101470009F54B26873689A4205F1FF35F1D3304644
:10148000FFF73EFDEDE7304603930291FFF738FD8D
:10149000039B02996DE7B268531CB36033682B203D
:1014A0009854B26873689A42FFF470AF3046029164
:1014B000FFF726FD029969E7013F17F8013F002B6E
:1014C0003FF49AAEB2683168501CB0608B54B26879
:1014D00073689A42F1D33046FFF712FDEDE7002F13
:1014E0007FF459AF002D35D08D4288BF30237FF671
:1014F00052AFB268501CB06030688354B2687068F4
:10150000824205F1FF3503D225B38D42F1D842E77F
:10151000304603930291FFF7F3FC039B0299F3E734
:10152000704700252AE73046FFF7EAFC5BE63046C5
:10153000FFF7E6FCB3684CE6B268531CB36033684F
:101540002D209854B26873689A42CBF1000BFFF4D7
:101550001DAFABE700251EE7B846AFE667666666D7
:10156000FFF776BC2DE9F041B0F81080A8F104082F
:101570004144CF1C0646B7FBF8F7FFF785FC80B364
:10158000FFB200250123013F0446A0F80680066053
:101590000571437128D0804609E06379AF4203F1B9
:1015A00001036371C8F80000066080461CD0304615
:1015B000FFF76AFC01350028EFD16679721E2346D9
:1015C00003D0013082421B68FBD81F684EB1002552
:1015D00023682146013538461C46FFF77BFCAE42A6
:1015E000F6D10020BDE8F0812046BDE8F08100BFC3
:1015F00010B40430012350E8002F02EB030140E84F
:10160000001494F0000FF6D15DF8044B704700BF52
:101610000146021DF8B5012052E8004FA4EB00037B
:1016200042E8003595F0000FF6D113F0FF0300D02B
:10163000F8BD4E79701E0A4603D0013398421268F5
:10164000FBD81768002EF3D000240D68013438460B
:10165000FFF740FCA6422946F7D1F8BD2DE9F84333
:101660000446181DE688B0FBF6F30F46904606FBCD
:10167000130013B1013B2468FCD1351A454528BF3E
:101680004546B8F1000F15D04FF000092044C5EBD6
:1016900008082A4607EB0901043001F04FFB4645D4
:1016A000A944246835464FF0000028BF4546B8F1EC
:1016B000000FEBD1BDE8F8832DE9F843C688043369
:1016C00004460F46B3FBF6F0904606FB103110B10E
:1016D00001382468FCD1751A454528BF4546B8F144
:1016E000000F15D04FF000092144C5EB0808043164
:1016F0002A4607EB090001F021FB4645A94424686E
:1017000035464FF0000128BF4546B8F1000FEBD138
:10171000BDE8F883064A074B10B5002414701C601E
:10172000BFF35F8F0449054800F024F8204610BD40
:101730009C070020A0070020F42E0000A407002032
:1017400008B50020FFF772FBF1EE103A23F09F037B
:10175000E1EE103ABFF35F8F054B4022C3F88421BE
:101760000020FFF76BFB20BF40BF20BF08BD00BFBC
:1017700000E100E001600B6843604A68934204BFE7
:1017800000234360704700BF002810B418DB00F14D
:10179000604303F561434901C9B283F80013C3B242
:1017A0004009800000F1604000F5614003F01F0235
:1017B00001239340C0F8803103605DF8044B70470B
:1017C000C3B2044A03F00F0449012244C9B211769E
:1017D000E6E700BFFCEC00E010B50E4C23780BB13F
:1017E000852010BD0C4B0D4A002808BF18464FF04D
:1017F0008041037803F00103C1F87835106810F0D8
:10180000010003D001232370002010BD0721FFF742
:10181000BBFFF7E7B4070020002F000000E100E065
:1018200010B54FF08043D3F80443610704D5D3F8D3
:10183000082103F58473C2B9A20602D50E4B1A68BB
:101840006AB963060AD50D4B1A683AB100210C4AF1
:10185000196013680120BDE81040184710BD002032
:10186000074A186013689847EBE70021054A19609A
:1018700013689847E0E700BF1401004018010040DA
:10188000B0070020AC070020034B187808B1852072
:10189000704701221A707047B50700202DE9F84FF4
:1018A000154DDFF858A0814600264FF0010803E0EF
:1018B000FFF7C4FAA5431BD0F7B2002008FA07F4DB
:1018C000FFF7B4FA2C424FF0000006F10106EFD00A
:1018D000DAF80030094A14EA030BE9D11C435846F0
:1018E00089F800701460FFF7A9FA5846BDE8F88F30
:1018F0000420BDE8F88F00BFFFFF0F00B8070020ED
:1019000051B14AB10123834010B4C3F313042CB97D
:1019100007205DF8044B70470E207047094C24687F
:10192000234203D108205DF8044B7047C00000F14A
:10193000804303F5F8330020C3F81015C3F81425CD
:10194000E7E700BFB807002001238340C3F3130279
:101950002AB1054A1268134201D108207047034A90
:101960000020C2F804357047B807002000F001409D
:101970002DE9F041684B1A6888B0002A3CD1674FC6
:1019800097F82E30002B45D1654B1A68002A5FD19D
:10199000644B1C68002C6BD17E699EB14FF00048EF
:1019A0000125B6FA86F2930003F58C7303F18041AA
:1019B00001F5E04128FA02F2086826EA020620B999
:1019C000002EEED108B0BDE8F081A3F58C730C6059
:1019D00083F0040209680491C2F38002DB088DF8E9
:1019E00019208DF818308DF814503B68049A05A81A
:1019F0009847002ED5D1E5E70022484F1A601968B4
:101A000097F82E3000910099002B3AD097F82F309C
:101A1000002B4FD1444B1A68002AB5D00021196021
:101A200097F82D401A687B8B0192A5B2AB42019AC0
:101A30003A4A4ED85FD0384B3C4A002119601B68A7
:101A40000293012302991360354B1A68002A9FD034
:101A500000221A6008A81B680393022100F80C1DDD
:101A60003B6803993A7498472E4B1C68002C93D01E
:101A700000221A601B680593059B3A7408B0BDE804
:101A8000F081FA68786839898DF814300690ADF8DD
:101A90001C10002A2CD02648398B7A600122FB606A
:101AA0007983398102603B6805A89847002387F84D
:101AB0002F3065E7FB68786839898DF81420069027
:101AC000ADF81C10A3B1398B7B60FA607983398142
:101AD000E9E711895068164E5B1B9BB289B2C91A9F
:101AE00000EB41015383C6F82C16C6F83046A2E736
:101AF00000233B74D7E7D3684BB10D4851830121D4
:101B0000C0F82C3682F82F10C0F8304693E7012138
:101B1000538382F82F108EE704710040BC07002029
:101B200010710040147100400071004004700040CA
:101B30000070004070B5244C94F82C3082B013B182
:101B4000082002B070BD002938D0002838D00378B2
:101B50001E4D2160C5F8F03543781D4AC5F8F435AF
:101B60006FF0004100232374C678C5F80813136092
:101B700011680191019942F8043C043A8178126895
:101B8000009284F82E600720012684F82D306361CE
:101B900084F82F3084F82C60009BFFF7F5FD94F853
:101BA0002E300222C5F804230BB1C5F80463074B9D
:101BB00001220020C3F8002502B070BD0720C0E755
:101BC00004480123C4E700BFBC07002000700040A8
:101BD00004710040082F000038B51D4B1A7C0AB173
:101BE000112038BD02F0FF040A79012A9CBF194A6E
:101BF000C2F8004500F10C0203EB4205144C2D79AC
:101C0000D5B10D4603EB4203C9792A7A19715A718D
:101C10000446294600F028FD200100F1804000F52F
:101C2000E040EB792A7AC0F81425C0F810352B79FA
:101C3000012B07D9002038BD94F82D50013584F8C8
:101C40002D50DEE7034B0122C3F80025002038BDEC
:101C5000BC07002000700040044B054A93F82E009A
:101C6000044B00280CBF104618467047BC070020E4
:101C70000470004000700040F0B42D4A2D4B122437
:101C8000C2F808431D7C022D82B01CD01C7C012CA4
:101C90001FD093F82E405860022701250026C2F875
:101CA00004731D74DE601981E4B9234BC2F82C065D
:101CB000C2F830161C601B680193019B156020461A
:101CC00002B0F0BC70471120C2F8044302B0F0BC6F
:101CD0007047DC688CB102231120C2F8043302B0D3
:101CE000F0BC704793F82D40C2F82C06304659835B
:101CF000C2F8304602B0F0BC704793F82E20D8608E
:101D0000198372B90C4C23680B4A002BFBD00023BB
:101D100013601268064B0092009AC3F82C06C3F8B1
:101D20003016034B0222C3F804230020C8E700BF8B
:101D300000700040BC070020007100402DE9F04118
:101D400004792E4D66003719BF0005EB070E82B0EF
:101D50009EF808301BB1082002B0BDE8F081002ACF
:101D600049D0EA514A68CEF8042042799E466AB1C9
:101D70009A0002F5A072076847F802E0BF5842795E
:101D800001970133DBB29A42019FF1D88046006887
:101D90000F4640F30730C978FFF7F6FCD8F800107B
:101DA0007A78D1F8043502F0030223F003031343D9
:101DB000C1F80435D8F80010BA78D1F8083502F027
:101DC000030223F003031343C1F80835D8F80010C9
:101DD0003A78D1F81035344405EB840502F00F024F
:101DE000012023F00F03134328720020C1F810359F
:101DF00002B0BDE8F0810720AEE700BFEC0700208D
:101E00000368054A01211960037903EB430302EBE0
:101E1000830302221A727047EC070020F0B40768AF
:101E20009DF81060D7F8005240F201148C4025EA6A
:101E30000404C7F800420568D5F800422343C5F8FA
:101E400000324FF480348C40036846B9C3F808432D
:101E5000036801F5A87143F82120F0BC7047C3F86E
:101E60000443F5E700B52B4B1A6883B022B12A4A28
:101E7000D2F80423D20328D4284B1A6822B1264A68
:101E8000D2F8042390032CD4254B1A6822B1224A9D
:101E9000D2F80423510330D4224B1A6822B11E4ACF
:101EA000D2F80423120302D403B05DF804FB00222D
:101EB0001A601D4A1B68019351681368019A4FF418
:101EC000A670984703B05DF804FB00221A60164A1A
:101ED0001B68019351681368019A4FF4A0709847EA
:101EE000CAE700221A60104A1B6801935168136800
:101EF000019A4FF4A2709847C6E700221A600A4A76
:101F00001B68019351681368019A4FF4A4709847B5
:101F1000C2E700BF40810040008000404481004093
:101F2000488100404C810040EC070020F0B5047966
:101F3000724E6401331987B0DD7E15B1082007B0F9
:101F4000F0BD4D7F1D770D686B1C0BD04FF0A04787
:101F50000123AB40C7F808350B6803F5E073032590
:101F600047F823504B685F1C06D003F5E0734FF031
:101F7000A045002745F82370037906EB43131B7F28
:101F8000002B4DD003688D69C3F824554F7D0B7D20
:101F900005683B43C5F86C3503680F684D68C3F8A6
:101FA0000C75C3F814550B7D012B00F09B80331981
:101FB00005465A600B6951483351EAB12B79097FC4
:101FC0002A6800EB4310037F002B65D1C2F81C3157
:101FD000D2F81C712A680097009FC2F84431D2F8E9
:101FE00044212B6846480192019AC3F804032868EB
:101FF00040F30730FFF7C8FB2B792A6806EB431341
:102000001B7F002B44D00823C2F800353444002045
:102010000123E376E0752076A075A07607B0F0BDC9
:1020200005688F69C5F8247591F815E00D7D07687E
:102030004EEA0505C7F86C550568D1F800E04F6811
:10204000C5F81475C5F80CE50D7D012DAFD18D686F
:102050006F1C05D005F5E0754FF0A04747F8253017
:10206000CB685D1C0DD001254FF0A04705FA03F3A6
:10207000C7F80835CB6803F5E073032547F823500C
:10208000CB6805688F68C5F80835C5F810758EE708
:102090000423C2F80035B9E70023C2F81031D2F8A2
:1020A00010712A680297029FC2F82031D2F820717D
:1020B0002A680397039FC2F82431D2F824712A6852
:1020C0000497049FC2F84431D2F844212B6805924A
:1020D0000C48059AC3F80403286840F30730FFF75B
:1020E00053FB89E78B685D1CBAD003F5E0734FF0B2
:1020F000A045002745F82370B2E700BFF80700208D
:102100008000020010030200F0B503793D4A046824
:102110005B01D118097F00296DD00021C4F800159A
:10212000D118384C4968B1B1017904EB4114217FD1
:10213000002963D10168344CC1F808430168334E6B
:10214000090B4CB26409203401F01F01012505FA86
:1021500001F146F824100179076802EB4111D7F824
:102160000C65097FD7F814554FF0FF3EA9B3D7F897
:102170000815D7F81045C7F80CE5C7F814E500684E
:10218000C0F808E5C0F810E5771C06D006F5E07643
:102190004FF0A040022740F826706E1C06D005F5CF
:1021A000E0754FF0A040022640F82560651C06D07F
:1021B00004F5E0744FF0A040022540F82450481C7C
:1021C00006D001F5E0714FF0A040022440F8214014
:1021D00013440022DA765A60F0BDD7F80815D7F814
:1021E0001045C7F814E5C7F80CE50068C0F808E525
:1021F000C0F810E5C8E7C4F8001591E70168044C81
:102200009AE700BFF80700208402020000E100E026
:1022100010030200F0B50379534C5B01E51887B059
:102220002D7F3DB101F06045B5F1005F02D0102077
:1022300007B0F0BD23444C4F9E7D16B1112007B06E
:10224000F0BD9A7599609E8205796D017A19137FA8
:1022500013BB0168C1F81C31D1F81C6101680496F8
:102260000126049F8E600168D2F808E0C1F81C3195
:10227000D1F81C310593059B968A938A5768B6B2AC
:1022800001331EF806609BB29382C1F81C65002FD3
:102290002FD0002007B0F0BD03689168C3F820611B
:1022A000D3F8207103680197019FC3F85861D3F8F0
:1022B000586103680296967D029FC3F84415C3F8DF
:1022C00048650368012199605368002BE1D10368D8
:1022D00001E0002945D1D3F82021D3F85811002A74
:1022E000F7D0002914BF0F2000202C440023A37531
:1022F0009EE7967D938A9BB29E4202F1140122D9F9
:10230000016804E0938A9BB2B3F5807F03D0D1F8D3
:102310001C31002BF6D0938A9BB2B3F5807FE9D0B5
:10232000C1F81C71D1F81C310393039BB2F814C09F
:10233000938A1FFA8CFC01331EF80CC09BB2938267
:10234000C1F81CC5D6E70B889BB2B3F5807F08D0D7
:102350000268D2F81C31002BFBD00123D36000208F
:10236000C3E70F20C1E700BFF807002070B59B4C02
:10237000237F8EB0002B75D1994AD2F804138905BA
:1023800048D4974BD3F80423520704D5D3F8082137
:10239000002A40F0CA80924BD3F81C21C2B1A28A15
:1023A000A07D8E4992B282424FF00002C3F81C21F8
:1023B00080F0A980D3F81C210692069A888A8A8A1E
:1023C0008D6880B20132285C92B28A82C3F81C0503
:1023D000834BD3F84421DAB10022C3F84421D3F867
:1023E0004411A27E04910499002A40F08980E27D84
:1023F0007A4B6AB10022587ED968DA7501228DF8CD
:1024000030000B918DF828200AA893E80600904729
:102410000EB070BDD2F824110029B2D0C2F8243118
:10242000D2F82411A37E07914FF401710798C2F8E6
:1024300008130BB901235360694A02238DF8283031
:10244000D2F88034C2F88034E07DE2680D93002336
:102450008DF83000E375237621680B9263680AA833
:10246000984798E75E4BD3F82421002A40F09380E8
:10247000D3F8101161B1C3F81021D3F810110391F2
:102480000399D3F83C15E07DC9B2884200F0AA80D8
:10249000534BD3F84421B2B10022C3F84421D3F8FE
:1024A0004411E07D019101994C4960B1D3F83C356C
:1024B000C8688DF830300123CA750B908DF828302C
:1024C0000AA80AC99847464BD3F82021002A9FD072
:1024D0000022C3F82021D3F82011A07D009100999B
:1024E0003E49002894D0D3F84C058B688DF8300015
:1024F0008A750B938DF828200AC90AA8984787E7A0
:1025000001221A6073E7D3F81C310593059B00285C
:102510003FF45EAF8B688DF830008A750B938DF8B1
:1025200028200AC90AA8984752E7E17D2B4A0029CA
:1025300070D00021C3F80811D3F808110891089948
:10254000D068517ED3F818354354537ED17D013382
:10255000DBB25376627E214B8A427FF41CAF1A7E37
:10256000002A6DD19B7E13B91D4B01225A601C4A73
:10257000E06863684FF40171C2F80813627E8DF859
:102580003020002501220B902168E5758DF8282068
:102590000AA89847FFE60022C3F82421D3F82411A3
:1025A000029102218DF828100299D3F88014C3F803
:1025B00080140D91D3F83C15E368E27522768DF80E
:1025C00030100B93216863680AA89847044BD3F82E
:1025D0004421002A3FF477AF5EE700BFF8070020F0
:1025E00000200040217EF1B1D3F80062E17526F0B1
:1025F0002001E568C3F8001226698DF83000012338
:102600008DF82830227621680B95E66063680AA869
:1026100098473DE7C3F80811D3F808210992099AB1
:10262000D3F8183596E7E268E17501238DF830009C
:102630008DF828300B9294E80A000AA8984727E7FB
:10264000DE685D7E1869DA7501210022D8601A768D
:102650005A768DF828100B968DF8305093E80600C6
:102660000AA8904797E600BFF0B44B788E780F78B1
:10267000CD780C794A791B01360206F4E06603F046
:10268000300333432D0307F003061E4305F4805542
:102690008B792404354304F4E024060112052C430D
:1026A00002F4801206F180451B0605F5E045224341
:1026B00003F080731343C5F81835CB790A7AC5F84F
:1026C0001425C5F81035F0BC704700BF704700BF37
:1026D000F8B5037803B1F8BD054605214068FFF75A
:1026E000CBFAD0B90E4E0F4F30883A680E4900042D
:1026F00040F00300FEF728F9002430886B680B498E
:102700001A5F000440F003000234FEF71DF90A2CA2
:10271000F3D13B6801333B60F8BDFEF743FBE1E7D3
:10272000F401002030080020382F0000502F000056
:1027300030B585B0FFF7A8F8002838D10023072569
:1027400003241C4A1C488DF8083002A98DF8093072
:1027500003938DF80B508DF80A40FFF7EFFA18BB82
:10276000164B174AD3F8103513480021DBB2DA4074
:1027700000910123FFF752FB0F48FFF741FBFFF7E2
:102780006BFA04460F48FFF789F850B90D4B0E4914
:1027900018782246FFF7B4F808B1FEF703FB05B03E
:1027A00030BDFEF7FFFAF1E7FEF7FCFAD8E7FEF7D7
:1027B000F9FAC3E7CD260000302F0000008000406A
:1027C00000A86100180800204081004008B5054BB2
:1027D0001878FFF7B9F800B908BDBDE80840FEF762
:1027E000E1BA00BF1808002000B5154B85B0186885
:1027F00059681A7A01AB03C312491A700020FFF717
:1028000099F9C8B901A90020FFF7E6F988B90521AF
:102810000D48FFF731FA48B905210C48FFF72CFAAB
:1028200008B1FEF7BFFA05B05DF804FBFEF7BAFA8F
:10283000F2E7FEF7B7FAEAE7FEF7B4FAE2E700BF1D
:10284000242F0000D12600001C08002026080020AC
:1028500008B50020FDF740FE08B1FEF7A3FAFDF72A
:102860002DFE0020FEF7B8FF08B1FEF79BFAFEF739
:1028700051FF08B1FEF796FA0A4B0B49188800047D
:1028800040F00300FDF7A6FFFFF7AEFFFFF750FF94
:10289000FFF79CFFFEF754FFFDF78CFE0028FBD1ED
:1028A000F8E700BFF4010020542F00000649074A52
:1028B000074B9B1A03DD043BC858D050FBDC00F0EB
:1028C00013F8FDF7CBFC0000C4300000000000202E
:1028D00048020020FEE7FEE7FEE7FEE7FEE7FEE730
:1028E000FEE7FEE7FEE7FEE7F0B4B24B1A78062AF1
:1028F0001BD0B14AD2F8883043F47003C2F8883054
:10290000BFF34F8FBFF36F8F4FF01023D3F8002228
:10291000002AC0F27981D3F80432002BC0F274810E
:10292000A64BA74A1A60F0BC704704331B6818070F
:10293000DFD1A44B1B6803F0F002302A00F029819C
:1029400003F0E003402B00F024819E4B1B6803F052
:10295000F003302B00F00F819A4B1B6803F0F0025C
:10296000302A00F0F88003F0E003402B00F0F38001
:10297000944B1B6803F0F003302B00F0DC80914B8C
:102980001B6803F0F002302A00F0C18003F0E0037E
:10299000402B00F0BC808B4B1B6803F0F003302B06
:1029A00000F0A780874B1B6803F0F003302B00F08A
:1029B0008980844B1B6803F0F003502B30D0814B8F
:1029C0001B6803F0F002302A19D003F0E003402B1B
:1029D00015D07C4B1B6803F0F002302A03D003F0C3
:1029E000E003402B85D14FF08043D3F80024D20779
:1029F0007FF57FAF6FF00102C3F8002479E7724BD7
:102A0000724A1B6803F04F0313606A4B1B78062B56
:102A10007FF46FAF6E4B1B6818077FF46AAFD8E77F
:102A20004FF080526B4BD2F80414C3F82015D2F843
:102A30000814C3F82415D2F80C14C3F82815D2F8DA
:102A40001014C3F82C15D2F81414C3F83015D2F8AA
:102A50001814C3F83415D2F81C14C3F84015D2F872
:102A60002014C3F84415D2F82414C3F84815D2F83A
:102A70002814C3F84C15D2F82C14C3F85015D2F80A
:102A80003014C3F85415D2F83414C3F86015D2F8D2
:102A90003814C3F86415D2F83C14C3F86815D2F89A
:102AA00040144448C3F86C15D2F844140278C3F8B3
:102AB0007015062A7FF41DAF454B1B681C077FF479
:102AC00018AF7CE7444E454C4549464B0527012548
:102AD00000203F223760256008601A60354B1B7864
:102AE000062B7FF406AF3A4B1B681D077FF401AF3E
:102AF0005FE7304B3C4A1B780321062B11607FF4C3
:102B0000F8AE334B1B681E077FF4F3AE4AE74FF075
:102B100080430022C3F80C21C3F81021C3F83825E4
:102B2000244B1B78062B7FF470AF294B1B681F07C3
:102B30007FF4DFAE2FE72D491E4ACB68127823F0D1
:102B40008073062ACB607FF4D4AE214B1B681B0731
:102B50007FF4CFAE13E7264B164A1B68127825493F
:102B6000C3F34233062A0B60B8D1194B1B681A070E
:102B70007FF4BFAEFCE60F4B1F4A1B781F49116064
:102B8000062B7FF4B6AE124B1B6819077FF4B1AE6B
:102B9000E2E61B4B074A1B6812781A49C3F3042369
:102BA000062A0B60BCD10A4B1B6819073FF4CDAE57
:102BB0009FE600BFE00F00F000ED00E014000020F1
:102BC0000090D003E80F00F058020010E40E00401F
:102BD000E40F00F000C0004010560040885600404E
:102BE0001856004014560040A0050040F0ED00E0EB
:102BF000440200103C05004074C007400DF0ADBA1F
:102C00002403001040350140184B0122C3F804256D
:102C1000D3F80024002AFBD04FF0102315221349CB
:102C2000C3F80022D1F80034002BFBD04FF0102362
:102C300015220E49C3F80422D1F800240B4B002AB8
:102C4000FAD00022C3F80425D3F80024002AFBD0D0
:102C5000BFF34F8F0649074BCA6802F4E062134383
:102C6000CB60BFF34F8F00BFFDE700BF00E0014026
:102C700000ED00E00400FA0508B5074B044613B167
:102C80000021AFF30080054B1868836A03B19847B1
:102C9000204600F07BF800BF00000000702F00000D
:102CA00070B50E4B0E4CE41AA41000251E46A5422A
:102CB00004D056F8253098470135F8E700F068F859
:102CC000084C094BE41AA41000251E46A54204D066
:102CD00056F8253098470135F8E770BDE801002027
:102CE000E8010020EC010020E8010020034B1B68F4
:102CF000186A034B002808BF184670477800002068
:102D00007C00002008B5034B1868FFF7EFFFD0F8F0
:102D1000EC0008BD7800002082B001B901A93AB1E9
:102D200043B113780B601278101C18BF012003E028
:102D3000104601E06FF0010002B0704710B5431E6D
:102D40000A44914204D011F8014B03F8014FF8E70F
:102D500010BD02440346934202D003F8011BFAE778
:102D60007047034613F8012B002AFBD1181A0138CB
:102D7000704749B1FF2A85BF8A2303600A704FF06C
:102D8000FF3098BF0120704708467047FEE700BF3C
:102D9000F8B500BFF8BC08BC9E467047F8B500BF48
:102DA000F8BC08BC9E467047FFFFFFFFFFFFFFFF18
:102DB000FFFFFFFFFFFFFFFF00000000000000001B
:102DC0000000D6010701000015040000C103000047
:102DD000BD03000061707000C8060020D00600200E
:102DE000D8060020D80600201800000000000000CF
:102DF000942E00009C2E0000A42E0000AC2E00009B
:102E0000342E0000542E00005C2E0000642E0000C2
:102E10006C2E0000742E00007C2E0000842E00001A
:102E20008C2E0000257300003C25733E2025733A4C
:102E3000200000001B5B306D000000000D0A000048
:102E40002025303278000000202020007C00000087
:102E5000256300001B5B313B33306D001B5B313B56
:102E600033316D001B5B313B33326D001B5B313BFB
:102E700033336D001B5B313B33346D001B5B313BE7
:102E800033356D001B5B313B33366D001B5B313BD3
:102E900033376D006572726F720000007761726E79
:102EA000696E6700696E666F000000006465627598
:102EB00067000000466174616C206572726F720079
:102EC00053797374656D207265736574000000003A
:102ED00062616C6C6F6300003031323334353637E9
:102EE00038394142434445467077725F6D676D746F
:102EF0000000000084300000843000000400000066
:102F000001000000707069000100070073616164D6
:102F10006300000074696D65720000007561727471
:102F2000000000000000000002000001000000009E
:102F30000080004000040000414443206576656E37
:102F400074206E756D6265723A2025640000000081
:102F50002564000053414144432048414C2073699B
:102F60006D706C65206578616D706C652E00000079
:102F7000180000204300504F534958002E000020F5
:102F80002020202020202020282828282820202019
:102F900020202020202020202020202020202088C9
:102FA000101010101010101010101010101010042D
:102FB000040404040404040404101010101010107D
:102FC0004141414141410101010101010101010171
:102FD0000101010101010101010110101010101087
:102FE0004242424242420202020202020202020241
:102FF000020202020202020202021010101020005D
:1030000000000000000000000000000000000000C0
:1030100000000000000000000000000000000000B0
:1030200000000000000000000000000000000000A0
:103030000000000000000000000000000000000090
:103040000000000000000000000000000000000080
:103050000000000000000000000000000000000070
:103060000000000000000000000000000000000060
:103070000000000000000000000000000000000050
:04308000000000004C
:10308400D42D000000000300D02E0000000000003A
:10309400042F000000000000E82E000000000000E3
:1030A4000C2F000000000000142F0000000000009E
:0830B4001C2F000000000000C9
:0830BC00A0D1FF7F010000001C
:1030C4000020004000000000C82D000000000000A7
:1030D400000000000090D003000000000000000089
:1030E40000000000000000000000000000000000DC
:1030F40000000000000000000000000000000000CC
:1031040000000000000000000000000000000000BB
:1031140000000000000000000000000000000000AB
:10312400000000000000000000000000000000009B
:103134000000000000000000180000204300000010
:10314400000000000000000000000000000000007B
:103154000000000000000000000000004300000028
:10316400000000000000000000000000000000005B
:103174000000000000000000000000004300000008
:10318400000000000000000000000000000000003B
:1031940000000000000000000000000043000000E8
:1031A400000000000000000000000000000000001B
:1031B40000000000000000000000000043000000C8
:1031C40000000000000000000000000000000000FB
:1031D40000000000000000000000000043000000A8
:1031E40000000000000000000000000000000000DB
:1031F4000000000000000000000000004300000088
:1032040000000000000000000000000000000000BA
:10321400000000000000000000000000732D00000A
:10322400192D0000000000007E2F00007C2F0000FC
:103234007D2F00007D2F00007D2F00007D2F0000DA
:103244007D2F00007D2F00007D2F00007D2F0000CA
:103254007D2F0000FFFFFFFFFFFFFFFFFFFFFFFFCA
:10326400FFFF0000010041534349490000000000F2
:10327400000000000000000000000000000000004A
:1032840000000000000041534349490000000000D1
:10329400000000000000000000000000000000002A
:1032A40000000000000000002502000001020000F0
:0432B4000000000016
:1032B8000000000000000000000000000000000006
:1032C80000000000000000000000000000000000F6
:1032D80000000000000000000000000000000000E6
:1032E80000000000000000000000000000000000D6
:1032F80000000000000000000000000000000000C6
:0433080000000000C1
:04000003000028AD24
:00000001FF
