:020000040800F2
:1000000000500020B90200080103000801030008A5
:1000100001030008010300080103000800000000BC
:1000200000000000000000000000000001030008C4
:10003000010300080000000001030008010300089C
:100040000103000801030008010300080103000880
:100050000103000801030008010300080103000870
:100060000103000801030008010300080103000860
:100070000103000801030008010300080103000850
:100080000103000801030008010300080103000840
:100090000103000801030008010300080103000830
:1000A0000103000801030008010300080103000820
:1000B0000103000801030008010300080103000810
:1000C0000103000801030008010300080103000800
:1000D00001030008010300080103000801030008F0
:1000E00001030008010300080103000800000000EC
:1000F0000000000000000000000000000000000000
:0C01000000000000000000005FF808F1A3
:10010C0010B5054C237833B9044B13B10448AFF345
:10011C0000800123237010BD280400200000000083
:10012C0004030008084B10B51BB108490848AFF38D
:10013C0000800848036803B910BD074B002BFBD0A7
:10014C00BDE81040184700BF000000002C04002040
:10015C0004030008280400200000000080B400AF55
:10016C00BD4680BC704700BF80B400AFFEE700BF47
:10017C0070B50F4E0F4D761BB61018BF002405D06E
:10018C00013455F8043B9847A642F9D10A4E0B4D61
:10019C0000F0B2F8761BB61018BF002406D001345C
:1001AC0055F8043B9847A642F9D170BD70BD00BF0D
:1001BC00200300082003000828030008200300087F
:1001CC00024B13B1024800F005B870470000000064
:1001DC00ED010008002301461A46184600F014B839
:1001EC0038B5074D074C2C1BA41005D0013C55F815
:1001FC00043D9847002CF9D1BDE8384000F082B896
:10020C002C030008280300082DE9F047254C06466E
:10021C0025688846D5F8484192469946C4B360682B
:10022C001F2817DC411C76B104EB8003C3F888A0AF
:10023C00D4F88851012282401543022EC4F888510B
:10024C00C3F808911ED0831C6160002044F8238001
:10025C00BDE8F087144B03B34FF4C870AFF30080C4
:10026C000446D0B1D5F84831002784E888003846D8
:10027C00C5F848410121C4F88871C4F88C71002E6E
:10028C00E1D0D1E7D4F88C311A43C4F88C21DAE7E9
:10029C0005F5A674C5F84841C1E74FF0FF30BDE83D
:1002AC00F08700BF1C03000800000000002103E0E1
:1002BC000B4B5B58435004310A480B4B42189A4283
:1002CC00F6D30A4A02E0002342F8043B084B9A4258
:1002DC00F9D3FFF743FFFFF74BFFFFF745FF7047DD
:1002EC002C03000800000020280400202804002013
:1002FC0044040020FEE70000F8B500BFF8BC08BCC1
:10030C009E467047F8B500BFF8BC08BC9E467047C7
:04031C0000000020BD
:08032000CD01000831010008C5
:040328000D010008BB
:10032C0000000000EC02002054030020BC0300205D
:10033C0000000000000000000000000000000000B1
:10034C0000000000000000000000000000000000A1
:10035C000000000000000000000000000000000091
:10036C000000000000000000000000000000000081
:10037C000000000000000000000000000000000071
:10038C000000000000000000000000000000000061
:10039C000000000000000000000000000000000051
:1003AC000000000000000000000000000000000041
:1003BC000000000000000000000000000000000031
:1003CC000000000000000000010000000000000020
:1003DC000E33CDAB34126DE6ECDE05000B000000E5
:1003EC000000000000000000000000000000000001
:1003FC0000000000000000000000000000000000F1
:10040C0000000000000000000000000000000000E0
:10041C0000000000000000000000000000000000D0
:04000005080002B934
:00000001FF
