:020000040800F2
:1000000000500020151300085D1300085D13000860
:100010005D1300085D1300085D1300080000000078
:100020000000000000000000000000005D13000858
:100030005D130008000000005D1300084103000884
:100040005D1300085D1300085D1300085D130008D0
:100050005D1300085D1300085D1300085D130008C0
:100060005D1300085D1300085D1300085D130008B0
:100070005D1300085D1300085D1300085D130008A0
:100080005D1300085D1300085D1300085D13000890
:100090005D1300085D1300085D1300085D13000880
:1000A0005D1300085D1300085D1300085D13000870
:1000B0005D1300085D1300085D1300085D13000860
:1000C0005D1300085D1300085D1300085D13000850
:1000D0005D1300085D1300085D1300085D13000840
:1000E0005D1300085D1300085D13000800000000A8
:1000F0000000000000000000000000000000000000
:0C01000000000000000000005FF808F1A3
:10010C0010B5054C237833B9044B13B10448AFF345
:10011C0000800123237010BD340400200000000077
:10012C00C8130008084B10B51BB108490848AFF3B9
:10013C0000800848036803B910BD074B002BFBD0A7
:10014C00BDE81040184700BF000000003804002034
:10015C00C8130008340400200000000070B50F4ED6
:10016C000F4D761BB61018BF002405D0013455F87E
:10017C00043B9847A642F9D10A4E0B4D01F01EF9EB
:10018C00761BB61018BF002406D0013455F8043B7A
:10019C009847A642F9D170BD70BD00BF201400086D
:1001AC00201400082C1400082014000870B48407D4
:1001BC0046D0541E002A41D0CDB2034602E0621E46
:1001CC00E4B3144603F8015B9A07F8D1032C2ED93B
:1001DC00CDB245EA05250F2C45EA054519D9264629
:1001EC0003F11002103E0F2E42F8105C42F80C5C2A
:1001FC0042F8085C42F8045C02F11002F2D8A4F157
:10020C00100222F00F0204F00F041032032C1344DE
:10021C000DD91E462246043A032A46F8045BFAD846
:10022C00221F22F003020432134404F003042CB105
:10023C00C9B21C4403F8011BA342FBD170BC70472C
:10024C0014460346C2E700BF024B13B1024800F04C
:10025C0005B8704700000000750200080023014635
:10026C001A46184600F014B838B5074D074C2C1B2D
:10027C00A41005D0013C55F8043D9847002CF9D149
:10028C00BDE8384001F0A0B8301400082C14000868
:10029C002DE9F047254C064625688846D5F8484197
:1002AC0092469946C4B360681F2817DC411C76B18E
:1002BC0004EB8003C3F888A0D4F888510122824053
:1002CC001543022EC4F88851C3F808911ED0831C24
:1002DC006160002044F82380BDE8F087144B03B321
:1002EC004FF4C870AFF300800446D0B1D5F8483154
:1002FC00002784E888003846C5F848410121C4F835
:10030C008871C4F88C71002EE1D0D1E7D4F88C310F
:10031C001A43C4F88C21DAE705F5A674C5F84841F0
:10032C00C1E74FF0FF30BDE8F08700BF0C140008A8
:10033C000000000080B500AF00F030FA00BF80BDB7
:10034C0080B485B000AF154A144B9B6943F0010390
:10035C009361124B9B6903F00103BB60BB680F4AAE
:10036C000E4BDB6943F08053D3610C4BDB6903F01C
:10037C0080537B607B680A4B5B68FB60FB6823F0F7
:10038C00E063FB60FB6843F08073FB60044AFB682E
:10039C00536000BF1437BD4680BC7047001002404C
:1003AC000000014080B400AF00BFBD4680BC704768
:1003BC0080B594B000AF07F128032822002118461D
:1003CC00FFF7F4FE07F1140300221A605A609A60DA
:1003DC00DA601A613B1D00221A605A609A60DA607A
:1003EC000223BB620123BB631023FB6302237B64E8
:1003FC000023BB644FF42013FB6407F12803184659
:10040C0000F0E2FA0346002B14BF01230023DBB2F9
:10041C00002B01D0FFF7C6FF0F237B610223BB61CA
:10042C000023FB614FF480633B6200237B6207F186
:10043C0014030121184600F045FD0346002B14BFA0
:10044C0001230023DBB2002B01D0FFF7ABFF02230B
:10045C007B604FF48043FB603B1D184600F09EFE12
:10046C000346002B14BF01230023DBB2002B01D069
:10047C00FFF798FF00BF5037BD4680BD80B400AF7A
:10048C00074A074B9B6943F010039361054A054BE0
:10049C005B6843F44013536000BFBD4680BC70479B
:1004AC00001002400010014080B584B000AF194A22
:1004BC003B1D92E8030018600433198002330A0CC8
:1004CC001A7007F10B0300221A809A7000F020F9C1
:1004DC00FFF736FFFFF76CFFFFF7D0FF0E4800F079
:1004EC0063F80E4B0E4A1A600C4B0022DA630B4B6E
:1004FC00202283F83920094B202283F83A2009491D
:10050C00054800F06FF84FF40051074800F044FA2A
:10051C00F5E700BFEC130008900400205004002005
:10052C0000380140E01300080010014080B483B093
:10053C0000AF78607B6818460C37BD4680BC7047AE
:10054C0080B485B000AFF860B9601346FB80FB68DF
:10055C00BA685A60FB68FA881A80FB68FA889A8233
:10056C00FB685A68FB881A44FB689A60FB685A68F7
:10057C00FB68DA60FB685A68FB681A6100BF1437C5
:10058C00BD4680BC704700BF80B582B000AF7860BC
:10059C007B6803F5C6731846FFF7C8FF7B681846DF
:1005AC000837BD4680BD00BF80B582B000AF786013
:1005BC00786800F073F87B6803F5C6707B6803F508
:1005CC00D2734FF400721946FFF7BAFF7B68002212
:1005DC0083F801217B68002283F8892100BF08374A
:1005EC00BD4680BD80B483B000AF786039607B6855
:1005FC0093F88931002B2ED17B68002283F8882157
:10060C007B6893F888311A463B6813441B78002B9F
:10061C0014D07B6893F8883119467B6893F888313D
:10062C005A1CD0B27A6882F888011A463B68134487
:10063C001A787B680B4483F80821E1E77B6893F810
:10064C0088310133DAB27B6883F888217B68012218
:10065C0083F8892100E000BF0C37BD4680BC704791
:10066C0080B582B000AF786039607B68012B07D110
:10067C003B684FF6FF72934202D10348FFF784FFA9
:10068C0000BF0837BD4680BD9004002080B500AF88
:10069C004FF6FF710120FFF7E3FF80BD80B483B0FC
:1006AC0000AF7860164A164B9B6943F008039361C0
:1006BC00134A134B9B6943F480439361114A114BCA
:1006CC001B6843F00B4313600F4A0F4B5B6843F0FE
:1006DC00040353600D4A0D4BDB6843F00C03D360ED
:1006EC000A4B40F2A1129A60084A084BDB6843F4AB
:1006FC000053D36000BF0C37BD4680BC704700BFB1
:10070C0000100240000C0140000001400038014084
:10071C0080B500AF084A084B1B6843F01003136008
:10072C00032000F005F9002000F008F8FFF708FEA0
:10073C000023184680BD00BF0020024080B582B067
:10074C0000AF7860124B1A68124B1B7819464FF4A5
:10075C007A73B3FBF1F3B2FBF3F3184600F010F924
:10076C000346002B01D001230EE07B680F2B0AD827
:10077C00002279684FF0FF3000F0E6F8064A7B68FB
:10078C001360002300E0012318460837BD4680BDE6
:10079C00300400202C0400202804002080B400AF7A
:1007AC00054B1B781A46054B1B681344034A136010
:1007BC0000BFBD4680BC70472C04002034080020CC
:1007CC0080B400AF024B1B681846BD4680BC704716
:1007DC003408002080B485B000AF78607B6803F0EB
:1007EC000703FB600C4BDB68BB60BA684FF6FF037A
:1007FC001340BB60FB681A02BB68134343F0BF6332
:10080C0043F40033BB60044ABB68D36000BF1437A9
:10081C00BD4680BC704700BF00ED00E080B400AF67
:10082C00044BDB6803F4E0631B0A1846BD4680BC2E
:10083C00704700BF00ED00E080B483B000AF03460A
:10084C003960FB7197F90730002B0ADB0D4997F9DA
:10085C0007303A68D2B21201D2B20B4483F80023AB
:10086C000AE00949FB7903F00F03043B3A68D2B262
:10087C001201D2B20B441A7600BF0C37BD4680BCB5
:10088C00704700BF00E100E000ED00E080B489B0EB
:10089C0000AFF860B9607A60FB6803F00703FB6196
:1008AC00FB69C3F10703042B28BF0423BB61FB695D
:1008BC000433062B02D9FB69033B00E000237B6168
:1008CC000122BB6902FA03F35A1EBB681A407B690A
:1008DC009A4001217B6901FA03F3591E7B680B4096
:1008EC00134318462437BD4680BC704780B582B090
:1008FC0000AF78607B68013BB3F1807F01D30123AB
:10090C000FE00A4A7B68013B53600F214FF0FF3028
:10091C00FFF792FF054B00229A60044B07221A60E6
:10092C00002318460837BD4680BD00BF10E000E02C
:10093C0080B582B000AF78607868FFF74BFF00BFDE
:10094C000837BD4680BD00BF80B586B000AF0346FA
:10095C00B9607A60FB7300237B61FFF75FFF7861FE
:10096C007A68B9687869FFF791FF024697F90F30FA
:10097C0011461846FFF760FF00BF1837BD4680BD13
:10098C0080B582B000AF78607868FFF7AFFF0346A0
:10099C0018460837BD4680BD80B483B000AF786080
:1009AC000B467B807B68DA687B881340002B03D076
:1009BC007A887B685A6102E07A887B681A6100BF8A
:1009CC000C37BD4680BC704780B586B000AF7860F0
:1009DC007B68002B01D101236AE27B681B6803F062
:1009EC000103002B00F08680914B5B6803F00C0335
:1009FC00042B0BD08E4B5B6803F00C03082B11D12E
:100A0C008B4B5B6803F48033002B0BD0884B1B683B
:100A1C0003F40033002B6CD07B685B68002B68D12F
:100A2C00012345E27B685B68B3F5803F06D1804AC1
:100A3C007F4B1B6843F4803313602EE07B685B684C
:100A4C00002B0CD17A4A7A4B1B6823F48033136049
:100A5C00774A774B1B6823F4802313601DE07B6877
:100A6C005B68B3F5A02F0CD1714A714B1B6843F432
:100A7C00802313606E4A6E4B1B6843F48033136003
:100A8C000BE06B4A6A4B1B6823F480331360684A93
:100A9C00674B1B6823F4802313607B685B68002B17
:100AAC0013D0FFF78DFE386108E0FFF789FE024690
:100ABC003B69D31A642B01D90323F9E15C4B1B6806
:100ACC0003F40033002BF0D014E0FFF779FE38610B
:100ADC0008E0FFF775FE02463B69D31A642B01D977
:100AEC000323E5E1524B1B6803F40033002BF0D1D8
:100AFC0000E000BF7B681B6803F00203002B63D08F
:100B0C004B4B5B6803F00C03002B0BD0484B5B6822
:100B1C0003F00C03082B1CD1454B5B6803F48033AA
:100B2C00002B16D1424B1B6803F00203002B05D09F
:100B3C007B681B69012B01D00123B9E13C493C4B7B
:100B4C001B6823F0F8027B685B69DB0013430B60C6
:100B5C003AE07B681B69002B20D0364B01221A60CF
:100B6C00FFF72EFE386108E0FFF72AFE02463B69CC
:100B7C00D31A022B01D903239AE12D4B1B6803F0E6
:100B8C000203002BF0D02A49294B1B6823F0F802F2
:100B9C007B685B69DB0013430B6015E0254B00227F
:100BAC001A60FFF70DFE386108E0FFF709FE0246F8
:100BBC003B69D31A022B01D9032379E11C4B1B6827
:100BCC0003F00203002BF0D17B681B6803F00803D1
:100BDC00002B39D07B689B69002B19D0164B012256
:100BEC001A60FFF7EDFD386108E0FFF7E9FD0246FA
:100BFC003B69D31A022B01D9032359E10C4B5B6AD5
:100C0C0003F00203002BF0D0012000F0A9FA1BE046
:100C1C00094B00221A60FFF7D3FD38610EE0FFF795
:100C2C00CFFD02463B69D31A022B07D903233FE1C0
:100C3C000010024000004242800442429E4B5B6A1C
:100C4C0003F00203002BEAD17B681B6803F004035A
:100C5C00002B00F0A6800023FB75974BDB6903F09B
:100C6C008053002B0DD1944A934BDB6943F0805396
:100C7C00D361914BDB6903F08053BB60BB680123EC
:100C8C00FB758E4B1B6803F48073002B18D18B4AB9
:100C9C008A4B1B6843F480731360FFF791FD386136
:100CAC0008E0FFF78DFD02463B69D31A642B01D98E
:100CBC000323FDE0814B1B6803F48073002BF0D001
:100CCC007B68DB68012B06D17B4A7B4B1B6A43F0AC
:100CDC00010313622DE07B68DB68002B0CD1764A94
:100CEC00754B1B6A23F001031362734A724B1B6A28
:100CFC0023F0040313621CE07B68DB68052B0CD12A
:100D0C006D4A6D4B1B6A43F0040313626A4A6A4BCB
:100D1C001B6A43F0010313620BE0674A664B1B6AC4
:100D2C0023F001031362644A634B1B6A23F0040330
:100D3C0013627B68DB68002B15D0FFF741FD38612F
:100D4C000AE0FFF73DFD02463B69D31A41F28832B7
:100D5C00934201D90323ABE0574B1B6A03F0020308
:100D6C00002BEED014E0FFF72BFD38610AE0FFF703
:100D7C0027FD02463B69D31A41F28832934201D9CE
:100D8C00032395E04C4B1B6A03F00203002BEED1BE
:100D9C00FB7D012B05D1484A474BDB6923F080537F
:100DAC00D3617B68DB69002B00F08180424B5B6870
:100DBC0003F00C03082B61D07B68DB69022B46D156
:100DCC003F4B00221A60FFF7FBFC386108E0FFF78D
:100DDC00F7FC02463B69D31A022B01D9032367E0C7
:100DEC00354B1B6803F00073002BF0D17B681B6A3A
:100DFC00B3F5803F08D130492F4B5B6823F40032A8
:100E0C007B689B6813434B602B482B4B5B6823F42C
:100E1C0074127B68196A7B685B6A0B4313434360EB
:100E2C00274B01221A60FFF7CBFC386108E0FFF773
:100E3C00C7FC02463B69D31A022B01D9032337E0C6
:100E4C001D4B1B6803F00073002BF0D02FE01C4BE4
:100E5C0000221A60FFF7B4FC386108E0FFF7B0FC21
:100E6C0002463B69D31A022B01D9032320E0124B13
:100E7C001B6803F00073002BF0D118E07B68DB6972
:100E8C00012B01D1012313E00B4B5B68FB60FB686A
:100E9C0003F480327B681B6A9A4206D1FB6803F428
:100EAC0070127B685B6A9A4201D0012300E0002338
:100EBC0018461837BD4680BD001002400070004037
:100ECC006000424280B584B000AF786039607B68C6
:100EDC00002B01D10123D0E06A4B1B6803F0070201
:100EEC003B689A4210D26749664B1B6823F0070295
:100EFC003B6813430B60634B1B6803F007023B68B2
:100F0C009A4201D00123B8E07B681B6803F002030E
:100F1C00002B20D07B681B6803F00403002B05D04A
:100F2C00594A594B5B6843F4E06353607B681B6818
:100F3C0003F00803002B05D0534A534B5B6843F472
:100F4C00605353605049504B5B6823F0F0027B6850
:100F5C009B6813434B607B681B6803F00103002BF9
:100F6C0040D07B685B68012B07D1474B1B6803F4AF
:100F7C000033002B15D101237FE07B685B68022BCB
:100F8C0007D1414B1B6803F00073002B09D10123DF
:100F9C0073E03D4B1B6803F00203002B01D10123CE
:100FAC006BE03949384B5B6823F003027B685B6864
:100FBC0013434B60FFF704FCF8600AE0FFF700FCFA
:100FCC000246FB68D31A41F28832934201D90323BB
:100FDC0053E02D4B5B6803F00C027B685B689B0055
:100FEC009A42EBD1274B1B6803F007023B689A42ED
:100FFC0010D92449234B1B6823F007023B68134389
:10100C000B60204B1B6803F007023B689A4201D02F
:10101C00012332E07B681B6803F00403002B08D02B
:10102C001949194B5B6823F4E0627B68DB68134356
:10103C004B607B681B6803F00803002B09D0124936
:10104C00114B5B6823F460527B681B69DB00134314
:10105C004B6000F021F801460B4B5B6803F0F0038A
:10106C001B090A4AD35C21FA03F3094A1360094BA2
:10107C001B681846FFF762FB002318461037BD4665
:10108C0080BD00BF00200240001002401014000878
:10109C00300400202804002090B48AB000AF2B4B01
:1010AC003C1D186859689A68DB680FC4284A3B468F
:1010BC0012881A800023FB610023BB6100237B6232
:1010CC0000237B6100233B62224B5B68FB61FB6965
:1010DC0003F00C03042B02D0082B03D02DE01E4B85
:1010EC003B622DE0FB699B0C03F00F0307F1280218
:1010FC00134413F8243C7B61FB6903F48033002B0D
:10110C0013D0144B5B6803F400335B0C07F128021B
:10111C00134413F8283CBB617B690F4A02FB03F2B2
:10112C00BB69B2FBF3F37B6204E07B690B4A02FB05
:10113C0003F37B627B6A3B6202E0074B3B6200BFBE
:10114C003B6A18462837BD4690BC7047F813000818
:10115C00081400080010024000127A0000093D003B
:10116C0080B485B000AF78600A4B1B680A4AA2FBBA
:10117C0003235B0A7A6802FB03F3FB6000BFFB6886
:10118C005A1EFA60002BF9D100BF1437BD4680BC43
:10119C00704700BF30040020D34D621080B586B07C
:1011AC0000AF786000233B610023FB607B681B6809
:1011BC0003F00103002B7DD00023FB754F4BDB6943
:1011CC0003F08053002B0DD14C4A4C4BDB6943F0A0
:1011DC008053D361494BDB6903F08053BB60BB6820
:1011EC000123FB75464B1B6803F48073002B18D14D
:1011FC00434A434B1B6843F480731360FFF7E0FAD8
:10120C00386108E0FFF7DCFA02463B69D31A642B1D
:10121C0001D903236DE03A4B1B6803F48073002B58
:10122C00F0D0364B1B6A03F44073FB60FB68002B59
:10123C002ED07B685B6803F44072FB689A4227D01F
:10124C002E4B1B6A23F44073FB602E4B01221A6059
:10125C002C4B00221A60294AFB681362FB6803F0CE
:10126C000103002B14D0FFF7ABFA38610AE0FFF74B
:10127C00A7FA02463B69D31A41F28832934201D94C
:10128C00032336E01D4B1B6A03F00203002BEED048
:10129C001A491A4B1B6A23F440727B685B68134330
:1012AC000B62FB7D012B05D1144A144BDB6923F037
:1012BC008053D3617B681B6803F00203002B08D0BA
:1012CC000E490E4B5B6823F440427B689B681343CA
:1012DC004B607B681B6803F01003002B08D0074998
:1012EC00064B5B6823F480027B68DB6813434B601E
:1012FC00002318461837BD4680BD00BF00100240C1
:10130C000070004040044242002103E00B4B5B584C
:10131C00435004310A480B4B42189A42F6D30A4AFE
:10132C0002E0002342F8043B084B9A42F9D300F048
:10133C0011F8FEF713FFFFF7B7F8704730140008E9
:10134C000000002034040020340400203808002061
:10135C00FEE7000080B400AF154A154B1B6843F044
:10136C00010313601249124B5A68124B13404B6025
:10137C000F4A0F4B1B6823F0847323F480331360E4
:10138C000B4A0B4B1B6823F480231360084A084B51
:10139C005B6823F4FE035360054B4FF41F029A6005
:1013AC00054B4FF000629A6000BFBD4680BC704791
:1013BC00001002400000FFF800ED00E0F8B500BF9F
:1013CC00F8BC08BC9E467047F8B500BFF8BC08BC1A
:0413DC009E46704772
:1013E00068656C6C6F3132332E2E000068656C6C52
:1013F0006F20000000000000020304050607080932
:101400000A0B0C0D0E0F101001020000000000204E
:1014100000000000000000000102030406070809A4
:0C14200055020008310100089906000880
:04142C000D010008A6
:1014300000000000EC02002054030020BC03002048
:10144000000000000000000000000000000000009C
:10145000000000000000000000000000000000008C
:10146000000000000000000000000000000000007C
:10147000000000000000000000000000000000006C
:10148000000000000000000000000000000000005C
:10149000000000000000000000000000000000004C
:1014A000000000000000000000000000000000003C
:1014B000000000000000000000000000000000002C
:1014C000000000000000000000000000000000001C
:1014D000000000000000000001000000000000000B
:1014E0000E33CDAB34126DE6ECDE05000B000000D0
:1014F00000000000000000000000000000000000EC
:1015000000000000000000000000000000000000DB
:1015100000000000000000000000000000000000CB
:1015200000000000000000000000000000000000BB
:101850000000000000000000100000000100000077
:041860000024F4006C
:0400000508001315C7
:00000001FF
