:020000040800F2
:1000000000180020B1190008411900084319000820
:1000100000000000000000000000000000000000E0
:10002000000000000000000000000000451900086A
:1000300000000000000000004719000849190008EE
:10004000311A0008311A0008311A0008311A000864
:10005000311A0008311A0008311A0008311A000854
:10006000311A0008311A0008311A0008311A000844
:10007000311A0008311A0008311A0008311A000834
:10008000311A00080000000000000000311A0008CA
:1000900000000000311A0008311A0008311A000867
:1000A00000000000311A0008311A0008311A000857
:1000B000311A000800000000311A0008311A000847
:1000C00010B5064C2378002B07D1054B002B02D02E
:1000D000044800E000BF0123237010BD0C00002085
:1000E000000000008C1A0008044B10B5002B03D050
:1000F0000349044800E000BF10BDC04600000000F6
:10010000100000208C1A0008002243088B4274D390
:1001100003098B425FD3030A8B4244D3030B8B4208
:1001200028D3030C8B420DD3FF22090212BA030C11
:100130008B4202D31212090265D0030B8B4219D3F2
:1001400000E0090AC30B8B4201D3CB03C01A524112
:10015000830B8B4201D38B03C01A5241430B8B425A
:1001600001D34B03C01A5241030B8B4201D30B0343
:10017000C01A5241C30A8B4201D3CB02C01A52416A
:10018000830A8B4201D38B02C01A5241430A8B422D
:1001900001D34B02C01A5241030A8B4201D30B0216
:1001A000C01A5241CDD2C3098B4201D3CB01C01A30
:1001B000524183098B4201D38B01C01A524143093A
:1001C0008B4201D34B01C01A524103098B4201D328
:1001D0000B01C01A5241C3088B4201D3CB00C01A95
:1001E000524183088B4201D38B00C01A524143080D
:1001F0008B4201D34B00C01A5241411A00D2014632
:10020000524110467047FFE701B5002000F006F8A4
:1002100002BDC0460029F7D076E770477047C04658
:1002200010B5040000F0B6FEFA218900FFF76CFF5C
:1002300000F046FA012000222100404200F010FAAE
:10024000002010BD10B5064A136810210B4313603F
:100250000020FFF7E5FF01F0DBFA002010BDC046EB
:1002600000200240024A1368013313607047C04601
:1002700028000020014B18687047C0462800002065
:1002800030B583B00190FFF7F5FF0500019C631CBA
:1002900000D00134FFF7EEFF401BA042FAD303B0B9
:1002A00030BD70B5041E00D1A0E02023C35C002B3C
:1002B0001AD02268136802218B431360FFF7DAFF1C
:1002C000050023685A68920711D5FFF7D3FF401B3A
:1002D0000A28F6D9626A80239B02134363622023B3
:1002E0000522E254012070BD01F0B0FAE1E71A687E
:1002F00001210A431A60FFF7BDFF050023685A6811
:10030000D2070ED4FFF7B6FF401B0A28F6D9626A5F
:1003100080239B021343636220230522E2540120C1
:10032000E1E7227E012A3ED01A6880218A431A60C2
:10033000637E012B3CD02268136840218B431360FD
:10034000A37E012B3AD02268136820218B431360CF
:10035000E37E012B38D02268136810210B43136011
:10036000237F012B36D02268136808218B4313604A
:10037000637F012B34D02268136804218B43136000
:10038000A368E268134322691343626913436268F6
:10039000013A21681343CB610023636220330122B9
:1003A000E25400209FE71A6880210A431A60BFE7E1
:1003B0002268136840210B431360C1E72268136869
:1003C00020210B431360C3E72268136810218B437D
:1003D0001360C5E72268136808210B431360C7E761
:1003E0002268136804210B431360C9E701207AE7F0
:1003F00030B503682022825C013AD2B2012A06D9C4
:10040000426A8023DB0213434362012030BD802413
:10041000A40018590122104318511F204C69204094
:1004200082408725AD005859D44320405851C869AF
:10043000002818D1103D585920405851C86805046B
:1004400048680004000C054348694830C000C550A6
:100450008868050408680004000C054348694830B2
:10046000C00018184560C86901281AD0886900289A
:1004700032D18125AD0058592040585108690028D3
:1004800030D18525AD00585904405C51096A0129D5
:100490002ED0802189005A58012082435A500020D2
:1004A000B4E78325AD005859104358510868050436
:1004B00048680004000C054348694830C000C55036
:1004C00088680504C8680004000C05434869483082
:1004D000C00018184560C9E78125AD005859104380
:1004E0005851CBE78524A400185910431851CDE783
:1004F0008720800019580A431A50CAE770B50400D3
:100500002023C35C012B06D0426A80231B031343C4
:100510004362012070BD1F330222C2540268136877
:1005200001218B431360FFF7A5FE050023685B687C
:10053000DB070ED5FFF79EFE401B0A28F6D9626A3C
:1005400080239B021343636220230522E25401208F
:10055000E0E7002363620020DCE770B52024045D3F
:100560000568AD68013CE4B2012C06D9426A8023DB
:10057000DB0213434362012070BDE0246405254281
:1005800066D02D0E03242540022D43D80124AC4013
:100590001C608B68002B44D10B685B05CC6823433F
:1005A0002C00183424010668A3512B0018331B01BA
:1005B0000468A44663440C695C600B7D012B3BD04E
:1005C000D3791B06917909040B43517909020B4336
:1005D00011790B432C01016809198D31FF310B6032
:1005E000D3781B06917809040B43517809020B4319
:1005F0001278134302689446644422008932FF3221
:100600001360026818352D01AB5801210B43AB5024
:100610000020B1E7426A80231B0413434362012098
:10062000AAE74C68E4002343CC6823432C00183429
:1006300024010668A351B8E72B0018331B01016899
:100640008C4663445C688021490021435960B7E7C8
:10065000426A80239B031343436201208CE700001E
:1006600070B5002811DB8408134DC034A400625912
:1006700003231840C000FC331E008640B2438901AA
:100680000B4083401343635170BDC0B20F22024040
:10069000083A920806329200084BD3185D6803248A
:1006A0002040C000FF2214008440A54389010A4075
:1006B00082402A435A60E7E700E100E000ED00E0F5
:1006C00001380A4B98420FD8094A50600948036A1A
:1006D0001B021B0AC02109060B430362002393601F
:1006E00007331360002070470120FCE7FFFFFF0085
:1006F00010E000E000ED00E0F0B5C64600B582B0C5
:1007000000236EE084683440A446CC68BC40624656
:10071000144384604468AC434A68120901251540BB
:100720009D4025434560C46826408C68BC403443E6
:10073000C4604A68D20053D54A4DAE6901242643AD
:10074000AE61AD692C400194019C9C08A51CAD00D4
:10075000454EAF5903251D40AD000F26AE40B743AF
:100760009026F605B04275D0404EB04274D0404E4F
:10077000B0426DD00526AE4035003D430234A400A2
:10078000394EA5513B4C25684246D4432E002640A5
:100790004A68D20302D5424615432E00354D2E60DD
:1007A0006D682E0026404A68920302D542461543E2
:1007B0002E00304D6E60AD682E0026404A68D20291
:1007C00002D5424615432E002A4DAE60ED682C40FE
:1007D0004A68920202D542462A431400254AD46050
:1007E00001330A681400DC4038D001259D402A40BE
:1007F0009046F5D04C68022C01D0122C0ED1DC08AA
:100800000834A400275807261E40B6000F22B24025
:1008100097430A69B24016003E43265002685F00C3
:1008200003242600BE40F643324094464A681440F2
:10083000BC406246144304604C68621E012A00D822
:1008400060E7112C00D15DE7122C00D06BE759E76F
:10085000022690E700268EE701268CE702B004BC52
:100860009046F0BD00100240000001400004004826
:100870000008004800040140436959404161704745
:1008800070B582B004000368DB072BD5B34B5A6800
:100890000C231340042B1DD0B04B5A680C2313407B
:1008A000082B0ED06368012B41D0002B56D1AB4BE7
:1008B0001A68AB490A401A601A68AA490A401A60C5
:1008C0003BE0A64B5B68C0225202134080225202DA
:1008D0009342E7D1A14B1B689B0303D56368002BB0
:1008E00000D139E223689B0778D59C4B5B680C22CA
:1008F0001A4262D0994B5A680C231340082B53D0EC
:10090000E368002B00D18BE0944A136801210B436C
:100910001360FFF7AFFC0500904B1B689B0776D474
:10092000FFF7A8FC401B0228F6D9032017E28B4AE8
:10093000116880235B020B4313606368002B25D092
:10094000FFF798FC0500854B1B689B03CAD4FFF793
:1009500091FC401B6428F6D9032000E2052B09D046
:100960007E4B1A687E490A401A601A687D490A401F
:100970001A60E2E7794B19688022D2020A431A60B2
:100980001968802252020A431A60D6E7FFF772FC08
:100990000500724B1B689B03A4D5FFF76BFC401B43
:1009A0006428F6D90320DAE16C4B5B68C02252025E
:1009B0001340802212029342A2D1684B1B689B070E
:1009C00004D5E368012B01D00120C8E163490B681D
:1009D000F82293432269D20013430B6023681B075C
:1009E00044D5E369002B2ED05C4A536A01210B43A6
:1009F0005362FFF73FFC0500584B5B6A9B0735D4F9
:100A0000FFF738FC401B0228F6D90320A7E1534921
:100A10000B68F82293432269D20013430B60DDE791
:100A20004E4A136801218B431360FFF723FC050036
:100A30004A4B1B689B07D1D5FFF71CFC401B0228C3
:100A4000F6D903208BE1454A536A01218B43536257
:100A5000FFF710FC0500414B5B6A9B0706D5FFF7CB
:100A600009FC401B0228F6D9032078E123685B07C4
:100A700000D47FE0394BDB69DB001DD4374AD169F4
:100A8000802040050143D161D36903400193019B5C
:100A90000125354B1B68DB0510D5A368012B21D040
:100AA000002B36D12D4B1A6A01218A431A621A6A29
:100AB00003318A431A621AE00025EAE72A4A1168DC
:100AC00080235B000B431360FFF7D4FB0600264B2B
:100AD0001B68DB05E1D4FFF7CDFB801B6428F6D94A
:100AE00003203CE11D4A136A01210B431362A368F2
:100AF000002B24D0FFF7BEFB0600184B1B6A9B0798
:100B000036D4FFF7B7FB801B184B9842F5D903206A
:100B100025E1052B09D0114B1A6A01218A431A627B
:100B20001A6A03318A431A62E1E70C4B1A6A0421FC
:100B30000A431A621A6A03390A431A62D7E7FFF7AF
:100B400099FB0600054B1B6A9B0711D5FFF792FB2B
:100B5000801B064B9842F5D9032000E100100240AB
:100B6000FFFFFEFFFFFFFBFF007000408813000047
:100B7000012D3AD02368DB0610D56369012B3AD0EA
:100B8000053358D1784A536B04218B435363536B1D
:100B9000F4318B43A169C9000B43536323689B065F
:100BA00000D482E0704B5A680C2313400C2B60D0A9
:100BB0006D4B5A680C231340082B53D0236A002B2B
:100BC00060D0694A516B80235B020B435363FFF78C
:100BD00051FB0500644B5B6BDB0366D4FFF74AFBFC
:100BE000401B0228F6D90320B9E05F4AD3695F4968
:100BF0000B40D361BEE75C4B5A6B04210A435A6336
:100C00005A6B03390A435A63FFF734FB0500564B0E
:100C10005B6B9B0706D4FFF72DFB401B0228F6D920
:100C200003209CE050494B6BF8229343A269D20009
:100C300013434B63B2E74C4B5A6B04210A435A638C
:100C40005A6B03398A435A63FFF714FB0500464B7E
:100C50005B6B9B07A2D5FFF70DFB401B0228F6D963
:100C600003207CE0404B5B68C02252021340934259
:100C7000A4D13D4B5B6BDB0317D5236A012B14D04A
:100C800001206CE0384A536B39490B405363FFF73E
:100C9000F1FA0500344B5B6BDB0306D5FFF7EAFA8C
:100CA000401B0228F6D9032059E0636A002B55D077
:100CB0002D4A51680C220A40082A52D0022B12D029
:100CC000294A13682B490B401360FFF7D3FA04003D
:100CD000254B1B689B013DD5FFF7CCFA001B022872
:100CE000F6D903203BE0204A136822490B401360E9
:100CF000FFF7C0FA05001C4B1B689B0106D5FFF7E8
:100D0000B9FA401B0228F6D9032028E0164BDA6A0C
:100D10000F218A43216B0A43DA625A6816490A4056
:100D2000E16AA06A01430A435A60196880225204AA
:100D30000A431A60FFF79EFA04000B4B1B689B01E5
:100D400006D4FFF797FA001B0228F6D9032006E025
:100D5000002004E0002002E0012000E0002002B0BA
:100D600070BD0120FBE7C04600100240FFFFFFEF0F
:100D7000FFFFFEFFFFFFFFFEFF7FC2FF30B589B020
:100D800004AA1F4B180032C832C2110002680A6060
:100D90006A46103313CB13C21B681360194B5A6891
:100DA0000C231340082B04D00C2B26D0164809B076
:100DB00030BD910C0F23194004A8445C1149C96A45
:100DC0000B406946C95CC0235B021A4080235B026A
:100DD0009A4208D0C0235B029A4209D00A48FFF722
:100DE00093F96043E3E70848FFF78EF96043DEE7D5
:100DF0000648FFF789F96043D9E70448D7E7C046BA
:100E0000A41A00080010024000127A00006CDC02F4
:100E100070B505000C00594B1A68012313408B4232
:100E20000BD256490B680122934323430B600B6896
:100E30001A40A24201D0012070BD2B689B0706D545
:100E40004F4A5368F0218B43A9680B4353602B68CA
:100E5000DB0763D56B68012B09D0022B28D0032B4D
:100E60002CD0474A1268920705D40120E4E7444A8F
:100E7000126892037FD542494A6803208243134394
:100E80004B60FFF7F7F906006B68012B1CD0022BB3
:100E900028D0032B34D03A4B5B680C221A423DD049
:100EA000FFF7E8F9801B374B9842F4D90320C3E7DA
:100EB000334A12689201DED40120BDE7304A526BFA
:100EC000D203D8D40120B7E72D4B5A680C23134026
:100ED000042B23D0FFF7CEF9801B2A4B9842F3D97D
:100EE0000320A9E7264B5A680C231340082B15D082
:100EF000FFF7C0F9801B234B9842F3D903209BE7EF
:100F00001F4B5A680C2313400C2B07D0FFF7B2F984
:100F1000801B1C4B9842F3D903208DE7174B1A68AE
:100F200001231340A3420BD914490B6801229343B8
:100F300023430B600B681A40A24201D001207BE7DB
:100F40002B685B0706D50E4A53680F490B40E968CA
:100F50000B435360FFF712FF094B5A6812090F2326
:100F600013400A4AD35CD840094B18600020FFF7B1
:100F700057F9002060E701205EE7C04600200240EC
:100F80000010024088130000FFF8FFFFC41A000899
:100F900008000020014B18687047C0460800002078
:100FA00010B5FFF7F7FF044B5A68120A07231340E6
:100FB000024AD35CD84010BD00100240D41A000889
:100FC00030B5036A046A0125AC4304628469EF35D5
:100FD000AC43120122430A24A343194382610162F4
:100FE00030BD000030B5036A1024A3430362846956
:100FF000036A054D2C4012032243A024A343090198
:1010000019438261016230BDFF0FFFFF83687022C8
:1010100093430722114319438160704703681E4AB6
:10102000904206D08022D205904202D01B4A9042C4
:1010300003D1702293434A681343174A90420FD05A
:101040008022D20590420BD0144A904208D0144A14
:10105000904205D0134A904202D0134A904203D1E5
:10106000124A1340CA681343802293434A691343C8
:1010700003608B68C3620B688362074B984205D09C
:10108000084B984202D0084B984201D10B69036388
:10109000012343617047C046002C0140000400401A
:1010A000002000400044014000480140FFFCFFFFD9
:1010B00070B5041E14D03D23C35C002B0AD03D251F
:1010C00002236355211D2068FFF7A8FF0123635504
:1010D000002070BD3C330022C25400F0EBFBEEE771
:1010E0000120F6E730B58468034D2C401B021A43FB
:1010F00011432143816030BDFF00FFFF10B50400A4
:101100003C23C35C012B00D17FE03C230122C2546D
:1011100001330132C254026893683D480340936032
:101120000B68402B5DD010D9702B43D020D8502BAA
:101130004DD0602B36D1CA6849682068FFF752FF4E
:1011400060212068FFF762FF2CE0102B53D008D9F4
:10115000202B55D0302B25D130212068FFF756FFAA
:1011600020E0002B1ED100212068FFF74FFF19E07F
:1011700080225201934210D080229201934211D1D9
:10118000CB684A6889682068FFF7ACFF22689168DD
:101190008023DB010B43936004E0226893680721FE
:1011A0008B4393603D230122E254013B0022E25431
:1011B000002010BDCB684A6889682068FFF792FF5D
:1011C0002268936877218B430B439360EAE7CA68F0
:1011D00049682068FFF7F4FE50212068FFF716FFEA
:1011E000E0E7CA6849682068FFF7EAFE4021206806
:1011F000FFF70CFFD6E710212068FFF707FFD1E7C4
:1012000020212068FFF702FFCCE70220D1E7C0468B
:101210008800FFFFF0B53C23C35C012B1ED03C22AD
:10122000012585543D240223035506687368702701
:10123000BB437360066873680F683B43736006685E
:10124000B3688027BB43B3600668B36849680B4343
:10125000B3600555002383540020F0BD0220FCE755
:1012600070B5040083680269134342691343C2697D
:10127000134301680A686048024013430B60226808
:1012800053685E490B40E1680B435360A269236ACF
:101290001A4321688B685A48034013438B602568C2
:1012A000584B9D4220D0584B9D4231D01023802274
:1012B0001202E16991422FD0022B00D180E000D8C8
:1012C0006EE0042B00D187E0082B00D092E061682B
:1012D000480880231B029C466044FEF715FF00046B
:1012E000000CE860002040E0484B1A6B03231340D9
:1012F000012B09D0002B05D0022B07D0032B09D0DE
:101300001023D4E70023D2E70423D0E70823CEE755
:101310000023CCE70223CAE7022B27D00FD9042BE6
:101320002FD0082B39D16368580880235B029C4674
:1013300060446168FEF7E8FE83B200200CE0002BF9
:101340002BD1FFF72DFE400063685B08C018616871
:10135000FEF7DAFE83B200200F22190091435B10E2
:10136000083A13400B432268D36070BD6368580885
:10137000274B9C4660446168FEF7C6FE83B200209E
:10138000EAE7FFF7FBFC400063685B08C018616890
:10139000FEF7BAFE83B20020DEE701200023DBE780
:1013A000002B27D1FFF7FCFD63685B08C01861685C
:1013B000FEF7AAFE23680004000CD8600020D4E7E2
:1013C00061684808134B9C466044FEF79DFE00048C
:1013D000000CE8600020C8E7FFF7D0FC63685B08FA
:1013E000C0186168FEF790FE23680004000CD86006
:1013F0000020BAE70120B8E7F369FFEFFFCFFFFF56
:10140000FFF4FFFF0038014000440040001002409C
:101410000024F40000127A00436ADB0706D5026854
:1014200053682C490B40816A0B435360436A9B0706
:1014300006D50268536828490B40C16A0B435360C4
:10144000436A5B0706D50268536824490B40016B69
:101450000B435360436A1B0706D502685368204953
:101460000B40416B0B435360436ADB0606D50268B1
:1014700093681C490B40816B0B439360436A9B0646
:1014800006D50268936818490B40C16B0B43936003
:10149000436A5B060BD50268536814490B40016C24
:1014A0000B43536080235B03026C9A420AD0436A69
:1014B0001B0606D5026853680D490B40816C0B432F
:1014C00053607047026853680A490B40416C0B43F4
:1014D0005360ECE7FFFFFDFFFFFFFEFFFFFFFBFF99
:1014E000FF7FFFFFFFEFFFFFFFDFFFFFFFFFEFFFCC
:1014F000FFFFF7FFFFFF9FFFF0B5C64600B50600F0
:101500000C0017009846069D3368DB6923401B1BBF
:101510005A425341BB421ED16B1CF5D0002D05D061
:10152000FEF7A8FE4346C01AA842EDD932681368F8
:101530000B490B40136032689368A331FF318B4332
:10154000936020236922B3540132B35448330022FC
:10155000F254032000E0002004BC9046F0BDC046D9
:101560005FFEFFFF30B583B004000023C366FEF7C3
:1015700081FE05002368174A93420AD0202369227E
:10158000A3540132A35448330022E254002003B094
:1015900030BD1B681B0710D423681B685B07EDD5A3
:1015A00080210D4B00932B000022C9032000FFF780
:1015B000A3FF0028E2D00320E9E78021064B009337
:1015C0000300002289032000FFF796FF0028E3D0E4
:1015D0000320DCE700380140FFFFFF0110B5041EC7
:1015E00030D06923C35C002B22D069232422E2542B
:1015F0002268136801218B4313602000FFF730FE3F
:10160000012814D0636A002B18D1226853680E4950
:101610000B405360226893682A218B4393602268B1
:10162000136829390B4313602000FFF79BFF10BD9F
:1016300068330022C25400F051F9D6E72000FFF7CA
:10164000EBFEE2E70120F2E7FFB7FFFF10B50C4821
:101650000C4B03605A2343608023DB058360002327
:10166000C360A02212030261C0229203426103768A
:1016700043768376C37603774377FEF712FE10BD79
:101680002C0000200064004030B587B010220021FB
:1016900002A800F0F3F908220021684600F0EEF9F4
:1016A0000E4C8023DB05236000256560A560962332
:1016B0005B01E3602561A5612000FFF7F9FC802351
:1016C0005B01029302A92000FFF718FD0095019528
:1016D00069462000FFF79EFD07B030BD680000207E
:1016E00010B50948094B0360E1235B024360002306
:1016F0008360C36003610C2242618361C361036242
:101700004362FFF76BFF10BDA800002000440040BB
:1017100010B5094B18601961002303E0D45C074839
:10172000C45401338B42F9D3054B044A024905489E
:10173000FEF713FF012010BD180100205400002007
:101740005C0000202C00002070B58AB000240594B5
:10175000069401250795009401940294039404943F
:1017600008950E230993094E69463000FEF740FEA6
:101770003000FEF7C3FE064BC82292001A605D607F
:10178000DC609C6008221A610AB070BD2C00002049
:101790001801002000B593B03022002106A800F007
:1017A0006DF91022002101A800F068F920230593AB
:1017B0001F3B0D9305A8FFF763F807230193043B34
:1017C0000293002303930493012101A8FFF720FB58
:1017D00013B000BD10B5FEF735FDFFF7DBFFFFF7D7
:1017E00035FFFFF751FFFFF77BFFFFF7ADFF064A1D
:1017F00008210F20FFF78CFF02210448FFF73CF877
:101800000A20FEF73DFDF2E700000020000400483A
:1018100082B00C4B996901221143996199690A4080
:101820000092009ADA69802149050A43DA61DB698E
:101830000B400193019B044A136810210B43136072
:1018400002B07047001002400000014010B588B09F
:1018500004001422002103A800F010F92268134BA1
:101860009A4201D008B010BD114BD9698020800484
:101870000143D961DA6902400192019A5A698021D3
:1018800089020A435A615B690B400293029BC023A1
:101890005B010393022304930133069301330793FF
:1018A000902003A9C005FEF727FFDBE70064004096
:1018B0000010024082B002688023DB059A4201D00A
:1018C00002B07047044AD16901231943D161D2693A
:1018D00013400193019BF3E70010024010B588B05C
:1018E00004001422002103A800F0C8F82268124B5B
:1018F0009A4201D008B010BD104BD96980229202E3
:101900001143D961D9691140019101995969114374
:1019100059615B691A400292029B0C2303930A3BB4
:10192000049301330693023B0793902003A9C0055B
:10193000FEF7E2FEDEE7C046004400400010024031
:101940007047FEE77047704710B5FEF78BFC10BD7F
:10195000114B1A6801210A431A605A680F48024065
:101960005A601A680E4802401A601A680D48024010
:101970001A605A680C4802405A60DA6A0F208243A3
:10198000DA621A6B094802401A635A6B8A435A6337
:1019900000229A607047C046001002400CB8FF0851
:1019A000FFFFF6FEFFFFFBFFFFFFC0FF2CFEFFFF68
:1019B0001348854613480168090E134A914205D120
:1019C0001248134901601348134901601348144930
:1019D000144A002302E0D458C4500433C4188C4283
:1019E000F9D3114A114C002301E013600432A242E2
:1019F000FBD3FFF7ADFF00F01DF8FFF7EBFEFEE7AE
:101A000000180020040000001F0000001810024011
:101A10000100000000000140000000000000002064
:101A20000C000020E41A00080C0000204C010020EB
:101A3000FEE7000070B500260C4D0D4C641BA41091
:101A4000A64209D1002600F021F80A4D0A4C641B79
:101A5000A410A64205D170BDB300EB5898470136DB
:101A6000EEE7B300EB5898470136F2E7DC1A0008BE
:101A7000DC1A0008DC1A0008E01A0008030012183B
:101A8000934200D1704719700133F9E7F8B5C046A9
:101A9000F8BC08BC9E467047F8B5C046F8BC08BC08
:041AA0009E467047A7
:101AA40002030405060708090A0B0C0D0E0F10109B
:101AB4000102030405060708090A0B0C0D0E0F109A
:101AC40000000000000000000102030406070809EA
:081AD400000000000102030400
:041ADC00E900000815
:041AE000C100000839
:0C1AE400000102030405060700127A004E
:04000005080019B125
:00000001FF
