:040000005AEF3EF085
:08000800046ED8CF05F0E0CF33
:1000100006F00001E9CF0CF0EACF07F0E1CF08F0DD
:10002000E2CF09F0D9CF0AF0DACF0BF0F3CF12F01C
:10003000F4CF13F0FACF14F0F5CF15F0F6CF16F099
:10004000F7CF17F000C00EF001C00FF002C010F0A3
:1000500003C011F0F2AA30EF00F0F2B4F2EF22F098
:100060009DA036EF00F09EB0EBEF0FF0F0A63CEF56
:1000700000F0F0B081EF0DF09DAA42EF00F09EBAC3
:10008000C0EF0FF00EC000F00FC001F010C002F082
:1000900011C003F00CC0E9FF07C0EAFF078E08C0DB
:1000A000E1FF09C0E2FF0AC0D9FF0BC0DAFF12C0AE
:1000B000F3FF13C0F4FF14C0FAFF15C0F5FF16C01C
:1000C000F6FF17C0F7FF045006C0E0FF05C0D8FFD9
:1000D0001000F76AE20FF66E000EF7220900F550E5
:1000E000120061646D696E00F76AF80FF66E000E1B
:1000F000F7220900F55012003132334142343536CF
:10010000434437383945462A30234748F76A1C0F9D
:10011000F66E010EF7220900F55012006400F76A2E
:100120002E0FF66E010EF7220900F5501200660040
:10013000F76A400FF66E010EF7220900F550120023
:1001400066206D656D00F76A560FF66E010EF72298
:100150000900F5501200525350570000F76A6C0F17
:10016000F66E010EF7220900F5501200216B626451
:100170002100F76A820FF66E010EF7220900F55092
:1001800012007273666163740000F76A9A0FF66E6C
:10019000010EF7220900F55012006500F76AAC0F56
:1001A000F66E010EF7220900F55012006E00F76A94
:1001B000BE0FF66E010EF7220900F5501200630023
:1001C000F76AD00FF66E010EF7220900F550120003
:1001D00073630000F76AE40FF66E010EF722090060
:1001E000F55012004D530000F76AF80FF66E010E3D
:1001F000F7220900F55012007472616E2074696D67
:100200006500F76A120FF66E020EF7220900F5502C
:10021000120064656C61796B6200F76A2A0FF66EF2
:10022000020EF7220900F55012004B4274696D6509
:100230000000F76A420FF66E020EF7220900F55031
:1002400012006366206D626E0000F76A5A0FF66E48
:10025000020EF7220900F550120053494D39303093
:100260006175746F0000F76A760FF66E020EF72262
:100270000900F55012006800F76A880FF66E020E4A
:10028000F7220900F550120070617373776F726482
:100290000000F76AA20FF66E020EF7220900F55071
:1002A0001200646562756700F76AB80FF66E020E99
:1002B000F7220900F550120071756C6C6600F76A40
:1002C000CE0FF66E020EF7220900F5501200666F8F
:1002D000726D61740000F76AE60FF66E020EF72287
:1002E0000900F5501200636F756E74207472616EB0
:1002F0000000F76A020FF66E030EF7220900F550B0
:100300001200646576696365206861732000F76A8E
:100310001E0FF66E030EF7220900F550120020742E
:1003200072616E73616374696F6E2000F76A3C0FCF
:10033000F66E030EF7220900F5501200646F776E17
:100340006C6F616420616C6C0000F76A5A0FF66E86
:10035000030EF7220900F5501200646F776E6C6F80
:1003600061642000F76A740FF66E030EF72209002D
:10037000F550120044657669636520686173206FEB
:100380006E6C79200000F76A960FF66E030EF72266
:100390000900F550120020547261636B313E000079
:1003A000F76AB00FF66E030EF7220900F55012003F
:1003B00020547261636B323E0000F76ACA0FF66E1A
:1003C000030EF7220900F55012002050494E3A0062
:1003D000636F6C30203D20256C750D0A0000636F43
:1003E0006C31203D20256C750D0A0000636F6C3266
:1003F000203D20256C750D0A0000636F6C33203D95
:1004000020256C750D0A0000636F6C34203D20259B
:100410006C750D0A00006B657920646174615B2561
:10042000645D2025630D0A00446F6E652050494EBF
:1004300000005072657373696E67204B6579000028
:1004400041540D0A000041542B434D47463D310DA8
:100450000A0041540D0A000041540D0A00004154A5
:100460000D0A000041540D0A000041540D0A00001D
:1004700041542B43504F57440D0A000041542B4325
:100480004D47443D310D0A0041542B434D47443DF7
:10049000320D0A0041542B434D47443D330D0A00B1
:1004A00041542B434D47443D340D0A0041542B43E6
:1004B0004D47443D350D0A0041542B434D47443DC3
:1004C000360D0A0041542B434D47443D370D0A0079
:1004D00041542B434D47443D380D0A0041542B43B2
:1004E0004D47533D000041542B434D47463D310D90
:1004F0000A0041542B434D47523D310D0A000A0D6D
:100500004E657720534D530A0D000A0D52494E4750
:100510000A0D00000D0A4249545F547261636B3149
:1005200020446174613A0D0A00000D0A4249545F8B
:10053000547261636B3220446174613A0D0A0000A9
:100540000D0A536176696E672043617264204461CD
:1005500074610D0A0000446F6E6500005761697494
:10056000696E6720666F722050494E206E756D620D
:10057000657200000D0A636F756E746269745F5472
:10058000313A256C750D0A000D0A636F756E746241
:1005900069745F54323A256C750D0A000D0A726554
:1005A0006164696E67206572726F722054310D0A42
:1005B00000000D0A72656164696E67206572726F72
:1005C000722054320D0A0000020E0801EE5F0CE3A7
:1005D000080EEA6EEE0EE96EEF5006E003D000D092
:1005E00000D00000EF2EFBD7000189EF0DF00901CC
:1005F000E36BE46BDBB1E48FDC39006E0036003670
:10060000C00E00160050E413DD39006E0036E00E17
:1006100000160050E413DE39006EF00E0016005094
:10062000E413DF35006E00360036F80E0016005079
:10063000E413E035006E0036FC0E00160050E413A3
:10064000D890E135E413E251E411E36FE3C901F01E
:10065000000112000901CB6BC6536AE1C951C725DD
:10066000E96ECA51C821EA6EEFCFCCF9010EC72559
:10067000CD6F000EC821CE6FC951CD25E96ECA518C
:10068000CE21EA6EEF50CC1B020EC725CF6F000EB5
:10069000C821D06FC951CF25E96ECA51D021EA6E69
:1006A000EF50CC1B030EC725D16F000EC821D26FAF
:1006B000C951D125E96ECA51D221EA6EEF50CC1B47
:1006C000040EC725D36F000EC821D46FC951D3259E
:1006D000E96ECA51D421EA6EEF50CC1B050EC72536
:1006E000D56F000EC821D66FC951D525E96ECA5104
:1006F000D621EA6EEF50CC1902E0000E01D0010EB7
:10070000CB6F060EC725CC6F000EC821CD6FC95127
:10071000CC25E96ECA51CD21EA6EEF50CB5D04E1E4
:10072000010E016E6DD003D0000E016E69D068D04D
:10073000C951C725E96ECA51C821EA6EEFCFCCF97D
:10074000010EC75DCD6F000EC859CE6FC951CD25C2
:10075000E96ECA51CE21EA6EEF50CC1B020EC75D86
:10076000CF6F000EC859D06FC951CF25E96ECA515D
:10077000D021EA6EEF50CC1B030EC75DD16F000E87
:10078000C859D26FC951D125E96ECA51D221EA6E3A
:10079000EF50CC1B040EC75DD36F000EC859D46F49
:1007A000C951D325E96ECA51D421EA6EEF50CC1B52
:1007B000050EC75DD56F000EC859D66FC951D52536
:1007C000E96ECA51D621EA6EEF50CC1902E0000E54
:1007D00001D0010ECB6F060EC75DCC6F000EC8595D
:1007E000CD6FC951CC25E96ECA51CD21EA6EEF50CB
:1007F000CB5D04E1010E016E03D002D0000E016E4C
:10080000000112000901CB6BC6534EE1C951C72547
:10081000E96ECA51C821EA6EEFCFCCF9010EC725A7
:10082000CD6F000EC821CE6FC951CD25E96ECA51DA
:10083000CE21EA6EEF50CC1B020EC725CF6F000E03
:10084000C821D06FC951CF25E96ECA51D021EA6EB7
:10085000EF50CC1B030EC725D16F000EC821D26FFD
:10086000C951D125E96ECA51D221EA6EEF50CC1997
:1008700002E0000E01D0010ECB6F040EC725CC6F35
:10088000000EC821CD6FC951CC25E96ECA51CD21CA
:10089000EA6EEF50CB5D04E1010E016E51D003D042
:1008A000000E016E4DD04CD0C951C725E96ECA511A
:1008B000C821EA6EEFCFCCF9010EC75DCD6F000EF7
:1008C000C859CE6FC951CD25E96ECA51CE21EA6E05
:1008D000EF50CC1B020EC75DCF6F000EC859D06F12
:1008E000C951CF25E96ECA51D021EA6EEF50CC1B19
:1008F000030EC75DD16F000EC859D26FC951D12503
:10090000E96ECA51D221EA6EEF50CC1902E0000E16
:1009100001D0010ECB6F040EC75DCC6F000EC8591D
:10092000CD6FC951CC25E96ECA51CD21EA6EEF5089
:10093000CB5D04E1010E016E03D002D0000E016E0A
:10094000000112000901C26BC36BC46BC56BBF6BA6
:10095000BE6BBB31036EBA31026E033202323F0E00
:10096000031602C001F0BF51035CD8A0DFD204E13E
:100970000150BE5DD8B0DAD2B953D8A49AD1060ED0
:10098000BE25C66F000EBF21C76FBC51C625E96EDC
:10099000BD51C721EA6EEFCFC8F9050EBE25C96F5C
:1009A000000EBF21CA6FBC51C925E96EBD51CA21D5
:1009B000EA6EEFCFCBF9040EBE25CC6F000EBF213F
:1009C000CD6FBC51CC25E96EBD51CD21EA6EEFCF84
:1009D000CEF9030EBE25CF6F000EBF21D06FBC51E4
:1009E000CF25E96EBD51D021EA6EEFCFD1F9020ECD
:1009F000BE25D26F000EBF21D36FBC51D225E96E48
:100A0000BD51D321EA6EEFCFD4F9010EBE25D56FCB
:100A1000000EBF21D66FBC51D525E96EBD51D62140
:100A2000EA6EEFCFD7F9BC51BE25E96EBD51BF21AB
:100A3000EA6EEFCFD8F9DB6BC8C9DCF9CBC9DDF9B9
:100A4000CEC9DEF9D1C9DFF9D4C9E0F9D7C9E1F9D6
:100A5000D8C9E2F90001CBDD01C0C2F90D0E0901D0
:100A6000BE25C66F000EBF21C76FBC51C625E96EFB
:100A7000BD51C721EA6EEFCFC8F90C0EBE25C96F74
:100A8000000EBF21CA6FBC51C925E96EBD51CA21F4
:100A9000EA6EEFCFCBF90B0EBE25CC6F000EBF2157
:100AA000CD6FBC51CC25E96EBD51CD21EA6EEFCFA3
:100AB000CEF90A0EBE25CF6F000EBF21D06FBC51FC
:100AC000CF25E96EBD51D021EA6EEFCFD1F9090EE5
:100AD000BE25D26F000EBF21D36FBC51D225E96E67
:100AE000BD51D321EA6EEFCFD4F9080EBE25D56FE4
:100AF000000EBF21D66FBC51D525E96EBD51D62160
:100B0000EA6EEFCFD7F9070EBE25D86F000EBF21D2
:100B1000D96FBC51D825E96EBD51D921EA6EEFCF0E
:100B2000DAF9DB6BC8C9DCF9CBC9DDF9CEC9DEF96E
:100B3000D1C9DFF9D4C9E0F9D7C9E1F9DAC9E2F9D5
:100B4000000155DD01C0C3F90901C2514508D8A40F
:100B5000AFD0C3517C08D8B4ABD0C3513E08D8B491
:100B6000A7D0C3511F08D8B4A3D0BFC9C1F9BEC90B
:100B7000C0F9010EC56FC2C9C4F9C4511F08D8B469
:100B80008CD0C1510308D8A088D004E1C051E70837
:100B9000D8A083D0C66BC1C9C8F9C0C9C7F9BDC93F
:100BA000CAF9BCC9C9F9000155DD01500901C517D1
:100BB000060EC025C66F000EC121C76FBC51C625E9
:100BC000E96EBD51C721EA6EEFCFC8F9050EC02509
:100BD000C96F000EC121CA6FBC51C925E96EBD5154
:100BE000CA21EA6EEFCFCBF9040EC025CC6F000E00
:100BF000C121CD6FBC51CC25E96EBD51CD21EA6E2E
:100C0000EFCFCEF9030EC025CF6F000EC121D06FFC
:100C1000BC51CF25E96EBD51D021EA6EEFCFD1F99D
:100C2000020EC025D26F000EC121D36FBC51D22558
:100C3000E96EBD51D321EA6EEFCFD4F9010EC02584
:100C4000D56F000EC121D66FBC51D525E96EBD51BF
:100C5000D621EA6EEFCFD7F9BC51C025E96EBD5160
:100C6000C121EA6EEFCFD8F9DB6BC8C9DCF9CBC97B
:100C7000DDF9CEC9DEF9D1C9DFF9D4C9E0F9D7C9A8
:100C8000E1F9D8C9E2F90001B2DC01C0C4F9070EEC
:100C90000901C027000EC12370D7C52D09D0080156
:100CA000576B0901BEC901F0BFC902F0A1EF0AF0FC
:100CB00039D1040EBE25C66F000EBF21C76FBC51CF
:100CC000C625E96EBD51C721EA6EEFCFC8F9030E04
:100CD000BE25C96F000EBF21CA6FBC51C925E96E80
:100CE000BD51CA21EA6EEFCFCBF9020EBE25CC6F03
:100CF000000EBF21CD6FBC51CC25E96EBD51CD2179
:100D0000EA6EEFCFCEF9010EBE25CF6F000EBF21E8
:100D1000D06FBC51CF25E96EBD51D021EA6EEFCF27
:100D2000D1F9BC51BE25E96EBD51BF21EA6EEFCFAE
:100D3000D2F9DB6BDC6BDD6BC8C9DEF9CBC9DFF93F
:100D4000CEC9E0F9D1C9E1F9D2C9E2F900014FDC1D
:100D500001C0C2F9090E0901BE25C66F000EBF21F0
:100D6000C76FBC51C625E96EBD51C721EA6EEFCFF2
:100D7000C8F9080EBE25C96F000EBF21CA6FBC514D
:100D8000C925E96EBD51CA21EA6EEFCFCBF9070E36
:100D9000BE25CC6F000EBF21CD6FBC51CC25E96EB6
:100DA000BD51CD21EA6EEFCFCEF9060EBE25CF6F35
:100DB000000EBF21D06FBC51CF25E96EBD51D021AF
:100DC000EA6EEFCFD1F9050EBE25D26F000EBF211E
:100DD000D36FBC51D225E96EBD51D321EA6EEFCF5E
:100DE000D4F9DB6BDC6BDD6BC8C9DEF9CBC9DFF98D
:100DF000CEC9E0F9D1C9E1F9D4C9E2F90001F7ECB3
:100E000002F001C0C3F90901C2510B08D8A48AD06D
:100E1000C3511F08D8B486D0C3510F08D8B482D0AC
:100E2000BFC9C1F9BEC9C0F9010EC56FC2C9C4F9B5
:100E3000C4511F086DE0C15101086AE303E1C051CC
:100E4000F30866E3C66BC1C9C8F9C0C9C7F9BDC913
:100E5000CAF9BCC9C9F90001D5DC01500901C5179F
:100E6000040EC025C66F000EC121C76FBC51C62538
:100E7000E96EBD51C721EA6EEFCFC8F9030EC02558
:100E8000C96F000EC121CA6FBC51C925E96EBD51A1
:100E9000CA21EA6EEFCFCBF9020EC025CC6F000E4F
:100EA000C121CD6FBC51CC25E96EBD51CD21EA6E7B
:100EB000EFCFCEF9010EC025CF6F000EC121D06F4C
:100EC000BC51CF25E96EBD51D021EA6EEFCFD1F9EB
:100ED000BC51C025E96EBD51C121EA6EEFCFD2F9F8
:100EE000DB6BDC6BDD6BC8C9DEF9CBC9DFF9CEC9C2
:100EF000E0F9D1C9E1F9D2C9E2F90001F7EC02F059
:100F000001C0C4F9050E0901C027000EC12390D706
:100F1000C52D08D00801576B0901BEC901F0BFC932
:100F200002F00FD3BE2BD8B4BF2B13D5BBC9BFF96A
:100F3000BAC9BEF9BB31036EBA31026E0332023256
:100F40003F0E031602C001F00350BF5DD8A0F6D2D9
:100F500004E1BE51015CD8B0F1D2B953D8A4A9D1F3
:100F6000060EBE5DC66F000EBF59C76FBC51C625C9
:100F7000E96EBD51C721EA6EEFCFC8F9050EBE5D1F
:100F8000C96F000EBF59CA6FBC51C925E96EBD516A
:100F9000CA21EA6EEFCFCBF9040EBE5DCC6F000E16
:100FA000BF59CD6FBC51CC25E96EBD51CD21EA6E44
:100FB000EFCFCEF9030EBE5DCF6F000EBF59D06FDD
:100FC000BC51CF25E96EBD51D021EA6EEFCFD1F9EA
:100FD000020EBE5DD26F000EBF59D36FBC51D22539
:100FE000E96EBD51D321EA6EEFCFD4F9010EBE5D9B
:100FF000D56F000EBF59D66FBC51D525E96EBD51D6
:10100000D621EA6EEFCFD7F9BC51BE25E96EBD51AE
:10101000BF21EA6EEFCFD8F9DB6BC8C9DCF9CBC9C9
:10102000DDF9CEC9DEF9D1C9DFF9D4C9E0F9D7C9F4
:10103000E1F9D8C9E2F90001F7EC02F001C0C2F908
:101040000D0E0901BE5DC66F000EBF59C76FBC51C2
:10105000C625E96EBD51C721EA6EEFCFC8F90C0E67
:10106000BE5DC96F000EBF59CA6FBC51C925E96E7C
:10107000BD51CA21EA6EEFCFCBF90B0EBE5DCC6F2E
:10108000000EBF59CD6FBC51CC25E96EBD51CD21AD
:10109000EA6EEFCFCEF90A0EBE5DCF6F000EBF59DC
:1010A000D06FBC51CF25E96EBD51D021EA6EEFCF94
:1010B000D1F9090EBE5DD26F000EBF59D36FBC517E
:1010C000D225E96EBD51D321EA6EEFCFD4F9080ED7
:1010D000BE5DD56F000EBF59D66FBC51D525E96EE8
:1010E000BD51D621EA6EEFCFD7F9070EBE5DD86F9E
:1010F000000EBF59D96FBC51D825E96EBD51D92119
:10110000EA6EEFCFDAF9DB6BC8C9DCF9CBC9DDF9E0
:10111000CEC9DEF9D1C9DFF9D4C9E0F9D7C9E1F9FF
:10112000DAC9E2F90001F7EC02F001C0C3F90901E4
:10113000C2514508D8A4BCD0C3517C08D8B4B8D09B
:10114000C3513E08D8B4B4D0C3511F08D8B4B0D0EE
:10115000C3510F08D8B4ACD0C3517808D8B4A8D0C4
:10116000BFC9C1F9BEC9C0F9010EC56FC2C9C4F972
:10117000C4511F08D8B48CD0C15304E1C051010838
:10118000D8B086D0010EC66FC1C9C8F9C0C9C7F9A9
:10119000BDC9CAF9BCC9C9F900012AEC03F0015064
:1011A0000901C517060EC05DC66F000EC159C76F95
:1011B000BC51C625E96EBD51C721EA6EEFCFC8F913
:1011C000050EC05DC96F000EC159CA6FBC51C9255B
:1011D000E96EBD51CA21EA6EEFCFCBF9040EC05DB6
:1011E000CC6F000EC159CD6FBC51CC25E96EBD51FD
:1011F000CD21EA6EEFCFCEF9030EC05DCF6F000EAA
:10120000C159D06FBC51CF25E96EBD51D021EA6ED6
:10121000EFCFD1F9020EC05DD26F000EC159D36F6E
:10122000BC51D225E96EBD51D321EA6EEFCFD4F97E
:10123000010EC05DD56F000EC159D66FBC51D525CA
:10124000E96EBD51D621EA6EEFCFD7F9BC51C0256A
:10125000E96EBD51C121EA6EEFCFD8F9DB6BC8C989
:10126000DCF9CBC9DDF9CEC9DEF9D1C9DFF9D4C9C2
:10127000E0F9D7C9E1F9D8C9E2F90001F7EC02F0C9
:1012800001C0C4F9070E0901C05F000EC15B70D731
:10129000C52D0AD0010E0801576F0901BEC901F022
:1012A000BFC902F04ED104D0000E016E026E49D1CA
:1012B00040D1040EBE5DC66F000EBF59C76FBC5152
:1012C000C625E96EBD51C721EA6EEFCFC8F9030EFE
:1012D000BE5DC96F000EBF59CA6FBC51C925E96E0A
:1012E000BD51CA21EA6EEFCFCBF9020EBE5DCC6FC5
:1012F000000EBF59CD6FBC51CC25E96EBD51CD213B
:10130000EA6EEFCFCEF9010EBE5DCF6F000EBF5972
:10131000D06FBC51CF25E96EBD51D021EA6EEFCF21
:10132000D1F9BC51BE25E96EBD51BF21EA6EEFCFA8
:10133000D2F9DB6BDC6BDD6BC8C9DEF9CBC9DFF939
:10134000CEC9E0F9D1C9E1F9D2C9E2F90001F7EC5F
:1013500002F001C0C2F9090E0901BE5DC66F000EA0
:10136000BF59C76FBC51C625E96EBD51C721EA6E92
:10137000EFCFC8F9080EBE5DC96F000EBF59CA6F26
:10138000BC51C925E96EBD51CA21EA6EEFCFCBF938
:10139000070EBE5DCC6F000EBF59CD6FBC51CC2582
:1013A000E96EBD51CD21EA6EEFCFCEF9060EBE5DDE
:1013B000CF6F000EBF59D06FBC51CF25E96EBD5124
:1013C000D021EA6EEFCFD1F9050EBE5DD26F000ECF
:1013D000BF59D36FBC51D225E96EBD51D321EA6EFE
:1013E000EFCFD4F9DB6BDC6BDD6BC8C9DEF9CBC9A1
:1013F000DFF9CEC9E0F9D1C9E1F9D4C9E2F90001B8
:10140000F7EC02F001C0C3F90901C2510B08D8A4DE
:1014100090D0C3511F08D8B48CD0C3510F08D8B492
:1014200088D0BFC9C1F9BEC9C0F9010EC56FC2C914
:10143000C4F9C4511F086DE0C15303E1C051010854
:1014400068E2010EC66FC1C9C8F9C0C9C7F9BDC9F4
:10145000CAF9BCC9C9F9000102EC04F00150090144
:10146000C517040EC05DC66F000EC159C76FBC51D1
:10147000C625E96EBD51C721EA6EEFCFC8F9030E4C
:10148000C05DC96F000EC159CA6FBC51C925E96E54
:10149000BD51CA21EA6EEFCFCBF9020EC05DCC6F11
:1014A000000EC159CD6FBC51CC25E96EBD51CD2187
:1014B000EA6EEFCFCEF9010EC05DCF6F000EC159BD
:1014C000D06FBC51CF25E96EBD51D021EA6EEFCF70
:1014D000D1F9BC51C025E96EBD51C121EA6EEFCFF3
:1014E000D2F9DB6BDC6BDD6BC8C9DEF9CBC9DFF988
:1014F000CEC9E0F9D1C9E1F9D2C9E2F90001F7ECAE
:1015000002F001C0C4F9050E0901C05F000EC15B05
:1015100090D7C52D0AD0010E0801576F0901BEC929
:1015200001F0BFC902F00DD004D0000E016E026EB2
:1015300008D0BE51D8B4BF07BE07FCD4000E016E60
:10154000026E0001120094908B90080E016E00D084
:101550000000018E10D0019E0901CF330001D8B0E8
:101560008B80D8A08B90018C06D0019C012EF4D7E3
:1015700000D000008B80100EE96EE92EFED700D05F
:10158000000001BEE8D701BCF0D712000900F6CF79
:10159000C4F9F7CFC5F9F5CFCFF9D5DFC4C9F6FF48
:1015A000C5C9F7FF0901C32F01D002D00001EED752
:1015B00000011200EACFB2F9E9CFB1F90901AB3964
:1015C000F009AD6FAD27E20FAE6F320FB06FAB51C8
:1015D0000F0BAE27AE27B027E90FAF6FAF27AF27AE
:1015E000AA390F0BAF27B027AF37B037B01FB037CE
:1015F000AA510F0BB027AD37070EAC6F0A0EAF071D
:10160000B027FDE3AE07AF27FDE3AD07AE27FDE34F
:10161000AC07AD27FDE3090EEA6EAC0EE96E070ECE
:10162000B115B19DE926B00EE95CD8B4B18DEF508B
:10163000006E08E1B1BD06D0B1B915D0B1B702D086
:10164000200E03D0B187B199300E0026EACFABF956
:10165000E9CFAAF900C0CFF9000175DFABC9EAFFF5
:10166000AAC9E9FF0901EE50B1ADDDD700011200B2
:101670000900F5520CE0F6CFADF9F7CFAEF9F5CF92
:10168000CFF961DFADC9F6FFAEC9F7FFF1D71200A0
:101690000901B451016AB35D03E2B3C900F00CD093
:1016A000006A080EB56FB3370036B451005CD8B08D
:1016B000006E0136B52FF7D700011200200E090188
:1016C000AEA9300EAF6FADC900F0ADAF08D0001EAF
:1016D000002A00C0ADF92D0EAF6FAE8FAE81015064
:1016E000ADC9B3F9640EB46F0001D2DF00C0ADF92B
:1016F000300E01240901B06FADC9B3F90A0EB46F01
:101700000001C6DF300E00240901B26F300E012443
:10171000B16FAFC900F0300EB05D04E0AE83AEBF74
:10172000AE8512D0AFC9B0F9200EAF6F300EB15DEB
:1017300004E0AE81AEBFAE8307D0D8A4AE8104E191
:10174000B0C9B1F9200EB06FAEB505D0AEB307D0B9
:10175000AEB109D00CD0AFC9CFF90001F4DEB0C9E9
:10176000CFF90001F0DEB1C9CFF90001ECDEB2C95A
:10177000CFF90001E8DE1200140EF66E050EF76ECA
:1017800077DF0801F76BF66BF751030818E303E105
:10179000F651510814E3D50EF625E96E030EF72134
:1017A000EA6EEFCFF8F8F8C8ADF9180E0901AE6F80
:1017B000000184DF0801F62BD8B4F72BE5D72A0EF9
:1017C000F66E050EF76E000153DF0801F76BF66B3E
:1017D000F751010818E303E1F6512B0814E3270E33
:1017E000F625E96E070EF721EA6EEFCFF8F8F8C894
:1017F000ADF9180E0901AE6F000160DF0801F62B8C
:10180000D8B4F72BE5D7000138EF0DF0080EEA6EDB
:10181000F60EE96EEF500DE00A0E016E006A002E22
:10182000FED7012EFBD75F0E006E002EFED7EF2EE7
:10183000F3D71200010E0801ED6FEE6FEF6FF06F3E
:10184000F16BF26FF36F616B606B566B556B546BA2
:10185000536B6151FD080EE303E16051E7080AE3B1
:10186000938281A207D0948A82AA04D0602BD8B434
:10187000612BEFD7616B606B5DC803F05C515C2B33
:10188000D8B45D2BF66FD50EF625E96E030E032056
:10189000EA6EEF6A5DC803F05C515C2BD8B45D2B37
:1018A000F66FD50EF625E96E030E0320EA6E010EE3
:1018B000EF6E5FC803F05E515E2BD8B45F2BF66FFE
:1018C000270EF625E96E070E0320EA6EEF6A5FC861
:1018D00003F05E515E2BD8B45F2BF66F270EF62512
:1018E000E96E070E0320EA6E010EEF6E5D510308EC
:1018F000D8A065D003E15C51510861E35F51010854
:101900005EE303E15E512B085AE36151FF0857E3A0
:1019100003E16051DB0853E36A5304E05D6B5C6BE9
:101920005F6B5E6B602BD8B4612B566B556B546B41
:10193000536B9384ED6B81B4ED2BED531CE1EE2DD5
:101940001AD0EE6BD50E5C25E96E030E5D21EA6EB2
:101950009382000E81A2010EEF6E270E5E25E96EC6
:10196000070E5F21EA6EF1C8EFFF5C2BD8B45D2B48
:10197000616B606B04D0ED2D02D0010EEE6F93868B
:10198000EF6B81B6EF2BEF530DE1F02D0BD0F06B29
:10199000948AF16B82AAF12B5E2BD8B45F2B616B1A
:1019A000606B04D0EF2D02D0010EF06F938081A008
:1019B00005D06A6B6169DC0E606F01D097D7616BEF
:1019C000606B0901B96B5DC8BBF95CC8BAF9030E5D
:1019D000BD6FD50EBC6F0001A2EC04F001C0F2F89F
:1019E000010E0901B96F5FC8BBF95EC8BAF9070EED
:1019F000BD6F270EBC6F0001A2EC04F001C0F3F82C
:101A00000801652D49D0740EF66E050EF76E0E0EA8
:101A10000901C36F0001BADD100EE96E5DC8ABF9B4
:101A20005CC8AAF9C7DD0D0E0901CF6F00018BDD7F
:101A30000A0E0901CF6F000186DD880EF66E050ED5
:101A4000F76E0E0E0901C36F0001A0DD100EE96EE6
:101A50005FC8ABF95EC8AAF9ADDD0D0E0901CF6F05
:101A6000000171DD0A0E0901CF6F00016CDD84D623
:101A70000801F25307E19C0EF66E050EF76E0001A9
:101A8000F7DD0801F35307E1B20EF66E050EF76EAF
:101A90000001EEDD080105D00F0EF66F0001B6DE85
:101AA0000801F25302E0F3530EE15F6B5E6B5D6B76
:101AB0005C6B696B6A2B566B556B546B536B000EEA
:101AC000016E1CD019D0010E646F696F5FC85BF89E
:101AD0005EC85AF85DC859F85CC858F85D6B5C6B15
:101AE0005F6B5E6B566B556B546B536B0001FC6BFD
:101AF000FB6B016E080102D0000E016E000191EF38
:101B00000DF0020E0801ED6FFA0EEE6F0001E4EF2A
:101B100002F00801ED2FF8D7672D01D00BD000019E
:101B200089D601C066F80801566B556B546B536B30
:101B3000616B606BF090000142EF00F00D0A54728F
:101B400061636B3120446174613A0D0A00000D0A33
:101B5000547261636B3220446174613A0D0A000073
:101B60000D0A547261636B3120446174613A0D0A4D
:101B700000000D0A547261636B3220446174613A53
:101B80000D0A00000D0A50494E204E756D626572B7
:101B90003A0D0A00464F524D415454494E472E2E9D
:101BA0002E0020657869740A0D00464F524D41544D
:101BB00054494E472E2E2E0020657869740A0D0078
:101BC0007265736574696E672070617373776F7285
:101BD000642E2E2E000020657869740A0D004B6576
:101BE0007920626F6172642074657374696E670A2C
:101BF0000D00726573657420666163746F72790A93
:101C00000D0020657869740A0D004E657720636FBA
:101C10006E736F6C65206E616D653E00204F4B0AE0
:101C20000D005B4D5D005B535D005B6175746F2063
:101C300073656E64696E6720286F6666295D0000B3
:101C40005B6175746F2073656E64696E6720286FC1
:101C50006E295D00596561723E004D6F6E74683E7D
:101C60000000446174653E004461793E0000486FA5
:101C700075723E004D696E757465733E0000536564
:101C8000636F6E64733E000050726573732027317A
:101C90002720746F2073656C65637420536C6176C4
:101CA0006572206D6F646500507265737320273014
:101CB0002720746F2073656C656374204D617374A5
:101CC0006572206D6F646500496E707574204E7585
:101CD0006D6265720000496E707574204E756D629C
:101CE00065720000496E707574204E756D62657284
:101CF00000000A0D496E70757420796F7572206D41
:101D00006F62696C652070686F6E65206E756D62BC
:101D100065723A000A0D646F6E650A0D000050721C
:101D20006573732027312720746F207475726E20BD
:101D30006F6E204175746F206D6F64650000507286
:101D40006573732027302720746F207475726E209E
:101D50006F6666204175746F206D6F646500682D35
:101D60003E2048656C700A0D000073632D3E2053C1
:101D7000657420436C6F636B0A0D0000632D3E2079
:101D800073686F7720436C6F636B0A0D000070619E
:101D90007373776F72642D3E206368616E67696E3E
:101DA000672050415353574F52440A0D00006E2094
:101DB0002D3E206368616E676520636F6E736F6C84
:101DC00065204E616D650A0D0000662D3E20466F50
:101DD000726D61740A0D0000652D3E2045786974AE
:101DE0000A0D00004D532D3E204B6579626F6172E4
:101DF00064206D6F64652073657474696E67202854
:101E0000536C6176652F4D6173746572290A0D00FC
:101E10007472616E2074696D652D3E2074696D6504
:101E2000206F662065616368207472616E73616300
:101E300074696F6E0A0D000064656275672D3E203F
:101E40006F6E2F6F6666206465627567206D6F64C4
:101E5000650A0D0064656C61796B62202564202D34
:101E60003E204B6579626F61726427732054696DFF
:101E7000696E670A0D007273666163742D3E20728D
:101E80006573657420666163746F72790A0D000072
:101E90004B4274696D65202564202D3E204B657989
:101EA000626F61726427732054696D656F75740A7F
:101EB0000D006366206D626E2D3E206368616E6763
:101EC000696E6720746172676574206D6F62696CFA
:101ED000652070686F6E65206E756D6265720A0DA3
:101EE000000053494D3930306175746F2D3E206FBD
:101EF0006E2F6F6666206175746F2073656E6469FE
:101F00006E67206D6F64650A0D006F6C64207061F0
:101F10007373776F72643A000A0D6E65773A00004A
:101F20000A0D616761696E3A00000A0D4F4B0A0D98
:101F300000000A0D4552520A0D0020580A0D0000FB
:101F400050726573732027312720746F20656E618E
:101F5000626C65206465627567206D6F6465000062
:101F600050726573732027302720746F2064697363
:101F700061626C65206465627567206D6F646500E1
:101F80009EAAFED7AFCFEDF8080194948B748753C7
:101F90001EE00101AA51AA2B036A460FE96E010E49
:101FA0000320EA6EEDC8EFFFAA516208D8A0AA6B21
:101FB00094948B74080186530AE1010E03015B6F50
:101FC0002C0E5A6F0D0E586F576B566B08019E9A68
:101FD000000142EF00F094948B74CF68CD0ECE6E6A
:101FE0009E9042EF00F001013F2B3F510108D8B015
:101FF000D2D04251FB0F41E2050F0001D0EF10F0AB
:10200000929A899A929689869294898492928982E8
:1020100092908980010131D092968996929A898A0C
:10202000929489849292898292908980010125D02C
:102030009294899492968986929A898A92928982B8
:1020400092908980010119D0929289929296898604
:1020500092948984929A898A9290898001010DD004
:10206000929089909296898692948984929289829C
:10207000929A898A010101D0010140A13FD0938841
:10208000000E81B8010E0901AC6F938A000E81BA6F
:10209000010EAC17938C000E81BC010EAC17938E11
:1020A000000E81BE010EAC1527E041C1AAF9010165
:1020B000085319E1066B056B0001FC6BFB6B01011A
:1020C0000B5131080AE30B510B2B036A0C0FE96E1D
:1020D000010E0320EA6EAAC9EFFFAAC9CFF90001D9
:1020E000A3EC0AF005D0AAC9CFF90001A3EC0AF0CD
:1020F00001014091416B09014CD001019388000E10
:1021000081B8010E0901AC6F938A000E81BA010EED
:10211000AC17938C000E81BC010EAC17938E000E91
:1021200081BE010EAC152FE1938881B802D0AB6B54
:1021300011D0938A81BA03D0010EAB6F0BD0938C70
:1021400081BC03D0020EAB6F05D0938E81BE02D04E
:10215000030EAB6FAB51050DF350AD6BAC6F036A63
:10216000010142510901AC25016EAD51032201501C
:10217000000174EC00F0E8CF41F101014081FF0E55
:10218000926E07D009010101422B42510508D8B4D3
:10219000426B01013F6B0901AAC901F00001120065
:1021A000E824F76AF736BB0FF66E210EF7220A0015
:1021B000F550FA6E0800F550F96E00201820302016
:1021C00048206020E00E0F01486FC29CC29E49511A
:1021D000E00B1F09496F0901C351FB0F55E2050FC1
:1021E000000146EF11F0100E016EC250C30B01103A
:1021F000C26EC282C2B2FED7C4CFC4F90901C4C93B
:1022000001F042D041D00C0E016EC250C30B011040
:10221000C26EC282C2B2FED7C4CFC4F90901C4C91A
:1022200001F032D031D0080E016EC250C30B011044
:10223000C26EC282C2B2FED7C4CFC4F90901C4C9FA
:1022400001F022D021D0040E016EC250C30B011048
:10225000C26EC282C2B2FED7C4CFC4F90901C4C9DA
:1022600001F012D011D0000E016EC250C30B01104C
:10227000C26EC282C2B2FED7C4CFC4F90901C4C9BA
:1022800001F002D001D0090100011200E824F76A30
:10229000F736A70FF66E220EF7220A00F550FA6EF7
:1022A0000800F550F96EE621062226224622662213
:1022B000D8B204D0090EEA6ED70EE96E006A016A40
:1022C000026A036A0901D76BD86BD96BDA6BD651F6
:1022D000D511D411D3112CE0200EDB6FD890CF375D
:1022E000D037D137D237D737D837D937DA37D65171
:1022F000DA5D08E1D551D95D05E1D451D85D02E13F
:10230000D351D75D0FE3D351D75FD451D8A0D43D7B
:10231000D85FD551D8A0D53DD95FD651D8A0D63DEC
:10232000DA5FD8800036013602360336DB2FD6D787
:10233000D7C9EFFFD8C9ECFFD9C9ECFFDAC9ECFF68
:1023400000011200E9500901C76F3B0ECE6F9A0ED3
:10235000CD6FCA0ECC6FCB6B0A0EC96FD882090E37
:10236000EA6EC30EE96EC6C9D2F9C5C9D1F9C4C9AE
:10237000D0F9C3C9CFF9CEC9D6F9CDC9D5F9CCC9E1
:10238000D4F9CBC9D3F9000193DF0150005213E116
:102390000901C951010AD8A402D000010CD0C751CB
:1023A0000CE00F0BC95D01E010E2C7BF0ED0C7BD46
:1023B00004D0200E03D00901C76B300E002600C0E8
:1023C000CFF90001A3EC0AF00901D892CEC9D2F9E5
:1023D000CDC9D1F9CCC9D0F9CBC9CFF9D66BD56B62
:1023E000D46B0A0ED36F000163DF03C0CEF902C0C5
:1023F000CDF901C0CCF900C0CBF90901C92FAED786
:10240000000112000901B26BB16BB06BAF6BB66B20
:10241000B56BB46BB36BBA6BB96BB86BB76BBE6BA8
:10242000BD6BBC6BBB6BC26BC16BC06BBF6BAE6B70
:10243000AD6BAE5101083EE303E1AD51F3083AE361
:10244000C36B0001BFDE01500901AF27000EB023AE
:10245000B123B223010EC36F0001B4DE01500901A4
:10246000B327000EB423B523B623020EC36F0001B9
:10247000A9DE01500901B727000EB823B923BA23FA
:10248000030EC36F00019EDE01500901BB27000E41
:10249000BC23BD23BE23040EC36F000193DE015095
:1024A0000901BF27000EC023C123C223AD2BD8B41E
:1024B000AE2BBFD7D892B2C9D2F9B1C9D1F9B0C940
:1024C000D0F9AFC9CFF9D66BD56B010ED46FF40E2E
:1024D000D36F0001EDDE03C0B2F902C0B1F901C053
:1024E000B0F900C0AFF9D892B6C9D2F9B5C9D1F9DF
:1024F000B4C9D0F9B3C9CFF90901D66BD56B010EB8
:10250000D46FF40ED36F0001D3DE03C0B6F902C05E
:10251000B5F901C0B4F900C0B3F9D892BAC9D2F97B
:10252000B9C9D1F9B8C9D0F9B7C9CFF90901D66B82
:10253000D56B010ED46FF40ED36F0001B9DE03C06A
:10254000BAF902C0B9F901C0B8F900C0B7F9D89218
:10255000BEC9D2F9BDC9D1F9BCC9D0F9BBC9CFF93F
:102560000901D66BD56B010ED46FF40ED36F000149
:102570009FDE03C0BEF902C0BDF901C0BCF900C0B6
:10258000BBF9D892C2C9D2F9C1C9D1F9C0C9D0F931
:10259000BFC9CFF90901D66BD56B010ED46FF40E0C
:1025A000D36F000185DE03C0C2F902C0C1F901C0CA
:1025B000C0F900C0BFF901010853D8B4BDD00D0E59
:1025C0000901CF6F0001A3EC0AF00A0E0901CF6FD9
:1025D0000001A3EC0AF0D00EF66E030EF76E070EA4
:1025E0000901C36F0001C6EC0AF0410EE96EB2C9E1
:1025F000C6F9B1C9C5F9B0C9C4F9AFC9C3F9A2DEFA
:102600000D0E0901CF6F0001A3EC0AF00A0E0901BB
:10261000CF6F0001A3EC0AF0DE0EF66E030EF76E2C
:10262000070E0901C36F0001C6EC0AF0410EE96E06
:10263000B6C9C6F9B5C9C5F9B4C9C4F9B3C9C3F9AE
:1026400081DE0D0E0901CF6F0001A3EC0AF00A0E26
:102650000901CF6F0001A3EC0AF0EC0EF66E030E39
:10266000F76E070E0901C36F0001C6EC0AF0410EB8
:10267000E96EBAC9C6F9B9C9C5F9B8C9C4F9B7C9C3
:10268000C3F960DE0D0E0901CF6F0001A3EC0AF063
:102690000A0E0901CF6F0001A3EC0AF0FA0EF66EE4
:1026A000030EF76E070E0901C36F0001C6EC0AF0B6
:1026B000410EE96EBEC9C6F9BDC9C5F9BCC9C4F9A8
:1026C000BBC9C3F93FDE0D0E0901CF6F0001A3ECBA
:1026D0000AF00A0E0901CF6F0001A3EC0AF0080E00
:1026E000F66E040EF76E070E0901C36F0001C6EC0B
:1026F0000AF0410EE96EC2C9C6F9C1C9C5F9C0C91F
:10270000C4F9BFC9C3F91EDE0D0E0901CF6F000168
:10271000A3EC0AF00A0E0901CF6F0001A3EC0AF046
:102720000D0E0901CF6F0001A3EC0AF00A0E09019A
:10273000CF6F0001A3EC0AF00901B25307E1B153D6
:1027400005E1B05303E1AF51050830E2B2532EE189
:10275000B1532CE1B0532AE1AF51310827E3B6530E
:1027600007E1B55305E1B45303E1B35132081EE26A
:10277000BA5307E1B95305E1B85303E1B751320841
:1027800015E2BE5307E1BD5305E1BC5303E1BB5164
:1027900032080CE2C25307E1C15305E1C05303E123
:1027A000BF51320803E2000E016EE7D0B65307E1D5
:1027B000B55305E1B45303E1B351050830E2B65314
:1027C0002EE1B5532CE1B4532AE1B351310827E38C
:1027D000B25307E1B15305E1B05303E1AF51320801
:1027E0001EE2BA5307E1B95305E1B85303E1B7510B
:1027F000320815E2BE5307E1BD5305E1BC5303E1C6
:10280000BB5132080CE2C25307E1C15305E1C0538A
:1028100003E1BF51320803E2010E016EAED0BA539C
:1028200007E1B95305E1B85303E1B751050830E2B8
:10283000BA532EE1B9532CE1B8532AE1B75131080C
:1028400027E3B65307E1B55305E1B45303E1B351B0
:1028500032081EE2B25307E1B15305E1B05303E180
:10286000AF51320815E2BE5307E1BD5305E1BC5339
:1028700003E1BB5132080CE2C25307E1C15305E149
:10288000C05303E1BF51320803E2020E016E75D05E
:10289000BE5307E1BD5305E1BC5303E1BB5105083D
:1028A00030E2BE532EE1BD532CE1BC532AE1BB51B3
:1028B000310827E3B65307E1B55305E1B45303E10B
:1028C000B35132081EE2BA5307E1B95305E1B853D8
:1028D00003E1B751320815E2B25307E1B15305E104
:1028E000B05303E1AF5132080CE2C25307E1C153C8
:1028F00005E1C05303E1BF51320803E2030E016E4C
:102900003CD0C25307E1C15305E1C05303E1BF51BD
:10291000050831E2C2532FE1C1532DE1C0532BE131
:10292000BF51310828E3B65307E1B55305E1B4536D
:1029300003E1B35132081FE2BA5307E1B95305E18D
:10294000B85303E1B751320816E2BE5307E1BD5355
:1029500005E1BC5303E1BB5132080DE2B25307E17C
:10296000B15305E1B05303E1AF51320804E2040E64
:10297000016E03D002D0FF0E016E0001EBEF14F0E8
:10298000938881A809D0938A81AA06D0938C81ACC0
:1029900003D0938E81BE98D0938881B804D009016A
:1029A000AC6B17D00001938A81BA05D0010E0901E2
:1029B000AC6F0FD00001938C81BC05D0020E0901D1
:1029C000AC6F07D00001938E81BE04D0030E0901C5
:1029D000AC6F000117D501C0AAF90901AA3D01D0C9
:1029E0005AD0AC51050DF350AE6BAD6F036AAA51CE
:1029F000AD25016EAE5103220150000174EC00F0D0
:102A0000E8CFABF90101085340E10001FC6BFB6B1F
:102A100001010B5113080AE30B510B2B036A0C0F36
:102A2000E96E010E0320EA6EABC9EFFF160EF66EDB
:102A3000040EF76E090E0901C36F0001C6EC0AF01F
:102A40000BC1ADF9180E0901AE6F00015EEC0BF081
:102A50005D0E0901CF6F0001A3EC0AF0200E090101
:102A6000CF6F0001A3EC0AF0ABC9CFF9A3EC0AF0D9
:102A70000D0E0901CF6F0001A3EC0AF00A0E090147
:102A8000CF6F0001A3EC0AF005D0ABC9CFF900016C
:102A9000A3EC0AF00901938881A8FDD7938A81AA43
:102AA000FAD7938C81ACF7D7938E81AEF4D7938805
:102AB00081A8FDD7938A81AAFAD7938C81ACF7D7E6
:102AC000938E81AEF4D70001FF0E926E0901ABC95F
:102AD00001F000011200080E016E0A0E006E002EB9
:102AE000FED78B9694960B0E006E002EFED7090132
:102AF000C2378B98D8B09488D8A09498948682A630
:102B0000FED7012E01D002D00001E7D70A0E006ED9
:102B1000002EFED78B969496000094880B0E006EC4
:102B2000002EFED70B0E006E002EFED7948682A6D6
:102B3000FED7016A0B0E006E002EFED782B8018010
:102B40008B9694968B98949800011200080E0901B8
:102B5000BC6F00C0BDF994880B0E006E002EFED72E
:102B6000948682A6FED782B8D88082A8D8900136F3
:102B70000A0E006E002EFED794968B96BC2FEBD7D4
:102B800094880B0E006E002EFED78B98BD51D8A4F2
:102B900094980000948682A6FED70A0E006E002E3E
:102BA000FED78B9694960B0E006E002EFED78B9858
:102BB00094980001120094880A0E006E002EFED731
:102BC00094860B0E006E002EFED78B9894980A0EFA
:102BD000006E002EFED78B969496D00E0901C26F20
:102BE000000179DFB1C9C2F976DF94880A0E006E60
:102BF000002EFED794860B0E006E002EFED782A606
:102C0000FED78B9894980A0E006E002EFED78B96F6
:102C10009496D10E0901C26F00015DDF006A96DF54
:102C200001C0B2F994980000948682A6FED70A0EDD
:102C3000006E002EFED700D0000094880A0E006EB1
:102C4000002EFED70901B2C901F000011200B2C97D
:102C5000B3F90901B339006E0F0E001600500A0DCA
:102C6000F3CFB2F9B339006EF00E00160050003AFF
:102C70000F0E00160050B227B2C901F00001120079
:102C800094880A0E006E002EFED794860B0E006EFE
:102C9000002EFED78B9894980A0E006E002EFED759
:102CA0008B969496A00E0901C26F000114DFB9C97A
:102CB000BBF90901BC6BB9C9C2F900010CDFB8C985
:102CC000C2F909DF94880A0E006E002EFED79486A2
:102CD0000B0E006E002EFED782A6FED78B9894981E
:102CE0000A0E006E002EFED78B969496A10E090157
:102CF000C26F0001F0DE006A29DF01C0BAF99498C2
:102D00000000948682A6FED70A0E006E002EFED723
:102D100000D0000094880A0E006E002EFED7090134
:102D2000BAC901F0000112000901AE6BAD6BB06BC6
:102D3000AF6BB26BB16BB96B280EB86F0001A0DF3F
:102D4000090101C0AFF9B06BB96B290EB86F000172
:102D500097DF0901B26B01C0B1F9B1C9B2F9B16B2A
:102D6000B151AF11AD6FB251B011AE6FADC901F03D
:102D7000AEC902F0000112000901AF51B103F3CF57
:102D800001F0F4CF00F0B203F3500026B051B103CC
:102D9000F3500020026E000112000901BC6BB95112
:102DA000BC5D0AE2036ABC51BA25E96EBB5103203F
:102DB000EA6EEF6ABC2BF3D7000112000901B86B71
:102DC000010EB76FADC9B9F9AFC9BBF9AEC9BAF950
:102DD000B1C9BDF9B0C9BCF90001A2EC04F002C050
:102DE000B8F901C0B7F90901B75305E1B85303E1D8
:102DF000000E016ED5D1B8C9B6F9B7C9B5F9080149
:102E00005753D8A4DDD00901AD53D8A47BD0B46BFF
:102E1000B4514E0876E3036AB451B225016EB35142
:102E2000032201C0B9F903C0BAF9050EB525BB6F7D
:102E3000000EB621BC6FB051BB25E96EB151BC216B
:102E4000EA6EEFCFBDF9040EB525BE6F000EB621B8
:102E5000BF6FB051BE25E96EB151BF21EA6EEFCF11
:102E6000C0F9030EB525C16F000EB621C26FB05177
:102E7000C125E96EB151C221EA6EEFCFC3F9020E4E
:102E8000B525C46F000EB621C56FB051C425E96EDB
:102E9000B151C521EA6EEFCFC6F9010EB525C76F56
:102EA000000EB621C86FB051C725E96EB151C821D7
:102EB000EA6EEFCFC9F9B051B525E96EB151B6212F
:102EC000EA6EEFCFCAF9DB6BDC6BBDC9DDF9C0C9B7
:102ED000DEF9C3C9DFF9C6C9E0F9C9C9E1F9CAC950
:102EE000E2F90001F7EC02F0BAC9EAFFB9C9E9FF5B
:102EF00001C0EFFF070E0901B527000EB623B42B62
:102F000087D75CD0B46BB451270858E3036AB45137
:102F1000B225016EB351032201C0B9F903C0BAF959
:102F2000030EB525BB6F000EB621BC6FB051BB259B
:102F3000E96EB151BC21EA6EEFCFBDF9020EB525A5
:102F4000BE6F000EB621BF6FB051BE25E96EB15104
:102F5000BF21EA6EEFCFC0F9010EB525C16F000E9B
:102F6000B621C26FB051C125E96EB151C221EA6EDE
:102F7000EFCFC3F9B051B525E96EB151B621EA6E74
:102F8000EFCFC4F9DB6BDC6BDD6BDE6BBDC9DFF94A
:102F9000C0C9E0F9C3C9E1F9C4C9E2F90001F7EC1D
:102FA00002F0BAC9EAFFB9C9E9FF01C0EFFF050E97
:102FB0000901B527000EB623B42BA5D7DCD0080134
:102FC0000901AD53D8A47BD0B46BB4514E0876E35D
:102FD000036AB451B225016EB351032201C0B9F99D
:102FE00003C0BAF9050EB55DBB6F000EB659BC6FD4
:102FF000B051BB25E96EB151BC21EA6EEFCFBDF9EE
:10300000040EB55DBE6F000EB659BF6FB051BE2540
:10301000E96EB151BF21EA6EEFCFC0F9030EB55D85
:10302000C16F000EB659C26FB051C125E96EB151E2
:10303000C221EA6EEFCFC3F9020EB55DC46F000E78
:10304000B659C56FB051C425E96EB151C521EA6EBC
:10305000EFCFC6F9010EB55DC76F000EB659C86F48
:10306000B051C725E96EB151C821EA6EEFCFC9F959
:10307000B051B525E96EB151B621EA6EEFCFCAF96C
:10308000DB6BDC6BBDC9DDF9C0C9DEF9C3C9DFF993
:10309000C6C9E0F9C9C9E1F9CAC9E2F90001F7EC0A
:1030A00002F0BAC9EAFFB9C9E9FF01C0EFFF070E94
:1030B0000901B55F000EB65BB42B87D75CD0B46B4B
:1030C000B451270858E3036AB451B225016EB351D5
:1030D000032201C0B9F903C0BAF9030EB55DBB6F95
:1030E000000EB659BC6FB051BB25E96EB151BC2181
:1030F000EA6EEFCFBDF9020EB55DBE6F000EB65998
:10310000BF6FB051BE25E96EB151BF21EA6EEFCF5E
:10311000C0F9010EB55DC16F000EB659C26FB05156
:10312000C125E96EB151C221EA6EEFCFC3F9B051AA
:10313000B525E96EB151B621EA6EEFCFC4F9DB6B6C
:10314000DC6BDD6BDE6BBDC9DFF9C0C9E0F9C3C95B
:10315000E1F9C4C9E2F90001F7EC02F0BAC9EAFFEB
:10316000B9C9E9FF01C0EFFF050E0901B55F000E07
:10317000B65BB42BA5D7AD530AE1520EB96FB1C9F6
:10318000BBF9B0C9BAF9000108DE09D009012C0E5B
:10319000B96FB1C9BBF9B0C9BAF90001FEDD0901C7
:1031A0000001120094880A0E006E002EFED794864D
:1031B0000B0E006E002EFED78B9894980A0E006EB0
:1031C000002EFED78B969496A00E0901C26F0001C7
:1031D00082DCBCC9C0F90901C16BBCC9C2F90001DC
:1031E0007ADCBBC9C2F977DCBDC9C2F974DC94983A
:1031F0000000948682A6FED70A0E006E002EFED72F
:1032000000D0000094880A0E006E002EFED794882D
:103210000A0E006E002EFED794860B0E006E002E56
:10322000FED78B9894980A0E006E002EFED78B96D0
:103230009496A00E0901C26F00014DDC01500901F6
:10324000BE9101B0BE81BEA11ED094880A0E006E50
:10325000002EFED794860B0E006E002EFED782A69F
:10326000FED78B9894980A0E006E002EFED78B9690
:103270009496A00EC26F00012EDC01500901BE9190
:1032800001B0BE81E0D794980000948682A6FED754
:103290000A0E006E002EFED700D0000094880A0EA1
:1032A000006E002EFED7000112000901B56BB46B51
:1032B000B36BB26BB66BB76BB86BB96BB0C9B5F922
:1032C000AFC9B4F9AEC9B3F9ADC9B2F9B2C9B6F96B
:1032D000B3C9B7F9B4C9B8F9B5C9B9F9BC6BB1C9C3
:1032E000BBF9B6C9BDF900015DDF010E0901B125C9
:1032F000BA6FBC6BBB6FB7C9BDF9000153DF020EDB
:103300000901B125BA6FBC6BBB6FB8C9BDF900012B
:1033100049DF030E0901B125BA6FBC6BBB6FB9C998
:10332000BDF900013FDF1200010E0801676F040EB6
:103330000901B16F00013FDC01C0ADF901C0B2F974
:1033400086DC01C000F1050E0901B16F000133DC1C
:1033500001C0ADF901C0B2F97ADC01C0FFF0060E80
:103360000901B16F000127DC01C0ADF901C0B2F95C
:103370006EDC01C0FEF0030E0901B16F00011BDC21
:1033800001C0ADF901C0B2F962DC01C0FDF0020E6E
:103390000901B16F00010FDC01C0ADF901C0B2F944
:1033A00056DC01C001F1010E0901B16F000103DC1F
:1033B00001C0ADF901C0B2F94ADC01C002F1090156
:1033C000B16B0001DBEC15F001C0ADF901C0B2F941
:1033D0003EDC01C003F1A8DC02C0AEF901C0ADF9CA
:1033E00002C0B0F901C0AFF90901B26B7C0EB16F38
:1033F0000001C2DC01C0ADF9960E09010124016E85
:10340000000E022001C020F0216E226A236A08010A
:10341000645310E1596B586B5B6B5A6B5D6B5C6B63
:103420005F6B5E6B685304E10001FC69FB69080196
:10343000676BA3D1400EF66E050EF76E000138ECF7
:103440000BF00101066B056B010E096F59C8ACF951
:1034500058C8ABF90901AD6BACC9AFF9ABC9AEF94E
:10346000030EB16FD50EB06F030EB36F5E0EB26F69
:103470000001A4DC0801596B586B5BC8ACF95AC851
:10348000ABF9010E0901AD6FACC9AFF9ABC9AEF92B
:10349000070EB16F270EB06F030EB36FAD0EB26F94
:1034A00000018CDC08015B6B5A6B676B200E03011B
:1034B0005E250901AA6F2352D8A45ED12252D8A456
:1034C0005BD12150AA08D8A057D104E1205045086B
:1034D000D8A052D1AA512508D8A44ED123C003F0B8
:1034E00022C002F021C001F020C000F0010E202611
:1034F000D8B0212AD8B4222AD8B4232A01C0AEF9E0
:1035000000C0ADF901C0BCF900C0BBF900C1BDF9F4
:10351000000148DE23C003F022C002F021C001F008
:1035200020C000F0010E2026D8B0212AD8B4222ACB
:10353000D8B4232A01C0AEF900C0ADF901C0BCF96E
:1035400000C0BBF9FFC0BDF92DDE23C003F022C0CF
:1035500002F021C001F020C000F0010E2026D8B0FA
:10356000212AD8B4222AD8B4232A01C0AEF900C037
:10357000ADF901C0BCF900C0BBF901C1BDF912DE53
:1035800023C003F022C002F021C001F020C000F0EF
:10359000010E2026D8B0212AD8B4222AD8B4232A52
:1035A00001C0AEF900C0ADF901C0BCF900C0BBF963
:1035B00002C1BDF9F7DD23C003F022C002F021C033
:1035C00001F020C000F0010E2026D8B0212AD8B486
:1035D000222AD8B4232A01C0AEF900C0ADF901C037
:1035E000BCF900C0BBF903C1BDF9DCDD0801636BA8
:1035F000626B63532EE162514E082BE323C003F04C
:1036000022C002F021C001F020C000F0010E2026EF
:10361000D8B0212AD8B4222AD8B4232A01C0AEF9BE
:1036200000C0ADF95E0E6225E96E030E6321EA6EFD
:10363000EF503F0B200F0901AF6F01C0BCF900C074
:10364000BBF9BD6F0001AEDD0801622BD8B4632B5E
:10365000D0D74F0E0901B96F030EBB6F5E0EBA6F64
:103660000001CDEC16F00801636B626B63532EE131
:10367000625127082BE323C003F022C002F021C0CF
:1036800001F020C000F0010E2026D8B0212AD8B4C5
:10369000222AD8B4232A01C0AEF900C0ADF9AD0E7C
:1036A0006225E96E030E6321EA6EEF500F0B300FB7
:1036B0000901AF6F01C0BCF900C0BBF9BD6F0001CB
:1036C00071DD0801622BD8B4632BD0D7280E090115
:1036D000B96F030EBB6FAD0EBA6F0001CDEC16F0E3
:1036E0000D0E0901CF6F0001A3EC0AF00A0E0901CB
:1036F000CF6F0001A3EC0AF0560EF66E050EF76EC2
:1037000038EC0BF00D0E0901CF6F0001A3EC0AF0AD
:103710000A0E0901CF6F0001A3EC0AF05C0EF66EF1
:10372000050EF76E38EC0BF00D0E0901CF6F00019E
:10373000A3EC0AF00A0E0901CF6F0001A3EC0AF016
:10374000FC6BFB6B23C0B0F922C0AFF921C0AEF90E
:1037500020C0ADF9190E0901B16F0001A6DD080105
:10376000646B676B010E686F0101096F0001FC6BF0
:10377000FB6B01010B6B09010801000133EF23F022
:10378000016603D0026602D007D0022A00C0EEFF15
:10379000012EFCD7022EFAD712002752D8A49ED0B1
:1037A0002652D8A49BD02550FF08D8A097D004E17A
:1037B0002450FE08D8A092D001010C5366E000010D
:1037C00094EC16F002C0ACF901C0ABF9ACC9B0F989
:1037D000ABC9AFF90901B26B320EB16F0001BCEC9D
:1037E00016F002C0AEF901C0ADF9460E0901AD27D1
:1037F000AA0EAE23010EAD25016E000EAE2101C052
:1038000024F0256E266A276AAA6BAA512C0828E3A1
:1038100027C003F026C002F025C001F024C000F04C
:10382000010E2426D8B0252AD8B4262AD8B4272AAF
:1038300001C0AEF900C0ADF9036AAA510C0FE96EE0
:10384000010E0320EA6EEFCFAFF901C0BCF900C052
:10385000BBF9AFC9BDF90001A5DC0901AA2BD5D779
:1038600025C0BCF924C0BBF9BD6B00019BDC27C09F
:10387000B0F926C0AFF925C0AEF924C0ADF91E0ECF
:103880000901B16F000111DD01010B6B320E09015D
:10389000B96F010EBB6F0C0EBA6F0001CDEC16F0C4
:1038A0000D0E0901CF6F0001A3EC0AF00A0E090109
:1038B000CF6F0001A3EC0AF0280EF66E040EF76E2F
:1038C00038EC0BF00D0E0901CF6F0001A3EC0AF0EC
:1038D0000A0E0901CF6F0001A3EC0AF0A8EF23F054
:1038E0000901AF6BAE6BB06BB16BADC9AFF9ACC9D1
:1038F000AEF9AEC9B0F9AF51B16FBC6B280EBB6F5A
:10390000B0C9BDF900014EDC0901BC6B290EBB6FCB
:10391000B1C9BDF9000146DC12000900F5520DE005
:10392000F6CFAAF9F7CFABF9F5509EA8FED7AE6E49
:10393000AAC9F6FFABC9F7FFF0D712000901AA6BBD
:10394000AA5113081AE3036AAA51460FE96E010E41
:103950000320EA6EEF504F080EE1010EAA25036A1C
:10396000460FE96E010E0320EA6EEF504B0803E1AB
:10397000010E016E04D0AA2BE3D7000E016E0001E8
:103980002DEF24F00901AE6BAF6BB06BB16BB26B76
:10399000320EB96FABC9BBF9AAC9BAF90001CDECB7
:1039A00016F0140E0901B96FADC9BBF9ACC9BAF96B
:1039B0000001CDEC16F00901AE6BAE51C708D8A0DE
:1039C000E1D0036AAE51460FE96E010E0320EA6EA4
:1039D000EF502B08D8A489D0010EAE25036A460FFC
:1039E000E96E010E0320EA6EEF504308D8A47DD0A3
:1039F000020EAE25036A460FE96E010E0320EA6E41
:103A0000EF504D08D8A471D0030EAE25036A460FBF
:103A1000E96E010E0320EA6EEF50470866E1040EDE
:103A2000AE25036A460FE96E010E0320EA6EEF50E1
:103A300052085BE1050EAE25036A460FE96E010EE2
:103A40000320EA6EEF503A0850E1060EAE25036AF5
:103A5000460FE96E010E0320EA6EEF50200845E1A3
:103A6000070EAE25036A460FE96E010E0320EA6ECB
:103A7000EF5030083AE1080EAE25036A460FE96EB2
:103A8000010E0320EA6EEF502C082FE1090EAE253F
:103A9000036A460FE96E010E0320EA6EEF502C0810
:103AA00024E10A0EAE25036A460FE96E010E0320DB
:103AB000EA6EEF50300819E1B26BC80EAE6F640EBB
:103AC000B96FABC9BBF9AAC9BAF90001CDEC16F0C0
:103AD000100E0901B96FADC9BBF9ACC9BAF9000143
:103AE000CDEC16F00101046B0901036AAE51460FDB
:103AF000E96E010E0320EA6EEFCFB3F9AF51030870
:103B000013E1B3512F0803E2B351390803E2B35173
:103B10002B080AE1B051AE5D036AAC25E96EAD51E8
:103B20000320EA6EB3C9EFFFB15102080CE1B051B6
:103B3000AE5D036AAA25E96EAB510320EA6EB3C9F4
:103B4000EFFF010EB26FB35122080AE1AF51050831
:103B5000D8B0AF2BAF51030803E1010EAE25B06F13
:103B6000AF5106080DE1B3510D0803E0B3510A0847
:103B700007E1B12BB151020803E1010EAE25B06F90
:103B8000AE2B1BD7B2C901F0000168EF24F0090188
:103B9000AE6BAB51AE5D20E2036AAE51AC25016E57
:103BA000AD51032201C0AFF903C0B0F9AE51AA254F
:103BB000B16FB96BB86F000140EC16F0B0C9EAFF05
:103BC000AFC9E9FF01C0EFFF1A0E006E002EFED74D
:103BD00000000901AE2BDDD700011200ABC9AFF91F
:103BE000AAC9AEF9ADC9B1F9ACC9B0F9AFC903F012
:103BF0000901AEC9E9FFAFC9EAFFEF5223E0B1C93D
:103C000003F0B0C9E9FFB1C9EAFFEF521BE0AEC94A
:103C1000E9FFAFC9EAFFEFCFB2F9B1C903F0B0C90C
:103C2000E9FFB1C9EAFFEF50B25D03E0010E016E9A
:103C30001FD0AE2BD8B4AF2BB02BD8B4B12B000112
:103C4000D5D70901AFC903F0AEC9E9FFAFC9EAFF93
:103C5000EFCFB2F9B1C903F0B0C9E9FFB1C9EAFFCA
:103C6000EF50B25D03E0010E016E02D0000E016E56
:103C7000000112000901AE5302E1AF5342E0AAC9AC
:103C8000E9FFABC9EAFFEFCFB0F9ADC903F0ACC9AA
:103C9000E9FFADC9EAFFEF50B05D17E0ABC903F033
:103CA000AAC9E9FFABC9EAFFEFCFB0F9ADC903F08C
:103CB000ACC9E9FFADC9EAFFEF50B05D02E2FF0E0B
:103CC00001D0010E016E1FD00BD0ABC903F0AAC901
:103CD000E9FFABC9EAFFEF5203E1000E016E13D01A
:103CE000ABC903F0AA51AA2BD8B4AB2BADC903F0D2
:103CF000AC51AC2BD8B4AD2BAE51D8B4AF07AE0796
:103D0000BAD7000E016E000112000901AB6B960ECE
:103D1000AA6FAA3D03D0AB3D01D00DD0ABC9BCF911
:103D2000AAC9BBF9BD6B0001D2EC18F00901AA2B9E
:103D3000D8B4AB2BEED7236A226A216A960E206E86
:103D4000276A266AAA0E256E470E246E23C0B0F994
:103D500022C0AFF921C0AEF920C0ADF9190EB16F84
:103D6000000155EC19F027C0B0F926C0AFF925C005
:103D7000AEF924C0ADF91E0E0901B16F000155EC7A
:103D800019F00901AD6BAC6B0001AADD1200AA0E9F
:103D90000901AB6F470EAA6F275209E1265207E1CE
:103DA000AB51255C11E303E12450AA5D0DE2ABC9E0
:103DB000BCF9AAC9BBF9BD6B0001D2EC18F009012E
:103DC000AA2BD8B4AB2BE8D7AB6B960EAA6F2352B5
:103DD00009E1225207E1AB51215C11E303E12050DC
:103DE000AA5D0DE2ABC9BCF9AAC9BBF9BD6B000164
:103DF000D2EC18F00901AA2BD8B4AB2BE8D7236A70
:103E0000226A216A960E206E276A266AAA0E256EFD
:103E1000470E246E23C0B0F922C0AFF921C0AEF91D
:103E200020C0ADF9190EB16F000155EC19F027C093
:103E3000B0F926C0AFF925C0AEF924C0ADF91E0E09
:103E40000901B16F000155EC19F00901AD6BAC6BC4
:103E5000000146DD94EC16F002C0FAF001C0F9F062
:103E60001200B3C9B5F9B2C9B4F9B5C903F0090173
:103E7000B4C9E9FFB5C9EAFFEF5206E0B42BD8B4E4
:103E8000B52B0001F2D70901B251B45D006EB351F8
:103E9000B559036E00C001F0000112000901B16BB9
:103EA000ABC9B3F9AAC9B2F90001DBDF01C0B1F9AE
:103EB0000901B06BB151B05D21E2AFC903F0AE5161
:103EC000AE2BD8B4AF2BB26F03C0B3F9AC51B2254F
:103ED000016EAD510320036EB56F036AB051AA2580
:103EE000E96EAB510320EA6EEFCFB6F9B5C9EAFF30
:103EF00001C0E9FFB6C9EFFFB02BDCD7AEC901F0B6
:103F0000000112000901C16BC26B010EC36FDA6AB6
:103F1000D96A090EC66FB90EC56F090EEA6EBD0EDD
:103F2000E96EC6C9E2FFC5C9E1FFC3C9C4F9D890AB
:103F3000E550EE02F350C123F450C223C42FF7D74B
:103F4000C1C9DEFFC2C9C1F9C26BD8B0C22BC52B33
:103F5000D8B4C62BC32BC3510508DFE1000140EFE5
:103F600020F0D8B204D0090EEA6EC90EE96E09013C
:103F7000C451C819800BCE6FC4AF0BD0C11FC21F74
:103F8000C31FC41FC12BD8B4C22BD8B4C32BD8B401
:103F9000C42BC8AF0BD0C51FC61FC71FC81FC52B5A
:103FA000D8B4C62BD8B4C72BD8B4C82B006A016AC2
:103FB000026A036AC96BCA6BCB6BCC6BC851C71161
:103FC000C611C5112CE0200ECD6FD890C137C23775
:103FD000C337C437C937CA37CB37CC37C851CC5DA4
:103FE00008E1C751CB5D05E1C651CA5D02E1C5518B
:103FF000C95D0FE3C551C95FC651D8A0C63DCA5FB0
:10400000C751D8A0C73DCB5FC851D8A0C83DCC5F31
:10401000D8800036013602360336CD2FD6D7CEAF44
:104020000BD0001E011E021E031E002AD8B4012A56
:10403000D8B4022AD8B4032AC9C9EFFFCAC9ECFF11
:10404000CBC9ECFFCCC9ECFF000112000901B46B35
:10405000B36BB26B010EB16FB66BB76BADAF19D06E
:10406000010EB66FADC9BCF9ACC9BBF9ABC9BAF9A1
:10407000AAC9B9F9C069BF69BE69BD69000142D763
:1040800003C0ADF902C0ACF901C0ABF900C0AAF998
:104090000901B15306E1B25304E1B35302E1B45351
:1040A0006DE0D892ADC9C4F9ACC9C3F9ABC9C2F9C6
:1040B000AAC9C1F9C86BC76BC66BAEC9C5F9000107
:1040C00050DF03C0B4F902C0B3F901C0B2F900C0B7
:1040D000B1F9036A0901B751AF25016EB05103224E
:1040E00001C0B9F903C0BAF9EACFBCF9E9CFBBF90D
:1040F000D882090EEA6EBD0EE96EADC9C4F9ACC92D
:10410000C3F9ABC9C2F9AAC9C1F9C86BC76BC66B01
:10411000AEC9C5F9000125DFBCC9EAFFBBC9E9FF8B
:10412000300E0901BD25006E000EBE21000EBF211C
:10413000000EC021BAC9EAFFB9C9E9FF00C0EFFF0C
:10414000036AB751AF25E96EB0510320EA6EEF5014
:1041500039080AE2036AB751AF25E96EB05103206E
:10416000EA6E070EEF24EF6EB72BB4C9ADF9B3C9F1
:10417000ACF9B2C9ABF9B1C9AAF98BD7B62D0AD03F
:10418000036AB751AF25E96EB0510320EA6E2D0ED8
:10419000EF6EB72BB56BD890B731B55D2FE2036AE0
:1041A000B551AF25E96EB0510320EA6EEFCFB8F9F3
:1041B000036AB551AF25016EB051032203C0BAF9AD
:1041C000B551B75DFF0F036AAF25E96EB05103200B
:1041D000EA6EEFCFBBF9BAC9EAFF01C0E9FFBBC97C
:1041E000EFFFB551B75DFF0F036AAF25E96EB05120
:1041F0000320EA6EB8C9EFFFB52BCDD7036AB751DC
:10420000AF25E96EB0510320EA6EEF6AAFC901F045
:10421000B0C902F000011200006A016A0901B1513F
:10422000D890B2B1002600320132B2B3002600327B
:104230000132B2B5002600320132B2B70026003298
:104240000132B2B9002600320132B2BB0026003280
:104250000132B2BD002600320132B2BF0026003268
:1042600001320001A2EF21F00901AF6BAD6B0A0E24
:10427000AE6FAC6BAA51AB1103E1000E016EC3D05F
:10428000AF51AF2B036AAA25E96EAB510320EA6E4A
:10429000EFCFB0F9B0512D080DE1010EAD6FAF5168
:1042A000AF2B036AAA25E96EAB510320EA6EEFCF6C
:1042B000B0F90DD0B0512B080AE1AF51AF2B036A12
:1042C000AA25E96EAB510320EA6EEFCFB0F9B051E9
:1042D0002F08D8B090D0B0513908D8A08CD0B051A8
:1042E000300821E1036AAF51AA25E96EAB510320E2
:1042F000EA6EEF5078080AE0036AAF51AA25E96E2A
:10430000AB510320EA6EEF5058080DE1100EAE6F6E
:10431000AF2BAF51AF2B036AAA25E96EAB51032037
:10432000EA6EEFCFB0F9AE510A081DE1B0512F0887
:1043300019E2B051390816E30A0EB16FACC9B2F9EF
:1043400000016AD7300E0901B05D0124AC6FAF5196
:10435000AF2B036AAA25E96EAB510320EA6EEFCFBB
:10436000B0F9E4D748D0AE51100845E1B05160082B
:1043700006E2B0517A0803E3B051DF0B01D0B0512F
:10438000B06FB0512F0803E2B051390806E2B051C6
:10439000400831E2B05146082EE3B0512F080CE23C
:1043A000B051390809E3AC39B16FF00EB117300ED6
:1043B000B05DB125AC6F09D0AC39B16FF00EB1175B
:1043C000410EB05D0A0FB125AC6FAF51AF2B036A40
:1043D000AA25E96EAB510320EA6EEFCFB0F9B051D8
:1043E000600806E2B0517A0803E3B051DF0B01D058
:1043F000B051B06FC6D7AD2D04D0AE510A0801E15F
:10440000AC6DACC901F0000170EF26F00901AE51AE
:10441000AC25B46FAF51AD21B56FA90808E2FF0A12
:1044200003E1B451450803E2000E016E29D0B36BDD
:10443000B26BB351AF5D24E303E1AE51B25D20E254
:10444000B051B225016EB151B321036E01C0B4F970
:10445000B56FB251AC25B66FB351AD21B76FB96F1F
:10446000B6C9B8F9000140EC16F0B5C9EAFFB4C905
:10447000E9FF01C0EFFF0901B22BD8B4B32BD9D7A4
:10448000000112009EA8FED7AE6E12000901AB6BB0
:10449000AA6BAA51130854E3036AAA51460FE96EA6
:1044A000010E0320EA6EEF502B0847E1010EAA250A
:1044B000036A460FE96E010E0320EA6EEF504308CF
:1044C0003CE1020EAA25036A460FE96E010E0320A5
:1044D000EA6EEF504D0831E1030EAA25036A460F3C
:1044E000E96E010E0320EA6EEF50540826E1040E37
:1044F000AA25036A460FE96E010E0320EA6EEF500B
:1045000049081BE1050EAA25036A460FE96E010E54
:104510000320EA6EEF503A0810E1FE0EF66E040E2C
:10452000F76E000138EC0BF0010E0301586F020E1C
:104530000901AB6F170EAA6F01D0AB6BAA2BA9D7DD
:10454000AA6BAA5113083BE3036AAA51460FE96E0E
:10455000010E0320EA6EEF5052082EE1010EAA254B
:10456000036A460FE96E010E0320EA6EEF50490818
:1045700023E1020EAA25036A460FE96E010E03200D
:10458000EA6EEF504E0818E1030EAA25036A460FA3
:10459000E96E010E0320EA6EEF5047080DE10A0EA6
:1045A000F66E050EF76E000138EC0BF0010E0901F6
:1045B000AB6F170EAA6F01D0AB6BAA2BC2D701014C
:1045C000AA6B010EEA6E460EE96E006A026A640E7C
:1045D000016E0001C0EC1BF00901ABC901F0000144
:1045E000FFEF2AF00801EE6BED6B0101082D0DD0F5
:1045F0000801715304E10001F3EC0FF005D0000154
:10460000C0EC14F001C0F3F80101092D0CD0080131
:10461000715304E10001F3EC0FF005D00001C0EC90
:1046200014F001C0F3F8080156530FE155530DE1A2
:1046300054530BE15351040808E3010E5327D8B03B
:10464000542BD8B4552BD8B4562B535105082DE113
:1046500054532BE1555329E1565327E1692D04D0DA
:10466000000194EF19F00801030EEA6ED50EE96E11
:10467000006A030E026E520E016E0001C0EC1BF0C8
:10468000070EEA6E270EE96E006A010E026E2C0E0E
:10469000016EC0EC1BF008016A6B010E5327D8B005
:1046A000542BD8B4552BD8B4562B0901B96B940EA2
:1046B000B86F000140EC16F001C03EF1020E090196
:1046C000B06FBC0EAF6FB26B3EC1B1F90001BCEC74
:1046D00016F002C003F0FC51025C07E303E1015055
:1046E000FB5D03E2FB2BD8B4FC2B020E0901B06F7B
:1046F000BC0EAF6FB26B3EC1B1F90001BCEC16F05D
:1047000002C003F00150FB5D55E10350FC5D52E136
:1047100094EC16F002C0F2F801C0F1F80901B06B98
:104720007C0EAF6FF2C8B2F9F1C8B1F90001BCEC70
:1047300016F002C0ABF901C0AAF909010250AA089B
:1047400015E303E1AA51450811E30001CDEF1BF089
:10475000010E0801F127000EF223F2C8ADF9F1C8ED
:10476000ACF9000170EC1CF00AD00901560EF66E8F
:10477000560EF76E000138EC0BF00CEF2BF0660EC6
:10478000F66E560EF76E38EC0BF0760EF66E560E91
:10479000F76E38EC0BF00801686B0001FB2BD8B406
:1047A000FC2B0101096B94948B9403015C2D02D0C6
:1047B0000B0E586F0301562BD8B4572B5B51575D26
:1047C000D8A00DEF2BF005E15A51565DD8A00DEFA2
:1047D0002BF0576B566B010E585DF30FD8B00DEFF1
:1047E0002BF00D0F000111EF2BF094EC16F002C02E
:1047F0008DF801C08CF8010E0801866FEA6E460E36
:10480000E96E006A026A640E016E0001C0EC1BF0E2
:10481000030EEA6E3C0EE96E006A026A1A0E016E21
:10482000C0EC1BF08C0EF66E560EF76E38EC0BF0EB
:10483000949E9E0EF66E560EF76E8DEC1CF0948EC6
:10484000020E0301586F0101AA6B03015B6BC80ED6
:104850005A6F0DEF2BF09EEF1CF001C0F3F808012A
:10486000F32D04D0010E0301586F03D0030E030192
:10487000586F5B6B640E5A6F0DEF2BF0140E09012D
:10488000B96F020EBB6FF60EBA6F0001CDEC16F0D9
:10489000320E0901B96F030EBB6F0A0EBA6F000129
:1048A000CDEC16F0320E0901B96F020EBB6FC40ECB
:1048B000BA6F0001CDEC16F0020E0901AB6FC40E09
:1048C000AA6F030EAD6F3C0EAC6F0001C2EF1CF07F
:1048D000010EEA6E460EE96E006A026A640E016E0F
:1048E000C0EC1BF0040E0301586F010E5B6F2C0E21
:1048F0005A6F0DEF2BF0AA0EF66E560EF76E38ECCF
:104900000BF00801F46BF451130811E3036AF4513E
:104910003C0FE96E030E0320EA6EEFCFAAF9AAC995
:10492000CFF90001A3EC0AF00801F42BECD7550EE7
:104930000901AA6F140EAB6F020EAD6FF60EAC6FCD
:104940000001C7EC1DF0030E0901AB6F3C0EAA6F0E
:10495000020EAD6FF60EAC6F0001EEEC1DF00152D1
:104960000BE1C40EF66E560EF76E38EC0BF0050E2A
:104970000301586F0AD00001E80EF66E560EF76E6E
:1049800038EC0BF0060E0301586F0DEF2BF0010E03
:10499000EA6EAC0EE96E006A010E026E180E016E30
:1049A000C0EC1BF0030EEA6E0A0EE96E000E54EC2A
:1049B00001F00A000900F550EE6E0009FBE1030E5C
:1049C0000901AB6F0A0EAA6F020EAD6FC40EAC6F79
:1049D000AF6B050EAE6F00013AEC1EF0015216E10E
:1049E000060E0301586F120EF66E570EF76E000199
:1049F00038EC0BF085EC1EF0200EF66E570EF76EBD
:104A000038EC0BF003010DEF2BF00001030EEA6E02
:104A10000A0EE96E000E5FEC01F00A000900F55085
:104A2000EE6E0009FBE1030E0901AB6F0A0EAA6FDF
:104A3000020EAD6FC40EAC6FAF6B060EAE6F000111
:104A40003AEC1EF0015216E1060E0301586F280ED3
:104A5000F66E570EF76E000138EC0BF0C7EC1EF047
:104A6000360EF66E570EF76E38EC0BF003010DEFB5
:104A70002BF00001030EEA6E0A0EE96E000E6BECDD
:104A800001F00A000900F550EE6E0009FBE1030E8B
:104A90000901AB6F0A0EAA6F020EAD6FC40EAC6FA8
:104AA000AF6B0A0EAE6F00013AEC1EF00152D8A4B3
:104AB0009AD00801EE6BED6B000194EC16F002C089
:104AC0008DF801C08CF8030EEA6E0A0EE96E000E36
:104AD00079EC01F00A000900F550EE6E0009FBE1E7
:104AE000030E0901AB6F0A0EAA6F010EAD6FAC0E7B
:104AF000AC6FAF6BAE6B00014EEC1FF00801EE6BBC
:104B000001C0EDF80901AD6BAC6B8DC8ABF98CC879
:104B1000AAF90A0EAE6F080EB06FF70EAF6F000164
:104B200026EC20F0080E0901AB6FF70EAA6F010EFC
:104B3000AD6FAC0EAC6FEEC8AFF9EDC8AEF90001C9
:104B40004EEC1FF00801EE6B01C0EDF8030EEA6EAB
:104B50000A0EE96E000E000187EC01F00A00090060
:104B6000F550EE6E0009FBE1030E0901AB6F0A0E72
:104B7000AA6F010EAD6FAC0EAC6FEEC8AFF9EDC809
:104B8000AEF900014EEC1FF00801EE6B01C0EDF82C
:104B9000080E0301586F0801896B886B3E0EF66E94
:104BA000570EF76E0B0E0901C36F0001C6EC0AF039
:104BB000100EE96E8DC8ABF98CC8AAF9DAEC0AF0D0
:104BC0004C0EF66E570EF76E0F0E0901C36F000103
:104BD000C6EC0AF008018F6B8E6B916B906B030132
:104BE0000DEF2BF00001030EEA6E0A0EE96E000EC7
:104BF00096EC01F00A000900F550EE6E0009FBE1A9
:104C0000030E0901AB6F0A0EAA6F020EAD6FC40E40
:104C1000AC6FAF6B0C0EAE6F00013AEC1EF00152A0
:104C20001DE15C0EF66E570EF76E38EC0BF094EC4F
:104C300016F002C091F801C090F80801EE6BED6B20
:104C400091C88BF890C88AF8070E0301586F0801C5
:104C50008F6B8E6B03010DEF2BF00001030EEA6EDC
:104C60000A0EE96E000EA5EC01F00A000900F550ED
:104C7000EE6E0009FBE1030E0901AB6F0A0EAA6F8D
:104C8000020EAD6FC40EAC6FAF6B090EAE6F0001BC
:104C90003AEC1EF00152D8A4CBD00801F46BCDC27F
:104CA000F3F8F35315E0090EF425036AC40FE96E17
:104CB000020E0320EA6EEFCFF3F8F451F42B036AEF
:104CC000F70FE96E080E0320EA6EF3C8EFFFE9D78D
:104CD000080E0901AB6FF70EAA6F000134EF21F047
:104CE000036A01C08EF8080103C08FF8000194EC3C
:104CF00016F002C091F801C090F8080191518F5D43
:104D0000D8A07BD003E18E51905D77E2EE6BED6B26
:104D1000090EEA6E780EE96E000E0001B2EC01F0A9
:104D20000A000900F550EE6E0009FBE1090E0901C9
:104D3000AB6F780EAA6F010EAD6FAC0EAC6FAF6BA0
:104D4000AE6B00014EEC1FF00801EE6B01C0EDF8F8
:104D50000901AD6BAC6B91C8ABF990C8AAF90A0E0A
:104D6000AE6F080EB06FF70EAF6F000126EC20F0AB
:104D7000080E0901AB6FF70EAA6F010EAD6FAC0EF6
:104D8000AC6FEEC8AFF9EDC8AEF900014EEC1FF004
:104D90000801EE6B01C0EDF8090EEA6E780EE96EBF
:104DA000000E000187EC01F00A000900F550EE6EDC
:104DB0000009FBE1090E0901AB6F780EAA6F010E25
:104DC000AD6FAC0EAC6FEEC8AFF9EDC8AEF9000137
:104DD0004EEC1FF00801EE6B01C0EDF8080E030168
:104DE000586F0801896B886B916B906B8B6B8A6B2A
:104DF00003010DEF2BF01BD0080191C88BF890C870
:104E00008AF88E518A5D8E6F8F518B598F6F8E53BA
:104E100007E18F5305E18BC891F88AC890F802D05A
:104E2000916B906B070E0301586F0DEF2BF003D0C1
:104E3000060E0301586F0DEF2BF06C0EF66E570E39
:104E4000F76E38EC0BF0949E7C0EF66E570EF76EF4
:104E50008DEC1CF0948EC80E0901B96F010EBB6F6A
:104E6000460EBA6F0001CDEC16F0030E03015B6F26
:104E7000200E5A6F0C0E586F94948B940DEF2BF0FC
:104E800008018A5308E18B5306E1060E0301586FAF
:104E90000DEF2BF00801EE6BED6B010EEA6EAC0E20
:104EA000E96E006A010E026E180E016E0001C0EC80
:104EB0001BF08BC8B0F98AC8AFF90901B26B7C0E40
:104EC000B16F0001BCEC16F0960E09010124080137
:104ED000EF6F000E090102200801F06F7C0EEF5DFC
:104EE0000901AA6F000E0801F0590901AB6FAD6FFF
:104EF000AAC9ACF9AF6B7C0EAE6F080EB16FFC0E99
:104F0000B06F000106EC22F00901AD6BAC6BAB6B2E
:104F1000FCC8AAF90A0EAE6F080EB06FF70EAF6F9D
:104F2000000126EC20F0080E0901AB6FF70EAA6F06
:104F3000010EAD6FAC0EAC6FAF6BAE6B00014EEC03
:104F40001FF00801EE6B01C0EDF8EEC803F0ED5163
:104F5000ED2BD8B4EE2B0901AA6FAC0EAA25E96E91
:104F6000010E0320EA6E2F0EEF6EAD6BAC6BAB6BD8
:104F7000FDC8AAF90A0EAE6F080EB06FF70EAF6F3C
:104F8000000126EC20F0080E0901AB6FF70EAA6FA6
:104F9000010EAD6FAC0EAC6FEEC8AFF9EDC8AEF957
:104FA00000014EEC1FF00801EE6B01C0EDF8EEC8F9
:104FB00003F0ED51ED2BD8B4EE2B0901AA6FAC0E26
:104FC000AA25E96E010E0320EA6E2F0EEF6E08018E
:104FD000EEC803F0ED51ED2BD8B4EE2B0901AA6F0A
:104FE000AC0EAA25E96E010E0320EA6E200EEF6ECC
:104FF000AD6BAC6BAB6BFEC8AAF90A0EAE6F080EB8
:10500000B06FF70EAF6F000126EC20F0080E09011B
:10501000AB6FF70EAA6F010EAD6FAC0EAC6FEEC8A2
:10502000AFF9EDC8AEF900014EEC1FF00801EE6BD0
:1050300001C0EDF8EEC803F0ED51ED2BD8B4EE2B26
:105040000901AA6FAC0EAA25E96E010E0320EA6ED3
:105050003A0EEF6EAD6BAC6BAB6BFFC8AAF90A0EE4
:10506000AE6F080EB06FF70EAF6F000126EC20F0A8
:10507000080E0901AB6FF70EAA6F010EAD6FAC0EF3
:10508000AC6FEEC8AFF9EDC8AEF900014EEC1FF001
:105090000801EE6B01C0EDF8EEC803F0ED51ED2B09
:1050A000D8B4EE2B0901AA6FAC0EAA25E96E010E49
:1050B0000320EA6E3A0EEF6EAD6BAC6BAB6B00C9C2
:1050C000AAF90A0EAE6F080EB06FF70EAF6F0001AF
:1050D00026EC20F0080E0901AB6FF70EAA6F010E47
:1050E000AD6FAC0EAC6FEEC8AFF9EDC8AEF9000114
:1050F0004EEC1FF00801EE6B01C0EDF8F46B090EE9
:10510000EA6E780EE96E000E0001C3EC01F00A00B1
:105110000900F550EE6E0009FBE1090E0901AB6FC5
:10512000780EAA6F010EAD6FAC0EAC6FEEC8AFF982
:10513000EDC8AEF900014EEC1FF00801EE6B01C0A6
:10514000EDF8F36BF4514E0829E3F3513F0826E0E4
:10515000050EF425036AFC0FE96E080E0320EA6EC3
:10516000EFCFF3F8F3511F0814E2F3517E0811E377
:10517000EEC803F0ED51ED2BD8B4EE2B0901AA6F68
:10518000AC0EAA25E96E010E0320EA6EF3C8EFFF0C
:105190000801F42BF35301E101D0D4D7F46BF36B86
:1051A000090EEA6E780EE96E000E0001D0EC01F0F7
:1051B0000A000900F550EE6E0009FBE1090E090135
:1051C000AB6F780EAA6F010EAD6FAC0EAC6FEEC870
:1051D000AFF9EDC8AEF900014EEC1FF00801EE6B1F
:1051E00001C0EDF8F45127082AE3F3513F0827E006
:1051F000050EF4254F0F036AFC0FE96E080E03201D
:10520000EA6EEFCFF3F8F3511F0814E2F3517E0872
:1052100011E3EEC803F0ED51ED2BD8B4EE2B0901EC
:10522000AA6FAC0EAA25E96E010E0320EA6EF3C840
:10523000EFFF0801F42BF35301E101D0D3D7010EA6
:105240008A5D0901AA6F000E08018B590901AB6F35
:10525000B06FAAC9AFF9B26B320EB16F0001BCECEE
:1052600016F00150470F0801726FAA0E0220736FEB
:10527000746B756B090EEA6E780EE96E000E000114
:10528000DDEC01F00A000900F550EE6E0009FBE1CB
:10529000090E0901AB6F780EAA6F010EAD6FAC0E4F
:1052A000AC6FEEC8AFF9EDC8AEF900014EEC1FF0DF
:1052B0000801EE6B01C0EDF8F66BF651722509019D
:1052C000AA6F000E080173210901AB6FB96FAAC95B
:1052D000B8F9000140EC16F001C0F3F80801F351F1
:1052E0002F0803E2F35139080CE2F351230809E0D7
:1052F000F3512A0806E0F351400814E2F35148083C
:1053000011E3EEC803F0ED51ED2BD8B4EE2B0901FB
:10531000AA6FAC0EAA25E96E010E0320EA6EF3C84F
:10532000EFFF0801F62BF651310802E3F353C5E114
:10533000100EE96EEEC8ABF9EDC8AAF90001DAEC7F
:105340000AF08B0EF66E570EF76E0C0E0901C36F46
:105350000001C6EC0AF00801896B886B8A518E5DEA
:105360000CE18B518F5D09E18E5302E18F5305E013
:10537000060E0301586F51D108018A51D8B48B072A
:105380008A0703015D2D05D008018B6B8A6B030131
:105390005D6B080E586F41D194948B84949E0301E9
:1053A0005951000A000105E0010A2AE0030A61E000
:1053B000BBD0010E0801866F980EF66E570EF76E81
:1053C00000018DEC1CF0010E0901B36FAC0EB26F41
:1053D000000131EC1FF001C0F5F8010E0301596F17
:1053E0005B6FF40E5A6F550E0901AA6F140EAB6F66
:1053F000030EAD6F3C0EAC6F0001C7EC1DF094D0F6
:10540000A40EF66E570EF76E8DEC1CF0220E42ECD9
:1054100022F00801F46B036AF4513C0FE96E030EAD
:105420000320EA6EEF5214E0F451130811E3036A0B
:10543000F4513C0FE96E030E0320EA6EEFCFAAF998
:105440000901AA51000142EC22F00801F42BE3D734
:10545000220E000142EC22F00D0E9EA8FED7AE6E89
:105460000A0E9EA8FED7AE6E020E0301596F000110
:105470005BD00801F46BF4518B0831E3F4518825BB
:105480000901AA6F000E080189210901AB6FAC0E5A
:10549000AA25E96E010EAB21EA6EEF5207E1060E76
:1054A0000301586F596B08011AD009010801F45122
:1054B00088250901AA6F000E080189210901AB6F37
:1054C000AC0EAA25E96E010EAB21EA6EEFCFACF966
:1054D000AC51000142EC22F00801F42BCCD71A0E9B
:1054E000000142EC22F00301596B0801F4518B08D2
:1054F00007E3090E0301586F0801896B886B0BD015
:10550000896B8C0E886F0201385304E1090E030188
:10551000586F0201080188518C0805E1895303E1A5
:10552000080E0301586F0001948E030176D0080124
:10553000915303E1905101080AE29051D8B49107C8
:105540009007070E0301586F68D00DD008018E53E5
:1055500002E18F5305E0070E0301586F5ED003D0C0
:10556000060E0301586F59D00901B96B930EB86F3D
:10557000000140EC16F001C05CF303015C2D25D066
:10558000550E0901AA6F140EAB6F030EAD6F3C0EE2
:10559000AC6F0001C7EC1DF0AE0EF66E570EF76E45
:1055A00038EC0BF094EC16F002C08BF801C08AF8CE
:1055B00008018F6B8E6B916B906B896B886B010E02
:1055C00003015D6F070E586F02D0010E586F25D092
:1055D00094948B74BE0EF66E570EF76E38EC0BF08B
:1055E00094948B940D0E0301586F0801866B010E85
:1055F00003015B6F2C0E5A6F10D046EF22F001C0F2
:10560000F3F80801F351020805E194948B84010E2C
:105610000301586F030101D00301F294000142EF2E
:1056200000F0E824F76AF7363D0FF66E560EF722C3
:105630000A00F550FA6E0800F550F96EEA47564830
:105640007C48F6488E493A4E804E98532E5518564F
:105650006855D055FA550D0A46756C6C206D656D10
:105660006F72790D0A000D0A536176696E672050DA
:10567000494E0D0A00000D0A6E657874207472613F
:105680006E73616374696F6E0D0A00007265616408
:10569000696E675F736D732E2E2E0A0D00004154E4
:1056A0002B434D47523D310D0A000A0D4D6F626983
:1056B0006C652070686F6E65206E756D6265722016
:1056C000697320000A0D20636865636B696E67204B
:1056D00070686F6E65206E756D62657220697320EB
:1056E000646F6E650A0D00000A0D207468697320EE
:1056F00070686F6E6520756E61626C6520746F20D6
:1057000073656E6420636F6D6D616E6473200A0D46
:105710000000464F524D415454494E472E2E2E0004
:1057200020657869740A0D00464F524D4154544922
:105730004E472E2E2E0020657869740A0D00646590
:10574000766963652068617320256C7520747261C9
:105750006E73616374696F6E200A0D00646F776EFB
:105760006C6F616420616C6C0A0D000064656C658F
:1057700074655F4D53472E2E2E0A0D0041542B4366
:105780004D47443D310D0A00256C752063686172F8
:1057900061637465720A0D0041542B434D47463DC9
:1057A000310D0A0041542B434D47533D00000D0A73
:1057B00053656E64696E672E2E2E0D0A00006964B3
:1057C0006C650A0D00000D0A626F6F74696E672EBA
:1057D0002E2E0D0A000041540D0A000041542B43A7
:1057E0004D47463D310D0A0041542B43534D503D2A
:1057F00031372C3136372C302C3234350D0A00003D
:1058000041542B434D47443D310D0A0041542B4335
:105810004D47443D320D0A0041542B434D47443D12
:10582000330D0A0041542B434D47443D340D0A00CB
:1058300041542B434D47443D350D0A00706173734D
:10584000776F72643A00204F4B0A0D0020580A0D02
:10585000000094869488F19E17EF3FF00801E26BF8
:10586000DF51E25D23E2E251DE25E36F036AE2519C
:10587000E025E96EE1510320EA6EEFCFE4F8196A02
:10588000F2BE198EF29E0901BC6BE3C8BBF9E4C8F5
:10589000BDF90001D2EC18F019BEF28E1A0E006E9E
:1058A000002EFED700000801E22BDAD7000112001B
:1058B000196AF2BE198EF29E0901AA6B140EAB6F23
:1058C000AD6B550EAC6F0001C7EC1DF019BEF28E2A
:1058D000553C29D0563C27D0643D25D0EA6A2D0E90
:1058E000E96E000E69EC00F00A000900F550EE6E5A
:1058F0000009FBE10801DE6B140EDF6FE16B2D0E7A
:10590000E06F0001ABDF196AF2BE198EF29E090149
:10591000AA6B140EAB6FAD6B550EAC6F0001C7ECEC
:105920001DF019BEF28E1200196AF2BE198EF29E97
:105930000901B16B0001DBEC15F019BEF28E01C05C
:1059400093F80801939F94880A0E006E002EFED7EC
:1059500094860B0E006E002EFED78B9894980A0E3C
:10596000006E002EFED78B969496196AF2BE198EA1
:10597000F29ED00E0901C26F00016BEC15F019BE4A
:10598000F28E196AF2BE198EF29E0901C26B0001F5
:105990006BEC15F019BEF28E196AF2BE198EF29EEA
:1059A00093C8C2F96BEC15F019BEF28E94880A0EFA
:1059B000006E002EFED794860B0E006E002EFED7D2
:1059C00082A6FED78B9894980A0E006E002EFED702
:1059D0008B969496196AF2BE198EF29ED00E09012A
:1059E000C26F00016BEC15F019BEF28E196AF2BE9F
:1059F000198EF29E070E0901C26F00016BEC15F0C3
:105A000019BEF28E196AF2BE198EF29E800E09013D
:105A1000C26F00016BEC15F019BEF28E9498000075
:105A2000948682A6FED70A0E006E002EFED700D006
:105A3000000094880A0E006E002EFED73DEF3FF066
:105A40000801976B966B956B946B9B6B9A6B996B3C
:105A5000986B9F6B9E6B9D6B9C6BA36BA26BA16BFA
:105A6000A06BA76BA66BA56BA46B196AF2BE198E0F
:105A7000F29E0901B96B93C8B8F9000140EC16F029
:105A800019BEF28E080101C098F8996B9A6B9B6B56
:105A9000010E9325A86F196AF2BE198EF29E0901B4
:105AA000B96BB86F000140EC16F019BEF28E080118
:105AB0009F6B9E6B9D6B01C09CF89EC89FF89DC814
:105AC0009EF89CC89DF89C6B020E9325A86F196ADE
:105AD000F2BE198EF29E0901B96BB86F000140EC5D
