:0400000045EF40F098
:08000800046ED8CF05F0E0CF33
:1000100006F00001E9CF0CF0EACF07F0E1CF08F0DD
:10002000E2CF09F0D9CF0AF0DACF0BF0F3CF12F01C
:10003000F4CF13F0FACF14F0F5CF15F0F6CF16F099
:10004000F7CF17F000C00EF001C00FF002C010F0A3
:1000500003C011F0F2AA30EF00F0F2B4E6EF23F0A3
:100060009DA036EF00F09EB077EF10F0F0A63CEFC9
:1000700000F0F0B09CEF0DF09DAA42EF00F09EBAA8
:100080004CEF10F00EC000F00FC001F010C002F0F5
:1000900011C003F00CC0E9FF07C0EAFF078E08C0DB
:1000A000E1FF09C0E2FF0AC0D9FF0BC0DAFF12C0AE
:1000B000F3FF13C0F4FF14C0FAFF15C0F5FF16C01C
:1000C000F6FF17C0F7FF045006C0E0FF05C0D8FFD9
:1000D0001000F76AE20FF66E000EF7220900F550E5
:1000E000120061646D696E00F76AF80FF66E000E1B
:1000F000F7220900F55012003132334142343536CF
:10010000434437383945462A30234748F76A1C0F9D
:10011000F66E010EF7220900F55012006400F76A2E
:100120002E0FF66E010EF7220900F5501200660040
:10013000F76A400FF66E010EF7220900F550120023
:1001400066206D656D00F76A560FF66E010EF72298
:100150000900F5501200525350570000F76A6C0F17
:10016000F66E010EF7220900F5501200216B626451
:100170002100F76A820FF66E010EF7220900F55092
:1001800012007273666163740000F76A9A0FF66E6C
:10019000010EF7220900F55012006500F76AAC0F56
:1001A000F66E010EF7220900F55012006E00F76A94
:1001B000BE0FF66E010EF7220900F5501200630023
:1001C000F76AD00FF66E010EF7220900F550120003
:1001D00073630000F76AE40FF66E010EF722090060
:1001E000F55012004D530000F76AF80FF66E010E3D
:1001F000F7220900F55012004B500000F76A0C0F6F
:10020000F66E020EF7220900F55012007472616E4C
:100210002074696D6500F76A260FF66E020EF722EC
:100220000900F550120064656C61796B6200F76A31
:100230003E0FF66E020EF7220900F55012004B42F7
:1002400074696D650000F76A560FF66E020EF722AC
:100250000900F55012006366206D626E0000F76AB7
:100260006E0FF66E020EF7220900F5501200534988
:100270004D3930306175746F0000F76A8A0FF66E81
:10028000020EF7220900F55012006800F76A9C0F71
:10029000F66E020EF7220900F550120070617373BA
:1002A000776F72640000F76AB60FF66E020EF722DF
:1002B0000900F5501200646562756700F76ACC0F9B
:1002C000F66E020EF7220900F550120071756C6C83
:1002D0006600F76AE20FF66E020EF7220900F5508B
:1002E0001200666F726D61740000F76AFA0FF66EA5
:1002F000020EF7220900F5501200636F756E74202C
:100300007472616E0000F76A160FF66E030EF72224
:100310000900F550120064657669636520686173B1
:100320002000F76A320FF66E030EF7220900F5502F
:100330001200207472616E73616374696F6E2000C5
:10034000F76A500FF66E030EF7220900F5501200FF
:10035000646F776E6C6F616420616C6C0000F76A8B
:100360006E0FF66E030EF7220900F5501200646F4F
:10037000776E6C6F61642000F76A880FF66E030E6B
:10038000F7220900F550120044657669636520681C
:100390006173206F6E6C79200000F76AAA0FF66E09
:1003A000030EF7220900F550120020547261636BAE
:1003B000313E0000F76AC40FF66E030EF722090003
:1003C000F550120020547261636B323E0000F76AF0
:1003D000DE0FF66E030EF7220900F55012002050D2
:1003E000494E3A00636F6C30203D20256C750D0A34
:1003F0000000636F6C31203D20256C750D0A0000F4
:10040000636F6C32203D20256C750D0A0000636F10
:100410006C33203D20256C750D0A0000636F6C3431
:10042000203D20256C750D0A00006B657920646104
:1004300074615B25645D2025630D0A00446F6E6561
:100440002050494E00004B65790041540D0A0000D0
:1004500041542B434D47463D310D0A0041540D0A8E
:10046000000041540D0A000041540D0A000041549F
:100470000D0A000041540D0A000041542B43504F17
:1004800057440D0A000041542B434D47443D310D64
:100490000A0041542B434D47443D320D0A0041545C
:1004A0002B434D47443D330D0A0041542B434D47E8
:1004B000443D340D0A0041542B434D47443D350D16
:1004C0000A0041542B434D47443D360D0A00415428
:1004D0002B434D47443D370D0A0041542B434D47B4
:1004E000443D380D0A0041542B434D47533D000015
:1004F00041542B434D47463D310D0A0041542B4397
:100500004D47523D310D0A000A0D4E657720534D7F
:10051000530A0D000A0D52494E470A0D00000D0AFC
:100520004249545F547261636B3120446174613A93
:100530000D0A00000D0A4249545F547261636B3228
:1005400020446174613A0D0A00000D0A5361766916
:100550006E67204361726420446174610D0A00007B
:10056000446F6E6500000A0D4B65792072656C65FD
:100570006173650A0D0057616974696E6720666F63
:10058000722050494E206E756D62657200000D0A32
:10059000636F756E746269745F54313A256C750DC2
:1005A0000A000D0A636F756E746269745F54323AA3
:1005B000256C750D0A000D0A72656164696E67200D
:1005C0006572726F722054310D0A00000D0A726557
:1005D0006164696E67206572726F722054320D0A11
:1005E0000000020E0801F25F0CE3080EEA6EF20E44
:1005F000E96EEF5006E003D000D000D00000EF2EEF
:10060000FBD70001A4EF0DF094908B90080E016EC3
:1006100000D00000018E10D0019E0901D3330001EB
:10062000D8B08B80D8A08B90018C06D0019C012E75
:10063000F4D700D000008B80100EE96EE92EFED7B3
:1006400000D0000001BEE8D701BCF0D712000900BD
:10065000F5520CE0F6CFB1F9F7CFB2F9F5CFD3F9F7
:10066000D3DFB1C9F6FFB2C9F7FFF1D71200090114
:10067000E76BE86BDFB1E88FE039006E00360036DB
:10068000C00E00160050E813E139006E0036E00E8F
:1006900000160050E813E239006EF00E001600500C
:1006A000E813E335006E00360036F80E00160050F1
:1006B000E813E435006E0036FC0E00160050E81317
:1006C000D890E535E813E651E811E76FE7C901F086
:1006D000000112000901CF6BCA536AE1CD51CB254D
:1006E000E96ECE51CC21EA6EEFCFD0F9010ECB25C9
:1006F000D16F000ECC21D26FCD51D125E96ECE51F4
:10070000D221EA6EEF50D01B020ECB25D36F000E24
:10071000CC21D46FCD51D325E96ECE51D421EA6ED0
:10072000EF50D01B030ECB25D56F000ECC21D66F1A
:10073000CD51D525E96ECE51D621EA6EEF50D01BB2
:10074000040ECB25D76F000ECC21D86FCD51D72505
:10075000E96ECE51D821EA6EEF50D01B050ECB25A5
:10076000D96F000ECC21DA6FCD51D925E96ECE516B
:10077000DA21EA6EEF50D01902E0000E01D0010E2E
:10078000CF6F060ECB25D06F000ECC21D16FCD518F
:10079000D025E96ECE51D121EA6EEF50CF5D04E154
:1007A000010E016E6DD003D0000E016E69D068D0CD
:1007B000CD51CB25E96ECE51CC21EA6EEFCFD0F9E9
:1007C000010ECB5DD16F000ECC59D26FCD51D1252A
:1007D000E96ECE51D221EA6EEF50D01B020ECB5DF6
:1007E000D36F000ECC59D46FCD51D325E96ECE51C5
:1007F000D421EA6EEF50D01B030ECB5DD56F000EF7
:10080000CC59D66FCD51D525E96ECE51D621EA6EA1
:10081000EF50D01B040ECB5DD76F000ECC59D86FB4
:10082000CD51D725E96ECE51D821EA6EEF50D01BBD
:10083000050ECB5DD96F000ECC59DA6FCD51D9259D
:10084000E96ECE51DA21EA6EEF50D01902E0000EC7
:1008500001D0010ECF6F060ECB5DD06F000ECC59CC
:10086000D16FCD51D025E96ECE51D121EA6EEF5036
:10087000CF5D04E1010E016E03D002D0000E016EC7
:10088000000112000901CF6BCA534EE1CD51CB25B7
:10089000E96ECE51CC21EA6EEFCFD0F9010ECB2517
:1008A000D16F000ECC21D26FCD51D125E96ECE5142
:1008B000D221EA6EEF50D01B020ECB25D36F000E73
:1008C000CC21D46FCD51D325E96ECE51D421EA6E1F
:1008D000EF50D01B030ECB25D56F000ECC21D66F69
:1008E000CD51D525E96ECE51D621EA6EEF50D01903
:1008F00002E0000E01D0010ECF6F040ECB25D06FA9
:10090000000ECC21D16FCD51D025E96ECE51D12131
:10091000EA6EEF50CF5D04E1010E016E51D003D0BD
:10092000000E016E4DD04CD0CD51CB25E96ECE518D
:10093000CC21EA6EEFCFD0F9010ECB5DD16F000E66
:10094000CC59D26FCD51D125E96ECE51D221EA6E6C
:10095000EF50D01B020ECB5DD36F000ECC59D46F7D
:10096000CD51D325E96ECE51D421EA6EEF50D01B84
:10097000030ECB5DD56F000ECC59D66FCD51D5256A
:10098000E96ECE51D621EA6EEF50D01902E0000E8A
:1009900001D0010ECF6F040ECB5DD06F000ECC598D
:1009A000D16FCD51D025E96ECE51D121EA6EEF50F5
:1009B000CF5D04E1010E016E03D002D0000E016E86
:1009C000000112000901C66BC76BC86BC96BC36B12
:1009D000C26BBF31036EBE31026E033202323F0E74
:1009E000031602C001F0C351035CD8A0DFD204E1BA
:1009F0000150C25DD8B0DAD2BD53D8A49AD1060E48
:100A0000C225CA6F000EC321CB6FC051CA25E96E43
:100A1000C151CB21EA6EEFCFCCF9050EC225CD6FC7
:100A2000000EC321CE6FC051CD25E96EC151CE213C
:100A3000EA6EEFCFCFF9040EC225D06F000EC321AE
:100A4000D16FC051D025E96EC151D121EA6EEFCFEF
:100A5000D2F9030EC225D36F000EC321D46FC0514B
:100A6000D325E96EC151D421EA6EEFCFD5F9020E3C
:100A7000C225D66F000EC321D76FC051D625E96EAF
:100A8000C151D721EA6EEFCFD8F9010EC225D96F37
:100A9000000EC321DA6FC051D925E96EC151DA21A8
:100AA000EA6EEFCFDBF9C051C225E96EC151C32117
:100AB000EA6EEFCFDCF9DF6BCCC9E0F9CFC9E1F921
:100AC000D2C9E2F9D5C9E3F9D8C9E4F9DBC9E5F936
:100AD000DCC9E6F90001CBDD01C0C6F90D0E090144
:100AE000C225CA6F000EC321CB6FC051CA25E96E63
:100AF000C151CB21EA6EEFCFCCF90C0EC225CD6FE0
:100B0000000EC321CE6FC051CD25E96EC151CE215B
:100B1000EA6EEFCFCFF90B0EC225D06F000EC321C6
:100B2000D16FC051D025E96EC151D121EA6EEFCF0E
:100B3000D2F90A0EC225D36F000EC321D46FC05163
:100B4000D325E96EC151D421EA6EEFCFD5F9090E54
:100B5000C225D66F000EC321D76FC051D625E96ECE
:100B6000C151D721EA6EEFCFD8F9080EC225D96F4F
:100B7000000EC321DA6FC051D925E96EC151DA21C7
:100B8000EA6EEFCFDBF9070EC225DC6F000EC32142
:100B9000DD6FC051DC25E96EC151DD21EA6EEFCF7A
:100BA000DEF9DF6BCCC9E0F9CFC9E1F9D2C9E2F9CE
:100BB000D5C9E3F9D8C9E4F9DBC9E5F9DEC9E6F935
:100BC000000155DD01C0C7F90901C6514508D8A487
:100BD000AFD0C7517C08D8B4ABD0C7513E08D8B409
:100BE000A7D0C7511F08D8B4A3D0C3C9C5F9C2C97B
:100BF000C4F9010EC96FC6C9C8F9C8511F08D8B4D5
:100C00008CD0C5510308D8A088D004E1C451E708AE
:100C1000D8A083D0CA6BC5C9CCF9C4C9CBF9C1C9A6
:100C2000CEF9C0C9CDF9000155DD01500901C91740
:100C3000060EC425CA6F000EC521CB6FC051CA2550
:100C4000E96EC151CB21EA6EEFCFCCF9050EC42578
:100C5000CD6F000EC521CE6FC051CD25E96EC151BB
:100C6000CE21EA6EEFCFCFF9040EC425D06F000E6F
:100C7000C521D16FC051D025E96EC151D121EA6E95
:100C8000EFCFD2F9030EC425D36F000EC521D46F68
:100C9000C051D325E96EC151D421EA6EEFCFD5F909
:100CA000020EC425D66F000EC521D76FC051D625C0
:100CB000E96EC151D721EA6EEFCFD8F9010EC425F4
:100CC000D96F000EC521DA6FC051D925E96EC15127
:100CD000DA21EA6EEFCFDBF9C051C425E96EC151CC
:100CE000C521EA6EEFCFDCF9DF6BCCC9E0F9CFC9E3
:100CF000E1F9D2C9E2F9D5C9E3F9D8C9E4F9DBC908
:100D0000E5F9DCC9E6F90001B2DC01C0C8F9070E5B
:100D10000901C427000EC52370D7C92D09D00801C9
:100D20005B6B0901C2C901F0C3C902F0E1EF0AF02F
:100D300039D1040EC225CA6F000EC321CB6FC0513A
:100D4000CA25E96EC151CB21EA6EEFCFCCF9030E73
:100D5000C225CD6F000EC321CE6FC051CD25E96EE7
:100D6000C151CE21EA6EEFCFCFF9020EC225D06F6E
:100D7000000EC321D16FC051D025E96EC151D121E0
:100D8000EA6EEFCFD2F9010EC225D36F000EC32158
:100D9000D46FC051D325E96EC151D421EA6EEFCF93
:100DA000D5F9C051C225E96EC151C321EA6EEFCF1A
:100DB000D6F9DF6BE06BE16BCCC9E2F9CFC9E3F99F
:100DC000D2C9E4F9D5C9E5F9D6C9E6F900014FDC85
:100DD00001C0C6F9090E0901C225CA6F000EC32160
:100DE000CB6FC051CA25E96EC151CB21EA6EEFCF5E
:100DF000CCF9080EC225CD6F000EC321CE6FC051B5
:100E0000CD25E96EC151CE21EA6EEFCFCFF9070EA5
:100E1000C225D06F000EC321D16FC051D025E96E1D
:100E2000C151D121EA6EEFCFD2F9060EC225D36FA0
:100E3000000EC321D46FC051D325E96EC151D42116
:100E4000EA6EEFCFD5F9050EC225D66F000EC3218D
:100E5000D76FC051D625E96EC151D721EA6EEFCFC9
:100E6000D8F9DF6BE06BE16BCCC9E2F9CFC9E3F9EC
:100E7000D2C9E4F9D5C9E5F9D8C9E6F9000137ECDA
:100E800003F001C0C7F90901C6510B08D8A48AD0E4
:100E9000C7511F08D8B486D0C7510F08D8B482D024
:100EA000C3C9C5F9C2C9C4F9010EC96FC6C9C8F919
:100EB000C8511F086DE0C55101086AE303E1C45140
:100EC000F30866E3CA6BC5C9CCF9C4C9CBF9C1C97B
:100ED000CEF9C0C9CDF90001D5DC01500901C9170F
:100EE000040EC425CA6F000EC521CB6FC051CA25A0
:100EF000E96EC151CB21EA6EEFCFCCF9030EC425C8
:100F0000CD6F000EC521CE6FC051CD25E96EC15108
:100F1000CE21EA6EEFCFCFF9020EC425D06F000EBE
:100F2000C521D16FC051D025E96EC151D121EA6EE2
:100F3000EFCFD2F9010EC425D36F000EC521D46FB7
:100F4000C051D325E96EC151D421EA6EEFCFD5F956
:100F5000C051C425E96EC151C521EA6EEFCFD6F963
:100F6000DF6BE06BE16BCCC9E2F9CFC9E3F9D2C921
:100F7000E4F9D5C9E5F9D6C9E6F9000137EC03F083
:100F800001C0C8F9050E0901C427000EC52390D77A
:100F9000C92D08D008015B6B0901C2C901F0C3C9A2
:100FA00002F00FD3C22BD8B4C32B13D5BFC9C3F9DA
:100FB000BEC9C2F9BF31036EBE31026E03320232C6
:100FC0003F0E031602C001F00350C35DD8A0F6D255
:100FD00004E1C251015CD8B0F1D2BD53D8A4A9D16B
:100FE000060EC25DCA6F000EC359CB6FC051CA2531
:100FF000E96EC151CB21EA6EEFCFCCF9050EC25D8F
:10100000CD6F000EC359CE6FC051CD25E96EC151D1
:10101000CE21EA6EEFCFCFF9040EC25DD06F000E85
:10102000C359D16FC051D025E96EC151D121EA6EAB
:10103000EFCFD2F9030EC25DD36F000EC359D46F48
:10104000C051D325E96EC151D421EA6EEFCFD5F955
:10105000020EC25DD66F000EC359D76FC051D625A0
:10106000E96EC151D721EA6EEFCFD8F9010EC25D0A
:10107000D96F000EC359DA6FC051D925E96EC1513D
:10108000DA21EA6EEFCFDBF9C051C225E96EC1511A
:10109000C321EA6EEFCFDCF9DF6BCCC9E0F9CFC931
:1010A000E1F9D2C9E2F9D5C9E3F9D8C9E4F9DBC954
:1010B000E5F9DCC9E6F9000137EC03F001C0C6F937
:1010C0000D0E0901C25DCA6F000EC359CB6FC0512E
:1010D000CA25E96EC151CB21EA6EEFCFCCF90C0ED7
:1010E000C25DCD6F000EC359CE6FC051CD25E96EE4
:1010F000C151CE21EA6EEFCFCFF90B0EC25DD06F9A
:10110000000EC359D16FC051D025E96EC151D12114
:10111000EA6EEFCFD2F90A0EC25DD36F000EC3594B
:10112000D46FC051D325E96EC151D421EA6EEFCFFF
:10113000D5F9090EC25DD66F000EC359D76FC051E5
:10114000D625E96EC151D721EA6EEFCFD8F9080E46
:10115000C25DD96F000EC359DA6FC051D925E96E4F
:10116000C151DA21EA6EEFCFDBF9070EC25DDC6F09
:10117000000EC359DD6FC051DC25E96EC151DD2180
:10118000EA6EEFCFDEF9DF6BCCC9E0F9CFC9E1F948
:10119000D2C9E2F9D5C9E3F9D8C9E4F9DBC9E5F95F
:1011A000DEC9E6F9000137EC03F001C0C7F9090117
:1011B000C6514508D8A4BCD0C7517C08D8B4B8D013
:1011C000C7513E08D8B4B4D0C7511F08D8B4B0D066
:1011D000C7510F08D8B4ACD0C7517808D8B4A8D03C
:1011E000C3C9C5F9C2C9C4F9010EC96FC6C9C8F9D6
:1011F000C8511F08D8B48CD0C55304E1C4510108AC
:10120000D8B086D0010ECA6FC5C9CCF9C4C9CBF914
:10121000C1C9CEF9C0C9CDF900016AEC03F0015093
:101220000901C917060EC45DCA6F000EC559CB6F00
:10123000C051CA25E96EC151CB21EA6EEFCFCCF97E
:10124000050EC45DCD6F000EC559CE6FC051CD25C2
:10125000E96EC151CE21EA6EEFCFCFF9040EC45D25
:10126000D06F000EC559D16FC051D025E96EC15164
:10127000D121EA6EEFCFD2F9030EC45DD36F000E19
:10128000C559D46FC051D325E96EC151D421EA6E3E
:10129000EFCFD5F9020EC45DD66F000EC559D76FDA
:1012A000C051D625E96EC151D721EA6EEFCFD8F9EA
:1012B000010EC45DD96F000EC559DA6FC051D92532
:1012C000E96EC151DA21EA6EEFCFDBF9C051C425D6
:1012D000E96EC151C521EA6EEFCFDCF9DF6BCCC9F5
:1012E000E0F9CFC9E1F9D2C9E2F9D5C9E3F9D8C922
:1012F000E4F9DBC9E5F9DCC9E6F9000137EC03F0F4
:1013000001C0C8F9070E0901C45F000EC55B70D7A4
:10131000C92D0AD0010E08015B6F0901C2C901F095
:10132000C3C902F04ED104D0000E016E026E49D145
:1013300040D1040EC25DCA6F000EC359CB6FC051BD
:10134000CA25E96EC151CB21EA6EEFCFCCF9030E6D
:10135000C25DCD6F000EC359CE6FC051CD25E96E71
:10136000C151CE21EA6EEFCFCFF9020EC25DD06F30
:10137000000EC359D16FC051D025E96EC151D121A2
:10138000EA6EEFCFD2F9010EC25DD36F000EC359E2
:10139000D46FC051D325E96EC151D421EA6EEFCF8D
:1013A000D5F9C051C225E96EC151C321EA6EEFCF14
:1013B000D6F9DF6BE06BE16BCCC9E2F9CFC9E3F999
:1013C000D2C9E4F9D5C9E5F9D6C9E6F9000137EC87
:1013D00003F001C0C6F9090E0901C25DCA6F000E13
:1013E000C359CB6FC051CA25E96EC151CB21EA6EFA
:1013F000EFCFCCF9080EC25DCD6F000EC359CE6F92
:10140000C051CD25E96EC151CE21EA6EEFCFCFF9A3
:10141000070EC25DD06F000EC359D16FC051D025E9
:10142000E96EC151D121EA6EEFCFD2F9060EC25D4D
:10143000D36F000EC359D46FC051D325E96EC1518B
:10144000D421EA6EEFCFD5F9050EC25DD66F000E3E
:10145000C359D76FC051D625E96EC151D721EA6E65
:10146000EFCFD8F9DF6BE06BE16BCCC9E2F9CFC904
:10147000E3F9D2C9E4F9D5C9E5F9D8C9E6F900011B
:1014800037EC03F001C0C7F90901C6510B08D8A415
:1014900090D0C7511F08D8B48CD0C7510F08D8B40A
:1014A00088D0C3C9C5F9C2C9C4F9010EC96FC6C97C
:1014B000C8F9C8511F086DE0C55303E1C4510108C4
:1014C00068E2010ECA6FC5C9CCF9C4C9CBF9C1C95C
:1014D000CEF9C0C9CDF9000142EC04F00150090178
:1014E000C917040EC45DCA6F000EC559CB6FC05139
:1014F000CA25E96EC151CB21EA6EEFCFCCF9030EBC
:10150000C45DCD6F000EC559CE6FC051CD25E96EBB
:10151000C151CE21EA6EEFCFCFF9020EC45DD06F7C
:10152000000EC559D16FC051D025E96EC151D121EE
:10153000EA6EEFCFD2F9010EC45DD36F000EC5592C
:10154000D46FC051D325E96EC151D421EA6EEFCFDB
:10155000D5F9C051C425E96EC151C521EA6EEFCF5E
:10156000D6F9DF6BE06BE16BCCC9E2F9CFC9E3F9E7
:10157000D2C9E4F9D5C9E5F9D6C9E6F9000137ECD5
:1015800003F001C0C8F9050E0901C45F000EC55B78
:1015900090D7C92D0AD0010E08015B6F0901C2C99D
:1015A00001F0C3C902F00DD004D0000E016E026E2E
:1015B00008D0C251D8B4C307C207FCD4000E016ED4
:1015C000026E000112000900F6CFC8F9F7CFC9F981
:1015D000F5CFD3F904EC03F0C8C9F6FFC9C9F7FF8A
:1015E0000901C72F01D002D00001EDD70001120080
:1015F000EACFB6F9E9CFB5F90901AF39F009B16F12
:10160000B127E20FB26F320FB46FAF510F0BB22799
:10161000B227B427E90FB36FB327B327AE390F0B47
:10162000B327B427B337B437B41FB437AE510F0B59
:10163000B427B137070EB06F0A0EB307B427FDE326
:10164000B207B327FDE3B107B227FDE3B007B12727
:10165000FDE3090EEA6EB00EE96E070EB515B59DF5
:10166000E926B40EE95CD8B4B58DEF50006E08E100
:10167000B5BD06D0B5B916D0B5B702D0200E03D08F
:10168000B587B599300E0026EACFAFF9E9CFAEF9AC
:1016900000C0D3F9000104EC03F0AFC9EAFFAEC902
:1016A000E9FF0901EE50B5ADDCD7000112000901D8
:1016B000B851016AB75D03E2B7C900F00CD0006A07
:1016C000080EB96FB7370036B851005CD8B0006E5D
:1016D0000136B92FF7D700011200200E0901B2A977
:1016E000300EB36FB1C900F0B1AF08D0001E002AB0
:1016F00000C0B1F92D0EB36FB28FB2810150B1C9E4
:10170000B7F9640EB86F0001D2DF00C0B1F9300E36
:1017100001240901B46FB1C9B7F90A0EB86F00010D
:10172000C6DF300E00240901B66F300E0124B56FFC
:10173000B3C900F0300EB45D04E0B283B2BFB2852D
:1017400012D0B3C9B4F9200EB36F300EB55D04E00A
:10175000B281B2BFB28307D0D8A4B28104E1B4C9C8
:10176000B5F9200EB46FB2B505D0B2B308D0B2B19E
:101770000BD00FD0B3C9D3F9000104EC03F0B4C906
:10178000D3F9000104EC03F0B5C9D3F9000104EC6E
:1017900003F0B6C9D3F9000104EC03F012001E0EE9
:1017A000F66E050EF76E27EC03F00801FB6BFA6B83
:1017B000FB51030818E303E1FA51510814E3D90E71
:1017C000FA25E96E030EFB21EA6EEFCFFCF8FCC8A8
:1017D000B1F9180E0901B26F00017FDF0801FA2B81
:1017E000D8B4FB2BE5D7340EF66E050EF76E00016C
:1017F00027EC03F00801FB6BFA6BFB51010818E3BF
:1018000003E1FA512B0814E32B0EFA25E96E070EBB
:10181000FB21EA6EEFCFFCF8FCC8B1F9180E090104
:10182000B26F00015ADF0801FA2BD8B4FB2BE5D7C1
:10183000000151EF0DF0080EEA6EFA0EE96EEF505E
:101840000DE00A0E016E006A002EFED7012EFBD7B6
:101850005F0E006E002EFED7EF2EF3D71200010EA2
:101860000801F16FF26FF36FF46FF56BF66FF76FBE
:10187000656B646B5A6B596B586B576B6551FD0800
:101880000EE303E16451E7080AE3938281A207D0E3
:10189000948A82AA04D0642BD8B4652BEFD7656BE9
:1018A000646B61C803F06051602BD8B4612BFA6F90
:1018B000D90EFA25E96E030E0320EA6EEF6A61C8BD
:1018C00003F06051602BD8B4612BFA6FD90EFA2562
:1018D000E96E030E0320EA6E010EEF6E63C803F09B
:1018E0006251622BD8B4632BFA6F2B0EFA25E96E86
:1018F000070E0320EA6EEF6A63C803F06251622BA1
:10190000D8B4632BFA6F2B0EFA25E96E070E03206D
:10191000EA6E010EEF6E61510308D8A065D003E1B5
:101920006051510861E3635101085EE303E16251D4
:101930002B085AE36551FF0857E303E16451DB08C4
:1019400053E36E5304E0616B606B636B626B642BFB
:10195000D8B4652B5A6B596B586B576B9384F16BEA
:1019600081B4F12BF1531CE1F22D1AD0F26BD90E98
:101970006025E96E030E6121EA6E9382000E81A25A
:10198000010EEF6E2B0E6225E96E070E6321EA6EE3
:10199000F5C8EFFF602BD8B4612B656B646B04D086
:1019A000F12D02D0010EF26F9386F36B81B6F32B0B
:1019B000F3530DE1F42D0BD0F46B948AF56B82AAEE
:1019C000F52B622BD8B4632B656B646B04D0F32DBD
:1019D00002D0010EF46F938081A005D06E6B656913
:1019E000DC0E646F01D097D7656B646B0901BD6B2A
:1019F00061C8BFF960C8BEF9030EC16FD90EC06FD0
:101A00000001E2EC04F001C0F6F8010E0901BD6F1F
:101A100063C8BFF962C8BEF9070EC16F2B0EC06F55
:101A20000001E2EC04F001C0F7F80801692D4FD085
:101A30008E0EF66E050EF76E0E0E0901C76F0001D1
:101A4000C2DD100EE96E61C8AFF960C8AEF9D0DD35
:101A50000D0E0901D36F000104EC03F00A0E090119
:101A6000D36F000104EC03F0A20EF66E050EF76EC4
:101A70000E0E0901C76F0001A6DD100EE96E63C8E6
:101A8000AFF962C8AEF9B4DD0D0E0901D36F0001E4
:101A900004EC03F00A0E0901D36F000104EC03F01B
:101AA0007ED60801F65308E1B60EF66E050EF76E07
:101AB000000127EC03F00801F75308E1CC0EF66EA5
:101AC000050EF76E000127EC03F0080105D00F0E9C
:101AD000FA6F0001B0DE0801F65302E0F7530EE1A1
:101AE000636B626B616B606B6D6B6E2B5A6B596BCA
:101AF000586B576B000E016E1CD019D0010E686F29
:101B00006D6F63C85FF862C85EF861C85DF860C851
:101B10005CF8616B606B636B626B5A6B596B586BF3
:101B2000576B0001FC6BFB6B016E080102D0000ECD
:101B3000016E0001CDEF0DF0020E0801F16FFA0EFB
:101B4000F26F0001F1EF02F00801F12FF8D76B2DD1
:101B500001D02CD001010C531EE009531CE10D2DC6
:101B60000CD0B40EF66E1B0EF76E000127EC03F0DE
:101B7000929E899E01010D6B0ED0C40EF66E1B0E57
:101B8000F76E000127EC03F0929E898E010E010191
:101B90000D6F0F6B0E6B000162D601C06AF8080171
:101BA0005A6B596B586B576B656B646BF090000107
:101BB00042EF00F00A0D4B65792072656C65617328
:101BC000650A0D000A0D4B65792070726573730A02
:101BD0000D000D0A547261636B3120446174613AE7
:101BE0000D0A00000D0A547261636B322044617467
:101BF000613A0D0A00000D0A547261636B31204492
:101C00006174613A0D0A00000D0A547261636B320F
:101C100020446174613A0D0A00000D0A50494E20BB
:101C20004E756D6265723A0D0A00464F524D415431
:101C300054494E472E2E2E0020657869740A0D00F7
:101C4000464F524D415454494E472E2E2E0020658A
:101C50007869740A0D007265736574696E67207027
:101C6000617373776F72642E2E2E00002065786981
:101C7000740A0D004B657920626F6172642074658F
:101C80007374696E670A0D0072657365742066610E
:101C900063746F72790A0D0020657869740A0D000B
:101CA0004E657720636F6E736F6C65206E616D6536
:101CB0003E00204F4B0A0D005B4D5D005B535D0005
:101CC0005B6175746F2073656E64696E6720286F41
:101CD0006666295D00005B6175746F2073656E64D4
:101CE000696E6720286F6E295D00596561723E003C
:101CF0004D6F6E74683E0000446174653E0044613F
:101D0000793E0000486F75723E004D696E757465CE
:101D1000733E00005365636F6E64733E0000507243
:101D20006573732027312720746F2073656C65639A
:101D30007420536C61766572206D6F64650050721B
:101D40006573732027302720746F2073656C65637B
:101D500074204D6173746572206D6F6465005072FC
:101D60006573732027312720746F207475726E207D
:101D70006F6E206B657072657373000050726573CF
:101D8000732027302720746F207475726E206F6661
:101D900066206B65707265737300496E7075742090
:101DA0004E756D6265720000496E707574204E75D7
:101DB0006D6265720000496E707574204E756D62BB
:101DC000657200000A0D496E70757420796F757226
:101DD000206D6F62696C652070686F6E65206E752E
:101DE0006D6265723A000A0D646F6E650A0D00003F
:101DF00050726573732027312720746F20747572B9
:101E00006E206F6E204175746F206D6F64650000E9
:101E100050726573732027302720746F2074757299
:101E20006E206F6666204175746F206D6F6465006B
:101E3000682D3E2048656C700A0D000073632D3ECE
:101E40002053657420436C6F636B0A0D0000632D93
:101E50003E2073686F7720436C6F636B0A0D000040
:101E600070617373776F72642D3E206368616E6773
:101E7000696E672050415353574F52440A0D00007A
:101E80006E202D3E206368616E676520636F6E7300
:101E90006F6C65204E616D650A0D0000662D3E2059
:101EA000466F726D61740A0D0000652D3E20457805
:101EB00069740A0D00004D532D3E204B6579626F09
:101EC000617264206D6F64652073657474696E67F8
:101ED0002028536C6176652F4D6173746572290AF1
:101EE0000D004B502D3E204B657970726573732049
:101EF0006D6F64652073657474696E6720284F6E1A
:101F0000290A0D004B502D3E204B65797072657388
:101F100073206D6F64652073657474696E67202823
:101F20004F6666290A0D00007472616E2074696D37
:101F3000652D3E2074696D65206F6620656163685C
:101F4000207472616E73616374696F6E0A0D0000B4
:101F500064656275672D3E206F6E2F6F6666206424
:101F600065627567206D6F64650A0D0064656C615C
:101F7000796B62202564202D3E204B6579626F616C
:101F8000726427732054696D696E670A0D0072735D
:101F9000666163742D3E20726573657420666163AB
:101FA000746F72790A0D00004B4274696D652025CB
:101FB00064202D3E204B6579626F61726427732027
:101FC00054696D656F75740A0D006366206D626EED
:101FD0002D3E206368616E67696E67207461726769
:101FE0006574206D6F62696C652070686F6E652026
:101FF0006E756D6265720A0D000053494D393030BF
:102000006175746F2D3E206F6E2F6F66662061754F
:10201000746F2073656E64696E67206D6F64650A06
:102020000D006F6C642070617373776F72643A0097
:102030000A0D6E65773A00000A0D616761696E3AB4
:1020400000000A0D4F4B0A0D00000A0D4552520ABE
:102050000D0020580A0D000050726573732027315F
:102060002720746F20656E61626C652064656275FF
:1020700067206D6F646500005072657373202730B0
:102080002720746F2064697361626C6520646562E7
:102090007567206D6F6465009EAAFED7AFCFF1F81B
:1020A000080194948B748B531EE00101AE51AE2B4A
:1020B000036A4A0FE96E010E0320EA6EF1C8EFFFD2
:1020C000AE516208D8A0AE6B94948B7408018A5309
:1020D0000AE1010E03015F6F2C0E5E6F0D0E5C6F47
:1020E0005B6B5A6B08019E9A000142EF00F09494DA
:1020F0008B74CF68CD0ECE6E9E9042EF00F0010142
:10210000432B43510108D8B0D2D04651FB0F41E2D6
:10211000050F00015CEF11F0929A899A92968986D8
:10212000929489849292898292908980010131D01F
:1021300092968996929A898A9294898492928982B7
:1021400092908980010125D09294899492968986F3
:10215000929A898A9292898292908980010119D0FB
:10216000929289929296898692948984929A898A87
:102170009290898001010DD09290899092968986E3
:102180009294898492928982929A898A010101D0DB
:10219000010144A13FD09388000E81B8010E0901CE
:1021A000B06F938A000E81BA010EB017938C000EA7
:1021B00081BC010EB017938E000E81BE010EB015CA
:1021C00027E045C1AEF90101085319E1066B056B23
:1021D0000001FC6BFB6B01010B5131080AE30B5151
:1021E0000B2B036A100FE96E010E0320EA6EAEC9D5
:1021F000EFFFAEC9D3F9000104EC03F005D0AEC97E
:10220000D3F9000104EC03F001014491456B09018D
:102210004CD001019388000E81B8010E0901B06F06
:10222000938A000E81BA010EB017938C000E81BC08
:10223000010EB017938E000E81BE010EB0152FE176
:10224000938881B802D0AF6B11D0938A81BA03D042
:10225000010EAF6F0BD0938C81BC03D0020EAF6F19
:1022600005D0938E81BE02D0030EAF6FAF51050D26
:10227000F350B16BB06F036A010146510901B025FB
:10228000016EB15103220150000174EC00F0E8CF5F
:1022900045F101014481FF0E926E07D00901010151
:1022A000462B46510508D8B4466B0101436B090122
:1022B000AEC901F000011200E824F76AF736D30F27
:1022C000F66E220EF7220A00F550FA6E0800F5505D
:1022D000F96E18213021482160217821E00E0F018C
:1022E000486FC29CC29E4951E00B1F09496F09010A
:1022F000C751FB0F55E2050F0001D2EF11F0100E90
:10230000016EC250C30B0110C26EC282C2B2FED7B0
:10231000C4CFC8F90901C8C901F042D041D00C0EA0
:10232000016EC250C30B0110C26EC282C2B2FED790
:10233000C4CFC8F90901C8C901F032D031D0080EA4
:10234000016EC250C30B0110C26EC282C2B2FED770
:10235000C4CFC8F90901C8C901F022D021D0040EA8
:10236000016EC250C30B0110C26EC282C2B2FED750
:10237000C4CFC8F90901C8C901F012D011D0000EAC
:10238000016EC250C30B0110C26EC282C2B2FED730
:10239000C4CFC8F90901C8C901F002D001D00901B0
:1023A00000011200E824F76AF736BF0FF66E230E1D
:1023B000F7220A00F550FA6E0800F550F96EFE2279
:1023C0001E233E235E237E23D8B204D0090EEA6E7C
:1023D000DB0EE96E006A016A026A036A0901DB6BBF
:1023E000DC6BDD6BDE6BDA51D911D811D7112CE023
:1023F000200EDF6FD890D337D437D537D637DB37B9
:10240000DC37DD37DE37DA51DE5D08E1D951DD5DDD
:1024100005E1D851DC5D02E1D751DB5D0FE3D75117
:10242000DB5FD851D8A0D83DDC5FD951D8A0D93DC9
:10243000DD5FDA51D8A0DA3DDE5FD88000360136A4
:1024400002360336DF2FD6D7DBC9EFFFDCC9ECFF3E
:10245000DDC9ECFFDEC9ECFF00011200E950090103
:10246000CB6F3B0ED26F9A0ED16FCA0ED06FCF6B6F
:102470000A0ECD6FD882090EEA6EC70EE96ECAC980
:10248000D6F9C9C9D5F9C8C9D4F9C7C9D3F9D2C9C8
:10249000DAF9D1C9D9F9D0C9D8F9CFC9D7F900012A
:1024A00093DF0150005213E10901CD51010AD8A474
:1024B00002D000010CD0CB510CE00F0BCD5D01E040
:1024C00010E2CBBF0ED0CBBD04D0200E03D009014B
:1024D000CB6B300E002600C0D3F9000104EC03F0F2
:1024E0000901D892D2C9D6F9D1C9D5F9D0C9D4F940
:1024F000CFC9D3F9DA6BD96BD86B0A0ED76F00014D
:1025000063DF03C0D2F902C0D1F901C0D0F900C025
:10251000CFF90901CD2FAED7000112000901B66B2A
:10252000B56BB46BB36BBA6BB96BB86BB76BBE6B97
:10253000BD6BBC6BBB6BC26BC16BC06BBF6BC66B47
:10254000C56BC46BC36BB26BB16BB25101083EE398
:1025500003E1B151F3083AE3C76B0001BFDE01505C
:102560000901B327000EB423B523B623010EC76FAC
:102570000001B4DE01500901B727000EB823B923CA
:10258000BA23020EC76F0001A9DE01500901BB2763
:10259000000EBC23BD23BE23030EC76F00019EDEC9
:1025A00001500901BF27000EC023C123C223040E1E
:1025B000C76F000193DE01500901C327000EC42339
:1025C000C523C623B12BD8B4B22BBFD7D892B6C976
:1025D000D6F9B5C9D5F9B4C9D4F9B3C9D3F9DA6B09
:1025E000D96B010ED86FF40ED76F0001EDDE03C07A
:1025F000B6F902C0B5F901C0B4F900C0B3F9D89278
:10260000BAC9D6F9B9C9D5F9B8C9D4F9B7C9D3F98E
:102610000901DA6BD96B010ED86FF40ED76F000188
:10262000D3DE03C0BAF902C0B9F901C0B8F900C0DD
:10263000B7F9D892BEC9D6F9BDC9D5F9BCC9D4F984
:10264000BBC9D3F90901DA6BD96B010ED86FF40E4F
:10265000D76F0001B9DE03C0BEF902C0BDF901C0E9
:10266000BCF900C0BBF9D892C2C9D6F9C1C9D5F925
:10267000C0C9D4F9BFC9D3F90901DA6BD96B010E0E
:10268000D86FF40ED76F00019FDE03C0C2F902C0FD
:10269000C1F901C0C0F900C0BFF9D892C6C9D6F9C6
:1026A000C5C9D5F9C4C9D4F9C3C9D3F90901DA6BCD
:1026B000D96B010ED86FF40ED76F000185DE03C011
:1026C000C6F902C0C5F901C0C4F900C0C3F90101CF
:1026D0000853D8B4BDD00D0E0901D36F000104EC2E
:1026E00003F00A0E0901D36F000104EC03F0E40EBD
:1026F000F66E030EF76E070E0901C76F0001E3ECDB
:102700000AF0410EE96EB6C9CAF9B5C9C9F9B4C92A
:10271000C8F9B3C9C7F9A2DE0D0E0901D36F0001D4
:1027200004EC03F00A0E0901D36F000104EC03F07E
:10273000F20EF66E030EF76E070E0901C76F000169
:10274000E3EC0AF0410EE96EBAC9CAF9B9C9C9F990
:10275000B8C9C8F9B7C9C7F981DE0D0E0901D36F31
:10276000000104EC03F00A0E0901D36F000104EC30
:1027700003F0000EF66E040EF76E070E0901C76F28
:102780000001E3EC0AF0410EE96EBEC9CAF9BDC909
:10279000C9F9BCC9C8F9BBC9C7F960DE0D0E09018A
:1027A000D36F000104EC03F00A0E0901D36F00019E
:1027B00004EC03F00E0EF66E040EF76E070E090120
:1027C000C76F0001E3EC0AF0410EE96EC2C9CAF915
:1027D000C1C9C9F9C0C9C8F9BFC9C7F93FDE0D0EE3
:1027E0000901D36F000104EC03F00A0E0901D36F55
:1027F000000104EC03F01C0EF66E040EF76E070EDB
:102800000901C76F0001E3EC0AF0410EE96EC6C989
:10281000CAF9C5C9C9F9C4C9C8F9C3C9C7F91EDE0F
:102820000D0E0901D36F000104EC03F00A0E09013B
:10283000D36F000104EC03F00D0E0901D36F00010A
:1028400004EC03F00A0E0901D36F000104EC03F05D
:102850000901B65307E1B55305E1B45303E1B351A0
:10286000050830E2B6532EE1B5532CE1B4532AE10A
:10287000B3513B0827E3BA5307E1B95305E1B85315
:1028800003E1B75164081EE2BE5307E1BD5305E101
:10289000BC5303E1BB51640815E2C25307E1C153C5
:1028A00005E1C05303E1BF5164080CE2C65307E1E0
:1028B000C55305E1C45303E1C351640803E2000EAC
:1028C000016E3FD1BA5307E1B95305E1B85303E1B3
:1028D000B751050830E2BA532EE1B9532CE1B85391
:1028E0002AE1B7513B0827E3B65307E1B55305E1A9
:1028F000B45303E1B35164081EE2BE5307E1BD5374
:1029000005E1BC5303E1BB51640815E2C25307E182
:10291000C15305E1C05303E1BF5164080CE2C65343
:1029200007E1C55305E1C45303E1C351640803E261
:10293000010E016E06D1BE5307E1BD5305E1BC5344
:1029400003E1BB51050830E2BE532EE1BD532CE13B
:10295000BC532AE1BB513B0827E3BA5307E1B95303
:1029600005E1B85303E1B75164081EE2B65307E12D
:10297000B55305E1B45303E1B351640815E2C25302
:1029800007E1C15305E1C05303E1BF5164080CE204
:10299000C65307E1C55305E1C45303E1C3516408BD
:1029A00003E2020E016ECDD0C25307E1C15305E12F
:1029B000C05303E1BF51050830E2C2532EE1C153B9
:1029C0002CE1C0532AE1BF513B0827E3BA5307E18A
:1029D000B95305E1B85303E1B75164081EE2BE5391
:1029E00007E1BD5305E1BC5303E1BB51640815E2A7
:1029F000B65307E1B55305E1B45303E1B35164089D
:102A00000CE2C65307E1C55305E1C45303E1C351CA
:102A1000640803E2030E016E94D0C65307E1C55368
:102A200005E1C45303E1C351050830E2C6532EE16A
:102A3000C5532CE1C4532AE1C3513B0827E3BA53E1
:102A400007E1B95305E1B85303E1B75164081EE249
:102A5000BE5307E1BD5305E1BC5303E1BB5164081C
:102A600015E2C25307E1C15305E1C05303E1BF5171
:102A700064080CE2B65307E1B55305E1B45303E132
:102A8000B351640803E2040E016E5BD0C65308E143
:102A9000C55306E1C45304E1C351C808D8B04FD0B0
:102AA000B653D8A44CD0B553D8A449D0B453D8A465
:102AB00046D0B351B30843E3B65307E1B55305E13C
:102AC000B45303E1B35164083AE2BA5338E1B9535D
:102AD00036E1B85334E1B751B30831E3BA5307E1F3
:102AE000B95305E1B85303E1B751640828E2BE5376
:102AF00026E1BD5324E1BC5322E1BB51B3081FE3DF
:102B0000BE5307E1BD5305E1BC5303E1BB5164086B
:102B100016E2C25314E1C15312E1C05310E1BF5198
:102B2000B3080DE3C25307E1C15305E1C05303E10C
:102B3000BF51640804E2040E016E03D002D0FF0E00
:102B4000016E0001CFEF15F0938881A809D0938A18
:102B500081AA06D0938C81AC03D0938E81BE98D08D
:102B6000938881B804D00901B06B17D00001938A13
:102B700081BA05D0010E0901B06F0FD00001938C0E
:102B800081BC05D0020E0901B06F07D00001938E01
:102B900081BE04D0030E0901B06F0001BFD401C093
:102BA000AEF90901AE3D01D05AD0B051050DF35038
:102BB000B26BB16F036AAE51B125016EB2510322FF
:102BC0000150000174EC00F0E8CFAFF901010853A7
:102BD00040E10001FC6BFB6B01010B5113080AE3A0
:102BE0000B510B2B036A100FE96E010E0320EA6EE6
:102BF000AFC9EFFF2A0EF66E040EF76E090E09013B
:102C0000C76F0001E3EC0AF00BC1B1F9180E09011E
:102C1000B26F00016DEC0BF05D0E0901D36F000186
:102C200004EC03F0200E0901D36F000104EC03F063
:102C3000AFC9D3F904EC03F00D0E0901D36F000105
:102C400004EC03F00A0E0901D36F000104EC03F059
:102C500005D0AFC9D3F9000104EC03F00901938852
:102C600081A8FDD7938A81AAFAD7938C81ACF7D734
:102C7000938E81AEF4D7938881A8FDD7938A81AAD9
:102C8000FAD7938C81ACF7D7938E81AEF4D700013D
:102C9000FF0E926E0901AFC901F000011200080E8B
:102CA000016E0A0E006E002EFED78B9694960B0EC8
:102CB000006E002EFED70901C6378B98D8B09488D5
:102CC000D8A09498948682A6FED7012E01D002D077
:102CD0000001E7D70A0E006E002EFED78B96949661
:102CE000000094880B0E006E002EFED70B0E006EB7
:102CF000002EFED7948682A6FED7016A0B0E006EC8
:102D0000002EFED782B801808B9694968B9894986B
:102D100000011200080E0901C06F00C0C1F99488BB
:102D20000B0E006E002EFED7948682A6FED782B8C8
:102D3000D88082A8D89001360A0E006E002EFED7E9
:102D400094968B96C02FEBD794880B0E006E002EB6
:102D5000FED78B98C151D8A494980000948682A67F
:102D6000FED70A0E006E002EFED78B9694960B0EA1
:102D7000006E002EFED78B98949800011200948864
:102D80000A0E006E002EFED794860B0E006E002EEB
:102D9000FED78B9894980A0E006E002EFED78B9665
:102DA0009496D00E0901C66F000179DFB5C9C6F946
:102DB00076DF94880A0E006E002EFED794860B0EE6
:102DC000006E002EFED782A6FED78B9894980A0E2E
:102DD000006E002EFED78B969496D10E0901C66F19
:102DE00000015DDF006A96DF01C0B6F9949800002B
:102DF000948682A6FED70A0E006E002EFED700D063
:102E0000000094880A0E006E002EFED70901B6C994
:102E100001F000011200B6C9B7F90901B739006E17
:102E20000F0E001600500A0DF3CFB6F9B739006E39
:102E3000F00E00160050003A0F0E00160050B62794
:102E4000B6C901F00001120094880A0E006E002E2F
:102E5000FED794860B0E006E002EFED78B989498AA
:102E60000A0E006E002EFED78B969496A00E0901D6
:102E7000C66F000114DFBDC9BFF90901C06BBDC930
:102E8000C6F900010CDFBCC9C6F909DF94880A0E37
:102E9000006E002EFED794860B0E006E002EFED71D
:102EA00082A6FED78B9894980A0E006E002EFED74D
:102EB0008B969496A10E0901C66F0001F0DE006AA0
:102EC00029DF01C0BEF994980000948682A6FED73F
:102ED0000A0E006E002EFED700D0000094880A0E65
:102EE000006E002EFED70901BEC901F000011200DC
:102EF0000901B26BB16BB46BB36BB66BB56BBD6BE9
:102F0000280EBC6F0001A0DF090101C0B3F9B46B4A
:102F1000BD6B290EBC6F000197DF0901B66B01C0C4
:102F2000B5F9B5C9B6F9B56BB551B311B16FB651B5
:102F3000B411B26FB1C901F0B2C902F000011200C0
:102F40000901B351B503F3CF01F0F4CF00F0B6039C
:102F5000F3500026B451B503F3500020026E000177
:102F600012000901C06BBD51C05D0AE2036AC05185
:102F7000BE25E96EBF510320EA6EEF6AC02BF3D77E
:102F8000000112000901BC6B010EBB6FB1C9BDF994
:102F9000B3C9BFF9B2C9BEF9B5C9C1F9B4C9C0F95D
:102FA0000001E2EC04F002C0BCF901C0BBF9090168
:102FB000BB5305E1BC5303E1000E016ED5D1BCC982
:102FC000BAF9BBC9B9F908015B53D8A4DDD009012E
:102FD000B153D8A47BD0B86BB8514E0876E3036ADE
:102FE000B851B625016EB751032201C0BDF903C027
:102FF000BEF9050EB925BF6F000EBA21C06FB451DE
:10300000BF25E96EB551C021EA6EEFCFC1F9040EBC
:10301000B925C26F000EBA21C36FB451C225E96E43
:10302000B551C321EA6EEFCFC4F9030EB925C56FC0
:10303000000EBA21C66FB451C525E96EB551C6213F
:10304000EA6EEFCFC7F9020EB925C86F000EBA219C
:10305000C96FB451C825E96EB551C921EA6EEFCFE9
:10306000CAF9010EB925CB6F000EBA21CC6FB4514D
:10307000CB25E96EB551CC21EA6EEFCFCDF9B45135
:10308000B925E96EB551BA21EA6EEFCFCEF9DF6B03
:10309000E06BC1C9E1F9C4C9E2F9C7C9E3F9CAC91A
:1030A000E4F9CDC9E5F9CEC9E6F9000137EC03F042
:1030B000BEC9EAFFBDC9E9FF01C0EFFF070E090164
:1030C000B927000EBA23B82B87D75CD0B86BB8519C
:1030D000270858E3036AB851B625016EB751032299
:1030E00001C0BDF903C0BEF9030EB925BF6F000EC4
:1030F000BA21C06FB451BF25E96EB551C021EA6E47
:10310000EFCFC1F9020EB925C26F000EBA21C36F0D
:10311000B451C225E96EB551C321EA6EEFCFC4F9AF
:10312000010EB925C56F000EBA21C66FB451C52571
:10313000E96EB551C621EA6EEFCFC7F9B451B92592
:10314000E96EB551BA21EA6EEFCFC8F9DF6BE06BDB
:10315000E16BE26BC1C9E3F9C4C9E4F9C7C9E5F998
:10316000C8C9E6F9000137EC03F0BEC9EAFFBDC9E2
:10317000E9FF01C0EFFF050E0901B927000EBA23D0
:10318000B82BA5D7DCD008010901B153D8A47BD056
:10319000B86BB8514E0876E3036AB851B625016E94
:1031A000B751032201C0BDF903C0BEF9050EB95DD8
:1031B000BF6F000EBA59C06FB451BF25E96EB5514B
:1031C000C021EA6EEFCFC1F9040EB95DC26F000EE7
:1031D000BA59C36FB451C225E96EB551C321EA6E25
:1031E000EFCFC4F9030EB95DC56F000EBA59C66FB3
:1031F000B451C525E96EB551C621EA6EEFCFC7F9C6
:10320000020EB95DC86F000EBA59C96FB451C82516
:10321000E96EB551C921EA6EEFCFCAF9010EB95D69
:10322000CB6F000EBA59CC6FB451CB25E96EB551B6
:10323000CC21EA6EEFCFCDF9B451B925E96EB55185
:10324000BA21EA6EEFCFCEF9DF6BE06BC1C9E1F9CD
:10325000C4C9E2F9C7C9E3F9CAC9E4F9CDC9E5F9B6
:10326000CEC9E6F9000137EC03F0BEC9EAFFBDC9DB
:10327000E9FF01C0EFFF070E0901B95F000EBA5B5D
:10328000B82B87D75CD0B86BB851270858E3036ACE
:10329000B851B625016EB751032201C0BDF903C074
:1032A000BEF9030EB95DBF6F000EBA59C06FB451BD
:1032B000BF25E96EB551C021EA6EEFCFC1F9020E0C
:1032C000B95DC26F000EBA59C36FB451C225E96E21
:1032D000B551C321EA6EEFCFC4F9010EB95DC56FD8
:1032E000000EBA59C66FB451C525E96EB551C62155
:1032F000EA6EEFCFC7F9B451B925E96EB551BA21DD
:10330000EA6EEFCFC8F9DF6BE06BE16BE26BC1C92E
:10331000E3F9C4C9E4F9C7C9E5F9C8C9E6F9000188
:1033200037EC03F0BEC9EAFFBDC9E9FF01C0EFFFFA
:10333000050E0901B95F000EBA5BB82BA5D7B153D2
:103340000AE1520EBD6FB5C9BFF9B4C9BEF900019B
:1033500008DE09D009012C0EBD6FB5C9BFF9B4C98B
:10336000BEF90001FEDD09010001120094880A0E79
:10337000006E002EFED794860B0E006E002EFED738
:103380008B9894980A0E006E002EFED78B9694961A
:10339000A00E0901C66F000182DCC0C9C4F9090191
:1033A000C56BC0C9C6F900017ADCBFC9C6F977DCB4
:1033B000C1C9C6F974DC94980000948682A6FED731
:1033C0000A0E006E002EFED700D0000094880A0E70
:1033D000006E002EFED794880A0E006E002EFED7D7
:1033E00094860B0E006E002EFED78B9894980A0ED2
:1033F000006E002EFED78B969496A00E0901C66F24
:1034000000014DDC01500901C29101B0C281C2A18D
:103410001ED094880A0E006E002EFED794860B0EE6
:10342000006E002EFED782A6FED78B9894980A0EC7
:10343000006E002EFED78B969496A00EC66F0001EC
:103440002EDC01500901C29101B0C281E0D79498ED
:103450000000948682A6FED70A0E006E002EFED7CC
:1034600000D0000094880A0E006E002EFED70001E6
:1034700012000901B96BB86BB76BB66BBA6BBB6B5B
:10348000BC6BBD6BB4C9B9F9B3C9B8F9B2C9B7F966
:10349000B1C9B6F9B6C9BAF9B7C9BBF9B8C9BCF967
:1034A000B9C9BDF9C06BB5C9BFF9BAC9C1F9000145
:1034B0005DDF010E0901B525BE6FC06BBF6FBBC9D3
:1034C000C1F9000153DF020E0901B525BE6FC06BC3
:1034D000BF6FBCC9C1F9000149DF030E0901B52561
:1034E000BE6FC06BBF6FBDC9C1F900013FDF1200E5
:1034F000010E08016B6F040E0901B56F00013FDC7E
:1035000001C0B1F901C0B6F986DC01C000F1050EB9
:103510000901B56F000133DC01C0B1F901C0B6F992
:103520007ADC01C0FFF0060E0901B56F000127DC4F
:1035300001C0B1F901C0B6F96EDC01C0FEF0030EA6
:103540000901B56F00011BDC01C0B1F901C0B6F97A
:1035500062DC01C0FDF0020E0901B56F00010FDC55
:1035600001C0B1F901C0B6F956DC01C001F1010E8C
:103570000901B56F000103DC01C0B1F901C0B6F962
:103580004ADC01C002F10901B56B0001BFEC16F085
:1035900001C0B1F901C0B6F93EDC01C003F1A8DCFD
:1035A00002C0B2F901C0B1F902C0B4F901C0B3F967
:1035B0000901B66B7C0EB56F0001C2DC01C0B1F928
:1035C000960E09010124016E000E022001C020F0B8
:1035D000216E226A236A0801685310E15D6B5C6BFF
:1035E0005F6B5E6B616B606B636B626B6C5304E172
:1035F0000001FC69FB6908016B6BB3D14A0EF66EE2
:10360000050EF76E000127EC03F00101066B056B58
:10361000010E096F5DC8B0F95CC8AFF90901B16B63
:10362000B0C9B3F9AFC9B2F9030EB56FD90EB46F13
:10363000030EB76F620EB66F0001A4DC08015D6B6C
:103640005C6B5FC8B0F95EC8AFF9010E0901B16FDC
:10365000B0C9B3F9AFC9B2F9070EB56F2B0EB46F8D
:10366000030EB76FB10EB66F00018CDC08015F6B03
:103670005E6B6B6B200E030162250901AE6F235256
:10368000D8A46ED12252D8A46BD12150AA08D8A0B8
:1036900067D104E120504508D8A062D1AE51250879
:1036A000D8A45ED123C003F022C002F021C001F0F3
:1036B00020C000F0010E2026D8B0212AD8B4222A3A
:1036C000D8B4232A01C0B2F900C0B1F901C0C0F9D1
:1036D00000C0BFF900C1C1F9000148DE23C003F0FA
:1036E00022C002F021C001F020C000F0010E20260F
:1036F000D8B0212AD8B4222AD8B4232A01C0B2F9DA
:1037000000C0B1F901C0C0F900C0BFF9FFC0C1F9E4
:103710002DDE23C003F022C002F021C001F020C042
:1037200000F0010E2026D8B0212AD8B4222AD8B41D
:10373000232A01C0B2F900C0B1F901C0C0F900C02C
:10374000BFF901C1C1F912DE23C003F022C002F0AB
:1037500021C001F020C000F0010E2026D8B0212A9F
:10376000D8B4222AD8B4232A01C0B2F900C0B1F9D2
:1037700001C0C0F900C0BFF902C1C1F9F7DD23C023
:1037800003F022C002F021C001F020C000F0010EC1
:103790002026D8B0212AD8B4222AD8B4232A01C09E
:1037A000B2F900C0B1F901C0C0F900C0BFF903C14E
:1037B000C1F9DCDD0801676B666B67532EE166516A
:1037C0004E082BE323C003F022C002F021C001F019
:1037D00020C000F0010E2026D8B0212AD8B4222A19
:1037E000D8B4232A01C0B2F900C0B1F9620E66252F
:1037F000E96E030E6721EA6EEF503F0B200F0901BF
:10380000B36F01C0C0F900C0BFF9C16F0001AEDDE8
:103810000801662BD8B4672BD0D74F0E0901BD6FB6
:10382000030EBF6F620EBE6F0001B1EC17F008010E
:10383000676B666B67532EE1665127082BE323C045
:1038400003F022C002F021C001F020C000F0010E00
:103850002026D8B0212AD8B4222AD8B4232A01C0DD
:10386000B2F900C0B1F9B10E6625E96E030E672109
:10387000EA6EEF500F0B300F0901B36F01C0C0F9B2
:1038800000C0BFF9C16F000171DD0801662BD8B41B
:10389000672BD0D7280E0901BD6F030EBF6FB10E85
:1038A000BE6F0001B1EC17F00D0E0901D36F0001DE
:1038B00004EC03F00A0E0901D36F000104EC03F0DD
:1038C000600EF66E050EF76E27EC03F001010C5347
:1038D0000BE0660EF66E050EF76E000127EC03F0A6
:1038E000929E899E01010D6B0F690E690D0E0901F3
:1038F000D36F000104EC03F00A0E0901D36F00013D
:1039000004EC03F0760EF66E050EF76E27EC03F06E
:103910000D0E0901D36F000104EC03F00A0E09013A
:10392000D36F000104EC03F0FC6BFB6B23C0B4F914
:1039300022C0B3F921C0B2F920C0B1F9190E0901B2
:10394000B56F000196DD0801686B6B6B010E6C6F43
:103950000101096F0001FC6BFB6B01010B6B09019D
:103960000801000146EF24F0016603D0026602D090
:1039700007D0022A00C0EEFF012EFCD7022EFAD794
:1039800012002752D8A49ED02652D8A49BD02550EE
:10399000FF08D8A097D004E12450FE08D8A092D008
:1039A0000101105366E0000178EC17F002C0B0F995
:1039B00001C0AFF9B0C9B4F9AFC9B3F90901B66B29
:1039C000320EB56F0001A0EC17F002C0B2F901C0D1
:1039D000B1F9460E0901B127AA0EB223010EB12595
:1039E000016E000EB22101C024F0256E266A276AFE
:1039F000AE6BAE512C0828E327C003F026C002F0BE
:103A000025C001F024C000F0010E2426D8B0252ADC
:103A1000D8B4262AD8B4272A01C0B2F900C0B1F917
:103A2000036AAE51100FE96E010E0320EA6EEFCF6C
:103A3000B3F901C0C0F900C0BFF9B3C9C1F90001B1
:103A400095DC0901AE2BD5D725C0C0F924C0BFF93C
:103A5000C16B00018BDC27C0B4F926C0B3F925C0C7
:103A6000B2F924C0B1F91E0E0901B56F000101DDE4
:103A700001010B6B320E0901BD6F010EBF6F100EFD
:103A8000BE6F0001B1EC17F00D0E0901D36F0001FC
:103A900004EC03F00A0E0901D36F000104EC03F0FB
:103AA0003C0EF66E040EF76E27EC03F00D0E0901C6
:103AB000D36F000104EC03F00A0E0901D36F00017B
:103AC00004EC03F0BBEF24F00901B36BB26BB46BF1
:103AD000B56BB1C9B3F9B0C9B2F9B2C9B4F9B35150
:103AE000B56FC06B280EBF6FB4C9C1F900013EDCD1
:103AF0000901C06B290EBF6FB5C9C1F9000136DCE1
:103B000012000900F5520DE0F6CFAEF9F7CFAFF98C
:103B1000F5509EA8FED7AE6EAEC9F6FFAFC9F7FF4F
:103B2000F0D712000901AE6BAE5113081AE3036A15
:103B3000AE514A0FE96E010E0320EA6EEF504F08B6
:103B40000EE1010EAE25036A4A0FE96E010E032055
:103B5000EA6EEF504B0803E1010E016E04D0AE2B6C
:103B6000E3D7000E016E000140EF25F00901B26BB2
:103B7000B36BB46BB56BB66B320EBD6FAFC9BFF92B
:103B8000AEC9BEF90001B1EC17F0140E0901BD6F0A
:103B9000B1C9BFF9B0C9BEF90001B1EC17F0090114
:103BA000B26BB251C708D8A0E1D0036AB2514A0F34
:103BB000E96E010E0320EA6EEF502B08D8A489D0DD
:103BC000010EB225036A4A0FE96E010E0320EA6E68
:103BD000EF504308D8A47DD0020EB225036A4A0FE5
:103BE000E96E010E0320EA6EEF504D08D8A471D0A3
:103BF000030EB225036A4A0FE96E010E0320EA6E36
:103C0000EF50470866E1040EB225036A4A0FE96ED9
:103C1000010E0320EA6EEF5052085BE1050EB2255B
:103C2000036A4A0FE96E010E0320EA6EEF503A086C
:103C300050E1060EB225036A4A0FE96E010E032019
:103C4000EA6EEF50200845E1070EB225036A4A0FDD
:103C5000E96E010E0320EA6EEF5030083AE1080EDB
:103C6000B225036A4A0FE96E010E0320EA6EEF5097
:103C70002C082FE1090EB225036A4A0FE96E010EE6
:103C80000320EA6EEF502C0824E10A0EB225036AE5
:103C90004A0FE96E010E0320EA6EEF50300819E179
:103CA000B66BC80EB26F640EBD6FAFC9BFF9AEC9B7
:103CB000BEF90001B1EC17F0100E0901BD6FB1C9DA
:103CC000BFF9B0C9BEF90001B1EC17F00101046BF6
:103CD0000901036AB2514A0FE96E010E0320EA6E30
:103CE000EFCFB7F9B351030813E1B7512F0803E23F
:103CF000B751390803E2B7512B080AE1B451B25D5C
:103D0000036AB025E96EB1510320EA6EB7C9EFFF2F
:103D1000B55102080CE1B451B25D036AAE25E96EFB
:103D2000AF510320EA6EB7C9EFFF010EB66FB7516E
:103D300022080AE1B3510508D8B0B32BB3510308E8
:103D400003E1010EB225B46FB35106080DE1B7517E
:103D50000D0803E0B7510A0807E1B52BB551020879
:103D600003E1010EB225B46FB22B1BD7B6C901F027
:103D700000017BEF25F00901B26BAF51B25D20E28B
:103D8000036AB251B025016EB151032201C0B3F9EB
:103D900003C0B4F9B251AE25B56FBD6BBC6F000165
:103DA00024EC17F0B4C9EAFFB3C9E9FF01C0EFFF83
:103DB0001A0E006E002EFED700000901B22BDDD7CF
:103DC00000011200AFC9B3F9AEC9B2F9B1C9B5F972
:103DD000B0C9B4F9B3C903F00901B2C9E9FFB3C965
:103DE000EAFFEF5223E0B5C903F0B4C9E9FFB5C952
:103DF000EAFFEF521BE0B2C9E9FFB3C9EAFFEFCF18
:103E0000B6F9B5C903F0B4C9E9FFB5C9EAFFEF5087
:103E1000B65D03E0010E016E1FD0B22BD8B4B32BF8
:103E2000B42BD8B4B52B0001D5D70901B3C903F021
:103E3000B2C9E9FFB3C9EAFFEFCFB6F9B5C903F0DC
:103E4000B4C9E9FFB5C9EAFFEF50B65D03E0010E62
:103E5000016E02D0000E016E000112000901B25382
:103E600002E1B35342E0AEC9E9FFAFC9EAFFEFCFC9
:103E7000B4F9B1C903F0B0C9E9FFB1C9EAFFEF5025
:103E8000B45D17E0AFC903F0AEC9E9FFAFC9EAFFFF
:103E9000EFCFB4F9B1C903F0B0C9E9FFB1C9EAFF86
:103EA000EF50B45D02E2FF0E01D0010E016E1FD093
:103EB0000BD0AFC903F0AEC9E9FFAFC9EAFFEF52BB
:103EC00003E1000E016E13D0AFC903F0AE51AE2B6B
:103ED000D8B4AF2BB1C903F0B051B02BD8B4B12BCB
:103EE000B251D8B4B307B207BAD7000E016E0001C1
:103EF00012000901AF6B960EAE6FAE3D03D0AF3D21
:103F000001D00DD0AFC9C0F9AEC9BFF9C16B000176
:103F1000B6EC19F00901AE2BD8B4AF2BEED7236A5B
:103F2000226A216A960E206E276A266AAA0E256EDC
:103F3000470E246E23C0B4F922C0B3F921C0B2F9F0
:103F400020C0B1F9190EB56F000139EC1AF027C085
:103F5000B4F926C0B3F925C0B2F924C0B1F91E0ED8
:103F60000901B56F000139EC1AF00901B16BB06BB2
:103F70000001AADD1200AA0E0901AF6F470EAE6F55
:103F8000275209E1265207E1AF51255C11E303E115
:103F90002450AE5D0DE2AFC9C0F9AEC9BFF9C16B27
:103FA0000001B6EC19F00901AE2BD8B4AF2BE8D75D
:103FB000AF6B960EAE6F235209E1225207E1AF516B
:103FC000215C11E303E12050AE5D0DE2AFC9C0F901
:103FD000AEC9BFF9C16B0001B6EC19F00901AE2BF7
:103FE000D8B4AF2BE8D7236A226A216A960E206ED6
:103FF000276A266AAA0E256E470E246E23C0B4F9DE
:1040000022C0B3F921C0B2F920C0B1F9190EB56FC1
:10401000000139EC1AF027C0B4F926C0B3F925C065
:10402000B2F924C0B1F91E0E0901B56F000139ECD7
:104030001AF00901B16BB06B000146DD78EC17F0A6
:1040400002C0FAF001C0F9F01200B7C9B9F9B6C957
:10405000B8F9B9C903F00901B8C9E9FFB9C9EAFF5C
:10406000EF5206E0B82BD8B4B92B0001F2D7090102
:10407000B651B85D006EB751B959036E00C001F07A
:10408000000112000901B56BAFC9B7F9AEC9B6F9A5
:104090000001DBDF01C0B5F90901B46BB551B45DB6
:1040A00021E2B3C903F0B251B22BD8B4B32BB66F2F
:1040B00003C0B7F9B051B625016EB1510320036EAC
:1040C000B96F036AB451AE25E96EAF510320EA6EB1
:1040D000EFCFBAF9B9C9EAFF01C0E9FFBAC9EFFFEA
:1040E000B42BDCD7B2C901F0000112000901C56B85
:1040F000C66B010EC76FDA6AD96A090ECA6FBD0EA8
:10410000C96F090EEA6EC10EE96ECAC9E2FFC9C9DC
:10411000E1FFC7C9C8F9D890E550EE02F350C523B6
:10412000F450C623C82FF7D7C5C9DEFFC6C9C5F9E5
:10413000C66BD8B0C62BC92BD8B4CA2BC72BC75156
:104140000508DFE1000134EF21F0D8B204D0090EF8
:10415000EA6ECD0EE96E0901C851CC19800BD26F01
:10416000C8AF0BD0C51FC61FC71FC81FC52BD8B4EB
:10417000C62BD8B4C72BD8B4C82BCCAF0BD0C91F13
:10418000CA1FCB1FCC1FC92BD8B4CA2BD8B4CB2B7A
:10419000D8B4CC2B006A016A026A036ACD6BCE6B7D
:1041A000CF6BD06BCC51CB11CA11C9112CE0200EB2
:1041B000D16FD890C537C637C737C837CD37CE3758
:1041C000CF37D037CC51D05D08E1CB51CF5D05E181
:1041D000CA51CE5D02E1C951CD5D0FE3C951CD5F3A
:1041E000CA51D8A0CA3DCE5FCB51D8A0CB3DCF5F3E
:1041F000CC51D8A0CC3DD05FD880003601360236F5
:104200000336D12FD6D7D2AF0BD0001E011E021E0F
:10421000031E002AD8B4012AD8B4022AD8B4032A2B
:10422000CDC9EFFFCEC9ECFFCFC9ECFFD0C9ECFF81
:10423000000112000901B86BB76BB66B010EB56FC8
:10424000BA6BBB6BB1AF19D0010EBA6FB1C9C0F96F
:10425000B0C9BFF9AFC9BEF9AEC9BDF9C469C36978
:10426000C269C169000142D703C0B1F902C0B0F907
:1042700001C0AFF900C0AEF90901B55306E1B6536C
:1042800004E1B75302E1B8536DE0D892B1C9C8F95F
:10429000B0C9C7F9AFC9C6F9AEC9C5F9CC6BCB6B0C
:1042A000CA6BB2C9C9F9000150DF03C0B8F902C036
:1042B000B7F901C0B6F900C0B5F9036A0901BB51ED
:1042C000B325016EB451032201C0BDF903C0BEF98C
:1042D000EACFC0F9E9CFBFF9D882090EEA6EC10E64
:1042E000E96EB1C9C8F9B0C9C7F9AFC9C6F9AEC955
:1042F000C5F9CC6BCB6BCA6BB2C9C9F9000125DF1C
:10430000C0C9EAFFBFC9E9FF300E0901C125006E2F
:10431000000EC221000EC321000EC421BEC9EAFF57
:10432000BDC9E9FF00C0EFFF036ABB51B325E96EC9
:10433000B4510320EA6EEF5039080AE2036ABB5118
:10434000B325E96EB4510320EA6E070EEF24EF6E39
:10435000BB2BB8C9B1F9B7C9B0F9B6C9AFF9B5C97E
:10436000AEF98BD7BA2D0AD0036ABB51B325E96EDB
:10437000B4510320EA6E2D0EEF6EBB2BB96BD890B3
:10438000BB31B95D2FE2036AB951B325E96EB4516F
:104390000320EA6EEFCFBCF9036AB951B325016E71
:1043A000B451032203C0BEF9B951BB5DFF0F036ACC
:1043B000B325E96EB4510320EA6EEFCFBFF9BEC951
:1043C000EAFF01C0E9FFBFC9EFFFB951BB5DFF0FB5
:1043D000036AB325E96EB4510320EA6EBCC9EFFF4E
:1043E000B92BCDD7036ABB51B325E96EB451032075
:1043F000EA6EEF6AB3C901F0B4C902F0000112001D
:10440000006A016A0901B551D890B6B100260032A0
:104410000132B6B3002600320132B6B500260032B2
:104420000132B6B7002600320132B6B9002600329A
:104430000132B6BB002600320132B6BD0026003282
:104440000132B6BF002600320132000196EF22F0A1
:104450000901B36BB16B0A0EB26FB06BAE51AF1105
:1044600003E1000E016EC3D0B351B32B036AAE2536
:10447000E96EAF510320EA6EEFCFB4F9B4512D08C5
:104480000DE1010EB16FB351B32B036AAE25E96E96
:10449000AF510320EA6EEFCFB4F90DD0B4512B0821
:1044A0000AE1B351B32B036AAE25E96EAF51032085
:1044B000EA6EEFCFB4F9B4512F08D8B090D0B45110
:1044C0003908D8A08CD0B451300821E1036AB35127
:1044D000AE25E96EAF510320EA6EEF5078080AE08E
:1044E000036AB351AE25E96EAF510320EA6EEF5077
:1044F00058080DE1100EB26FB32BB351B32B036A02
:10450000AE25E96EAF510320EA6EEFCFB4F9B25198
:104510000A081DE1B4512F0819E2B451390816E315
:104520000A0EB56FB0C9B6F900016AD7300E09019D
:10453000B45D0124B06FB351B32B036AAE25E96EAD
:10454000AF510320EA6EEFCFB4F9E4D748D0B251AF
:10455000100845E1B451600806E2B4517A0803E35B
:10456000B451DF0B01D0B451B46FB4512F0803E242
:10457000B451390806E2B451400831E2B45146085A
:104580002EE3B4512F080CE2B451390809E3B039D5
:10459000B56FF00EB517300EB45DB525B06F09D00C
:1045A000B039B56FF00EB517410EB45D0A0FB525E1
:1045B000B06FB351B32B036AAE25E96EAF51032040
:1045C000EA6EEFCFB4F9B451600806E2B4517A084C
:1045D00003E3B451DF0B01D0B451B46FC6D7B12D92
:1045E00004D0B2510A0801E1B06DB0C901F0000178
:1045F00083EF27F00901B251B025B86FB351B12153
:10460000B96FA90808E2FF0A03E1B851450803E2BF
:10461000000E016E29D0B76BB66BB751B35D24E3C2
:1046200003E1B251B65D20E2B451B625016EB55139
:10463000B721036E01C0B8F9B96FB651B025BA6F92
:10464000B751B121BB6FBD6FBAC9BCF9000124ECF1
:1046500017F0B9C9EAFFB8C9E9FF01C0EFFF0901C6
:10466000B62BD8B4B72BD9D7000112009EA8FED71D
:10467000AE6E12000901AF6BAE6BAE51130854E37E
:10468000036AAE514A0FE96E010E0320EA6EEF5045
:104690002B0847E1010EAE25036A4A0FE96E010EB1
:1046A0000320EA6EEF5043083CE1020EAE25036A98
:1046B0004A0FE96E010E0320EA6EEF504D0831E11A
:1046C000030EAE25036A4A0FE96E010E0320EA6E5F
:1046D000EF50540826E1040EAE25036A4A0FE96E36
:1046E000010E0320EA6EEF5049081BE1050EAE25CE
:1046F000036A4A0FE96E010E0320EA6EEF503A0892
:1047000010E1080EF66E050EF76E000127EC03F0BF
:10471000010E03015C6F020E0901AF6F170EAE6F41
:1047200001D0AF6BAE2BA9D7AE6BAE5113083BE3F4
:10473000036AAE514A0FE96E010E0320EA6EEF5094
:1047400052082EE1010EAE25036A4A0FE96E010EF2
:104750000320EA6EEF50490823E1020EAE25036AFA
:104760004A0FE96E010E0320EA6EEF504E0818E181
:10477000030EAE25036A4A0FE96E010E0320EA6EAE
:10478000EF5047080DE1140EF66E050EF76E0001AE
:1047900027EC03F0010E0901AF6F170EAE6F01D0C9
:1047A000AF6BAE2BC2D70101AE6B010EEA6E4A0EA3
:1047B000E96E006A026A640E016E0001B4EC1CF03E
:1047C0000901AFC901F000010FEF2CF00801F26BF5
:1047D000F16B01010C531DE00F51010807E303E1E8
:1047E0000E51F30803E30E2BD8B40F2B0E51F4082F
:1047F00010E10F2D0ED0760EF66E580EF76E0001FA
:1048000027EC03F0929E899E01010D6B0E2BD8B40C
:104810000F2B082D0DD00801755304E100017FEC2A
:1048200010F005D00001A4EC15F001C0F7F801016B
:10483000092D0CD00801755304E100017FEC10F044
:1048400005D00001A4EC15F001C0F7F808015A5397
:104850000FE159530DE158530BE15751040808E398
:10486000010E5727D8B0582BD8B4592BD8B45A2B8F
:10487000575105082DE158532BE1595329E15A535B
:1048800027E16D2D04D0000178EF1AF00801030E26
:10489000EA6ED90EE96E006A030E026E520E016EC8
:1048A0000001B4EC1CF0070EEA6E2B0EE96E006AF4
:1048B000010E026E2C0E016EB4EC1CF008016E6B42
:1048C000010E5727D8B0582BD8B4592BD8B45A2B2F
:1048D0000901BD6B940EBC6F000124EC17F001C000
:1048E00042F1020E0901B46FBC0EB36FB66B42C148
:1048F000B5F90001A0EC17F002C003F0FC51025C16
:1049000007E303E10150FB5D03E2FB2BD8B4FC2B72
:10491000020E0901B46FBC0EB36FB66B42C1B5F99C
:104920000001A0EC17F002C003F00150FB5D55E15F
:104930000350FC5D52E178EC17F002C0F6F801C0BC
:10494000F5F80901B46B7C0EB36FF6C8B6F9F5C87B
:10495000B5F90001A0EC17F002C0AFF901C0AEF943
:1049600009010250AA0815E303E1AE51450811E31D
:104970000001C1EF1CF0010E0801F527000EF6231F
:10498000F6C8B1F9F5C8B0F9000164EC1DF00AD021
:104990000901860EF66E580EF76E000127EC03F043
:1049A0001CEF2CF0960EF66E580EF76E27EC03F007
:1049B000A60EF66E580EF76E27EC03F008016C6B2E
:1049C0000001FB2BD8B4FC2B0101096B94948B9450
:1049D0000301602D02D00B0E5C6F03015A2BD8B47B
:1049E0005B2B5F515B5DD8A01DEF2CF005E15E51A4
:1049F0005A5DD8A01DEF2CF05B6B5A6B010E5C5D0D
:104A0000F30FD8B01DEF2CF00D0F000121EF2CF0AB
:104A100078EC17F002C091F801C090F8010E08017F
:104A20008A6FEA6E4A0EE96E006A026A640E016ECF
:104A30000001B4EC1CF0030EEA6E400EE96E006A51
:104A4000026A1A0E016EB4EC1CF0BC0EF66E580E23
:104A5000F76E27EC03F0949ECE0EF66E580EF76EAE
:104A600081EC1DF0948E020E03015C6F0101AE6BB0
:104A700003015F6BC80E5E6F1DEF2CF092EF1DF00F
:104A800001C0F7F80801F72D04D0010E03015C6F97
:104A900003D0030E03015C6F5F6B640E5E6F1DEF4E
:104AA0002CF0140E0901BD6F020EBF6FFA0EBE6F1F
:104AB0000001B1EC17F0320E0901BD6F030EBF6F9C
:104AC0000E0EBE6F0001B1EC17F0320E0901BD6F82
:104AD000020EBF6FC80EBE6F0001B1EC17F0020EE0
:104AE0000901AF6FC80EAE6F030EB16F400EB06F0D
:104AF0000001B6EF1DF0010EEA6E4A0EE96E006A83
:104B0000026A640E016EB4EC1CF0040E03015C6FCB
:104B1000010E5F6F2C0E5E6F1DEF2CF0DA0EF66E3D
:104B2000580EF76E27EC03F00801F86BF8511308E4
:104B300011E3036AF851400FE96E030E0320EA6E99
:104B4000EFCFAEF9AEC9D3F9000104EC03F00801D0
:104B5000F82BECD7550E0901AE6F140EAF6F020E95
:104B6000B16FFA0EB06F0001BBEC1EF0030E09012D
:104B7000AF6F400EAE6F020EB16FFA0EB06F000154
:104B8000E2EC1EF001520BE1F40EF66E580EF76ED9
:104B900027EC03F0050E03015C6F0AD00001180E2C
:104BA000F66E590EF76E27EC03F0060E03015C6FEC
:104BB0001DEF2CF0010EEA6EB00EE96E006A010ED8
:104BC000026E180E016EB4EC1CF0030EEA6E0E0EAF
:104BD000E96E000E5EEC01F00A000900F550EE6E81
:104BE0000009FBE1030E0901AF6F0E0EAE6F020E5E
:104BF000B16FC80EB06FB36B050EB26F00012EEC33
:104C00001FF0015216E1060E03015C6F420EF66EB4
:104C1000590EF76E000127EC03F079EC1FF0500EEF
:104C2000F66E590EF76E27EC03F003011DEF2CF022
:104C30000001030EEA6E0E0EE96E000E69EC01F043
:104C40000A000900F550EE6E0009FBE1030E0901B0
:104C5000AF6F0E0EAE6F020EB16FC80EB06FB36BBA
:104C6000060EB26F00012EEC1FF0015216E1060E87
:104C700003015C6F580EF66E590EF76E000127ECBB
:104C800003F0BBEC1FF0660EF66E590EF76E27ECC4
:104C900003F003011DEF2CF00001030EEA6E0E0E6F
:104CA000E96E000E75EC01F00A000900F550EE6E99
:104CB0000009FBE1030E0901AF6F0E0EAE6F020E8D
:104CC000B16FC80EB06FB36B0A0EB26F00012EEC5D
:104CD0001FF00152D8A49AD00801F26BF16B0001C9
:104CE00078EC17F002C091F801C090F8030EEA6E5C
:104CF0000E0EE96E000E83EC01F00A000900F5507B
:104D0000EE6E0009FBE1030E0901AF6F0E0EAE6FF0
:104D1000010EB16FB00EB06FB36BB26B000142EC1D
:104D200020F00801F26B01C0F1F80901B16BB06B22
:104D300091C8AFF990C8AEF90A0EB26F080EB46F01
:104D4000FB0EB36F00011AEC21F0080E0901AF6FE2
:104D5000FB0EAE6F010EB16FB00EB06FF2C8B3F9BB
:104D6000F1C8B2F9000142EC20F00801F26B01C079
:104D7000F1F8030EEA6E0E0EE96E000E000191ECE2
:104D800001F00A000900F550EE6E0009FBE1030E88
:104D90000901AF6F0E0EAE6F010EB16FB00EB06FA6
:104DA000F2C8B3F9F1C8B2F9000142EC20F00801F1
:104DB000F26B01C0F1F8080E03015C6F08018D6B06
:104DC0008C6B6E0EF66E590EF76E0B0E0901C76FE7
:104DD0000001E3EC0AF0100EE96E91C8AFF990C83B
:104DE000AEF9F8EC0AF07C0EF66E590EF76E0F0E67
:104DF0000901C76F0001E3EC0AF00801936B926BA5
:104E0000956B946B03011DEF2CF00001030EEA6E0D
:104E10000E0EE96E000EA0EC01F00A000900F5503C
:104E2000EE6E0009FBE1030E0901AF6F0E0EAE6FCF
:104E3000020EB16FC80EB06FB36B0C0EB26F0001F3
:104E40002EEC1FF001521DE18C0EF66E590EF76E1E
:104E500027EC03F078EC17F002C095F801C094F845
:104E60000801F26BF16B95C88FF894C88EF8070EA5
:104E700003015C6F0801936B926B03011DEF2CF033
:104E80000001030EEA6E0E0EE96E000EAFEC01F0AB
:104E90000A000900F550EE6E0009FBE1030E09015E
:104EA000AF6F0E0EAE6F020EB16FC80EB06FB36B68
:104EB000090EB26F00012EEC1FF00152D8A4CBD026
:104EC0000801F86BD1C2F7F8F75315E0090EF82581
:104ED000036AC80FE96E020E0320EA6EEFCFF7F8FF
:104EE000F851F82B036AFB0FE96E080E0320EA6EF7
:104EF000F7C8EFFFE9D7080E0901AF6FFB0EAE6FE1
:104F0000000128EF22F0036A01C092F8080103C0F3
:104F100093F8000178EC17F002C095F801C094F8FE
:104F200008019551935DD8A07BD003E19251945D27
:104F300077E2F26BF16B090EEA6E7C0EE96E000E01
:104F40000001BCEC01F00A000900F550EE6E00090A
:104F5000FBE1090E0901AF6F7C0EAE6F010EB16F60
:104F6000B00EB06FB36BB26B000142EC20F00801E1
:104F7000F26B01C0F1F80901B16BB06B95C8AFF9E4
:104F800094C8AEF90A0EB26F080EB46FFB0EB36F81
:104F900000011AEC21F0080E0901AF6FFB0EAE6F95
:104FA000010EB16FB00EB06FF2C8B3F9F1C8B2F92B
:104FB000000142EC20F00801F26B01C0F1F8090E8B
:104FC000EA6E7C0EE96E000E000191EC01F00A0021
:104FD0000900F550EE6E0009FBE1090E0901AF6F03
:104FE0007C0EAE6F010EB16FB00EB06FF2C8B3F9A8
:104FF000F1C8B2F9000142EC20F00801F26B01C0E7
:10500000F1F8080E03015C6F08018D6B8C6B956BDA
:10501000946B8F6B8E6B03011DEF2CF01BD008017E
:1050200095C88FF894C88EF892518E5D926F935107
:105030008F59936F925307E1935305E18FC895F809
:105040008EC894F802D0956B946B070E03015C6FC9
:105050001DEF2CF003D0060E03015C6F1DEF2CF04A
:105060009C0EF66E590EF76E27EC03F0949EAC0E74
:10507000F66E590EF76E81EC1DF0948EC80E090184
:10508000BD6F010EBF6F4A0EBE6F0001B1EC17F08D
:10509000030E03015F6F200E5E6F0C0E5C6F949425
:1050A0008B941DEF2CF008018E5308E18F5306E11D
:1050B000060E03015C6F1DEF2CF00801F26BF16B23
:1050C000010EEA6EB00EE96E006A010E026E180E55
:1050D000016E0001B4EC1CF08FC8B4F98EC8B3F9AE
:1050E0000901B66B7C0EB56F0001A0EC17F0960EAF
:1050F000090101240801F36F000E090102200801D3
:10510000F46F7C0EF35D0901AE6F000E0801F459D7
:105110000901AF6FB16FAEC9B0F9B36B7C0EB26F5E
:10512000090EB56FB46B0001FAEC22F00901B16B06
:10513000B06BAF6B00C9AEF90A0EB26F080EB46F58
:10514000FB0EB36F00011AEC21F0080E0901AF6FDE
:10515000FB0EAE6F010EB16FB00EB06FB36BB26BE2
:10516000000142EC20F00801F26B01C0F1F8F2C836
:1051700003F0F151F12BD8B4F22B0901AE6FB00E50
:10518000AE25E96E010E0320EA6E2F0EEF6EB16BB5
:10519000B06BAF6B01C9AEF90A0EB26F080EB46FF7
:1051A000FB0EB36F00011AEC21F0080E0901AF6F7E
:1051B000FB0EAE6F010EB16FB00EB06FF2C8B3F957
:1051C000F1C8B2F9000142EC20F00801F26B01C015
:1051D000F1F8F2C803F0F151F12BD8B4F22B090128
:1051E000AE6FB00EAE25E96E010E0320EA6E2F0EF3
:1051F000EF6E0801F2C803F0F151F12BD8B4F22B95
:105200000901AE6FB00EAE25E96E010E0320EA6E05
:10521000200EEF6EB16BB06BAF6B02C9AEF90A0E28
:10522000B26F080EB46FFB0EB36F00011AEC21F0E1
:10523000080E0901AF6FFB0EAE6F010EB16FB00E1D
:10524000B06FF2C8B3F9F1C8B2F9000142EC20F036
:105250000801F26B01C0F1F8F2C803F0F151F12B33
:10526000D8B4F22B0901AE6FB00EAE25E96E010E77
:105270000320EA6E3A0EEF6EB16BB06BAF6B03C9F1
:10528000AEF90A0EB26F080EB46FFB0EB36F0001D9
:105290001AEC21F0080E0901AF6FFB0EAE6F010E84
:1052A000B16FB00EB06FF2C8B3F9F1C8B2F9000136
:1052B00042EC20F00801F26B01C0F1F8F2C803F0F3
:1052C000F151F12BD8B4F22B0901AE6FB00EAE251F
:1052D000E96E010E0320EA6E3A0EEF6EB16BB06B11
:1052E000AF6B04C9AEF90A0EB26F080EB46FFB0EB5
:1052F000B36F00011AEC21F0080E0901AF6FFB0E2D
:10530000AE6F010EB16FB00EB06FF2C8B3F9F1C855
:10531000B2F9000142EC20F00801F26B01C0F1F893
:10532000F86B090EEA6E7C0EE96E000E0001CDEC02
:1053300001F00A000900F550EE6E0009FBE1090ECC
:105340000901AF6F7C0EAE6F010EB16FB00EB06F82
:10535000F2C8B3F9F1C8B2F9000142EC20F008013B
:10536000F26B01C0F1F8F76BF8514E0828E3F751E2
:105370003F0825E0050EF825036AE96E090E0324AF
:10538000EA6EEFCFF7F8F7511F0814E2F7517E08E5
:1053900011E3F2C803F0F151F12BD8B4F22B09015B
:1053A000AE6FB00EAE25E96E010E0320EA6EF7C8AF
:1053B000EFFF0801F82BF75301E101D0D5D7F86BC7
:1053C000F76B090EEA6E7C0EE96E000E0001DAEC56
:1053D00001F00A000900F550EE6E0009FBE1090E2C
:1053E0000901AF6F7C0EAE6F010EB16FB00EB06FE2
:1053F000F2C8B3F9F1C8B2F9000142EC20F008019B
:10540000F26B01C0F1F8F851270829E3F7513F0882
:1054100026E0050EF8254F0F036AE96E090E0324F6
:10542000EA6EEFCFF7F8F7511F0814E2F7517E0844
:1054300011E3F2C803F0F151F12BD8B4F22B0901BA
:10544000AE6FB00EAE25E96E010E0320EA6EF7C80E
:10545000EFFF0801F82BF75301E101D0D4D7010E7B
:105460008E5D0901AE6F000E08018F590901AF6F03
:10547000B46FAEC9B3F9B66B320EB56F0001A0ECD4
:1054800017F00150470F0801766FAA0E0220776FC0
:10549000786B796B090EEA6E7C0EE96E000E0001E6
:1054A000E7EC01F00A000900F550EE6E0009FBE19F
:1054B000090E0901AF6F7C0EAE6F010EB16FB00E19
:1054C000B06FF2C8B3F9F1C8B2F9000142EC20F0B4
:1054D0000801F26B01C0F1F8FA6BFA517625090167
:1054E000AE6F000E080177210901AF6FBD6FAEC925
:1054F000BCF9000124EC17F001C0F7F80801F751DE
:105500002F0803E2F75139080CE2F751230809E0AC
:10551000F7512A0806E0F751400814E2F75148080D
:1055200011E3F2C803F0F151F12BD8B4F22B0901C9
:10553000AE6FB00EAE25E96E010E0320EA6EF7C81D
:10554000EFFF0801FA2BFA51310802E3F753C5E1E6
:10555000100EE96EF2C8AFF9F1C8AEF90001F8EC2F
:105560000AF0BB0EF66E590EF76E0C0E0901C76FEE
:105570000001E3EC0AF008018D6B8C6B8E51925D9B
:105580000CE18F51935D09E1925302E1935305E0E1
:10559000060E03015C6F51D108018E51D8B48F07FC
:1055A0008E070301612D05D008018F6B8E6B0301FF
:1055B000616B080E5C6F41D194948B84949E0301BF
:1055C0005D51000A000105E0010A2AE0030A61E0DA
:1055D000BBD0010E08018A6FC80EF66E590EF76E29
:1055E000000181EC1DF0010E0901B76FB00EB66F1E
:1055F000000125EC20F001C0F9F8010E03015D6FF8
:105600005F6FF40E5E6F550E0901AE6F140EAF6F33
:10561000030EB16F400EB06F0001BBEC1EF094D0D2
:10562000D40EF66E590EF76E81EC1DF0220E36EC9C
:1056300023F00801F86B036AF851400FE96E030E7E
:105640000320EA6EEF5214E0F851130811E3036AE5
:10565000F851400FE96E030E0320EA6EEFCFAEF96A
:105660000901AE51000136EC23F00801F82BE3D715
:10567000220E000136EC23F00D0E9EA8FED7AE6E72
:105680000A0E9EA8FED7AE6E020E03015D6F0001EA
:105690005BD00801F86BF8518B0831E3F8518C2589
:1056A0000901AE6F000E08018D210901AF6FB00E28
:1056B000AE25E96E010EAF21EA6EEF5207E1060E4C
:1056C00003015C6F5D6B08011AD009010801F851F4
:1056D0008C250901AE6F000E08018D210901AF6F05
:1056E000B00EAE25E96E010EAF21EA6EEFCFB0F934
:1056F000B051000136EC23F00801F82BCCD71A0E7C
:10570000000136EC23F003015D6B0801F8518B08B2
:1057100007E3090E03015C6F08018D6B8C6B0BD0E6
:105720008D6B8C0E8C6F02013C5304E1090E03015A
:105730005C6F020108018C518C0805E18D5303E177
:10574000080E03015C6F0001948E030176D00801FE
:10575000955303E1945101080AE29451D8B4950796
:105760009407070E03015C6F68D00DD008019253B7
:1057700002E1935305E0070E03015C6F5ED003D096
:10578000060E03015C6F59D00901BD6B930EBC6F0F
:10579000000124EC17F001C060F30301602D25D057
:1057A000550E0901AE6F140EAF6F030EB16F400EB0
:1057B000B06F0001BBEC1EF0DE0EF66E590EF76EF8
:1057C00027EC03F078EC17F002C08FF801C08EF8D8
:1057D0000801936B926B956B946B8D6B8C6B010EC8
:1057E0000301616F070E5C6F02D0010E5C6F25D064
:1057F00094948B74EE0EF66E590EF76E27EC03F050
:1058000094948B940D0E03015C6F08018A6B010E5A
:1058100003015F6F2C0E5E6F10D03AEF23F001C0D2
:10582000F7F80801F751020805E194948B84010E02
:1058300003015C6F030101D00301F294000142EF08
:1058400000F0E824F76AF7365D0FF66E580EF7227F
:105850000A00F550FA6E0800F550F96E104A7C4ABD
:10586000A24A1C4BB44B6050A650B8554E573858FE
:105870008857F0571A580A0D4B65792072656C6588
:105880006173650A0D000D0A46756C6C206D656DBF
:105890006F72790D0A000D0A536176696E672050A8
:1058A000494E0D0A00000D0A6E657874207472610D
:1058B0006E73616374696F6E0D0A000072656164D6
:1058C000696E675F736D732E2E2E0A0D00004154B2
:1058D0002B434D47523D310D0A000A0D4D6F626951
:1058E0006C652070686F6E65206E756D62657220E4
:1058F000697320000A0D20636865636B696E672019
:1059000070686F6E65206E756D62657220697320B8
:10591000646F6E650A0D00000A0D207468697320BB
:1059200070686F6E6520756E61626C6520746F20A3
:1059300073656E6420636F6D6D616E6473200A0D14
:105940000000464F524D415454494E472E2E2E00D2
:1059500020657869740A0D00464F524D41545449F0
:105960004E472E2E2E0020657869740A0D0064655E
:10597000766963652068617320256C752074726197
:105980006E73616374696F6E200A0D00646F776EC9
:105990006C6F616420616C6C0A0D000064656C655D
:1059A00074655F4D53472E2E2E0A0D0041542B4334
:1059B0004D47443D310D0A00256C752063686172C6
:1059C00061637465720A0D0041542B434D47463D97
:1059D000310D0A0041542B434D47533D00000D0A41
:1059E00053656E64696E672E2E2E0D0A0000696481
:1059F0006C650A0D00000D0A626F6F74696E672E88
:105A00002E2E0D0A000041540D0A000041542B4374
:105A10004D47463D310D0A0041542B43534D503DF7
:105A200031372C3136372C302C3234350D0A00000A
:105A300041542B434D47443D310D0A0041542B4303
:105A40004D47443D320D0A0041542B434D47443DE0
:105A5000330D0A0041542B434D47443D340D0A0099
:105A600041542B434D47443D350D0A00706173731B
:105A7000776F72643A00204F4B0A0D0020580A0DD0
:105A8000000094869488F19E08EF41F00801E66BCF
:105A9000E351E65D23E2E651E225E76F036AE65152
:105AA000E425E96EE5510320EA6EEFCFE8F8196AC4
:105AB000F2BE198EF29E0901C06BE7C8BFF9E8C8B3
:105AC000C1F90001B6EC19F019BEF28E1A0E006E83
:105AD000002EFED700000801E62BDAD700011200E5
