:04000000B0EF2DF040
:08000800046ED8CF05F0E0CF33
:1000100006F00001E9CF0CF0EACF07F0E1CF08F0DD
:10002000E2CF09F0D9CF0AF0DACF0BF0F3CF12F01C
:10003000F4CF13F0FACF14F0F5CF15F0F6CF16F099
:10004000F7CF17F000C00EF001C00FF002C010F0A3
:1000500003C011F0F2AA30EF00F0F2B468EF1BF029
:100060009DA036EF00F09EB0C6EF0EF0F0A63CEF7C
:1000700000F0F0B0D3EF0CF09DAA42EF00F09EBA72
:100080009BEF0EF00EC000F00FC001F010C002F0A8
:1000900011C003F00CC0E9FF07C0EAFF078E08C0DB
:1000A000E1FF09C0E2FF0AC0D9FF0BC0DAFF12C0AE
:1000B000F3FF13C0F4FF14C0FAFF15C0F5FF16C01C
:1000C000F6FF17C0F7FF045006C0E0FF05C0D8FFD9
:1000D0001000F76AE20FF66E000EF7220900F550E5
:1000E000120061646D696E00F76AF80FF66E000E1B
:1000F000F7220900F55012003132334142343536CF
:10010000434437383945462A30234748F76A1C0F9D
:10011000F66E010EF7220900F55012006400F76A2E
:100120002E0FF66E010EF7220900F5501200660040
:10013000F76A400FF66E010EF7220900F550120023
:1001400066206D656D00F76A560FF66E010EF72298
:100150000900F5501200525350570000F76A6C0F17
:10016000F66E010EF7220900F5501200216B626451
:100170002100F76A820FF66E010EF7220900F55092
:1001800012007273666163740000F76A9A0FF66E6C
:10019000010EF7220900F55012006500F76AAC0F56
:1001A000F66E010EF7220900F55012006E00F76A94
:1001B000BE0FF66E010EF7220900F5501200630023
:1001C000F76AD00FF66E010EF7220900F550120003
:1001D00073630000F76AE40FF66E010EF722090060
:1001E000F55012004D530000F76AF80FF66E010E3D
:1001F000F7220900F55012007472616E2074696D67
:100200006500F76A120FF66E020EF7220900F5502C
:10021000120064656C61796B6200F76A2A0FF66EF2
:10022000020EF7220900F55012004B4274696D6509
:100230000000F76A420FF66E020EF7220900F55031
:1002400012006800F76A540FF66E020EF7220900DA
:10025000F550120070617373776F72640000F76A73
:100260006E0FF66E020EF7220900F550120064655B
:1002700062756700636F6C30203D20256C750D0A38
:100280000000636F6C31203D20256C750D0A000065
:10029000636F6C32203D20256C750D0A0000636F82
:1002A0006C33203D20256C750D0A0000636F6C34A3
:1002B000203D20256C750D0A00006B657920646176
:1002C00074615B25645D2025630D0A00446F6E65D3
:1002D0002050494E00005072657373696E67204B61
:1002E0006579000041540D0A000041542B434D47ED
:1002F000463D310D0A0041540D0A000041540D0ADB
:10030000000041540D0A000041540D0A0000415400
:100310000D0A000041542B43504F57440D0A000072
:1003200041542B434D47443D310D0A0041542B436A
:100330004D47443D320D0A0041542B434D47443D47
:10034000330D0A0041542B434D47443D340D0A0000
:1003500041542B434D47443D350D0A0041542B4336
:100360004D47443D360D0A0041542B434D47443D13
:10037000370D0A0041542B434D47443D380D0A00C8
:1003800041542B434D47533D000041542B434D47AF
:10039000463D310D0A0041542B434D47523D310D2E
:1003A0000A000A0D4E657720534D530A0D000A0DC1
:1003B00052494E470A0D00000D0A4249545F5472DB
:1003C00061636B3120446174613A0D0A00000D0ACB
:1003D0004249545F547261636B3220446174613AE4
:1003E0000D0A00000D0A536176696E672043617241
:1003F0006420446174610D0A0000446F6E65000062
:1004000057616974696E6720666F722050494E208B
:100410006E756D62657200000D0A636F756E7462B1
:1004200069745F54313A256C750D0A000D0A636FCB
:10043000756E746269745F54323A256C750D0A00EA
:100440000D0A72656164696E67206572726F722051
:1004500054310D0A00000D0A72656164696E6720EF
:100460006572726F722054320D0A0000020E08018C
:10047000EE5F0CE3080EEA6EEE0EE96EEF5006E05A
:1004800003D000D000D00000EF2EFBD70001DBEF3F
:100490000CF00901E36BE46BDBB1E48FDC39006E37
:1004A00000360036C00E00160050E413DD39006E31
:1004B0000036E00E00160050E413DE39006EF00E38
:1004C00000160050E413DF35006E00360036F80EDB
:1004D00000160050E413E035006E0036FC0E0016E6
:1004E0000050E413D890E135E413E251E411E36FD6
:1004F000E3C901F0000112000901CB6BC6536AE1A8
:10050000C951C725E96ECA51C821EA6EEFCFCCF9AF
:10051000010EC725CD6F000EC821CE6FC951CD2564
:10052000E96ECA51CE21EA6EEF50CC1B020EC725F0
:10053000CF6F000EC821D06FC951CF25E96ECA51C7
:10054000D021EA6EEF50CC1B030EC725D16F000EF1
:10055000C821D26FC951D125E96ECA51D221EA6EA4
:10056000EF50CC1B040EC725D36F000EC821D46FEB
:10057000C951D325E96ECA51D421EA6EEF50CC1B84
:10058000050EC725D56F000EC821D66FC951D525D8
:10059000E96ECA51D621EA6EEF50CC1902E0000E86
:1005A00001D0010ECB6F060EC725CC6F000EC821FF
:1005B000CD6FC951CC25E96ECA51CD21EA6EEF50FD
:1005C000CB5D04E1010E016E6DD003D0000E016E13
:1005D00069D068D0C951C725E96ECA51C821EA6EF1
:1005E000EFCFCCF9010EC75DCD6F000EC859CE6FAD
:1005F000C951CD25E96ECA51CE21EA6EEF50CC1B10
:10060000020EC75DCF6F000EC859D06FC951CF25FC
:10061000E96ECA51D021EA6EEF50CC1B030EC75DC4
:10062000D16F000EC859D26FC951D125E96ECA5198
:10063000D221EA6EEF50CC1B040EC75DD36F000EC3
:10064000C859D46FC951D325E96ECA51D421EA6E75
:10065000EF50CC1B050EC75DD56F000EC859D66F85
:10066000C951D525E96ECA51D621EA6EEF50CC1991
:1006700002E0000E01D0010ECB6F060EC75DCC6FFD
:10068000000EC859CD6FC951CC25E96ECA51CD2194
:10069000EA6EEF50CB5D04E1010E016E03D002D093
:1006A000000E016E000112000901CB6BC6534EE132
:1006B000C951C725E96ECA51C821EA6EEFCFCCF9FE
:1006C000010EC725CD6F000EC821CE6FC951CD25B3
:1006D000E96ECA51CE21EA6EEF50CC1B020EC7253F
:1006E000CF6F000EC821D06FC951CF25E96ECA5116
:1006F000D021EA6EEF50CC1B030EC725D16F000E40
:10070000C821D26FC951D125E96ECA51D221EA6EF2
:10071000EF50CC1902E0000E01D0010ECB6F040E99
:10072000C725CC6F000EC821CD6FC951CC25E96E0D
:10073000CA51CD21EA6EEF50CB5D04E1010E016E8E
:1007400051D003D0000E016E4DD04CD0C951C725F9
:10075000E96ECA51C821EA6EEFCFCCF9010EC75D30
:10076000CD6F000EC859CE6FC951CD25E96ECA5163
:10077000CE21EA6EEF50CC1B020EC75DCF6F000E8C
:10078000C859D06FC951CF25E96ECA51D021EA6E40
:10079000EF50CC1B030EC75DD16F000EC859D26F4E
:1007A000C951D125E96ECA51D221EA6EEF50CC1958
:1007B00002E0000E01D0010ECB6F040EC75DCC6FBE
:1007C000000EC859CD6FC951CC25E96ECA51CD2153
:1007D000EA6EEF50CB5D04E1010E016E03D002D052
:1007E000000E016E000112000901C26BC36BC46BE5
:1007F000C56BBF6BBE6BBB31036EBA31026E033289
:1008000002323F0E031602C001F0BF51035CD8A0B4
:10081000DFD204E10150BE5DD8B0DAD2B953D8A41A
:100820009AD1060EBE25C66F000EBF21C76FBC5100
:10083000C625E96EBD51C721EA6EEFCFC8F9050E96
:10084000BE25C96F000EBF21CA6FBC51C925E96E14
:10085000BD51CA21EA6EEFCFCBF9040EBE25CC6F95
:10086000000EBF21CD6FBC51CC25E96EBD51CD210D
:10087000EA6EEFCFCEF9030EBE25CF6F000EBF217B
:10088000D06FBC51CF25E96EBD51D021EA6EEFCFBC
:10089000D1F9020EBE25D26F000EBF21D36FBC511D
:1008A000D225E96EBD51D321EA6EEFCFD4F9010E06
:1008B000BE25D56F000EBF21D66FBC51D525E96E80
:1008C000BD51D621EA6EEFCFD7F9BC51BE25E96EF6
:1008D000BD51BF21EA6EEFCFD8F9DB6BC8C9DCF997
:1008E000CBC9DDF9CEC9DEF9D1C9DFF9D4C9E0F948
:1008F000D7C9E1F9D8C9E2F90001CBDD01C0C2F9DD
:100900000D0E0901BE25C66F000EBF21C76FBC5179
:10091000C625E96EBD51C721EA6EEFCFC8F90C0EAE
:10092000BE25C96F000EBF21CA6FBC51C925E96E33
:10093000BD51CA21EA6EEFCFCBF90B0EBE25CC6FAD
:10094000000EBF21CD6FBC51CC25E96EBD51CD212C
:10095000EA6EEFCFCEF90A0EBE25CF6F000EBF2193
:10096000D06FBC51CF25E96EBD51D021EA6EEFCFDB
:10097000D1F9090EBE25D26F000EBF21D36FBC5135
:10098000D225E96EBD51D321EA6EEFCFD4F9080E1E
:10099000BE25D56F000EBF21D66FBC51D525E96E9F
:1009A000BD51D621EA6EEFCFD7F9070EBE25D86F1D
:1009B000000EBF21D96FBC51D825E96EBD51D92198
:1009C000EA6EEFCFDAF9DB6BC8C9DCF9CBC9DDF928
:1009D000CEC9DEF9D1C9DFF9D4C9E0F9D7C9E1F947
:1009E000DAC9E2F9000155DD01C0C3F90901C251BC
:1009F0004508D8A4AFD0C3517C08D8B4ABD0C351FC
:100A00003E08D8B4A7D0C3511F08D8B4A3D0BFC9DB
:100A1000C1F9BEC9C0F9010EC56FC2C9C4F9C4513C
:100A20001F08D8B48CD0C1510308D8A088D004E1E5
:100A3000C051E708D8A083D0C66BC1C9C8F9C0C9E6
:100A4000C7F9BDC9CAF9BCC9C9F9000155DD0150D2
:100A50000901C517060EC025C66F000EC121C76F5C
:100A6000BC51C625E96EBD51C721EA6EEFCFC8F96A
:100A7000050EC025C96F000EC121CA6FBC51C92522
:100A8000E96EBD51CA21EA6EEFCFCBF9040EC02545
:100A9000CC6F000EC121CD6FBC51CC25E96EBD518C
:100AA000CD21EA6EEFCFCEF9030EC025CF6F000E39
:100AB000C121D06FBC51CF25E96EBD51D021EA6E66
:100AC000EFCFD1F9020EC025D26F000EC121D36F36
:100AD000BC51D225E96EBD51D321EA6EEFCFD4F9D6
:100AE000010EC025D56F000EC121D66FBC51D52592
:100AF000E96EBD51D621EA6EEFCFD7F9BC51C025C2
:100B0000E96EBD51C121EA6EEFCFD8F9DB6BC8C9E0
:100B1000DCF9CBC9DDF9CEC9DEF9D1C9DFF9D4C919
:100B2000E0F9D7C9E1F9D8C9E2F90001B2DC01C0A6
:100B3000C4F9070E0901C027000EC12370D7C52DC7
:100B400009D00801576B0901BEC901F0BFC902F005
:100B5000F3EF09F039D1040EBE25C66F000EBF2198
:100B6000C76FBC51C625E96EBD51C721EA6EEFCFF4
:100B7000C8F9030EBE25C96F000EBF21CA6FBC5154
:100B8000C925E96EBD51CA21EA6EEFCFCBF9020E3D
:100B9000BE25CC6F000EBF21CD6FBC51CC25E96EB8
:100BA000BD51CD21EA6EEFCFCEF9010EBE25CF6F3C
:100BB000000EBF21D06FBC51CF25E96EBD51D021B1
:100BC000EA6EEFCFD1F9BC51BE25E96EBD51BF2110
:100BD000EA6EEFCFD2F9DB6BDC6BDD6BC8C9DEF9F7
:100BE000CBC9DFF9CEC9E0F9D1C9E1F9D2C9E2F93F
:100BF00000014FDC01C0C2F9090E0901BE25C66F14
:100C0000000EBF21C76FBC51C625E96EBD51C7217B
:100C1000EA6EEFCFC8F9080EBE25C96F000EBF21DE
:100C2000CA6FBC51C925E96EBD51CA21EA6EEFCF2A
:100C3000CBF9070EBE25CC6F000EBF21CD6FBC5186
:100C4000CC25E96EBD51CD21EA6EEFCFCEF9060E6F
:100C5000BE25CF6F000EBF21D06FBC51CF25E96EEE
:100C6000BD51D021EA6EEFCFD1F9050EBE25D26F6E
:100C7000000EBF21D36FBC51D225E96EBD51D321E7
:100C8000EA6EEFCFD4F9DB6BDC6BDD6BC8C9DEF944
:100C9000CBC9DFF9CEC9E0F9D1C9E1F9D4C9E2F98C
:100CA000000149EC02F001C0C3F90901C2510B086F
:100CB000D8A48AD0C3511F08D8B486D0C3510F0816
:100CC000D8B482D0BFC9C1F9BEC9C0F9010EC56F81
:100CD000C2C9C4F9C4511F086DE0C15101086AE3DB
:100CE00003E1C051F30866E3C66BC1C9C8F9C0C9C6
:100CF000C7F9BDC9CAF9BCC9C9F90001D5DC0150A1
:100D00000901C517040EC025C66F000EC121C76FAB
:100D1000BC51C625E96EBD51C721EA6EEFCFC8F9B7
:100D2000030EC025C96F000EC121CA6FBC51C92571
:100D3000E96EBD51CA21EA6EEFCFCBF9020EC02594
:100D4000CC6F000EC121CD6FBC51CC25E96EBD51D9
:100D5000CD21EA6EEFCFCEF9010EC025CF6F000E88
:100D6000C121D06FBC51CF25E96EBD51D021EA6EB3
:100D7000EFCFD1F9BC51C025E96EBD51C121EA6E5A
:100D8000EFCFD2F9DB6BDC6BDD6BC8C9DEF9CBC909
:100D9000DFF9CEC9E0F9D1C9E1F9D2C9E2F9000120
:100DA00049EC02F001C0C4F9050E0901C027000E8C
:100DB000C12390D7C52D08D00801576B0901BEC9C2
:100DC00001F0BFC902F00FD3BE2BD8B4BF2B13D58F
:100DD000BBC9BFF9BAC9BEF9BB31036EBA31026EE5
:100DE000033202323F0E031602C001F00350BF5D12
:100DF000D8A0F6D204E1BE51015CD8B0F1D2B9530B
:100E0000D8A4A9D1060EBE5DC66F000EBF59C76F2C
:100E1000BC51C625E96EBD51C721EA6EEFCFC8F9B6
:100E2000050EBE5DC96F000EBF59CA6FBC51C92502
:100E3000E96EBD51CA21EA6EEFCFCBF9040EBE5D5B
:100E4000CC6F000EBF59CD6FBC51CC25E96EBD51A2
:100E5000CD21EA6EEFCFCEF9030EBE5DCF6F000E4F
:100E6000BF59D06FBC51CF25E96EBD51D021EA6E7C
:100E7000EFCFD1F9020EBE5DD26F000EBF59D36F16
:100E8000BC51D225E96EBD51D321EA6EEFCFD4F922
:100E9000010EBE5DD56F000EBF59D66FBC51D52572
:100EA000E96EBD51D621EA6EEFCFD7F9BC51BE2510
:100EB000E96EBD51BF21EA6EEFCFD8F9DB6BC8C92F
:100EC000DCF9CBC9DDF9CEC9DEF9D1C9DFF9D4C966
:100ED000E0F9D7C9E1F9D8C9E2F9000149EC02F01B
:100EE00001C0C2F90D0E0901BE5DC66F000EBF59EB
:100EF000C76FBC51C625E96EBD51C721EA6EEFCF61
:100F0000C8F90C0EBE5DC96F000EBF59CA6FBC5147
:100F1000C925E96EBD51CA21EA6EEFCFCBF90B0EA0
:100F2000BE5DCC6F000EBF59CD6FBC51CC25E96EB4
:100F3000BD51CD21EA6EEFCFCEF90A0EBE5DCF6F67
:100F4000000EBF59D06FBC51CF25E96EBD51D021E5
:100F5000EA6EEFCFD1F9090EBE5DD26F000EBF5918
:100F6000D36FBC51D225E96EBD51D321EA6EEFCFCC
:100F7000D4F9080EBE5DD56F000EBF59D66FBC51B7
:100F8000D525E96EBD51D621EA6EEFCFD7F9070E10
:100F9000BE5DD86F000EBF59D96FBC51D825E96E20
:100FA000BD51D921EA6EEFCFDAF9DB6BC8C9DCF9A4
:100FB000CBC9DDF9CEC9DEF9D1C9DFF9D4C9E0F971
:100FC000D7C9E1F9DAC9E2F9000149EC02F001C040
:100FD000C3F90901C2514508D8A4BCD0C3517C084B
:100FE000D8B4B8D0C3513E08D8B4B4D0C3511F0848
:100FF000D8B4B0D0C3510F08D8B4ACD0C35178081E
:10100000D8B4A8D0BFC9C1F9BEC9C0F9010EC56F17
:10101000C2C9C4F9C4511F08D8B48CD0C15304E16B
:10102000C0510108D8B086D0010EC66FC1C9C8F939
:10103000C0C9C7F9BDC9CAF9BCC9C9F900017CEC6E
:1010400002F001500901C517060EC05DC66F000E03
:10105000C159C76FBC51C625E96EBD51C721EA6EA3
:10106000EFCFC8F9050EC05DC96F000EC159CA6F38
:10107000BC51C925E96EBD51CA21EA6EEFCFCBF94B
:10108000040EC05DCC6F000EC159CD6FBC51CC2594
:10109000E96EBD51CD21EA6EEFCFCEF9030EC05DF2
:1010A000CF6F000EC159D06FBC51CF25E96EBD5135
:1010B000D021EA6EEFCFD1F9020EC05DD26F000EE3
:1010C000C159D36FBC51D225E96EBD51D321EA6E0F
:1010D000EFCFD4F9010EC05DD56F000EC159D66FA8
:1010E000BC51D525E96EBD51D621EA6EEFCFD7F9B7
:1010F000BC51C025E96EBD51C121EA6EEFCFD8F9D0
:10110000DB6BC8C9DCF9CBC9DDF9CEC9DEF9D1C9C1
:10111000DFF9D4C9E0F9D7C9E1F9D8C9E2F900018A
:1011200049EC02F001C0C4F9070E0901C05F000ECE
:10113000C15B70D7C52D0AD0010E0801576F090198
:10114000BEC901F0BFC902F04ED104D0000E016E3D
:10115000026E49D140D1040EBE5DC66F000EBF596C
:10116000C76FBC51C625E96EBD51C721EA6EEFCFEE
:10117000C8F9030EBE5DC96F000EBF59CA6FBC51DE
:10118000C925E96EBD51CA21EA6EEFCFCBF9020E37
:10119000BE5DCC6F000EBF59CD6FBC51CC25E96E42
:1011A000BD51CD21EA6EEFCFCEF9010EBE5DCF6FFE
:1011B000000EBF59D06FBC51CF25E96EBD51D02173
:1011C000EA6EEFCFD1F9BC51BE25E96EBD51BF210A
:1011D000EA6EEFCFD2F9DB6BDC6BDD6BC8C9DEF9F1
:1011E000CBC9DFF9CEC9E0F9D1C9E1F9D2C9E2F939
:1011F000000149EC02F001C0C2F9090E0901BE5D0F
:10120000C66F000EBF59C76FBC51C625E96EBD51F0
:10121000C721EA6EEFCFC8F9080EBE5DC96F000E98
:10122000BF59CA6FBC51C925E96EBD51CA21EA6ECA
:10123000EFCFCBF9070EBE5DCC6F000EBF59CD6F5F
:10124000BC51CC25E96EBD51CD21EA6EEFCFCEF970
:10125000060EBE5DCF6F000EBF59D06FBC51CF25BB
:10126000E96EBD51D021EA6EEFCFD1F9050EBE5D1A
:10127000D26F000EBF59D36FBC51D225E96EBD515C
:10128000D321EA6EEFCFD4F9DB6BDC6BDD6BC8C921
:10129000DEF9CBC9DFF9CEC9E0F9D1C9E1F9D4C98A
:1012A000E2F9000149EC02F001C0C3F90901C251A1
:1012B0000B08D8A490D0C3511F08D8B48CD0C35108
:1012C0000F08D8B488D0BFC9C1F9BEC9C0F9010E92
:1012D000C56FC2C9C4F9C4511F086DE0C15303E111
:1012E000C051010868E2010EC66FC1C9C8F9C0C982
:1012F000C7F9BDC9CAF9BCC9C9F9000154EC03F06A
:1013000001500901C517040EC05DC66F000EC1591A
:10131000C76FBC51C625E96EBD51C721EA6EEFCF3C
:10132000C8F9030EC05DC96F000EC159CA6FBC5128
:10133000C925E96EBD51CA21EA6EEFCFCBF9020E85
:10134000C05DCC6F000EC159CD6FBC51CC25E96E8C
:10135000BD51CD21EA6EEFCFCEF9010EC05DCF6F4A
:10136000000EC159D06FBC51CF25E96EBD51D021BF
:10137000EA6EEFCFD1F9BC51C025E96EBD51C12154
:10138000EA6EEFCFD2F9DB6BDC6BDD6BC8C9DEF93F
:10139000CBC9DFF9CEC9E0F9D1C9E1F9D2C9E2F987
:1013A000000149EC02F001C0C4F9050E0901C05F5B
:1013B000000EC15B90D7C52D0AD0010E0801576FF2
:1013C0000901BEC901F0BFC902F00DD004D0000E62
:1013D000016E026E08D0BE51D8B4BF07BE07FCD460
:1013E000000E016E026E0001120094908B90080EA8
:1013F000016E00D00000018E10D0019E0901CF3394
:101400000001D8B08B80D8A08B90018C06D0019CB5
:10141000012EF4D700D000008B80100EE96EE92E6B
:10142000FED700D0000001BEE8D701BCF0D7120003
:101430000900F6CFC4F9F7CFC5F9F5CFCFF9D5DF5D
:10144000C4C9F6FFC5C9F7FF0901C32F01D002D0F7
:101450000001EED700011200EACFFEF8E9CFFDF857
:101460000801F739F009F96FF927E20FFA6F320F27
:10147000FC6FF7510F0BFA27FA27FC27E90FFB6FD8
:10148000FB27FB27F6390F0BFB27FC27FB37FC3725
:10149000FC1FFC37F6510F0BFC27F937070EF86FCE
:1014A0000A0EFB07FC27FDE3FA07FB27FDE3F9071C
:1014B000FA27FDE3F807F927FDE3080EEA6EF80EB8
:1014C000E96E070EFD15FD9DE926FC0EE95CD8B41A
:1014D000FD8DEF50006E08E1FDBD06D0FDB915D0C1
:1014E000FDB702D0200E03D0FD87FD99300E0026F7
:1014F000EACFF7F8E9CFF6F800C0CFF9000175DFC1
:10150000F7C8EAFFF6C8E9FF0801EE50FDADDDD7E8
:10151000000112000900F5520CE0F6CFADF9F7CF4B
:10152000AEF9F5CFCFF961DFADC9F6FFAEC9F7FF70
:10153000F1D712000901B451016AB35D03E2B3C9E6
:1015400000F00CD0006A080EB56FB3370036B45106
:10155000005CD8B0006E0136B52FF7D7000112003D
:10156000200E0901AEA9300EAF6FADC900F0ADAFCE
:1015700008D0001E002A00C0ADF92D0EAF6FAE8F4F
:10158000AE810150ADC9B3F9640EB46F0001D2DF72
:1015900000C0ADF9300E01240901B06FADC9B3F937
:1015A0000A0EB46F0001C6DF300E00240901B26FCD
:1015B000300E0124B16FAFC900F0300EB05D04E011
:1015C000AE83AEBFAE8512D0AFC9B0F9200EAF6FFB
:1015D000300EB15D04E0AE81AEBFAE8307D0D8A4BB
:1015E000AE8104E1B0C9B1F9200EB06FAEB505D03F
:1015F000AEB307D0AEB109D00CD0AFC9CFF900015E
:10160000F4DEB0C9CFF90001F0DEB1C9CFF90001B5
:10161000ECDEB2C9CFF90001E8DE1200B80EF66EBA
:10162000030EF76E77DF0801F76BF66BF7510308CF
:1016300018E303E1F651510814E3D50EF625E96EDF
:10164000030EF721EA6EEFCFF8F8F8C8ADF9180EDF
:101650000901AE6F000184DF0801F62BD8B4F72B27
:10166000E5D7CE0EF66E030EF76E000153DF0801CC
:10167000F76BF66BF751010818E303E1F6512B08FD
:1016800014E3270EF625E96E070EF721EA6EEFCF79
:10169000F8F8F8C8ADF9180E0901AE6F000160DF67
:1016A0000801F62BD8B4F72BE5D700018AEF0CF030
:1016B000080EEA6EF60EE96EEF500DE00A0E016EAE
:1016C000006A002EFED7012EFBD75F0E006E002EA3
:1016D000FED7EF2EF3D71200010E0801ED6FEE6F6B
:1016E000EF6FF06FF16BF26FF36F616B606B566BC6
:1016F000556B546B536B6151FD080EE303E1605170
:10170000E7080AE3938281A207D0948A82AA04D0D0
:10171000602BD8B4612BEFD7616B606B5DC803F0B1
:101720005C515C2BD8B45D2BF66FD50EF625E96EB7
:10173000030E0320EA6EEF6A5DC803F05C515C2B78
:10174000D8B45D2BF66FD50EF625E96E030E032097
:10175000EA6E010EEF6E5FC803F05E515E2BD8B4E7
:101760005F2BF66F270EF625E96E070E0320EA6E53
:10177000EF6A5FC803F05E515E2BD8B45F2BF66F43
:10178000270EF625E96E070E0320EA6E010EEF6EB6
:101790005D510308D8A065D003E15C51510861E3B5
:1017A0005F5101085EE303E15E512B085AE361518A
:1017B000FF0857E303E16051DB0853E36A5304E099
:1017C0005D6B5C6B5F6B5E6B602BD8B4612B566B93
:1017D000556B546B536B9384ED6B81B4ED2BED53D0
:1017E0001CE1EE2D1AD0EE6BD50E5C25E96E030ED2
:1017F0005D21EA6E9382000E81A2010EEF6E270E2C
:101800005E25E96E070E5F21EA6EF1C8EFFF5C2BE3
:10181000D8B45D2B616B606B04D0ED2D02D0010E4E
:10182000EE6F9386EF6B81B6EF2BEF530DE1F02D4A
:101830000BD0F06B948AF16B82AAF12B5E2BD8B49B
:101840005F2B616B606B04D0EF2D02D0010EF06F47
:10185000938081A005D06A6B6169DC0E606F01D056
:1018600097D7616B606B0901B96B5DC8BBF95CC848
:10187000BAF9030EBD6FD50EBC6F0001F4EC03F096
:1018800001C0F2F8010E0901B96F5FC8BBF95EC86B
:10189000BAF9070EBD6F270EBC6F0001F4EC03F020
:1018A00001C0F3F80801652D49D0180EF66E040E3C
:1018B000F76E0E0E0901C36F0001BADD100EE96E5E
:1018C0005DC8F7F85CC8F6F8C7DD0D0E0901CF6FEB
:1018D00000018BDD0A0E0901CF6F000186DD2C0EA1
:1018E000F66E040EF76E0E0E0901C36F0001A0DD47
:1018F000100EE96E5FC8F7F85EC8F6F8ADDD0D0EA4
:101900000901CF6F000171DD0A0E0901CF6F0001DF
:101910006CDD84D60801F25307E1400EF66E040E2A
:10192000F76E0001F7DD0801F35307E1560EF66E7E
:10193000040EF76E0001EEDD080105D00F0EF66F04
:101940000001B6DE0801F25302E0F3530EE15F6BD3
:101950005E6B5D6B5C6B696B6A2B566B556B546B86
:10196000536B000E016E1CD019D0010E646F696FAD
:101970005FC85BF85EC85AF85DC859F85CC858F88B
:101980005D6B5C6B5F6B5E6B566B556B546B536B37
:101990000001FC6BFB6B016E080102D0000E016EB2
:1019A0000001E3EF0CF0020E0801ED6FFA0EEE6F8E
:1019B000000136EF02F00801ED2FF8D7672D01D0B6
:1019C0000BD0000189D601C066F80801566B556B33
:1019D000546B536B616B606BF090000142EF00F051
:1019E0000D0A547261636B3120446174613A0D0ACF
:1019F00000000D0A547261636B3220446174613AD5
:101A00000D0A00000D0A547261636B312044617449
:101A1000613A0D0A00000D0A547261636B32204472
:101A20006174613A0D0A00000D0A50494E204E754E
:101A30006D6265723A0D0A00464F524D4154544949
:101A40004E472E2E2E0020657869740A0D00464FF1
:101A5000524D415454494E472E2E2E002065786930
:101A6000740A0D007265736574696E672070617326
:101A700073776F72642E2E2E000020657869740AC9
:101A80000D004B657920626F617264207465737418
:101A9000696E670A0D007265736574206661637410
:101AA0006F72790A0D0020657869740A0D004E6521
:101AB0007720636F6E736F6C65206E616D653E009D
:101AC000204F4B0A0D005B4D5D005B535D00596577
:101AD00061723E004D6F6E74683E00004461746533
:101AE0003E004461793E0000486F75723E004D69CA
:101AF0006E757465733E00005365636F6E64733E6C
:101B0000000050726573732027312720746F207393
:101B1000656C65637420536C61766572206D6F64CB
:101B2000650050726573732027302720746F20730F
:101B3000656C656374204D6173746572206D6F64AC
:101B40006500496E707574204E756D626572000097
:101B5000496E707574204E756D6265720000496E35
:101B6000707574204E756D6265720000682D3E20A0
:101B700048656C700A0D000073632D3E2053657438
:101B800020436C6F636B0A0D0000632D3E20736869
:101B90006F7720436C6F636B0A0D00007061737385
:101BA000776F72642D3E206368616E67696E67208F
:101BB00050415353574F52440A0D00006E202D3EA2
:101BC000206368616E676520636F6E736F6C65205C
:101BD0004E616D650A0D0000662D3E20466F726DE8
:101BE00061740A0D0000652D3E20457869740A0D68
:101BF00000004D532D3E204B6579626F6172642069
:101C00006D6F64652073657474696E672028536C0A
:101C10006176652F4D6173746572290A0D007472C7
:101C2000616E2074696D652D3E2074696D65206F4D
:101C3000662065616368207472616E7361637469A4
:101C40006F6E0A0D000064656275672D3E206F6E31
:101C50002F6F6666206465627567206D6F64650A24
:101C60000D0064656C61796B62202564202D3E2037
:101C70004B6579626F61726427732054696D696E78
:101C8000670A0D007273666163742D3E207265737E
:101C9000657420666163746F72790A0D00004B42AF
:101CA00074696D65202564202D3E204B6579626F37
:101CB00061726427732054696D656F75740A0D0035
:101CC0006F6C642070617373776F72643A000A0DF1
:101CD0006E65773A00000A0D616761696E3A00002F
:101CE0000A0D4F4B0A0D00000A0D4552520A0D0015
:101CF00020580A0D00005072657373202731272089
:101D0000746F20656E61626C652064656275672022
:101D10006D6F646500005072657373202730272053
:101D2000746F2064697361626C65206465627567B5
:101D3000206D6F6465009EAAFED7AFCFEDF8080155
:101D400094948B7487531EE00101AA51AA2B036A55
:101D5000460FE96E010E0320EA6EEDC8EFFFAA51AF
:101D60006208D8A0AA6B94948B74080186530AE188
:101D7000010E03015B6F2C0E5A6F0D0E586F576BDF
:101D8000566B08019E9A000142EF00F094948B7408
:101D9000CF68CD0ECE6E9E9042EF00F001013F2B3A
:101DA0003F510108D8B0D2D04251FB0F41E2050F9C
:101DB0000001ABEF0FF0929A899A929689869294DD
:101DC00089849292898292908980010131D0929681
:101DD0008996929A898A9294898492928982929021
:101DE0008980010125D09294899492968986929A4D
:101DF000898A9292898292908980010119D0929267
:101E000089929296898692948984929A898A9290EC
:101E1000898001010DD09290899092968986929442
:101E2000898492928982929A898A010101D0010162
:101E300040A13FD09388000E81B8010E0901AC6F1C
:101E4000938A000E81BA010EAC17938C000E81BCF0
:101E5000010EAC17938E000E81BE010EAC1527E06B
:101E600041C1AAF90101085319E1066B056B000194
:101E7000FC6BFB6B01010B5131080AE30B510B2B7F
:101E8000036A0C0FE96E010E0320EA6EAAC9EFFF88
:101E9000AAC9CFF90001F5EC09F005D0AAC9CFF91C
:101EA0000001F5EC09F001014091416B09014CD0B2
:101EB00001019388000E81B8010E0901AC6F938A6D
:101EC000000E81BA010EAC17938C000E81BC010E7E
:101ED000AC17938E000E81BE010EAC152FE19388D6
:101EE00081B802D0AB6B11D0938A81BA03D0010EB6
:101EF000AB6F0BD0938C81BC03D0020EAB6F05D0BF
:101F0000938E81BE02D0030EAB6FAB51050DF35023
:101F1000AD6BAC6F036A010142510901AC25016E42
:101F2000AD5103220150000174EC00F0E8CF41F103
:101F300001014081FF0E926E07D009010101422B81
:101F400042510508D8B4426B01013F6B0901AAC98F
:101F500001F000011200E824F76AF736710FF66EFF
:101F60001F0EF7220A00F550FA6E0800F550F96EC0
:101F7000B61DCE1DE61DFE1D161EE00E0F01486F9C
:101F8000C29CC29E4951E00B1F09496F0901C35110
:101F9000FB0F55E2050F000121EF10F0100E016E4E
:101FA000C250C30B0110C26EC282C2B2FED7C4CFF0
:101FB000C4F90901C4C901F042D041D00C0E016E30
:101FC000C250C30B0110C26EC282C2B2FED7C4CFD0
:101FD000C4F90901C4C901F032D031D0080E016E34
:101FE000C250C30B0110C26EC282C2B2FED7C4CFB0
:101FF000C4F90901C4C901F022D021D0040E016E38
:10200000C250C30B0110C26EC282C2B2FED7C4CF8F
:10201000C4F90901C4C901F012D011D0000E016E3B
:10202000C250C30B0110C26EC282C2B2FED7C4CF6F
:10203000C4F90901C4C901F002D001D009010001AD
:102040001200E824F76AF7365D0FF66E200EF722CD
:102050000A00F550FA6E0800F550F96E9C1FBC1F7F
:10206000DC1FFC1F1C20D8B204D0090EEA6ED70E6C
:10207000E96E006A016A026A036A0901D76BD86BCC
:10208000D96BDA6BD651D511D411D3112CE0200EB7
:10209000DB6FD890CF37D037D137D237D737D83753
:1020A000D937DA37D651DA5D08E1D551D95D05E186
:1020B000D451D85D02E1D351D75D0FE3D351D75F3F
:1020C000D451D8A0D43DD85FD551D8A0D53DD95F43
:1020D000D651D8A0D63DDA5FD88000360136023618
:1020E0000336DB2FD6D7D7C9EFFFD8C9ECFFD9C944
:1020F000ECFFDAC9ECFF00011200E9500901C76FDB
:102100003B0ECE6F9A0ECD6FCA0ECC6FCB6B0A0E04
:10211000C96FD882090EEA6EC30EE96EC6C9D2F93C
:10212000C5C9D1F9C4C9D0F9C3C9CFF9CEC9D6F947
:10213000CDC9D5F9CCC9D4F9CBC9D3F9000193DF06
:102140000150005213E10901C951010AD8A402D07B
:1021500000010CD0C7510CE00F0BC95D01E010E28B
:10216000C7BF0ED0C7BD04D0200E03D00901C76B76
:10217000300E002600C0CFF90001F5EC09F009018E
:10218000D892CEC9D2F9CDC9D1F9CCC9D0F9CBC931
:10219000CFF9D66BD56BD46B0A0ED36F000163DF1A
:1021A00003C0CEF902C0CDF901C0CCF900C0CBF913
:1021B0000901C92FAED7000112000901B26BB16B42
:1021C000B06BAF6BB66BB56BB46BB36BBA6BB96B13
:1021D000B86BB76BBE6BBD6BBC6BBB6BC26BC16BC3
:1021E000C06BBF6BAE6BAD6BAE5101083EE303E15C
:1021F000AD51F3083AE3C36B0001BFDE01500901A2
:10220000AF27000EB023B123B223010EC36F00012C
:10221000B4DE01500901B327000EB423B523B62361
:10222000020EC36F0001A9DE01500901B727000E9D
:10223000B823B923BA23030EC36F00019EDE0150F9
:102240000901BB27000EBC23BD23BE23040EC36FB0
:10225000000193DE01500901BF27000EC023C123F6
:10226000C223AD2BD8B4AE2BBFD7D892B2C9D2F906
:10227000B1C9D1F9B0C9D0F9AFC9CFF9D66BD56B17
:10228000010ED46FF40ED36F0001EDDE03C0B2F97E
:1022900002C0B1F901C0B0F900C0AFF9D892B6C917
:1022A000D2F9B5C9D1F9B4C9D0F9B3C9CFF9090187
:1022B000D66BD56B010ED46FF40ED36F0001D3DE55
:1022C00003C0B6F902C0B5F901C0B4F900C0B3F952
:1022D000D892BAC9D2F9B9C9D1F9B8C9D0F9B7C930
:1022E000CFF90901D66BD56B010ED46FF40ED36F05
:1022F0000001B9DE03C0BAF902C0B9F901C0B8F9EA
:1023000000C0B7F9D892BEC9D2F9BDC9D1F9BCC9CC
:10231000D0F9BBC9CFF90901D66BD56B010ED46FCB
:10232000F40ED36F00019FDE03C0BEF902C0BDF9F9
:1023300001C0BCF900C0BBF9D892C2C9D2F9C1C969
:10234000D1F9C0C9D0F9BFC9CFF90901D66BD56B96
:10235000010ED46FF40ED36F000185DE03C0C2F905
:1023600002C0C1F901C0C0F900C0BFF901010853A2
:10237000D8B4BDD00D0E0901CF6F0001F5EC09F006
:102380000A0E0901CF6F0001F5EC09F0740EF66E2C
:10239000020EF76E070E0901C36F000118EC0AF078
:1023A000410EE96EB2C9C6F9B1C9C5F9B0C9C4F9DF
:1023B000AFC9C3F9A2DE0D0E0901CF6F0001F5EC24
:1023C00009F00A0E0901CF6F0001F5EC09F0820E49
:1023D000F66E020EF76E070E0901C36F000118ECCE
:1023E0000AF0410EE96EB6C9C6F9B5C9C5F9B4C956
:1023F000C4F9B3C9C3F981DE0D0E0901CF6F000125
:10240000F5EC09F00A0E0901CF6F0001F5EC09F0B7
:10241000900EF66E020EF76E070E0901C36F0001F3
:1024200018EC0AF0410EE96EBAC9C6F9B9C9C5F986
:10243000B8C9C4F9B7C9C3F960DE0D0E0901CF6F81
:102440000001F5EC09F00A0E0901CF6F0001F5EC6F
:1024500009F09E0EF66E020EF76E070E0901C36FAD
:10246000000118EC0AF0410EE96EBEC9C6F9BDC9FB
:10247000C5F9BCC9C4F9BBC9C3F93FDE0D0E0901DA
:10248000CF6F0001F5EC09F00A0E0901CF6F0001D2
:10249000F5EC09F0AC0EF66E020EF76E070E0901B0
:1024A000C36F000118EC0AF0410EE96EC2C9C6F90B
:1024B000C1C9C5F9C0C9C4F9BFC9C3F91EDE0D0E33
:1024C0000901CF6F0001F5EC09F00A0E0901CF6F89
:1024D0000001F5EC09F00D0E0901CF6F0001F5ECDC
:1024E00009F00A0E0901CF6F0001F5EC09F00901AE
:1024F000B25307E1B15305E1B05303E1AF51050811
:1025000030E2B2532EE1B1532CE1B0532AE1AF5186
:10251000310827E3B65307E1B55305E1B45303E1AE
:10252000B35132081EE2BA5307E1B95305E1B8537B
:1025300003E1B751320815E2BE5307E1BD5305E18F
:10254000BC5303E1BB5132080CE2C25307E1C15353
:1025500005E1C05303E1BF51320803E2000E016EF2
:10256000E7D0B65307E1B55305E1B45303E1B351E6
:10257000050830E2B6532EE1B5532CE1B4532AE1FD
:10258000B351310827E3B25307E1B15305E1B0532A
:1025900003E1AF5132081EE2BA5307E1B95305E136
:1025A000B85303E1B751320815E2BE5307E1BD53FA
:1025B00005E1BC5303E1BB5132080CE2C25307E111
:1025C000C15305E1C05303E1BF51320803E2010EDC
:1025D000016EAED0BA5307E1B95305E1B85303E138
:1025E000B751050830E2BA532EE1B9532CE1B85384
:1025F0002AE1B751310827E3B65307E1B55305E1A6
:10260000B45303E1B35132081EE2B25307E1B153B0
:1026100005E1B05303E1AF51320815E2BE5307E1C3
:10262000BD5305E1BC5303E1BB5132080CE2C25378
:1026300007E1C15305E1C05303E1BF51320803E292
:10264000020E016E75D0BE5307E1BD5305E1BC53C8
:1026500003E1BB51050830E2BE532EE1BD532CE12E
:10266000BC532AE1BB51310827E3B65307E1B55308
:1026700005E1B45303E1B35132081EE2BA5307E156
:10268000B95305E1B85303E1B751320815E2B2532B
:1026900007E1B15305E1B05303E1AF5132080CE259
:1026A000C25307E1C15305E1C05303E1BF513208F2
:1026B00003E2030E016E3CD0C25307E1C15305E1B2
:1026C000C05303E1BF51050831E2C2532FE1C153AA
:1026D0002DE1C0532BE1BF51310828E3B65307E188
:1026E000B55305E1B45303E1B35132081FE2BA53C5
:1026F00007E1B95305E1B85303E1B751320816E2D7
:10270000BE5307E1BD5305E1BC5303E1BB513208A1
:102710000DE2B25307E1B15305E1B05303E1AF510C
:10272000320804E2040E016E03D002D0FF0E016EE7
:102730000001C6EF13F0938881A809D0938A81AA7B
:1027400006D0938C81AC03D0938E81BE98D09388B1
:1027500081B804D00901AC6B17D00001938A81BA0B
:1027600005D0010E0901AC6F0FD00001938C81BC24
:1027700005D0020E0901AC6F07D00001938E81BE17
:1027800004D0030E0901AC6F000117D501C0AAF9EE
:102790000901AA3D01D05AD0AC51050DF350AE6BE2
:1027A000AD6F036AAA51AD25016EAE5103220150EF
:1027B000000174EC00F0E8CFABF90101085340E1EF
:1027C0000001FC6BFB6B01010B5113080AE30B5179
:1027D0000B2B036A0C0FE96E010E0320EA6EABC9E6
:1027E000EFFFBA0EF66E020EF76E090E0901C36F07
:1027F000000118EC0AF00BC1ADF9180E0901AE6F1B
:102800000001B0EC0AF05D0E0901CF6F0001F5EC9C
:1028100009F0200E0901CF6F0001F5EC09F0ABC9FA
:10282000CFF9F5EC09F00D0E0901CF6F0001F5ECC1
:1028300009F00A0E0901CF6F0001F5EC09F005D08F
:10284000ABC9CFF90001F5EC09F00901938881A823
:10285000FDD7938A81AAFAD7938C81ACF7D7938E50
:1028600081AEF4D7938881A8FDD7938A81AAFAD73D
:10287000938C81ACF7D7938E81AEF4D70001FF0E15
:10288000926E0901ABC901F000011200080E016E41
:102890000A0E006E002EFED78B9694960B0E006EDD
:1028A000002EFED70901C2378B98D8B09488D8A0E3
:1028B0009498948682A6FED7012E01D002D0000102
:1028C000E7D70A0E006E002EFED78B969496000076
:1028D00094880B0E006E002EFED70B0E006E002E9D
:1028E000FED7948682A6FED7016A0B0E006E002EDC
:1028F000FED782B801808B9694968B9894980001AD
:102900001200080E0901B76F00C0B8F994880B0EC9
:10291000006E002EFED7948682A6FED782B8D8809D
:1029200082A8D89001360A0E006E002EFED794962B
:102930008B96B72FEBD794880B0E006E002EFED728
:102940008B98B851D8A494980000948682A6FED79C
:102950000A0E006E002EFED78B9694960B0E006E1C
:10296000002EFED78B9894980001120094880A0ECE
:10297000006E002EFED794860B0E006E002EFED742
:102980008B9894980A0E006E002EFED78B96949624
:10299000D00E0901C26F000179DFB1C9C2F976DF3B
:1029A00094880A0E006E002EFED794860B0E006EE1
:1029B000002EFED782A6FED78B9894980A0E006E42
:1029C000002EFED78B969496D10E0901C26F00019E
:1029D0005DDF006A96DF01C0B2F99498000094862A
:1029E00082A6FED70A0E006E002EFED700D0000091
:1029F00094880A0E006E002EFED70901B2C901F0BC
:102A000000011200B2C9B3F90901B339006E0F0E0B
:102A1000001600500A0DF3CFB2F9B339006EF00E74
:102A200000160050003A0F0E00160050B227B2C92F
:102A300001F00001120094880A0E006E002EFED7ED
:102A400094860B0E006E002EFED78B9894980A0E7B
:102A5000006E002EFED78B969496A00E0901C26FD1
:102A6000000114DFB4C9B6F90901B76BB4C9C2F9E2
:102A700000010CDFB3C9C2F909DF94880A0E006EA9
:102A8000002EFED794860B0E006E002EFED782A677
:102A9000FED78B9894980A0E006E002EFED78B9668
:102AA0009496A10E0901C26F0001F0DE006A29DFD1
:102AB00001C0B5F994980000948682A6FED70A0E4C
:102AC000006E002EFED700D0000094880A0E006E23
:102AD000002EFED70901B5C901F00001120009015D
:102AE000AE6BAD6BB06BAF6BB26BB16BB46B280EF2
:102AF000B36F0001A0DF090101C0AFF9B06BB46B87
:102B0000290EB36F000197DF0901B26B01C0B1F963
:102B1000B1C9B2F9B16BB151AF11AD6FB251B011D2
:102B2000AE6FADC901F0AEC902F00001120009019B
:102B3000AF51B103F3CF01F0F4CF00F0B203F35083
:102B40000026B051B103F3500020026E00011200C4
:102B50000901BC6BB951BC5D0AE2036ABC51BA25DC
:102B6000E96EBB510320EA6EEF6ABC2BF3D700017C
:102B700012000901B86B010EB76FADC9B9F9AFC941
:102B8000BBF9AEC9BAF9B1C9BDF9B0C9BCF9000108
:102B9000F4EC03F002C0B8F901C0B7F90901B7536A
:102BA00005E1B85303E1000E016ED5D1B8C9B6F9FD
:102BB000B7C9B5F908015753D8A4DDD00901AD5301
:102BC000D8A47BD0B46BB4514E0876E3036AB451F9
:102BD000B225016EB351032201C0B9F903C0BAF99D
:102BE000050EB525BB6F000EB621BC6FB051BB25DD
:102BF000E96EB151BC21EA6EEFCFBDF9040EB525E7
:102C0000BE6F000EB621BF6FB051BE25E96EB15147
:102C1000BF21EA6EEFCFC0F9030EB525C16F000EDC
:102C2000B621C26FB051C125E96EB151C221EA6E21
:102C3000EFCFC3F9020EB525C46F000EB621C56FE4
:102C4000B051C425E96EB151C521EA6EEFCFC6F986
:102C5000010EB525C76F000EB621C86FB051C7254C
:102C6000E96EB151C821EA6EEFCFC9F9B051B5256F
:102C7000E96EB151B621EA6EEFCFCAF9DB6BDC6BBE
:102C8000BDC9DDF9C0C9DEF9C3C9DFF9C6C9E0F9BC
:102C9000C9C9E1F9CAC9E2F9000149EC02F0BAC9AF
:102CA000EAFFB9C9E9FF01C0EFFF070E0901B52727
:102CB000000EB623B42B87D75CD0B46BB451270871
:102CC00058E3036AB451B225016EB351032201C027
:102CD000B9F903C0BAF9030EB525BB6F000EB621D2
:102CE000BC6FB051BB25E96EB151BC21EA6EEFCF8C
:102CF000BDF9020EB525BE6F000EB621BF6FB051F3
:102D0000BE25E96EB151BF21EA6EEFCFC0F9010EC9
:102D1000B525C16F000EB621C26FB051C125E96E55
:102D2000B151C221EA6EEFCFC3F9B051B525E96EBA
:102D3000B151B621EA6EEFCFC4F9DB6BDC6BDD6B12
:102D4000DE6BBDC9DFF9C0C9E0F9C3C9E1F9C4C987
:102D5000E2F9000149EC02F0BAC9EAFFB9C9E9FF9A
:102D600001C0EFFF050E0901B527000EB623B42BF5
:102D7000A5D7DCD008010901AD53D8A47BD0B46B32
:102D8000B4514E0876E3036AB451B225016EB351D3
:102D9000032201C0B9F903C0BAF9050EB55DBB6FD6
:102DA000000EB659BC6FB051BB25E96EB151BC21C4
:102DB000EA6EEFCFBDF9040EB55DBE6F000EB659D9
:102DC000BF6FB051BE25E96EB151BF21EA6EEFCFA2
:102DD000C0F9030EB55DC16F000EB659C26FB05198
:102DE000C125E96EB151C221EA6EEFCFC3F9020EDF
:102DF000B55DC46F000EB659C56FB051C425E96EFC
:102E0000B151C521EA6EEFCFC6F9010EB55DC76FAE
:102E1000000EB659C86FB051C725E96EB151C8212F
:102E2000EA6EEFCFC9F9B051B525E96EB151B621BF
:102E3000EA6EEFCFCAF9DB6BDC6BBDC9DDF9C0C947
:102E4000DEF9C3C9DFF9C6C9E0F9C9C9E1F9CAC9E0
:102E5000E2F9000149EC02F0BAC9EAFFB9C9E9FF99
:102E600001C0EFFF070E0901B55F000EB65BB42B82
:102E700087D75CD0B46BB451270858E3036AB451C8
:102E8000B225016EB351032201C0B9F903C0BAF9EA
:102E9000030EB55DBB6F000EB659BC6FB051BB25BC
:102EA000E96EB151BC21EA6EEFCFBDF9020EB55DFE
:102EB000BE6F000EB659BF6FB051BE25E96EB1515D
:102EC000BF21EA6EEFCFC0F9010EB55DC16F000EF4
:102ED000B659C26FB051C125E96EB151C221EA6E37
:102EE000EFCFC3F9B051B525E96EB151B621EA6E05
:102EF000EFCFC4F9DB6BDC6BDD6BDE6BBDC9DFF9DB
:102F0000C0C9E0F9C3C9E1F9C4C9E2F9000149EC5B
:102F100002F0BAC9EAFFB9C9E9FF01C0EFFF050E27
:102F20000901B55F000EB65BB42BA5D7AD530AE11E
:102F3000520EB96FB1C9BBF9B0C9BAF9000108DEC8
:102F400009D009012C0EB96FB1C9BBF9B0C9BAF9E2
:102F50000001FEDD09010001120094880A0E006ED6
:102F6000002EFED794860B0E006E002EFED78B9897
:102F700094980A0E006E002EFED78B969496A00EA3
:102F80000901C26F000182DCBCC9C0F90901C16B33
:102F9000BCC9C2F900017ADCBBC9C2F977DCBDC982
:102FA000C2F974DC94980000948682A6FED70A0EBB
:102FB000006E002EFED700D0000094880A0E006E2E
:102FC000002EFED794880A0E006E002EFED794863F
:102FD0000B0E006E002EFED78B9894980A0E006E92
:102FE000002EFED78B969496A00E0901C26F0001A9
:102FF0004DDC01500901BE9101B0BE81BEA11ED0C1
:1030000094880A0E006E002EFED794860B0E006E7A
:10301000002EFED782A6FED78B9894980A0E006EDB
:10302000002EFED78B969496A00EC26F00012EDC68
:1030300001500901BE9101B0BE81E0D79498000013
:10304000948682A6FED70A0E006E002EFED700D010
:10305000000094880A0E006E002EFED700011200B8
:103060000901B56BB46BB36BB26BB66BB76BB86B76
:10307000B96BB0C9B5F9AFC9B4F9AEC9B3F9ADC947
:10308000B2F9B2C9B6F9B3C9B7F9B4C9B8F9B5C993
:10309000B9F9BC6BB1C9BBF9B6C9BDF900015DDFB7
:1030A000010E0901B125BA6FBC6BBB6FB7C9BDF981
:1030B000000153DF020E0901B125BA6FBC6BBB6F73
:1030C000B8C9BDF9000149DF030E0901B125BA6F86
:1030D000BC6BBB6FB9C9BDF900013FDF1200010E27
:1030E0000801676F040E0901B16F00013FDC01C0E8
:1030F000ADF901C0B2F986DC01C000F1050E09018D
:10310000B16F000133DC01C0ADF901C0B2F97ADC66
:1031100001C0FFF0060E0901B16F000127DC01C0FC
:10312000ADF901C0B2F96EDC01C0FEF0030E090179
:10313000B16F00011BDC01C0ADF901C0B2F962DC66
:1031400001C0FDF0020E0901B16F00010FDC01C0EA
:10315000ADF901C0B2F956DC01C001F1010E09015F
:10316000B16F000103DC01C0ADF901C0B2F94ADC66
:1031700001C002F10901B16B0001B6EC14F001C00D
:10318000ADF901C0B2F93EDC01C003F1A8DC02C018
:10319000AEF901C0ADF902C0B0F901C0AFF9090143
:1031A000B26B7C0EB16F0001C2DC01C0ADF9960EAE
:1031B00009010124016E000E022001C020F0216EE1
:1031C000226A236A0801645310E1596B586B5B6BE8
:1031D0005A6B5D6B5C6B5F6B5E6B685304E1000167
:1031E000FC69FB690801676BA3D1E40EF66E030E60
:1031F000F76E00018AEC0AF00101066B056B010E07
:10320000096F59C8ACF958C8ABF90901AD6BACC925
:10321000AFF9ABC9AEF9030EB16FD50EB06F030EA7
:10322000B36F5E0EB26F0001A4DC0801596B586BDE
:103230005BC8ACF95AC8ABF9010E0901AD6FACC956
:10324000AFF9ABC9AEF9070EB16F270EB06F030E21
:10325000B36FAD0EB26F00018CDC08015B6B5A6B73
:10326000676B200E03015E250901AA6F2352D8A4C3
:103270005ED12252D8A45BD12150AA08D8A057D140
:1032800004E120504508D8A052D1AA512508D8A45D
:103290004ED123C003F022C002F021C001F020C0B3
:1032A00000F0010E2026D8B0212AD8B4222AD8B4A2
:1032B000232A01C0AEF900C0ADF901C0BCF900C0BD
:1032C000BBF900C1BDF9000148DE23C003F022C0F4
:1032D00002F021C001F020C000F0010E2026D8B07D
:1032E000212AD8B4222AD8B4232A01C0AEF900C0BA
:1032F000ADF901C0BCF900C0BBF9FFC0BDF92DDEBE
:1033000023C003F022C002F021C001F020C000F071
:10331000010E2026D8B0212AD8B4222AD8B4232AD4
:1033200001C0AEF900C0ADF901C0BCF900C0BBF9E5
:1033300001C1BDF912DE23C003F022C002F021C09A
:1033400001F020C000F0010E2026D8B0212AD8B408
:10335000222AD8B4232A01C0AEF900C0ADF901C0B9
:10336000BCF900C0BBF902C1BDF9F7DD23C003F011
:1033700022C002F021C001F020C000F0010E202682
:10338000D8B0212AD8B4222AD8B4232A01C0AEF951
:1033900000C0ADF901C0BCF900C0BBF903C1BDF963
:1033A000DCDD0801636B626B63532EE162514E08F2
:1033B0002BE323C003F022C002F021C001F020C0A3
:1033C00000F0010E2026D8B0212AD8B4222AD8B481
:1033D000232A01C0AEF900C0ADF95E0E6225E96E88
:1033E000030E6321EA6EEF503F0B200F0901AF6F10
:1033F00001C0BCF900C0BBF9BD6F0001AEDD080122
:10340000622BD8B4632BD0D74F0E0901B96F030ECE
:10341000BB6F5E0EBA6F0001A8EC15F00801636B7C
:10342000626B63532EE1625127082BE323C003F044
:1034300022C002F021C001F020C000F0010E2026C1
:10344000D8B0212AD8B4222AD8B4232A01C0AEF990
:1034500000C0ADF9AD0E6225E96E030E6321EA6E80
:10346000EF500F0B300F0901AF6F01C0BCF900C066
:10347000BBF9BD6F000171DD0801622BD8B4632B6D
:10348000D0D7280E0901B96F030EBB6FAD0EBA6F0E
:103490000001A8EC15F00D0E0901CF6F0001F5EC4D
:1034A00009F00A0E0901CF6F0001F5EC09F0FA0EE0
:1034B000F66E030EF76E8AEC0AF00D0E0901CF6F5F
:1034C0000001F5EC09F00A0E0901CF6F0001F5ECDF
:1034D00009F0000EF66E040EF76E8AEC0AF00D0E7F
:1034E0000901CF6F0001F5EC09F00A0E0901CF6F59
:1034F0000001F5EC09F0FC6BFB6B23C0B0F922C0B6
:10350000AFF921C0AEF920C0ADF9190E0901B16FB4
:103510000001A6DD0801646B676B010E686F010195
:10352000096F0001FC6BFB6B01010B6B09010801CA
:103530000001A8EF1BF0016603D0026602D007D09D
:10354000022A00C0EEFF012EFCD7022EFAD712008D
:103550002752D8A49ED02652D8A49BD02550FF082D
:10356000D8A097D004E12450FE08D8A092D0010141
:103570000C5366E000016FEC15F002C0ACF901C01D
:10358000ABF9ACC9B0F9ABC9AFF90901B26B320EF6
:10359000B16F000197EC15F002C0AEF901C0ADF9B2
:1035A000460E0901AD27AA0EAE23010EAD25016E10
:1035B000000EAE2101C024F0256E266A276AAA6B90
:1035C000AA512C0828E327C003F026C002F025C02A
:1035D00001F024C000F0010E2426D8B0252AD8B46A
:1035E000262AD8B4272A01C0AEF900C0ADF9036A73
:1035F000AA510C0FE96E010E0320EA6EEFCFAFF96E
:1036000001C0BCF900C0BBF9AFC9BDF90001A5DC20
:103610000901AA2BD5D725C0BCF924C0BBF9BD6BC5
:1036200000019BDC27C0B0F926C0AFF925C0AEF978
:1036300024C0ADF91E0E0901B16F000111DD0101B9
:103640000B6B320E0901B96F010EBB6F0C0EBA6F16
:103650000001A8EC15F00D0E0901CF6F0001F5EC8B
:1036600009F00A0E0901CF6F0001F5EC09F0CC0E4C
:10367000F66E020EF76E8AEC0AF00D0E0901CF6F9E
:103680000001F5EC09F00A0E0901CF6F0001F5EC1D
:1036900009F01AEF1CF00901AD6BAC6BAE6BAF6BB0
:1036A000ABC9ADF9AAC9ACF9ACC9AEF9AD51AF6FB0
:1036B000BC6B280EBB6FAEC9BDF900014EDC090121
:1036C000BC6B290EBB6FAFC9BDF9000146DC12000F
:1036D0000801EE6BED6B0101082D0DD0080171534F
:1036E00004E10001CEEC0EF005D000019BEC13F0DC
:1036F00001C0F3F80101092D0CD00801715304E158
:103700000001CEEC0EF005D000019BEC13F001C0DF
:10371000F3F8080156530FE155530DE154530BE1F3
:103720005351040808E3010E5327D8B0542BD8B4E2
:10373000552BD8B4562B535105082AE1545328E190
:10374000555326E1565324E1692D03D00001C7D417
:103750000801030EEA6ED50EE96E006A030E026ED2
:10376000520E016E0001E7DE070EEA6E270EE96ECB
:10377000006A010E026E2C0E016EDDDE08016A6B1E
:10378000010E5327D8B0542BD8B4552BD8B4562B90
:103790000901B46B940EB36F00011BEC15F001C06E
:1037A0003EF1020E0901B06FBC0EAF6FB26B3EC1AD
:1037B000B1F9000197EC15F002C003F0FC51025C76
:1037C00007E303E10150FB5D03E2FB2BD8B4FC2BC4
:1037D000020E0901B06FBC0EAF6FB26B3EC1B1F902
:1037E000000197EC15F002C003F00150FB5D4EE1C3
:1037F0000350FC5D4BE16FEC15F002C0F2F801C024
:10380000F1F80901B06B7C0EAF6FF2C8B2F9F1C8E4
:10381000B1F9000197EC15F002C0ABF901C0AAF9AB
:1038200009010250AA0813E303E1AA5145080FE376
:1038300000018ED6010E0801F127000EF223F2C816
:10384000ABF9F1C8AAF9000126DF09D00901920EEF
:10385000F66E380EF76E00018AEC0AF017D0A20E51
:10386000F66E380EF76E8AEC0AF0B20EF66E380E6F
:10387000F76E8AEC0AF00801686B0001FB2BD8B4E4
:10388000FC2B0101096B94948B940001F29442EF9C
:1038900000F00D0A46756C6C206D656D6F72790DC8
:1038A0000A000D0A536176696E672050494E0D0A71
:1038B00000000D0A6E657874207472616E73616326
:1038C00074696F6E0D0A000070617373776F7264B4
:1038D0003A00204F4B0A0D0020580A0D0000948634
:1038E0009488F19E6DEF2EF00801CD6BCA51CD5D2D
:1038F00027E2036ACD51CB25016ECC51032201C0D2
:10390000CEF803C0CFF8CD51C925D06F196AF2BEE9
:10391000198EF29E0901B46BB36F00011BEC15F018
:1039200019BEF28ECFC8EAFFCEC8E9FF01C0EFFF93
:103930001A0E006E002EFED700000801CD2BD6D740
:10394000000112000801E26BDF51E25D23E2E25167
:10395000DE25E36F036AE251E025E96EE1510320C1
:10396000EA6EEFCFE4F8196AF2BE198EF29E0901F1
:10397000BC6BE3C8BBF9E4C8BDF90001ADEC17F0BE
:1039800019BEF28E1A0E006E002EFED7000008013E
:10399000E22BDAD7000112000801C96B140ECA6FBE
:1039A000CC6B550ECB6F00019FDF553C22D0563CAF
:1039B00020D0643D1ED0EA6A2D0EE96E000E69EC3F
:1039C00000F00A000900F550EE6E0009FBE1080165
:1039D000DE6B140EDF6FE16B2D0EE06F0001B2DFC6
:1039E0000801C96B140ECA6FCC6B550ECB6F00016A
:1039F0007BDF1200196AF2BE198EF29E0901B16BCB
:103A00000001B6EC14F019BEF28E01C093F8080163
:103A1000939F94880A0E006E002EFED794860B0E9C
:103A2000006E002EFED78B9894980A0E006E002E22
:103A3000FED78B969496196AF2BE198EF29ED00E1E
:103A40000901C26F000146EC14F019BEF28E196A2A
:103A5000F2BE198EF29E0901C26B000146EC14F011
:103A600019BEF28E196AF2BE198EF29E93C8C2F97F
:103A700046EC14F019BEF28E94880A0E006E002EE9
:103A8000FED794860B0E006E002EFED782A6FED7C0
:103A90008B9894980A0E006E002EFED78B96949603
:103AA000196AF2BE198EF29ED00E0901C26F000192
:103AB00046EC14F019BEF28E196AF2BE198EF29E0F
:103AC000070E0901C26F000146EC14F019BEF28E18
:103AD000196AF2BE198EF29E800E0901C26F0001B2
:103AE00046EC14F019BEF28E94980000948682A6DB
:103AF000FED70A0E006E002EFED700D0000094887C
:103B00000A0E006E002EFED78DEF2EF00801976B87
:103B1000966B956B946B9B6B9A6B996B986B9F6B89
:103B20009E6B9D6B9C6BA36BA26BA16BA06BA76B39
:103B3000A66BA56BA46B196AF2BE198EF29E0901E1
:103B4000B46B93C8B3F900011BEC15F019BEF28EEB
:103B5000080101C098F8996B9A6B9B6B010E932535
:103B6000A86F196AF2BE198EF29E0901B46BB36F89
:103B700000011BEC15F019BEF28E08019F6B9E6BC5
:103B80009D6B01C09CF89EC89FF89DC89EF89CC87C
:103B90009DF89C6B020E9325A86F196AF2BE198ED0
:103BA000F29E0901B46BB36F00011BEC15F019BE56
:103BB000F28E0801A36BA26BA16B01C0A0F8A1C893
:103BC000A3F8A0C8A2F8A06BA16B030E9325A86F61
:103BD000196AF2BE198EF29E0901B46BB36F00012F
:103BE0001BEC15F019BEF28E0801A76BA66BA56B36
:103BF00001C0A4F8A4C8A7F8A46BA56BA66BA45138
:103C0000A011A86FA551A111A96FA651A211AA6F69
:103C1000A751A311AB6F9C51A8139D51A9139E519D
:103C2000AA139F51AB13A8519811946FA9519911E0
:103C3000956FAA519A11966FAB519B11976F94C8CB
:103C400000F095C801F096C802F097C803F0000193
:103C50001200948282B2FED7080E006E0801D26B69
:103C6000008E10D0009E0ED0D2C802F0D89082B242
:103C7000D8800232008C06D0009C002EF7D702C0FC
:103C800001F00CD0100E00BE040E016E012EFED706
:103C900000D000BEE7D700BCEFD7E8D70001120084
:103CA0000801D06BCF6BD16BD053D8A491D0CA513F
:103CB000CF5DD8B08DD0D153D8A48AD00001C9DF50
:103CC00001C0CDF80801CD517F0A000103E0720A5E
:103CD00028E046D00801CF5302E1D05315E0196A1D
:103CE000F2BE198EF29E7F0E0901CF6F0001F5EC36
:103CF00009F019BEF28E0801CF51D8B4D007CF0712
:103D00000001A7DF0DD00801196AF2BE198EF29EDC
:103D1000070E0901CF6F0001F5EC09F019BEF28E14
:103D200055D00101086BFF0E926ECFC8CEF8080186
:103D3000CA51CE5D0AE2036ACE51CB25E96ECC5161
:103D40000320EA6EEF6ACE2BF3D7CF5305E1D053B1
:103D500003E1000E016E3ED0010ED16F000136D09E
:103D60000801CD511F0833E2CD517E0830E3010E2A
:103D7000CA5DD0532CE1CF5D2AE2CB51CF25E96E4D
:103D8000CC51D021EA6ECDC8EFFFCF2BD8B4D02BC9
:103D9000C92D0DD0196AF2BE198EF29ECDC8CFF989
:103DA0000001F5EC09F019BEF28E10D00801C951DE
:103DB00002080DE1196AF2BE198EF29E2A0E09015F
:103DC000CF6F0001F5EC09F019BEF28E08016CD737
:103DD000CFC801F000011200CAC8CEF8C9C8CDF89A
:103DE000CCC8D0F8CBC8CFF8CEC803F00801CDC8F6
:103DF000E9FFCEC8EAFFEF5223E0D0C803F0CFC8F6
:103E0000E9FFD0C8EAFFEF521BE0CDC8E9FFCEC8FA
:103E1000EAFFEFCFD1F8D0C803F0CFC8E9FFD0C890
:103E2000EAFFEF50D15D03E0010E016E1FD0CD2BF4
:103E3000D8B4CE2BCF2BD8B4D02B0001D5D70801C6
:103E4000CEC803F0CDC8E9FFCEC8EAFFEFCFD1F866
:103E5000D0C803F0CFC8E9FFD0C8EAFFEF50D15D6A
:103E600003E0010E016E02D0000E016E000112008F
:103E7000EF5216E0EACFCAF8E9CFC9F8196AF2BEE4
:103E8000198EF29EEFCFCFF9F5EC09F019BEF28E44
:103E9000CAC8EAFFC9C8E9FFE92AD8B4EA2AE8D7BC
:103EA00059EF23F00801CD51CB25D36FCE51CC2152
:103EB000D46FA90808E2FF0A03E1D351450803E2E1
:103EC000000E016E30D0D26BD16BD251CE5D2BE3A0
:103ED00003E1CD51D15D27E2CF51D125016ED05103
:103EE000D221036E01C0D3F8D46FD151CB25D56F49
:103EF000D251CC21D66F196AF2BE198EF29EE8CF4C
:103F0000B4F9D5C8B3F900011BEC15F019BEF28E57
:103F1000D4C8EAFFD3C8E9FF01C0EFFF0801D12BE5
:103F2000D8B4D22BD2D7000107EF24F0EACFD1F8D2
:103F3000E9CFD0F80801CAAF08D0D08FD0A9D02BD4
:103F4000C91FCA1FC92BD8B4CA2BCA39F009CC6FF4
:103F5000CC27E20FCD6F320FCF6FCA510F0BCD2799
:103F6000CD27CF27E90FCE6FCE27CE27C9390F0B2C
:103F7000CE27CF27CE37CF37CF1FCF37C9510F0B23
:103F8000CF27CC37070ECB6F0A0ECE07CF27FDE326
:103F9000CD07CE27FDE3CC07CD27FDE3CB07CC270C
:103FA000FDE3080EEA6ECB0EE96E070ED015D09D2C
:103FB000E906D01507E1D0B9E92AD0B903D0200E1F
:103FC000006E1CD0E926CF0EE95CD8B4D08DEF503E
:103FD000006E08E1D0BD06D0D0B924D0D0B702D051
:103FE000200E0BD0D0AF06D02D0E006EED50D09D20
:103FF000D09F04D0D087D099300E0026EACFCAF8DF
:10400000E9CFC9F8196AF2BE198EF29E00C0CFF945
:104010000001F5EC09F019BEF28ECAC8EAFFC9C862
:10402000E9FF0801EE50D0ADCED700010FEF24F02C
:10403000200E0801CAA9300ECB6FC9C800F0C9AF65
:1040400008D0001E002A00C0C9F82D0ECB6FCA8F01
:10405000CA810150196AF2BE198EF29EC9C8B3F91D
:10406000640E0901B46F00019AEC0AF019BEF28ED9
:1040700000C0C9F8300E01240801CC6F196AF2BEE5
:10408000198EF29EC9C8B3F90A0E0901B46F000176
:104090009AEC0AF019BEF28E300E00240801CE6FA1
:1040A000300E0124CD6FCBC800F0300ECC5D04E0A3
:1040B000CA83CABFCA8512D0CAB510D0CBC8CCF843
:1040C000CAB304D0300ECD5D04E0CA81CABFCA8332
:1040D00005D0D8A4CA81D8B4CCC8CDF8CAB505D00B
:1040E000CAB30FD0CAB119D024D0196AF2BE198E42
:1040F000F29ECBC8CFF90001F5EC09F019BEF28EA3
:104100000801196AF2BE198EF29ECCC8CFF90001DF
:10411000F5EC09F019BEF28E0801196AF2BE198E8B
:10412000F29ECDC8CFF90001F5EC09F019BEF28E70
:104130000801196AF2BE198EF29ECEC8CFF90001AD
:10414000F5EC09F019BEF28E1200AA0E0801CA6F32
:10415000470EC96F275209E1265207E1CA51255C73
:1041600018E303E12450C95D14E2196AF2BE198E06
:10417000F29ECAC8BCF9C9C8BBF90901BD6B0001F0
:10418000ADEC17F019BEF28E0801C92BD8B4CA2BBA
:10419000E1D7CA6B960EC96F235209E1225207E19B
:1041A000CA51215C18E303E12050C95D14E2196A89
:1041B000F2BE198EF29ECAC8BCF9C9C8BBF9090182
:1041C000BD6B0001ADEC17F019BEF28E0801C92BD2
:1041D000D8B4CA2BE1D7236A226A216A960E206ED0
:1041E000276A266AAA0E256E470E246E196AF2BE49
:1041F000198EF29E23C0B0F922C0AFF921C0AEF9EA
:1042000020C0ADF9190E0901B16F000130EC18F0B2
:1042100019BEF28E196AF2BE198EF29E27C0B0F94D
:1042200026C0AFF925C0AEF924C0ADF91E0E0901B4
:10423000B16F000130EC18F019BEF28E196AF2BEAF
:10424000198EF29E0901AB6BAA6B00014BEC1BF0BF
:1042500019BEF28E196AF2BE198EF29E6FEC15F03D
:1042600019BEF28E02C0FAF001C0F9F088EF25F015
:104270000801CA6B960EC96FC93D03D0CA3D01D073
:1042800014D0196AF2BE198EF29ECAC8BCF9C9C808
:10429000BBF90901BD6B0001ADEC17F019BEF28E40
:1042A0000801C92BD8B4CA2BE7D7236A226A216A2E
:1042B000960E206E276A266AAA0E256E470E246E79
:1042C000196AF2BE198EF29E23C0B0F922C0AFF96E
:1042D00021C0AEF920C0ADF9190E0901B16F00017E
:1042E00030EC18F019BEF28E196AF2BE198EF29EE9
:1042F00027C0B0F926C0AFF925C0AEF924C0ADF98A
:104300001E0E0901B16F000130EC18F019BEF28EDB
:10431000196AF2BE198EF29E0901AB6BAA6B0001FD
:104320004BEC1BF019BEF28EBBEF25F00801DD6BE4
:10433000DD5113080AE3036ADD51C90FE96E080E67
:104340000320EA6EEF68DD2BF3D7DE6B140EDF6F10
:10435000080EE16FC90EE06F0001A2EC1CF0EEEF59
:1043600025F0196AF2BE198EF29E0901BC6B940EFB
:10437000BB6F0F0EBD6F0001ADEC17F019BEF28ED2
:10438000196AF2BE198EF29E0901BC6B950EBB6FC5
:10439000640EBD6F0001ADEC17F019BEF28E196A04
:1043A000F2BE198EF29E0901BC6B7E0EBB6F020E2F
:1043B000BD6F0001ADEC17F019BEF28E196AF2BEA6
:1043C000198EF29E0901BC6B910EBB6F010EBD6F81
:1043D0000001ADEC17F019BEF28E196AF2BE198E0B
:1043E000F29E0901B46B910EB36F00011BEC15F046
:1043F00019BEF28E01C071F84CEF26F00150196A17
:10440000F2BE198EF29EC9C8B3F9640E0901B46FE9
:1044100000019AEC0AF019BEF28E00C0C9F80150F2
:10442000300E08E10801CAA316D0CAB714D0CAB921
:10443000200E04D00801CA97CA99CA810126196AB8
:10444000F2BE198EF29E01C0CFF90001F5EC09F021
:1044500019BEF28E0801196AF2BE198EF29EC9C801
:10446000B3F90A0E0901B46F00019AEC0AF019BE03
:10447000F28E00C0C9F80150300E08E10801CAB739
:1044800011D0CAA10FD0CAB9200E00010126196AA5
:10449000F2BE198EF29E01C0CFF9F5EC09F019BEFB
:1044A000F28E0801300EC927196AF2BE198EF29EEB
:1044B000C9C8CFF90001F5EC09F019BEF28E8DEFF5
:1044C00027F00801CB6BCAC803F0C951C92BD8B477
:1044D000CA2BE96E03C0EAFFEFCFCDF8CD5311E050
:1044E000CD512F0807E2CD51390804E3300ECD5DE0
:1044F000CC6F01D006D0CB510A0DF350CC25CB6F39
:10450000E2D7036ACBC801F003C002F00001120039
:1045100094880A0E006E002EFED794860B0E006E55
:10452000002EFED78B9894980A0E006E002EFED7B0
:104530008B9694961A0E006E002EFED70000196A14
:10454000F2BE198EF29ED00E0901C26F000146EC38
:1045500014F019BEF28E1A0E006E002EFED7000067
:10456000196AF2BE198EF29ED0C8C2F946EC14F058
:1045700019BEF28E1A0E006E002EFED70000196AC8
:10458000F2BE198EF29ED1C8C2F946EC14F019BEE3
:10459000F28E94980000948682A6FED70A0E006ED2
:1045A000002EFED700D0000094880A0E006E002E68
:1045B000FED71A0E006E002EFED700001200196AF8
:1045C000F2BE198EF29ECFC8B3F90A0E0901B46F7C
:1045D00000019AEC0AF019BEF28E01C0D0F8080171
:1045E000D0510A0DF350CF5DD16FD039006EF00E6F
:1045F00000160050D111016E000112000801D06BAD
:10460000D16B000185DFCEC8CFF8D9DF01C0CFF86C
:10461000010E0801D06F01C0D1F8000179DFCDC8CB
:10462000CFF8CDDF01C0CFF8020E0801D06F01C076
:10463000D1F800016DDFCCC8CFF8C1DF01C0CFF8E1
:10464000030E0801D06F01C0D1F8000161DFC9C8B5
:10465000CFF8B5DF01C0CFF8040E0801D06F01C05C
:10466000D1F8000155DFCAC8CFF8A9DF01C0CFF8E3
:10467000050E0801D06F01C0D1F8000149DFCBC899
:10468000CFF89DDF01C0CFF8060E0801D06F01C042
:10469000D1F800013DDF070E0801D06FD16B00019A
:1046A00037DF37EF29F0080EEA6E760EE96E38EF45
:1046B0001FF0196AF2BE198EF29E3E0E0901CF6FED
:1046C0000001F5EC09F019BEF28E010E0801C96F68
:1046D000140ECA6F010ECC6F460ECB6F000150EC6A
:1046E0001EF0196AF2BE198EF29E0A0E0901CF6FF2
:1046F0000001F5EC09F019BEF28E196AF2BE198EAE
:10470000F29E0D0E0901CF6F0001F5EC09F019BE04
:10471000F28EEA6A410EE96E000E86EC00F00A00A5
:104720000900F550EE6E0009FBE10801936B6C6B1C
:104730006E6B010E6D6FCA6F460EC96FCC6B410E6A
:10474000CB6F0001ECEC1EF00152D8A4BAD10801E5
:10475000C86BC76B00017D6B196AF2BE198EF29EA1
:104760006FEC15F019BEF28E02C070F801C06FF840
:10477000196AF2BE198EF29E6EC8B0F96DC8AFF913
:104780000901B26B7C0EB16F000197EC15F019BEF8
:10479000F28E02C0C8F801C0C7F80801756B746BCF
:1047A000AA0E736F470E726F6E51705DD8A088D1DC
:1047B00004E16D516F5DD8A083D1196AF2BE198EE4
:1047C000F29E6EC8B0F96DC8AFF90901B26B7C0EEC
:1047D000B16F000197EC15F019BEF28E960E08012C
:1047E0000124C76F000E0220C86F7C0EC75DC96F21
:1047F000000EC859CA6FCC6FC9C8CBF8CE6B7C0EFF
:10480000CD6FD06B7D0ECF6F000152EF1FF0100EF9
:10481000E96E6EC8CAF86DC8C9F896EF1FF0196A3C
:10482000F2BE198EF29E290E0901CF6F0001F5EC40
:1048300009F019BEF28E7DC0C9F8010E0801CA6FD9
:10484000000118EC20F0196AF2BE198EF29E2F0EAC
:104850000901CF6F0001F5EC09F019BEF28E7EC0A0
:10486000C9F8010E0801CA6F000118EC20F0196A9E
:10487000F2BE198EF29E200E0901CF6F0001F5ECF9
:1048800009F019BEF28E7FC0C9F8010E0801CA6F87
:10489000000118EC20F0196AF2BE198EF29E3A0E51
:1048A0000901CF6F0001F5EC09F019BEF28E80C04E
:1048B000C9F8010E0801CA6F000118EC20F0196A4E
:1048C000F2BE198EF29E3A0E0901CF6F0001F5EC8F
:1048D00009F019BEF28E81C0C9F8010E0801CA6F35
:1048E000000118EC20F008016C6B936B040EF66E5F
:1048F0001A0EF76E196AF2BE198EF29E00018AEC4A
:104900000AF019BEF28E080193514E0824E36C514F
:104910003F0821E0050E9325036A7D0FE96E000E26
:104920000320EA6EEFCF6CF86C511F080FE26C5158
:104930007E080CE3196AF2BE198EF29E6CC8CFF99C
:104940000001F5EC09F019BEF28E0801932B6C53AF
:1049500001E101D0D9D7160EF66E1A0EF76E196A5C
:10496000F2BE198EF29E00018AEC0AF019BEF28E98
:104970000801936B6C6B9351270825E36C513F083A
:1049800022E0050E93254F0F036A7D0FE96E000E9E
:104990000320EA6EEFCF6CF86C511F080FE26C51E8
:1049A0007E080CE3196AF2BE198EF29E6CC8CFF92C
:1049B0000001F5EC09F019BEF28E0801932B6C533F
:1049C00001E101D0D8D7936B280EF66E1A0EF76E60
:1049D000196AF2BE198EF29E00018AEC0AF019BE25
:1049E000F28E08017551275CD8A066D00BE1745196
:1049F000265C62E307E17351255C5EE303E124502A
:104A0000725D5AE2946B94517225C96F000E732146
:104A1000CA6F196AF2BE198EF29EE8CFB4F9C9C8FE
:104A2000B3F900011BEC15F019BEF28E01C06CF851
:104A300008016C512F0803E26C5139080CE26C51EB
:104A4000230809E06C512A0806E06C5140080FE287
:104A50006C5148080CE3196AF2BE198EF29E6CC8BC
:104A6000CFF90001F5EC09F019BEF28E0801942B84
:104A70009451310802E36C53C6E1320E7227000EE6
:104A8000732374237523196AF2BE198EF29E0A0EDF
:104A90000901CF6F0001F5EC09F019BEF28E196A19
:104AA000F2BE198EF29E0D0E0901CF6F0001F5ECDA
:104AB00009F019BEF28E08016D2BD8B46E2B74D696
:104AC0000001EA6A410EE96E000E8FEC00F00A0068
:104AD0000900F550EE6E0009FBE1010E0801CA6FF6
:104AE000460EC96FCC6B410ECB6F0001ECEC1EF093
:104AF00001521AE1380EF66E1A0EF76E196AF2BEFE
:104B0000198EF29E8AEC0AF019BEF28EA5EF20F003
:104B1000460EF66E1A0EF76E196AF2BE198EF29EE6
:104B20008AEC0AF019BEF28EEA6A410EE96E000EB6
:104B300098EC00F00A000900F550EE6E0009FBE168
:104B4000010E0801CA6F460EC96FCC6B410ECB6FC8
:104B50000001ECEC1EF001521AE14E0EF66E1A0E38
:104B6000F76E196AF2BE198EF29E8AEC0AF019BE2F
:104B7000F28E38EF21F05C0EF66E1A0EF76E196A9F
:104B8000F2BE198EF29E8AEC0AF019BEF28EEA6A23
:104B9000410EE96E000EA3EC00F00A000900F5508A
:104BA000EE6E0009FBE1010E0801CA6F460EC96FE7
:104BB000CC6B410ECB6F0001ECEC1EF001521CE1FE
:104BC000640EF66E1A0EF76E196AF2BE198EF29E18
:104BD0008AEC0AF019BEF28E96EF21F0CCEC1CF0B4
:104BE0007A0EF66E1A0EF76E196AF2BE198EF29EE2
:104BF0008AEC0AF019BEF28EEA6A410EE96E000EE6
:104C0000AEEC00F00A000900F550EE6E0009FBE181
:104C1000010E0801CA6F460EC96FCC6B410ECB6FF7
:104C20000001ECEC1EF0015210E1010E0101086FD1
:104C3000820EF66E1A0EF76E196AF2BE198EF29E89
:104C400000018AEC0AF019BEF28EEA6A410EE96EA2
:104C5000000EB9EC00F00A000900F550EE6E0009F4
:104C6000FBE1010E0801CA6F460EC96FCC6B410E05
:104C7000CB6F0001ECEC1EF001520EE1960EF66EC9
:104C80001A0EF76E196AF2BE198EF29E8AEC0AF0BD
:104C900019BEF28EB1EF21F0EA6A410EE96E000E04
:104CA000C5EC00F00A000900F550EE6E0009FBE1CA
:104CB000010E0801CA6F460EC96FCC6B410ECB6F57
:104CC0000001ECEC1EF0015213E108016B6B0101D5
:104CD000086BFF0E926EA60EF66E1A0EF76E196A2C
:104CE000F2BE198EF29E00018AEC0AF019BEF28E15
:104CF000EA6A410EE96E000ECEEC00F00A000900EF
:104D0000F550EE6E0009FBE1010E0801CA6F460E78
:104D1000C96FCC6B410ECB6F0001ECEC1EF0015261
:104D200030E1AE0EF66E1A0EF76E196AF2BE198EEB
:104D3000F29E8AEC0AF019BEF28E010E0801C96FCC
:104D4000100ECA6F080ECC6F760ECB6F000150ECC0
:104D50001EF0660E0801DE6F100EDF6F080EE16FA9
:104D6000760EE06F0001A2EC1CF0C00EF66E1A0E7B
:104D7000F76E196AF2BE198EF29E8AEC0AF019BE1D
:104D8000F28EEA6A410EE96E000ED7EC00F00A00DE
:104D90000900F550EE6E0009FBE1010E0801CA6F33
:104DA000460EC96FCC6B410ECB6F0001ECEC1EF0D0
:104DB0000152D8A42ED1040E0901B16F0001B6EC46
:104DC00014F001C0ADF901C0B2F902EC15F001C058
:104DD00000F1050E0901B16F0001B6EC14F001C03D
:104DE000ADF901C0B2F902EC15F001C0FFF0060EFA
:104DF0000901B16F0001B6EC14F001C0ADF901C0BA
:104E0000B2F902EC15F001C0FEF0030E0901B16F1A
:104E10000001B6EC14F001C0ADF901C0B2F902EC2A
:104E200015F001C0FDF0020E0901B16F0001B6ECF2
:104E300014F001C0ADF901C0B2F902EC15F001C0E7
:104E400001F1010E0901B16F0001B6EC14F001C0CF
:104E5000ADF901C0B2F902EC15F001C002F109018F
:104E6000B16B0001B6EC14F001C0ADF901C0B2F9AC
:104E700002EC15F001C003F1196AF2BE198EF29E20
:104E80000901B46B910EB36F00011BEC15F019BE54
:104E9000F28E01C071F8080171530FE1C60EF66E73
:104EA0001A0EF76E196AF2BE198EF29E00018AEC94
:104EB0000AF019BEF28E0ED00801CA0EF66E1A0E56
:104EC000F76E196AF2BE198EF29E00018AEC0AF0A2
:104ED00019BEF28E196AF2BE198EF29E0901B46BE8
:104EE000940EB36F00011BEC15F019BEF28E01C0D9
:104EF0003EF1196AF2BE198EF29E5B0E0901CF6F68
:104F00000001F5EC09F019BEF28E3EC1C9F81B0E86
:104F10000801CA6F0001FEEF21F0196AF2BE198E76
:104F2000F29E5D0E0901CF6F0001F5EC09F019BE8C
:104F3000F28E00C1C9F8010E0801CA6F000118EC19
:104F400020F0196AF2BE198EF29E2F0E0901CF6F62
:104F50000001F5EC09F019BEF28EFFC0C9F8010E90
:104F60000801CA6F000118EC20F0196AF2BE198E10
:104F7000F29E200E0901CF6F0001F5EC09F019BE79
:104F8000F28E01C1C9F8010E0801CA6F000118ECC8
:104F900020F0196AF2BE198EF29E3A0E0901CF6F07
:104FA0000001F5EC09F019BEF28E02C1C9F8010E3C
:104FB0000801CA6F000118EC20F0196AF2BE198EC0
:104FC000F29E3A0E0901CF6F0001F5EC09F019BE0F
:104FD000F28E03C1C9F8010E0801CA6F000118EC76
:104FE00020F0196AF2BE198EF29E0A0E0901CF6FE7
:104FF0000001F5EC09F019BEF28E196AF2BE198EA5
:10500000F29E0D0E0901CF6F0001F5EC09F019BEFB
:10501000F28EEA6A410EE96E000EE0EC00F00A0042
:105020000900F550EE6E0009FBE1010E0801CA6FA0
:10503000460EC96FCC6B410ECB6F0001ECEC1EF03D
:105040000152D8A414D1CE0EF66E1A0EF76E196A5C
:10505000F2BE198EF29E8AEC0AF019BEF28E010E93
:105060000801C96F030ECA6F080ECC6F950ECB6F87
:10507000000150EC1EF0080E0801CA6F950EC96FB2
:10508000000161EC22F001C0FEF0D40EF66E1A0EA3
:10509000F76E196AF2BE198EF29E8AEC0AF019BEFA
:1050A000F28E010E0801C96F030ECA6F080ECC6F95
:1050B000950ECB6F000150EC1EF0080E0801CA6F70
:1050C000950EC96F000161EC22F001C0FFF0DC0E0B
:1050D000F66E1A0EF76E196AF2BE198EF29E8AECFF
:1050E0000AF019BEF28E010E0801C96F030ECA6FD5
:1050F000080ECC6F950ECB6F000150EC1EF0080E21
:105100000801CA6F950EC96F000161EC22F001C061
:1051100000F1E20EF66E1A0EF76E196AF2BE198EE3
:10512000F29E8AEC0AF019BEF28E010E0801C96FD8
:10513000030ECA6F080ECC6F950ECB6F000150ECBA
:105140001EF0080E0801CA6F950EC96F000161ECD0
:1051500022F001C0FDF0E80EF66E1A0EF76E196A25
:10516000F2BE198EF29E8AEC0AF019BEF28E010E82
:105170000801C96F030ECA6F080ECC6F950ECB6F76
:10518000000150EC1EF0080E0801CA6F950EC96FA1
:10519000000161EC22F001C001F1EE0EF66E1A0E74
:1051A000F76E196AF2BE198EF29E8AEC0AF019BEE9
:1051B000F28E010E0801C96F030ECA6F080ECC6F84
:1051C000950ECB6F000150EC1EF0080E0801CA6F5F
:1051D000950EC96F000161EC22F001C002F1F80EDA
:1051E000F66E1A0EF76E196AF2BE198EF29E8AECEE
:1051F0000AF019BEF28E010E0801C96F030ECA6FC4
:10520000080ECC6F950ECB6F000150EC1EF0080E0F
:105210000801CA6F950EC96F000161EC22F001C050
:1052200003F1196AF2BE198EF29E0A0E0901CF6FC0
:105230000001F5EC09F019BEF28E196AF2BE198E62
:10524000F29E0D0E0901CF6F0001F5EC09F019BEB9
:10525000F28E00C1C9F8FFC0CAF8FEC0CBF8FDC08D
:10526000CCF801C1CDF802C1CEF8FEEF22F0EA6A17
:10527000410EE96E000EEAEC00F00A000900F5505C
:10528000EE6E0009FBE1010E0801CA6F460EC96F00
:10529000CC6B410ECB6F0001ECEC1EF00152D8A498
:1052A00087D0020EF66E1B0EF76E196AF2BE198ECB
:1052B000F29E8AEC0AF019BEF28E196AF2BE198EBD
:1052C000F29E0A0E0901CF6F0001F5EC09F019BE3C
:1052D000F28E196AF2BE198EF29E0D0E0901CF6F81
:1052E0000001F5EC09F019BEF28E220EF66E1B0ECF
:1052F000F76E196AF2BE198EF29E8AEC0AF019BE98
:10530000F28E196AF2BE198EF29E0A0E0901CF6F53
:105310000001F5EC09F019BEF28E196AF2BE198E81
:10532000F29E0D0E0901CF6F0001F5EC09F019BED8
:10533000F28E010E0801C96F030ECA6F080ECC6F02
:10534000950ECB6F000150EC1EF0080E0801CA6FDD
:10535000950EC96F000161EC22F001C071F8196A65
:10536000F2BE198EF29E0901BC6B910EBB6F71C823
:10537000BDF90001ADEC17F019BEF28EFF0E926E72
:10538000196AF2BE198EF29E0A0E0901CF6F000152
:10539000F5EC09F019BEF28E196AF2BE198EF29E72
:1053A0000D0E0901CF6F0001F5EC09F019BEF28E68
:1053B000EA6A410EE96E000EF4EC00F00A00090002
:1053C000F550EE6E0009FBE1010E0801CA6F460EB2
:1053D000C96FCC6B410ECB6F0001ECEC1EF001529B
:1053E00061E1420EF66E1B0EF76E196AF2BE198E5F
:1053F000F29E8AEC0AF019BEF28E196AF2BE198E7C
:10540000F29E0A0E0901CF6F0001F5EC09F019BEFA
:10541000F28E196AF2BE198EF29E0D0E0901CF6F3F
:105420000001F5EC09F019BEF28E010E0801C96FFA
:10543000030ECA6F080ECC6F950ECB6F000150ECB7
:105440001EF0080E0801CA6F950EC96F000161ECCD
:1054500022F001C03EF1196AF2BE198EF29E0901D6
:10546000BC6B940EBB6F3EC1BDF90001ADEC17F0F3
:1054700019BEF28E196AF2BE198EF29E0A0E090149
:10548000CF6F0001F5EC09F019BEF28E196AF2BE79
:10549000198EF29E0D0E0901CF6F0001F5EC09F097
:1054A00019BEF28EEA6A410EE96E000E01EC01F0BF
:1054B0000A000900F550EE6E0009FBE1010E08013B
:1054C000CA6F460EC96FCC6B410ECB6F0001ECEC7E
:1054D0001EF0015261E1500EF66E1B0EF76E196A56
:1054E000F2BE198EF29E8AEC0AF019BEF28E196A8B
:1054F000F2BE198EF29E0A0E0901CF6F0001F5EC83
:1055000009F019BEF28E196AF2BE198EF29E0D0EC6
:105510000901CF6F0001F5EC09F019BEF28E010E02
:105520000801C96F030ECA6F080ECC6F950ECB6FC2
:10553000000150EC1EF0080E0801CA6F950EC96FED
:10554000000161EC22F001C007F1196AF2BE198E68
:10555000F29E0901BC6B950EBB6F07C1BDF900013E
:10556000ADEC17F019BEF28E196AF2BE198EF29EDA
:105570000A0E0901CF6F0001F5EC09F019BEF28E99
:10558000196AF2BE198EF29E0D0E0901CF6F00014D
:10559000F5EC09F019BEF28EEA6A410EE96E000ED2
:1055A0000DEC01F00A000900F550EE6E0009FBE178
:1055B000010E0801CA6F460EC96FCC6B410ECB6F4E
:1055C0000001ECEC1EF0015261E15E0EF66E1B0E66
:1055D000F76E196AF2BE198EF29E8AEC0AF019BEB5
:1055E000F28E196AF2BE198EF29E0A0E0901CF6F71
:1055F0000001F5EC09F019BEF28E196AF2BE198E9F
:10560000F29E0D0E0901CF6F0001F5EC09F019BEF5
:10561000F28E010E0801C96F030ECA6F080ECC6F1F
:10562000950ECB6F000150EC1EF0080E0801CA6FFA
:10563000950EC96F000161EC22F001C0C9F8196A2A
:10564000F2BE198EF29E0901BC6B7E0EBB6F01C0CB
:10565000BDF90001ADEC17F019BEF28E196AF2BE69
:10566000198EF29E0A0E0901CF6F0001F5EC09F0C8
:1056700019BEF28E196AF2BE198EF29E0D0E090144
:10568000CF6F0001F5EC09F019BEF28EEA6A410E07
:10569000E96E000E19EC01F00A000900F550EE6EFB
:1056A0000009FBE1010E0801CA6F460EC96FCC6B01
:1056B000410ECB6F0001ECEC1EF00152D8A4FED0DD
:1056C0006C0EF66E1B0EF76E196AF2BE198EF29E04
:1056D0008AEC0AF019BEF28E780EF66E1B0EF76E8B
:1056E000196AF2BE198EF29E8AEC0AF019BEF28E89
:1056F0008A0EF66E1B0EF76E196AF2BE198EF29EB6
:105700008AEC0AF019BEF28E9C0EF66E1B0EF76E36
:10571000196AF2BE198EF29E8AEC0AF019BEF28E58
:10572000BC0EF66E1B0EF76E196AF2BE198EF29E53
:105730008AEC0AF019BEF28ED80EF66E1B0EF76ECA
:10574000196AF2BE198EF29E8AEC0AF019BEF28E28
:10575000E60EF66E1B0EF76E196AF2BE198EF29EF9
:105760008AEC0AF019BEF28EF20EF66E1B0EF76E80
:10577000196AF2BE198EF29E8AEC0AF019BEF28EF8
:105780001E0EF66E1C0EF76E196AF2BE198EF29E90
:105790008AEC0AF019BEF28E460EF66E1C0EF76EFB
:1057A000196AF2BE198EF29E8AEC0AF019BEF28EC8
:1057B000196AF2BE198EF29E0901B46B950EB36F91
:1057C00000011BEC15F019BEF28E01C0C9F8620E83
:1057D000F66E1C0EF76E196AF2BE198EF29E080E56
:1057E0000901C36F000118EC0AF019BEF28E196AA4
:1057F000F2BE198EF29EC9C8ADF9180E0901AE6F3E
:105800000001B0EC0AF019BEF28E6C0EF66E1C0EA2
:10581000F76E196AF2BE198EF29E170E0901C36F58
:10582000000118EC0AF019BEF28E840EF66E1C0E02
:10583000F76E196AF2BE198EF29E8AEC0AF019BE52
:10584000F28E196AF2BE198EF29E0901B46B7E0EB9
:10585000B36F00011BEC15F019BEF28E01C0C9F840
:105860009E0EF66E1C0EF76E196AF2BE198EF29E2F
:10587000070E0901C36F000118EC0AF019BEF28E81
:10588000196AF2BE198EF29EC9C8ADF9180E090147
:10589000AE6F0001B0EC0AF019BEF28EA70EF66EE4
:1058A0001C0EF76E196AF2BE198EF29E180E0901CF
:1058B000C36F000118EC0AF019BEF28EEA6A410EBD
:1058C000E96E000E22EC01F00A000900F550EE6EC0
:1058D0000009FBE1010E0801CA6F460EC96FCC6BCF
:1058E000410ECB6F0001ECEC1EF00152D8A497D012
:1058F000C00EF66E1C0EF76E196AF2BE198EF29E7D
:105900008AEC0AF019BEF28E0801C96B140ECA6F38
:10591000CC6B550ECB6F000174EC1CF0020E08012D
:10592000C96F140ECA6FCC6B690ECB6F000150ECBF
:105930001EF00801CA6B690EC96FCC6B550ECB6F98
:105940000001ECEC1EF001525EE1CE0EF66E1C0E74
:10595000F76E196AF2BE198EF29E8AEC0AF019BE31
:10596000F28E020E0801C96F140ECA6FCC6B690E5D
:10597000CB6F000150EC1EF0D60EF66E1C0EF76ECB
:10598000196AF2BE198EF29E8AEC0AF019BEF28EE6
:10599000020E0801C96F140ECA6FCC6B550ECB6F87
:1059A000000150EC1EF00801CA6B690EC96FCC6B88
:1059B000550ECB6F0001ECEC1EF0015217E108010F
:1059C000DE6B140EDF6FE16B550EE06F0001A2EC91
:1059D0001CF0E00EF66E1C0EF76E196AF2BE198E00
:1059E000F29E8AEC0AF019BEF28E0CD0E80EF66E2A
:1059F0001C0EF76E196AF2BE198EF29E8AEC0AF03E
:105A000019BEF28E0CD0F00EF66E1C0EF76E196AEF
:105A1000F2BE198EF29E8AEC0AF019BEF28EEA6A84
:105A2000410EE96E000E2FEC01F00A000900F5505E
:105A3000EE6E0009FBE1010E0801CA6F460EC96F48
:105A4000CC6B410ECB6F0001ECEC1EF00152D8A4E0
:105A500085D0F60EF66E1C0EF76E196AF2BE198E20
:105A6000F29E8AEC0AF019BEF28E196AF2BE198E05
:105A7000F29E0A0E0901CF6F0001F5EC09F019BE84
:105A8000F28E196AF2BE198EF29E0D0E0901CF6FC9
:105A90000001F5EC09F019BEF28E160EF66E1D0E21
:105AA000F76E196AF2BE198EF29E8AEC0AF019BEE0
:105AB000F28E196AF2BE198EF29E0A0E0901CF6F9C
:105AC0000001F5EC09F019BEF28E196AF2BE198ECA
:105AD000F29E0D0E0901CF6F0001F5EC09F019BE21
