:040000001CEF2BF0D6
:08000800046ED8CF05F0E0CF33
:1000100006F00001E9CF0CF0EACF07F0E1CF08F0DD
:10002000E2CF09F0D9CF0AF0DACF0BF0F3CF12F01C
:10003000F4CF13F0FACF14F0F5CF15F0F6CF16F099
:10004000F7CF17F000C00EF001C00FF002C010F0A3
:1000500003C011F0F2AA30EF00F0F2B4EFEF1DF0A0
:100060009DA036EF00F09EB069EF10F0F0A63CEFD7
:1000700000F0F0B08EEF0DF09DAA42EF00F09EBAB6
:100080003FEF10F00EC000F00FC001F010C002F002
:1000900011C003F00CC0E9FF07C0EAFF078E08C0DB
:1000A000E1FF09C0E2FF0AC0D9FF0BC0DAFF12C0AE
:1000B000F3FF13C0F4FF14C0FAFF15C0F5FF16C01C
:1000C000F6FF17C0F7FF045006C0E0FF05C0D8FFD9
:1000D0001000F76AE20FF66E000EF7220900F550E5
:1000E000120061646D696E00F76AF80FF66E000E1B
:1000F000F7220900F55012003132334142343536CF
:10010000434437383945462A30234748F76A1C0F9D
:10011000F66E010EF7220900F5501200646F6E654D
:100120000000F76A320FF66E010EF7220900F55053
:1001300012007273666163740000F76A4A0FF66E0C
:10014000010EF7220900F550120070617373776F8A
:1001500072640000F76A640FF66E010EF722090060
:10016000F550120046756C6C206D656D6F72792CC0
:1001700020706C6561736520666F726D6174206DAF
:10018000656D6F727900F76A960FF66E010EF722B1
:100190000900F550120063666D626E00F76AAC0FDD
:1001A000F66E010EF7220900F550120077726F6E9D
:1001B000672070617373776F72640000F76ACC0F09
:1001C000F66E010EF7220900F55012006B6579708A
:1001D000726573730000F76AE60FF66E010EF72280
:1001E0000900F55012006F6E0000F76AFA0FF66E04
:1001F000010EF7220900F55012006F666600F76ADB
:100200000E0FF66E020EF7220900F5501200706C08
:100210006561736520636865636B20796F75722013
:1002200073796E7461780000F76A380FF66E020E0B
:10023000F7220900F55012006D61737465720000B9
:10024000F76A500FF66E020EF7220900F550120001
:100250007472616E74696D650000F76A6A0FF66EFC
:10026000020EF7220900F55012006175746F736574
:100270006E64696E6700F76A860FF66E020EF722EB
:100280000900F550120071756C6C6600F76A9C0FDE
:10029000F66E020EF7220900F5501200666F726DBD
:1002A00061740000F76AB40FF66E020EF7220900BF
:1002B000F5501200636F756E74207472616E0000E9
:1002C000F76AD00FF66E020EF7220900F550120001
:1002D000646576696365206861732000F76AEC0FD6
:1002E000F66E020EF7220900F550120020747261BA
:1002F0006E73616374696F6E2000F76A0A0FF66EA1
:10030000030EF7220900F5501200646F776E6C6FD0
:10031000616420616C6C0000F76A280FF66E030EB2
:10032000F7220900F5501200646F776E6C6F6164FC
:100330002000F76A420FF66E030EF7220900F5500F
:10034000120044657669636520686173206F6E6C86
:1003500079200000F76A640FF66E030EF722090099
:10036000F550120020547261636B313E0000F76A51
:100370007E0FF66E030EF7220900F550120020548E
:100380007261636B323E0000F76A980FF66E030EDF
:10039000F7220900F55012002050494E3A00636FD1
:1003A0006C30203D20256C750D0A0000636F6C31A8
:1003B000203D20256C750D0A0000636F6C32203DD6
:1003C00020256C750D0A0000636F6C33203D2025DD
:1003D0006C750D0A0000636F6C34203D20256C7530
:1003E0000D0A00006B657920646174615B25645DB2
:1003F0002025630D0A00446F6E652050494E0000B1
:100400004B65790041540D0A000041542B434D4780
:10041000463D310D0A0041540D0A000041540D0AB9
:10042000000041540D0A000041540D0A00004154DF
:100430000D0A000041542B43504F57440D0A000051
:1004400041542B434D47443D310D0A0041542B4349
:100450004D47443D320D0A0041542B434D47443D26
:10046000330D0A0041542B434D47443D340D0A00DF
:1004700041542B434D47443D350D0A0041542B4315
:100480004D47443D360D0A0041542B434D47443DF2
:10049000370D0A0041542B434D47443D380D0A00A7
:1004A00041542B434D47533D000041542B434D478E
:1004B000463D310D0A0041542B434D47523D310D0D
:1004C0000A000A0D4E657720534D530A0D000A0DA0
:1004D00052494E470A0D00000D0A4249545F5472BA
:1004E00061636B3120446174613A0D0A00000D0AAA
:1004F0004249545F547261636B3220446174613AC3
:100500000D0A00000D0A536176696E67204361721F
:100510006420446174610D0A0000446F6E65000040
:100520000A0D4B65792072656C656173650A0D0073
:1005300057616974696E6720666F722050494E205A
:100540006E756D62657200000D0A636F756E746280
:1005500069745F54313A256C750D0A000D0A636F9A
:10056000756E746269745F54323A256C750D0A00B9
:100570000D0A72656164696E67206572726F722020
:1005800054310D0A00000D0A72656164696E6720BE
:100590006572726F722054320D0A0000020E0A0159
:1005A000AA5F0CE30A0EEA6EAA0EE96EEF5006E0AF
:1005B00003D000D000D00000EF2EFBD700011200C6
:1005C00094908B90080E016E00D00000018E10D028
:1005D000019E0A01D1330001D8B08B80D8A08B9046
:1005E000018C06D0019C012EF4D700D000008B8036
:1005F000100EE96EE92EFED700D0000001BEE8D74C
:1006000001BCF0D712000900F5520CE0F6CFB4FAA5
:10061000F7CFB5FAF5CFD1FAD3DFB4CAF6FFB5CA32
:10062000F7FFF1D712000A01E56BE66BDDB1E68F4B
:10063000DE39006E00360036C00E00160050E6139C
:10064000DF39006E0036E00E00160050E613E03988
:10065000006EF00E00160050E613E135006E003615
:100660000036F80E00160050E613E235006E003634
:10067000FC0E00160050E613D890E335E613E45163
:10068000E611E56FE5CA01F0000112000A01CD6B29
:10069000C8536AE1CB51C925E96ECC51CA21EA6E33
:1006A000EFCFCEFA010EC925CF6F000ECA21D06F51
:1006B000CB51CF25E96ECC51D021EA6EEF50CE1B45
:1006C000020EC925D16F000ECA21D26FCB51D125A0
:1006D000E96ECC51D221EA6EEF50CE1B030EC92534
:1006E000D36F000ECA21D46FCB51D325E96ECC5104
:1006F000D421EA6EEF50CE1B040EC925D56F000E33
:10070000CA21D66FCB51D525E96ECC51D621EA6EE0
:10071000EF50CE1B050EC925D76F000ECA21D86F2A
:10072000CB51D725E96ECC51D821EA6EEF50CE19C6
:1007300002E0000E01D0010ECD6F060EC925CE6F6E
:10074000000ECA21CF6FCB51CE25E96ECC51CF21FF
:10075000EA6EEF50CD5D04E1010E016E6DD003D065
:10076000000E016E69D068D0CB51C925E96ECC511D
:10077000CA21EA6EEFCFCEFA010EC95DCF6F000E2F
:10078000CA59D06FCB51CF25E96ECC51D021EA6E3A
:10079000EF50CE1B020EC95DD16F000ECA59D26F49
:1007A000CB51D125E96ECC51D221EA6EEF50CE1B50
:1007B000030EC95DD36F000ECA59D46FCB51D32538
:1007C000E96ECC51D421EA6EEF50CE1B040EC95D08
:1007D000D56F000ECA59D66FCB51D525E96ECC51D5
:1007E000D621EA6EEF50CE1B050EC95DD76F000E05
:1007F000CA59D86FCB51D725E96ECC51D821EA6EB2
:10080000EF50CE1902E0000E01D0010ECD6F060EA2
:10081000C95DCE6F000ECA59CF6FCB51CE25E96EA0
:10082000CC51CF21EA6EEF50CD5D04E1010E016E97
:1008300003D002D0000E016E000112000A01CD6B40
:10084000C8534EE1CB51C925E96ECC51CA21EA6E9D
:10085000EFCFCEFA010EC925CF6F000ECA21D06F9F
:10086000CB51CF25E96ECC51D021EA6EEF50CE1B93
:10087000020EC925D16F000ECA21D26FCB51D125EE
:10088000E96ECC51D221EA6EEF50CE1B030EC92582
:10089000D36F000ECA21D46FCB51D325E96ECC5152
:1008A000D421EA6EEF50CE1902E0000E01D0010E05
:1008B000CD6F040EC925CE6F000ECA21CF6FCB516C
:1008C000CE25E96ECC51CF21EA6EEF50CD5D04E12B
:1008D000010E016E51D003D0000E016E4DD04CD0F0
:1008E000CB51C925E96ECC51CA21EA6EEFCFCEFAC1
:1008F000010EC95DCF6F000ECA59D06FCB51CF2505
:10090000E96ECC51D021EA6EEF50CE1B020EC95DCC
:10091000D16F000ECA59D26FCB51D125E96ECC519F
:10092000D221EA6EEF50CE1B030EC95DD36F000ECD
:10093000CA59D46FCB51D325E96ECC51D421EA6E7C
:10094000EF50CE1902E0000E01D0010ECD6F040E63
:10095000C95DCE6F000ECA59CF6FCB51CE25E96E5F
:10096000CC51CF21EA6EEF50CD5D04E1010E016E56
:1009700003D002D0000E016E000112000A01C46B08
:10098000C56BC66BC76BC16BC06BBD31036EBC3131
:10099000026E033202323F0E031602C001F0C15153
:1009A000035CD8A0DFD204E10150C05DD8B0DAD238
:1009B000BB53D8A49AD1060EC025C86F000EC12122
:1009C000C96FBE51C825E96EBF51C921EA6EEFCF8C
:1009D000CAFA050EC025CB6F000EC121CC6FBE51E7
:1009E000CB25E96EBF51CC21EA6EEFCFCDFA040ED4
:1009F000C025CE6F000EC121CF6FBE51CE25E96E4E
:100A0000BF51CF21EA6EEFCFD0FA030EC025D16FD0
:100A1000000EC121D26FBE51D125E96EBF51D22146
:100A2000EA6EEFCFD3FA020EC025D46F000EC121BB
:100A3000D56FBE51D425E96EBF51D521EA6EEFCFF7
:100A4000D6FA010EC025D76F000EC121D86FBE5156
:100A5000D725E96EBF51D821EA6EEFCFD9FABE5142
:100A6000C025E96EBF51C121EA6EEFCFDAFADD6B26
:100A7000CACADEFACDCADFFAD0CAE0FAD3CAE1FAAE
:100A8000D6CAE2FAD9CAE3FADACAE4FA0001CBDD3F
:100A900001C0C4FA0D0E0A01C025C86F000EC121A5
:100AA000C96FBE51C825E96EBF51C921EA6EEFCFAB
:100AB000CAFA0C0EC025CB6F000EC121CC6FBE51FF
:100AC000CB25E96EBF51CC21EA6EEFCFCDFA0B0EEC
:100AD000C025CE6F000EC121CF6FBE51CE25E96E6D
:100AE000BF51CF21EA6EEFCFD0FA0A0EC025D16FE9
:100AF000000EC121D26FBE51D125E96EBF51D22166
:100B0000EA6EEFCFD3FA090EC025D46F000EC121D3
:100B1000D56FBE51D425E96EBF51D521EA6EEFCF16
:100B2000D6FA080EC025D76F000EC121D86FBE516E
:100B3000D725E96EBF51D821EA6EEFCFD9FA070E5B
:100B4000C025DA6F000EC121DB6FBE51DA25E96ED8
:100B5000BF51DB21EA6EEFCFDCFADD6BCACADEFAE9
:100B6000CDCADFFAD0CAE0FAD3CAE1FAD6CAE2FAAD
:100B7000D9CAE3FADCCAE4FA000155DD01C0C5FABE
:100B80000A01C4514508D8A4AFD0C5517C08D8B4D7
:100B9000ABD0C5513E08D8B4A7D0C5511F08D8B4B2
:100BA000A3D0C1CAC3FAC0CAC2FA010EC76FC4CA71
:100BB000C6FAC6511F08D8B48CD0C3510308D8A0B8
:100BC00088D004E1C251E708D8A083D0C86BC3CA5B
:100BD000CAFAC2CAC9FABFCACCFABECACBFA000165
:100BE00055DD01500A01C717060EC225C86F000E59
:100BF000C321C96FBE51C825E96EBF51C921EA6E34
:100C0000EFCFCAFA050EC225CB6F000EC321CC6F01
:100C1000BE51CB25E96EBF51CC21EA6EEFCFCDFAA4
:100C2000040EC225CE6F000EC321CF6FBE51CE255C
:100C3000E96EBF51CF21EA6EEFCFD0FA030EC22585
:100C4000D16F000EC321D26FBE51D125E96EBF51C5
:100C5000D221EA6EEFCFD3FA020EC225D46F000E76
:100C6000C321D56FBE51D425E96EBF51D521EA6E9F
:100C7000EFCFD6FA010EC225D76F000EC321D86F71
:100C8000BE51D725E96EBF51D821EA6EEFCFD9FA10
:100C9000BE51C225E96EBF51C321EA6EEFCFDAFA29
:100CA000DD6BCACADEFACDCADFFAD0CAE0FAD3CA0F
:100CB000E1FAD6CAE2FAD9CAE3FADACAE4FA0001DA
:100CC000B2DC01C0C6FA070E0A01C227000EC32318
:100CD00070D7C72D09D009018D6B0A01C0CA01F078
:100CE000C1CA02F0BDEF0AF039D1040EC025C86FA9
:100CF000000EC121C96FBE51C825E96EBF51C9217F
:100D0000EA6EEFCFCAFA030EC025CB6F000EC121E9
:100D1000CC6FBE51CB25E96EBF51CC21EA6EEFCF2F
:100D2000CDFA020EC025CE6F000EC121CF6FBE518D
:100D3000CE25E96EBF51CF21EA6EEFCFD0FA010E7A
:100D4000C025D16F000EC121D26FBE51D125E96EF1
:100D5000BF51D221EA6EEFCFD3FABE51C025E96E62
:100D6000BF51C121EA6EEFCFD4FADD6BDE6BDF6BD2
:100D7000CACAE0FACDCAE1FAD0CAE2FAD3CAE3FAA3
:100D8000D4CAE4FA00014FDC01C0C4FA090E0A011A
:100D9000C025C86F000EC121C96FBE51C825E96EBC
:100DA000BF51C921EA6EEFCFCAFA080EC025CB6F3A
:100DB000000EC121CC6FBE51CB25E96EBF51CC21B5
:100DC000EA6EEFCFCDFA070EC025CE6F000EC1211F
:100DD000CF6FBE51CE25E96EBF51CF21EA6EEFCF66
:100DE000D0FA060EC025D16F000EC121D26FBE51C0
:100DF000D125E96EBF51D221EA6EEFCFD3FA050EAD
:100E0000C025D46F000EC121D56FBE51D425E96E27
:100E1000BF51D521EA6EEFCFD6FADD6BDE6BDF6B0B
:100E2000CACAE0FACDCAE1FAD0CAE2FAD3CAE3FAF2
:100E3000D6CAE4FA000113EC03F001C0C5FA0A01B6
:100E4000C4510B08D8A48AD0C5511F08D8B486D085
:100E5000C5510F08D8B482D0C1CAC3FAC0CAC2FAF9
:100E6000010EC76FC4CAC6FAC6511F086DE0C35150
:100E700001086AE303E1C251F30866E3C86BC3CA21
:100E8000CAFAC2CAC9FABFCACCFABECACBFA0001B2
:100E9000D5DC01500A01C717040EC225C86F000E29
:100EA000C321C96FBE51C825E96EBF51C921EA6E81
:100EB000EFCFCAFA030EC225CB6F000EC321CC6F51
:100EC000BE51CB25E96EBF51CC21EA6EEFCFCDFAF2
:100ED000020EC225CE6F000EC321CF6FBE51CE25AC
:100EE000E96EBF51CF21EA6EEFCFD0FA010EC225D5
:100EF000D16F000EC321D26FBE51D125E96EBF5113
:100F0000D221EA6EEFCFD3FABE51C225E96EBF51AE
:100F1000C321EA6EEFCFD4FADD6BDE6BDF6BCACA9A
:100F2000E0FACDCAE1FAD0CAE2FAD3CAE3FAD4CAE7
:100F3000E4FA000113EC03F001C0C6FA050E0A0141
:100F4000C227000EC32390D7C72D08D009018D6B8F
:100F50000A01C0CA01F0C1CA02F00FD3C02BD8B435
:100F6000C12B13D5BDCAC1FABCCAC0FABD31036ECC
:100F7000BC31026E033202323F0E031602C001F092
:100F80000350C15DD8A0F6D204E1C051015CD8B0D5
:100F9000F1D2BB53D8A4A9D1060EC05DC86F000E14
:100FA000C159C96FBE51C825E96EBF51C921EA6E4A
:100FB000EFCFCAFA050EC05DCB6F000EC159CC6FE2
:100FC000BE51CB25E96EBF51CC21EA6EEFCFCDFAF1
:100FD000040EC05DCE6F000EC159CF6FBE51CE253D
:100FE000E96EBF51CF21EA6EEFCFD0FA030EC05D9C
:100FF000D16F000EC159D26FBE51D125E96EBF51DC
:10100000D221EA6EEFCFD3FA020EC05DD46F000E8C
:10101000C159D56FBE51D425E96EBF51D521EA6EB5
:10102000EFCFD6FA010EC05DD76F000EC159D86F51
:10103000BE51D725E96EBF51D821EA6EEFCFD9FA5C
:10104000BE51C025E96EBF51C121EA6EEFCFDAFA79
:10105000DD6BCACADEFACDCADFFAD0CAE0FAD3CA5B
:10106000E1FAD6CAE2FAD9CAE3FADACAE4FA000126
:1010700013EC03F001C0C4FA0D0E0A01C05DC86F85
:10108000000EC159C96FBE51C825E96EBF51C921B3
:10109000EA6EEFCFCAFA0C0EC05DCB6F000EC159DD
:1010A000CC6FBE51CB25E96EBF51CC21EA6EEFCF9C
:1010B000CDFA0B0EC05DCE6F000EC159CF6FBE5181
:1010C000CE25E96EBF51CF21EA6EEFCFD0FA0A0EDE
:1010D000C05DD16F000EC159D26FBE51D125E96EEE
:1010E000BF51D221EA6EEFCFD3FA090EC05DD46FA3
:1010F000000EC159D56FBE51D425E96EBF51D5211F
:10110000EA6EEFCFD6FA080EC05DD76F000EC15958
:10111000D86FBE51D725E96EBF51D821EA6EEFCF07
:10112000D9FA070EC05DDA6F000EC159DB6FBE51F0
:10113000DA25E96EBF51DB21EA6EEFCFDCFADD6B19
:10114000CACADEFACDCADFFAD0CAE0FAD3CAE1FAD7
:10115000D6CAE2FAD9CAE3FADCCAE4FA000113EC0F
:1011600003F001C0C5FA0A01C4514508D8A4BCD097
:10117000C5517C08D8B4B8D0C5513E08D8B4B4D055
:10118000C5511F08D8B4B0D0C5510F08D8B4ACD0E1
:10119000C5517808D8B4A8D0C1CAC3FAC0CAC2FA27
:1011A000010EC76FC4CAC6FAC6511F08D8B48CD086
:1011B000C35304E1C2510108D8B086D0010EC86FF4
:1011C000C3CACAFAC2CAC9FABFCACCFABECACBFAE3
:1011D000000146EC03F001500A01C717060EC25D7C
:1011E000C86F000EC359C96FBE51C825E96EBF5103
:1011F000C921EA6EEFCFCAFA050EC25DCB6F000EB1
:10120000C359CC6FBE51CB25E96EBF51CC21EA6EDC
:10121000EFCFCDFA040EC25DCE6F000EC359CF6F73
:10122000BE51CE25E96EBF51CF21EA6EEFCFD0FA85
:10123000030EC25DD16F000EC359D26FBE51D125CE
:10124000E96EBF51D221EA6EEFCFD3FA020EC25D32
:10125000D46F000EC359D56FBE51D425E96EBF516E
:10126000D521EA6EEFCFD6FA010EC25DD76F000E20
:10127000C359D86FBE51D725E96EBF51D821EA6E48
:10128000EFCFD9FABE51C225E96EBF51C321EA6E34
:10129000EFCFDAFADD6BCACADEFACDCADFFAD0CAFE
:1012A000E0FAD3CAE1FAD6CAE2FAD9CAE3FADACA4C
:1012B000E4FA000113EC03F001C0C6FA070E0A01BC
:1012C000C25F000EC35B70D7C72D0AD0010E0901A3
:1012D0008D6F0A01C0CA01F0C1CA02F04ED104D01C
:1012E000000E016E026E49D140D1040EC05DC86F80
:1012F000000EC159C96FBE51C825E96EBF51C92141
:10130000EA6EEFCFCAFA030EC05DCB6F000EC15973
:10131000CC6FBE51CB25E96EBF51CC21EA6EEFCF29
:10132000CDFA020EC05DCE6F000EC159CF6FBE5117
:10133000CE25E96EBF51CF21EA6EEFCFD0FA010E74
:10134000C05DD16F000EC159D26FBE51D125E96E7B
:10135000BF51D221EA6EEFCFD3FABE51C025E96E5C
:10136000BF51C121EA6EEFCFD4FADD6BDE6BDF6BCC
:10137000CACAE0FACDCAE1FAD0CAE2FAD3CAE3FA9D
:10138000D4CAE4FA000113EC03F001C0C4FA090E58
:101390000A01C05DC86F000EC159C96FBE51C82592
:1013A000E96EBF51C921EA6EEFCFCAFA080EC05DDF
:1013B000CB6F000EC159CC6FBE51CB25E96EBF512A
:1013C000CC21EA6EEFCFCDFA070EC05DCE6F000ED6
:1013D000C159CF6FBE51CE25E96EBF51CF21EA6E04
:1013E000EFCFD0FA060EC05DD16F000EC159D26F9B
:1013F000BE51D125E96EBF51D221EA6EEFCFD3FAAB
:10140000050EC05DD46F000EC159D56FBE51D425F5
:10141000E96EBF51D521EA6EEFCFD6FADD6BDE6BF8
:10142000DF6BCACAE0FACDCAE1FAD0CAE2FAD3CA7F
:10143000E3FAD6CAE4FA000113EC03F001C0C5FADE
:101440000A01C4510B08D8A490D0C5511F08D8B4C4
:101450008CD0C5510F08D8B488D0C1CAC3FAC0CA4D
:10146000C2FA010EC76FC4CAC6FAC6511F086DE0A2
:10147000C35303E1C251010868E2010EC86FC3CA39
:10148000CAFAC2CAC9FABFCACCFABECACBFA0001AC
:101490001EEC04F001500A01C717040EC25DC86FAC
:1014A000000EC359C96FBE51C825E96EBF51C9218D
:1014B000EA6EEFCFCAFA030EC25DCB6F000EC359BE
:1014C000CC6FBE51CB25E96EBF51CC21EA6EEFCF78
:1014D000CDFA020EC25DCE6F000EC359CF6FBE5162
:1014E000CE25E96EBF51CF21EA6EEFCFD0FA010EC3
:1014F000C25DD16F000EC359D26FBE51D125E96EC6
:10150000BF51D221EA6EEFCFD3FABE51C225E96EA8
:10151000BF51C321EA6EEFCFD4FADD6BDE6BDF6B18
:10152000CACAE0FACDCAE1FAD0CAE2FAD3CAE3FAEB
:10153000D4CAE4FA000113EC03F001C0C6FA050EA8
:101540000A01C25F000EC35B90D7C72D0AD0010EFF
:1015500009018D6F0A01C0CA01F0C1CA02F00DD0A5
:1015600004D0000E016E026E08D0C051D8B4C1077D
:10157000C007FCD4000E016E026E000112000900CB
:10158000F6CFC6FAF7CFC7FAF5CFD1FAE0EC02F002
:10159000C6CAF6FFC7CAF7FF0A01C52F01D002D09D
:1015A0000001EDD700011200EACFBAFAE9CFB9FA8B
:1015B0000A01B339F009B56FB527E20FB66F320FE4
:1015C000B86FB3510F0BB627B627B827E90FB76F1F
:1015D000B727B727B2390F0BB727B827B737B837B0
:1015E000B81FB837B2510F0BB827B537070EB46F15
:1015F0000A0EB707B827FDE3B607B727FDE3B5071F
:10160000B627FDE3B407B527FDE30A0EEA6EB40E74
:10161000E96E070EB915B99DE926B80EE95CD8B494
:10162000B98DEF50006E08E1B9BD06D0B9B916D03A
:10163000B9B702D0200E03D0B987B999300E002671
:10164000EACFB3FAE9CFB2FA00C0D1FA0001E0EC78
:1016500002F0B3CAEAFFB2CAE9FF0A01EE50B9AD1F
:10166000DCD7000112000A01BC51016ABB5D03E234
:10167000BBCA00F00CD0006A080EBD6FBB37003645
:10168000BC51005CD8B0006E0136BD2FF7D7000109
:101690001200200E0A01B6A9300EB76FB5CA00F0CD
:1016A000B5AF08D0001E002A00C0B5FA2D0EB76FE6
:1016B000B68FB6810150B5CABBFA640EBC6F00018B
:1016C000D2DF00C0B5FA300E01240A01B86FB5CAE6
:1016D000BBFA0A0EBC6F0001C6DF300E00240A01FF
:1016E000BA6F300E0124B96FB7CA00F0300EB85D82
:1016F00004E0B683B6BFB68512D0B7CAB8FA200EDA
:10170000B76F300EB95D04E0B681B6BFB68307D0BF
:10171000D8A4B68104E1B8CAB9FA200EB86FB6B53C
:1017200005D0B6B308D0B6B10BD00FD0B7CAD1FA36
:101730000001E0EC02F0B8CAD1FA0001E0EC02F0DE
:10174000B9CAD1FA0001E0EC02F0BACAD1FA00013C
:10175000E0EC02F01200D80EF66E040EF76E03EC09
:1017600003F00A01B36BB26BB351030817E303E153
:10177000B251510813E30B0EB225E96E050EB321E9
:10178000EA6EEFCFB4FAB4CAB5FA180EB66F00011C
:1017900080DF0A01B22BD8B4B32BE6D7EE0EF66E7B
:1017A000040EF76E000103EC03F00A01B36BB26B99
:1017B000B351010817E303E1B2512B0813E35D0EA7
:1017C000B225E96E080EB321EA6EEFCFB4FAB4CABF
:1017D000B5FA180EB66F00015CDF0A01B22BD8B45F
:1017E000B32BE6D700013EEF0DF00A0EEA6EB20E03
:1017F000E96EEF500DE00A0E016E006A002EFED772
:10180000012EFBD75F0E006E002EFED7EF2EF3D712
:101810001200010E0A01A96FAA6FAB6FAC6FAD6B1E
:10182000AE6FAF6F0901976B966B8C6B8B6B8A6B8E
:10183000896B9751FD080EE303E19651E7080AE32F
:10184000938281A207D0948A82AA04D0962BD8B41E
:10185000972BEFD7976B966B93C903F09251922B0E
:10186000D8B4932B0A01B26F0B0EB225E96E050EA8
:101870000320EA6EEF6A090193C903F09251922B9B
:10188000D8B4932B0A01B26F0B0EB225E96E050E88
:101890000320EA6E010EEF6E090195C903F0945121
:1018A000942BD8B4952B0A01B26F5D0EB225E96E68
:1018B000080E0320EA6EEF6A090195C903F09451FE
:1018C000942BD8B4952B0A01B26F5D0EB225E96E48
:1018D000080E0320EA6E010EEF6E09019351030812
:1018E000D8A06FD004E192515108D8A06AD0955188
:1018F0000108D8A066D003E194512B0862E3975108
:10190000FF085FE303E19651DB085BE3A05304E0CB
:10191000936B926B956B946B962BD8B4972B8C6BC7
:101920008B6B8A6B896B93840A01A96B81B4A92B99
:10193000A9531EE1AA2D1CD0AA6B0B0E09019225FA
:10194000E96E050E9321EA6E9382000E81A2010ECC
:10195000EF6E5D0E9425E96E080E9521EA6EADCA14
:10196000EFFF922BD8B4932B976B966B06D00A019E
:10197000A92D02D0010EAA6F090193860A01AB6B53
:1019800081B6AB2BAB530FE1AC2D0DD0AC6B948A71
:10199000AD6B82AAAD2B0901942BD8B4952B976B14
:1019A000966B06D00A01AB2D02D0010EAC6F090177
:1019B000938081A005D0A06B9769DC0E966F01D053
:1019C0008DD7976B966B0A01BB6B93C9BDFA92C911
:1019D000BCFA050EBF6F0B0EBE6F0001BEEC04F02B
:1019E00001C0AEFA010E0A01BB6F95C9BDFA94C9D8
:1019F000BCFA080EBF6F5D0EBE6F0001BEEC04F0B6
:101A000001C0AFFA09019B2D50D0480EF66E050EAD
:101A1000F76E0E0E0A01C56F0001B1DD100EE96E02
:101A200093C9B3FA92C9B2FABFDD0D0E0A01D16FA4
:101A30000001E0EC02F00A0E0A01D16F0001E0ECB7
:101A400002F05C0EF66E050EF76E0E0E0A01C56F03
:101A5000000195DD100EE96E95C9B3FA94C9B2FA8A
:101A6000A3DD0D0E0A01D16F0001E0EC02F00A0EB9
:101A70000A01D16F0001E0EC02F06DD60A01AE530D
:101A800008E1700EF66E050EF76E000103EC03F030
:101A90000A01AF5308E1860EF66E050EF76E0001DF
:101AA00003EC03F00A0107D009010F0E0A01B26F1F
:101AB00000019BDE0A01AE5302E0AF5310E10901C1
:101AC000956B946B936B926B9F6BA02B8C6B8B6B5A
:101AD0008A6B896B000E016E1ED01BD00A01010EAD
:101AE00009019A6F9F6F95C991F994C990F993C9AB
:101AF0008FF992C98EF9936B926B956B946B8C6B8B
:101B00008B6B8A6B896B0001FC6BFB6B016E0901AF
:101B100002D0000E016E0001C0EF0DF0020E0A01AE
:101B2000A96FFA0EAA6F0001CEEC02F00A01A92FEC
:101B3000F8D709019D2D01D02CD001010C531EE0D6
:101B400009531CE10D2D0CD09A0EF66E1B0EF76E8C
:101B5000000103EC03F0929E899E01010D6B0ED0F3
:101B6000AA0EF66E1B0EF76E000103EC03F0929EB8
:101B7000898E010E01010D6F0F6B0E6B000149D6AE
:101B800001C09CF909018C6B8B6B8A6B896B976B1D
:101B9000966BF090000142EF00F00A0D4B65792042
:101BA00072656C656173650A0D000A0D4B657920DD
:101BB00070726573730A0D000D0A547261636B31A4
:101BC00020446174613A0D0A00000D0A5472616389
:101BD0006B3220446174613A0D0A00000D0A5472A0
:101BE00061636B3120446174613A0D0A00000D0A93
:101BF000547261636B3220446174613A0D0A0000D3
:101C00000D0A50494E204E756D6265723A0D0A00FC
:101C1000464F524D415454494E472E2E2E002065BA
:101C20007869740A0D00464F524D415454494E474D
:101C30002E2E2E0020657869740A0D00726573657A
:101C400074696E672070617373776F72642E2E2EC5
:101C5000000020657869740A0D004B657920626F79
:101C60006172642074657374696E670A0D00726531
:101C700073657420666163746F72790A0D00206564
:101C80007869740A0D004E657720636F6E736F6C10
:101C900065206E616D653E00204F4B0A0D005B4D67
:101CA0005D005B535D005B6175746F2073656E64EE
:101CB000696E6720286F6666295D00005B61757438
:101CC0006F2073656E64696E6720286F6E295D00F2
:101CD000596561723E004D6F6E74683E000044614C
:101CE00074653E004461793E0000486F75723E00A5
:101CF0004D696E757465733E00005365636F6E6465
:101D0000733E000050726573732027312720746F73
:101D10002073656C65637420536C61766572206D09
:101D20006F64650050726573732027302720746FCD
:101D30002073656C656374204D6173746572206DEA
:101D40006F64650050726573732027312720746FAC
:101D5000207475726E206F6E206B65707265737380
:101D6000000050726573732027302720746F207431
:101D700075726E206F6666206B6570726573730096
:101D8000496E707574204E756D6265720000496E03
:101D9000707574204E756D6265720000496E7075C5
:101DA00074204E756D62657200000A0D496E707583
:101DB0007420796F7572206D6F62696C6520706830
:101DC0006F6E65206E756D6265723A000A0D646F04
:101DD0006E650A0D0000507265737320273127204D
:101DE000746F207475726E206F6E204175746F2051
:101DF0006D6F646500005072657373202730272073
:101E0000746F207475726E206F6666204175746FF2
:101E1000206D6F646500682D3E2048656C700A0D6A
:101E2000000073632D3E2053657420436C6F636B19
:101E30000A0D0000632D3E2073686F7720436C6F9E
:101E4000636B0A0D000070617373776F72642D3ECF
:101E5000206368616E67696E672050415353574F26
:101E600052440A0D00006E202D3E206368616E67AB
:101E70006520636F6E736F6C65204E616D650A0D32
:101E80000000662D3E20466F726D61740A0D0000E1
:101E9000652D3E20457869740A0D00004D532D3E96
:101EA000204B6579626F617264206D6F6465207389
:101EB000657474696E672028536C6176652F4D6177
:101EC00073746572290A0D004B502D3E204B6579C5
:101ED0007072657373206D6F6465207365747469C7
:101EE0006E6720284F6E290A0D004B502D3E204B67
:101EF00065797072657373206D6F646520736574A6
:101F000074696E6720284F6666290A0D0000747296
:101F1000616E2074696D652D3E2074696D65206F5A
:101F2000662065616368207472616E7361637469B1
:101F30006F6E0A0D000064656275672D3E206F6E3E
:101F40002F6F6666206465627567206D6F64650A31
:101F50000D0064656C61796B62202564202D3E2044
:101F60004B6579626F61726427732054696D696E85
:101F7000670A0D007273666163742D3E207265738B
:101F8000657420666163746F72790A0D00004B42BC
:101F900074696D65202564202D3E204B6579626F44
:101FA00061726427732054696D656F75740A0D0042
:101FB0006366206D626E2D3E206368616E67696E98
:101FC0006720746172676574206D6F62696C65204B
:101FD00070686F6E65206E756D6265720A0D000027
:101FE00053494D3930306175746F2D3E206F6E2F1F
:101FF0006F6666206175746F2073656E64696E67C5
:10200000206D6F64650A0D006F6C642070617373DE
:10201000776F72643A000A0D6E65773A00000A0D18
:10202000616761696E3A00000A0D4F4B0A0D0000AE
:102030000A0D4552520A0D0020580A0D0000507238
:102040006573732027312720746F20656E61626C81
:1020500065206465627567206D6F6465000050726D
:102060006573732027302720746F20646973616261
:102070006C65206465627567206D6F6465009EAA5B
:10208000FED7AFCFA9FA0A0194948B740901BD530E
:102090001CE00101AE51AE2B036A4A0FE96E010E3E
:1020A0000320EA6EA9CAEFFFAE516208D8A0AE6B5A
:1020B0000901BC530AE10B0E0401906FB80E8F6F3B
:1020C0000D0E8D6F8C6B8B6B09019E9A000142EF98
:1020D00000F094948B74CF68CD0ECE6E9E9042EF3C
:1020E00000F00101432B43510108D8B0D2D0465132
:1020F000FB0F41E2050F00014EEF11F0929A899A11
:10210000929689869294898492928982929089800B
:10211000010131D092968996929A898A9294898403
:102120009292898292908980010125D0929489941B
:1021300092968986929A898A9292898292908980CF
:10214000010119D0929289929296898692948984FB
:10215000929A898A9290898001010DD092908990FB
:10216000929689869294898492928982929A898A97
:10217000010101D0010144A13FD09388000E81B834
:10218000010E0A01AE6F938A000E81BA010EAE17DE
:10219000938C000E81BC010EAE17938E000E81BE93
:1021A000010EAE1527E045C1ACFA0101085319E153
:1021B000066B056B0001FC6BFB6B01010B513108D9
:1021C0000AE30B510B2B036A100FE96E010E03207B
:1021D000EA6EACCAEFFFACCAD1FA0001E0EC02F043
:1021E00005D0ACCAD1FA0001E0EC02F00101449143
:1021F000456B0A014CD001019388000E81B8010E95
:102200000A01AE6F938A000E81BA010EAE17938C4D
:10221000000E81BC010EAE17938E000E81BE010E22
:10222000AE152FE1938881B802D0AD6B11D0938A9F
:1022300081BA03D0010EAD6F0BD0938C81BC03D05B
:10224000020EAD6F05D0938E81BE02D0030EAD6F2E
:10225000AD51050DF350AF6BAE6F036A01014651EE
:102260000A01AE25016EAF5103220150000174EC4A
:1022700000F0E8CF45F101014481FF0E926E07D0D6
:102280000A010101462B46510508D8B4466B0101ED
:10229000436B0A01ACCA01F000011200E824F76A9E
:1022A000F736B70FF66E220EF7220A00F550FA6ED7
:1022B0000800F550F96EFC2014212C2144215C21EA
:1022C000E00E0F01486FC29CC29E4951E00B1F09EE
:1022D000496F0A01C551FB0F55E2050F0001C4EF1C
:1022E00011F0100E016EC250C30B0110C26EC282FB
:1022F000C2B2FED7C4CFC6FA0A01C6CA01F042D0A4
:1023000041D00C0E016EC250C30B0110C26EC282CE
:10231000C2B2FED7C4CFC6FA0A01C6CA01F032D093
:1023200031D0080E016EC250C30B0110C26EC282C2
:10233000C2B2FED7C4CFC6FA0A01C6CA01F022D083
:1023400021D0040E016EC250C30B0110C26EC282B6
:10235000C2B2FED7C4CFC6FA0A01C6CA01F012D073
:1023600011D0000E016EC250C30B0110C26EC282AA
:10237000C2B2FED7C4CFC6FA0A01C6CA01F002D063
:1023800001D00A0100011200E824F76AF736A30F12
:10239000F66E230EF7220A00F550FA6E0800F5508B
:1023A000F96EE2220223222342236223D8B204D010
:1023B0000A0EEA6ED90EE96E006A016A026A036AC1
:1023C0000A01D96BDA6BDB6BDC6BD851D711D611F4
:1023D000D5112CE0200EDD6FD890D137D237D3370E
:1023E000D437D937DA37DB37DC37D851DC5D08E151
:1023F000D751DB5D05E1D651DA5D02E1D551D95DFA
:102400000FE3D551D95FD651D8A0D63DDA5FD75169
:10241000D8A0D73DDB5FD851D8A0D83DDC5FD880AD
:102420000036013602360336DD2FD6D7D9CAEFFF84
:10243000DACAECFFDBCAECFFDCCAECFF00011200D9
:10244000E9500A01C96F3B0ED06F9A0ECF6FCA0ECA
:10245000CE6FCD6B0A0ECB6FD8820A0EEA6EC50E18
:10246000E96EC8CAD4FAC7CAD3FAC6CAD2FAC5CA6C
:10247000D1FAD0CAD8FACFCAD7FACECAD6FACDCABC
:10248000D5FA000193DF0150005213E10A01CB514C
:10249000010AD8A402D000010CD0C9510CE00F0BE6
:1024A000CB5D01E010E2C9BF0ED0C9BD04D0200E43
:1024B00003D00A01C96B300E002600C0D1FA00011A
:1024C000E0EC02F00A01D892D0CAD4FACFCAD3FA0B
:1024D000CECAD2FACDCAD1FAD86BD76BD66B0A0E58
:1024E000D56F000163DF03C0D0FA02C0CFFA01C08C
:1024F000CEFA00C0CDFA0A01CB2FAED700011200F0
:102500000A01B46BB36BB26BB16BB86BB76BB66BE4
:10251000B56BBC6BBB6BBA6BB96BC06BBF6BBE6B87
:10252000BD6BC46BC36BC26BC16BB06BAF6BB05197
:1025300001083EE303E1AF51F3083AE3C56B000144
:10254000BFDE01500A01B127000EB223B323B4232A
:10255000010EC56F0001B4DE01500A01B527000E5F
:10256000B623B723B823020EC56F0001A9DE0150C0
:102570000A01B927000EBA23BB23BC23030EC56F83
:1025800000019EDE01500A01BD27000EBE23BF23BD
:10259000C023040EC56F000193DE01500A01C1275C
:1025A000000EC223C323C423AF2BD8B4B02BBFD794
:1025B000D892B4CAD4FAB3CAD3FAB2CAD2FAB1CA58
:1025C000D1FAD86BD76B010ED66FF40ED56F000120
:1025D000EDDE03C0B4FA02C0B3FA01C0B2FA00C023
:1025E000B1FAD892B8CAD4FAB7CAD3FAB6CAD2FAEC
:1025F000B5CAD1FA0A01D86BD76B010ED66FF40EAB
:10260000D56F0001D3DE03C0B8FA02C0B7FA01C02B
:10261000B6FA00C0B5FAD892BCCAD4FABBCAD3FA8B
:10262000BACAD2FAB9CAD1FA0A01D86BD76B010E6D
:10263000D66FF40ED56F0001B9DE03C0BCFA02C03C
:10264000BBFA01C0BAFA00C0B9FAD892C0CAD4FA2B
:10265000BFCAD3FABECAD2FABDCAD1FA0A01D86B30
:10266000D76B010ED66FF40ED56F00019FDE03C04D
:10267000C0FA02C0BFFA01C0BEFA00C0BDFAD892CB
:10268000C4CAD4FAC3CAD3FAC2CAD2FAC1CAD1FAE6
:102690000A01D86BD76B010ED66FF40ED56F00010F
:1026A00085DE03C0C4FA02C0C3FA01C0C2FA00C08A
:1026B000C1FA01010853D8B4BDD00D0E0A01D16F83
:1026C0000001E0EC02F00A0E0A01D16F0001E0EC1B
:1026D00002F09E0EF66E030EF76E070E0A01C56F2E
:1026E0000001BFEC0AF0410EE96EB4CAC8FAB3CAE1
:1026F000C7FAB2CAC6FAB1CAC5FAA2DE0D0E0A01FD
:10270000D16F0001E0EC02F00A0E0A01D16F000166
:10271000E0EC02F0AC0EF66E030EF76E070E0A0147
:10272000C56F0001BFEC0AF0410EE96EB8CAC8FAE5
:10273000B7CAC7FAB6CAC6FAB5CAC5FA81DE0D0E5F
:102740000A01D16F0001E0EC02F00A0E0A01D16F1C
:102750000001E0EC02F0BA0EF66E030EF76E070E03
:102760000A01C56F0001BFEC0AF0410EE96EBCCA58
:10277000C8FABBCAC7FABACAC6FAB9CAC5FA60DE8D
:102780000D0E0A01D16F0001E0EC02F00A0E0A0101
:10279000D16F0001E0EC02F0C80EF66E030EF76E8A
:1027A000070E0A01C56F0001BFEC0AF0410EE96E89
:1027B000C0CAC8FABFCAC7FABECAC6FABDCAC5FAF5
:1027C0003FDE0D0E0A01D16F0001E0EC02F00A0EAF
:1027D0000A01D16F0001E0EC02F0D60EF66E030E96
:1027E000F76E070E0A01C56F0001BFEC0AF0410E3B
:1027F000E96EC4CAC8FAC3CAC7FAC2CAC6FAC1CA0D
:10280000C5FA1EDE0D0E0A01D16F0001E0EC02F0E8
:102810000A0E0A01D16F0001E0EC02F00D0E0A0170
:10282000D16F0001E0EC02F00A0E0A01D16F000145
:10283000E0EC02F00A01B45307E1B35305E1B253EF
:1028400003E1B151050830E2B4532EE1B3532CE15A
:10285000B2532AE1B1513B0827E3B85307E1B7531C
:1028600005E1B65303E1B55164081EE2BC5307E12C
:10287000BB5305E1BA5303E1B951640815E2C053F3
:1028800007E1BF5305E1BE5303E1BD5164080CE20B
:10289000C45307E1C35305E1C25303E1C1516408C6
:1028A00003E2000E016E3FD1B85307E1B75305E1D3
:1028B000B65303E1B551050830E2B8532EE1B753E2
:1028C0002CE1B6532AE1B5513B0827E3B45307E1A5
:1028D000B35305E1B25303E1B15164081EE2BC53A6
:1028E00007E1BB5305E1BA5303E1B951640815E2AE
:1028F000C05307E1BF5305E1BE5303E1BD51640876
:102900000CE2C45307E1C35305E1C25303E1C151D3
:10291000640803E2010E016E06D1BC5307E1BB530C
:1029200005E1BA5303E1B951050830E2BC532EE189
:10293000BB532CE1BA532AE1B9513B0827E3B85302
:1029400007E1B75305E1B65303E1B55164081EE250
:10295000B45307E1B35305E1B25303E1B151640845
:1029600015E2C05307E1BF5305E1BE5303E1BD517A
:1029700064080CE2C45307E1C35305E1C25303E109
:10298000C151640803E2020E016ECDD0C05307E1CD
:10299000BF5305E1BE5303E1BD51050830E2C0530A
:1029A0002EE1BF532CE1BE532AE1BD513B0827E382
:1029B000B85307E1B75305E1B65303E1B5516408D5
:1029C0001EE2BC5307E1BB5305E1BA5303E1B95121
:1029D000640815E2B45307E1B35305E1B25303E1D0
:1029E000B15164080CE2C45307E1C35305E1C2537B
:1029F00003E1C151640803E2030E016E94D0C45395
:102A000007E1C35305E1C25303E1C151050830E2B8
:102A1000C4532EE1C3532CE1C2532AE1C1513B08F8
:102A200027E3B85307E1B75305E1B65303E1B551C6
:102A300064081EE2BC5307E1BB5305E1BA5303E14E
:102A4000B951640815E2C05307E1BF5305E1BE5315
:102A500003E1BD5164080CE2B45307E1B35305E14F
:102A6000B25303E1B151640803E2040E016E5BD07E
:102A7000C45308E1C35306E1C25304E1C151C8087D
:102A8000D8B04FD0B453D8A44CD0B353D8A449D065
:102A9000B253D8A446D0B151B30843E3B45307E1CD
:102AA000B35305E1B25303E1B15164083AE2B853BC
:102AB00038E1B75336E1B65334E1B551B30831E3E9
:102AC000B85307E1B75305E1B65303E1B5516408C4
:102AD00028E2BC5326E1BB5324E1BA5322E1B951A9
:102AE000B3081FE3BC5307E1BB5305E1BA5303E14D
:102AF000B951640816E2C05314E1BF5312E1BE534A
:102B000010E1BD51B3080DE3C05307E1BF5305E128
:102B1000BE5303E1BD51640804E2040E016E03D00C
:102B200002D0FF0E016E0001C1EF15F0938881A85D
:102B300009D0938A81AA06D0938C81AC03D0938E5E
:102B400081BE98D0938881B804D00A01AE6B17D0AB
:102B50000001938A81BA05D0010E0A01AE6F0FD031
:102B60000001938C81BC05D0020E0A01AE6F07D024
:102B70000001938E81BE04D0030E0A01AE6F0001E6
:102B8000BFD401C0ACFA0A01AC3D01D05AD0AE515D
:102B9000050DF350B06BAF6F036AAC51AF25016EFA
:102BA000B05103220150000174EC00F0E8CFADFAFF
:102BB0000101085340E10001FC6BFB6B01010B516B
:102BC00013080AE30B510B2B036A100FE96E010E79
:102BD0000320EA6EADCAEFFFE40EF66E030EF76E49
:102BE000090E0A01C56F0001BFEC0AF00BC1B5FA6E
:102BF000180E0A01B66F000149EC0BF05D0E0A01D8
:102C0000D16F0001E0EC02F0200E0A01D16F00014B
:102C1000E0EC02F0ADCAD1FAE0EC02F00D0E0A01D0
:102C2000D16F0001E0EC02F00A0E0A01D16F000141
:102C3000E0EC02F005D0ADCAD1FA0001E0EC02F000
:102C40000A01938881A8FDD7938A81AAFAD7938C29
:102C500081ACF7D7938E81AEF4D7938881A8FDD746
:102C6000938A81AAFAD7938C81ACF7D7938E81AEE1
:102C7000F4D70001FF0E926E0A01ADCA01F0000107
:102C80001200080E016E0A0E006E002EFED78B9603
:102C900094960B0E006E002EFED70A01C4378B9857
:102CA000D8B09488D8A09498948682A6FED7012E96
:102CB00001D002D00001E7D70A0E006E002EFED729
:102CC0008B969496000094880B0E006E002EFED713
:102CD0000B0E006E002EFED7948682A6FED7016AE8
:102CE0000B0E006E002EFED782B801808B96949654
:102CF0008B98949800011200080E0A01B96F00C069
:102D0000BAFA94880B0E006E002EFED7948682A627
:102D1000FED782B8D88082A8D89001360A0E006EFD
:102D2000002EFED794968B96B92FEBD794880B0E76
:102D3000006E002EFED78B98BA51D8A4949800004C
:102D4000948682A6FED70A0E006E002EFED78B96C2
:102D500094960B0E006E002EFED78B98949800016F
:102D6000120094880A0E006E002EFED794860B0E79
:102D7000006E002EFED78B9894980A0E006E002EDF
:102D8000FED78B969496D00E0A01C46F000179DFAE
:102D9000B3CAC4FA76DF94880A0E006E002EFED7FE
:102DA00094860B0E006E002EFED782A6FED78B985F
:102DB00094980A0E006E002EFED78B969496D10E34
:102DC0000A01C46F00015DDF006A96DF01C0B4FA3A
:102DD00094980000948682A6FED70A0E006E002EFC
:102DE000FED700D0000094880A0E006E002EFED799
:102DF0000A01B4CA01F000011200B4CAB5FA0A010E
:102E0000B539006E0F0E001600500A0DF3CFB4FA5C
:102E1000B539006EF00E00160050003A0F0E001685
:102E20000050B427B4CA01F00001120094880A0EC1
:102E3000006E002EFED794860B0E006E002EFED77D
:102E40008B9894980A0E006E002EFED78B9694965F
:102E5000A00E0A01C46F000114DFB6CAB8FA0A0155
:102E6000B96BB6CAC4FA00010CDFB5CAC4FA09DFEF
:102E700094880A0E006E002EFED794860B0E006E0C
:102E8000002EFED782A6FED78B9894980A0E006E6D
:102E9000002EFED78B969496A10E0A01C46F0001F6
:102EA000F0DE006A29DF01C0B7FA9498000094862A
:102EB00082A6FED70A0E006E002EFED700D00000BC
:102EC00094880A0E006E002EFED70A01B7CA01F0E0
:102ED000000112000A01B06BAF6BB26BB16BB46B47
:102EE000B36BB66B280EB56F0001A0DF0A0101C0FD
:102EF000B1FAB26BB66B290EB56F000197DF0A010C
:102F0000B46B01C0B3FAB3CAB4FAB36BB351B11125
:102F1000AF6FB451B211B06FAFCA01F0B0CA02F0D6
:102F2000000112000A01B151B303F3CF01F0F4CF55
:102F300000F0B403F3500026B251B303F350002065
:102F4000026E000112000A01BE6BBB51BE5D0AE2B7
:102F5000036ABE51BC25E96EBD510320EA6EEF6ADB
:102F6000BE2BF3D7000112000A01BA6B010EB96F34
:102F7000AFCABBFAB1CABDFAB0CABCFAB3CABFFA8B
:102F8000B2CABEFA0001BEEC04F002C0BAFA01C037
:102F9000B9FA0A01B95305E1BA5303E1000E016E13
:102FA000D5D1BACAB8FAB9CAB7FA09018D53D8A4AB
:102FB000DDD00A01AF53D8A47BD0B66BB6514E0812
:102FC00076E3036AB651B425016EB551032201C000
:102FD000BBFA03C0BCFA050EB725BD6F000EB821C1
:102FE000BE6FB251BD25E96EB351BE21EA6EEFCF7F
:102FF000BFFA040EB725C06F000EB821C16FB251E1
:10300000C025E96EB351C121EA6EEFCFC2FA030EBB
:10301000B725C36F000EB821C46FB251C325E96E46
:10302000B351C421EA6EEFCFC5FA020EB725C66FC1
:10303000000EB821C76FB251C625E96EB351C72142
:10304000EA6EEFCFC8FA010EB725C96F000EB8219E
:10305000CA6FB251C925E96EB351CA21EA6EEFCFEA
:10306000CBFAB251B725E96EB351B821EA6EEFCF72
:10307000CCFADD6BDE6BBFCADFFAC2CAE0FAC5CAA2
:10308000E1FAC8CAE2FACBCAE3FACCCAE4FA000110
:1030900013EC03F0BCCAEAFFBBCAE9FF01C0EFFFB3
:1030A000070E0A01B727000EB823B62B87D75CD0CE
:1030B000B66BB651270858E3036AB651B425016EC2
:1030C000B551032201C0BBFA03C0BCFA030EB725F9
:1030D000BD6F000EB821BE6FB251BD25E96EB35170
:1030E000BE21EA6EEFCFBFFA020EB725C06F000E09
:1030F000B821C16FB251C025E96EB351C121EA6E4A
:10310000EFCFC2FA010EB725C36F000EB821C46F0E
:10311000B251C325E96EB351C421EA6EEFCFC5FAAF
:10312000B251B725E96EB351B821EA6EEFCFC6FAB6
:10313000DD6BDE6BDF6BE06BBFCAE1FAC2CAE2FA9D
:10314000C5CAE3FAC6CAE4FA000113EC03F0BCCA2C
:10315000EAFFBBCAE9FF01C0EFFF050E0A01B7276E
:10316000000EB823B62BA5D7DCD009010A01AF5356
:10317000D8A47BD0B66BB6514E0876E3036AB6513D
:10318000B425016EB551032201C0BBFA03C0BCFADD
:10319000050EB75DBD6F000EB859BE6FB251BD25AB
:1031A000E96EB351BE21EA6EEFCFBFFA040EB75DF0
:1031B000C06F000EB859C16FB251C025E96EB3514E
:1031C000C121EA6EEFCFC2FA030EB75DC36F000EE6
:1031D000B859C46FB251C325E96EB351C421EA6E28
:1031E000EFCFC5FA020EB75DC66F000EB859C76FB4
:1031F000B251C625E96EB351C721EA6EEFCFC8FAC6
:10320000010EB75DC96F000EB859CA6FB251C9251A
:10321000E96EB351CA21EA6EEFCFCBFAB251B725AE
:10322000E96EB351B821EA6EEFCFCCFADD6BDE6BFD
:10323000BFCADFFAC2CAE0FAC5CAE1FAC8CAE2FAEE
:10324000CBCAE3FACCCAE4FA000113EC03F0BCCA1F
:10325000EAFFBBCAE9FF01C0EFFF070E0A01B75F33
:10326000000EB85BB62B87D75CD0B66BB65127087B
:1032700058E3036AB651B425016EB551032201C06B
:10328000BBFA03C0BCFA030EB75DBD6F000EB859A0
:10329000BE6FB251BD25E96EB351BE21EA6EEFCFCC
:1032A000BFFA020EB75DC06F000EB859C16FB251C0
:1032B000C025E96EB351C121EA6EEFCFC2FA010E0B
:1032C000B75DC36F000EB859C46FB251C325E96E24
:1032D000B351C421EA6EEFCFC5FAB251B725E96EFA
:1032E000B351B821EA6EEFCFC6FADD6BDE6BDF6B50
:1032F000E06BBFCAE1FAC2CAE2FAC5CAE3FAC6CABB
:10330000E4FA000113EC03F0BCCAEAFFBBCAE9FF10
:1033100001C0EFFF050E0A01B75F000EB85BB62BC8
:10332000A5D7AF530AE1520EBB6FB3CABDFAB2CAFA
:10333000BCFA000108DE09D00A012C0EBB6FB3CA2B
:10334000BDFAB2CABCFA0001FEDD0A01000112009A
:1033500094880A0E006E002EFED794860B0E006E27
:10336000002EFED78B9894980A0E006E002EFED782
:103370008B969496A00E0A01C46F000182DCBECA2F
:10338000C2FA0A01C36BBECAC4FA00017ADCBDCA24
:10339000C4FA77DCBFCAC4FA74DC9498000094863F
:1033A00082A6FED70A0E006E002EFED700D00000C7
:1033B00094880A0E006E002EFED794880A0E006EC6
:1033C000002EFED794860B0E006E002EFED78B9833
:1033D00094980A0E006E002EFED78B969496A00E3F
:1033E0000A01C46F00014DDC01500A01C09101B017
:1033F000C081C0A11ED094880A0E006E002EFED798
:1034000094860B0E006E002EFED782A6FED78B98F8
:1034100094980A0E006E002EFED78B969496A00EFE
:10342000C46F00012EDC01500A01C09101B0C081BF
:10343000E0D794980000948682A6FED70A0E006E0C
:10344000002EFED700D0000094880A0E006E002ED9
:10345000FED7000112000A01B76BB66BB56BB46BF7
:10346000B86BB96BBA6BBB6BB2CAB7FAB1CAB6FA72
:10347000B0CAB5FAAFCAB4FAB4CAB8FAB5CAB9FA9A
:10348000B6CABAFAB7CABBFABE6BB3CABDFAB8CAF3
:10349000BFFA00015DDF010E0A01B325BC6FBE6BF0
:1034A000BD6FB9CABFFA000153DF020E0A01B3258E
:1034B000BC6FBE6BBD6FBACABFFA000149DF030E15
:1034C0000A01B325BC6FBE6BBD6FBBCABFFA00015A
:1034D0003FDF1200010E09019D6F040E0A01B36F58
:1034E00000013FDC01C0AFFA01C0B4FA86DC01C0C4
:1034F00000F1050E0A01B36F000133DC01C0AFFA21
:1035000001C0B4FA7ADC01C0FFF0060E0A01B36F05
:10351000000127DC01C0AFFA01C0B4FA6EDC01C0C3
:10352000FEF0030E0A01B36F00011BDC01C0AFFA0D
:1035300001C0B4FA62DC01C0FDF0020E0A01B36FF3
:1035400000010FDC01C0AFFA01C0B4FA56DC01C0C3
:1035500001F1010E0A01B36F000103DC01C0AFFAF3
:1035600001C0B4FA4ADC01C002F10A01B36B0001E8
:10357000B1EC16F001C0AFFA01C0B4FA3EDC01C0F4
:1035800003F1A8DC02C0B0FA01C0AFFA02C0B2FA7F
:1035900001C0B1FA0A01B46B7C0EB36F0001C2DC4A
:1035A00001C0AFFA960E0A010124016E000E02203E
:1035B00001C020F0216E226A236A09019A5310E1AA
:1035C0008F6B8E6B916B906B936B926B956B946B17
:1035D0009E5304E10001FC69FB6909019D6BB3D1B5
:1035E000040EF66E050EF76E000103EC03F0010108
:1035F000066B056B010E096F8FC9AEFA8EC9ADFA65
:103600000A01AF6BAECAB1FAADCAB0FA050EB36F1C
:103610000B0EB26F040EB56F940EB46F0001A4DCF4
:1036200009018F6B8E6B91C9AEFA90C9ADFA010E8C
:103630000A01AF6FAECAB1FAADCAB0FA080EB36FE5
:103640005D0EB26F040EB56FE30EB46F00018CDC3B
:103650000901916B906B9D6B200E040194250A016A
:10366000AC6F2352D8A46ED12252D8A46BD1215072
:10367000AA08D8A067D104E120504508D8A062D19B
:10368000AC512508D8A45ED123C003F022C002F0BB
:1036900021C001F020C000F0010E2026D8B0212A60
:1036A000D8B4222AD8B4232A01C0B0FA00C0AFFA95
:1036B00001C0BEFA00C0BDFA00C1BFFA000148DE79
:1036C00023C003F022C002F021C001F020C000F0AE
:1036D000010E2026D8B0212AD8B4222AD8B4232A11
:1036E00001C0B0FA00C0AFFA01C0BEFA00C0BDFA16
:1036F000FFC0BFFA2DDE23C003F022C002F021C0BC
:1037000001F020C000F0010E2026D8B0212AD8B444
:10371000222AD8B4232A01C0B0FA00C0AFFA01C0EF
:10372000BEFA00C0BDFA01C1BFFA12DE23C003F029
:1037300022C002F021C001F020C000F0010E2026BE
:10374000D8B0212AD8B4222AD8B4232A01C0B0FA8A
:1037500000C0AFFA01C0BEFA00C0BDFA02C1BFFA94
:10376000F7DD23C003F022C002F021C001F020C029
:1037700000F0010E2026D8B0212AD8B4222AD8B4CD
:10378000232A01C0B0FA00C0AFFA01C0BEFA00C0DF
:10379000BDFA03C1BFFADCDD0901996B986B99533F
:1037A0002EE198514E082BE323C003F022C002F013
:1037B00021C001F020C000F0010E2026D8B0212A3F
:1037C000D8B4222AD8B4232A01C0B0FA00C0AFFA74
:1037D000940E9825E96E040E9921EA6EEF503F0B86
:1037E000200F0A01B16F01C0BEFA00C0BDFABF6F61
:1037F0000001AEDD0901982BD8B4992BD0D74F0E1C
:103800000A01BB6F040EBD6F940EBC6F0001A3ECE8
:1038100017F00901996B986B99532EE1985127087D
:103820002BE323C003F022C002F021C001F020C02E
:1038300000F0010E2026D8B0212AD8B4222AD8B40C
:10384000232A01C0B0FA00C0AFFAE30E9825E96E52
:10385000040E9921EA6EEF500F0B300F0A01B16F81
:1038600001C0BEFA00C0BDFABF6F000171DD0901E1
:10387000982BD8B4992BD0D7280E0A01BB6F040E11
:10388000BD6FE30EBC6F0001A3EC17F00D0E0A0133
:10389000D16F0001E0EC02F00A0E0A01D16F0001C5
:1038A000E0EC02F01A0EF66E050EF76E03EC03F074
:1038B00001010C530BE0200EF66E050EF76E0001B1
:1038C00003EC03F0929E899E01010D6B0F690E6956
:1038D0000D0E0A01D16F0001E0EC02F00A0E0A01A0
:1038E000D16F0001E0EC02F0300EF66E050EF76EBF
:1038F00003EC03F00D0E0A01D16F0001E0EC02F0C1
:103900000A0E0A01D16F0001E0EC02F0FC6BFB6BC8
:1039100023C0B2FA22C0B1FA21C0B0FA20C0AFFA77
:10392000190E0A01B36F000196DD09019A6B9D6BB8
:10393000010E9E6F0101096F0001FC6BFB6B010121
:103940000B6B0A01090100014BEF1EF0016603D069
:10395000026602D007D0022A00C0EEFF012EFCD77B
:10396000022EFAD712002752D8A49ED02652D8A4ED
:103970009BD02550FF08D8A097D004E12450FE0822
:10398000D8A092D00101105366E000016AEC17F054
:1039900002C0AEFA01C0ADFAAECAB2FAADCAB1FA0F
:1039A0000A01B46B320EB36F000192EC17F002C043
:1039B000B0FA01C0AFFA460E0A01AF27AA0EB02333
:1039C000010EAF25016E000EB02101C024F0256E5E
:1039D000266A276AAC6BAC512C0828E327C003F099
:1039E00026C002F025C001F024C000F0010E2426FC
:1039F000D8B0252AD8B4262AD8B4272A01C0B0FACC
:103A000000C0AFFA036AAC51100FE96E010E03203B
:103A1000EA6EEFCFB1FA01C0BEFA00C0BDFAB1CA7A
:103A2000BFFA000195DC0A01AC2BD5D725C0BEFA40
:103A300024C0BDFABF6B00018BDC27C0B2FA26C0E0
:103A4000B1FA25C0B0FA24C0AFFA1E0E0A01B36F56
:103A5000000101DD01010B6B320E0A01BB6F010E8B
:103A6000BD6F100EBC6F0001A3EC17F00D0E0A0124
:103A7000D16F0001E0EC02F00A0E0A01D16F0001E3
:103A8000E0EC02F0F60EF66E030EF76E03EC03F0B8
:103A90000D0E0A01D16F0001E0EC02F00A0E0A01DE
:103AA000D16F0001E0EC02F0B1EF1EF00A01AF6B44
:103AB000AE6BB06BB16BADCAAFFAACCAAEFAAECA00
:103AC000B0FAAF51B16FBE6B280EBD6FB0CABFFA6E
:103AD00000013EDC0A01BE6B290EBD6FB1CABFFA00
:103AE000000136DC1200EACFB4FAE9CFB3FA0A01DA
:103AF000ADAF08D0B38FB3A9B32BAC1FAD1FAC2BA8
:103B0000D8B4AD2BAD39F009AF6FAF27E20FB06F6E
:103B1000320FB26FAD510F0BB027B027B227E90FAC
:103B2000B16FB127B127AC390F0BB127B227B1372D
:103B3000B237B21FB237AC510F0BB227AF37070EF7
:103B4000AE6F0A0EB107B227FDE3B007B127FDE360
:103B5000AF07B027FDE3AE07AF27FDE30A0EEA6E1D
:103B6000AE0EE96E070EB315B39DE906B31507E176
:103B7000B3B9E92AB3B903D0200E006E1CD0E926F0
:103B8000B20EE95CD8B4B38DEF50006E08E1B3BD5E
:103B900006D0B3B91ED0B3B702D0200E0BD0B3AF4E
:103BA00006D02D0E006EED50B39DB39F04D0B387A9
:103BB000B399300E0026EACFADFAE9CFACFA00C0D7
:103BC000D1FA0001E0EC02F0ADCAEAFFACCAE9FFAD
:103BD0000A01EE50B3ADD4D70001EEEF1EF00101A3
:103BE0000C531DE00F51010807E303E10E51F308E8
:103BF00003E30E2BD8B40F2B0E51F40810E10F2D58
:103C00000ED00E0EF66E3E0EF76E000103EC03F0C2
:103C1000929E899E01010D6B0E2BD8B40F2B082D9F
:103C20000DD00901A75304E1000171EC10F005D09B
:103C3000000196EC15F001C0ABFA0101092D0CD082
:103C40000901A75304E1000171EC10F005D0000157
:103C500096EC15F001C0ABFA09018C530FE18B53C0
:103C60000DE18A530BE18951040808E3010E89270D
:103C7000D8B08A2BD8B48B2BD8B48C2B895105089B
:103C80002AE18A5328E18B5326E18C5324E19F2DAE
:103C900003D000011FD40901050EEA6E0B0EE96E78
:103CA000006A030E026E520E016E00014FDE080E16
:103CB000EA6E5D0EE96E006A010E026E2C0E016E58
:103CC00045DE0901A06B010E8927D8B08A2BD8B434
:103CD0008B2BD8B48C2B0A01B66B940EB56F0001F8
:103CE00016EC17F001C042F1020E0A01B26FBC0ED1
:103CF000B16FB46B42C1B3FA000192EC17F002C08D
:103D000003F0FC51025C07E303E10150FB5D03E2B9
:103D1000FB2BD8B4FC2B020E0A01B26FBC0EB16FA4
:103D2000B46B42C1B3FA000192EC17F002C003F089
:103D30000150FB5D69E10350FC5D66E1FB2BD8B4EB
:103D4000FC2B6AEC17F002C0AAFA01C0A9FA0A011A
:103D5000AA51010813E303E1A9515D080FE3000133
:103D600002D6010E0A01A927000EAA23AACAADFA9B
:103D7000A9CAACFA00019ADE1AD00A011E0EF66E2C
:103D80003E0EF76E000103EC03F00E0E04018D6F82
:103D9000030EEA6E400EE96E000E0001AAEC00F080
:103DA0000A000900F550EE6E0009FBE12DD02E0E41
:103DB000F66E3E0EF76E03EC03F03E0EF66E3E0E10
:103DC000F76E140E0A01C56F0001BFEC0AF0100E69
:103DD000E96EAACAADFAA9CAACFA85D6550EF66E36
:103DE0003E0EF76E030E0A01C56F0001BFEC0AF02C
:103DF00009019E6B0101096B94948B940401912D30
:103E000002D00B0E8D6F0001F29442EF00F00A0D0C
:103E10004B65792072656C656173650A0D000D0A4A
:103E200046756C6C206D656D6F72790D0A000D0A18
:103E3000536176696E672050494E0D0A00000D0AE5
:103E40006E657874207472616E73616374696F6EED
:103E50002028256C64290D0A00000D0A726573651F
:103E6000742070617373776F72640D0A00000D0A1D
:103E7000446F6E650D0A00000D0A626F6F74696E03
:103E8000672E2E2E0D0A000041540D0A00004154E9
:103E90002B434D47463D310D0A0041542B43534DB2
:103EA000503D31372C3136372C302C3234350D0A19
:103EB000000041542B434D47443D310D0A0041540D
:103EC0002B434D47443D320D0A0041542B434D478F
:103ED000443D330D0A0041542B434D47443D340DBE
:103EE0000A0041542B434D47443D350D0A0072658D
:103EF0006164696E675F736D732E2E2E0A0D00006C
:103F000041542B434D47523D310D0A00616E616CA7
:103F1000797A655F736D732E2E2E0A0D00000A0DDF
:103F20004D6F62696C652070686F6E65206E756D8F
:103F300062657220697320000A0D4D53473A2000D4
:103F40000A0D54494D453A2000000A0D6368656327
:103F50006B696E672070686F6E65206E756D626547
:103F60007220697320646F6E650A0D000A0D636F1D
:103F70006E66696775726564206D6F62696C652035
:103F800070686F6E65206E756D6265720A0D000057
:103F90006368616E6765642070686F6E65206E751A
:103FA0006D6265720A0D2800290A0D0077726F6E26
:103FB000672070617373776F72640A0D00000A0DD9
:103FC00020746869732070686F6E6520756E616219
:103FD0006C6520746F2073656E6420636F6D6D6116
:103FE0006E6473200A0D00006368616E676564206B
:103FF0007468652070617373776F72640A0D0000D6
:104000000A0D657869740A0D00000A0D6B657970F8
:1040100072657373207475726E206F6E0A0D0000E6
:1040200020657869740A0D000A0D6B6579707265F8
:104030007373207475726E206F66660A0D002065BA
:104040007869740A0D000A0D706C656173652063F0
:104050006865636B20796F75722073796E7461780F
:104060000A0D00000A0D6D6173746572206D6F6436
:1040700065207475726E206F6E0A0D002065786978
:10408000740A0D000A0D6D6173746572206D6F64A2
:1040900065207475726E206F66660A0D00002065DB
:1040A0007869740A0D000A0D706C65617365206390
:1040B0006865636B20796F75722073796E746178AF
:1040C0000A0D0000726573657420666163746F7217
:1040D000790A0D007472616E2074696D65203D204F
:1040E00025640A0D00000A0D706C6561736520631C
:1040F0006865636B20796F75722073796E7461786F
:104100000A0D00000A0D6175746F73656E64696E47
:1041100067207475726E206F6E0A0D0020657869D5
:10412000740A0D000A0D6175746F73656E64696EB3
:1041300067207475726E206F66660A0D0000206538
:104140007869740A0D000A0D706C656173652063EF
:104150006865636B20796F75722073796E7461780E
:104160000A0D0000464F524D415454494E472E2EE1
:104170002E0020657869740A0D00464F524D415457
:1041800054494E472E2E2E0020657869740A0D0082
:104190006465766963652068617320256C75207499
:1041A00072616E73616374696F6E200A0D00646FD3
:1041B000776E6C6F616420616C6C0A0D00000A0DF3
:1041C000706C6561736520636865636B20796F75DA
:1041D000722073796E7461780A0D000064656C65F5
:1041E00074655F4D53472E2E2E0A0D0041542B430C
:1041F0004D47443D310D0A00256C7520636861729E
:1042000061637465720A0D004D53475F73656E6498
:10421000696E670A0D0041542B434D47463D310DF1
:104220000A0041542B434D47533D00000D0A53658E
:104230006E64696E672E2E2E0D0A000069646C652F
:104240000A0D000053494D206973207265706C7926
:10425000696E670A0D0094869488F19EE3EF2BF057
:104260000A019D6B9A519D5D22E29D5199259E6F99
:10427000036A9D519B25E96E9C510320EA6EEFCFA6
:104280009FFA196AF2BE198EF29EBE6B9ECABDFAE3
:104290009FCABFFA0001A8EC19F019BEF28E1A0EDF
:1042A000006E002EFED700000A019D2BDBD7000117
:1042B00012000A01986B985113080AE3036A985197
:1042C000840FE96E0A0E0320EA6EEF68982BF3D78D
:1042D000996B140E9A6F0A0E9C6F840E9B6F0001EF
:1042E000BFDF15EF2CF00A01886B8551885D26E24F
:1042F000036A88518625016E8751032201C089FA1D
:1043000003C08AFA885184258B6F196AF2BE198E10
:10431000F29EB66BB56F000116EC17F019BEF28E67
:104320008ACAEAFF89CAE9FF01C0EFFF1A0E006ED0
:10433000002EFED700000A01882BD7D700011200FB
:104340000A01846B140E856F876B550E866F000112
:10435000CADF553C2BD0563C29D0643D27D0EA6AB1
:104360002D0EE96E006A026A140E016EA6EC1CF0B6
:10437000EA6A2D0EE96E000E69EC00F00A000900F1
:10438000F550EE6E0009FBE10A01996B140E9A6F6D
:104390009C6B2D0E9B6F000163DF0A01846B140E72
:1043A000856F876B550E866F00019DDF36EF2CF011
:1043B000196AF2BE198EF29E0A01B36B0001B1ECCC
:1043C00016F019BEF28E01C084FA0A01849F948807
:1043D0000A0E006E002EFED794860B0E006E002E85
:1043E000FED78B9894980A0E006E002EFED78B96FF
:1043F0009496196AF2BE198EF29ED00EC46F000117
:1044000041EC16F019BEF28E196AF2BE198EF29EB8
:104410000A01C46B000141EC16F019BEF28E196A54
:10442000F2BE198EF29E84CAC4FA41EC16F019BE8F
:10443000F28E94880A0E006E002EFED794860B0E24
:10444000006E002EFED782A6FED78B9894980A0E97
:10445000006E002EFED78B969496196AF2BE198EC6
:10446000F29ED00E0A01C46F000141EC16F019BE95
:10447000F28E196AF2BE198EF29E070E0A01C46FFF
:10448000000141EC16F019BEF28E196AF2BE198EC7
:10449000F29E800E0A01C46F000141EC16F019BEB5
:1044A000F28E94980000948682A6FED70A0E006EC3
:1044B000002EFED700D0000094880A0E006E002E59
:1044C000FED751EF2CF00A01886B876B866B856BEA
:1044D0008C6B8B6B8A6B896B906B8F6B8E6B8D6B20
:1044E000946B936B926B916B986B976B966B956BD0
:1044F000196AF2BE198EF29EB66B84CAB5FA000133
:1045000016EC17F019BEF28E0A0101C089FA8A6B07
:104510008B6B8C6B010E8425996F196AF2BE198E14
:10452000F29EB66BB56F000116EC17F019BEF28E55
:104530000A01906B8F6B8E6B01C08DFA8FCA90FA57
:104540008ECA8FFA8DCA8EFA8D6B020E8425996FF2
:10455000196AF2BE198EF29EB66BB56F000116ECA9
:1045600017F019BEF28E0A01946B936B926B01C027
:1045700091FA92CA94FA91CA93FA916B926B030ED4
:104580008425996F196AF2BE198EF29EB66BB56FCB
:10459000000116EC17F019BEF28E0A01986B976BAA
:1045A000966B01C095FA95CA98FA956B966B976BC6
:1045B00095519111996F965192119A6F975193114C
:1045C0009B6F985194119C6F8D5199138E519A1332
:1045D0008F519B1390519C1399518911856F9A515A
:1045E0008A11866F9B518B11876F9C518C11886F3C
:1045F00085CA00F086CA01F087CA02F088CA03F0B3
:10460000000112000900F5520DE0F6CF84FAF7CF51
:1046100085FAF5509EA8FED7AE6E84CAF6FF85CA0D
:10462000F7FFF0D712000A01886B896B8A6B8B6BDE
:104630008C6B8D6B8E6B196AF2BE198EF29E320EE8
:10464000BB6F85CABDFA84CABCFA0001A3EC17F09F
:1046500019BEF28E196AF2BE198EF29E140E0A016C
:10466000BB6F87CABDFA86CABCFA0001A3EC17F07B
:1046700019BEF28E0A01886B88516308D8A005D153
:10468000036A88514A0FE96E010E0320EA6EEF506B
:104690002B08D8A496D0010E8825036A4A0FE96E2C
:1046A000010E0320EA6EEF504308D8A48AD0020E10
:1046B0008825036A4A0FE96E010E0320EA6EEF5067
:1046C0004D08D8A47ED0030E8825036A4A0FE96EF0
:1046D000010E0320EA6EEF504708D8A472D0040EF2
:1046E0008825036A4A0FE96E010E0320EA6EEF5037
:1046F000520867E1050E8825036A4A0FE96E010E2C
:104700000320EA6EEF503A085CE1060E8825036A42
:104710004A0FE96E010E0320EA6EEF50200851E1C6
:10472000070E8825036A4A0FE96E010E0320EA6E20
:10473000EF50300846E1080E8825036A4A0FE96EFB
:10474000010E0320EA6EEF502C083BE1090E88258C
:10475000036A4A0FE96E010E0320EA6EEF502C083F
:1047600030E10A0E8825036A4A0FE96E010E032024
:10477000EA6EEF50300825E18E6BC80E886F196A1B
:10478000F2BE198EF29E640EBB6F85CABDFA84CA52
:10479000BCFA0001A3EC17F019BEF28E196AF2BE42
:1047A000198EF29E100E0A01BB6F87CABDFA86CA27
:1047B000BCFA0001A3EC17F019BEF28E0101046BE4
:1047C0000A01036A88514A0FE96E010E0320EA6E5E
:1047D000EFCF8FFA8951030813E18F512F0803E2BD
:1047E0008F51390803E28F512B080AE18A51885D05
:1047F000036A8625E96E87510320EA6E8FCAEFFFB0
:104800008B5102080CE18A51885D036A8425E96EA8
:1048100085510320EA6E8FCAEFFF010E8E6F8C5117
:1048200002080AE18D51885D036A580FE96E040E93
:104830000320EA6E8FCAEFFF8F5122080AE18951E7
:104840000508D8B0892B8951030803E1010E88259A
:104850008A6F8951060817E18F510D0803E08F51C7
:104860000A0807E18B2B8B51020803E1010E882512
:104870008A6F8F51220807E18C2B8C51020803E1CB
:10488000010E88258D6F882BF7D68ECA01F00001A6
:10489000C6EF2EF085CA89FA84CA88FA87CA8BFACD
:1048A00086CA8AFA89CA03F00A0188CAE9FF89CA56
:1048B000EAFFEF5223E08BCA03F08ACAE9FF8BCAF2
:1048C000EAFFEF521BE088CAE9FF89CAEAFFEFCF8F
:1048D0008CFA8BCA03F08ACAE9FF8BCAEAFFEF5051
:1048E0008C5D03E0010E016E1FD0882BD8B4892B9C
:1048F0008A2BD8B48B2B0001D5D70A0189CA03F0C3
:1049000088CAE9FF89CAEAFFEFCF8CFA8BCA03F0A5
:104910008ACAE9FF8BCAEAFFEF508C5D03E0010E03
:10492000016E02D0000E016E000179EF2FF0300E03
:104930000A01855D0A0DF3CF88FA300E865D882561
:10494000876F87CA01F00001120094880A0E006E7A
:10495000002EFED794860B0E006E002EFED78B988D
:1049600094980A0E006E002EFED78B9694961A0E1F
:10497000006E002EFED70000196AF2BE198EF29E5C
:10498000D00E0A01C46F000141EC16F019BEF28E80
:104990001A0E006E002EFED70000196AF2BE198EA4
:1049A000F29E8CCAC4FA41EC16F019BEF28E1A0EB1
:1049B000006E002EFED70000196AF2BE198EF29E1C
:1049C0008DCAC4FA41EC16F019BEF28E949800001C
:1049D000948682A6FED70A0E006E002EFED700D067
:1049E000000094880A0E006E002EFED71A0E006E8C
:1049F000002EFED700001200196AF2BE198EF29E38
:104A00008BCABBFA0A0E0A01BC6F000133EC0BF033
:104A100019BEF28E01C08CFA0A018C510A0DF350B6
:104A20008B5D8D6F8C39006EF00E001600508D116D
:104A3000016E000112000A018C6B8D6B000185DF95
:104A40008ACA8BFAD9DF01C08BFA010E0A018C6F7A
:104A500001C08DFA000179DF89CA8BFACDDF01C070
:104A60008BFA020E0A018C6F01C08DFA00016DDF16
:104A700088CA8BFAC1DF01C08BFA030E0A018C6F62
:104A800001C08DFA000161DF85CA8BFAB5DF01C074
:104A90008BFA040E0A018C6F01C08DFA000155DFFC
:104AA00086CA8BFAA9DF01C08BFA050E0A018C6F4A
:104AB00001C08DFA000149DF87CA8BFA9DDF01C072
:104AC0008BFA060E0A018C6F01C08DFA00013DDFE2
:104AD000070E0A018C6F8D6B000137DFA3EF25F005
:104AE00058C485FA59C486FA22DF01C0FEF05BC4BF
:104AF00085FA5CC486FA1BDF01C0FFF05EC485FA4C
:104B00005FC486FA14DF01C000F161C485FA62C493
:104B100086FA0DDF01C001F164C485FA65C486FA26
:104B200006DF010E01240101026F00C185FAFFC0FA
:104B300086FAFEC087FAFDC088FA01C189FA02C16F
:104B40008AFA000178D789EF2FF00A01885302E131
:104B5000895342E084CAE9FF85CAEAFFEFCF8AFAA7
:104B600087CA03F086CAE9FF87CAEAFFEF508A5D69
:104B700017E085CA03F084CAE9FF85CAEAFFEFCFD0
:104B80008AFA87CA03F086CAE9FF87CAEAFFEF50AC
:104B90008A5D02E2FF0E01D0010E016E1FD00BD024
:104BA00085CA03F084CAE9FF85CAEAFFEF5203E130
:104BB000000E016E13D085CA03F08451842BD8B443
:104BC000852B87CA03F08651862BD8B4872B885152
:104BD000D8B489078807BAD7000E016E0001120009
:104BE000196AF2BE198EF29E0A01BE6B940EBD6F59
:104BF000030EBF6F0001A8EC19F019BEF28E196AFE
:104C0000F2BE198EF29E0A01BE6B950EBD6F640E48
:104C1000BF6F0001A8EC19F019BEF28E196AF2BE3E
:104C2000198EF29E0A01BE6B7E0EBD6F020EBF6F23
:104C30000001A8EC19F019BEF28E196AF2BE198EA5
:104C4000F29E0A01BE6B910EBD6F010EBF6F000197
:104C5000A8EC19F019BEF28E196AF2BE198EF29EF6
:104C60000A01B66B910EB56F000116EC17F019BE74
:104C7000F28E01C0A7F9196AF2BE198EF29E0A01DE
:104C8000BE6B930EBD6FBF6B0001A8EC19F019BE8F
:104C9000F28E196AF2BE198EF29E0A01B66B930E5D
:104CA000B56F000116EC17F019BEF28E01C091F439
:104CB000CAEF33F00A01856B960E846F843D03D0F2
:104CC000853D01D013D0196AF2BE198EF29E85CAB5
:104CD000BEFA84CABDFABF6B0001A8EC19F019BE78
:104CE000F28E0A01842BD8B4852BE8D7236A226A76
:104CF000216A960E206E276A266AAA0E256E470E36
:104D0000246E196AF2BE198EF29E23C0B2FA22C036
:104D1000B1FA21C0B0FA20C0AFFA190EB36F00018A
:104D20002BEC1AF019BEF28E196AF2BE198EF29EA1
:104D300027C0B2FA26C0B1FA25C0B0FA24C0AFFA33
:104D40001E0E0A01B36F00012BEC1AF019BEF28E91
:104D5000196AF2BE198EF29E0A01AD6BAC6B0001AE
:104D600056EC1DF019BEF28EE0EF35F0AA0E0A01E6
:104D7000856F470E846F275209E1265207E185515E
:104D8000255C17E303E12450845D13E2196AF2BE47
:104D9000198EF29E85CABEFA84CABDFABF6B0001A5
:104DA000A8EC19F019BEF28E0A01842BD8B4852B19
:104DB000E2D7856B960E846F235209E1225207E1F8
:104DC0008551215C17E303E12050845D13E2196AE9
:104DD000F2BE198EF29E85CABEFA84CABDFABF6BB6
:104DE0000001A8EC19F019BEF28E0A01842BD8B488
:104DF000852BE2D7236A226A216A960E206E276AE3
:104E0000266AAA0E256E470E246E196AF2BE198E06
:104E1000F29E23C0B2FA22C0B1FA21C0B0FA20C07B
:104E2000AFFA190EB36F00012BEC1AF019BEF28E17
:104E3000196AF2BE198EF29E27C0B2FA26C0B1FAE4
:104E400025C0B0FA24C0AFFA1E0E0A01B36F0001EC
:104E50002BEC1AF019BEF28E196AF2BE198EF29E70
:104E60000A01AD6BAC6B000156EC1DF019BEF28E61
:104E7000196AF2BE198EF29E6AEC17F019BEF28E14
:104E800002C0FAF001C0F9F020EF36F08DCA8FFAB7
:104E90008CCA8EFA8FCA03F00A018ECAE9FF8FCA44
:104EA000EAFFEF5206E08E2BD8B48F2B0001F2D729
:104EB0000A018C518E5D006E8D518F59036E00C0BA
:104EC00001F0000112000A018B6B85CA8DFA84CAB9
:104ED0008CFA0001DBDF01C08BFA0A018A6B8B516F
:104EE0008A5D21E289CA03F08851882BD8B4892BC6
:104EF0008C6F03C08DFA86518C25016E875103207B
:104F0000036E8F6F036A8A518425E96E85510320F1
:104F1000EA6EEFCF90FA8FCAEAFF01C0E9FF90CAAC
:104F2000EFFF8A2BDCD788CA01F0000112000A01CA
:104F30009B6B9C6B010E9D6FDA6AD96A0A0EA06F9B
:104F4000930E9F6F0A0EEA6E970EE96EA0CAE2FFFB
:104F50009FCAE1FF9DCA9EFAD890E550EE02F35039
:104F60009B23F4509C239E2FF7D79BCADEFF9CCA3D
:104F70009BFA9C6BD8B09C2B9F2BD8B4A02B9D2B5D
:104F80009D510508DFE1000155EF28F0D8B204D0AB
:104F90000A0EEA6EA30EE96E0A019E51A219800B59
:104FA000A86F9EAF0BD09B1F9C1F9D1F9E1F9B2B0E
:104FB000D8B49C2BD8B49D2BD8B49E2BA2AF0BD0C9
:104FC0009F1FA01FA11FA21F9F2BD8B4A02BD8B436
:104FD000A12BD8B4A22B006A016A026A036AA36BF0
:104FE000A46BA56BA66BA251A111A0119F112CE07F
:104FF000200EA76FD8909B379C379D379E37A337DD
:10500000A437A537A637A251A65D08E1A151A55D39
:1050100005E1A051A45D02E19F51A35D0FE39F5103
:10502000A35FA051D8A0A03DA45FA151D8A0A13DED
:10503000A55FA251D8A0A23DA65FD8800036013658
:1050400002360336A72FD6D7A8AF0BD0001E011EFD
:10505000021E031E002AD8B4012AD8B4022AD8B4EA
:10506000032AA3CAEFFFA4CAECFFA5CAECFFA6CA95
:10507000ECFF000112000A018E6B8D6B8C6B010E30
:105080008B6F906B916B87AF19D0010E906F87CAB1
:1050900096FA86CA95FA85CA94FA84CA93FA9A69E6
:1050A000996998699769000142D703C087FA02C0DD
:1050B00086FA01C085FA00C084FA0A018B5306E122
:1050C0008C5304E18D5302E18E536DE0D89287CA70
:1050D0009EFA86CA9DFA85CA9CFA84CA9BFAA26B7C
:1050E000A16BA06B88CA9FFA000150DF03C08EFA43
:1050F00002C08DFA01C08CFA00C08BFA036A0A0163
:1051000091518925016E8A51032201C093FA03C08F
:1051100094FAEACF96FAE9CF95FAD8820A0EEA6EA7
:10512000970EE96E87CA9EFA86CA9DFA85CA9CFACE
:1051300084CA9BFAA26BA16BA06B88CA9FFA00017C
:1051400025DF96CAEAFF95CAE9FF300E0A019725C6
:10515000006E000E9821000E9921000E9A2194CA2B
:10516000EAFF93CAE9FF00C0EFFF036A9151892566
:10517000E96E8A510320EA6EEF5039080AE2036AA9
:1051800091518925E96E8A510320EA6E070EEF24BA
:10519000EF6E912B8ECA87FA8DCA86FA8CCA85FA71
:1051A0008BCA84FA8BD7902D0AD0036A9151892536
:1051B000E96E8A510320EA6E2D0EEF6E912B8F6BF4
:1051C000D89091318F5D2FE2036A8F518925E96E66
:1051D0008A510320EA6EEFCF92FA036A8F51892534
:1051E000016E8A51032203C094FA8F51915DFF0F23
:1051F000036A8925E96E8A510320EA6EEFCF95FA9A
:1052000094CAEAFF01C0E9FF95CAEFFF8F51915D93
:10521000FF0F036A8925E96E8A510320EA6E92CA5C
:10522000EFFF8F2BCDD7036A91518925E96E8A5103
:105230000320EA6EEF6A89CA01F08ACA02F000010F
:105240001200006A016A0A018B51D8908CB10026C5
:10525000003201328CB30026003201328CB50026B8
:10526000003201328CB70026003201328CB90026A0
:10527000003201328CBB0026003201328CBD002688
:10528000003201328CBF0026003201320001B7EF3C
:1052900029F00A01896B876B0A0E886F866B84512F
:1052A000851103E1000E016EC3D08951892B036A79
:1052B0008425E96E85510320EA6EEFCF8AFA8A5180
:1052C0002D080DE1010E876F8951892B036A842512
:1052D000E96E85510320EA6EEFCF8AFA0DD08A512C
:1052E0002B080AE18951892B036A8425E96E8551CF
:1052F0000320EA6EEFCF8AFA8A512F08D8B090D0F7
:105300008A513908D8A08CD08A51300821E1036A2B
:1053100089518425E96E85510320EA6EEF507808A3
:105320000AE0036A89518425E96E85510320EA6EFB
:10533000EF5058080DE1100E886F892B8951892B89
:10534000036A8425E96E85510320EA6EEFCF8AFA5D
:1053500088510A081DE18A512F0819E28A5139083B
:1053600016E30A0E8B6F86CA8CFA00016AD7300EDC
:105370000A018A5D0124866F8951892B036A84257D
:10538000E96E85510320EA6EEFCF8AFAE4D748D060
:105390008851100845E18A51600806E28A517A086E
:1053A00003E38A51DF0B01D08A518A6F8A512F089B
:1053B00003E28A51390806E28A51400831E28A51F3
:1053C00046082EE38A512F080CE28A51390809E376
:1053D00086398B6FF00E8B17300E8A5D8B25866FAA
:1053E00009D086398B6FF00E8B17410E8A5D0A0F3C
:1053F0008B25866F8951892B036A8425E96E855137
:105400000320EA6EEFCF8AFA8A51600806E28A51D9
:105410007A0803E38A51DF0B01D08A518A6FC6D71D
:10542000872D04D088510A0801E1866D86CA01F0F3
:105430000001BEEF37F00A01885186258E6F895131
:1054400087218F6FA90808E2FF0A03E18E51450802
:1054500003E2000E016E2FD08D6B8C6B8D51895D38
:105460002AE303E188518C5D26E28A518C25016E86
:105470008B518D21036E01C08EFA8F6F8C51862562
:10548000906F8D518721916F196AF2BE198EF29E2D
:10549000B66F90CAB5FA000116EC17F019BEF28E7D
:1054A0008FCAEAFF8ECAE9FF01C0EFFF0A018C2B09
:1054B000D8B48D2BD3D70001F8EF38F09EA8FED7D3
:1054C000AE6E12000A01856B846B845113085AE397
:1054D000036A84514A0FE96E010E0320EA6EEF5011
:1054E0002B084DE1010E8425036A4A0FE96E010E77
:1054F0000320EA6EEF50430842E1020E8425036A5E
:105500004A0FE96E010E0320EA6EEF504D0837E1B5
:10551000030E8425036A4A0FE96E010E0320EA6E2A
:10552000EF5054082CE1040E8425036A4A0FE96EFB
:10553000010E0320EA6EEF50490821E1050E842593
:10554000036A4A0FE96E010E0320EA6EEF503A0833
:1055500016E1C20EF66E040EF76E196AF2BE198ECF
:10556000F29E000103EC03F019BEF28E010E04015D
:105570008D6F020E0A01856F170E846F01D0856B47
:10558000842BA3D7846B8451130843E3036A8451AB
:105590004A0FE96E010E0320EA6EEF50520836E121
:1055A000010E8425036A4A0FE96E010E0320EA6E9C
:1055B000EF5049082BE1020E8425036A4A0FE96E79
:1055C000010E0320EA6EEF504E0820E1030E842501
:1055D000036A4A0FE96E010E0320EA6EEF50470896
:1055E00015E1CE0EF66E040EF76E196AF2BE198E34
:1055F000F29E000103EC03F019BEF28E94948B84AA
:10560000010E0A01856F170E846F01D0856B842B04
:10561000BAD70101AE6B010EEA6E4A0EE96E006A5E
:10562000026A640E016E0001A6EC1CF00A0185CA34
:1056300001F00001A7EF3CF0F86AD09E078EEA6AFD
:10564000E96A7E86400EB06E030E7F6EA60EAD6ECA
:10565000900EAC6E94908B80236A226A216A960E1B
:10566000206E276A266AAA0E256E470E246EFA6BF4
:10567000F96BFC69FB690E0EFE6F010EFF6F0101F5
:10568000006F016B026B036B046B030E066FE80E79
:10569000056F076B086B096B640E0A6F0B6B0C6B65
:1056A0000D6B0F6B0E6B426B476BAE6BAF6B0401F8
:1056B0008C6B8B6B8D6B8E6B010E906F2C0E8F6FC6
:1056C000916B926B936B09018C6B8B6B8A6B896B03
:1056D0008D6B8F6B8E6B916B906B936B926B956BED
:1056E000946BFD0E976FE80E966F996B986B9A6BA3
:1056F0009B6B9C6B9D6B9E6B9F6BA06BA16BA26B5E
:10570000A46B010EA36FA66BA56BA76BAB6BAA6B0B
:10571000A96BA86BBC6BBD6BFF0E0F01486FC29CE1
:10572000C29E4951E00B1F09496FD26AD16A1A6AB9
:105730001B6A0101436B4491456B466B486B449374
:10574000496B0401716B726B736B746B756B766B69
:10575000776B786B796B7A6B7B6B7C6B7D6B7E6B1D
:105760007F6B806B816B826B836B846B856B866BCD
:10577000876B886B896B8A6B0901BE6BBF6BC06BD3
:10578000C16BC26BC36BC46BC56BC66BC76BCA6B9B
:10579000CC6BCB6B050E0E01E76F04018D69000128
:1057A000FC69FB69010106690569700ED36E400E44
:1057B0009B6ED350929E899EF29CF29EF2BEFDD7C4
:1057C00000012BEF21F0040E0A01846F196AF2BE6A
:1057D000198EF29EFA0EB26F0001F5EC0BF019BEB5
:1057E000F28E0A01842FF2D75A0EF66E3E0EF76E35
:1057F000196AF2BE198EF29E000103EC03F019BE85
:10580000F28E040E0A01846F196AF2BE198EF29E9E
:10581000FA0EB26F0001F5EC0BF019BEF28E0A0120
:10582000842FF2D7000159EF21F06E0EF66E3E0E76
:10583000F76E196AF2BE198EF29E03EC03F019BEE0
:10584000F28EFFD7040E0A01846F196AF2BE198E18
:10585000F29EFA0EB26F0001F5EC0BF019BEF28E5B
:105860000A01842FF2D70001A0EF21F00A01846B16
:10587000140E856F876B550E866F000173EC21F057
:10588000196AF2BE198EF29E0A01B66B7F0EB56FD1
:10589000000116EC17F019BEF28E01C00CF1D8EF22
:1058A00021F0190E0A01846F000163EC22F003C09D
:1058B00023F002C022F001C021F000C020F01E0E33
:1058C0000A01846F000163EC22F003C027F002C0DC
:1058D00026F001C025F000C024F0196AF2BE198E2E
:1058E000F29E6AEC17F019BEF28E02C0FAF001C007
:1058F000F9F0FC69FB69C70ED56E196AF2BE198E04
:10590000F29E0A01B66B940EB56F000116EC17F00B
:1059100019BEF28E01C042F10101425302E1010EB3
:10592000426F196AF2BE198EF29E0A01B66B950E8D
:10593000B56F000116EC17F019BEF28E01C007F129
:10594000F28AF086F19A9D8AC00EF21209018C6BE0
:105950008B6B270E8A6F100E896F196AF2BE198E33
:10596000F29E0A01B66B910EB56F000116EC17F0AE
:1059700019BEF28E01C0A7F9196AF2BE198EF29E05
:105980000A01B66B920EB56F000116EC17F019BE46
:10599000F28E01C09BF9196AF2BE198EF29E0A01BD
:1059A000B66B930EB56F000116EC17F019BEF28EB0
:1059B00001C091F4030E0101066FE80E056F0001AE
:1059C000FC69FB69949E04018D69780EF66E3E0EAB
:1059D000F76E196AF2BE198EF29E000103EC03F015
:1059E00019BEF28E140E0A01846F196AF2BE198E66
:1059F000F29EFA0EB26F0001F5EC0BF019BEF28EBA
:105A00000A01842FF2D7010E0901BC6F880EF66ED1
:105A10003E0EF76E000102EC23F0040E0A01846FC3
:105A2000196AF2BE198EF29EFA0EB26F0001F5EC01
:105A30000BF019BEF28E0A01842FF2D78E0EF66E8D
:105A40003E0EF76E000102EC23F0040E0A01846F93
:105A5000196AF2BE198EF29EFA0EB26F0001F5ECD1
:105A60000BF019BEF28E0A01842FF2D7550E846F07
:105A7000140E856F040E876F710E866F000173EC34
:105A800021F09A0EF66E3E0EF76E02EC23F0040E35
:105A90000A01846F196AF2BE198EF29EFA0EB26F75
:105AA0000001F5EC0BF019BEF28E0A01842FF2D73B
:105AB000B20EF66E3E0EF76E000102EC23F0040EFD
:105AC0000A01846F196AF2BE198EF29EFA0EB26F45
:105AD0000001F5EC0BF019BEF28E0A01842FF2D70B
