:0400000047EF33F0A3
:08000800046ED8CF05F0E0CF33
:1000100006F00001E9CF0CF0EACF07F0E1CF08F0DD
:10002000E2CF09F0D9CF0AF0DACF0BF0F3CF12F01C
:10003000F4CF13F0FACF14F0F5CF15F0F6CF16F099
:10004000F7CF17F000C00EF001C00FF002C010F0A3
:1000500003C011F0F2AA30EF00F0F2B4F3EF22F097
:100060009DA036EF00F09EB043EF11F0F0A63CEFFC
:1000700000F0F0B04CEF0EF09DAA42EF00F09EBAF7
:1000800006EF11F00EC000F00FC001F010C002F03A
:1000900011C003F00CC0E9FF07C0EAFF078E08C0DB
:1000A000E1FF09C0E2FF0AC0D9FF0BC0DAFF12C0AE
:1000B000F3FF13C0F4FF14C0FAFF15C0F5FF16C01C
:1000C000F6FF17C0F7FF045006C0E0FF05C0D8FFD9
:1000D0001000F76AE20FF66E000EF7220900F550E5
:1000E000120061646D696E00F76AF80FF66E000E1B
:1000F000F7220900F55012003132334142343536CF
:10010000434437383945462A30234748F76A1C0F9D
:10011000F66E010EF7220900F55012004A23302A2C
:100120004B4D4739383748494436353445464133D5
:1001300032314243F76A440FF66E010EF72209008E
:10014000F5501200646F6E650000F76A5A0FF66E84
:10015000010EF7220900F550120072736661637494
:100160000000F76A720FF66E010EF7220900F550D3
:10017000120070617373776F72640000F76A8C0FFE
:10018000F66E010EF7220900F550120046756C6CF0
:10019000206D656D6F72792C20706C6561736520C0
:1001A000666F726D6174206D656D6F727900F76AAC
:1001B000BE0FF66E010EF7220900F55012006366BD
:1001C0006D626E310000F76AD60FF66E010EF722EF
:1001D0000900F550120077726F6E672070617373BB
:1001E000776F72640000F76AF60FF66E010EF72261
:1001F0000900F55012007273747077640000F76A9A
:100200000E0FF66E020EF7220900F550120063661B
:100210006D626E00F76A240FF66E020EF722090077
:10022000F55012006B657970726573730000F76AA0
:100230003E0FF66E020EF7220900F55012006F6EA7
:100240000000F76A520FF66E020EF7220900F55011
:1002500012006F666600F76A660FF66E020EF722EE
:100260000900F5501200706C656173652063686564
:10027000636B20796F75722073796E7461780000FA
:10028000F76A900FF66E020EF7220900F550120081
:100290006D61737465720000F76AA80FF66E020E46
:1002A000F7220900F55012006B6F666B62206E65D5
:1002B0007700F76AC20FF66E020EF7220900F550BA
:1002C00012006B6F666B62206F6C6400F76ADC0F64
:1002D000F66E020EF7220900F55012007472616E7C
:1002E00074696D650000F76AF60FF66E020EF7226C
:1002F0000900F55012006175746F73656E64696E64
:100300006700F76A120FF66E030EF7220900F55028
:10031000120071756C6C6600F76A280FF66E030E9A
:10032000F7220900F5501200666F726D61740000CB
:10033000F76A400FF66E030EF7220900F55012001F
:10034000636F756E74207472616E0000F76A5C0FE3
:10035000F66E030EF7220900F55012006465766907
:100360006365206861732000F76A780FF66E030EEC
:10037000F7220900F5501200207472616E736163F8
:1003800074696F6E2000F76A960FF66E030EF722FF
:100390000900F5501200646F776E6C6F6164206124
:1003A0006C6C0000F76AB40FF66E030EF7220900BA
:1003B000F5501200646F776E6C6F61642000F76A0D
:1003C000CE0FF66E030EF7220900F55012004465B9
:1003D0007669636520686173206F6E6C7920000018
:1003E000F76AF00FF66E030EF7220900F5501200BF
:1003F00020547261636B313E0000F76A0A0FF66E9B
:10040000040EF7220900F550120020547261636B4C
:10041000323E0000F76A240FF66E040EF722090040
:10042000F55012002050494E3A00636F6C30203D69
:1004300020256C750D0A0000636F6C31203D20256E
:100440006C750D0A0000636F6C32203D20256C75C1
:100450000D0A0000636F6C33203D20256C750D0A7A
:100460000000636F6C34203D20256C750D0A000080
:10047000636F6C30203D20256C750D0A0000636FA2
:100480006C31203D20256C750D0A0000636F6C32C5
:10049000203D20256C750D0A0000636F6C33203DF4
:1004A00020256C750D0A0000636F6C34203D2025FB
:1004B0006C750D0A0000636F6C35203D20256C754E
:1004C0000D0A00006B657920646174615B25645DD1
:1004D0002025630D0A00446F6E652050494E0000D0
:1004E0004B65790041540D0A000041542B434D47A0
:1004F000463D310D0A0041540D0A000041540D0AD9
:10050000000041540D0A000041540D0A00004154FE
:100510000D0A000041542B43504F57440D0A000070
:1005200041542B434D47443D310D0A0041542B4368
:100530004D47443D320D0A0041542B434D47443D45
:10054000330D0A0041542B434D47443D340D0A00FE
:1005500041542B434D47443D350D0A0041542B4334
:100560004D47443D360D0A0041542B434D47443D11
:10057000370D0A0041542B434D47443D380D0A00C6
:1005800041542B434D47533D000041542B434D47AD
:10059000463D310D0A0041542B434D47523D310D2C
:1005A0000A000A0D4E657720534D530A0D000A0DBF
:1005B00052454320554E524541440A0D00000A0D54
:1005C00052494E470A0D0000526561647920284D5A
:1005D0005420616C6C6F777320636F6D6D616E6416
:1005E000732066726F6D2054412F5445290A0D0007
:1005F0004E6F206E6574776F726B0A0D0000526942
:100600006E67696E670A0D0043616C6C20696E202D
:1006100070726F67726573730A0D00000A0D554E94
:100620004445522D564F4C54414745205741524E58
:100630004E494E470A0D00000A0D4F5645522D56A1
:100640004F4C5441474520504F57455220444F5737
:100650004E0A0D000D0A4249545F547261636B31BA
:1006600020446174613A0D0A00000D0A4249545F4A
:10067000547261636B3220446174613A0D0A000068
:100680000D0A536176696E6720436172642044618C
:1006900074610D0A0000446F6E6500000A0D4B6521
:1006A000792072656C656173650A0D005761697424
:1006B000696E6720666F722050494E206E756D62BC
:1006C000657200000D0A636F756E746269745F5421
:1006D000313A256C750D0A000D0A636F756E7462F0
:1006E00069745F54323A256C750D0A000D0A726503
:1006F0006164696E67206572726F722054310D0AF1
:1007000000000D0A72656164696E67206572726F20
:10071000722054320D0A0000020E0A01AF5F0CE392
:100720000A0EEA6EAF0EE96EEF5006E003D000D07D
:1007300000D00000EF2EFBD70001120094908B90A8
:10074000080E016E00D00000018E10D0019E0A013B
:10075000DA330001D8B08B80D8A08B90018C06D002
:10076000019C012EF4D700D000008B80100EE96EA2
:10077000E92EFED700D0000001BEE8D701BCF0D7BB
:1007800012000900F5520CE0F6CFB9FAF7CFBAFA29
:10079000F5CFDAFAD3DFB9CAF6FFBACAF7FFF1D755
:1007A00012000A01EA6BEB6BE2B1EB8FE339006EEA
:1007B00000360036C00E00160050EB13E439006E10
:1007C0000036E00E00160050EB13E539006EF00E17
:1007D00000160050EB13E635006E00360036F80EBA
:1007E00000160050EB13E735006E0036FC0E0016C5
:1007F0000050EB13D890E835EB13E951EB11EA6F99
:10080000EACA01F0000112000A01D26BCD536AE17D
:10081000D051CE25E96ED151CF21EA6EEFCFD3FA78
:10082000010ECE25D46F000ECF21D56FD051D42527
:10083000E96ED151D521EA6EEF50D31B020ECE25C1
:10084000D66F000ECF21D76FD051D625E96ED1518A
:10085000D721EA6EEF50D31B030ECE25D86F000EC2
:10086000CF21D96FD051D825E96ED151D921EA6E67
:10087000EF50D31B040ECE25DA6F000ECF21DB6FB5
:10088000D051DA25E96ED151DB21EA6EEF50D31B4E
:10089000050ECE25DC6F000ECF21DD6FD051DC259B
:1008A000E96ED151DD21EA6EEF50D31902E0000E5E
:1008B00001D0010ED26F060ECE25D36F000ECF21D0
:1008C000D46FD051D325E96ED151D421EA6EEF50C7
:1008D000D25D04E1010E016E6DD003D0000E016EF9
:1008E00069D068D0D051CE25E96ED151CF21EA6EC2
:1008F000EFCFD3FA010ECE5DD46F000ECF59D56F76
:10090000D051D425E96ED151D521EA6EEF50D31BD9
:10091000020ECE5DD66F000ECF59D76FD051D625BF
:10092000E96ED151D721EA6EEF50D31B030ECE5D95
:10093000D86F000ECF59D96FD051D825E96ED1515B
:10094000D921EA6EEF50D31B040ECE5DDA6F000E94
:10095000CF59DB6FD051DA25E96ED151DB21EA6E38
:10096000EF50D31B050ECE5DDC6F000ECF59DD6F4F
:10097000D051DC25E96ED151DD21EA6EEF50D3195B
:1009800002E0000E01D0010ED26F060ECE5DD36FD5
:10099000000ECF59D46FD051D325E96ED151D42157
:1009A000EA6EEF50D25D04E1010E016E03D002D079
:1009B000000E016E000112000A01D26BCD534EE110
:1009C000D051CE25E96ED151CF21EA6EEFCFD3FAC7
:1009D000010ECE25D46F000ECF21D56FD051D42576
:1009E000E96ED151D521EA6EEF50D31B020ECE2510
:1009F000D66F000ECF21D76FD051D625E96ED151D9
:100A0000D721EA6EEF50D31B030ECE25D86F000E10
:100A1000CF21D96FD051D825E96ED151D921EA6EB5
:100A2000EF50D31902E0000E01D0010ED26F040E78
:100A3000CE25D36F000ECF21D46FD051D325E96ED0
:100A4000D151D421EA6EEF50D25D04E1010E016E66
:100A500051D003D0000E016E4DD04CD0D051CE25D8
:100A6000E96ED151CF21EA6EEFCFD3FA010ECE5D00
:100A7000D46F000ECF59D56FD051D425E96ED15126
:100A8000D521EA6EEF50D31B020ECE5DD66F000E5D
:100A9000CF59D76FD051D625E96ED151D721EA6E03
:100AA000EF50D31B030ECE5DD86F000ECF59D96F18
:100AB000D051D825E96ED151D921EA6EEF50D31922
:100AC00002E0000E01D0010ED26F040ECE5DD36F96
:100AD000000ECF59D46FD051D325E96ED151D42116
:100AE000EA6EEF50D25D04E1010E016E03D002D038
:100AF000000E016E000112000A01C96BCA6BCB6BBC
:100B0000CC6BC66BC56BC231036EC131026E033252
:100B100002323F0E031602C001F0C651035CD8A09A
:100B2000DFD204E10150C55DD8B0DAD2C053D8A4F9
:100B30009AD1060EC525CD6F000EC621CE6FC351CA
:100B4000CD25E96EC451CE21EA6EEFCFCFFA050E66
:100B5000C525D06F000EC621D16FC351D025E96ED7
:100B6000C451D121EA6EEFCFD2FA040EC525D36F5E
:100B7000000EC621D46FC351D325E96EC451D421D0
:100B8000EA6EEFCFD5FA030EC525D66F000EC6214B
:100B9000D76FC351D625E96EC451D721EA6EEFCF86
:100BA000D8FA020EC525D96F000EC621DA6FC351DF
:100BB000D925E96EC451DA21EA6EEFCFDBFA010ED6
:100BC000C525DC6F000EC621DD6FC351DC25E96E43
:100BD000C451DD21EA6EEFCFDEFAC351C525E96EBF
:100BE000C451C621EA6EEFCFDFFAE26BCFCAE3FA57
:100BF000D2CAE4FAD5CAE5FAD8CAE6FADBCAE7FAF5
:100C0000DECAE8FADFCAE9FA0001CBDD01C0C9FAA1
:100C10000D0E0A01C525CD6F000EC621CE6FC35142
:100C2000CD25E96EC451CE21EA6EEFCFCFFA0C0E7E
:100C3000C525D06F000EC621D16FC351D025E96EF6
:100C4000C451D121EA6EEFCFD2FA0B0EC525D36F76
:100C5000000EC621D46FC351D325E96EC451D421EF
:100C6000EA6EEFCFD5FA0A0EC525D66F000EC62163
:100C7000D76FC351D625E96EC451D721EA6EEFCFA5
:100C8000D8FA090EC525D96F000EC621DA6FC351F7
:100C9000D925E96EC451DA21EA6EEFCFDBFA080EEE
:100CA000C525DC6F000EC621DD6FC351DC25E96E62
:100CB000C451DD21EA6EEFCFDEFA070EC525DF6FE6
:100CC000000EC621E06FC351DF25E96EC451E0215B
:100CD000EA6EEFCFE1FAE26BCFCAE3FAD2CAE4FAE6
:100CE000D5CAE5FAD8CAE6FADBCAE7FADECAE8FAF4
:100CF000E1CAE9FA000155DD01C0CAFA0A01C95189
:100D00004508D8A4AFD0CA517C08D8B4ABD0CA51DA
:100D10003E08D8B4A7D0CA511F08D8B4A3D0C6CAB9
:100D2000C8FAC5CAC7FA010ECC6FC9CACBFACB51F3
:100D30001F08D8B48CD0C8510308D8A088D004E1CB
:100D4000C751E708D8A083D0CD6BC8CACFFAC7CAAD
:100D5000CEFAC4CAD1FAC3CAD0FA000155DD015097
:100D60000A01CC17060EC725CD6F000EC821CE6F25
:100D7000C351CD25E96EC451CE21EA6EEFCFCFFA33
:100D8000050EC725D06F000EC821D16FC351D025E5
:100D9000E96EC451D121EA6EEFCFD2FA040EC72515
:100DA000D36F000EC821D46FC351D325E96EC4514F
:100DB000D421EA6EEFCFD5FA030EC725D66F000E09
:100DC000C821D76FC351D625E96EC451D721EA6E29
:100DD000EFCFD8FA020EC725D96F000EC821DA6FFF
:100DE000C351D925E96EC451DA21EA6EEFCFDBFA9F
:100DF000010EC725DC6F000EC821DD6FC351DC2555
:100E0000E96EC451DD21EA6EEFCFDEFAC351C7258A
:100E1000E96EC451C821EA6EEFCFDFFAE26BCFCAA8
:100E2000E3FAD2CAE4FAD5CAE5FAD8CAE6FADBCAC6
:100E3000E7FADECAE8FADFCAE9FA0001B2DC01C06B
:100E4000CBFA070E0A01C727000EC82370D7CC2D96
:100E500009D00901926B0A01C5CA01F0C6CA02F0A5
:100E60007BEF0BF039D1040EC525CD6F000EC621E6
:100E7000CE6FC351CD25E96EC451CE21EA6EEFCFBE
:100E8000CFFA030EC525D06F000EC621D16FC35116
:100E9000D025E96EC451D121EA6EEFCFD2FA020E0D
:100EA000C525D36F000EC621D46FC351D325E96E7B
:100EB000C451D421EA6EEFCFD5FA010EC525D66F05
:100EC000000EC621D76FC351D625E96EC451D72174
:100ED000EA6EEFCFD8FAC351C525E96EC451C621D9
:100EE000EA6EEFCFD9FAE26BE36BE46BCFCAE5FAB7
:100EF000D2CAE6FAD5CAE7FAD8CAE8FAD9CAE9FAEC
:100F000000014FDC01C0C9FA090E0A01C525CD6FE9
:100F1000000EC621CE6FC351CD25E96EC451CE213E
:100F2000EA6EEFCFCFFA080EC525D06F000EC621AE
:100F3000D16FC351D025E96EC451D121EA6EEFCFF4
:100F4000D2FA070EC525D36F000EC621D46FC35148
:100F5000D325E96EC451D421EA6EEFCFD5FA060E3F
:100F6000C525D66F000EC621D76FC351D625E96EB1
:100F7000C451D721EA6EEFCFD8FA050EC525D96F37
:100F8000000EC621DA6FC351D925E96EC451DA21AA
:100F9000EA6EEFCFDBFAE26BE36BE46BCFCAE5FA04
:100FA000D2CAE6FAD5CAE7FAD8CAE8FADBCAE9FA39
:100FB0000001D1EC03F001C0CAFA0A01C9510B08C3
:100FC000D8A48AD0CA511F08D8B486D0CA510F08F5
:100FD000D8B482D0C6CAC8FAC5CAC7FA010ECC6F47
:100FE000C9CACBFACB511F086DE0C85101086AE3AA
:100FF00003E1C751F30866E3CD6BC8CACFFAC7CA8D
:10100000CEFAC4CAD1FAC3CAD0FA0001D5DC015065
:101010000A01CC17040EC725CD6F000EC821CE6F74
:10102000C351CD25E96EC451CE21EA6EEFCFCFFA80
:10103000030EC725D06F000EC821D16FC351D02534
:10104000E96EC451D121EA6EEFCFD2FA020EC72564
:10105000D36F000EC821D46FC351D325E96EC4519C
:10106000D421EA6EEFCFD5FA010EC725D66F000E58
:10107000C821D76FC351D625E96EC451D721EA6E76
:10108000EFCFD8FAC351C725E96EC451C821EA6E23
:10109000EFCFD9FAE26BE36BE46BCFCAE5FAD2CAC1
:1010A000E6FAD5CAE7FAD8CAE8FAD9CAE9FA0001D5
:1010B000D1EC03F001C0CBFA050E0A01C727000EE0
:1010C000C82390D7CC2D08D00901926B0A01C5CA5C
:1010D00001F0C6CA02F00FD3C52BD8B4C62B13D566
:1010E000C2CAC6FAC1CAC5FAC231036EC131026EA4
:1010F000033202323F0E031602C001F00350C65DF8
:10110000D8A0F6D204E1C551015CD8B0F1D2C053E9
:10111000D8A4A9D1060EC55DCD6F000EC659CE6FFD
:10112000C351CD25E96EC451CE21EA6EEFCFCFFA7F
:10113000050EC55DD06F000EC659D16FC351D025C5
:10114000E96EC451D121EA6EEFCFD2FA040EC55D2B
:10115000D36F000EC659D46FC351D325E96EC45165
:10116000D421EA6EEFCFD5FA030EC55DD66F000E1F
:10117000C659D76FC351D625E96EC451D721EA6E3F
:10118000EFCFD8FA020EC55DD96F000EC659DA6FDF
:10119000C351D925E96EC451DA21EA6EEFCFDBFAEB
:1011A000010EC55DDC6F000EC659DD6FC351DC2535
:1011B000E96EC451DD21EA6EEFCFDEFAC351C525D9
:1011C000E96EC451C621EA6EEFCFDFFAE26BCFCAF7
:1011D000E3FAD2CAE4FAD5CAE5FAD8CAE6FADBCA13
:1011E000E7FADECAE8FADFCAE9FA0001D1EC03F057
:1011F00001C0C9FA0D0E0A01C55DCD6F000EC659BA
:10120000CE6FC351CD25E96EC451CE21EA6EEFCF2A
:10121000CFFA0C0EC55DD06F000EC659D16FC35109
:10122000D025E96EC451D121EA6EEFCFD2FA0B0E70
:10123000C55DD36F000EC659D46FC351D325E96E77
:10124000C451D421EA6EEFCFD5FA0A0EC55DD66F30
:10125000000EC659D76FC351D625E96EC451D721A8
:10126000EA6EEFCFD8FA090EC55DD96F000EC659E8
:10127000DA6FC351D925E96EC451DA21EA6EEFCF96
:10128000DBFA080EC55DDC6F000EC659DD6FC35179
:10129000DC25E96EC451DD21EA6EEFCFDEFA070EE0
:1012A000C55DDF6F000EC659E06FC351DF25E96EE3
:1012B000C451E021EA6EEFCFE1FAE26BCFCAE3FA64
:1012C000D2CAE4FAD5CAE5FAD8CAE6FADBCAE7FA1E
:1012D000DECAE8FAE1CAE9FA0001D1EC03F001C084
:1012E000CAFA0A01C9514508D8A4BCD0CA517C0821
:1012F000D8B4B8D0CA513E08D8B4B4D0CA511F0827
:10130000D8B4B0D0CA510F08D8B4ACD0CA517808FC
:10131000D8B4A8D0C6CAC8FAC5CAC7FA010ECC6FDD
:10132000C9CACBFACB511F08D8B48CD0C85304E13A
:10133000C7510108D8B086D0010ECD6FC8CACFFA08
:10134000C7CACEFAC4CAD1FAC3CAD0FA000104ECA3
:1013500004F001500A01CC17060EC75DCD6F000ED8
:10136000C859CE6FC351CD25E96EC451CE21EA6E66
:10137000EFCFCFFA050EC75DD06F000EC859D16F01
:10138000C351D025E96EC451D121EA6EEFCFD2FA14
:10139000040EC75DD36F000EC859D46FC351D32557
:1013A000E96EC451D421EA6EEFCFD5FA030EC75DC2
:1013B000D66F000EC859D76FC351D625E96EC451F8
:1013C000D721EA6EEFCFD8FA020EC75DD96F000EB3
:1013D000C859DA6FC351D925E96EC451DA21EA6ED2
:1013E000EFCFDBFA010EC75DDC6F000EC859DD6F71
:1013F000C351DC25E96EC451DD21EA6EEFCFDEFA80
:10140000C351C725E96EC451C821EA6EEFCFDFFA98
:10141000E26BCFCAE3FAD2CAE4FAD5CAE5FAD8CA6F
:10142000E6FADBCAE7FADECAE8FADFCAE9FA00013F
:10143000D1EC03F001C0CBFA070E0A01C75F000E22
:10144000C85B70D7CC2D0AD0010E0901926F0A013A
:10145000C5CA01F0C6CA02F04ED104D0000E016E1A
:10146000026E49D140D1040EC55DCD6F000EC65944
:10147000CE6FC351CD25E96EC451CE21EA6EEFCFB8
:10148000CFFA030EC55DD06F000EC659D16FC351A0
:10149000D025E96EC451D121EA6EEFCFD2FA020E07
:1014A000C55DD36F000EC659D46FC351D325E96E05
:1014B000C451D421EA6EEFCFD5FA010EC55DD66FC7
:1014C000000EC659D76FC351D625E96EC451D72136
:1014D000EA6EEFCFD8FAC351C525E96EC451C621D3
:1014E000EA6EEFCFD9FAE26BE36BE46BCFCAE5FAB1
:1014F000D2CAE6FAD5CAE7FAD8CAE8FAD9CAE9FAE6
:101500000001D1EC03F001C0C9FA090E0A01C55D62
:10151000CD6F000EC659CE6FC351CD25E96EC451B3
:10152000CE21EA6EEFCFCFFA080EC55DD06F000E68
:10153000C659D16FC351D025E96EC451D121EA6E8D
:10154000EFCFD2FA070EC55DD36F000EC659D46F28
:10155000C351D325E96EC451D421EA6EEFCFD5FA39
:10156000060EC55DD66F000EC659D76FC351D6257E
:10157000E96EC451D721EA6EEFCFD8FA050EC55DEA
:10158000D96F000EC659DA6FC351D925E96EC4511F
:10159000DA21EA6EEFCFDBFAE26BE36BE46BCFCAE2
:1015A000E5FAD2CAE6FAD5CAE7FAD8CAE8FADBCA37
:1015B000E9FA0001D1EC03F001C0CAFA0A01C951ED
:1015C0000B08D8A490D0CA511F08D8B48CD0CA51E7
:1015D0000F08D8B488D0C6CAC8FAC5CAC7FA010E5F
:1015E000CC6FC9CACBFACB511F086DE0C85303E1D9
:1015F000C751010868E2010ECD6FC8CACFFAC7CA49
:10160000CEFAC4CAD1FAC3CAD0FA0001DCEC04F0A5
:1016100001500A01CC17040EC75DCD6F000EC859EA
:10162000CE6FC351CD25E96EC451CE21EA6EEFCF06
:10163000CFFA030EC75DD06F000EC859D16FC351EA
:10164000D025E96EC451D121EA6EEFCFD2FA020E55
:10165000C75DD36F000EC859D46FC351D325E96E4F
:10166000C451D421EA6EEFCFD5FA010EC75DD66F13
:10167000000EC859D76FC351D625E96EC451D72182
:10168000EA6EEFCFD8FAC351C725E96EC451C8211D
:10169000EA6EEFCFD9FAE26BE36BE46BCFCAE5FAFF
:1016A000D2CAE6FAD5CAE7FAD8CAE8FAD9CAE9FA34
:1016B0000001D1EC03F001C0CBFA050E0A01C75FAF
:1016C000000EC85B90D7CC2D0AD0010E0901926F95
:1016D0000A01C5CA01F0C6CA02F00DD004D0000E3E
:1016E000016E026E08D0C551D8B4C607C507FCD438
:1016F000000E016E026E000112000900F6CFCFFA53
:10170000F7CFD0FAF5CFDAFA9EEC03F0CFCAF6FFA6
:10171000D0CAF7FF0A01CE2F01D002D00001EDD7C9
:1017200000011200EACFBFFAE9CFBEFA0A01B839C8
:10173000F009BA6FBA27E20FBB6F320FBD6FB85115
:101740000F0BBB27BB27BD27E90FBC6FBC27BC27EE
:10175000B7390F0BBC27BD27BC37BD37BD1FBD3701
:10176000B7510F0BBD27BA37070EB96F0A0EBC076A
:10177000BD27FDE3BB07BC27FDE3BA07BB27FDE39D
:10178000B907BA27FDE30A0EEA6EB90EE96E070E35
:10179000BE15BE9DE926BD0EE95CD8B4BE8DEF50E6
:1017A000006E08E1BEBD06D0BEB916D0BEB702D0ED
:1017B000200E03D0BE87BE99300E0026EACFB8FABD
:1017C000E9CFB7FA00C0DAFA00019EEC03F0B8CA1C
:1017D000EAFFB7CAE9FF0A01EE50BEADDCD700014F
:1017E00012000A01C151016AC05D03E2C0CA00F0E3
:1017F0000CD0006A080EC26FC0370036C151005CC1
:10180000D8B0006E0136C22FF7D700011200200EAB
:101810000A01BBA9300EBC6FBACA00F0BAAF08D03B
:10182000001E002A00C0BAFA2D0EBC6FBB8FBB8110
:101830000150BACAC0FA640EC16F0001D2DF00C005
:10184000BAFA300E01240A01BD6FBACAC0FA0A0EF4
:10185000C16F0001C6DF300E00240A01BF6F300ED9
:101860000124BE6FBCCA00F0300EBD5D04E0BB8336
:10187000BBBFBB8512D0BCCABDFA200EBC6F300EF8
:10188000BE5D04E0BB81BBBFBB8307D0D8A4BB81D6
:1018900004E1BDCABEFA200EBD6FBBB505D0BBB317
:1018A00008D0BBB10BD00FD0BCCADAFA00019EEC55
:1018B00003F0BDCADAFA00019EEC03F0BECADAFA00
:1018C00000019EEC03F0BFCADAFA00019EEC03F0BF
:1018D0001200540EF66E060EF76EC1EC03F00A010C
:1018E000B86BB76BB851030817E303E1B751510860
:1018F00013E3100EB725E96E050EB821EA6EEFCF9F
:10190000B9FAB9CABAFA180EBB6F000180DF0A0132
:10191000B72BD8B4B82BE6D76A0EF66E060EF76E64
:101920000001C1EC03F00A01B86BB76BB8510108B4
:1019300017E303E1B7512B0813E3620EB725E96EF5
:10194000080EB821EA6EEFCFB9FAB9CABAFA180E82
:10195000BB6F00015CDF0A01B72BD8B4B82BE6D708
:101960000001FCEF0DF00A0EEA6EB70EE96EEF50C3
:101970000DE00A0E016E006A002EFED7012EFBD785
:101980005F0E006E002EFED7EF2EF3D71200010E71
:101990000A01AE6FAF6FB06FB16FB26BB36FB46F60
:1019A00009019C6B9B6B916B906B8F6B8E6B9C5149
:1019B000FD080EE303E19B51E7080AE3938281A24D
:1019C00007D0948A82AA04D09B2BD8B49C2BEFD743
:1019D0009C6B9B6B98C903F09751972BD8B4982BAD
:1019E0000A01B76F100EB725E96E050E0320EA6EE7
:1019F000EF6A090198C903F09751972BD8B4982B37
:101A00000A01B76F100EB725E96E050E0320EA6EC6
:101A1000010EEF6E09019AC903F09951992BD8B4C0
:101A20009A2B0A01B76F620EB725E96E080E0320E4
:101A3000EA6EEF6A09019AC903F09951992BD8B45B
:101A40009A2B0A01B76F620EB725E96E080E0320C4
:101A5000EA6E010EEF6E090198510308D8A06FD00D
:101A600004E197515108D8A06AD09A510108D8A032
:101A700066D003E199512B0862E39C51FF085FE3B4
:101A800003E19B51DB085BE3A55304E0986B976B84
:101A90009A6B996B9B2BD8B49C2B916B906B8F6B33
:101AA0008E6B93840A01AE6B81B4AE2BAE531EE1F4
:101AB000AF2D1CD0AF6B100E09019725E96E050EF6
:101AC0009821EA6E9382000E81A2010EEF6E620EE3
:101AD0009925E96E080E9A21EA6EB2CAEFFF972B9C
:101AE000D8B4982B9C6B9B6B06D00A01AE2D02D00C
:101AF000010EAF6F090193860A01B06B81B6B02B5E
:101B0000B0530FE1B12D0DD0B16B948AB26B82AAA4
:101B1000B22B0901992BD8B49A2B9C6B9B6B06D0E6
:101B20000A01B02D02D0010EB16F0901938081A08E
:101B300005D0A56B9C69DC0E9B6F01D08DD79C6B8B
:101B40009B6B0A01C06B98C9C2FA97C9C1FA050E0E
:101B5000C46F100EC36F00017CEC05F001C0B3FA36
:101B6000010E0A01C06F9AC9C2FA99C9C1FA080EDA
:101B7000C46F620EC36F00017CEC05F001C0B4FAC3
:101B80000901A02D50D0C40EF66E060EF76E0E0E93
:101B90000A01CE6F0001B1DD100EE96E98C9B8FAE6
:101BA00097C9B7FABFDD0D0E0A01DA6F00019EEC8E
:101BB00003F00A0E0A01DA6F00019EEC03F0D80E62
:101BC000F66E060EF76E0E0E0A01CE6F000195DD61
:101BD000100EE96E9AC9B8FA99C9B7FAA3DD0D0ECD
:101BE0000A01DA6F00019EEC03F00A0E0A01DA6FB7
:101BF00000019EEC03F06DD60A01B35308E1EC0E30
:101C0000F66E060EF76E0001C1EC03F00A01B45344
:101C100008E1020EF66E070EF76E0001C1EC03F04C
:101C20000A0107D009010F0E0A01B76F00019BDE00
:101C30000A01B35302E0B45310E109019A6B996BA6
:101C4000986B976BA46BA52B916B906B8F6B8E6BC6
:101C5000000E016E1ED01BD00A01010E09019F6FFC
:101C6000A46F9AC996F999C995F998C994F997C931
:101C700093F9986B976B9A6B996B916B906B8F6BD9
:101C80008E6B0001FC6BFB6B016E090102D0000E34
:101C9000016E00017EEF0EF0020E0A01AE6FFA0E29
:101CA000AF6F00018CEC03F00A01AE2FF8D70901E9
:101CB000A22D01D02CD001010C531EE009531CE1D0
:101CC0000D2D0CD0160EF66E1D0EF76E0001C1EC38
:101CD00003F0929E899E01010D6B0ED0260EF66ECA
:101CE0001D0EF76E0001C1EC03F0929E898E010E6D
:101CF00001010D6F0F6B0E6B000149D601C0A1F9F8
:101D00000901916B906B8F6B8E6B9C6B9B6BF09052
:101D1000000142EF00F00A0D4B65792072656C6599
:101D20006173650A0D000A0D4B6579207072657349
:101D3000730A0D000D0A547261636B3120446174A3
:101D4000613A0D0A00000D0A547261636B3220443F
:101D50006174613A0D0A00000D0A547261636B31BF
:101D600020446174613A0D0A00000D0A54726163E7
:101D70006B3220446174613A0D0A00000D0A50492B
:101D80004E204E756D6265723A0D0A00464F524DF7
:101D9000415454494E472E2E2E0020657869740A0E
:101DA0000D00464F524D415454494E472E2E2E00A1
:101DB00020657869740A0D007265736574696E67D1
:101DC0002070617373776F72642E2E2E0000206571
:101DD0007869740A0D004B657920626F6172642026
:101DE00074657374696E670A0D007265736574209B
:101DF000666163746F72790A0D0020657869740AF0
:101E00000D004E657720636F6E736F6C65206E6199
:101E10006D653E00204F4B0A0D005B4D5D005B532E
:101E20005D005B6175746F2073656E64696E672019
:101E3000286F6666295D00005B6175746F207365AD
:101E40006E64696E6720286F6E295D005965617246
:101E50003E004D6F6E74683E0000446174653E0044
:101E60004461793E0000486F75723E004D696E75A1
:101E70007465733E00005365636F6E64733E0000CB
:101E800050726573732027312720746F2073656C3F
:101E900065637420536C61766572206D6F646500B4
:101EA00050726573732027302720746F2073656C20
:101EB000656374204D6173746572206D6F64650095
:101EC00050726573732027312720746F20747572E8
:101ED0006E206F6E206B65707265737300005072B8
:101EE0006573732027302720746F207475726E20FD
:101EF0006F6666206B65707265737300496E7075EE
:101F000074204E756D6265720000507265737320A7
:101F100027312720746F2073656C656374207468A3
:101F200065206E6577206B6579626F617264000071
:101F300050726573732027302720746F2073656C8F
:101F400065637420746865206F6C64206B657962CA
:101F50006F61726400000A0D496E70757420796FAC
:101F60007572206D6F62696C652070686F6E652098
:101F70006E756D6265723A000A0D646F6E650A0DCA
:101F8000000050726573732027312720746F20740E
:101F900075726E206F6E204175746F206D6F646571
:101FA000000050726573732027302720746F2074EF
:101FB00075726E206F6666204175746F206D6F6458
:101FC0006500682D3E2048656C700A0D0000736343
:101FD0002D3E2053657420436C6F636B0A0D000027
:101FE000632D3E2073686F7720436C6F636B0A0D1F
:101FF000000070617373776F72642D3E20636861B7
:102000006E67696E672050415353574F52440A0D13
:1020100000006E202D3E206368616E676520636F4F
:102020006E736F6C65204E616D650A0D0000662D44
:102030003E20466F726D61740A0D0000652D3E20D2
:10204000457869740A0D00004D532D3E204B65798B
:10205000626F617264206D6F64652073657474696A
:102060006E672028536C6176652F4D6173746572BD
:10207000290A0D004B502D3E204B65797072657317
:1020800073206D6F64652073657474696E672028B2
:102090004F6E290A0D004B502D3E204B6579707212
:1020A000657373206D6F64652073657474696E6702
:1020B00020284F6666290A0D00007472616E207434
:1020C000696D652D3E2074696D65206F66206561C0
:1020D0006368207472616E73616374696F6E0A0D58
:1020E000000064656275672D3E206F6E2F6F666617
:1020F000206465627567206D6F64650A0D006B6F03
:10210000666B62202564202D3E2073656C656374C8
:10211000206B696E64206F66206B6579626F6172F7
:10212000640A0D007273666163742D3E20726573DC
:10213000657420666163746F72790A0D00006366CE
:10214000206D626E2D3E206368616E67696E672048
:10215000746172676574206D6F62696C6520706868
:102160006F6E65206E756D6265720A0D00005349D1
:102170004D3930306175746F2D3E206F6E2F6F6654
:1021800066206175746F2073656E64696E67206D7B
:102190006F64650A0D006F6C642070617373776FF4
:1021A00072643A000A0D6E65773A00000A0D6167A5
:1021B00061696E3A00000A0D4F4B0A0D00000A0DCE
:1021C0004552520A0D0020580A0D000050726573E6
:1021D000732027312720746F20656E61626C652043
:1021E0006465627567206D6F646500005072657389
:1021F000732027302720746F2064697361626C65D7
:10220000206465627567206D6F6465009EAAFED7C5
:10221000AFCFAEFA0A010401976B966B952D0BD0E8
:102220000400C090956B800EF66E220EF76E0001D2
:10223000C1EC03F00401929C897C0901C2531CE0AB
:102240000101AF51AF2B036A4B0FE96E010E032062
:10225000EA6EAECAEFFFAF516208D8A0AF6B0901BA
:10226000C1530AE10B0E0401916FB80E906F0D0E71
:102270008E6F8D6B8C6B09019E9A000142EF00F00E
:102280004F4B0A0D0000929C897CCF68CD0ECE6E1C
:102290009E9042EF00F00101442B44510108D8B058
:1022A000D2D04751FB0F41E2050F000128EF12F099
:1022B000929A899A92968986929489849292898236
:1022C00092908980010131D092968996929A898A5A
:1022D000929489849292898292908980010125D07A
:1022E0009294899492968986929A898A9292898206
:1022F00092908980010119D0929289929296898652
:1023000092948984929A898A9290898001010DD051
:1023100092908990929689869294898492928982E9
:10232000929A898A010101D0010145A13FD0938889
:10233000000E81B8010E0A01B36F938A000E81BAB4
:10234000010EB317938C000E81BC010EB317938E50
:10235000000E81BE010EB31527E046C1B1FA01019E
:10236000085319E1066B056B0001FC6BFB6B010167
:102370000B5131080AE30B510B2B036A110FE96E65
:10238000010E0320EA6EB1CAEFFFB1CADAFA00010A
:102390009EEC03F005D0B1CADAFA00019EEC03F01E
:1023A00001014591466B0A014CD001019388000E52
:1023B00081B8010E0A01B36F938A000E81BA010E33
:1023C000B317938C000E81BC010EB317938E000ED1
:1023D00081BE010EB3152FE1938881B802D0B26B94
:1023E00011D0938A81BA03D0010EB26F0BD0938CB7
:1023F00081BC03D0020EB26F05D0938E81BE02D095
:10240000030EB26FB251050DF350B46BB36F036A94
:10241000010147510A01B325016EB4510322015055
:10242000000174EC00F0E8CF46F101014581FF0E98
:10243000926E07D00A010101472B47510508D8B415
:10244000476B0101446B0A01B1CA01F0000112009F
:10245000E824F76AF7366B0FF66E240EF7220A00AF
:10246000F550FA6E0800F550F96EB022C822E0224D
:10247000F8221023E00E0F01486FC29CC29E495102
:10248000E00B1709496F0A01CE51FA0F65E2060FFA
:102490000001AEEF12F0100E016EC250C30B01101E
:1024A000C26EC282C2B2FED7C4CFCFFA0A01CFCA6F
:1024B00001F052D051D00C0E016EC250C30B01106E
:1024C000C26EC282C2B2FED7C4CFCFFA0A01CFCA4F
:1024D00001F042D041D0080E016EC250C30B011072
:1024E000C26EC282C2B2FED7C4CFCFFA0A01CFCA2F
:1024F00001F032D031D0040E016EC250C30B011076
:10250000C26EC282C2B2FED7C4CFCFFA0A01CFCA0E
:1025100001F022D021D0000E016EC250C30B011079
:10252000C26EC282C2B2FED7C4CFCFFA0A01CFCAEE
:1025300001F012D011D02C0E016EC250C30B01104D
:10254000C26EC282C2B2FED7C4CFCFFA0A01CFCACE
:1025500001F002D001D00A0100011200E824F76A5C
:10256000F736770FF66E250EF7220A00F550FA6E51
:102570000800F550F96E9624B624D624F6241625C4
:102580003625D8B204D00A0EEA6EE20EE96E006A71
:10259000016A026A036A0A01E26BE36BE46BE56BB2
:1025A000E151E011DF11DE112CE0200EE66FD89032
:1025B000DA37DB37DC37DD37E237E337E437E53767
:1025C000E151E55D08E1E051E45D05E1DF51E35DE6
:1025D00002E1DE51E25D0FE3DE51E25FDF51D8A0A0
:1025E000DF3DE35FE051D8A0E03DE45FE151D8A0DA
:1025F000E13DE55FD8800036013602360336E62F2E
:10260000D6D7E2CAEFFFE3CAECFFE4CAECFFE5CAA3
:10261000ECFF00011200E9500A01D26F3B0ED96FA6
:102620009A0ED86FCA0ED76FD66B0A0ED46FD882A7
:102630000A0EEA6ECE0EE96ED1CADDFAD0CADCFA15
:10264000CFCADBFACECADAFAD9CAE1FAD8CAE0FAB6
:10265000D7CADFFAD6CADEFA000193DF0150005272
:1026600013E10A01D451010AD8A402D000010CD010
:10267000D2510CE00F0BD45D01E010E2D2BF0ED0BE
:10268000D2BD04D0200E03D00A01D26B300E00263A
:1026900000C0DAFA00019EEC03F00A01D892D9CA10
:1026A000DDFAD8CADCFAD7CADBFAD6CADAFAE16BA5
:1026B000E06BDF6B0A0EDE6F000163DF03C0D9FA47
:1026C00002C0D8FA01C0D7FA00C0D6FA0A01D42F46
:1026D000AED7000112000A01B96BB86BB76BB66BCD
:1026E000BD6BBC6BBB6BBA6BC16BC06BBF6BBE6BA6
:1026F000C56BC46BC36BC26BC96BC86BC76BC66B56
:10270000B56BB46BB55101083EE303E1B451F30876
:102710003AE3CE6B0001AEDE01500A01B627000E8F
:10272000B723B823B923010ECE6F0001A3DE0150F9
:102730000A01BA27000EBB23BC23BD23020ECE6FB5
:10274000000198DE01500A01BE27000EBF23C023FE
:10275000C123030ECE6F00018DDE01500A01C22796
:10276000000EC323C423C523040ECE6F000182DEF6
:1027700001500A01C627000EC723C823C923B42B62
:10278000D8B4B52BBFD7D892B9CADDFAB8CADCFA2B
:10279000B7CADBFAB6CADAFAE16BE06B010EDF6F9B
:1027A000F40EDE6F0001EDDE03C0B9FA02C0B8FA24
:1027B00001C0B7FA00C0B6FAD892BDCADDFABCCAE9
:1027C000DCFABBCADBFABACADAFA0A01E16BE06BDF
:1027D000010EDF6FF40EDE6F0001D3DE03C0BDFA21
:1027E00002C0BCFA01C0BBFA00C0BAFAD892C1CA92
:1027F000DDFAC0CADCFABFCADBFABECADAFA0A01DD
:10280000E16BE06B010EDF6FF40EDE6F0001B9DEED
:1028100003C0C1FA02C0C0FA01C0BFFA00C0BEFACC
:10282000D892C5CADDFAC4CADCFAC3CADBFAC2CA86
:10283000DAFA0A01E16BE06B010EDF6FF40EDE6F76
:1028400000019FDE03C0C5FA02C0C4FA01C0C3FA8A
:1028500000C0C2FAD892C9CADDFAC8CADCFAC7CA2F
:10286000DBFAC6CADAFA0A01E16BE06B010EDF6F30
:10287000F40EDE6F000185DE03C0C9FA02C0C8FA9B
:1028800001C0C7FA00C0C6FA01010853D8B4BDD0D0
:102890000D0E0A01DA6F00019EEC03F00A0E0A0128
:1028A000DA6F00019EEC03F02A0EF66E040EF76E4E
:1028B000070E0A01CE6F00017DEC0BF0410EE96EB0
:1028C000B9CAD1FAB8CAD0FAB7CACFFAB6CACEFADC
:1028D000A2DE0D0E0A01DA6F00019EEC03F00A0E73
:1028E0000A01DA6F00019EEC03F0380EF66E040E5A
:1028F000F76E070E0A01CE6F00017DEC0BF0410E62
:10290000E96EBDCAD1FABCCAD0FABBCACFFABACAFC
:10291000CEFA81DE0D0E0A01DA6F00019EEC03F0A3
:102920000A0E0A01DA6F00019EEC03F0460EF66E05
:10293000040EF76E070E0A01CE6F00017DEC0BF05E
:10294000410EE96EC1CAD1FAC0CAD0FABFCACFFAE5
:10295000BECACEFA60DE0D0E0A01DA6F00019EECEF
:1029600003F00A0E0A01DA6F00019EEC03F0540E28
:10297000F66E040EF76E070E0A01CE6F00017DECB5
:102980000BF0410EE96EC5CAD1FAC4CAD0FAC3CA67
:10299000CFFAC2CACEFA3FDE0D0E0A01DA6F00018D
:1029A0009EEC03F00A0E0A01DA6F00019EEC03F0C0
:1029B000620EF66E040EF76E070E0A01CE6F00016E
:1029C0007DEC0BF0410EE96EC9CAD1FAC8CAD0FA43
:1029D000C7CACFFAC6CACEFA1EDE0D0E0A01DA6FDA
:1029E00000019EEC03F00A0E0A01DA6F00019EEC72
:1029F00003F00D0E0A01DA6F00019EEC03F00A0EDF
:102A00000A01DA6F00019EEC03F00A01B95307E1F5
:102A1000B85305E1B75303E1B651050830E2B953A5
:102A20002EE1B8532CE1B7532AE1B6513B0827E316
:102A3000BD5307E1BC5305E1BB5303E1BA51640840
:102A40001EE2C15307E1C05305E1BF5303E1BE518C
:102A5000640815E2C55307E1C45305E1C35303E11C
:102A6000C25164080CE2C95307E1C85305E1C753DA
:102A700003E1C651640803E2000E016E3FD1BD536D
:102A800007E1BC5305E1BB5303E1BA51050830E24D
:102A9000BD532EE1BC532CE1BB532AE1BA513B0894
:102AA00027E3B95307E1B85305E1B75303E1B65142
:102AB00064081EE2C15307E1C05305E1BF5303E1BF
:102AC000BE51640815E2C55307E1C45305E1C35381
:102AD00003E1C25164080CE2C95307E1C85305E1A0
:102AE000C75303E1C651640803E2010E016E06D12B
:102AF000C15307E1C05305E1BF5303E1BE510508CF
:102B000030E2C1532EE1C0532CE1BF532AE1BE5144
:102B10003B0827E3BD5307E1BC5305E1BB5303E189
:102B2000BA5164081EE2B95307E1B85305E1B7533F
:102B300003E1B651640815E2C55307E1C45305E14A
:102B4000C35303E1C25164080CE2C95307E1C853FF
:102B500005E1C75303E1C651640803E2020E016EAA
:102B6000CDD0C55307E1C45305E1C35303E1C251BE
:102B7000050830E2C5532EE1C4532CE1C3532AE1CA
:102B8000C2513B0827E3BD5307E1BC5305E1BB53EA
:102B900003E1BA5164081EE2C15307E1C05305E1E5
:102BA000BF5303E1BE51640815E2B95307E1B853BE
:102BB00005E1B75303E1B65164080CE2C95307E1DC
:102BC000C85305E1C75303E1C651640803E2030E8D
:102BD000016E94D0C95307E1C85305E1C75303E11F
:102BE000C651050830E2C9532EE1C8532CE1C75342
:102BF0002AE1C6513B0827E3BD5307E1BC5305E179
:102C0000BB5303E1BA5164081EE2C15307E1C0534C
:102C100005E1BF5303E1BE51640815E2C55307E166
:102C2000C45305E1C35303E1C25164080CE2B95334
:102C300007E1B85305E1B75303E1B651640803E275
:102C4000040E016E5BD0C95308E1C85306E1C753B7
:102C500004E1C651C808D8B04FD0B953D8A44CD05D
:102C6000B853D8A449D0B753D8A446D0B651B30866
:102C700043E3B95307E1B85305E1B75303E1B65154
:102C800064083AE2BD5338E1BC5336E1BB5334E14A
:102C9000BA51B30831E3BD5307E1BC5305E1BB535F
:102CA00003E1BA51640828E2C15326E1C05324E18C
:102CB000BF5322E1BE51B3081FE3C15307E1C05324
:102CC00005E1BF5303E1BE51640816E2C55314E1A8
:102CD000C45312E1C35310E1C251B3080DE3C5530D
:102CE00007E1C45305E1C35303E1C251640804E2A0
:102CF000040E016E03D002D0FF0E016E0001A8EF9A
:102D00001AF00A01B96BB86BB76BB66BBD6BBC6BD5
:102D1000BB6BBA6BC16BC06BBF6BBE6BC56BC46B5F
:102D2000C36BC26BC96BC86BC76BC66BCD6BCC6B0F
:102D3000CB6BCA6BB56BB46BB55101084FE303E1C4
:102D4000B451F3084BE3CE6B00013AEC12F00150A2
:102D50000A01B627000EB723B823B923010ECE6FA0
:102D600000013AEC12F001500A01BA27000EBB2311
:102D7000BC23BD23020ECE6F00013AEC12F00150CD
:102D80000A01BE27000EBF23C023C123030ECE6F4E
:102D900000013AEC12F001500A01C227000EC323D1
:102DA000C423C523040ECE6F00013AEC12F001508B
:102DB0000A01C627000EC723C823C923050ECE6FFC
:102DC00000013AEC12F001500A01CA27000ECB2391
:102DD000CC23CD23B42BD8B4B52BAED7D892B9CA57
:102DE000DDFAB8CADCFAB7CADBFAB6CADAFAE16BBE
:102DF000E06B010EDF6FF40EDE6F0001C1EC12F02C
:102E000003C0B9FA02C0B8FA01C0B7FA00C0B6FAF6
:102E1000D892BDCADDFABCCADCFABBCADBFABACAB0
:102E2000DAFA0A01E16BE06B010EDF6FF40EDE6F80
:102E30000001C1EC12F003C0BDFA02C0BCFA01C02F
:102E4000BBFA00C0BAFAD892C1CADDFAC0CADCFA2D
:102E5000BFCADBFABECADAFA0A01E16BE06B010E07
:102E6000DF6FF40EDE6F0001C1EC12F003C0C1FA97
:102E700002C0C0FA01C0BFFA00C0BEFAD892C5CAEB
:102E8000DDFAC4CADCFAC3CADBFAC2CADAFA0A013A
:102E9000E16BE06B010EDF6FF40EDE6F0001C1EC41
:102EA00012F003C0C5FA02C0C4FA01C0C3FA00C0E0
:102EB000C2FAD892C9CADDFAC8CADCFAC7CADBFAB4
:102EC000C6CADAFA0A01E16BE06B010EDF6FF40E9D
:102ED000DE6F0001C1EC12F003C0C9FA02C0C8FAEB
:102EE00001C0C7FA00C0C6FAD892CDCADDFACCCA72
:102EF000DCFACBCADBFACACADAFA0A01E16BE06B88
:102F0000010EDF6FF40EDE6F0001C1EC12F003C0A2
:102F1000CDFA02C0CCFA01C0CBFA00C0CAFA010156
:102F20000853D8B4E4D00D0E0A01DA6F00019EEC0C
:102F300003F00A0E0A01DA6F00019EEC03F0700E36
:102F4000F66E040EF76E070E0A01CE6F00017DECDF
:102F50000BF0410EE96EB9CAD1FAB8CAD0FAB7CAB5
:102F6000CFFAB6CACEFA0BEC13F00D0E0A01DA6FE7
:102F700000019EEC03F00A0E0A01DA6F00019EECDC
:102F800003F07E0EF66E040EF76E070E0A01CE6F8A
:102F900000017DEC0BF0410EE96EBDCAD1FABCCA4E
:102FA000D0FABBCACFFABACACEFA0BEC13F00D0EA8
:102FB0000A01DA6F00019EEC03F00A0E0A01DA6FD3
:102FC00000019EEC03F08C0EF66E040EF76E070EF9
:102FD0000A01CE6F00017DEC0BF0410EE96EC1CA13
:102FE000D1FAC0CAD0FABFCACFFABECACEFA0BEC29
:102FF00013F00D0E0A01DA6F00019EEC03F00A0EC9
:103000000A01DA6F00019EEC03F09A0EF66E040ED0
:10301000F76E070E0A01CE6F00017DEC0BF0410E3A
:10302000E96EC5CAD1FAC4CAD0FAC3CACFFAC2CAB5
:10303000CEFA0BEC13F00D0E0A01DA6F00019EECD4
:1030400003F00A0E0A01DA6F00019EEC03F0A80EED
:10305000F66E040EF76E070E0A01CE6F00017DECCE
:103060000BF0410EE96EC9CAD1FAC8CAD0FAC7CA74
:10307000CFFAC6CACEFA0BEC13F00D0E0A01DA6FC6
:1030800000019EEC03F00A0E0A01DA6F00019EECCB
:1030900003F0B60EF66E040EF76E070E0A01CE6F41
:1030A00000017DEC0BF0410EE96ECDCAD1FACCCA1D
:1030B000D0FACBCACFFACACACEFA0BEC13F00D0E77
:1030C0000A01DA6F00019EEC03F00A0E0A01DA6FC2
:1030D00000019EEC03F00D0E0A01DA6F00019EEC78
:1030E00003F00A0E0A01DA6F00019EEC03F00A01F8
:1030F000B95307E1B85305E1B75303E1B6510508E9
:1031000039E2B95337E1B85335E1B75333E1B6513A
:103110003B0830E3BD5307E1BC5305E1BB5303E17A
:10312000BA51640827E2C15307E1C05305E1BF5318
:1031300003E1BE5164081EE2C55307E1C45305E133
:10314000C35303E1C251640815E2C95307E1C853F0
:1031500005E1C75303E1C65164080CE2CD5307E112
:10316000CC5305E1CB5303E1CA51640803E2000EDE
:10317000016EBCD1BD5307E1BC5305E1BB5303E174
:10318000BA51050839E2BD5337E1BC5335E1BB53B1
:1031900033E1BA513B0830E3B95307E1B85305E1D5
:1031A000B75303E1B651640827E2C15307E1C053A6
:1031B00005E1BF5303E1BE5164081EE2C55307E1B8
:1031C000C45305E1C35303E1C251640815E2C95376
:1031D00007E1C85305E1C75303E1C65164080CE297
:1031E000CD5307E1CC5305E1CB5303E1CA51640849
:1031F00003E2010E016E7AD1C15307E1C05305E12C
:10320000BF5303E1BE51050839E2C15337E1C05352
:1032100035E1BF5333E1BE513B0830E3BD5307E115
:10322000BC5305E1BB5303E1BA51640827E2B9532B
:1032300007E1B85305E1B75303E1B65164081EE254
:10324000C55307E1C45305E1C35303E1C251640808
:1032500015E2C95307E1C85305E1C75303E1C6515D
:1032600064080CE2CD5307E1CC5305E1CB5303E1F5
:10327000CA51640803E2020E016E38D1C55307E15A
:10328000C45305E1C35303E1C251050839E2C553F4
:1032900037E1C45335E1C35333E1C2513B0830E356
:1032A000BD5307E1BC5305E1BB5303E1BA516408C8
:1032B00027E2C15307E1C05305E1BF5303E1BE510B
:1032C00064081EE2B95307E1B85305E1B75303E1BF
:1032D000B651640815E2C95307E1C85305E1C75365
:1032E00003E1C65164080CE2CD5307E1CC5305E17C
:1032F000CB5303E1CA51640803E2030E016EF6D01A
:10330000C95307E1C85305E1C75303E1C651050896
:1033100039E2C95337E1C85335E1C75333E1C651E8
:103320003B0830E3BD5307E1BC5305E1BB5303E168
:10333000BA51640827E2C15307E1C05305E1BF5306
:1033400003E1BE5164081EE2C55307E1C45305E121
:10335000C35303E1C251640815E2B95307E1B853FE
:1033600005E1B75303E1B65164080CE2CD5307E120
:10337000CC5305E1CB5303E1CA51640803E2040EC8
:10338000016EB4D0CD5307E1CC5305E1CB5303E13B
:10339000CA51050839E2CD5337E1CC5335E1CB535F
:1033A00033E1CA513B0830E3BD5307E1BC5305E1AB
:1033B000BB5303E1BA51640827E2C15307E1C0538C
:1033C00005E1BF5303E1BE5164081EE2C55307E1A6
:1033D000C45305E1C35303E1C251640815E2C95364
:1033E00007E1C85305E1C75303E1C65164080CE285
:1033F000B95307E1B85305E1B75303E1B651640887
:1034000003E2050E016E72D0CD5308E1CC5306E104
:10341000CB5304E1CA51C808D8B066D0B953D8A478
:1034200063D0B853D8A460D0B753D8A45DD0B651F8
:10343000B308D8A059D0B95308E1B85306E1B7533F
:1034400004E1B6516408D8B04FD0BD53D8A44CD0D5
:10345000BC53D8A449D0BB53D8A446D0BA51B30862
:1034600043E3BD5307E1BC5305E1BB5303E1BA514C
:1034700064083AE2C15338E1C05336E1BF5334E146
:10348000BE51B30831E3C15307E1C05305E1BF5357
:1034900003E1BE51640828E2C55326E1C45324E188
:1034A000C35322E1C251B3081FE3C55307E1C4531C
:1034B00005E1C35303E1C251640816E2C95314E1A4
:1034C000C85312E1C75310E1C651B3080DE3C95305
:1034D00007E1C85305E1C75303E1C651640804E29C
:1034E000050E016E03D002D0FF0E016E0001AEEF9B
:1034F0001AF0938881A809D0938A81AA06D0938C68
:1035000081AC03D0938E81BEB9D0938881B804D0AA
:103510000A01B36B17D00001938A81BA05D0010E5E
:103520000A01B36F0FD00001938C81BC05D0020E4D
:103530000A01B36F07D00001938E81BE03D0030E42
:103540000A01B36F0101105306E100016BEF13F0A4
:1035500001C0B1FA05D0000181EF16F001C0B1FA47
:103560000A01B13D01D071D00101105313E10A01EC
:10357000B351050DF350B56BB46F036AB151B42567
:10358000016EB55103220150000174EC00F0E8CF48
:10359000B2FA12D00A01B351060DF350B56BB46FF5
:1035A000036AB151B425016EB551032201500001E7
:1035B00086EC00F0E8CFB2FA0101085340E10001C7
:1035C000FC6BFB6B01010B5113080AE30B510B2B36
:1035D000036A110FE96E010E0320EA6EB2CAEFFF13
:1035E000C40EF66E040EF76E090E0A01CE6F0001CE
:1035F0007DEC0BF00BC1BAFA180E0A01BB6F00018B
:1036000007EC0CF05D0E0A01DA6F00019EEC03F08E
:10361000200E0A01DA6F00019EEC03F0B2CADAFA5A
:103620009EEC03F00D0E0A01DA6F00019EEC03F030
:103630000A0E0A01DA6F00019EEC03F005D0B2CA4F
:10364000DAFA00019EEC03F00A01938881A8FDD705
:10365000938A81AAFAD7938C81ACF7D7938E81AEE7
:10366000F4D7938881A8FDD7938A81AAFAD7938C3F
:1036700081ACF7D7938E81AEF4D70001FF0E926E26
:103680000A01B2CA01F000011200080E016E0A0E12
:10369000006E002EFED78B9694960B0E006E002EB9
:1036A000FED70A01C9378B98D8B09488D8A09498CF
:1036B000948682A6FED7012E01D002D00001E7D762
:1036C0000A0E006E002EFED78B969496000094880A
:1036D0000B0E006E002EFED70B0E006E002EFED7D6
:1036E000948682A6FED7016A0B0E006E002EFED7CE
:1036F00082B801808B9694968B9894980001120062
:10370000080E0A01BE6F00C0BFFA94880B0E006E4F
:10371000002EFED7948682A6FED782B8D88082A8D3
:10372000D89001360A0E006E002EFED794968B9626
:10373000BE2FEBD794880B0E006E002EFED78B9811
:10374000BF51D8A494980000948682A6FED70A0E92
:10375000006E002EFED78B9694960B0E006E002EF8
:10376000FED78B9894980001120094880A0E006E80
:10377000002EFED794860B0E006E002EFED78B987F
:1037800094980A0E006E002EFED78B969496D00E5B
:103790000A01C96F000179DFB8CAC9FA76DF9488D7
:1037A0000A0E006E002EFED794860B0E006E002EC1
:1037B000FED782A6FED78B9894980A0E006E002E34
:1037C000FED78B969496D10E0A01C96F00015DDF7A
:1037D000006A96DF01C0B9FA94980000948682A628
:1037E000FED70A0E006E002EFED700D0000094888F
:1037F0000A0E006E002EFED70A01B9CA01F00001C0
:103800001200B9CABAFA0A01BA39006E0F0E0016D0
:1038100000500A0DF3CFB9FABA39006EF00E001657
:103820000050003A0F0E00160050B927B9CA01F037
:103830000001120094880A0E006E002EFED79486B6
:103840000B0E006E002EFED78B9894980A0E006E19
:10385000002EFED78B969496A00E0A01C96F000128
:1038600014DFBBCABDFA0A01BE6BBBCAC9FA0001AC
:103870000CDFBACAC9FA09DF94880A0E006E002E5E
:10388000FED794860B0E006E002EFED782A6FED7C2
:103890008B9894980A0E006E002EFED78B96949605
:1038A000A10E0A01C96F0001F0DE006A29DF01C024
:1038B000BCFA94980000948682A6FED70A0E006E89
:1038C000002EFED700D0000094880A0E006E002E55
:1038D000FED70A01BCCA01F0000112000A01B56B53
:1038E000B46BB76BB66BB96BB86BBB6B280EBA6FAA
:1038F0000001A0DF0A0101C0B6FAB76BBB6B290E4D
:10390000BA6F000197DF0A01B96B01C0B8FAB8CAF3
:10391000B9FAB86BB851B611B46FB951B711B56FE8
:10392000B4CA01F0B5CA02F0000112000A01B65192
:10393000B803F3CF01F0F4CF00F0B903F350002641
:10394000B751B803F3500020026E000112000A01C3
:10395000C36BC051C35D0AE2036AC351C125E96E5E
:10396000C2510320EA6EEF6AC32BF3D700011200A5
:103970000A01BF6B010EBE6FB4CAC0FAB6CAC2FA62
:10398000B5CAC1FAB8CAC4FAB7CAC3FA00017CEC16
:1039900005F002C0BFFA01C0BEFA0A01BE5305E13C
:1039A000BF5303E1000E016ED5D1BFCABDFABECA36
:1039B000BCFA09019253D8A4DDD00A01B453D8A4AB
:1039C0007BD0BB6BBB514E0876E3036ABB51B92574
:1039D000016EBA51032201C0C0FA03C0C1FA050E3C
:1039E000BC25C26F000EBD21C36FB751C225E96E61
:1039F000B851C321EA6EEFCFC4FA040EBC25C56FDF
:103A0000000EBD21C66FB751C525E96EB851C6215C
:103A1000EA6EEFCFC7FA030EBC25C86F000EBD21BA
:103A2000C96FB751C825E96EB851C921EA6EEFCF09
:103A3000CAFA020EBC25CB6F000EBD21CC6FB75168
:103A4000CB25E96EB851CC21EA6EEFCFCDFA010E4D
:103A5000BC25CE6F000EBD21CF6FB751CE25E96ECC
:103A6000B851CF21EA6EEFCFD0FAB751BC25E96E3D
:103A7000B851BD21EA6EEFCFD1FAE26BE36BC4CA55
:103A8000E4FAC7CAE5FACACAE6FACDCAE7FAD0CA62
:103A9000E8FAD1CAE9FA0001D1EC03F0C1CAEAFFA1
:103AA000C0CAE9FF01C0EFFF070E0A01BC27000EE4
:103AB000BD23BB2B87D75CD0BB6BBB51270858E31A
:103AC000036ABB51B925016EBA51032201C0C0FA85
:103AD00003C0C1FA030EBC25C26F000EBD21C36F27
:103AE000B751C225E96EB851C321EA6EEFCFC4FACF
:103AF000020EBC25C56F000EBD21C66FB751C5258E
:103B0000E96EB851C621EA6EEFCFC7FA010EBC25A7
:103B1000C86F000EBD21C96FB751C825E96EB851F5
:103B2000C921EA6EEFCFCAFAB751BC25E96EB85188
:103B3000BD21EA6EEFCFCBFAE26BE36BE46BE56B92
:103B4000C4CAE6FAC7CAE7FACACAE8FACBCAE9FAA7
:103B50000001D1EC03F0C1CAEAFFC0CAE9FF01C00D
:103B6000EFFF050E0A01BC27000EBD23BB2BA5D716
:103B7000DCD009010A01B453D8A47BD0BB6BBB5184
:103B80004E0876E3036ABB51B925016EBA51032290
:103B900001C0C0FA03C0C1FA050EBC5DC26F000EC1
:103BA000BD59C36FB751C225E96EB851C321EA6E42
:103BB000EFCFC4FA040EBC5DC56F000EBD59C66FD1
:103BC000B751C525E96EB851C621EA6EEFCFC7FAE5
:103BD000030EBC5DC86F000EBD59C96FB751C82533
:103BE000E96EB851C921EA6EEFCFCAFA020EBC5D88
:103BF000CB6F000EBD59CC6FB751CB25E96EB851D4
:103C0000CC21EA6EEFCFCDFA010EBC5DCE6F000E77
:103C1000BD59CF6FB751CE25E96EB851CF21EA6EAD
:103C2000EFCFD0FAB751BC25E96EB851BD21EA6E8D
:103C3000EFCFD1FAE26BE36BC4CAE4FAC7CAE5FA84
:103C4000CACAE6FACDCAE7FAD0CAE8FAD1CAE9FA8E
:103C50000001D1EC03F0C1CAEAFFC0CAE9FF01C00C
:103C6000EFFF070E0A01BC5F000EBD5BBB2B87D7C1
:103C70005CD0BB6BBB51270858E3036ABB51B92525
:103C8000016EBA51032201C0C0FA03C0C1FA030E8B
:103C9000BC5DC26F000EBD59C36FB751C225E96E3E
:103CA000B851C321EA6EEFCFC4FA020EBC5DC56FF6
:103CB000000EBD59C66FB751C525E96EB851C62172
:103CC000EA6EEFCFC7FA010EBC5DC86F000EBD599A
:103CD000C96FB751C825E96EB851C921EA6EEFCF57
:103CE000CAFAB751BC25E96EB851BD21EA6EEFCFD3
:103CF000CBFAE26BE36BE46BE56BC4CAE6FAC7CAC6
:103D0000E7FACACAE8FACBCAE9FA0001D1EC03F033
:103D1000C1CAEAFFC0CAE9FF01C0EFFF050E0A01F0
:103D2000BC5F000EBD5BBB2BA5D7B4530AE1520E9E
:103D3000C06FB8CAC2FAB7CAC1FA000108DE09D01A
:103D40000A012C0EC06FB8CAC2FAB7CAC1FA000184
:103D5000FEDD0A010001120094880A0E006E002E9A
:103D6000FED794860B0E006E002EFED78B9894988B
:103D70000A0E006E002EFED78B969496A00E0A01B6
:103D8000C96F000182DCC3CAC7FA0A01C86BC3CA83
:103D9000C9FA00017ADCC2CAC9FA77DCC4CAC9FA16
:103DA00074DC94980000948682A6FED70A0E006EFA
:103DB000002EFED700D0000094880A0E006E002E60
:103DC000FED794880A0E006E002EFED794860B0E46
:103DD000006E002EFED78B9894980A0E006E002E6F
:103DE000FED78B969496A00E0A01C96F00014DDC98
:103DF00001500A01C59101B0C581C5A11ED09488AA
:103E00000A0E006E002EFED794860B0E006E002E5A
:103E1000FED782A6FED78B9894980A0E006E002ECD
:103E2000FED78B969496A00EC96F00012EDC015030
:103E30000A01C59101B0C581E0D79498000094862D
:103E400082A6FED70A0E006E002EFED700D000001C
:103E500094880A0E006E002EFED7000112000A019F
:103E6000BC6BBB6BBA6BB96BBD6BBE6BBF6BC06B16
:103E7000B7CABCFAB6CABBFAB5CABAFAB4CAB9FA72
:103E8000B9CABDFABACABEFABBCABFFABCCAC0FA3E
:103E9000C36BB8CAC2FABDCAC4FA00015DDF010E25
:103EA0000A01B825C16FC36BC26FBECAC4FA000154
:103EB00053DF020E0A01B825C16FC36BC26FBFCAC0
:103EC000C4FA000149DF030E0A01B825C16FC36BB4
:103ED000C26FC0CAC4FA00013FDF1200010E09011F
:103EE000A26F040E0A01B86F00013FDC01C0B4FAF2
:103EF00001C0B9FA86DC01C000F1050E0A01B86FF5
:103F0000000133DC01C0B4FA01C0B9FA7ADC01C0A7
:103F1000FFF0060E0A01B86F000127DC01C0B4FAF9
:103F200001C0B9FA6EDC01C0FEF0030E0A01B86FE1
:103F300000011BDC01C0B4FA01C0B9FA62DC01C0A7
:103F4000FDF0020E0A01B86F00010FDC01C0B4FAE7
:103F500001C0B9FA56DC01C001F1010E0A01B86FC7
:103F6000000103DC01C0B4FA01C0B9FA4ADC01C0A7
:103F700002F10A01B86B0001B5EC1BF001C0B4FA04
:103F800001C0B9FA3EDC01C003F1A8DC02C0B5FAF9
:103F900001C0B4FA02C0B7FA01C0B6FA0A01B96B9F
:103FA0007C0EB86F0001C2DC01C0B4FA960E0A01A3
:103FB0000124016E000E022001C020F0216E226A51
:103FC000236A09019F5310E1946B936B966B956B79
:103FD000986B976B9A6B996BA35304E10001FC6992
:103FE000FB690901A26BB3D1800EF66E060EF76E67
:103FF0000001C1EC03F00101066B056B010E096FB6
:1040000094C9B3FA93C9B2FA0A01B46BB3CAB6FA47
:10401000B2CAB5FA050EB86F100EB76F040EBA6FBC
:10402000990EB96F0001A4DC0901946B936B96C9DA
:10403000B3FA95C9B2FA010E0A01B46FB3CAB6FA5F
:10404000B2CAB5FA080EB86F620EB76F040EBA6F37
:10405000E80EB96F00018CDC0901966B956BA26BC1
:10406000200E040199250A01B16F2352D8A46ED104
:104070002252D8A46BD12150AA08D8A067D104E15C
:1040800020504508D8A062D1B1512508D8A45ED1EE
:1040900023C003F022C002F021C001F020C000F0D4
:1040A000010E2026D8B0212AD8B4222AD8B4232A37
:1040B00001C0B5FA00C0B4FA01C0C3FA00C0C2FA28
:1040C00000C1C4FA000148DE23C003F022C002F0A0
:1040D00021C001F020C000F0010E2026D8B0212A16
:1040E000D8B4222AD8B4232A01C0B5FA00C0B4FA41
:1040F00001C0C3FA00C0C2FAFFC0C4FA2DDE23C05B
:1041000003F022C002F021C001F020C000F0010E37
:104110002026D8B0212AD8B4222AD8B4232A01C014
:10412000B5FA00C0B4FA01C0C3FA00C0C2FA01C1B6
:10413000C4FA12DE23C003F022C002F021C001F055
:1041400020C000F0010E2026D8B0212AD8B4222A9F
:10415000D8B4232A01C0B5FA00C0B4FA01C0C3FA2A
:1041600000C0C2FA02C1C4FAF7DD23C003F022C0C6
:1041700002F021C001F020C000F0010E2026D8B0CE
:10418000212AD8B4222AD8B4232A01C0B5FA00C003
:10419000B4FA01C0C3FA00C0C2FA03C1C4FADCDD3C
:1041A00009019E6B9D6B9E532EE19D514E082BE3A2
:1041B00023C003F022C002F021C001F020C000F0B3
:1041C000010E2026D8B0212AD8B4222AD8B4232A16
:1041D00001C0B5FA00C0B4FA990E9D25E96E040E2F
:1041E0009E21EA6EEF503F0B200F0A01B66F01C00F
:1041F000C3FA00C0C2FAC46F0001AEDD09019D2BF5
:10420000D8B49E2BD0D74F0E0A01C06F040EC26FD8
:10421000990EC16F0001A7EC1CF009019E6B9D6B0C
:104220009E532EE19D5127082BE323C003F022C0AB
:1042300002F021C001F020C000F0010E2026D8B00D
:10424000212AD8B4222AD8B4232A01C0B5FA00C042
:10425000B4FAE80E9D25E96E040E9E21EA6EEF5039
:104260000F0B300F0A01B66F01C0C3FA00C0C2FACB
:10427000C46F000171DD09019D2BD8B49E2BD0D7EE
:10428000280E0A01C06F040EC26FE80EC16F000154
:10429000A7EC1CF00D0E0A01DA6F00019EEC03F092
:1042A0000A0E0A01DA6F00019EEC03F0960EF66E1C
:1042B000060EF76EC1EC03F001010C530BE09C0EEF
:1042C000F66E060EF76E0001C1EC03F0929E899E19
:1042D00001010D6B0F690E690D0E0A01DA6F000105
:1042E0009EEC03F00A0E0A01DA6F00019EEC03F067
:1042F000AC0EF66E060EF76EC1EC03F00D0E0A0161
:10430000DA6F00019EEC03F00A0E0A01DA6F000179
:104310009EEC03F0FC6BFB6B23C0B7FA22C0B6FA2D
:1043200021C0B5FA20C0B4FA190E0A01B86F000115
:1043300096DD09019F6BA26B010EA36F0101096F4E
:104340000001FC6BFB6B01010B6B0A010901000111
:104350004FEF23F0016603D0026602D007D0022A95
:1043600000C0EEFF012EFCD7022EFAD71200275212
:10437000D8A49ED02652D8A49BD02550FF08D8A000
:1043800097D004E12450FE08D8A092D00101115327
:1043900066E000016EEC1CF002C0B3FA01C0B2FA94
:1043A000B3CAB7FAB2CAB6FA0A01B96B320EB86F1D
:1043B000000196EC1CF002C0B5FA01C0B4FA460E3A
:1043C0000A01B427AA0EB523010EB425016E000E12
:1043D000B52101C024F0256E266A276AB16BB15160
:1043E0002C0828E327C003F026C002F025C001F006
:1043F00024C000F0010E2426D8B0252AD8B4262ADD
:10440000D8B4272A01C0B5FA00C0B4FA036AB15182
:10441000110FE96E010E0320EA6EEFCFB6FA01C06C
:10442000C3FA00C0C2FAB6CAC4FA000195DC0A0198
:10443000B12BD5D725C0C3FA24C0C2FAC46B000182
:104440008BDC27C0B7FA26C0B6FA25C0B5FA24C05F
:10445000B4FA1E0E0A01B86F000101DD01010B6BF9
:10446000320E0A01C06F010EC26F110EC16F000142
:10447000A7EC1CF00D0E0A01DA6F00019EEC03F0B0
:104480000A0E0A01DA6F00019EEC03F0D60EF66EFA
:10449000040EF76EC1EC03F00D0E0A01DA6F000195
:1044A0009EEC03F00A0E0A01DA6F00019EEC03F0A5
:1044B000B5EF23F00A01B46BB36BB56BB66BB2CA40
:1044C000B4FAB1CAB3FAB3CAB5FAB451B66FC36B92
:1044D000280EC26FB5CAC4FA00013EDC0A01C36BE4
:1044E000290EC26FB6CAC4FA000136DC1200EACF48
:1044F000B9FAE9CFB8FA0A01B2AF08D0B88FB8A9B3
:10450000B82BB11FB21FB12BD8B4B22BB239F009FE
:10451000B46FB427E20FB56F320FB76FB2510F0B04
:10452000B527B527B727E90FB66FB627B627B13934
:104530000F0BB627B727B637B737B71FB737B15105
:104540000F0BB727B437070EB36F0A0EB607B7279E
:10455000FDE3B507B627FDE3B407B527FDE3B307D1
:10456000B427FDE30A0EEA6EB30EE96E070EB81526
:10457000B89DE906B81507E1B8B9E92AB8B903D07A
:10458000200E006E1CD0E926B70EE95CD8B4B88DB9
:10459000EF50006E08E1B8BD06D0B8B91ED0B8B76C
:1045A00002D0200E0BD0B8AF06D02D0E006EED500D
:1045B000B89DB89F04D0B887B899300E0026EACFCE
:1045C000B2FAE9CFB1FA00C0DAFA00019EEC03F0CA
:1045D000B2CAEAFFB1CAE9FF0A01EE50B8ADD4D7BA
:1045E0000001F2EF23F001010C531DE00F5101080F
:1045F00007E303E10E51F30803E30E2BD8B40F2BAE
:104600000E51F40810E10F2D0ED01A0EF66E480E62
:10461000F76E0001C1EC03F0929E899E01010D6BC3
:104620000E2BD8B40F2B082D0DD00901AC5304E18B
:1046300000014BEC11F005D0000179EC1AF001C03B
:10464000B0FA0101092D0CD00901AC5304E10001BD
:104650004BEC11F005D0000179EC1AF001C0B0FA72
:10466000090191530FE190530DE18F530BE18E51EE
:10467000040808E3010E8E27D8B08F2BD8B4902BF6
:10468000D8B4912B8E5105082AE18F5328E190531D
:1046900026E1915324E1A42D03D000011FD4090188
:1046A000050EEA6E100EE96E006A030E026E520EDF
:1046B000016E00014FDE080EEA6E620EE96E006ABE
:1046C000010E026E2C0E016E45DE0901A56B010E76
:1046D0008E27D8B08F2BD8B4902BD8B4912B0A0149
:1046E000BB6B940EBA6F00011AEC1CF001C043F1D1
:1046F000020E0A01B76FBC0EB66FB96B43C1B8FAB0
:10470000000196EC1CF002C003F0FC51025C07E3D0
:1047100003E10150FB5D03E2FB2BD8B4FC2B020E3E
:104720000A01B76FBC0EB66FB96B43C1B8FA00018E
:1047300096EC1CF002C003F00150FB5D6BE10350EE
:10474000FC5D68E1FB2BD8B4FC2B6EEC1CF002C0C6
:10475000AFFA01C0AEFA0A01AF51010813E303E159
:10476000AE515D080FE3000102D6010E0A01AE272B
:10477000000EAF23AFCAB2FAAECAB1FA00019ADE98
:104780001AD00A012A0EF66E480EF76E0001C1EC2F
:1047900003F00E0E04018E6F030EEA6E410EE96EF9
:1047A000000E0001BEEC00F00A000900F550EE6EAC
:1047B0000009FBE12FD03A0EF66E480EF76EC1EC01
:1047C00003F04A0EF66E480EF76E140E0A01CE6F15
:1047D00000017DEC0BF0100EE96EAFCAB2FAAECA62
:1047E000B1FA85D6610EF66E480EF76E030E0A0119
:1047F000CE6F00017DEC0BF00901A36B0101096B89
:10480000929C899C0401922D02D00B0E8E6F010E9A
:10481000986F0001F29442EF00F00A0D4B65792089
:1048200072656C656173650A0D000D0A46756C6CE6
:10483000206D656D6F72790D0A000D0A53617669FE
:104840006E672050494E0D0A00000D0A6E6578749F
:10485000207472616E73616374696F6E2028256CB9
:1048600064290D0A00000D0A626F6F74696E672E6D
:104870002E2E0D0A000041540D0A000041542B4316
:104880004D47463D310D0A0041542B43534D503D99
:1048900031372C3136372C302C3234350D0A0000AC
:1048A00041542B434D47443D310D0A0041542B43A5
:1048B0004D47443D320D0A0041542B434D47443D82
:1048C000330D0A0041542B434D47443D340D0A003B
:1048D00041542B434D47443D350D0A006E6577200A
:1048E0006B65626F617264206D6F64650A0D000014
:1048F0004F6C64206B65626F617264206D6F6465DC
:104900000A0D0000536C61766572206D6F6465203E
:1049100069732064697361626C650A0D0000536CF1
:1049200061766572206D6F646520697320656E61C4
:10493000626C650A0D0074776F206E756D6265722A
:1049400073206D6F6465207665720A0D00006175D5
:10495000746F73656E64696E672069732064697330
:1049600061626C650A0D00006175746F73656E6439
:10497000696E6720697320656E61626C650A0D005F
:1049800072656164696E675F736D732E2E2E0A0DFA
:10499000000041542B434D47523D310D0A00616EDA
:1049A000616C797A655F736D732E2E2E0A0D00008F
:1049B0000A0D636865636B696E67207468652066BD
:1049C00069727374206E756D6265720A0D000A0D4E
:1049D0004D6F62696C652070686F6E65206E756DD5
:1049E00062657220697320000A0D4D53473A20001A
:1049F0000A0D54494D453A2000000A0D636865636D
:104A00006B696E672070686F6E65206E756D62658C
:104A10007220697320646F6E650A0D000A0D636F62
:104A20006E66696775726564206D6F62696C65207A
:104A300070686F6E65206E756D6265720A0D00009C
:104A40006368616E6765642070686F6E65206E755F
:104A50006D6265720A0D2800290A0D0077726F6E6B
:104A6000672070617373776F72640A0D00000A0D1E
:104A7000636865636B696E6720746865207365633E
:104A80006F6E64206E756D6265720A0D00000A0D0E
:104A90004D6F62696C652070686F6E65206E756D14
:104AA00062657220697320000A0D4D53473A200059
:104AB0000A0D54494D453A2000000A0D7265736590
:104AC00074207468652070617373776F72640A0D67
:104AD0000000646F6E650A0D00000A0D636865636F
:104AE0006B696E672070686F6E65206E756D6265AC
:104AF0007220697320646F6E650A0D000A0D636F82
:104B00006E66696775726564206D6F62696C652099
:104B100070686F6E65206E756D6265720A0D0000BB
:104B20006368616E6765642070686F6E65206E757E
:104B30006D6265720A0D2800290A0D0077726F6E8A
:104B4000672070617373776F72640A0D00000A0D3D
:104B500020746869732070686F6E6520756E61627D
:104B60006C6520746F2073656E6420636F6D6D617A
:104B70006E6473200A0D00006368616E67656420CF
:104B80007468652070617373776F72640A0D00003A
:104B90000A0D657869740A0D00000A0D6B6579705D
:104BA00072657373207475726E206F6E0A0D00004B
:104BB00020657869740A0D000A0D6B65797072655D
:104BC0007373207475726E206F66660A0D0020651F
:104BD0007869740A0D000A0D706C65617365206355
:104BE0006865636B20796F75722073796E74617874
:104BF0000A0D00000A0D6D6173746572206D6F649B
:104C000065207475726E206F6E0A0D0020657869DC
:104C1000740A0D000A0D6D6173746572206D6F6406
:104C200065207475726E206F66660A0D000020653F
:104C30007869740A0D000A0D706C656173652063F4
:104C40006865636B20796F75722073796E74617813
:104C50000A0D0000726573657420666163746F727B
:104C6000790A0D006368616E67656420746F206E59
:104C70006577206B6579626F6172640A0D00636805
:104C8000616E67656420746F206F6C64206B65795A
:104C9000626F6172640A0D007472616E2074696DD6
:104CA00065203D2025640A0D00000A0D706C6561C9
:104CB000736520636865636B20796F757220737903
:104CC0006E7461780A0D00000A0D6175746F73656A
:104CD0006E64696E67207475726E206F6E0A0D00C7
:104CE00020657869740A0D000A0D6175746F73652B
:104CF0006E64696E67207475726E206F66660A0D49
:104D0000000020657869740A0D000A0D706C6561F9
:104D1000736520636865636B20796F7572207379A2
:104D20006E7461780A0D0000464F524D415454494B
:104D30004E472E2E2E0020657869740A0D00464FCE
:104D4000524D415454494E472E2E2E00206578690D
:104D5000740A0D00646576696365206861732025B7
:104D60006C75207472616E73616374696F6E200A72
:104D70000D00646F776E6C6F616420616C6C0A0D5E
:104D800000000A0D706C6561736520636865636B74
:104D900020796F75722073796E7461780A0D000046
:104DA00064656C6574655F4D53472E2E2E0A0D00A9
:104DB00041542B434D47443D310D0A00256C75206D
:104DC0006368617261637465720A0D004D53475FD9
:104DD00073656E64696E672025640A0D0000415496
:104DE0002B434D47463D310D0A0041542B434D475F
:104DF000533D00000D0A53656E64696E6720746F41
:104E000020746865206669727374206E756D6265C2
:104E1000720D0A000D0A53656E64696E6720746F27
:104E200020746865207365636F6E64206E756D62B3
:104E300065720D0A000069646C650A0D000041543A
:104E40002B434D47463D310D0A0053494D206973B0
:104E5000207265706C79696E670A0D00636865631E
:104E60006B20636F6D756E69636174696F6E0A0D97
:104E7000000041540D0A000053494D2061637469DC
:104E800076697479207374617475730A0D004154E6
:104E90002B435041530D0A00636865636B20696EB4
:104EA000626F780A0D0041542B434D47523D310D3E
:104EB0000A0094869488F19E14EF34F00A018D6BF9
:104EC0008A518D5D26E2036A8D518B25016E8C51CE
:104ED000032201C08EFA03C08FFA8D518925906F8D
:104EE000196AF2BE198EF29EBB6BBA6F00011AEC02
:104EF0001CF019BEF28E8FCAEAFF8ECAE9FF01C00C
:104F0000EFFF1A0E006E002EFED700000A018D2B57
:104F1000D7D7000112000A01A26B9F51A25D22E2C5
:104F2000A2519E25A36F036AA251A025E96EA1514B
:104F30000320EA6EEFCFA4FA196AF2BE198EF29E30
:104F4000C36BA3CAC2FAA4CAC4FA0001ACEC1EF037
:104F500019BEF28E1A0E006E002EFED700000A0156
:104F6000A22BDBD7000112000A01896B140E8A6F95
:104F70008C6B550E8B6F0001A1DF553C2BD0563C3E
:104F800029D0643D27D0EA6A2D0EE96E006A026AD4
:104F9000140E016EAAEC21F0EA6A2D0EE96E000EE5
:104FA00069EC00F00A000900F550EE6E0009FBE123
:104FB0000A019E6B140E9F6FA16B2D0EA06F000156
:104FC000AADF0A01896B140E8A6F8C6B550E8B6FEA
:104FD000000174DF1200196AF2BE198EF29E0A01F6
:104FE000B86B0001B5EC1BF019BEF28E01C089FA56
:104FF0000A01899F94880A0E006E002EFED79486BF
:105000000B0E006E002EFED78B9894980A0E006E41
:10501000002EFED78B969496196AF2BE198EF29ED8
:10502000D00EC96F000145EC1BF019BEF28E196A53
:10503000F2BE198EF29E0A01C96B000145EC1BF00D
:1050400019BEF28E196AF2BE198EF29E89CAC9FA89
:1050500045EC1BF019BEF28E94880A0E006E002EED
:10506000FED794860B0E006E002EFED782A6FED7CA
:105070008B9894980A0E006E002EFED78B9694960D
:10508000196AF2BE198EF29ED00E0A01C96F000194
:1050900045EC1BF019BEF28E196AF2BE198EF29E13
:1050A000070E0A01C96F000145EC1BF019BEF28E14
:1050B000196AF2BE198EF29E800E0A01C96F0001B4
:1050C00045EC1BF019BEF28E94980000948682A6DF
:1050D000FED70A0E006E002EFED700D00000948886
:1050E0000A0E006E002EFED743EF34F00A018D6BDE
:1050F0008C6B8B6B8A6B916B906B8F6B8E6B956BE4
:10510000946B936B926B996B986B976B966B9D6B93
:105110009C6B9B6B9A6B196AF2BE198EF29EBB6BED
:1051200089CABAFA00011AEC1CF019BEF28E0A0103
:1051300001C08EFA8F6B906B916B010E89259E6F6B
:10514000196AF2BE198EF29EBB6BBA6F00011AEC9F
:105150001CF019BEF28E0A01956B946B936B01C023
:1051600092FA94CA95FA93CA94FA92CA93FA926BF5
:10517000020E89259E6F196AF2BE198EF29EBB6BD4
:10518000BA6F00011AEC1CF019BEF28E0A01996B7D
:10519000986B976B01C096FA97CA99FA96CA98FAD3
:1051A000966B976B030E89259E6F196AF2BE198E56
:1051B000F29EBB6BBA6F00011AEC1CF019BEF28EA6
:1051C0000A019D6B9C6B9B6B01C09AFA9ACA9DFA6F
:1051D0009A6B9B6B9C6B9A5196119E6F9B5197118A
:1051E0009F6F9C519811A06F9D519911A16F925181
:1051F0009E1393519F139451A0139551A1139E5147
:105200008E118A6F9F518F118B6FA05190118C6FEF
:10521000A15191118D6F8ACA00F08BCA01F08CCA1E
:1052200002F08DCA03F0000112000900F5520DE0F2
:10523000F6CF89FAF7CF8AFAF5509EA8FED7AE6E60
:1052400089CAF6FF8ACAF7FFF0D712000A018D6BF0
:105250008E6B8F6B906B916B926B936B196AF2BE36
:10526000198EF29E320EC06F8ACAC2FA89CAC1FA7A
:105270000001A7EC1CF019BEF28E196AF2BE198E5D
:10528000F29E140E0A01C06F8CCAC2FA8BCAC1FA10
:105290000001A7EC1CF019BEF28E0A018D6B8D5136
:1052A0006308D8A005D1036A8D514B0FE96E010E3A
:1052B0000320EA6EEF502B08D8A496D0010E8D255E
:1052C000036A4B0FE96E010E0320EA6EEF504308AC
:1052D000D8A48AD0020E8D25036A4B0FE96E010E09
:1052E0000320EA6EEF504D08D8A47ED0030E8D2522
:1052F000036A4B0FE96E010E0320EA6EEF50470878
:10530000D8A472D0040E8D25036A4B0FE96E010EEE
:105310000320EA6EEF50520867E1050E8D25036AFF
:105320004B0FE96E010E0320EA6EEF503A085CE184
:10533000060E8D25036A4B0FE96E010E0320EA6EFF
:10534000EF50200851E1070E8D25036A4B0FE96EDF
:10535000010E0320EA6EEF50300846E1080E8D255D
:10536000036A4B0FE96E010E0320EA6EEF502C0822
:105370003BE1090E8D25036A4B0FE96E010E0320F8
:10538000EA6EEF502C0830E10A0E8D25036A4B0FB0
:10539000E96E010E0320EA6EEF50300825E1936BB1
:1053A000C80E8D6F196AF2BE198EF29E640EC06F20
:1053B0008ACAC2FA89CAC1FA0001A7EC1CF019BE58
:1053C000F28E196AF2BE198EF29E100E0A01C06F9B
:1053D0008CCAC2FA8BCAC1FA0001A7EC1CF019BE34
:1053E000F28E0101046B0A01036A8D514B0FE96EC5
:1053F000010E0320EA6EEFCF94FA8E51030813E1F9
:1054000094512F0803E29451390803E294512B0878
:105410000AE18F518D5D036A8B25E96E8C51032063
:10542000EA6E94CAEFFF905102080CE18F518D5D36
:10543000036A8925E96E8A510320EA6E94CAEFFF58
:10544000010E936F915102080AE192518D5D036A3A
:10545000590FE96E040E0320EA6E94CAEFFF9451CF
:1054600022080AE18E510508D8B08E2B8E51030810
:1054700003E1010E8D258F6F8E51060817E19451BF
:105480000D0803E094510A0807E1902B905102089F
:1054900003E1010E8D258F6F9451220807E1912BB6
:1054A0009151020803E1010E8D25926F8D2BF7D6E5
:1054B00093CA01F0000137EF37F08ACA8EFA89CA21
:1054C0008DFA8CCA90FA8BCA8FFA8ECA03F00A0141
:1054D0008DCAE9FF8ECAEAFFEF5223E090CA03F0BB
:1054E0008FCAE9FF90CAEAFFEF521BE08DCAE9FFBD
:1054F0008ECAEAFFEFCF91FA90CA03F08FCAE9FF94
:1055000090CAEAFFEF50915D03E0010E016E1FD0DB
:105510008D2BD8B48E2B8F2BD8B4902B0001D5D7E0
:105520000A018ECA03F08DCAE9FF8ECAEAFFEFCFE7
:1055300091FA90CA03F08FCAE9FF90CAEAFFEF50D0
:10554000915D03E0010E016E02D0000E016E0001BC
:105550001200300E0A018A5D0A0DF3CF8DFA300E6B
:105560008B5D8D258C6F8CCA01F000011200948830
:105570000A0E006E002EFED794860B0E006E002ED3
:10558000FED78B9894980A0E006E002EFED78B964D
:1055900094961A0E006E002EFED70000196AF2BE15
:1055A000198EF29ED00E0A01C96F000145EC1BF066
:1055B00019BEF28E1A0E006E002EFED70000196A78
:1055C000F2BE198EF29E91CAC9FA45EC1BF019BEC3
:1055D000F28E1A0E006E002EFED70000196AF2BE7F
:1055E000198EF29E92CAC9FA45EC1BF019BEF28ED2
:1055F00094980000948682A6FED70A0E006E002EB4
:10560000FED700D0000094880A0E006E002EFED750
:105610001A0E006E002EFED700001200196AF2BEAC
:10562000198EF29E90CAC0FA0A0E0A01C16F0001DB
:10563000F1EC0BF019BEF28E01C091FA0A01915102
:105640000A0DF350905D926F9139006EF00E0016C6
:1056500000509211016E000112000A01916B926BD1
:10566000000185DF8FCA90FAD9DF01C090FA010EE0
:105670000A01916F01C092FA000179DF8ECA90FA97
:10568000CDDF01C090FA020E0A01916F01C092FABB
:1056900000016DDF8DCA90FAC1DF01C090FA030EE0
:1056A0000A01916F01C092FA000161DF8ACA90FA83
:1056B000B5DF01C090FA040E0A01916F01C092FAA1
:1056C000000155DF8BCA90FAA9DF01C090FA050EE0
:1056D0000A01916F01C092FA000149DF8CCA90FA69
:1056E0009DDF01C090FA060E0A01916F01C092FA87
:1056F00000013DDF070E0A01916F926B000137DF59
:10570000B5EF2BF059C48AFA5AC48BFA22DF01C0D4
:10571000FEF05CC48AFA5DC48BFA1BDF01C0FFF0A7
:105720005FC48AFA60C48BFA14DF01C000F162C45E
:105730008AFA63C48BFA0DDF01C001F165C48AFAED
:1057400066C48BFA06DF010E01240101026F00C15D
:105750008AFAFFC08BFAFEC08CFAFDC08DFA01C137
:105760008EFA02C18FFA000178D712000A018D5318
:1057700002E18E5342E089CAE9FF8ACAEAFFEFCF0D
:105780008FFA8CCA03F08BCAE9FF8CCAEAFFEF508C
:105790008F5D17E08ACA03F089CAE9FF8ACAEAFF67
:1057A000EFCF8FFA8CCA03F08BCAE9FF8CCAEAFFED
:1057B000EF508F5D02E2FF0E01D0010E016E1FD08F
:1057C0000BD08ACA03F089CAE9FF8ACAEAFFEF52FE
:1057D00003E1000E016E13D08ACA03F08951892BB0
:1057E000D8B48A2B8CCA03F08B518B2BD8B48C2B5A
:1057F0008D51D8B48E078D07BAD7000E016E000107
:1058000012000A019D6B9D5113080AE3036A9D5122
:10581000890FE96E0A0E0320EA6EEF689D2BF3D71D
:105820009E6B140E9F6F0A0EA16F890EA06F000170
:105830008BEC27F00CEF3AF0196AF2BE198EF29E4B
:105840000A01C36B940EC26F030EC46F0001ACEC6F
:105850001EF019BEF28E196AF2BE198EF29E0A016E
:10586000C36B910EC26F010EC46F0001ACEC1EF051
:1058700019BEF28E196AF2BE198EF29E0A01BB6B36
:10588000910EBA6F00011AEC1CF019BEF28E01C025
:10589000ACF9196AF2BE198EF29E0A01C36B930E1F
:1058A000C26FC46B0001ACEC1EF019BEF28E196A17
:1058B000F2BE198EF29E0A01BB6B930EBA6F000105
:1058C0001AEC1CF019BEF28E01C092F489EF3EF082
:1058D0000A018A6B960E896F893D03D08A3D01D0FB
:1058E00013D0196AF2BE198EF29E8ACAC3FA89CA07
:1058F000C2FAC46B0001ACEC1EF019BEF28E0A01B4
:10590000892BD8B48A2BE8D7236A226A216A960E9B
:10591000206E276A266AAA0E256E470E246E196A23
:10592000F2BE198EF29E23C0B7FA22C0B6FA21C089
:10593000B5FA20C0B4FA190EB86F00012FEC1FF0B1
:1059400019BEF28E196AF2BE198EF29E27C0B7FAFE
:1059500026C0B6FA25C0B5FA24C0B4FA1E0E0A0154
:10596000B86F00012FEC1FF019BEF28E196AF2BE5B
:10597000198EF29E0A01B26BB16B00015AEC22F053
:1059800019BEF28E40EF41F0AA0E0A018A6F470E4F
:10599000896F275209E1265207E18A51255C17E3F6
:1059A00003E12450895D13E2196AF2BE198EF29E5A
:1059B0008ACAC3FA89CAC2FAC46B0001ACEC1EF0F1
:1059C00019BEF28E0A01892BD8B48A2BE2D78A6BD2
:1059D000960E896F235209E1225207E18A51215C18
:1059E00017E303E12050895D13E2196AF2BE198EB4
:1059F000F29E8ACAC3FA89CAC2FAC46B0001ACEC2F
:105A00001EF019BEF28E0A01892BD8B48A2BE2D778
:105A1000236A226A216A960E206E276A266AAA0ED7
:105A2000256E470E246E196AF2BE198EF29E23C0AF
:105A3000B7FA22C0B6FA21C0B5FA20C0B4FA190EDE
:105A4000B86F00012FEC1FF019BEF28E196AF2BE7A
:105A5000198EF29E27C0B7FA26C0B6FA25C0B5FA4D
:105A600024C0B4FA1E0E0A01B86F00012FEC1FF01B
:105A700019BEF28E196AF2BE198EF29E0A01B26B3D
:105A8000B16B00015AEC22F019BEF28E196AF2BE17
:105A9000198EF29E6EEC1CF019BEF28E02C0FAF066
:105AA00001C0F9F080EF41F092CA94FA91CA93FADA
:105AB00094CA03F00A0193CAE9FF94CAEAFFEF52BD
:105AC00006E0932BD8B4942B0001F2D70A01915130
:105AD000935D006E92519459036E00C001F0000175
